{
  "_format": "hh-sol-artifact-1",
  "contractName": "MetaStocksCompany",
  "sourceName": "contracts/MetaStocksCompany.sol",
  "abi": [
    {
      "inputs": [],
      "stateMutability": "nonpayable",
      "type": "constructor"
    },
    {
      "anonymous": false,
      "inputs": [
        {
          "indexed": true,
          "internalType": "address",
          "name": "owner",
          "type": "address"
        },
        {
          "indexed": true,
          "internalType": "address",
          "name": "approved",
          "type": "address"
        },
        {
          "indexed": true,
          "internalType": "uint256",
          "name": "tokenId",
          "type": "uint256"
        }
      ],
      "name": "Approval",
      "type": "event"
    },
    {
      "anonymous": false,
      "inputs": [
        {
          "indexed": true,
          "internalType": "address",
          "name": "owner",
          "type": "address"
        },
        {
          "indexed": true,
          "internalType": "address",
          "name": "operator",
          "type": "address"
        },
        {
          "indexed": false,
          "internalType": "bool",
          "name": "approved",
          "type": "bool"
        }
      ],
      "name": "ApprovalForAll",
      "type": "event"
    },
    {
      "anonymous": false,
      "inputs": [
        {
          "indexed": false,
          "internalType": "uint8",
          "name": "version",
          "type": "uint8"
        }
      ],
      "name": "Initialized",
      "type": "event"
    },
    {
      "anonymous": false,
      "inputs": [
        {
          "indexed": true,
          "internalType": "address",
          "name": "previousOwner",
          "type": "address"
        },
        {
          "indexed": true,
          "internalType": "address",
          "name": "newOwner",
          "type": "address"
        }
      ],
      "name": "OwnershipTransferred",
      "type": "event"
    },
    {
      "anonymous": false,
      "inputs": [
        {
          "indexed": false,
          "internalType": "address",
          "name": "account",
          "type": "address"
        }
      ],
      "name": "Paused",
      "type": "event"
    },
    {
      "anonymous": false,
      "inputs": [
        {
          "indexed": true,
          "internalType": "address",
          "name": "from",
          "type": "address"
        },
        {
          "indexed": true,
          "internalType": "address",
          "name": "to",
          "type": "address"
        },
        {
          "indexed": true,
          "internalType": "uint256",
          "name": "tokenId",
          "type": "uint256"
        }
      ],
      "name": "Transfer",
      "type": "event"
    },
    {
      "anonymous": false,
      "inputs": [
        {
          "indexed": false,
          "internalType": "address",
          "name": "account",
          "type": "address"
        }
      ],
      "name": "Unpaused",
      "type": "event"
    },
    {
      "inputs": [
        {
          "internalType": "address",
          "name": "to",
          "type": "address"
        },
        {
          "internalType": "uint256",
          "name": "tokenId",
          "type": "uint256"
        }
      ],
      "name": "approve",
      "outputs": [],
      "stateMutability": "nonpayable",
      "type": "function"
    },
    {
      "inputs": [
        {
          "internalType": "address",
          "name": "owner",
          "type": "address"
        }
      ],
      "name": "balanceOf",
      "outputs": [
        {
          "internalType": "uint256",
          "name": "",
          "type": "uint256"
        }
      ],
      "stateMutability": "view",
      "type": "function"
    },
    {
      "inputs": [
        {
          "internalType": "uint256",
          "name": "tokenId",
          "type": "uint256"
        }
      ],
      "name": "getApproved",
      "outputs": [
        {
          "internalType": "address",
          "name": "",
          "type": "address"
        }
      ],
      "stateMutability": "view",
      "type": "function"
    },
    {
      "inputs": [],
      "name": "initialize",
      "outputs": [],
      "stateMutability": "nonpayable",
      "type": "function"
    },
    {
      "inputs": [
        {
          "internalType": "address",
          "name": "owner",
          "type": "address"
        },
        {
          "internalType": "address",
          "name": "operator",
          "type": "address"
        }
      ],
      "name": "isApprovedForAll",
      "outputs": [
        {
          "internalType": "bool",
          "name": "",
          "type": "bool"
        }
      ],
      "stateMutability": "view",
      "type": "function"
    },
    {
      "inputs": [],
      "name": "name",
      "outputs": [
        {
          "internalType": "string",
          "name": "",
          "type": "string"
        }
      ],
      "stateMutability": "view",
      "type": "function"
    },
    {
      "inputs": [
        {
          "internalType": "address",
          "name": "",
          "type": "address"
        },
        {
          "internalType": "address",
          "name": "",
          "type": "address"
        },
        {
          "internalType": "uint256[]",
          "name": "",
          "type": "uint256[]"
        },
        {
          "internalType": "uint256[]",
          "name": "",
          "type": "uint256[]"
        },
        {
          "internalType": "bytes",
          "name": "",
          "type": "bytes"
        }
      ],
      "name": "onERC1155BatchReceived",
      "outputs": [
        {
          "internalType": "bytes4",
          "name": "",
          "type": "bytes4"
        }
      ],
      "stateMutability": "nonpayable",
      "type": "function"
    },
    {
      "inputs": [
        {
          "internalType": "address",
          "name": "",
          "type": "address"
        },
        {
          "internalType": "address",
          "name": "",
          "type": "address"
        },
        {
          "internalType": "uint256",
          "name": "",
          "type": "uint256"
        },
        {
          "internalType": "uint256",
          "name": "",
          "type": "uint256"
        },
        {
          "internalType": "bytes",
          "name": "",
          "type": "bytes"
        }
      ],
      "name": "onERC1155Received",
      "outputs": [
        {
          "internalType": "bytes4",
          "name": "",
          "type": "bytes4"
        }
      ],
      "stateMutability": "nonpayable",
      "type": "function"
    },
    {
      "inputs": [],
      "name": "owner",
      "outputs": [
        {
          "internalType": "address",
          "name": "",
          "type": "address"
        }
      ],
      "stateMutability": "view",
      "type": "function"
    },
    {
      "inputs": [
        {
          "internalType": "uint256",
          "name": "tokenId",
          "type": "uint256"
        }
      ],
      "name": "ownerOf",
      "outputs": [
        {
          "internalType": "address",
          "name": "",
          "type": "address"
        }
      ],
      "stateMutability": "view",
      "type": "function"
    },
    {
      "inputs": [],
      "name": "pause",
      "outputs": [],
      "stateMutability": "nonpayable",
      "type": "function"
    },
    {
      "inputs": [],
      "name": "paused",
      "outputs": [
        {
          "internalType": "bool",
          "name": "",
          "type": "bool"
        }
      ],
      "stateMutability": "view",
      "type": "function"
    },
    {
      "inputs": [],
      "name": "renounceOwnership",
      "outputs": [],
      "stateMutability": "nonpayable",
      "type": "function"
    },
    {
      "inputs": [
        {
          "internalType": "address",
          "name": "to",
          "type": "address"
        }
      ],
      "name": "safeMint",
      "outputs": [
        {
          "internalType": "uint256",
          "name": "",
          "type": "uint256"
        }
      ],
      "stateMutability": "nonpayable",
      "type": "function"
    },
    {
      "inputs": [
        {
          "internalType": "address",
          "name": "from",
          "type": "address"
        },
        {
          "internalType": "address",
          "name": "to",
          "type": "address"
        },
        {
          "internalType": "uint256",
          "name": "tokenId",
          "type": "uint256"
        }
      ],
      "name": "safeTransferFrom",
      "outputs": [],
      "stateMutability": "nonpayable",
      "type": "function"
    },
    {
      "inputs": [
        {
          "internalType": "address",
          "name": "from",
          "type": "address"
        },
        {
          "internalType": "address",
          "name": "to",
          "type": "address"
        },
        {
          "internalType": "uint256",
          "name": "tokenId",
          "type": "uint256"
        },
        {
          "internalType": "bytes",
          "name": "_data",
          "type": "bytes"
        }
      ],
      "name": "safeTransferFrom",
      "outputs": [],
      "stateMutability": "nonpayable",
      "type": "function"
    },
    {
      "inputs": [
        {
          "internalType": "address",
          "name": "operator",
          "type": "address"
        },
        {
          "internalType": "bool",
          "name": "approved",
          "type": "bool"
        }
      ],
      "name": "setApprovalForAll",
      "outputs": [],
      "stateMutability": "nonpayable",
      "type": "function"
    },
    {
      "inputs": [
        {
          "internalType": "bytes4",
          "name": "interfaceId",
          "type": "bytes4"
        }
      ],
      "name": "supportsInterface",
      "outputs": [
        {
          "internalType": "bool",
          "name": "",
          "type": "bool"
        }
      ],
      "stateMutability": "view",
      "type": "function"
    },
    {
      "inputs": [],
      "name": "symbol",
      "outputs": [
        {
          "internalType": "string",
          "name": "",
          "type": "string"
        }
      ],
      "stateMutability": "view",
      "type": "function"
    },
    {
      "inputs": [
        {
          "internalType": "uint256",
          "name": "tokenId",
          "type": "uint256"
        }
      ],
      "name": "tokenURI",
      "outputs": [
        {
          "internalType": "string",
          "name": "",
          "type": "string"
        }
      ],
      "stateMutability": "view",
      "type": "function"
    },
    {
      "inputs": [
        {
          "internalType": "address",
          "name": "from",
          "type": "address"
        },
        {
          "internalType": "address",
          "name": "to",
          "type": "address"
        },
        {
          "internalType": "uint256",
          "name": "tokenId",
          "type": "uint256"
        }
      ],
      "name": "transferFrom",
      "outputs": [],
      "stateMutability": "nonpayable",
      "type": "function"
    },
    {
      "inputs": [
        {
          "internalType": "address",
          "name": "newOwner",
          "type": "address"
        }
      ],
      "name": "transferOwnership",
      "outputs": [],
      "stateMutability": "nonpayable",
      "type": "function"
    },
    {
      "inputs": [],
      "name": "unpause",
      "outputs": [],
      "stateMutability": "nonpayable",
      "type": "function"
    }
  ],
  "bytecode": "0x60806040523480156200001157600080fd5b506200001c62000022565b62000152565b6200002e60ff62000031565b50565b60008054610100900460ff1615620000ca578160ff1660011480156200006a575062000068306200014360201b62000a911760201c565b155b620000c25760405162461bcd60e51b815260206004820152602e602482015260008051602062001f3883398151915260448201526d191e481a5b9a5d1a585b1a5e995960921b60648201526084015b60405180910390fd5b506000919050565b60005460ff808416911610620001295760405162461bcd60e51b815260206004820152602e602482015260008051602062001f3883398151915260448201526d191e481a5b9a5d1a585b1a5e995960921b6064820152608401620000b9565b506000805460ff191660ff92909216919091179055600190565b6001600160a01b03163b151590565b611dd680620001626000396000f3fe608060405234801561001057600080fd5b506004361061014d5760003560e01c8063715018a6116100c3578063b88d4fde1161007c578063b88d4fde1461028a578063bc197c811461029d578063c87b56dd146102d5578063e985e9c5146102e8578063f23a6e61146102fb578063f2fde38b1461031a57600080fd5b8063715018a61461024f5780638129fc1c146102575780638456cb591461025f5780638da5cb5b1461026757806395d89b411461026f578063a22cb4651461027757600080fd5b80633f4ba83a116101155780633f4ba83a146101e257806340d097c3146101ea57806342842e0e1461020b5780635c975abb1461021e5780636352211e1461022957806370a082311461023c57600080fd5b806301ffc9a71461015257806306fdde031461017a578063081812fc1461018f578063095ea7b3146101ba57806323b872dd146101cf575b600080fd5b610165610160366004611640565b61032d565b60405190151581526020015b60405180910390f35b61018261033e565b60405161017191906116b5565b6101a261019d3660046116c8565b6103d0565b6040516001600160a01b039091168152602001610171565b6101cd6101c83660046116f8565b61045d565b005b6101cd6101dd366004611722565b61056d565b6101cd61059e565b6101fd6101f836600461175e565b6105d7565b604051908152602001610171565b6101cd610219366004611722565b610635565b60975460ff16610165565b6101a26102373660046116c8565b610650565b6101fd61024a36600461175e565b6106c7565b6101cd61074e565b6101cd610787565b6101cd610852565b6101a2610889565b610182610898565b6101cd610285366004611779565b6108a7565b6101cd61029836600461186a565b6108b6565b6102bc6102ab366004611950565b63bc197c8160e01b95945050505050565b6040516001600160e01b03199091168152602001610171565b6101826102e33660046116c8565b6108ee565b6101656102f63660046119f9565b6109c6565b6102bc610309366004611a2c565b63f23a6e6160e01b95945050505050565b6101cd61032836600461175e565b6109f4565b600061033882610aa0565b92915050565b60606065805461034d90611a90565b80601f016020809104026020016040519081016040528092919081815260200182805461037990611a90565b80156103c65780601f1061039b576101008083540402835291602001916103c6565b820191906000526020600020905b8154815290600101906020018083116103a957829003601f168201915b5050505050905090565b60006103db82610ad5565b6104415760405162461bcd60e51b815260206004820152602c60248201527f4552433732313a20617070726f76656420717565727920666f72206e6f6e657860448201526b34b9ba32b73a103a37b5b2b760a11b60648201526084015b60405180910390fd5b506000908152606960205260409020546001600160a01b031690565b600061046882610650565b9050806001600160a01b0316836001600160a01b0316036104d55760405162461bcd60e51b815260206004820152602160248201527f4552433732313a20617070726f76616c20746f2063757272656e74206f776e656044820152603960f91b6064820152608401610438565b336001600160a01b03821614806104f157506104f181336109c6565b61055e5760405162461bcd60e51b815260206004820152603860248201527f4552433732313a20617070726f76652063616c6c6572206973206e6f74206f776044820152771b995c881b9bdc88185c1c1c9bdd995908199bdc88185b1b60421b6064820152608401610438565b6105688383610af2565b505050565b6105773382610b60565b6105935760405162461bcd60e51b815260040161043890611aca565b610568838383610c2a565b336105a7610889565b6001600160a01b0316146105cd5760405162461bcd60e51b815260040161043890611b1b565b6105d5610dd1565b565b6000336105e2610889565b6001600160a01b0316146106085760405162461bcd60e51b815260040161043890611b1b565b600061061360fb5490565b905061062360fb80546001019055565b61062d8382610e64565b90505b919050565b610568838383604051806020016040528060008152506108b6565b6000818152606760205260408120546001600160a01b03168061062d5760405162461bcd60e51b815260206004820152602960248201527f4552433732313a206f776e657220717565727920666f72206e6f6e657869737460448201526832b73a103a37b5b2b760b91b6064820152608401610438565b60006001600160a01b0382166107325760405162461bcd60e51b815260206004820152602a60248201527f4552433732313a2062616c616e636520717565727920666f7220746865207a65604482015269726f206164647265737360b01b6064820152608401610438565b506001600160a01b031660009081526068602052604090205490565b33610757610889565b6001600160a01b03161461077d5760405162461bcd60e51b815260040161043890611b1b565b6105d56000610e7e565b60006107936001610ed0565b905080156107ab576000805461ff0019166101001790555b6107f9604051806040016040528060118152602001704d65746153746f636b73436f6d70616e7960781b815250604051806040016040528060038152602001624d534360e81b815250610f5f565b610801610f90565b610809610fbf565b801561084f576000805461ff0019169055604051600181527f7f26b83ff96e1f2b6a682f133852f6798a09c465da95921460cefb38474024989060200160405180910390a15b50565b3361085b610889565b6001600160a01b0316146108815760405162461bcd60e51b815260040161043890611b1b565b6105d5610fee565b60c9546001600160a01b031690565b60606066805461034d90611a90565b6108b2338383611046565b5050565b6108c03383610b60565b6108dc5760405162461bcd60e51b815260040161043890611aca565b6108e884848484611110565b50505050565b60606108f982610ad5565b61095d5760405162461bcd60e51b815260206004820152602f60248201527f4552433732314d657461646174613a2055524920717565727920666f72206e6f60448201526e3732bc34b9ba32b73a103a37b5b2b760891b6064820152608401610438565b600061097460408051602081019091526000815290565b9050600081511161099457604051806020016040528060008152506109bf565b8061099e84611143565b6040516020016109af929190611b50565b6040516020818303038152906040525b9392505050565b6001600160a01b039182166000908152606a6020908152604080832093909416825291909152205460ff1690565b336109fd610889565b6001600160a01b031614610a235760405162461bcd60e51b815260040161043890611b1b565b6001600160a01b038116610a885760405162461bcd60e51b815260206004820152602660248201527f4f776e61626c653a206e6577206f776e657220697320746865207a65726f206160448201526564647265737360d01b6064820152608401610438565b61084f81610e7e565b6001600160a01b03163b151590565b60006001600160e01b03198216630271189760e51b148061033857506301ffc9a760e01b6001600160e01b0319831614610338565b6000908152606760205260409020546001600160a01b0316151590565b600081815260696020526040902080546001600160a01b0319166001600160a01b0384169081179091558190610b2782610650565b6001600160a01b03167f8c5be1e5ebec7d5bd14f71427d1e84f3dd0314c0f7b2291e5b200ac8c7c3b92560405160405180910390a45050565b6000610b6b82610ad5565b610bcc5760405162461bcd60e51b815260206004820152602c60248201527f4552433732313a206f70657261746f7220717565727920666f72206e6f6e657860448201526b34b9ba32b73a103a37b5b2b760a11b6064820152608401610438565b6000610bd783610650565b9050806001600160a01b0316846001600160a01b03161480610bfe5750610bfe81856109c6565b80610c225750836001600160a01b0316610c17846103d0565b6001600160a01b0316145b949350505050565b826001600160a01b0316610c3d82610650565b6001600160a01b031614610ca15760405162461bcd60e51b815260206004820152602560248201527f4552433732313a207472616e736665722066726f6d20696e636f72726563742060448201526437bbb732b960d91b6064820152608401610438565b6001600160a01b038216610d035760405162461bcd60e51b8152602060048201526024808201527f4552433732313a207472616e7366657220746f20746865207a65726f206164646044820152637265737360e01b6064820152608401610438565b610d0e838383611243565b610d19600082610af2565b6001600160a01b0383166000908152606860205260408120805460019290610d42908490611b95565b90915550506001600160a01b0382166000908152606860205260408120805460019290610d70908490611bac565b909155505060008181526067602052604080822080546001600160a01b0319166001600160a01b0386811691821790925591518493918716917fddf252ad1be2c89b69c2b068fc378daa952ba7f163c4a11628f55a4df523b3ef91a4505050565b60975460ff16610e1a5760405162461bcd60e51b815260206004820152601460248201527314185d5cd8589b194e881b9bdd081c185d5cd95960621b6044820152606401610438565b6097805460ff191690557f5db9ee0a495bf2e6ff9c91a7834c1ba4fdd244a5e8aa4e537bd38aeae4b073aa335b6040516001600160a01b03909116815260200160405180910390a1565b6108b2828260405180602001604052806000815250611266565b60c980546001600160a01b038381166001600160a01b0319831681179093556040519116919082907f8be0079c531659141344cd1fd0a4f28419497f9722a3daafe3b4186f6b6457e090600090a35050565b60008054610100900460ff1615610f1e578160ff166001148015610efa5750610ef830610a91565b155b610f165760405162461bcd60e51b815260040161043890611bc4565b506000919050565b60005460ff808416911610610f455760405162461bcd60e51b815260040161043890611bc4565b506000805460ff191660ff92909216919091179055600190565b600054610100900460ff16610f865760405162461bcd60e51b815260040161043890611c12565b6108b28282611299565b600054610100900460ff16610fb75760405162461bcd60e51b815260040161043890611c12565b6105d56112e7565b600054610100900460ff16610fe65760405162461bcd60e51b815260040161043890611c12565b6105d561131a565b60975460ff16156110115760405162461bcd60e51b815260040161043890611c5d565b6097805460ff191660011790557f62e78cea01bee320cd4e420270b5ea74000d11b0c9f74754ebdbfc544b05a258610e473390565b816001600160a01b0316836001600160a01b0316036110a35760405162461bcd60e51b815260206004820152601960248201527822a9219b99189d1030b8383937bb32903a379031b0b63632b960391b6044820152606401610438565b6001600160a01b038381166000818152606a6020908152604080832094871680845294825291829020805460ff191686151590811790915591519182527f17307eab39ab6107e8899845ad3d59bd9653f200f220920489ca2b5937696c31910160405180910390a3505050565b61111b848484610c2a565b6111278484848461134a565b6108e85760405162461bcd60e51b815260040161043890611c87565b60608160000361116a5750506040805180820190915260018152600360fc1b602082015290565b8160005b8115611194578061117e81611cd9565b915061118d9050600a83611d08565b915061116e565b6000816001600160401b038111156111ae576111ae6117b5565b6040519080825280601f01601f1916602001820160405280156111d8576020820181803683370190505b5090505b8415610c22576111ed600183611b95565b91506111fa600a86611d1c565b611205906030611bac565b60f81b81838151811061121a5761121a611d30565b60200101906001600160f81b031916908160001a90535061123c600a86611d08565b94506111dc565b60975460ff16156105685760405162461bcd60e51b815260040161043890611c5d565b6112708383611452565b61127d600084848461134a565b6105685760405162461bcd60e51b815260040161043890611c87565b600054610100900460ff166112c05760405162461bcd60e51b815260040161043890611c12565b81516112d3906065906020850190611591565b508051610568906066906020840190611591565b600054610100900460ff1661130e5760405162461bcd60e51b815260040161043890611c12565b6097805460ff19169055565b600054610100900460ff166113415760405162461bcd60e51b815260040161043890611c12565b6105d533610e7e565b600061135e846001600160a01b0316610a91565b1561144757604051630a85bd0160e11b81526001600160a01b0385169063150b7a0290611395903390899088908890600401611d46565b6020604051808303816000875af19250505080156113d0575060408051601f3d908101601f191682019092526113cd91810190611d83565b60015b61142d573d8080156113fe576040519150601f19603f3d011682016040523d82523d6000602084013e611403565b606091505b5080516000036114255760405162461bcd60e51b815260040161043890611c87565b805181602001fd5b6001600160e01b031916630a85bd0160e11b149050610c22565b506001949350505050565b6001600160a01b0382166114a85760405162461bcd60e51b815260206004820181905260248201527f4552433732313a206d696e7420746f20746865207a65726f20616464726573736044820152606401610438565b6114b181610ad5565b156114fe5760405162461bcd60e51b815260206004820152601c60248201527f4552433732313a20746f6b656e20616c7265616479206d696e746564000000006044820152606401610438565b61150a60008383611243565b6001600160a01b0382166000908152606860205260408120805460019290611533908490611bac565b909155505060008181526067602052604080822080546001600160a01b0319166001600160a01b03861690811790915590518392907fddf252ad1be2c89b69c2b068fc378daa952ba7f163c4a11628f55a4df523b3ef908290a45050565b82805461159d90611a90565b90600052602060002090601f0160209004810192826115bf5760008555611605565b82601f106115d857805160ff1916838001178555611605565b82800160010185558215611605579182015b828111156116055782518255916020019190600101906115ea565b50611611929150611615565b5090565b5b808211156116115760008155600101611616565b6001600160e01b03198116811461084f57600080fd5b60006020828403121561165257600080fd5b81356109bf8161162a565b60005b83811015611678578181015183820152602001611660565b838111156108e85750506000910152565b600081518084526116a181602086016020860161165d565b601f01601f19169290920160200192915050565b6020815260006109bf6020830184611689565b6000602082840312156116da57600080fd5b5035919050565b80356001600160a01b038116811461063057600080fd5b6000806040838503121561170b57600080fd5b611714836116e1565b946020939093013593505050565b60008060006060848603121561173757600080fd5b611740846116e1565b925061174e602085016116e1565b9150604084013590509250925092565b60006020828403121561177057600080fd5b6109bf826116e1565b6000806040838503121561178c57600080fd5b611795836116e1565b9150602083013580151581146117aa57600080fd5b809150509250929050565b634e487b7160e01b600052604160045260246000fd5b604051601f8201601f191681016001600160401b03811182821017156117f3576117f36117b5565b604052919050565b600082601f83011261180c57600080fd5b81356001600160401b03811115611825576118256117b5565b611838601f8201601f19166020016117cb565b81815284602083860101111561184d57600080fd5b816020850160208301376000918101602001919091529392505050565b6000806000806080858703121561188057600080fd5b611889856116e1565b9350611897602086016116e1565b92506040850135915060608501356001600160401b038111156118b957600080fd5b6118c5878288016117fb565b91505092959194509250565b600082601f8301126118e257600080fd5b813560206001600160401b038211156118fd576118fd6117b5565b8160051b61190c8282016117cb565b928352848101820192828101908785111561192657600080fd5b83870192505b848310156119455782358252918301919083019061192c565b979650505050505050565b600080600080600060a0868803121561196857600080fd5b611971866116e1565b945061197f602087016116e1565b935060408601356001600160401b038082111561199b57600080fd5b6119a789838a016118d1565b945060608801359150808211156119bd57600080fd5b6119c989838a016118d1565b935060808801359150808211156119df57600080fd5b506119ec888289016117fb565b9150509295509295909350565b60008060408385031215611a0c57600080fd5b611a15836116e1565b9150611a23602084016116e1565b90509250929050565b600080600080600060a08688031215611a4457600080fd5b611a4d866116e1565b9450611a5b602087016116e1565b9350604086013592506060860135915060808601356001600160401b03811115611a8457600080fd5b6119ec888289016117fb565b600181811c90821680611aa457607f821691505b602082108103611ac457634e487b7160e01b600052602260045260246000fd5b50919050565b60208082526031908201527f4552433732313a207472616e736665722063616c6c6572206973206e6f74206f6040820152701ddb995c881b9bdc88185c1c1c9bdd9959607a1b606082015260800190565b6020808252818101527f4f776e61626c653a2063616c6c6572206973206e6f7420746865206f776e6572604082015260600190565b60008351611b6281846020880161165d565b835190830190611b7681836020880161165d565b01949350505050565b634e487b7160e01b600052601160045260246000fd5b600082821015611ba757611ba7611b7f565b500390565b60008219821115611bbf57611bbf611b7f565b500190565b6020808252602e908201527f496e697469616c697a61626c653a20636f6e747261637420697320616c72656160408201526d191e481a5b9a5d1a585b1a5e995960921b606082015260800190565b6020808252602b908201527f496e697469616c697a61626c653a20636f6e7472616374206973206e6f74206960408201526a6e697469616c697a696e6760a81b606082015260800190565b60208082526010908201526f14185d5cd8589b194e881c185d5cd95960821b604082015260600190565b60208082526032908201527f4552433732313a207472616e7366657220746f206e6f6e20455243373231526560408201527131b2b4bb32b91034b6b83632b6b2b73a32b960711b606082015260800190565b600060018201611ceb57611ceb611b7f565b5060010190565b634e487b7160e01b600052601260045260246000fd5b600082611d1757611d17611cf2565b500490565b600082611d2b57611d2b611cf2565b500690565b634e487b7160e01b600052603260045260246000fd5b6001600160a01b0385811682528416602082015260408101839052608060608201819052600090611d7990830184611689565b9695505050505050565b600060208284031215611d9557600080fd5b81516109bf8161162a56fea2646970667358221220d0d5ea826492d5cbb2ff28172756f3e960a914df8ce40e8d34c9d17963baec3d64736f6c634300080e0033496e697469616c697a61626c653a20636f6e747261637420697320616c726561",
  "linkReferences": {},
  "deployedLinkReferences": {}
}