{
    "contractName": "MidasERC20Upgradeable",
    "abi": [
        {
            "anonymous": false,
            "inputs": [
                {
                    "indexed": true,
                    "internalType": "address",
                    "name": "owner",
                    "type": "address"
                },
                {
                    "indexed": true,
                    "internalType": "address",
                    "name": "spender",
                    "type": "address"
                },
                {
                    "indexed": false,
                    "internalType": "uint256",
                    "name": "value",
                    "type": "uint256"
                }
            ],
            "name": "Approval",
            "type": "event"
        },
        {
            "anonymous": false,
            "inputs": [
                {
                    "indexed": true,
                    "internalType": "address",
                    "name": "sender",
                    "type": "address"
                },
                {
                    "indexed": false,
                    "internalType": "uint256",
                    "name": "amount",
                    "type": "uint256"
                }
            ],
            "name": "Burn",
            "type": "event"
        },
        {
            "anonymous": false,
            "inputs": [
                {
                    "indexed": false,
                    "internalType": "uint8",
                    "name": "version",
                    "type": "uint8"
                }
            ],
            "name": "Initialized",
            "type": "event"
        },
        {
            "anonymous": false,
            "inputs": [
                {
                    "indexed": true,
                    "internalType": "address",
                    "name": "previousOwner",
                    "type": "address"
                },
                {
                    "indexed": true,
                    "internalType": "address",
                    "name": "newOwner",
                    "type": "address"
                }
            ],
            "name": "OwnershipTransferred",
            "type": "event"
        },
        {
            "anonymous": false,
            "inputs": [
                {
                    "indexed": true,
                    "internalType": "address",
                    "name": "from",
                    "type": "address"
                },
                {
                    "indexed": true,
                    "internalType": "address",
                    "name": "to",
                    "type": "address"
                },
                {
                    "indexed": false,
                    "internalType": "uint256",
                    "name": "value",
                    "type": "uint256"
                }
            ],
            "name": "Transfer",
            "type": "event"
        },
        {
            "inputs": [
                {
                    "internalType": "address",
                    "name": "owner",
                    "type": "address"
                },
                {
                    "internalType": "address",
                    "name": "spender",
                    "type": "address"
                }
            ],
            "name": "allowance",
            "outputs": [
                {
                    "internalType": "uint256",
                    "name": "",
                    "type": "uint256"
                }
            ],
            "stateMutability": "view",
            "type": "function"
        },
        {
            "inputs": [
                {
                    "internalType": "address",
                    "name": "spender",
                    "type": "address"
                },
                {
                    "internalType": "uint256",
                    "name": "amount",
                    "type": "uint256"
                }
            ],
            "name": "approve",
            "outputs": [
                {
                    "internalType": "bool",
                    "name": "",
                    "type": "bool"
                }
            ],
            "stateMutability": "nonpayable",
            "type": "function"
        },
        {
            "inputs": [
                {
                    "internalType": "uint256",
                    "name": "tokenAmount",
                    "type": "uint256"
                }
            ],
            "name": "autoInjectLiquidity",
            "outputs": [],
            "stateMutability": "nonpayable",
            "type": "function"
        },
        {
            "inputs": [
                {
                    "internalType": "address",
                    "name": "",
                    "type": "address"
                }
            ],
            "name": "automatedMarketMakerPairs",
            "outputs": [
                {
                    "internalType": "bool",
                    "name": "",
                    "type": "bool"
                }
            ],
            "stateMutability": "view",
            "type": "function"
        },
        {
            "inputs": [
                {
                    "internalType": "address",
                    "name": "account",
                    "type": "address"
                }
            ],
            "name": "balanceOf",
            "outputs": [
                {
                    "internalType": "uint256",
                    "name": "",
                    "type": "uint256"
                }
            ],
            "stateMutability": "view",
            "type": "function"
        },
        {
            "inputs": [],
            "name": "decimals",
            "outputs": [
                {
                    "internalType": "uint8",
                    "name": "",
                    "type": "uint8"
                }
            ],
            "stateMutability": "view",
            "type": "function"
        },
        {
            "inputs": [
                {
                    "internalType": "address",
                    "name": "spender",
                    "type": "address"
                },
                {
                    "internalType": "uint256",
                    "name": "subtractedValue",
                    "type": "uint256"
                }
            ],
            "name": "decreaseAllowance",
            "outputs": [
                {
                    "internalType": "bool",
                    "name": "",
                    "type": "bool"
                }
            ],
            "stateMutability": "nonpayable",
            "type": "function"
        },
        {
            "inputs": [],
            "name": "enableTrading",
            "outputs": [],
            "stateMutability": "nonpayable",
            "type": "function"
        },
        {
            "inputs": [],
            "name": "getFeesManager",
            "outputs": [
                {
                    "internalType": "contract FeesManager",
                    "name": "",
                    "type": "address"
                }
            ],
            "stateMutability": "view",
            "type": "function"
        },
        {
            "inputs": [],
            "name": "getLPPair",
            "outputs": [
                {
                    "internalType": "address",
                    "name": "",
                    "type": "address"
                }
            ],
            "stateMutability": "view",
            "type": "function"
        },
        {
            "inputs": [],
            "name": "getMidasMultinetworkRouterManager",
            "outputs": [
                {
                    "internalType": "contract MidasMultinetworkRouterManager",
                    "name": "",
                    "type": "address"
                }
            ],
            "stateMutability": "view",
            "type": "function"
        },
        {
            "inputs": [],
            "name": "getOwner",
            "outputs": [
                {
                    "internalType": "address",
                    "name": "",
                    "type": "address"
                }
            ],
            "stateMutability": "view",
            "type": "function"
        },
        {
            "inputs": [],
            "name": "getSwapThreshold",
            "outputs": [
                {
                    "internalType": "uint256",
                    "name": "",
                    "type": "uint256"
                }
            ],
            "stateMutability": "view",
            "type": "function"
        },
        {
            "inputs": [],
            "name": "getTradingEnabled",
            "outputs": [
                {
                    "internalType": "bool",
                    "name": "",
                    "type": "bool"
                }
            ],
            "stateMutability": "view",
            "type": "function"
        },
        {
            "inputs": [
                {
                    "internalType": "address",
                    "name": "spender",
                    "type": "address"
                },
                {
                    "internalType": "uint256",
                    "name": "addedValue",
                    "type": "uint256"
                }
            ],
            "name": "increaseAllowance",
            "outputs": [
                {
                    "internalType": "bool",
                    "name": "",
                    "type": "bool"
                }
            ],
            "stateMutability": "nonpayable",
            "type": "function"
        },
        {
            "inputs": [],
            "name": "initialize",
            "outputs": [],
            "stateMutability": "nonpayable",
            "type": "function"
        },
        {
            "inputs": [],
            "name": "name",
            "outputs": [
                {
                    "internalType": "string",
                    "name": "",
                    "type": "string"
                }
            ],
            "stateMutability": "view",
            "type": "function"
        },
        {
            "inputs": [],
            "name": "self",
            "outputs": [
                {
                    "internalType": "address",
                    "name": "",
                    "type": "address"
                }
            ],
            "stateMutability": "view",
            "type": "function"
        },
        {
            "inputs": [],
            "name": "setDeadAddress",
            "outputs": [],
            "stateMutability": "nonpayable",
            "type": "function"
        },
        {
            "inputs": [
                {
                    "internalType": "address",
                    "name": "_dexRouter",
                    "type": "address"
                }
            ],
            "name": "setDexRouter",
            "outputs": [],
            "stateMutability": "nonpayable",
            "type": "function"
        },
        {
            "inputs": [
                {
                    "internalType": "uint16",
                    "name": "buyFee",
                    "type": "uint16"
                },
                {
                    "internalType": "uint16",
                    "name": "sellFee",
                    "type": "uint16"
                },
                {
                    "internalType": "uint16",
                    "name": "transferFee",
                    "type": "uint16"
                }
            ],
            "name": "setFees",
            "outputs": [],
            "stateMutability": "nonpayable",
            "type": "function"
        },
        {
            "inputs": [
                {
                    "internalType": "contract FeesManager",
                    "name": "_feesManager",
                    "type": "address"
                }
            ],
            "name": "setFeesManager",
            "outputs": [],
            "stateMutability": "nonpayable",
            "type": "function"
        },
        {
            "inputs": [
                {
                    "internalType": "uint256",
                    "name": "_maxTransactionAmount",
                    "type": "uint256"
                }
            ],
            "name": "setMaxTransactionAmount",
            "outputs": [],
            "stateMutability": "nonpayable",
            "type": "function"
        },
        {
            "inputs": [
                {
                    "internalType": "uint256",
                    "name": "_maxWalletAmount",
                    "type": "uint256"
                }
            ],
            "name": "setMaxWalletAmount",
            "outputs": [],
            "stateMutability": "nonpayable",
            "type": "function"
        },
        {
            "inputs": [
                {
                    "internalType": "address",
                    "name": "_pairAddress",
                    "type": "address"
                }
            ],
            "name": "setPairAddress",
            "outputs": [],
            "stateMutability": "nonpayable",
            "type": "function"
        },
        {
            "inputs": [
                {
                    "internalType": "uint256",
                    "name": "_swapThreshold",
                    "type": "uint256"
                }
            ],
            "name": "setSwapThreshold",
            "outputs": [],
            "stateMutability": "nonpayable",
            "type": "function"
        },
        {
            "inputs": [
                {
                    "internalType": "address",
                    "name": "_lpPair",
                    "type": "address"
                }
            ],
            "name": "setlpPair",
            "outputs": [],
            "stateMutability": "nonpayable",
            "type": "function"
        },
        {
            "inputs": [],
            "name": "symbol",
            "outputs": [
                {
                    "internalType": "string",
                    "name": "",
                    "type": "string"
                }
            ],
            "stateMutability": "view",
            "type": "function"
        },
        {
            "inputs": [],
            "name": "totalSupply",
            "outputs": [
                {
                    "internalType": "uint256",
                    "name": "",
                    "type": "uint256"
                }
            ],
            "stateMutability": "view",
            "type": "function"
        },
        {
            "inputs": [
                {
                    "internalType": "address",
                    "name": "to",
                    "type": "address"
                },
                {
                    "internalType": "uint256",
                    "name": "amount",
                    "type": "uint256"
                }
            ],
            "name": "transfer",
            "outputs": [
                {
                    "internalType": "bool",
                    "name": "",
                    "type": "bool"
                }
            ],
            "stateMutability": "nonpayable",
            "type": "function"
        },
        {
            "inputs": [
                {
                    "internalType": "address",
                    "name": "from",
                    "type": "address"
                },
                {
                    "internalType": "address",
                    "name": "to",
                    "type": "address"
                },
                {
                    "internalType": "uint256",
                    "name": "amount",
                    "type": "uint256"
                }
            ],
            "name": "transferFrom",
            "outputs": [
                {
                    "internalType": "bool",
                    "name": "",
                    "type": "bool"
                }
            ],
            "stateMutability": "nonpayable",
            "type": "function"
        },
        {
            "inputs": [
                {
                    "internalType": "address",
                    "name": "account",
                    "type": "address"
                }
            ],
            "name": "transferOwnership",
            "outputs": [],
            "stateMutability": "nonpayable",
            "type": "function"
        },
        {
            "stateMutability": "payable",
            "type": "receive"
        }
    ],
    "bytecode": "608060405234801561001057600080fd5b50612c7f806100206000396000f3fe6080604052600436106200020f5760003560e01c8063893d20e81162000117578063b9af856711620000a1578063f005f2ca116200006c578063f005f2ca1462000684578063f2fde38b146200069b578063f72f863b14620006dc578063fa83cb58146200070157600080fd5b8063b9af856714620005bc578063c762819b1462000615578063d203abb6146200063a578063dd62ed3e146200065f57600080fd5b8063a22d483211620000e2578063a22d483214620004f6578063a457c2d7146200053e578063a9059cbb1462000563578063b62496f5146200058857600080fd5b8063893d20e814620004825780638a8c523c14620004a257806395d89b4114620004ba5780639d0014b114620004d257600080fd5b80633950935111620001995780637104ddb211620001645780637104ddb2146200040d5780638129fc1c146200042257806381fd3b00146200043a57806386f3f3cb146200046257600080fd5b8063395093511462000355578063534c6bcb146200037a57806357e26696146200039f57806370a0823114620003d357600080fd5b80631e293c1011620001da5780631e293c1014620002ca57806323b872dd14620002ee57806327a14fc21462000313578063313ce567146200033757600080fd5b806306fdde03146200021c578063095ea7b3146200024c57806318160ddd14620002825780631c89382a14620002a357600080fd5b366200021757005b600080fd5b3480156200022957600080fd5b50620002346200071b565b60405162000243919062001b73565b60405180910390f35b3480156200025957600080fd5b50620002716200026b36600462001be1565b620007b5565b604051901515815260200162000243565b3480156200028f57600080fd5b506035545b60405190815260200162000243565b348015620002b057600080fd5b50620002c8620002c236600462001c10565b620007cf565b005b348015620002d757600080fd5b50620002c8620002e936600462001c37565b606a55565b348015620002fb57600080fd5b50620002716200030d36600462001c51565b620007f7565b3480156200032057600080fd5b50620002c86200033236600462001c37565b606955565b3480156200034457600080fd5b506040516012815260200162000243565b3480156200036257600080fd5b50620002716200037436600462001be1565b6200081f565b3480156200038757600080fd5b50620002c86200039936600462001caa565b62000847565b348015620003ac57600080fd5b50606c546001600160a01b03165b6040516001600160a01b03909116815260200162000243565b348015620003e057600080fd5b5062000294620003f236600462001c10565b6001600160a01b031660009081526033602052604090205490565b3480156200041a57600080fd5b5030620003ba565b3480156200042f57600080fd5b50620002c8620008c3565b3480156200044757600080fd5b50620002c8606680546001600160a01b03191661dead179055565b3480156200046f57600080fd5b506067546001600160a01b0316620003ba565b3480156200048f57600080fd5b506065546001600160a01b0316620003ba565b348015620004af57600080fd5b50620002c862000987565b348015620004c757600080fd5b5062000234620009ef565b348015620004df57600080fd5b50620002c8620004f136600462001c37565b606855565b3480156200050357600080fd5b50620002c86200051536600462001c10565b606780546001600160a01b039092166001600160a01b031990921682179055600052606d602052565b3480156200054b57600080fd5b50620002716200055d36600462001be1565b62000a00565b3480156200057057600080fd5b50620002716200058236600462001be1565b62000a81565b3480156200059557600080fd5b5062000271620005a736600462001c10565b606d6020526000908152604090205460ff1681565b348015620005c957600080fd5b50620002c8620005db36600462001c10565b606780546001600160a01b039092166001600160a01b0319909216821790556000908152606d60205260409020805460ff19166001179055565b3480156200062257600080fd5b50606b5461010090046001600160a01b0316620003ba565b3480156200064757600080fd5b50620002c86200065936600462001c37565b62000a91565b3480156200066c57600080fd5b50620002946200067e36600462001cf4565b62000bc8565b3480156200069157600080fd5b5060685462000294565b348015620006a857600080fd5b50620002c8620006ba36600462001c10565b606580546001600160a01b0319166001600160a01b0392909216919091179055565b348015620006e957600080fd5b50620002c8620006fb36600462001c10565b62000bf3565b3480156200070e57600080fd5b50606b5460ff1662000271565b6060603680546200072c9062001d32565b80601f01602080910402602001604051908101604052809291908181526020018280546200075a9062001d32565b8015620007ab5780601f106200077f57610100808354040283529160200191620007ab565b820191906000526020600020905b8154815290600101906020018083116200078d57829003601f168201915b5050505050905090565b600033620007c581858562000c57565b5060019392505050565b606b80546001600160a01b0390921661010002610100600160a81b0319909216919091179055565b6000336200080785828562000d7f565b6200081485858562000e00565b506001949350505050565b600033620007c581858562000835838362000bc8565b62000841919062001d84565b62000c57565b606b5460405163534c6bcb60e01b815261ffff80861660048301528085166024830152831660448201526101009091046001600160a01b03169063534c6bcb90606401600060405180830381600087803b158015620008a557600080fd5b505af1158015620008ba573d6000803e3d6000fd5b50505050505050565b6000620008d1600162000f80565b90508015620008ea576000805461ff0019166101001790555b620009336040518060400160405280600a8152602001694d65746153746f636b7360b01b815250604051806040016040528060038152602001621354d560ea1b81525062001015565b6200093d6200104f565b801562000984576000805461ff0019169055604051600181527f7f26b83ff96e1f2b6a682f133852f6798a09c465da95921460cefb38474024989060200160405180910390a15b50565b606b5460ff1615620009e05760405162461bcd60e51b815260206004820152601860248201527f54726164696e6720616c726561647920656e61626c656421000000000000000060448201526064015b60405180910390fd5b606b805460ff19166001179055565b6060603780546200072c9062001d32565b6000338162000a10828662000bc8565b90508381101562000a725760405162461bcd60e51b815260206004820152602560248201527f45524332303a2064656372656173656420616c6c6f77616e63652062656c6f77604482015264207a65726f60d81b6064820152608401620009d7565b62000814828686840362000c57565b600033620007c581858562000e00565b600062000aa060028362001d9f565b606c5490915047906001600160a01b031663f7a7657630306040516001600160e01b031960e085901b1681526001600160a01b0392831660048201529116602482015260448101859052606401600060405180830381600087803b15801562000b0857600080fd5b505af115801562000b1d573d6000803e3d6000fd5b505050506000814762000b31919062001dc2565b606c549091506001600160a01b031663cf6c62ea306065546001600160a01b03166040516001600160e01b031960e085901b1681526001600160a01b039283166004820152911660248201526044810186905260648101849052608401600060405180830381600087803b15801562000ba957600080fd5b505af115801562000bbe573d6000803e3d6000fd5b5050505050505050565b6001600160a01b03918216600090815260346020908152604080832093909416825291909152205490565b606c5460405163f72f863b60e01b81526001600160a01b0383811660048301529091169063f72f863b90602401600060405180830381600087803b15801562000c3b57600080fd5b505af115801562000c50573d6000803e3d6000fd5b5050505050565b6001600160a01b03831662000cbb5760405162461bcd60e51b8152602060048201526024808201527f45524332303a20617070726f76652066726f6d20746865207a65726f206164646044820152637265737360e01b6064820152608401620009d7565b6001600160a01b03821662000d1e5760405162461bcd60e51b815260206004820152602260248201527f45524332303a20617070726f766520746f20746865207a65726f206164647265604482015261737360f01b6064820152608401620009d7565b6001600160a01b0383811660008181526034602090815260408083209487168084529482529182902085905590518481527f8c5be1e5ebec7d5bd14f71427d1e84f3dd0314c0f7b2291e5b200ac8c7c3b925910160405180910390a3505050565b600062000d8d848462000bc8565b9050600019811462000dfa578181101562000deb5760405162461bcd60e51b815260206004820152601d60248201527f45524332303a20696e73756666696369656e7420616c6c6f77616e63650000006044820152606401620009d7565b62000dfa848484840362000c57565b50505050565b62000e0d8383836200109a565b606c60009054906101000a90046001600160a01b03166001600160a01b031663cc9968996040518163ffffffff1660e01b8152600401602060405180830381865afa15801562000e61573d6000803e3d6000fd5b505050506040513d601f19601f8201168201806040525081019062000e87919062001ddc565b1562000e9f5762000e9a83838362000e00565b505050565b62000eab83836200130d565b1562000f7357600062000ebe30620003f2565b606c549091506001600160a01b0316632c4a73613061271062000ee385600c62001e00565b62000eef919062001d9f565b6040516001600160e01b031960e085901b1681526001600160a01b0390921660048301526024820152604401600060405180830381600087803b15801562000f3657600080fd5b505af115801562000f4b573d6000803e3d6000fd5b5050505062000f7161271082607b62000f65919062001e00565b62000659919062001d9f565b505b62000e9a83838362001508565b60008054610100900460ff161562000fcc578160ff16600114801562000fa55750303b155b62000fc45760405162461bcd60e51b8152600401620009d79062001e22565b506000919050565b60005460ff80841691161062000ff65760405162461bcd60e51b8152600401620009d79062001e22565b506000805460ff191660ff92909216919091179055600190565b919050565b600054610100900460ff166200103f5760405162461bcd60e51b8152600401620009d79062001e70565b6200104b8282620016f7565b5050565b62001077606580546001600160a01b031990811633179091556066805490911661dead179055565b620010816200174c565b62001098336a52b7d2dcc80cd2e4000000620017f4565b565b6001600160a01b038316620011085760405162461bcd60e51b815260206004820152602d60248201527f45524332303a207472616e736665722066726f6d20746865205a45524f5f414460448201526c4452455353206164647265737360981b6064820152608401620009d7565b6001600160a01b038216620011745760405162461bcd60e51b815260206004820152602b60248201527f45524332303a207472616e7366657220746f20746865205a45524f5f4144445260448201526a455353206164647265737360a81b6064820152608401620009d7565b60008111620011e05760405162461bcd60e51b815260206004820152603160248201527f5472616e7366657220616d6f756e74206d7573742062652067726561746572206044820152707468616e205a45524f5f4144445245535360781b6064820152608401620009d7565b6065546001600160a01b038481169116148015906200120d57506065546001600160a01b03838116911614155b80156200122257506001600160a01b03821615155b80156200123a57506001600160a01b03821661dead14155b8015620012be5750606c60009054906101000a90046001600160a01b03166001600160a01b031663cc9968996040518163ffffffff1660e01b8152600401602060405180830381865afa15801562001296573d6000803e3d6000fd5b505050506040513d601f19601f82011682018060405250810190620012bc919062001ddc565b155b1562000e9a57606b5460ff1662000e9a5760405162461bcd60e51b815260206004820152601260248201527154726164696e67206e6f742061637469766560701b6044820152606401620009d7565b6000806200131b30620003f2565b90506200132760685490565b8110158015620013ae5750606c60009054906101000a90046001600160a01b03166001600160a01b031663cc9968996040518163ffffffff1660e01b8152600401602060405180830381865afa15801562001386573d6000803e3d6000fd5b505050506040513d601f19601f82011682018060405250810190620013ac919062001ddc565b155b8015620013c957506067546001600160a01b03858116911614155b8015620013ec57506000620013ea620003f26067546001600160a01b031690565b115b8015620014765750606b5461010090046001600160a01b03166040516314d0ab2d60e21b81526001600160a01b0385811660048301529190911690635342acb490602401602060405180830381865afa1580156200144e573d6000803e3d6000fd5b505050506040513d601f19601f8201168201806040525081019062001474919062001ddc565b155b8015620015005750606b5461010090046001600160a01b03166040516314d0ab2d60e21b81526001600160a01b0386811660048301529190911690635342acb490602401602060405180830381865afa158015620014d8573d6000803e3d6000fd5b505050506040513d601f19601f82011682018060405250810190620014fe919062001ddc565b155b949350505050565b806000600162001526606b546001600160a01b036101009091041690565b6040516314d0ab2d60e21b81526001600160a01b0388811660048301529190911690635342acb490602401602060405180830381865afa1580156200156f573d6000803e3d6000fd5b505050506040513d601f19601f8201168201806040525081019062001595919062001ddc565b806200161c5750606b5461010090046001600160a01b03166040516314d0ab2d60e21b81526001600160a01b0387811660048301529190911690635342acb490602401602060405180830381865afa158015620015f6573d6000803e3d6000fd5b505050506040513d601f19601f820116820180604052508101906200161c919062001ddc565b1562001626575060005b8015620016e257606b5461010090046001600160a01b0316606754604051633dcaefb160e21b81526001600160a01b039182166004820152888216602482015287821660448201526064810187905291169063f72bbec490608401602060405180830381865afa1580156200169f573d6000803e3d6000fd5b505050506040513d601f19601f82011682018060405250810190620016c5919062001ebb565b9150620016d3828562001dc2565b9250620016e2863084620018d9565b620016ef868685620018d9565b505050505050565b600054610100900460ff16620017215760405162461bcd60e51b8152600401620009d79062001e70565b81516200173690603690602085019062001ab1565b50805162000e9a90603790602084019062001ab1565b732d99abd9008dc933ff5c0cd271b88309593ab9216040516200176f9062001b40565b6001600160a01b039091168152602001604051809103906000f0801580156200179c573d6000803e3d6000fd5b50606c80546001600160a01b0319166001600160a01b03929092169190911790556040516200109890620017d09062001b4e565b604051809103906000f080158015620017ed573d6000803e3d6000fd5b50620007cf565b6001600160a01b0382166200184c5760405162461bcd60e51b815260206004820152601f60248201527f45524332303a206d696e7420746f20746865207a65726f2061646472657373006044820152606401620009d7565b806035600082825462001860919062001d84565b90915550506001600160a01b038216600090815260336020526040812080548392906200188f90849062001d84565b90915550506040518181526001600160a01b038316906000907fddf252ad1be2c89b69c2b068fc378daa952ba7f163c4a11628f55a4df523b3ef9060200160405180910390a35050565b6001600160a01b0383166200193f5760405162461bcd60e51b815260206004820152602560248201527f45524332303a207472616e736665722066726f6d20746865207a65726f206164604482015264647265737360d81b6064820152608401620009d7565b6001600160a01b038216620019a35760405162461bcd60e51b815260206004820152602360248201527f45524332303a207472616e7366657220746f20746865207a65726f206164647260448201526265737360e81b6064820152608401620009d7565b6001600160a01b0383166000908152603360205260409020548181101562001a1d5760405162461bcd60e51b815260206004820152602660248201527f45524332303a207472616e7366657220616d6f756e7420657863656564732062604482015265616c616e636560d01b6064820152608401620009d7565b6001600160a01b0380851660009081526033602052604080822085850390559185168152908120805484929062001a5690849062001d84565b92505081905550826001600160a01b0316846001600160a01b03167fddf252ad1be2c89b69c2b068fc378daa952ba7f163c4a11628f55a4df523b3ef8460405162001aa391815260200190565b60405180910390a362000dfa565b82805462001abf9062001d32565b90600052602060002090601f01602090048101928262001ae3576000855562001b2e565b82601f1062001afe57805160ff191683800117855562001b2e565b8280016001018555821562001b2e579182015b8281111562001b2e57825182559160200191906001019062001b11565b5062001b3c92915062001b5c565b5090565b61092a8062001ed683390190565b61044a806200280083390190565b5b8082111562001b3c576000815560010162001b5d565b600060208083528351808285015260005b8181101562001ba25785810183015185820160400152820162001b84565b8181111562001bb5576000604083870101525b50601f01601f1916929092016040019392505050565b6001600160a01b03811681146200098457600080fd5b6000806040838503121562001bf557600080fd5b823562001c028162001bcb565b946020939093013593505050565b60006020828403121562001c2357600080fd5b813562001c308162001bcb565b9392505050565b60006020828403121562001c4a57600080fd5b5035919050565b60008060006060848603121562001c6757600080fd5b833562001c748162001bcb565b9250602084013562001c868162001bcb565b929592945050506040919091013590565b803561ffff811681146200101057600080fd5b60008060006060848603121562001cc057600080fd5b62001ccb8462001c97565b925062001cdb6020850162001c97565b915062001ceb6040850162001c97565b90509250925092565b6000806040838503121562001d0857600080fd5b823562001d158162001bcb565b9150602083013562001d278162001bcb565b809150509250929050565b600181811c9082168062001d4757607f821691505b60208210810362001d6857634e487b7160e01b600052602260045260246000fd5b50919050565b634e487b7160e01b600052601160045260246000fd5b6000821982111562001d9a5762001d9a62001d6e565b500190565b60008262001dbd57634e487b7160e01b600052601260045260246000fd5b500490565b60008282101562001dd75762001dd762001d6e565b500390565b60006020828403121562001def57600080fd5b8151801515811462001c3057600080fd5b600081600019048311821515161562001e1d5762001e1d62001d6e565b500290565b6020808252602e908201527f496e697469616c697a61626c653a20636f6e747261637420697320616c72656160408201526d191e481a5b9a5d1a585b1a5e995960921b606082015260800190565b6020808252602b908201527f496e697469616c697a61626c653a20636f6e7472616374206973206e6f74206960408201526a6e697469616c697a696e6760a81b606082015260800190565b60006020828403121562001ece57600080fd5b505191905056fe608060405234801561001057600080fd5b5060405161092a38038061092a83398101604081905261002f91610061565b600080546001600160a01b039092166001600160a01b031992831617905561a869600255600180549091169055610091565b60006020828403121561007357600080fd5b81516001600160a01b038116811461008a57600080fd5b9392505050565b61088a806100a06000396000f3fe608060405234801561001057600080fd5b50600436106100885760003560e01c8063cc9968991161005b578063cc996899146100e3578063cf6c62ea14610100578063f72f863b14610113578063f7a765761461014357600080fd5b8063197e8da91461008d5780632c4a7361146100bd57806385954d8c146100d2578063b9c55241146100d2575b600080fd5b6100a061009b366004610658565b610156565b6040516001600160a01b0390911681526020015b60405180910390f35b6100d06100cb36600461068d565b610212565b005b6000546001600160a01b03166100a0565b600154600160a01b900460ff1660405190151581526020016100b4565b6100d061010e3660046106b7565b6103bc565b6100d06101213660046106f9565b600080546001600160a01b0319166001600160a01b0392909216919091179055565b6100d061015136600461071b565b6104ef565b600073ae13d989dac2f0debff460ac112a837c89baa7cd6061839003610191575073ae13d989dac2f0debff460ac112a837c89baa7cd6101f6565b826061036101b4575073ae13d989dac2f0debff460ac112a837c89baa7cd6101f6565b60405162461bcd60e51b8152602060048201526013602482015272756e737570706f72746564206e6574776f726b60681b604482015260640160405180910390fd5b5073ae13d989dac2f0debff460ac112a837c89baa7cd92915050565b6040805160038082526080820190925260009160208201606080368337019050509050308160008151811061024957610249610757565b60200260200101906001600160a01b031690816001600160a01b031681525050610274600254610156565b8160018151811061028757610287610757565b6001600160a01b0392831660209182029290920101526001548251911690829060029081106102b8576102b8610757565b6001600160a01b03928316602091820292909201015260015460005460405163095ea7b360e01b81529083166004820152600019602482015291169063095ea7b3906044016020604051808303816000875af115801561031c573d6000803e3d6000fd5b505050506040513d601f19601f82011682018060405250810190610340919061076d565b50600080546001600160a01b031690635c11d7959084908487610365426103e861078f565b6040518663ffffffff1660e01b81526004016103859594939291906107b5565b600060405180830381600087803b15801561039f57600080fd5b505af11580156103b3573d6000803e3d6000fd5b50505050505050565b60005460405163095ea7b360e01b81526001600160a01b03918216600482015260001960248201529085169063095ea7b3906044016020604051808303816000875af1158015610410573d6000803e3d6000fd5b505050506040513d601f19601f82011682018060405250810190610434919061076d565b50600080546001600160a01b03169063f305d71990839030908690808961045d4261271061078f565b60405160e089901b6001600160e01b03191681526001600160a01b039687166004820152602481019590955260448501939093526064840191909152909216608482015260a481019190915260c40160606040518083038185885af11580156104ca573d6000803e3d6000fd5b50505050506040513d601f19601f820116820180604052508101906103b39190610826565b604080516002808252606082018352600092602083019080368337019050509050838160008151811061052457610524610757565b60200260200101906001600160a01b031690816001600160a01b03168152505061054f600254610156565b8160018151811061056257610562610757565b6001600160a01b03928316602091820292909201015260005460405163095ea7b360e01b8152908216600482015260001960248201529085169063095ea7b3906044016020604051808303816000875af11580156105c4573d6000803e3d6000fd5b505050506040513d601f19601f820116820180604052508101906105e8919061076d565b506000805460405163791ac94760e01b81526001600160a01b039091169163791ac947916106209186918690899042906004016107b5565b600060405180830381600087803b15801561063a57600080fd5b505af115801561064e573d6000803e3d6000fd5b5050505050505050565b60006020828403121561066a57600080fd5b5035919050565b80356001600160a01b038116811461068857600080fd5b919050565b600080604083850312156106a057600080fd5b6106a983610671565b946020939093013593505050565b600080600080608085870312156106cd57600080fd5b6106d685610671565b93506106e460208601610671565b93969395505050506040820135916060013590565b60006020828403121561070b57600080fd5b61071482610671565b9392505050565b60008060006060848603121561073057600080fd5b61073984610671565b925061074760208501610671565b9150604084013590509250925092565b634e487b7160e01b600052603260045260246000fd5b60006020828403121561077f57600080fd5b8151801515811461071457600080fd5b600082198211156107b057634e487b7160e01b600052601160045260246000fd5b500190565b600060a082018783526020878185015260a0604085015281875180845260c086019150828901935060005b818110156108055784516001600160a01b0316835293830193918301916001016107e0565b50506001600160a01b03969096166060850152505050608001529392505050565b60008060006060848603121561083b57600080fd5b835192506020840151915060408401519050925092509256fea26469706673582212201b6f57f80469ab13812786531850129ea4d8417075ff696b6b08d27d9a4b78f564736f6c634300080e0033608060405234801561001057600080fd5b50612710600155604080516060810182526000808252602082018190529101819052805465ffffffffffff191690556103fc8061004e6000396000f3fe608060405234801561001057600080fd5b506004361061004c5760003560e01c80635342acb414610051578063534c6bcb146100925780636612e66f146100e1578063f72bbec41461011a575b600080fd5b61007d61005f366004610259565b6001600160a01b031660009081526002602052604090205460ff1690565b60405190151581526020015b60405180910390f35b6100df6100a036600461028d565b6000805461ffff94851663ffffffff199091161762010000938516939093029290921765ffff0000000019166401000000009190931602919091179055565b005b6100df6100ef3660046102d0565b6001600160a01b03919091166000908152600260205260409020805460ff1916911515919091179055565b61012d61012836600461030c565b61013b565b604051908152602001610089565b60008080610161866001600160a01b031660009081526002602052604090205460ff1690565b8061018457506001600160a01b03851660009081526002602052604090205460ff165b1561019457600092505050610235565b866001600160a01b0316866001600160a01b0316036101c5576000546101be9061ffff168361036d565b9150610211565b866001600160a01b0316856001600160a01b0316036101f5576000546101be9062010000900461ffff168361036d565b60005461020e90640100000000900461ffff168361036d565b91505b8115610231576001546102248386610385565b61022e91906103a4565b90505b9150505b949350505050565b80356001600160a01b038116811461025457600080fd5b919050565b60006020828403121561026b57600080fd5b6102748261023d565b9392505050565b803561ffff8116811461025457600080fd5b6000806000606084860312156102a257600080fd5b6102ab8461027b565b92506102b96020850161027b565b91506102c76040850161027b565b90509250925092565b600080604083850312156102e357600080fd5b6102ec8361023d565b91506020830135801515811461030157600080fd5b809150509250929050565b6000806000806080858703121561032257600080fd5b61032b8561023d565b93506103396020860161023d565b92506103476040860161023d565b9396929550929360600135925050565b634e487b7160e01b600052601160045260246000fd5b6000821982111561038057610380610357565b500190565b600081600019048311821515161561039f5761039f610357565b500290565b6000826103c157634e487b7160e01b600052601260045260246000fd5b50049056fea264697066735822122068a9536c811917b1e1c2eaad930c11384296e7f384c47217afdebc27ae23ba6f64736f6c634300080e0033a264697066735822122049dce0076d974c040bc31112f8a0cb1201dbca1abd9e45e1dcca7ae5a69fd93764736f6c634300080e0033",
    "sourcePath": "/home/nkt/Desktop/metaStoksContracts/contracts/token/MidasERC20Upgradeable.sol",
    "compiler": {
        "name": "solc",
        "version": "0.8.14+commit.80d49f37"
    },
    "functionHashes": {
        "allowance(address,address)": "dd62ed3e",
        "approve(address,uint256)": "095ea7b3",
        "autoInjectLiquidity(uint256)": "d203abb6",
        "automatedMarketMakerPairs(address)": "b62496f5",
        "balanceOf(address)": "70a08231",
        "decimals()": "313ce567",
        "decreaseAllowance(address,uint256)": "a457c2d7",
        "enableTrading()": "8a8c523c",
        "getFeesManager()": "c762819b",
        "getLPPair()": "86f3f3cb",
        "getMidasMultinetworkRouterManager()": "57e26696",
        "getOwner()": "893d20e8",
        "getSwapThreshold()": "f005f2ca",
        "getTradingEnabled()": "fa83cb58",
        "increaseAllowance(address,uint256)": "39509351",
        "initialize()": "8129fc1c",
        "name()": "06fdde03",
        "self()": "7104ddb2",
        "setDeadAddress()": "81fd3b00",
        "setDexRouter(address)": "f72f863b",
        "setFees(uint16,uint16,uint16)": "534c6bcb",
        "setFeesManager(address)": "1c89382a",
        "setMaxTransactionAmount(uint256)": "1e293c10",
        "setMaxWalletAmount(uint256)": "27a14fc2",
        "setPairAddress(address)": "a22d4832",
        "setSwapThreshold(uint256)": "9d0014b1",
        "setlpPair(address)": "b9af8567",
        "symbol()": "95d89b41",
        "totalSupply()": "18160ddd",
        "transfer(address,uint256)": "a9059cbb",
        "transferFrom(address,address,uint256)": "23b872dd",
        "transferOwnership(address)": "f2fde38b"
    },
    "gasEstimates": {
        "creation": {
            "codeDepositCost": "2278200",
            "executionCost": "2434",
            "totalCost": "2280634"
        },
        "external": {
            "allowance(address,address)": "infinite",
            "approve(address,uint256)": "24664",
            "autoInjectLiquidity(uint256)": "infinite",
            "automatedMarketMakerPairs(address)": "2636",
            "balanceOf(address)": "2643",
            "decimals()": "289",
            "decreaseAllowance(address,uint256)": "27011",
            "enableTrading()": "26562",
            "getFeesManager()": "2409",
            "getLPPair()": "2442",
            "getMidasMultinetworkRouterManager()": "2410",
            "getOwner()": "2377",
            "getSwapThreshold()": "2336",
            "getTradingEnabled()": "2414",
            "increaseAllowance(address,uint256)": "27018",
            "initialize()": "infinite",
            "name()": "infinite",
            "self()": "257",
            "setDeadAddress()": "24457",
            "setDexRouter(address)": "infinite",
            "setFees(uint16,uint16,uint16)": "infinite",
            "setFeesManager(address)": "24689",
            "setMaxTransactionAmount(uint256)": "22358",
            "setMaxWalletAmount(uint256)": "22402",
            "setPairAddress(address)": "24610",
            "setSwapThreshold(uint256)": "22424",
            "setlpPair(address)": "48885",
            "symbol()": "infinite",
            "totalSupply()": "2372",
            "transfer(address,uint256)": "infinite",
            "transferFrom(address,address,uint256)": "infinite",
            "transferOwnership(address)": "24619"
        },
        "internal": {
            "_beforeTransferCheck(address,address,uint256)": "infinite",
            "_finalizeTransfer(address,address,uint256)": "infinite",
            "_transfer(address,address,uint256)": "infinite",
            "contractMustSwap(address,address)": "infinite",
            "doInitialApproves()": "infinite",
            "initAddressess()": "infinite",
            "initContracts()": "infinite",
            "initValues()": "infinite",
            "initializeContract()": "infinite"
        }
    }
}