{
  "_format": "hh-sol-artifact-1",
  "contractName": "MetaStocksFranchise",
  "sourceName": "contracts/MetaStocksFranchise.sol",
  "abi": [
    {
      "inputs": [],
      "stateMutability": "nonpayable",
      "type": "constructor"
    },
    {
      "anonymous": false,
      "inputs": [
        {
          "indexed": true,
          "internalType": "address",
          "name": "account",
          "type": "address"
        },
        {
          "indexed": true,
          "internalType": "address",
          "name": "operator",
          "type": "address"
        },
        {
          "indexed": false,
          "internalType": "bool",
          "name": "approved",
          "type": "bool"
        }
      ],
      "name": "ApprovalForAll",
      "type": "event"
    },
    {
      "anonymous": false,
      "inputs": [
        {
          "indexed": false,
          "internalType": "uint8",
          "name": "version",
          "type": "uint8"
        }
      ],
      "name": "Initialized",
      "type": "event"
    },
    {
      "anonymous": false,
      "inputs": [
        {
          "indexed": true,
          "internalType": "address",
          "name": "previousOwner",
          "type": "address"
        },
        {
          "indexed": true,
          "internalType": "address",
          "name": "newOwner",
          "type": "address"
        }
      ],
      "name": "OwnershipTransferred",
      "type": "event"
    },
    {
      "anonymous": false,
      "inputs": [
        {
          "indexed": false,
          "internalType": "address",
          "name": "account",
          "type": "address"
        }
      ],
      "name": "Paused",
      "type": "event"
    },
    {
      "anonymous": false,
      "inputs": [
        {
          "indexed": true,
          "internalType": "address",
          "name": "operator",
          "type": "address"
        },
        {
          "indexed": true,
          "internalType": "address",
          "name": "from",
          "type": "address"
        },
        {
          "indexed": true,
          "internalType": "address",
          "name": "to",
          "type": "address"
        },
        {
          "indexed": false,
          "internalType": "uint256[]",
          "name": "ids",
          "type": "uint256[]"
        },
        {
          "indexed": false,
          "internalType": "uint256[]",
          "name": "values",
          "type": "uint256[]"
        }
      ],
      "name": "TransferBatch",
      "type": "event"
    },
    {
      "anonymous": false,
      "inputs": [
        {
          "indexed": true,
          "internalType": "address",
          "name": "operator",
          "type": "address"
        },
        {
          "indexed": true,
          "internalType": "address",
          "name": "from",
          "type": "address"
        },
        {
          "indexed": true,
          "internalType": "address",
          "name": "to",
          "type": "address"
        },
        {
          "indexed": false,
          "internalType": "uint256",
          "name": "id",
          "type": "uint256"
        },
        {
          "indexed": false,
          "internalType": "uint256",
          "name": "value",
          "type": "uint256"
        }
      ],
      "name": "TransferSingle",
      "type": "event"
    },
    {
      "anonymous": false,
      "inputs": [
        {
          "indexed": false,
          "internalType": "string",
          "name": "value",
          "type": "string"
        },
        {
          "indexed": true,
          "internalType": "uint256",
          "name": "id",
          "type": "uint256"
        }
      ],
      "name": "URI",
      "type": "event"
    },
    {
      "anonymous": false,
      "inputs": [
        {
          "indexed": false,
          "internalType": "address",
          "name": "account",
          "type": "address"
        }
      ],
      "name": "Unpaused",
      "type": "event"
    },
    {
      "inputs": [
        {
          "internalType": "address",
          "name": "account",
          "type": "address"
        },
        {
          "internalType": "uint256",
          "name": "id",
          "type": "uint256"
        }
      ],
      "name": "balanceOf",
      "outputs": [
        {
          "internalType": "uint256",
          "name": "",
          "type": "uint256"
        }
      ],
      "stateMutability": "view",
      "type": "function"
    },
    {
      "inputs": [
        {
          "internalType": "address[]",
          "name": "accounts",
          "type": "address[]"
        },
        {
          "internalType": "uint256[]",
          "name": "ids",
          "type": "uint256[]"
        }
      ],
      "name": "balanceOfBatch",
      "outputs": [
        {
          "internalType": "uint256[]",
          "name": "",
          "type": "uint256[]"
        }
      ],
      "stateMutability": "view",
      "type": "function"
    },
    {
      "inputs": [
        {
          "internalType": "address",
          "name": "account",
          "type": "address"
        },
        {
          "internalType": "uint256",
          "name": "id",
          "type": "uint256"
        },
        {
          "internalType": "uint256",
          "name": "value",
          "type": "uint256"
        }
      ],
      "name": "burn",
      "outputs": [],
      "stateMutability": "nonpayable",
      "type": "function"
    },
    {
      "inputs": [
        {
          "internalType": "address",
          "name": "account",
          "type": "address"
        },
        {
          "internalType": "uint256[]",
          "name": "ids",
          "type": "uint256[]"
        },
        {
          "internalType": "uint256[]",
          "name": "values",
          "type": "uint256[]"
        }
      ],
      "name": "burnBatch",
      "outputs": [],
      "stateMutability": "nonpayable",
      "type": "function"
    },
    {
      "inputs": [
        {
          "internalType": "uint256",
          "name": "id",
          "type": "uint256"
        }
      ],
      "name": "exists",
      "outputs": [
        {
          "internalType": "bool",
          "name": "",
          "type": "bool"
        }
      ],
      "stateMutability": "view",
      "type": "function"
    },
    {
      "inputs": [
        {
          "internalType": "enum MetaStocksFranchiseType",
          "name": "_metaStocksFranchiseType",
          "type": "uint8"
        }
      ],
      "name": "getMetaStocksFranchiseType",
      "outputs": [
        {
          "internalType": "uint256",
          "name": "",
          "type": "uint256"
        }
      ],
      "stateMutability": "pure",
      "type": "function"
    },
    {
      "inputs": [],
      "name": "initialize",
      "outputs": [],
      "stateMutability": "nonpayable",
      "type": "function"
    },
    {
      "inputs": [
        {
          "internalType": "address",
          "name": "account",
          "type": "address"
        },
        {
          "internalType": "address",
          "name": "operator",
          "type": "address"
        }
      ],
      "name": "isApprovedForAll",
      "outputs": [
        {
          "internalType": "bool",
          "name": "",
          "type": "bool"
        }
      ],
      "stateMutability": "view",
      "type": "function"
    },
    {
      "inputs": [
        {
          "internalType": "address",
          "name": "to",
          "type": "address"
        },
        {
          "internalType": "uint256",
          "name": "id",
          "type": "uint256"
        },
        {
          "internalType": "uint256",
          "name": "amount",
          "type": "uint256"
        },
        {
          "internalType": "bytes",
          "name": "data",
          "type": "bytes"
        }
      ],
      "name": "mint",
      "outputs": [],
      "stateMutability": "nonpayable",
      "type": "function"
    },
    {
      "inputs": [
        {
          "internalType": "address",
          "name": "to",
          "type": "address"
        },
        {
          "internalType": "uint256[]",
          "name": "ids",
          "type": "uint256[]"
        },
        {
          "internalType": "uint256[]",
          "name": "amounts",
          "type": "uint256[]"
        },
        {
          "internalType": "bytes",
          "name": "data",
          "type": "bytes"
        }
      ],
      "name": "mintBatch",
      "outputs": [],
      "stateMutability": "nonpayable",
      "type": "function"
    },
    {
      "inputs": [],
      "name": "owner",
      "outputs": [
        {
          "internalType": "address",
          "name": "",
          "type": "address"
        }
      ],
      "stateMutability": "view",
      "type": "function"
    },
    {
      "inputs": [],
      "name": "pause",
      "outputs": [],
      "stateMutability": "nonpayable",
      "type": "function"
    },
    {
      "inputs": [],
      "name": "paused",
      "outputs": [
        {
          "internalType": "bool",
          "name": "",
          "type": "bool"
        }
      ],
      "stateMutability": "view",
      "type": "function"
    },
    {
      "inputs": [],
      "name": "renounceOwnership",
      "outputs": [],
      "stateMutability": "nonpayable",
      "type": "function"
    },
    {
      "inputs": [
        {
          "internalType": "address",
          "name": "from",
          "type": "address"
        },
        {
          "internalType": "address",
          "name": "to",
          "type": "address"
        },
        {
          "internalType": "uint256[]",
          "name": "ids",
          "type": "uint256[]"
        },
        {
          "internalType": "uint256[]",
          "name": "amounts",
          "type": "uint256[]"
        },
        {
          "internalType": "bytes",
          "name": "data",
          "type": "bytes"
        }
      ],
      "name": "safeBatchTransferFrom",
      "outputs": [],
      "stateMutability": "nonpayable",
      "type": "function"
    },
    {
      "inputs": [
        {
          "internalType": "address",
          "name": "from",
          "type": "address"
        },
        {
          "internalType": "address",
          "name": "to",
          "type": "address"
        },
        {
          "internalType": "uint256",
          "name": "id",
          "type": "uint256"
        },
        {
          "internalType": "uint256",
          "name": "amount",
          "type": "uint256"
        },
        {
          "internalType": "bytes",
          "name": "data",
          "type": "bytes"
        }
      ],
      "name": "safeTransferFrom",
      "outputs": [],
      "stateMutability": "nonpayable",
      "type": "function"
    },
    {
      "inputs": [
        {
          "internalType": "address",
          "name": "operator",
          "type": "address"
        },
        {
          "internalType": "bool",
          "name": "approved",
          "type": "bool"
        }
      ],
      "name": "setApprovalForAll",
      "outputs": [],
      "stateMutability": "nonpayable",
      "type": "function"
    },
    {
      "inputs": [
        {
          "internalType": "string",
          "name": "newuri",
          "type": "string"
        }
      ],
      "name": "setURI",
      "outputs": [],
      "stateMutability": "nonpayable",
      "type": "function"
    },
    {
      "inputs": [
        {
          "internalType": "bytes4",
          "name": "interfaceId",
          "type": "bytes4"
        }
      ],
      "name": "supportsInterface",
      "outputs": [
        {
          "internalType": "bool",
          "name": "",
          "type": "bool"
        }
      ],
      "stateMutability": "view",
      "type": "function"
    },
    {
      "inputs": [
        {
          "internalType": "uint256",
          "name": "id",
          "type": "uint256"
        }
      ],
      "name": "totalSupply",
      "outputs": [
        {
          "internalType": "uint256",
          "name": "",
          "type": "uint256"
        }
      ],
      "stateMutability": "view",
      "type": "function"
    },
    {
      "inputs": [
        {
          "internalType": "address",
          "name": "newOwner",
          "type": "address"
        }
      ],
      "name": "transferOwnership",
      "outputs": [],
      "stateMutability": "nonpayable",
      "type": "function"
    },
    {
      "inputs": [],
      "name": "unpause",
      "outputs": [],
      "stateMutability": "nonpayable",
      "type": "function"
    },
    {
      "inputs": [
        {
          "internalType": "uint256",
          "name": "",
          "type": "uint256"
        }
      ],
      "name": "uri",
      "outputs": [
        {
          "internalType": "string",
          "name": "",
          "type": "string"
        }
      ],
      "stateMutability": "view",
      "type": "function"
    }
  ],
  "bytecode": "0x60806040523480156200001157600080fd5b506200001c62000022565b62000152565b6200002e60ff62000031565b50565b60008054610100900460ff1615620000ca578160ff1660011480156200006a575062000068306200014360201b62000ba91760201c565b155b620000c25760405162461bcd60e51b815260206004820152602e602482015260008051602062002a2783398151915260448201526d191e481a5b9a5d1a585b1a5e995960921b60648201526084015b60405180910390fd5b506000919050565b60005460ff808416911610620001295760405162461bcd60e51b815260206004820152602e602482015260008051602062002a2783398151915260448201526d191e481a5b9a5d1a585b1a5e995960921b6064820152608401620000b9565b506000805460ff191660ff92909216919091179055600190565b6001600160a01b03163b151590565b6128c580620001626000396000f3fe608060405234801561001057600080fd5b506004361061014c5760003560e01c8063715018a6116100c3578063bd85b0391161007c578063bd85b039146102bc578063e1b04122146102dd578063e985e9c5146102f0578063f242432a1461032c578063f2fde38b1461033f578063f5298aca1461035257600080fd5b8063715018a61461025e578063731133e9146102665780638129fc1c146102795780638456cb59146102815780638da5cb5b14610289578063a22cb465146102a957600080fd5b80632eb2c2d6116101155780632eb2c2d6146101e25780633f4ba83a146101f55780634e1273f4146101fd5780634f558e791461021d5780635c975abb146102405780636b20c4541461024b57600080fd5b8062fdd58e1461015157806301ffc9a71461017757806302fe53051461019a5780630e89341c146101af5780631f7fdffa146101cf575b600080fd5b61016461015f366004611c05565b610365565b6040519081526020015b60405180910390f35b61018a610185366004611c45565b6103fe565b604051901515815260200161016e565b6101ad6101a8366004611d08565b610450565b005b6101c26101bd366004611d58565b61048b565b60405161016e9190611dbe565b6101ad6101dd366004611e85565b61051f565b6101ad6101f0366004611f1d565b610560565b6101ad6105f7565b61021061020b366004611fc6565b610630565b60405161016e91906120cb565b61018a61022b366004611d58565b600090815261012d6020526040902054151590565b60c95460ff1661018a565b6101ad6102593660046120de565b610759565b6101ad6107a1565b6101ad610274366004612151565b6107da565b6101ad610815565b6101ad6108b9565b6102916108f0565b6040516001600160a01b03909116815260200161016e565b6101ad6102b73660046121a5565b6108ff565b6101646102ca366004611d58565b600090815261012d602052604090205490565b6101646102eb3660046121e1565b61090e565b61018a6102fe366004612202565b6001600160a01b03918216600090815260666020908152604080832093909416825291909152205460ff1690565b6101ad61033a366004612235565b610a84565b6101ad61034d366004612299565b610ac9565b6101ad6103603660046122b4565b610b66565b60006001600160a01b0383166103d65760405162461bcd60e51b815260206004820152602b60248201527f455243313135353a2062616c616e636520717565727920666f7220746865207a60448201526a65726f206164647265737360a81b60648201526084015b60405180910390fd5b5060009081526065602090815260408083206001600160a01b03949094168352929052205490565b60006001600160e01b03198216636cdb3d1360e11b148061042f57506001600160e01b031982166303a24d0760e21b145b8061044a57506301ffc9a760e01b6001600160e01b03198316145b92915050565b336104596108f0565b6001600160a01b03161461047f5760405162461bcd60e51b81526004016103cd906122e7565b61048881610bb8565b50565b60606067805461049a9061231c565b80601f01602080910402602001604051908101604052809291908181526020018280546104c69061231c565b80156105135780601f106104e857610100808354040283529160200191610513565b820191906000526020600020905b8154815290600101906020018083116104f657829003601f168201915b50505050509050919050565b336105286108f0565b6001600160a01b03161461054e5760405162461bcd60e51b81526004016103cd906122e7565b61055a84848484610bcb565b50505050565b6001600160a01b03851633148061057c575061057c85336102fe565b6105e35760405162461bcd60e51b815260206004820152603260248201527f455243313135353a207472616e736665722063616c6c6572206973206e6f74206044820152711bdddb995c881b9bdc88185c1c1c9bdd995960721b60648201526084016103cd565b6105f08585858585610d14565b5050505050565b336106006108f0565b6001600160a01b0316146106265760405162461bcd60e51b81526004016103cd906122e7565b61062e610eaf565b565b606081518351146106955760405162461bcd60e51b815260206004820152602960248201527f455243313135353a206163636f756e747320616e6420696473206c656e677468604482015268040dad2e6dac2e8c6d60bb1b60648201526084016103cd565b600083516001600160401b038111156106b0576106b0611c69565b6040519080825280602002602001820160405280156106d9578160200160208202803683370190505b50905060005b8451811015610751576107248582815181106106fd576106fd612356565b602002602001015185838151811061071757610717612356565b6020026020010151610365565b82828151811061073657610736612356565b602090810291909101015261074a81612382565b90506106df565b509392505050565b6001600160a01b038316331480610775575061077583336102fe565b6107915760405162461bcd60e51b81526004016103cd9061239b565b61079c838383610f42565b505050565b336107aa6108f0565b6001600160a01b0316146107d05760405162461bcd60e51b81526004016103cd906122e7565b61062e60006110cf565b336107e36108f0565b6001600160a01b0316146108095760405162461bcd60e51b81526004016103cd906122e7565b61055a84848484611121565b600061082160016111fa565b90508015610839576000805461ff0019166101001790555b6108516040518060200160405280600081525061128e565b6108596112be565b6108616112ed565b61086961131c565b61087161131c565b8015610488576000805461ff0019169055604051600181527f7f26b83ff96e1f2b6a682f133852f6798a09c465da95921460cefb38474024989060200160405180910390a150565b336108c26108f0565b6001600160a01b0316146108e85760405162461bcd60e51b81526004016103cd906122e7565b61062e611343565b6097546001600160a01b031690565b61090a33838361139b565b5050565b60008080836009811115610924576109246123e4565b036109315750600061044a565b6001836009811115610945576109456123e4565b036109525750600161044a565b6002836009811115610966576109666123e4565b036109735750600261044a565b6003836009811115610987576109876123e4565b036109945750600361044a565b60048360098111156109a8576109a86123e4565b036109b55750600461044a565b60058360098111156109c9576109c96123e4565b036109d65750600561044a565b60068360098111156109ea576109ea6123e4565b036109f75750600661044a565b6007836009811115610a0b57610a0b6123e4565b03610a185750600761044a565b6008836009811115610a2c57610a2c6123e4565b03610a395750600861044a565b6009836009811115610a4d57610a4d6123e4565b03610a5a5750600961044a565b6001836009811115610a6e57610a6e6123e4565b03610a7b5750600a61044a565b50600092915050565b6001600160a01b038516331480610aa05750610aa085336102fe565b610abc5760405162461bcd60e51b81526004016103cd9061239b565b6105f0858585858561147b565b33610ad26108f0565b6001600160a01b031614610af85760405162461bcd60e51b81526004016103cd906122e7565b6001600160a01b038116610b5d5760405162461bcd60e51b815260206004820152602660248201527f4f776e61626c653a206e6577206f776e657220697320746865207a65726f206160448201526564647265737360d01b60648201526084016103cd565b610488816110cf565b6001600160a01b038316331480610b825750610b8283336102fe565b610b9e5760405162461bcd60e51b81526004016103cd9061239b565b61079c8383836115a5565b6001600160a01b03163b151590565b805161090a906067906020840190611b55565b6001600160a01b038416610bf15760405162461bcd60e51b81526004016103cd906123fa565b8151835114610c125760405162461bcd60e51b81526004016103cd9061243b565b33610c22816000878787876116af565b60005b8451811015610cbe57838181518110610c4057610c40612356565b602002602001015160656000878481518110610c5e57610c5e612356565b602002602001015181526020019081526020016000206000886001600160a01b03166001600160a01b031681526020019081526020016000206000828254610ca69190612483565b90915550819050610cb681612382565b915050610c25565b50846001600160a01b031660006001600160a01b0316826001600160a01b03166000805160206128508339815191528787604051610cfd92919061249b565b60405180910390a46105f0816000878787876116e0565b8151835114610d355760405162461bcd60e51b81526004016103cd9061243b565b6001600160a01b038416610d5b5760405162461bcd60e51b81526004016103cd906124c9565b33610d6a8187878787876116af565b60005b8451811015610e53576000858281518110610d8a57610d8a612356565b602002602001015190506000858381518110610da857610da8612356565b60209081029190910181015160008481526065835260408082206001600160a01b038e168352909352919091205490915081811015610df95760405162461bcd60e51b81526004016103cd9061250e565b60008381526065602090815260408083206001600160a01b038e8116855292528083208585039055908b16825281208054849290610e38908490612483565b9250508190555050505080610e4c90612382565b9050610d6d565b50846001600160a01b0316866001600160a01b0316826001600160a01b03166000805160206128508339815191528787604051610e9192919061249b565b60405180910390a4610ea78187878787876116e0565b505050505050565b60c95460ff16610ef85760405162461bcd60e51b815260206004820152601460248201527314185d5cd8589b194e881b9bdd081c185d5cd95960621b60448201526064016103cd565b60c9805460ff191690557f5db9ee0a495bf2e6ff9c91a7834c1ba4fdd244a5e8aa4e537bd38aeae4b073aa335b6040516001600160a01b03909116815260200160405180910390a1565b6001600160a01b038316610f685760405162461bcd60e51b81526004016103cd90612558565b8051825114610f895760405162461bcd60e51b81526004016103cd9061243b565b6000339050610fac818560008686604051806020016040528060008152506116af565b60005b8351811015611074576000848281518110610fcc57610fcc612356565b602002602001015190506000848381518110610fea57610fea612356565b60209081029190910181015160008481526065835260408082206001600160a01b038c16835290935291909120549091508181101561103b5760405162461bcd60e51b81526004016103cd9061259b565b60009283526065602090815260408085206001600160a01b038b168652909152909220910390558061106c81612382565b915050610faf565b5060006001600160a01b0316846001600160a01b0316826001600160a01b031660008051602061285083398151915286866040516110b392919061249b565b60405180910390a460408051602081019091526000905261055a565b609780546001600160a01b038381166001600160a01b0319831681179093556040519116919082907f8be0079c531659141344cd1fd0a4f28419497f9722a3daafe3b4186f6b6457e090600090a35050565b6001600160a01b0384166111475760405162461bcd60e51b81526004016103cd906123fa565b33600061115385611842565b9050600061116085611842565b9050611171836000898585896116af565b60008681526065602090815260408083206001600160a01b038b168452909152812080548792906111a3908490612483565b909155505060408051878152602081018790526001600160a01b03808a169260009291871691600080516020612870833981519152910160405180910390a46111f18360008989898961188d565b50505050505050565b60008054610100900460ff1615611248578160ff166001148015611224575061122230610ba9565b155b6112405760405162461bcd60e51b81526004016103cd906125df565b506000919050565b60005460ff80841691161061126f5760405162461bcd60e51b81526004016103cd906125df565b506000805460ff191660ff92909216919091179055600190565b919050565b600054610100900460ff166112b55760405162461bcd60e51b81526004016103cd9061262d565b6104888161194f565b600054610100900460ff166112e55760405162461bcd60e51b81526004016103cd9061262d565b61062e611976565b600054610100900460ff166113145760405162461bcd60e51b81526004016103cd9061262d565b61062e6119a6565b600054610100900460ff1661062e5760405162461bcd60e51b81526004016103cd9061262d565b60c95460ff16156113665760405162461bcd60e51b81526004016103cd90612678565b60c9805460ff191660011790557f62e78cea01bee320cd4e420270b5ea74000d11b0c9f74754ebdbfc544b05a258610f253390565b816001600160a01b0316836001600160a01b03160361140e5760405162461bcd60e51b815260206004820152602960248201527f455243313135353a2073657474696e6720617070726f76616c20737461747573604482015268103337b91039b2b63360b91b60648201526084016103cd565b6001600160a01b03838116600081815260666020908152604080832094871680845294825291829020805460ff191686151590811790915591519182527f17307eab39ab6107e8899845ad3d59bd9653f200f220920489ca2b5937696c31910160405180910390a3505050565b6001600160a01b0384166114a15760405162461bcd60e51b81526004016103cd906124c9565b3360006114ad85611842565b905060006114ba85611842565b90506114ca8389898585896116af565b60008681526065602090815260408083206001600160a01b038c1684529091529020548581101561150d5760405162461bcd60e51b81526004016103cd9061250e565b60008781526065602090815260408083206001600160a01b038d8116855292528083208985039055908a1682528120805488929061154c908490612483565b909155505060408051888152602081018890526001600160a01b03808b16928c82169291881691600080516020612870833981519152910160405180910390a461159a848a8a8a8a8a61188d565b505050505050505050565b6001600160a01b0383166115cb5760405162461bcd60e51b81526004016103cd90612558565b3360006115d784611842565b905060006115e484611842565b9050611604838760008585604051806020016040528060008152506116af565b60008581526065602090815260408083206001600160a01b038a168452909152902054848110156116475760405162461bcd60e51b81526004016103cd9061259b565b60008681526065602090815260408083206001600160a01b038b81168086529184528285208a8703905582518b81529384018a9052909290881691600080516020612870833981519152910160405180910390a46040805160208101909152600090526111f1565b60c95460ff16156116d25760405162461bcd60e51b81526004016103cd90612678565b610ea78686868686866119d9565b6116f2846001600160a01b0316610ba9565b15610ea75760405163bc197c8160e01b81526001600160a01b0385169063bc197c819061172b90899089908890889088906004016126a2565b6020604051808303816000875af1925050508015611766575060408051601f3d908101601f1916820190925261176391810190612700565b60015b6118125761177261271d565b806308c379a0036117ab5750611786612739565b8061179157506117ad565b8060405162461bcd60e51b81526004016103cd9190611dbe565b505b60405162461bcd60e51b815260206004820152603460248201527f455243313135353a207472616e7366657220746f206e6f6e20455243313135356044820152732932b1b2b4bb32b91034b6b83632b6b2b73a32b960611b60648201526084016103cd565b6001600160e01b0319811663bc197c8160e01b146111f15760405162461bcd60e51b81526004016103cd906127c2565b6040805160018082528183019092526060916000919060208083019080368337019050509050828160008151811061187c5761187c612356565b602090810291909101015292915050565b61189f846001600160a01b0316610ba9565b15610ea75760405163f23a6e6160e01b81526001600160a01b0385169063f23a6e61906118d8908990899088908890889060040161280a565b6020604051808303816000875af1925050508015611913575060408051601f3d908101601f1916820190925261191091810190612700565b60015b61191f5761177261271d565b6001600160e01b0319811663f23a6e6160e01b146111f15760405162461bcd60e51b81526004016103cd906127c2565b600054610100900460ff1661047f5760405162461bcd60e51b81526004016103cd9061262d565b600054610100900460ff1661199d5760405162461bcd60e51b81526004016103cd9061262d565b61062e336110cf565b600054610100900460ff166119cd5760405162461bcd60e51b81526004016103cd9061262d565b60c9805460ff19169055565b6001600160a01b038516611a615760005b8351811015611a5f57828181518110611a0557611a05612356565b602002602001015161012d6000868481518110611a2457611a24612356565b602002602001015181526020019081526020016000206000828254611a499190612483565b90915550611a58905081612382565b90506119ea565b505b6001600160a01b038416610ea75760005b83518110156111f1576000848281518110611a8f57611a8f612356565b602002602001015190506000848381518110611aad57611aad612356565b60200260200101519050600061012d600084815260200190815260200160002054905081811015611b315760405162461bcd60e51b815260206004820152602860248201527f455243313135353a206275726e20616d6f756e74206578636565647320746f74604482015267616c537570706c7960c01b60648201526084016103cd565b600092835261012d602052604090922091039055611b4e81612382565b9050611a72565b828054611b619061231c565b90600052602060002090601f016020900481019282611b835760008555611bc9565b82601f10611b9c57805160ff1916838001178555611bc9565b82800160010185558215611bc9579182015b82811115611bc9578251825591602001919060010190611bae565b50611bd5929150611bd9565b5090565b5b80821115611bd55760008155600101611bda565b80356001600160a01b038116811461128957600080fd5b60008060408385031215611c1857600080fd5b611c2183611bee565b946020939093013593505050565b6001600160e01b03198116811461048857600080fd5b600060208284031215611c5757600080fd5b8135611c6281611c2f565b9392505050565b634e487b7160e01b600052604160045260246000fd5b601f8201601f191681016001600160401b0381118282101715611ca457611ca4611c69565b6040525050565b60006001600160401b03831115611cc457611cc4611c69565b604051611cdb601f8501601f191660200182611c7f565b809150838152848484011115611cf057600080fd5b83836020830137600060208583010152509392505050565b600060208284031215611d1a57600080fd5b81356001600160401b03811115611d3057600080fd5b8201601f81018413611d4157600080fd5b611d5084823560208401611cab565b949350505050565b600060208284031215611d6a57600080fd5b5035919050565b6000815180845260005b81811015611d9757602081850181015186830182015201611d7b565b81811115611da9576000602083870101525b50601f01601f19169290920160200192915050565b602081526000611c626020830184611d71565b60006001600160401b03821115611dea57611dea611c69565b5060051b60200190565b600082601f830112611e0557600080fd5b81356020611e1282611dd1565b604051611e1f8282611c7f565b83815260059390931b8501820192828101915086841115611e3f57600080fd5b8286015b84811015611e5a5780358352918301918301611e43565b509695505050505050565b600082601f830112611e7657600080fd5b611c6283833560208501611cab565b60008060008060808587031215611e9b57600080fd5b611ea485611bee565b935060208501356001600160401b0380821115611ec057600080fd5b611ecc88838901611df4565b94506040870135915080821115611ee257600080fd5b611eee88838901611df4565b93506060870135915080821115611f0457600080fd5b50611f1187828801611e65565b91505092959194509250565b600080600080600060a08688031215611f3557600080fd5b611f3e86611bee565b9450611f4c60208701611bee565b935060408601356001600160401b0380821115611f6857600080fd5b611f7489838a01611df4565b94506060880135915080821115611f8a57600080fd5b611f9689838a01611df4565b93506080880135915080821115611fac57600080fd5b50611fb988828901611e65565b9150509295509295909350565b60008060408385031215611fd957600080fd5b82356001600160401b0380821115611ff057600080fd5b818501915085601f83011261200457600080fd5b8135602061201182611dd1565b60405161201e8282611c7f565b83815260059390931b850182019282810191508984111561203e57600080fd5b948201945b838610156120635761205486611bee565b82529482019490820190612043565b9650508601359250508082111561207957600080fd5b5061208685828601611df4565b9150509250929050565b600081518084526020808501945080840160005b838110156120c0578151875295820195908201906001016120a4565b509495945050505050565b602081526000611c626020830184612090565b6000806000606084860312156120f357600080fd5b6120fc84611bee565b925060208401356001600160401b038082111561211857600080fd5b61212487838801611df4565b9350604086013591508082111561213a57600080fd5b5061214786828701611df4565b9150509250925092565b6000806000806080858703121561216757600080fd5b61217085611bee565b9350602085013592506040850135915060608501356001600160401b0381111561219957600080fd5b611f1187828801611e65565b600080604083850312156121b857600080fd5b6121c183611bee565b9150602083013580151581146121d657600080fd5b809150509250929050565b6000602082840312156121f357600080fd5b8135600a8110611c6257600080fd5b6000806040838503121561221557600080fd5b61221e83611bee565b915061222c60208401611bee565b90509250929050565b600080600080600060a0868803121561224d57600080fd5b61225686611bee565b945061226460208701611bee565b9350604086013592506060860135915060808601356001600160401b0381111561228d57600080fd5b611fb988828901611e65565b6000602082840312156122ab57600080fd5b611c6282611bee565b6000806000606084860312156122c957600080fd5b6122d284611bee565b95602085013595506040909401359392505050565b6020808252818101527f4f776e61626c653a2063616c6c6572206973206e6f7420746865206f776e6572604082015260600190565b600181811c9082168061233057607f821691505b60208210810361235057634e487b7160e01b600052602260045260246000fd5b50919050565b634e487b7160e01b600052603260045260246000fd5b634e487b7160e01b600052601160045260246000fd5b6000600182016123945761239461236c565b5060010190565b60208082526029908201527f455243313135353a2063616c6c6572206973206e6f74206f776e6572206e6f7260408201526808185c1c1c9bdd995960ba1b606082015260800190565b634e487b7160e01b600052602160045260246000fd5b60208082526021908201527f455243313135353a206d696e7420746f20746865207a65726f206164647265736040820152607360f81b606082015260800190565b60208082526028908201527f455243313135353a2069647320616e6420616d6f756e7473206c656e677468206040820152670dad2e6dac2e8c6d60c31b606082015260800190565b600082198211156124965761249661236c565b500190565b6040815260006124ae6040830185612090565b82810360208401526124c08185612090565b95945050505050565b60208082526025908201527f455243313135353a207472616e7366657220746f20746865207a65726f206164604082015264647265737360d81b606082015260800190565b6020808252602a908201527f455243313135353a20696e73756666696369656e742062616c616e636520666f60408201526939103a3930b739b332b960b11b606082015260800190565b60208082526023908201527f455243313135353a206275726e2066726f6d20746865207a65726f206164647260408201526265737360e81b606082015260800190565b60208082526024908201527f455243313135353a206275726e20616d6f756e7420657863656564732062616c604082015263616e636560e01b606082015260800190565b6020808252602e908201527f496e697469616c697a61626c653a20636f6e747261637420697320616c72656160408201526d191e481a5b9a5d1a585b1a5e995960921b606082015260800190565b6020808252602b908201527f496e697469616c697a61626c653a20636f6e7472616374206973206e6f74206960408201526a6e697469616c697a696e6760a81b606082015260800190565b60208082526010908201526f14185d5cd8589b194e881c185d5cd95960821b604082015260600190565b6001600160a01b0386811682528516602082015260a0604082018190526000906126ce90830186612090565b82810360608401526126e08186612090565b905082810360808401526126f48185611d71565b98975050505050505050565b60006020828403121561271257600080fd5b8151611c6281611c2f565b600060033d11156127365760046000803e5060005160e01c5b90565b600060443d10156127475790565b6040516003193d81016004833e81513d6001600160401b03816024840111818411171561277657505050505090565b828501915081518181111561278e5750505050505090565b843d87010160208285010111156127a85750505050505090565b6127b760208286010187611c7f565b509095945050505050565b60208082526028908201527f455243313135353a204552433131353552656365697665722072656a656374656040820152676420746f6b656e7360c01b606082015260800190565b6001600160a01b03868116825285166020820152604081018490526060810183905260a06080820181905260009061284490830184611d71565b97965050505050505056fe4a39dc06d4c0dbc64b70af90fd698a233a518aa5d07e595d983b8c0526c8f7fbc3d58168c5ae7397731d063d5bbf3d657854427343f4c083240f7aacaa2d0f62a26469706673582212206774dc5e3380c750a7699aa2d0e5459ee223df017968bf35425c6f3a79e65a9464736f6c634300080e0033496e697469616c697a61626c653a20636f6e747261637420697320616c726561",
  "linkReferences": {},
  "deployedLinkReferences": {}
}