{
  "_format": "hh-sol-artifact-1",
  "contractName": "MetaStocksFranchise",
  "sourceName": "contracts/MetaStocksFranchise.sol",
  "abi": [
    {
      "anonymous": false,
      "inputs": [
        {
          "indexed": true,
          "internalType": "address",
          "name": "account",
          "type": "address"
        },
        {
          "indexed": true,
          "internalType": "address",
          "name": "operator",
          "type": "address"
        },
        {
          "indexed": false,
          "internalType": "bool",
          "name": "approved",
          "type": "bool"
        }
      ],
      "name": "ApprovalForAll",
      "type": "event"
    },
    {
      "anonymous": false,
      "inputs": [
        {
          "indexed": false,
          "internalType": "uint8",
          "name": "version",
          "type": "uint8"
        }
      ],
      "name": "Initialized",
      "type": "event"
    },
    {
      "anonymous": false,
      "inputs": [
        {
          "indexed": true,
          "internalType": "address",
          "name": "previousOwner",
          "type": "address"
        },
        {
          "indexed": true,
          "internalType": "address",
          "name": "newOwner",
          "type": "address"
        }
      ],
      "name": "OwnershipTransferred",
      "type": "event"
    },
    {
      "anonymous": false,
      "inputs": [
        {
          "indexed": false,
          "internalType": "address",
          "name": "account",
          "type": "address"
        }
      ],
      "name": "Paused",
      "type": "event"
    },
    {
      "anonymous": false,
      "inputs": [
        {
          "indexed": true,
          "internalType": "address",
          "name": "operator",
          "type": "address"
        },
        {
          "indexed": true,
          "internalType": "address",
          "name": "from",
          "type": "address"
        },
        {
          "indexed": true,
          "internalType": "address",
          "name": "to",
          "type": "address"
        },
        {
          "indexed": false,
          "internalType": "uint256[]",
          "name": "ids",
          "type": "uint256[]"
        },
        {
          "indexed": false,
          "internalType": "uint256[]",
          "name": "values",
          "type": "uint256[]"
        }
      ],
      "name": "TransferBatch",
      "type": "event"
    },
    {
      "anonymous": false,
      "inputs": [
        {
          "indexed": true,
          "internalType": "address",
          "name": "operator",
          "type": "address"
        },
        {
          "indexed": true,
          "internalType": "address",
          "name": "from",
          "type": "address"
        },
        {
          "indexed": true,
          "internalType": "address",
          "name": "to",
          "type": "address"
        },
        {
          "indexed": false,
          "internalType": "uint256",
          "name": "id",
          "type": "uint256"
        },
        {
          "indexed": false,
          "internalType": "uint256",
          "name": "value",
          "type": "uint256"
        }
      ],
      "name": "TransferSingle",
      "type": "event"
    },
    {
      "anonymous": false,
      "inputs": [
        {
          "indexed": false,
          "internalType": "string",
          "name": "value",
          "type": "string"
        },
        {
          "indexed": true,
          "internalType": "uint256",
          "name": "id",
          "type": "uint256"
        }
      ],
      "name": "URI",
      "type": "event"
    },
    {
      "anonymous": false,
      "inputs": [
        {
          "indexed": false,
          "internalType": "address",
          "name": "account",
          "type": "address"
        }
      ],
      "name": "Unpaused",
      "type": "event"
    },
    {
      "inputs": [
        {
          "internalType": "address",
          "name": "account",
          "type": "address"
        },
        {
          "internalType": "uint256",
          "name": "id",
          "type": "uint256"
        }
      ],
      "name": "balanceOf",
      "outputs": [
        {
          "internalType": "uint256",
          "name": "",
          "type": "uint256"
        }
      ],
      "stateMutability": "view",
      "type": "function"
    },
    {
      "inputs": [
        {
          "internalType": "address[]",
          "name": "accounts",
          "type": "address[]"
        },
        {
          "internalType": "uint256[]",
          "name": "ids",
          "type": "uint256[]"
        }
      ],
      "name": "balanceOfBatch",
      "outputs": [
        {
          "internalType": "uint256[]",
          "name": "",
          "type": "uint256[]"
        }
      ],
      "stateMutability": "view",
      "type": "function"
    },
    {
      "inputs": [
        {
          "internalType": "address",
          "name": "account",
          "type": "address"
        },
        {
          "internalType": "uint256",
          "name": "id",
          "type": "uint256"
        },
        {
          "internalType": "uint256",
          "name": "value",
          "type": "uint256"
        }
      ],
      "name": "burn",
      "outputs": [],
      "stateMutability": "nonpayable",
      "type": "function"
    },
    {
      "inputs": [
        {
          "internalType": "address",
          "name": "account",
          "type": "address"
        },
        {
          "internalType": "uint256[]",
          "name": "ids",
          "type": "uint256[]"
        },
        {
          "internalType": "uint256[]",
          "name": "values",
          "type": "uint256[]"
        }
      ],
      "name": "burnBatch",
      "outputs": [],
      "stateMutability": "nonpayable",
      "type": "function"
    },
    {
      "inputs": [
        {
          "internalType": "uint256",
          "name": "id",
          "type": "uint256"
        }
      ],
      "name": "exists",
      "outputs": [
        {
          "internalType": "bool",
          "name": "",
          "type": "bool"
        }
      ],
      "stateMutability": "view",
      "type": "function"
    },
    {
      "inputs": [
        {
          "internalType": "enum MetaStocksFranchiseType",
          "name": "_metaStocksFranchiseType",
          "type": "uint8"
        }
      ],
      "name": "getMetaStocksFranchiseType",
      "outputs": [
        {
          "internalType": "uint256",
          "name": "",
          "type": "uint256"
        }
      ],
      "stateMutability": "pure",
      "type": "function"
    },
    {
      "inputs": [],
      "name": "initialize",
      "outputs": [],
      "stateMutability": "nonpayable",
      "type": "function"
    },
    {
      "inputs": [
        {
          "internalType": "address",
          "name": "account",
          "type": "address"
        },
        {
          "internalType": "address",
          "name": "operator",
          "type": "address"
        }
      ],
      "name": "isApprovedForAll",
      "outputs": [
        {
          "internalType": "bool",
          "name": "",
          "type": "bool"
        }
      ],
      "stateMutability": "view",
      "type": "function"
    },
    {
      "inputs": [
        {
          "internalType": "address",
          "name": "to",
          "type": "address"
        },
        {
          "internalType": "uint256",
          "name": "id",
          "type": "uint256"
        },
        {
          "internalType": "uint256",
          "name": "amount",
          "type": "uint256"
        },
        {
          "internalType": "bytes",
          "name": "data",
          "type": "bytes"
        }
      ],
      "name": "mint",
      "outputs": [],
      "stateMutability": "nonpayable",
      "type": "function"
    },
    {
      "inputs": [
        {
          "internalType": "address",
          "name": "to",
          "type": "address"
        },
        {
          "internalType": "uint256[]",
          "name": "ids",
          "type": "uint256[]"
        },
        {
          "internalType": "uint256[]",
          "name": "amounts",
          "type": "uint256[]"
        },
        {
          "internalType": "bytes",
          "name": "data",
          "type": "bytes"
        }
      ],
      "name": "mintBatch",
      "outputs": [],
      "stateMutability": "nonpayable",
      "type": "function"
    },
    {
      "inputs": [],
      "name": "owner",
      "outputs": [
        {
          "internalType": "address",
          "name": "",
          "type": "address"
        }
      ],
      "stateMutability": "view",
      "type": "function"
    },
    {
      "inputs": [],
      "name": "pause",
      "outputs": [],
      "stateMutability": "nonpayable",
      "type": "function"
    },
    {
      "inputs": [],
      "name": "paused",
      "outputs": [
        {
          "internalType": "bool",
          "name": "",
          "type": "bool"
        }
      ],
      "stateMutability": "view",
      "type": "function"
    },
    {
      "inputs": [],
      "name": "renounceOwnership",
      "outputs": [],
      "stateMutability": "nonpayable",
      "type": "function"
    },
    {
      "inputs": [
        {
          "internalType": "address",
          "name": "from",
          "type": "address"
        },
        {
          "internalType": "address",
          "name": "to",
          "type": "address"
        },
        {
          "internalType": "uint256[]",
          "name": "ids",
          "type": "uint256[]"
        },
        {
          "internalType": "uint256[]",
          "name": "amounts",
          "type": "uint256[]"
        },
        {
          "internalType": "bytes",
          "name": "data",
          "type": "bytes"
        }
      ],
      "name": "safeBatchTransferFrom",
      "outputs": [],
      "stateMutability": "nonpayable",
      "type": "function"
    },
    {
      "inputs": [
        {
          "internalType": "address",
          "name": "from",
          "type": "address"
        },
        {
          "internalType": "address",
          "name": "to",
          "type": "address"
        },
        {
          "internalType": "uint256",
          "name": "id",
          "type": "uint256"
        },
        {
          "internalType": "uint256",
          "name": "amount",
          "type": "uint256"
        },
        {
          "internalType": "bytes",
          "name": "data",
          "type": "bytes"
        }
      ],
      "name": "safeTransferFrom",
      "outputs": [],
      "stateMutability": "nonpayable",
      "type": "function"
    },
    {
      "inputs": [
        {
          "internalType": "address",
          "name": "operator",
          "type": "address"
        },
        {
          "internalType": "bool",
          "name": "approved",
          "type": "bool"
        }
      ],
      "name": "setApprovalForAll",
      "outputs": [],
      "stateMutability": "nonpayable",
      "type": "function"
    },
    {
      "inputs": [
        {
          "internalType": "string",
          "name": "newuri",
          "type": "string"
        }
      ],
      "name": "setURI",
      "outputs": [],
      "stateMutability": "nonpayable",
      "type": "function"
    },
    {
      "inputs": [
        {
          "internalType": "bytes4",
          "name": "interfaceId",
          "type": "bytes4"
        }
      ],
      "name": "supportsInterface",
      "outputs": [
        {
          "internalType": "bool",
          "name": "",
          "type": "bool"
        }
      ],
      "stateMutability": "view",
      "type": "function"
    },
    {
      "inputs": [
        {
          "internalType": "uint256",
          "name": "id",
          "type": "uint256"
        }
      ],
      "name": "totalSupply",
      "outputs": [
        {
          "internalType": "uint256",
          "name": "",
          "type": "uint256"
        }
      ],
      "stateMutability": "view",
      "type": "function"
    },
    {
      "inputs": [
        {
          "internalType": "address",
          "name": "newOwner",
          "type": "address"
        }
      ],
      "name": "transferOwnership",
      "outputs": [],
      "stateMutability": "nonpayable",
      "type": "function"
    },
    {
      "inputs": [],
      "name": "unpause",
      "outputs": [],
      "stateMutability": "nonpayable",
      "type": "function"
    },
    {
      "inputs": [
        {
          "internalType": "uint256",
          "name": "",
          "type": "uint256"
        }
      ],
      "name": "uri",
      "outputs": [
        {
          "internalType": "string",
          "name": "",
          "type": "string"
        }
      ],
      "stateMutability": "view",
      "type": "function"
    }
  ],
  "bytecode": "0x60806040523480156200001157600080fd5b506200001c62000022565b62000152565b6200002e60ff62000031565b50565b60008054610100900460ff1615620000ca578160ff1660011480156200006a575062000068306200014360201b62000b791760201c565b155b620000c25760405162461bcd60e51b815260206004820152602e602482015260008051602062002a5383398151915260448201526d191e481a5b9a5d1a585b1a5e995960921b60648201526084015b60405180910390fd5b506000919050565b60005460ff808416911610620001295760405162461bcd60e51b815260206004820152602e602482015260008051602062002a5383398151915260448201526d191e481a5b9a5d1a585b1a5e995960921b6064820152608401620000b9565b506000805460ff191660ff92909216919091179055600190565b6001600160a01b03163b151590565b6128f180620001626000396000f3fe608060405234801561001057600080fd5b506004361061014c5760003560e01c8063715018a6116100c3578063bd85b0391161007c578063bd85b039146102bc578063e1b04122146102dd578063e985e9c5146102f0578063f242432a1461032c578063f2fde38b1461033f578063f5298aca1461035257600080fd5b8063715018a61461025e578063731133e9146102665780638129fc1c146102795780638456cb59146102815780638da5cb5b14610289578063a22cb465146102a957600080fd5b80632eb2c2d6116101155780632eb2c2d6146101e25780633f4ba83a146101f55780634e1273f4146101fd5780634f558e791461021d5780635c975abb146102405780636b20c4541461024b57600080fd5b8062fdd58e1461015157806301ffc9a71461017757806302fe53051461019a5780630e89341c146101af5780631f7fdffa146101cf575b600080fd5b61016461015f366004611c31565b610365565b6040519081526020015b60405180910390f35b61018a610185366004611c71565b6103fe565b604051901515815260200161016e565b6101ad6101a8366004611d34565b610450565b005b6101c26101bd366004611d84565b61048b565b60405161016e9190611dea565b6101ad6101dd366004611eb1565b61051f565b6101ad6101f0366004611f49565b610560565b6101ad6105f7565b61021061020b366004611ff2565b610630565b60405161016e91906120f7565b61018a61022b366004611d84565b600090815261012d6020526040902054151590565b60c95460ff1661018a565b6101ad61025936600461210a565b610759565b6101ad6107a1565b6101ad61027436600461217d565b6107da565b6101ad610815565b6101ad610889565b6102916108c0565b6040516001600160a01b03909116815260200161016e565b6101ad6102b73660046121d1565b6108cf565b6101646102ca366004611d84565b600090815261012d602052604090205490565b6101646102eb36600461220d565b6108de565b61018a6102fe36600461222e565b6001600160a01b03918216600090815260666020908152604080832093909416825291909152205460ff1690565b6101ad61033a366004612261565b610a54565b6101ad61034d3660046122c5565b610a99565b6101ad6103603660046122e0565b610b36565b60006001600160a01b0383166103d65760405162461bcd60e51b815260206004820152602b60248201527f455243313135353a2062616c616e636520717565727920666f7220746865207a60448201526a65726f206164647265737360a81b60648201526084015b60405180910390fd5b5060009081526065602090815260408083206001600160a01b03949094168352929052205490565b60006001600160e01b03198216636cdb3d1360e11b148061042f57506001600160e01b031982166303a24d0760e21b145b8061044a57506301ffc9a760e01b6001600160e01b03198316145b92915050565b336104596108c0565b6001600160a01b03161461047f5760405162461bcd60e51b81526004016103cd90612313565b61048881610b88565b50565b60606067805461049a90612348565b80601f01602080910402602001604051908101604052809291908181526020018280546104c690612348565b80156105135780601f106104e857610100808354040283529160200191610513565b820191906000526020600020905b8154815290600101906020018083116104f657829003601f168201915b50505050509050919050565b336105286108c0565b6001600160a01b03161461054e5760405162461bcd60e51b81526004016103cd90612313565b61055a84848484610b9b565b50505050565b6001600160a01b03851633148061057c575061057c85336102fe565b6105e35760405162461bcd60e51b815260206004820152603260248201527f455243313135353a207472616e736665722063616c6c6572206973206e6f74206044820152711bdddb995c881b9bdc88185c1c1c9bdd995960721b60648201526084016103cd565b6105f08585858585610ce4565b5050505050565b336106006108c0565b6001600160a01b0316146106265760405162461bcd60e51b81526004016103cd90612313565b61062e610e7f565b565b606081518351146106955760405162461bcd60e51b815260206004820152602960248201527f455243313135353a206163636f756e747320616e6420696473206c656e677468604482015268040dad2e6dac2e8c6d60bb1b60648201526084016103cd565b600083516001600160401b038111156106b0576106b0611c95565b6040519080825280602002602001820160405280156106d9578160200160208202803683370190505b50905060005b8451811015610751576107248582815181106106fd576106fd612382565b602002602001015185838151811061071757610717612382565b6020026020010151610365565b82828151811061073657610736612382565b602090810291909101015261074a816123ae565b90506106df565b509392505050565b6001600160a01b038316331480610775575061077583336102fe565b6107915760405162461bcd60e51b81526004016103cd906123c7565b61079c838383610f12565b505050565b336107aa6108c0565b6001600160a01b0316146107d05760405162461bcd60e51b81526004016103cd90612313565b61062e600061109f565b336107e36108c0565b6001600160a01b0316146108095760405162461bcd60e51b81526004016103cd90612313565b61055a848484846110f1565b600061082160016111ca565b90508015610839576000805461ff0019166101001790555b61084161125e565b8015610488576000805461ff0019169055604051600181527f7f26b83ff96e1f2b6a682f133852f6798a09c465da95921460cefb38474024989060200160405180910390a150565b336108926108c0565b6001600160a01b0316146108b85760405162461bcd60e51b81526004016103cd90612313565b61062e6112ba565b6097546001600160a01b031690565b6108da338383611312565b5050565b600080808360098111156108f4576108f4612410565b036109015750600061044a565b600183600981111561091557610915612410565b036109225750600161044a565b600283600981111561093657610936612410565b036109435750600261044a565b600383600981111561095757610957612410565b036109645750600361044a565b600483600981111561097857610978612410565b036109855750600461044a565b600583600981111561099957610999612410565b036109a65750600561044a565b60068360098111156109ba576109ba612410565b036109c75750600661044a565b60078360098111156109db576109db612410565b036109e85750600761044a565b60088360098111156109fc576109fc612410565b03610a095750600861044a565b6009836009811115610a1d57610a1d612410565b03610a2a5750600961044a565b6001836009811115610a3e57610a3e612410565b03610a4b5750600a61044a565b50600092915050565b6001600160a01b038516331480610a705750610a7085336102fe565b610a8c5760405162461bcd60e51b81526004016103cd906123c7565b6105f085858585856113f2565b33610aa26108c0565b6001600160a01b031614610ac85760405162461bcd60e51b81526004016103cd90612313565b6001600160a01b038116610b2d5760405162461bcd60e51b815260206004820152602660248201527f4f776e61626c653a206e6577206f776e657220697320746865207a65726f206160448201526564647265737360d01b60648201526084016103cd565b6104888161109f565b6001600160a01b038316331480610b525750610b5283336102fe565b610b6e5760405162461bcd60e51b81526004016103cd906123c7565b61079c83838361151c565b6001600160a01b03163b151590565b80516108da906067906020840190611b81565b6001600160a01b038416610bc15760405162461bcd60e51b81526004016103cd90612426565b8151835114610be25760405162461bcd60e51b81526004016103cd90612467565b33610bf281600087878787611626565b60005b8451811015610c8e57838181518110610c1057610c10612382565b602002602001015160656000878481518110610c2e57610c2e612382565b602002602001015181526020019081526020016000206000886001600160a01b03166001600160a01b031681526020019081526020016000206000828254610c7691906124af565b90915550819050610c86816123ae565b915050610bf5565b50846001600160a01b031660006001600160a01b0316826001600160a01b031660008051602061287c8339815191528787604051610ccd9291906124c7565b60405180910390a46105f081600087878787611657565b8151835114610d055760405162461bcd60e51b81526004016103cd90612467565b6001600160a01b038416610d2b5760405162461bcd60e51b81526004016103cd906124f5565b33610d3a818787878787611626565b60005b8451811015610e23576000858281518110610d5a57610d5a612382565b602002602001015190506000858381518110610d7857610d78612382565b60209081029190910181015160008481526065835260408082206001600160a01b038e168352909352919091205490915081811015610dc95760405162461bcd60e51b81526004016103cd9061253a565b60008381526065602090815260408083206001600160a01b038e8116855292528083208585039055908b16825281208054849290610e089084906124af565b9250508190555050505080610e1c906123ae565b9050610d3d565b50846001600160a01b0316866001600160a01b0316826001600160a01b031660008051602061287c8339815191528787604051610e619291906124c7565b60405180910390a4610e77818787878787611657565b505050505050565b60c95460ff16610ec85760405162461bcd60e51b815260206004820152601460248201527314185d5cd8589b194e881b9bdd081c185d5cd95960621b60448201526064016103cd565b60c9805460ff191690557f5db9ee0a495bf2e6ff9c91a7834c1ba4fdd244a5e8aa4e537bd38aeae4b073aa335b6040516001600160a01b03909116815260200160405180910390a1565b6001600160a01b038316610f385760405162461bcd60e51b81526004016103cd90612584565b8051825114610f595760405162461bcd60e51b81526004016103cd90612467565b6000339050610f7c81856000868660405180602001604052806000815250611626565b60005b8351811015611044576000848281518110610f9c57610f9c612382565b602002602001015190506000848381518110610fba57610fba612382565b60209081029190910181015160008481526065835260408082206001600160a01b038c16835290935291909120549091508181101561100b5760405162461bcd60e51b81526004016103cd906125c7565b60009283526065602090815260408085206001600160a01b038b168652909152909220910390558061103c816123ae565b915050610f7f565b5060006001600160a01b0316846001600160a01b0316826001600160a01b031660008051602061287c83398151915286866040516110839291906124c7565b60405180910390a460408051602081019091526000905261055a565b609780546001600160a01b038381166001600160a01b0319831681179093556040519116919082907f8be0079c531659141344cd1fd0a4f28419497f9722a3daafe3b4186f6b6457e090600090a35050565b6001600160a01b0384166111175760405162461bcd60e51b81526004016103cd90612426565b336000611123856117b9565b90506000611130856117b9565b905061114183600089858589611626565b60008681526065602090815260408083206001600160a01b038b168452909152812080548792906111739084906124af565b909155505060408051878152602081018790526001600160a01b03808a16926000929187169160008051602061289c833981519152910160405180910390a46111c183600089898989611804565b50505050505050565b60008054610100900460ff1615611218578160ff1660011480156111f457506111f230610b79565b155b6112105760405162461bcd60e51b81526004016103cd9061260b565b506000919050565b60005460ff80841691161061123f5760405162461bcd60e51b81526004016103cd9061260b565b506000805460ff191660ff92909216919091179055600190565b919050565b600061126a60016111ca565b90508015611282576000805461ff0019166101001790555b61129a604051806020016040528060008152506118c6565b6112a26118f6565b6112aa611925565b6112b2611954565b610841611954565b60c95460ff16156112dd5760405162461bcd60e51b81526004016103cd90612659565b60c9805460ff191660011790557f62e78cea01bee320cd4e420270b5ea74000d11b0c9f74754ebdbfc544b05a258610ef53390565b816001600160a01b0316836001600160a01b0316036113855760405162461bcd60e51b815260206004820152602960248201527f455243313135353a2073657474696e6720617070726f76616c20737461747573604482015268103337b91039b2b63360b91b60648201526084016103cd565b6001600160a01b03838116600081815260666020908152604080832094871680845294825291829020805460ff191686151590811790915591519182527f17307eab39ab6107e8899845ad3d59bd9653f200f220920489ca2b5937696c31910160405180910390a3505050565b6001600160a01b0384166114185760405162461bcd60e51b81526004016103cd906124f5565b336000611424856117b9565b90506000611431856117b9565b9050611441838989858589611626565b60008681526065602090815260408083206001600160a01b038c168452909152902054858110156114845760405162461bcd60e51b81526004016103cd9061253a565b60008781526065602090815260408083206001600160a01b038d8116855292528083208985039055908a168252812080548892906114c39084906124af565b909155505060408051888152602081018890526001600160a01b03808b16928c8216929188169160008051602061289c833981519152910160405180910390a4611511848a8a8a8a8a611804565b505050505050505050565b6001600160a01b0383166115425760405162461bcd60e51b81526004016103cd90612584565b33600061154e846117b9565b9050600061155b846117b9565b905061157b83876000858560405180602001604052806000815250611626565b60008581526065602090815260408083206001600160a01b038a168452909152902054848110156115be5760405162461bcd60e51b81526004016103cd906125c7565b60008681526065602090815260408083206001600160a01b038b81168086529184528285208a8703905582518b81529384018a905290929088169160008051602061289c833981519152910160405180910390a46040805160208101909152600090526111c1565b60c95460ff16156116495760405162461bcd60e51b81526004016103cd90612659565b610e7786868686868661197b565b611669846001600160a01b0316610b79565b15610e775760405163bc197c8160e01b81526001600160a01b0385169063bc197c81906116a29089908990889088908890600401612683565b6020604051808303816000875af19250505080156116dd575060408051601f3d908101601f191682019092526116da918101906126e1565b60015b611789576116e96126fe565b806308c379a00361172257506116fd61271a565b806117085750611724565b8060405162461bcd60e51b81526004016103cd9190611dea565b505b60405162461bcd60e51b815260206004820152603460248201527f455243313135353a207472616e7366657220746f206e6f6e20455243313135356044820152732932b1b2b4bb32b91034b6b83632b6b2b73a32b960611b60648201526084016103cd565b6001600160e01b0319811663bc197c8160e01b146111c15760405162461bcd60e51b81526004016103cd906127a3565b604080516001808252818301909252606091600091906020808301908036833701905050905082816000815181106117f3576117f3612382565b602090810291909101015292915050565b611816846001600160a01b0316610b79565b15610e775760405163f23a6e6160e01b81526001600160a01b0385169063f23a6e619061184f90899089908890889088906004016127eb565b6020604051808303816000875af192505050801561188a575060408051601f3d908101601f19168201909252611887918101906126e1565b60015b611896576116e96126fe565b6001600160e01b0319811663f23a6e6160e01b146111c15760405162461bcd60e51b81526004016103cd906127a3565b600054610100900460ff166118ed5760405162461bcd60e51b81526004016103cd90612830565b61048881611af7565b600054610100900460ff1661191d5760405162461bcd60e51b81526004016103cd90612830565b61062e611b1e565b600054610100900460ff1661194c5760405162461bcd60e51b81526004016103cd90612830565b61062e611b4e565b600054610100900460ff1661062e5760405162461bcd60e51b81526004016103cd90612830565b6001600160a01b038516611a035760005b8351811015611a01578281815181106119a7576119a7612382565b602002602001015161012d60008684815181106119c6576119c6612382565b6020026020010151815260200190815260200160002060008282546119eb91906124af565b909155506119fa9050816123ae565b905061198c565b505b6001600160a01b038416610e775760005b83518110156111c1576000848281518110611a3157611a31612382565b602002602001015190506000848381518110611a4f57611a4f612382565b60200260200101519050600061012d600084815260200190815260200160002054905081811015611ad35760405162461bcd60e51b815260206004820152602860248201527f455243313135353a206275726e20616d6f756e74206578636565647320746f74604482015267616c537570706c7960c01b60648201526084016103cd565b600092835261012d602052604090922091039055611af0816123ae565b9050611a14565b600054610100900460ff1661047f5760405162461bcd60e51b81526004016103cd90612830565b600054610100900460ff16611b455760405162461bcd60e51b81526004016103cd90612830565b61062e3361109f565b600054610100900460ff16611b755760405162461bcd60e51b81526004016103cd90612830565b60c9805460ff19169055565b828054611b8d90612348565b90600052602060002090601f016020900481019282611baf5760008555611bf5565b82601f10611bc857805160ff1916838001178555611bf5565b82800160010185558215611bf5579182015b82811115611bf5578251825591602001919060010190611bda565b50611c01929150611c05565b5090565b5b80821115611c015760008155600101611c06565b80356001600160a01b038116811461125957600080fd5b60008060408385031215611c4457600080fd5b611c4d83611c1a565b946020939093013593505050565b6001600160e01b03198116811461048857600080fd5b600060208284031215611c8357600080fd5b8135611c8e81611c5b565b9392505050565b634e487b7160e01b600052604160045260246000fd5b601f8201601f191681016001600160401b0381118282101715611cd057611cd0611c95565b6040525050565b60006001600160401b03831115611cf057611cf0611c95565b604051611d07601f8501601f191660200182611cab565b809150838152848484011115611d1c57600080fd5b83836020830137600060208583010152509392505050565b600060208284031215611d4657600080fd5b81356001600160401b03811115611d5c57600080fd5b8201601f81018413611d6d57600080fd5b611d7c84823560208401611cd7565b949350505050565b600060208284031215611d9657600080fd5b5035919050565b6000815180845260005b81811015611dc357602081850181015186830182015201611da7565b81811115611dd5576000602083870101525b50601f01601f19169290920160200192915050565b602081526000611c8e6020830184611d9d565b60006001600160401b03821115611e1657611e16611c95565b5060051b60200190565b600082601f830112611e3157600080fd5b81356020611e3e82611dfd565b604051611e4b8282611cab565b83815260059390931b8501820192828101915086841115611e6b57600080fd5b8286015b84811015611e865780358352918301918301611e6f565b509695505050505050565b600082601f830112611ea257600080fd5b611c8e83833560208501611cd7565b60008060008060808587031215611ec757600080fd5b611ed085611c1a565b935060208501356001600160401b0380821115611eec57600080fd5b611ef888838901611e20565b94506040870135915080821115611f0e57600080fd5b611f1a88838901611e20565b93506060870135915080821115611f3057600080fd5b50611f3d87828801611e91565b91505092959194509250565b600080600080600060a08688031215611f6157600080fd5b611f6a86611c1a565b9450611f7860208701611c1a565b935060408601356001600160401b0380821115611f9457600080fd5b611fa089838a01611e20565b94506060880135915080821115611fb657600080fd5b611fc289838a01611e20565b93506080880135915080821115611fd857600080fd5b50611fe588828901611e91565b9150509295509295909350565b6000806040838503121561200557600080fd5b82356001600160401b038082111561201c57600080fd5b818501915085601f83011261203057600080fd5b8135602061203d82611dfd565b60405161204a8282611cab565b83815260059390931b850182019282810191508984111561206a57600080fd5b948201945b8386101561208f5761208086611c1a565b8252948201949082019061206f565b965050860135925050808211156120a557600080fd5b506120b285828601611e20565b9150509250929050565b600081518084526020808501945080840160005b838110156120ec578151875295820195908201906001016120d0565b509495945050505050565b602081526000611c8e60208301846120bc565b60008060006060848603121561211f57600080fd5b61212884611c1a565b925060208401356001600160401b038082111561214457600080fd5b61215087838801611e20565b9350604086013591508082111561216657600080fd5b5061217386828701611e20565b9150509250925092565b6000806000806080858703121561219357600080fd5b61219c85611c1a565b9350602085013592506040850135915060608501356001600160401b038111156121c557600080fd5b611f3d87828801611e91565b600080604083850312156121e457600080fd5b6121ed83611c1a565b91506020830135801515811461220257600080fd5b809150509250929050565b60006020828403121561221f57600080fd5b8135600a8110611c8e57600080fd5b6000806040838503121561224157600080fd5b61224a83611c1a565b915061225860208401611c1a565b90509250929050565b600080600080600060a0868803121561227957600080fd5b61228286611c1a565b945061229060208701611c1a565b9350604086013592506060860135915060808601356001600160401b038111156122b957600080fd5b611fe588828901611e91565b6000602082840312156122d757600080fd5b611c8e82611c1a565b6000806000606084860312156122f557600080fd5b6122fe84611c1a565b95602085013595506040909401359392505050565b6020808252818101527f4f776e61626c653a2063616c6c6572206973206e6f7420746865206f776e6572604082015260600190565b600181811c9082168061235c57607f821691505b60208210810361237c57634e487b7160e01b600052602260045260246000fd5b50919050565b634e487b7160e01b600052603260045260246000fd5b634e487b7160e01b600052601160045260246000fd5b6000600182016123c0576123c0612398565b5060010190565b60208082526029908201527f455243313135353a2063616c6c6572206973206e6f74206f776e6572206e6f7260408201526808185c1c1c9bdd995960ba1b606082015260800190565b634e487b7160e01b600052602160045260246000fd5b60208082526021908201527f455243313135353a206d696e7420746f20746865207a65726f206164647265736040820152607360f81b606082015260800190565b60208082526028908201527f455243313135353a2069647320616e6420616d6f756e7473206c656e677468206040820152670dad2e6dac2e8c6d60c31b606082015260800190565b600082198211156124c2576124c2612398565b500190565b6040815260006124da60408301856120bc565b82810360208401526124ec81856120bc565b95945050505050565b60208082526025908201527f455243313135353a207472616e7366657220746f20746865207a65726f206164604082015264647265737360d81b606082015260800190565b6020808252602a908201527f455243313135353a20696e73756666696369656e742062616c616e636520666f60408201526939103a3930b739b332b960b11b606082015260800190565b60208082526023908201527f455243313135353a206275726e2066726f6d20746865207a65726f206164647260408201526265737360e81b606082015260800190565b60208082526024908201527f455243313135353a206275726e20616d6f756e7420657863656564732062616c604082015263616e636560e01b606082015260800190565b6020808252602e908201527f496e697469616c697a61626c653a20636f6e747261637420697320616c72656160408201526d191e481a5b9a5d1a585b1a5e995960921b606082015260800190565b60208082526010908201526f14185d5cd8589b194e881c185d5cd95960821b604082015260600190565b6001600160a01b0386811682528516602082015260a0604082018190526000906126af908301866120bc565b82810360608401526126c181866120bc565b905082810360808401526126d58185611d9d565b98975050505050505050565b6000602082840312156126f357600080fd5b8151611c8e81611c5b565b600060033d11156127175760046000803e5060005160e01c5b90565b600060443d10156127285790565b6040516003193d81016004833e81513d6001600160401b03816024840111818411171561275757505050505090565b828501915081518181111561276f5750505050505090565b843d87010160208285010111156127895750505050505090565b61279860208286010187611cab565b509095945050505050565b60208082526028908201527f455243313135353a204552433131353552656365697665722072656a656374656040820152676420746f6b656e7360c01b606082015260800190565b6001600160a01b03868116825285166020820152604081018490526060810183905260a06080820181905260009061282590830184611d9d565b979650505050505050565b6020808252602b908201527f496e697469616c697a61626c653a20636f6e7472616374206973206e6f74206960408201526a6e697469616c697a696e6760a81b60608201526080019056fe4a39dc06d4c0dbc64b70af90fd698a233a518aa5d07e595d983b8c0526c8f7fbc3d58168c5ae7397731d063d5bbf3d657854427343f4c083240f7aacaa2d0f62a26469706673582212204ad0d299da758b6783d45548cfaccdb468794ddcc09b909685ef199cdbab2b1764736f6c634300080e0033496e697469616c697a61626c653a20636f6e747261637420697320616c726561",
  "linkReferences": {},
  "deployedLinkReferences": {}
}