{
    "contractName": "MetaStocks",
    "abi": [
        {
            "anonymous": false,
            "inputs": [
                {
                    "indexed": true,
                    "internalType": "address",
                    "name": "owner",
                    "type": "address"
                },
                {
                    "indexed": true,
                    "internalType": "address",
                    "name": "spender",
                    "type": "address"
                },
                {
                    "indexed": false,
                    "internalType": "uint256",
                    "name": "value",
                    "type": "uint256"
                }
            ],
            "name": "Approval",
            "type": "event"
        },
        {
            "anonymous": false,
            "inputs": [
                {
                    "indexed": true,
                    "internalType": "address",
                    "name": "sender",
                    "type": "address"
                },
                {
                    "indexed": false,
                    "internalType": "uint256",
                    "name": "amount",
                    "type": "uint256"
                }
            ],
            "name": "Burn",
            "type": "event"
        },
        {
            "anonymous": false,
            "inputs": [
                {
                    "indexed": false,
                    "internalType": "uint8",
                    "name": "version",
                    "type": "uint8"
                }
            ],
            "name": "Initialized",
            "type": "event"
        },
        {
            "anonymous": false,
            "inputs": [
                {
                    "indexed": true,
                    "internalType": "address",
                    "name": "previousOwner",
                    "type": "address"
                },
                {
                    "indexed": true,
                    "internalType": "address",
                    "name": "newOwner",
                    "type": "address"
                }
            ],
            "name": "OwnershipTransferred",
            "type": "event"
        },
        {
            "anonymous": false,
            "inputs": [
                {
                    "indexed": true,
                    "internalType": "address",
                    "name": "from",
                    "type": "address"
                },
                {
                    "indexed": true,
                    "internalType": "address",
                    "name": "to",
                    "type": "address"
                },
                {
                    "indexed": false,
                    "internalType": "uint256",
                    "name": "value",
                    "type": "uint256"
                }
            ],
            "name": "Transfer",
            "type": "event"
        },
        {
            "inputs": [
                {
                    "internalType": "address",
                    "name": "owner",
                    "type": "address"
                },
                {
                    "internalType": "address",
                    "name": "spender",
                    "type": "address"
                }
            ],
            "name": "allowance",
            "outputs": [
                {
                    "internalType": "uint256",
                    "name": "",
                    "type": "uint256"
                }
            ],
            "stateMutability": "view",
            "type": "function"
        },
        {
            "inputs": [
                {
                    "internalType": "address",
                    "name": "spender",
                    "type": "address"
                },
                {
                    "internalType": "uint256",
                    "name": "amount",
                    "type": "uint256"
                }
            ],
            "name": "approve",
            "outputs": [
                {
                    "internalType": "bool",
                    "name": "",
                    "type": "bool"
                }
            ],
            "stateMutability": "nonpayable",
            "type": "function"
        },
        {
            "inputs": [
                {
                    "internalType": "uint256",
                    "name": "tokenAmount",
                    "type": "uint256"
                }
            ],
            "name": "autoInjectLiquidity",
            "outputs": [],
            "stateMutability": "nonpayable",
            "type": "function"
        },
        {
            "inputs": [
                {
                    "internalType": "address",
                    "name": "",
                    "type": "address"
                }
            ],
            "name": "automatedMarketMakerPairs",
            "outputs": [
                {
                    "internalType": "bool",
                    "name": "",
                    "type": "bool"
                }
            ],
            "stateMutability": "view",
            "type": "function"
        },
        {
            "inputs": [
                {
                    "internalType": "address",
                    "name": "account",
                    "type": "address"
                }
            ],
            "name": "balanceOf",
            "outputs": [
                {
                    "internalType": "uint256",
                    "name": "",
                    "type": "uint256"
                }
            ],
            "stateMutability": "view",
            "type": "function"
        },
        {
            "inputs": [],
            "name": "decimals",
            "outputs": [
                {
                    "internalType": "uint8",
                    "name": "",
                    "type": "uint8"
                }
            ],
            "stateMutability": "view",
            "type": "function"
        },
        {
            "inputs": [
                {
                    "internalType": "address",
                    "name": "spender",
                    "type": "address"
                },
                {
                    "internalType": "uint256",
                    "name": "subtractedValue",
                    "type": "uint256"
                }
            ],
            "name": "decreaseAllowance",
            "outputs": [
                {
                    "internalType": "bool",
                    "name": "",
                    "type": "bool"
                }
            ],
            "stateMutability": "nonpayable",
            "type": "function"
        },
        {
            "inputs": [],
            "name": "enableTrading",
            "outputs": [],
            "stateMutability": "nonpayable",
            "type": "function"
        },
        {
            "inputs": [],
            "name": "getFeesManager",
            "outputs": [
                {
                    "internalType": "contract FeesManager",
                    "name": "",
                    "type": "address"
                }
            ],
            "stateMutability": "view",
            "type": "function"
        },
        {
            "inputs": [],
            "name": "getLPPair",
            "outputs": [
                {
                    "internalType": "address",
                    "name": "",
                    "type": "address"
                }
            ],
            "stateMutability": "view",
            "type": "function"
        },
        {
            "inputs": [],
            "name": "getMidasMultinetworkRouterManager",
            "outputs": [
                {
                    "internalType": "contract MidasMultinetworkRouterManager",
                    "name": "",
                    "type": "address"
                }
            ],
            "stateMutability": "view",
            "type": "function"
        },
        {
            "inputs": [],
            "name": "getOwner",
            "outputs": [
                {
                    "internalType": "address",
                    "name": "",
                    "type": "address"
                }
            ],
            "stateMutability": "view",
            "type": "function"
        },
        {
            "inputs": [],
            "name": "getSwapThreshold",
            "outputs": [
                {
                    "internalType": "uint256",
                    "name": "",
                    "type": "uint256"
                }
            ],
            "stateMutability": "view",
            "type": "function"
        },
        {
            "inputs": [],
            "name": "getTradingEnabled",
            "outputs": [
                {
                    "internalType": "bool",
                    "name": "",
                    "type": "bool"
                }
            ],
            "stateMutability": "view",
            "type": "function"
        },
        {
            "inputs": [
                {
                    "internalType": "address",
                    "name": "spender",
                    "type": "address"
                },
                {
                    "internalType": "uint256",
                    "name": "addedValue",
                    "type": "uint256"
                }
            ],
            "name": "increaseAllowance",
            "outputs": [
                {
                    "internalType": "bool",
                    "name": "",
                    "type": "bool"
                }
            ],
            "stateMutability": "nonpayable",
            "type": "function"
        },
        {
            "inputs": [],
            "name": "initialize",
            "outputs": [],
            "stateMutability": "nonpayable",
            "type": "function"
        },
        {
            "inputs": [
                {
                    "internalType": "string",
                    "name": "_name",
                    "type": "string"
                },
                {
                    "internalType": "string",
                    "name": "_symbol",
                    "type": "string"
                },
                {
                    "internalType": "uint256",
                    "name": "_totalSupply",
                    "type": "uint256"
                },
                {
                    "internalType": "address",
                    "name": "_routerAddress",
                    "type": "address"
                }
            ],
            "name": "initialize",
            "outputs": [],
            "stateMutability": "nonpayable",
            "type": "function"
        },
        {
            "inputs": [],
            "name": "name",
            "outputs": [
                {
                    "internalType": "string",
                    "name": "",
                    "type": "string"
                }
            ],
            "stateMutability": "view",
            "type": "function"
        },
        {
            "inputs": [],
            "name": "self",
            "outputs": [
                {
                    "internalType": "address",
                    "name": "",
                    "type": "address"
                }
            ],
            "stateMutability": "view",
            "type": "function"
        },
        {
            "inputs": [
                {
                    "internalType": "address",
                    "name": "_dexRouter",
                    "type": "address"
                }
            ],
            "name": "setDexRouter",
            "outputs": [],
            "stateMutability": "nonpayable",
            "type": "function"
        },
        {
            "inputs": [
                {
                    "internalType": "uint16",
                    "name": "buyFee",
                    "type": "uint16"
                },
                {
                    "internalType": "uint16",
                    "name": "sellFee",
                    "type": "uint16"
                },
                {
                    "internalType": "uint16",
                    "name": "transferFee",
                    "type": "uint16"
                }
            ],
            "name": "setFees",
            "outputs": [],
            "stateMutability": "nonpayable",
            "type": "function"
        },
        {
            "inputs": [
                {
                    "internalType": "contract FeesManager",
                    "name": "_feesManager",
                    "type": "address"
                }
            ],
            "name": "setFeesManager",
            "outputs": [],
            "stateMutability": "nonpayable",
            "type": "function"
        },
        {
            "inputs": [
                {
                    "internalType": "uint256",
                    "name": "_maxTransactionAmount",
                    "type": "uint256"
                }
            ],
            "name": "setMaxTransactionAmount",
            "outputs": [],
            "stateMutability": "nonpayable",
            "type": "function"
        },
        {
            "inputs": [
                {
                    "internalType": "uint256",
                    "name": "_maxWalletAmount",
                    "type": "uint256"
                }
            ],
            "name": "setMaxWalletAmount",
            "outputs": [],
            "stateMutability": "nonpayable",
            "type": "function"
        },
        {
            "inputs": [
                {
                    "internalType": "address",
                    "name": "_pairAddress",
                    "type": "address"
                }
            ],
            "name": "setPairAddress",
            "outputs": [],
            "stateMutability": "nonpayable",
            "type": "function"
        },
        {
            "inputs": [
                {
                    "internalType": "uint256",
                    "name": "_swapThreshold",
                    "type": "uint256"
                }
            ],
            "name": "setSwapThreshold",
            "outputs": [],
            "stateMutability": "nonpayable",
            "type": "function"
        },
        {
            "inputs": [
                {
                    "internalType": "address",
                    "name": "_lpPair",
                    "type": "address"
                }
            ],
            "name": "setlpPair",
            "outputs": [],
            "stateMutability": "nonpayable",
            "type": "function"
        },
        {
            "inputs": [],
            "name": "symbol",
            "outputs": [
                {
                    "internalType": "string",
                    "name": "",
                    "type": "string"
                }
            ],
            "stateMutability": "view",
            "type": "function"
        },
        {
            "inputs": [],
            "name": "totalSupply",
            "outputs": [
                {
                    "internalType": "uint256",
                    "name": "",
                    "type": "uint256"
                }
            ],
            "stateMutability": "view",
            "type": "function"
        },
        {
            "inputs": [
                {
                    "internalType": "address",
                    "name": "to",
                    "type": "address"
                },
                {
                    "internalType": "uint256",
                    "name": "amount",
                    "type": "uint256"
                }
            ],
            "name": "transfer",
            "outputs": [
                {
                    "internalType": "bool",
                    "name": "",
                    "type": "bool"
                }
            ],
            "stateMutability": "nonpayable",
            "type": "function"
        },
        {
            "inputs": [
                {
                    "internalType": "address",
                    "name": "from",
                    "type": "address"
                },
                {
                    "internalType": "address",
                    "name": "to",
                    "type": "address"
                },
                {
                    "internalType": "uint256",
                    "name": "amount",
                    "type": "uint256"
                }
            ],
            "name": "transferFrom",
            "outputs": [
                {
                    "internalType": "bool",
                    "name": "",
                    "type": "bool"
                }
            ],
            "stateMutability": "nonpayable",
            "type": "function"
        },
        {
            "inputs": [
                {
                    "internalType": "address",
                    "name": "account",
                    "type": "address"
                }
            ],
            "name": "transferOwnership",
            "outputs": [],
            "stateMutability": "nonpayable",
            "type": "function"
        },
        {
            "stateMutability": "payable",
            "type": "receive"
        }
    ],
    "bytecode": "608060405234801561001057600080fd5b50612f3f806100206000396000f3fe6080604052600436106200020f5760003560e01c80638a8c523c1162000117578063bd3a13f611620000a1578063f005f2ca116200006c578063f005f2ca1462000681578063f2fde38b1462000698578063f72f863b14620006d9578063fa83cb5814620006fe57600080fd5b8063bd3a13f614620005ed578063c762819b1462000612578063d203abb61462000637578063dd62ed3e146200065c57600080fd5b8063a457c2d711620000e2578063a457c2d71462000516578063a9059cbb146200053b578063b62496f51462000560578063b9af8567146200059457600080fd5b80638a8c523c146200047a57806395d89b4114620004925780639d0014b114620004aa578063a22d483214620004ce57600080fd5b80633950935111620001995780637104ddb211620001645780637104ddb2146200040d5780638129fc1c146200042257806386f3f3cb146200043a578063893d20e8146200045a57600080fd5b8063395093511462000355578063534c6bcb146200037a57806357e26696146200039f57806370a0823114620003d357600080fd5b80631e293c1011620001da5780631e293c1014620002ca57806323b872dd14620002ee57806327a14fc21462000313578063313ce567146200033757600080fd5b806306fdde03146200021c578063095ea7b3146200024c57806318160ddd14620002825780631c89382a14620002a357600080fd5b366200021757005b600080fd5b3480156200022957600080fd5b506200023462000718565b60405162000243919062001cdf565b60405180910390f35b3480156200025957600080fd5b50620002716200026b36600462001d4d565b620007b2565b604051901515815260200162000243565b3480156200028f57600080fd5b506035545b60405190815260200162000243565b348015620002b057600080fd5b50620002c8620002c236600462001d7c565b620007cc565b005b348015620002d757600080fd5b50620002c8620002e936600462001da3565b606a55565b348015620002fb57600080fd5b50620002716200030d36600462001dbd565b620007f4565b3480156200032057600080fd5b50620002c86200033236600462001da3565b606955565b3480156200034457600080fd5b506040516012815260200162000243565b3480156200036257600080fd5b50620002716200037436600462001d4d565b6200081c565b3480156200038757600080fd5b50620002c86200039936600462001e16565b62000844565b348015620003ac57600080fd5b50606c546001600160a01b03165b6040516001600160a01b03909116815260200162000243565b348015620003e057600080fd5b5062000294620003f236600462001d7c565b6001600160a01b031660009081526033602052604090205490565b3480156200041a57600080fd5b5030620003ba565b3480156200042f57600080fd5b50620002c8620008c0565b3480156200044757600080fd5b506067546001600160a01b0316620003ba565b3480156200046757600080fd5b506065546001600160a01b0316620003ba565b3480156200048757600080fd5b50620002c86200099a565b3480156200049f57600080fd5b506200023462000a02565b348015620004b757600080fd5b50620002c8620004c936600462001da3565b606855565b348015620004db57600080fd5b50620002c8620004ed36600462001d7c565b606780546001600160a01b039092166001600160a01b031990921682179055600052606d602052565b3480156200052357600080fd5b50620002716200053536600462001d4d565b62000a13565b3480156200054857600080fd5b50620002716200055a36600462001d4d565b62000a94565b3480156200056d57600080fd5b50620002716200057f36600462001d7c565b606d6020526000908152604090205460ff1681565b348015620005a157600080fd5b50620002c8620005b336600462001d7c565b606780546001600160a01b039092166001600160a01b0319909216821790556000908152606d60205260409020805460ff19166001179055565b348015620005fa57600080fd5b50620002c86200060c36600462001f0b565b62000aa4565b3480156200061f57600080fd5b50606b5461010090046001600160a01b0316620003ba565b3480156200064457600080fd5b50620002c86200065636600462001da3565b62000b3c565b3480156200066957600080fd5b50620002946200067b36600462001f94565b62000c73565b3480156200068e57600080fd5b5060685462000294565b348015620006a557600080fd5b50620002c8620006b736600462001d7c565b606580546001600160a01b0319166001600160a01b0392909216919091179055565b348015620006e657600080fd5b50620002c8620006f836600462001d7c565b62000c9e565b3480156200070b57600080fd5b50606b5460ff1662000271565b606060368054620007299062001fd2565b80601f0160208091040260200160405190810160405280929190818152602001828054620007579062001fd2565b8015620007a85780601f106200077c57610100808354040283529160200191620007a8565b820191906000526020600020905b8154815290600101906020018083116200078a57829003601f168201915b5050505050905090565b600033620007c281858562000cfb565b5060019392505050565b606b80546001600160a01b0390921661010002610100600160a81b0319909216919091179055565b6000336200080485828562000e23565b6200081185858562000ea4565b506001949350505050565b600033620007c281858562000832838362000c73565b6200083e919062002024565b62000cfb565b606b5460405163534c6bcb60e01b815261ffff80861660048301528085166024830152831660448201526101009091046001600160a01b03169063534c6bcb90606401600060405180830381600087803b158015620008a257600080fd5b505af1158015620008b7573d6000803e3d6000fd5b50505050505050565b6000620008ce600162001024565b90508015620008e7576000805461ff0019166101001790555b620009506040518060400160405280600a8152602001694d65746153746f636b7360b01b815250604051806040016040528060038152602001621354d560ea1b81525069d3c21bcecceda1000000732d99abd9008dc933ff5c0cd271b88309593ab92162000aa4565b801562000997576000805461ff0019169055604051600181527f7f26b83ff96e1f2b6a682f133852f6798a09c465da95921460cefb38474024989060200160405180910390a15b50565b606b5460ff1615620009f35760405162461bcd60e51b815260206004820152601860248201527f54726164696e6720616c726561647920656e61626c656421000000000000000060448201526064015b60405180910390fd5b606b805460ff19166001179055565b606060378054620007299062001fd2565b6000338162000a23828662000c73565b90508381101562000a855760405162461bcd60e51b815260206004820152602560248201527f45524332303a2064656372656173656420616c6c6f77616e63652062656c6f77604482015264207a65726f60d81b6064820152608401620009ea565b62000811828686840362000cfb565b600033620007c281858562000ea4565b600062000ab2600162001024565b9050801562000acb576000805461ff0019166101001790555b62000ad78585620010b9565b62000ae282620010f3565b62000aee3384620011cb565b801562000b35576000805461ff0019169055604051600181527f7f26b83ff96e1f2b6a682f133852f6798a09c465da95921460cefb38474024989060200160405180910390a15b5050505050565b600062000b4b6002836200203f565b606c5490915047906001600160a01b031663f7a7657630306040516001600160e01b031960e085901b1681526001600160a01b0392831660048201529116602482015260448101859052606401600060405180830381600087803b15801562000bb357600080fd5b505af115801562000bc8573d6000803e3d6000fd5b505050506000814762000bdc919062002062565b606c549091506001600160a01b031663cf6c62ea306065546001600160a01b03166040516001600160e01b031960e085901b1681526001600160a01b039283166004820152911660248201526044810186905260648101849052608401600060405180830381600087803b15801562000c5457600080fd5b505af115801562000c69573d6000803e3d6000fd5b5050505050505050565b6001600160a01b03918216600090815260346020908152604080832093909416825291909152205490565b606c5460405163f72f863b60e01b81526001600160a01b0383811660048301529091169063f72f863b90602401600060405180830381600087803b15801562000ce657600080fd5b505af115801562000b35573d6000803e3d6000fd5b6001600160a01b03831662000d5f5760405162461bcd60e51b8152602060048201526024808201527f45524332303a20617070726f76652066726f6d20746865207a65726f206164646044820152637265737360e01b6064820152608401620009ea565b6001600160a01b03821662000dc25760405162461bcd60e51b815260206004820152602260248201527f45524332303a20617070726f766520746f20746865207a65726f206164647265604482015261737360f01b6064820152608401620009ea565b6001600160a01b0383811660008181526034602090815260408083209487168084529482529182902085905590518481527f8c5be1e5ebec7d5bd14f71427d1e84f3dd0314c0f7b2291e5b200ac8c7c3b925910160405180910390a3505050565b600062000e31848462000c73565b9050600019811462000e9e578181101562000e8f5760405162461bcd60e51b815260206004820152601d60248201527f45524332303a20696e73756666696369656e7420616c6c6f77616e63650000006044820152606401620009ea565b62000e9e848484840362000cfb565b50505050565b62000eb1838383620012b0565b606c60009054906101000a90046001600160a01b03166001600160a01b031663cc9968996040518163ffffffff1660e01b8152600401602060405180830381865afa15801562000f05573d6000803e3d6000fd5b505050506040513d601f19601f8201168201806040525081019062000f2b91906200207c565b1562000f435762000f3e83838362000ea4565b505050565b62000f4f838362001523565b156200101757600062000f6230620003f2565b606c549091506001600160a01b0316632c4a73613061271062000f8785600c620020a0565b62000f9391906200203f565b6040516001600160e01b031960e085901b1681526001600160a01b0390921660048301526024820152604401600060405180830381600087803b15801562000fda57600080fd5b505af115801562000fef573d6000803e3d6000fd5b505050506200101561271082607b620010099190620020a0565b6200065691906200203f565b505b62000f3e8383836200171e565b60008054610100900460ff161562001070578160ff166001148015620010495750303b155b620010685760405162461bcd60e51b8152600401620009ea90620020c2565b506000919050565b60005460ff8084169116106200109a5760405162461bcd60e51b8152600401620009ea90620020c2565b506000805460ff191660ff92909216919091179055600190565b919050565b600054610100900460ff16620010e35760405162461bcd60e51b8152600401620009ea9062002110565b620010ef82826200190d565b5050565b6000196069819055606a55683635c9adc5dea00000606855606580546001600160a01b031990811633179091556066805490911661dead17905560405181906200113d9062001c1d565b6001600160a01b039091168152602001604051809103906000f0801580156200116a573d6000803e3d6000fd5b50606c80546001600160a01b0319166001600160a01b03929092169190911790556200119562001962565b62000997604051620011a79062001c2b565b604051809103906000f080158015620011c4573d6000803e3d6000fd5b50620007cc565b6001600160a01b038216620012235760405162461bcd60e51b815260206004820152601f60248201527f45524332303a206d696e7420746f20746865207a65726f2061646472657373006044820152606401620009ea565b806035600082825462001237919062002024565b90915550506001600160a01b038216600090815260336020526040812080548392906200126690849062002024565b90915550506040518181526001600160a01b038316906000907fddf252ad1be2c89b69c2b068fc378daa952ba7f163c4a11628f55a4df523b3ef9060200160405180910390a35050565b6001600160a01b0383166200131e5760405162461bcd60e51b815260206004820152602d60248201527f45524332303a207472616e736665722066726f6d20746865205a45524f5f414460448201526c4452455353206164647265737360981b6064820152608401620009ea565b6001600160a01b0382166200138a5760405162461bcd60e51b815260206004820152602b60248201527f45524332303a207472616e7366657220746f20746865205a45524f5f4144445260448201526a455353206164647265737360a81b6064820152608401620009ea565b60008111620013f65760405162461bcd60e51b815260206004820152603160248201527f5472616e7366657220616d6f756e74206d7573742062652067726561746572206044820152707468616e205a45524f5f4144445245535360781b6064820152608401620009ea565b6065546001600160a01b038481169116148015906200142357506065546001600160a01b03838116911614155b80156200143857506001600160a01b03821615155b80156200145057506001600160a01b03821661dead14155b8015620014d45750606c60009054906101000a90046001600160a01b03166001600160a01b031663cc9968996040518163ffffffff1660e01b8152600401602060405180830381865afa158015620014ac573d6000803e3d6000fd5b505050506040513d601f19601f82011682018060405250810190620014d291906200207c565b155b1562000f3e57606b5460ff1662000f3e5760405162461bcd60e51b815260206004820152601260248201527154726164696e67206e6f742061637469766560701b6044820152606401620009ea565b6000806200153130620003f2565b90506200153d60685490565b8110158015620015c45750606c60009054906101000a90046001600160a01b03166001600160a01b031663cc9968996040518163ffffffff1660e01b8152600401602060405180830381865afa1580156200159c573d6000803e3d6000fd5b505050506040513d601f19601f82011682018060405250810190620015c291906200207c565b155b8015620015df57506067546001600160a01b03858116911614155b8015620016025750600062001600620003f26067546001600160a01b031690565b115b80156200168c5750606b5461010090046001600160a01b03166040516314d0ab2d60e21b81526001600160a01b0385811660048301529190911690635342acb490602401602060405180830381865afa15801562001664573d6000803e3d6000fd5b505050506040513d601f19601f820116820180604052508101906200168a91906200207c565b155b8015620017165750606b5461010090046001600160a01b03166040516314d0ab2d60e21b81526001600160a01b0386811660048301529190911690635342acb490602401602060405180830381865afa158015620016ee573d6000803e3d6000fd5b505050506040513d601f19601f820116820180604052508101906200171491906200207c565b155b949350505050565b80600060016200173c606b546001600160a01b036101009091041690565b6040516314d0ab2d60e21b81526001600160a01b0388811660048301529190911690635342acb490602401602060405180830381865afa15801562001785573d6000803e3d6000fd5b505050506040513d601f19601f82011682018060405250810190620017ab91906200207c565b80620018325750606b5461010090046001600160a01b03166040516314d0ab2d60e21b81526001600160a01b0387811660048301529190911690635342acb490602401602060405180830381865afa1580156200180c573d6000803e3d6000fd5b505050506040513d601f19601f820116820180604052508101906200183291906200207c565b156200183c575060005b8015620018f857606b5461010090046001600160a01b0316606754604051633dcaefb160e21b81526001600160a01b039182166004820152888216602482015287821660448201526064810187905291169063f72bbec490608401602060405180830381865afa158015620018b5573d6000803e3d6000fd5b505050506040513d601f19601f82011682018060405250810190620018db91906200215b565b9150620018e9828562002062565b9250620018f886308462001a45565b6200190586868562001a45565b505050505050565b600054610100900460ff16620019375760405162461bcd60e51b8152600401620009ea9062002110565b81516200194c90603690602085019062001c39565b50805162000f3e90603790602084019062001c39565b620019ea33606c60009054906101000a90046001600160a01b03166001600160a01b031663b9c552416040518163ffffffff1660e01b8152600401602060405180830381865afa158015620019bb573d6000803e3d6000fd5b505050506040513d601f19601f82011682018060405250810190620019e1919062002175565b60001962000cfb565b62001a4330606c60009054906101000a90046001600160a01b03166001600160a01b031663b9c552416040518163ffffffff1660e01b8152600401602060405180830381865afa158015620019bb573d6000803e3d6000fd5b565b6001600160a01b03831662001aab5760405162461bcd60e51b815260206004820152602560248201527f45524332303a207472616e736665722066726f6d20746865207a65726f206164604482015264647265737360d81b6064820152608401620009ea565b6001600160a01b03821662001b0f5760405162461bcd60e51b815260206004820152602360248201527f45524332303a207472616e7366657220746f20746865207a65726f206164647260448201526265737360e81b6064820152608401620009ea565b6001600160a01b0383166000908152603360205260409020548181101562001b895760405162461bcd60e51b815260206004820152602660248201527f45524332303a207472616e7366657220616d6f756e7420657863656564732062604482015265616c616e636560d01b6064820152608401620009ea565b6001600160a01b0380851660009081526033602052604080822085850390559185168152908120805484929062001bc290849062002024565b92505081905550826001600160a01b0316846001600160a01b03167fddf252ad1be2c89b69c2b068fc378daa952ba7f163c4a11628f55a4df523b3ef8460405162001c0f91815260200190565b60405180910390a362000e9e565b61092a806200219683390190565b61044a8062002ac083390190565b82805462001c479062001fd2565b90600052602060002090601f01602090048101928262001c6b576000855562001cb6565b82601f1062001c8657805160ff191683800117855562001cb6565b8280016001018555821562001cb6579182015b8281111562001cb657825182559160200191906001019062001c99565b5062001cc492915062001cc8565b5090565b5b8082111562001cc4576000815560010162001cc9565b600060208083528351808285015260005b8181101562001d0e5785810183015185820160400152820162001cf0565b8181111562001d21576000604083870101525b50601f01601f1916929092016040019392505050565b6001600160a01b03811681146200099757600080fd5b6000806040838503121562001d6157600080fd5b823562001d6e8162001d37565b946020939093013593505050565b60006020828403121562001d8f57600080fd5b813562001d9c8162001d37565b9392505050565b60006020828403121562001db657600080fd5b5035919050565b60008060006060848603121562001dd357600080fd5b833562001de08162001d37565b9250602084013562001df28162001d37565b929592945050506040919091013590565b803561ffff81168114620010b457600080fd5b60008060006060848603121562001e2c57600080fd5b62001e378462001e03565b925062001e476020850162001e03565b915062001e576040850162001e03565b90509250925092565b634e487b7160e01b600052604160045260246000fd5b600082601f83011262001e8857600080fd5b813567ffffffffffffffff8082111562001ea65762001ea662001e60565b604051601f8301601f19908116603f0116810190828211818310171562001ed15762001ed162001e60565b8160405283815286602085880101111562001eeb57600080fd5b836020870160208301376000602085830101528094505050505092915050565b6000806000806080858703121562001f2257600080fd5b843567ffffffffffffffff8082111562001f3b57600080fd5b62001f498883890162001e76565b9550602087013591508082111562001f6057600080fd5b5062001f6f8782880162001e76565b93505060408501359150606085013562001f898162001d37565b939692955090935050565b6000806040838503121562001fa857600080fd5b823562001fb58162001d37565b9150602083013562001fc78162001d37565b809150509250929050565b600181811c9082168062001fe757607f821691505b6020821081036200200857634e487b7160e01b600052602260045260246000fd5b50919050565b634e487b7160e01b600052601160045260246000fd5b600082198211156200203a576200203a6200200e565b500190565b6000826200205d57634e487b7160e01b600052601260045260246000fd5b500490565b6000828210156200207757620020776200200e565b500390565b6000602082840312156200208f57600080fd5b8151801515811462001d9c57600080fd5b6000816000190483118215151615620020bd57620020bd6200200e565b500290565b6020808252602e908201527f496e697469616c697a61626c653a20636f6e747261637420697320616c72656160408201526d191e481a5b9a5d1a585b1a5e995960921b606082015260800190565b6020808252602b908201527f496e697469616c697a61626c653a20636f6e7472616374206973206e6f74206960408201526a6e697469616c697a696e6760a81b606082015260800190565b6000602082840312156200216e57600080fd5b5051919050565b6000602082840312156200218857600080fd5b815162001d9c8162001d3756fe608060405234801561001057600080fd5b5060405161092a38038061092a83398101604081905261002f91610061565b600080546001600160a01b039092166001600160a01b031992831617905561a869600255600180549091169055610091565b60006020828403121561007357600080fd5b81516001600160a01b038116811461008a57600080fd5b9392505050565b61088a806100a06000396000f3fe608060405234801561001057600080fd5b50600436106100885760003560e01c8063cc9968991161005b578063cc996899146100e3578063cf6c62ea14610100578063f72f863b14610113578063f7a765761461014357600080fd5b8063197e8da91461008d5780632c4a7361146100bd57806385954d8c146100d2578063b9c55241146100d2575b600080fd5b6100a061009b366004610658565b610156565b6040516001600160a01b0390911681526020015b60405180910390f35b6100d06100cb36600461068d565b610212565b005b6000546001600160a01b03166100a0565b600154600160a01b900460ff1660405190151581526020016100b4565b6100d061010e3660046106b7565b6103bc565b6100d06101213660046106f9565b600080546001600160a01b0319166001600160a01b0392909216919091179055565b6100d061015136600461071b565b6104ef565b600073ae13d989dac2f0debff460ac112a837c89baa7cd6061839003610191575073ae13d989dac2f0debff460ac112a837c89baa7cd6101f6565b826061036101b4575073ae13d989dac2f0debff460ac112a837c89baa7cd6101f6565b60405162461bcd60e51b8152602060048201526013602482015272756e737570706f72746564206e6574776f726b60681b604482015260640160405180910390fd5b5073ae13d989dac2f0debff460ac112a837c89baa7cd92915050565b6040805160038082526080820190925260009160208201606080368337019050509050308160008151811061024957610249610757565b60200260200101906001600160a01b031690816001600160a01b031681525050610274600254610156565b8160018151811061028757610287610757565b6001600160a01b0392831660209182029290920101526001548251911690829060029081106102b8576102b8610757565b6001600160a01b03928316602091820292909201015260015460005460405163095ea7b360e01b81529083166004820152600019602482015291169063095ea7b3906044016020604051808303816000875af115801561031c573d6000803e3d6000fd5b505050506040513d601f19601f82011682018060405250810190610340919061076d565b50600080546001600160a01b031690635c11d7959084908487610365426103e861078f565b6040518663ffffffff1660e01b81526004016103859594939291906107b5565b600060405180830381600087803b15801561039f57600080fd5b505af11580156103b3573d6000803e3d6000fd5b50505050505050565b60005460405163095ea7b360e01b81526001600160a01b03918216600482015260001960248201529085169063095ea7b3906044016020604051808303816000875af1158015610410573d6000803e3d6000fd5b505050506040513d601f19601f82011682018060405250810190610434919061076d565b50600080546001600160a01b03169063f305d71990839030908690808961045d4261271061078f565b60405160e089901b6001600160e01b03191681526001600160a01b039687166004820152602481019590955260448501939093526064840191909152909216608482015260a481019190915260c40160606040518083038185885af11580156104ca573d6000803e3d6000fd5b50505050506040513d601f19601f820116820180604052508101906103b39190610826565b604080516002808252606082018352600092602083019080368337019050509050838160008151811061052457610524610757565b60200260200101906001600160a01b031690816001600160a01b03168152505061054f600254610156565b8160018151811061056257610562610757565b6001600160a01b03928316602091820292909201015260005460405163095ea7b360e01b8152908216600482015260001960248201529085169063095ea7b3906044016020604051808303816000875af11580156105c4573d6000803e3d6000fd5b505050506040513d601f19601f820116820180604052508101906105e8919061076d565b506000805460405163791ac94760e01b81526001600160a01b039091169163791ac947916106209186918690899042906004016107b5565b600060405180830381600087803b15801561063a57600080fd5b505af115801561064e573d6000803e3d6000fd5b5050505050505050565b60006020828403121561066a57600080fd5b5035919050565b80356001600160a01b038116811461068857600080fd5b919050565b600080604083850312156106a057600080fd5b6106a983610671565b946020939093013593505050565b600080600080608085870312156106cd57600080fd5b6106d685610671565b93506106e460208601610671565b93969395505050506040820135916060013590565b60006020828403121561070b57600080fd5b61071482610671565b9392505050565b60008060006060848603121561073057600080fd5b61073984610671565b925061074760208501610671565b9150604084013590509250925092565b634e487b7160e01b600052603260045260246000fd5b60006020828403121561077f57600080fd5b8151801515811461071457600080fd5b600082198211156107b057634e487b7160e01b600052601160045260246000fd5b500190565b600060a082018783526020878185015260a0604085015281875180845260c086019150828901935060005b818110156108055784516001600160a01b0316835293830193918301916001016107e0565b50506001600160a01b03969096166060850152505050608001529392505050565b60008060006060848603121561083b57600080fd5b835192506020840151915060408401519050925092509256fea26469706673582212201b6f57f80469ab13812786531850129ea4d8417075ff696b6b08d27d9a4b78f564736f6c634300080e0033608060405234801561001057600080fd5b50612710600155604080516060810182526000808252602082018190529101819052805465ffffffffffff191690556103fc8061004e6000396000f3fe608060405234801561001057600080fd5b506004361061004c5760003560e01c80635342acb414610051578063534c6bcb146100925780636612e66f146100e1578063f72bbec41461011a575b600080fd5b61007d61005f366004610259565b6001600160a01b031660009081526002602052604090205460ff1690565b60405190151581526020015b60405180910390f35b6100df6100a036600461028d565b6000805461ffff94851663ffffffff199091161762010000938516939093029290921765ffff0000000019166401000000009190931602919091179055565b005b6100df6100ef3660046102d0565b6001600160a01b03919091166000908152600260205260409020805460ff1916911515919091179055565b61012d61012836600461030c565b61013b565b604051908152602001610089565b60008080610161866001600160a01b031660009081526002602052604090205460ff1690565b8061018457506001600160a01b03851660009081526002602052604090205460ff165b1561019457600092505050610235565b866001600160a01b0316866001600160a01b0316036101c5576000546101be9061ffff168361036d565b9150610211565b866001600160a01b0316856001600160a01b0316036101f5576000546101be9062010000900461ffff168361036d565b60005461020e90640100000000900461ffff168361036d565b91505b8115610231576001546102248386610385565b61022e91906103a4565b90505b9150505b949350505050565b80356001600160a01b038116811461025457600080fd5b919050565b60006020828403121561026b57600080fd5b6102748261023d565b9392505050565b803561ffff8116811461025457600080fd5b6000806000606084860312156102a257600080fd5b6102ab8461027b565b92506102b96020850161027b565b91506102c76040850161027b565b90509250925092565b600080604083850312156102e357600080fd5b6102ec8361023d565b91506020830135801515811461030157600080fd5b809150509250929050565b6000806000806080858703121561032257600080fd5b61032b8561023d565b93506103396020860161023d565b92506103476040860161023d565b9396929550929360600135925050565b634e487b7160e01b600052601160045260246000fd5b6000821982111561038057610380610357565b500190565b600081600019048311821515161561039f5761039f610357565b500290565b6000826103c157634e487b7160e01b600052601260045260246000fd5b50049056fea264697066735822122068a9536c811917b1e1c2eaad930c11384296e7f384c47217afdebc27ae23ba6f64736f6c634300080e0033a2646970667358221220f190fb665777e6cbaa086256b74b7ce0ff68f6ad8c53d9718ba0f54b4d7658f964736f6c634300080e0033",
    "sourcePath": "/home/nkt/Desktop/metaStoksContracts/contracts/MetaStocks.sol",
    "compiler": {
        "name": "solc",
        "version": "0.8.14+commit.80d49f37"
    },
    "functionHashes": {
        "allowance(address,address)": "dd62ed3e",
        "approve(address,uint256)": "095ea7b3",
        "autoInjectLiquidity(uint256)": "d203abb6",
        "automatedMarketMakerPairs(address)": "b62496f5",
        "balanceOf(address)": "70a08231",
        "decimals()": "313ce567",
        "decreaseAllowance(address,uint256)": "a457c2d7",
        "enableTrading()": "8a8c523c",
        "getFeesManager()": "c762819b",
        "getLPPair()": "86f3f3cb",
        "getMidasMultinetworkRouterManager()": "57e26696",
        "getOwner()": "893d20e8",
        "getSwapThreshold()": "f005f2ca",
        "getTradingEnabled()": "fa83cb58",
        "increaseAllowance(address,uint256)": "39509351",
        "initialize()": "8129fc1c",
        "initialize(string,string,uint256,address)": "bd3a13f6",
        "name()": "06fdde03",
        "self()": "7104ddb2",
        "setDexRouter(address)": "f72f863b",
        "setFees(uint16,uint16,uint16)": "534c6bcb",
        "setFeesManager(address)": "1c89382a",
        "setMaxTransactionAmount(uint256)": "1e293c10",
        "setMaxWalletAmount(uint256)": "27a14fc2",
        "setPairAddress(address)": "a22d4832",
        "setSwapThreshold(uint256)": "9d0014b1",
        "setlpPair(address)": "b9af8567",
        "symbol()": "95d89b41",
        "totalSupply()": "18160ddd",
        "transfer(address,uint256)": "a9059cbb",
        "transferFrom(address,address,uint256)": "23b872dd",
        "transferOwnership(address)": "f2fde38b"
    },
    "gasEstimates": {
        "creation": {
            "codeDepositCost": "2419000",
            "executionCost": "2598",
            "totalCost": "2421598"
        },
        "external": {
            "allowance(address,address)": "infinite",
            "approve(address,uint256)": "24664",
            "autoInjectLiquidity(uint256)": "infinite",
            "automatedMarketMakerPairs(address)": "2614",
            "balanceOf(address)": "2643",
            "decimals()": "289",
            "decreaseAllowance(address,uint256)": "26989",
            "enableTrading()": "26540",
            "getFeesManager()": "2409",
            "getLPPair()": "2420",
            "getMidasMultinetworkRouterManager()": "2410",
            "getOwner()": "2442",
            "getSwapThreshold()": "2336",
            "getTradingEnabled()": "2414",
            "increaseAllowance(address,uint256)": "27018",
            "initialize()": "infinite",
            "initialize(string,string,uint256,address)": "infinite",
            "name()": "infinite",
            "self()": "257",
            "setDexRouter(address)": "infinite",
            "setFees(uint16,uint16,uint16)": "infinite",
            "setFeesManager(address)": "24689",
            "setMaxTransactionAmount(uint256)": "22358",
            "setMaxWalletAmount(uint256)": "22402",
            "setPairAddress(address)": "24677",
            "setSwapThreshold(uint256)": "22402",
            "setlpPair(address)": "48951",
            "symbol()": "infinite",
            "totalSupply()": "2372",
            "transfer(address,uint256)": "infinite",
            "transferFrom(address,address,uint256)": "infinite",
            "transferOwnership(address)": "24619"
        }
    }
}