{
    "contractName": "MetaStocks",
    "abi": [
        {
            "anonymous": false,
            "inputs": [
                {
                    "indexed": true,
                    "internalType": "address",
                    "name": "owner",
                    "type": "address"
                },
                {
                    "indexed": true,
                    "internalType": "address",
                    "name": "spender",
                    "type": "address"
                },
                {
                    "indexed": false,
                    "internalType": "uint256",
                    "name": "value",
                    "type": "uint256"
                }
            ],
            "name": "Approval",
            "type": "event"
        },
        {
            "anonymous": false,
            "inputs": [
                {
                    "indexed": true,
                    "internalType": "address",
                    "name": "sender",
                    "type": "address"
                },
                {
                    "indexed": false,
                    "internalType": "uint256",
                    "name": "amount",
                    "type": "uint256"
                }
            ],
            "name": "Burn",
            "type": "event"
        },
        {
            "anonymous": false,
            "inputs": [
                {
                    "indexed": false,
                    "internalType": "uint8",
                    "name": "version",
                    "type": "uint8"
                }
            ],
            "name": "Initialized",
            "type": "event"
        },
        {
            "anonymous": false,
            "inputs": [
                {
                    "indexed": true,
                    "internalType": "address",
                    "name": "previousOwner",
                    "type": "address"
                },
                {
                    "indexed": true,
                    "internalType": "address",
                    "name": "newOwner",
                    "type": "address"
                }
            ],
            "name": "OwnershipTransferred",
            "type": "event"
        },
        {
            "anonymous": false,
            "inputs": [
                {
                    "indexed": true,
                    "internalType": "address",
                    "name": "from",
                    "type": "address"
                },
                {
                    "indexed": true,
                    "internalType": "address",
                    "name": "to",
                    "type": "address"
                },
                {
                    "indexed": false,
                    "internalType": "uint256",
                    "name": "value",
                    "type": "uint256"
                }
            ],
            "name": "Transfer",
            "type": "event"
        },
        {
            "inputs": [
                {
                    "internalType": "address",
                    "name": "owner",
                    "type": "address"
                },
                {
                    "internalType": "address",
                    "name": "spender",
                    "type": "address"
                }
            ],
            "name": "allowance",
            "outputs": [
                {
                    "internalType": "uint256",
                    "name": "",
                    "type": "uint256"
                }
            ],
            "stateMutability": "view",
            "type": "function"
        },
        {
            "inputs": [
                {
                    "internalType": "address",
                    "name": "spender",
                    "type": "address"
                },
                {
                    "internalType": "uint256",
                    "name": "amount",
                    "type": "uint256"
                }
            ],
            "name": "approve",
            "outputs": [
                {
                    "internalType": "bool",
                    "name": "",
                    "type": "bool"
                }
            ],
            "stateMutability": "nonpayable",
            "type": "function"
        },
        {
            "inputs": [
                {
                    "internalType": "uint256",
                    "name": "tokenAmount",
                    "type": "uint256"
                }
            ],
            "name": "autoInjectLiquidity",
            "outputs": [],
            "stateMutability": "nonpayable",
            "type": "function"
        },
        {
            "inputs": [
                {
                    "internalType": "address",
                    "name": "",
                    "type": "address"
                }
            ],
            "name": "automatedMarketMakerPairs",
            "outputs": [
                {
                    "internalType": "bool",
                    "name": "",
                    "type": "bool"
                }
            ],
            "stateMutability": "view",
            "type": "function"
        },
        {
            "inputs": [
                {
                    "internalType": "address",
                    "name": "account",
                    "type": "address"
                }
            ],
            "name": "balanceOf",
            "outputs": [
                {
                    "internalType": "uint256",
                    "name": "",
                    "type": "uint256"
                }
            ],
            "stateMutability": "view",
            "type": "function"
        },
        {
            "inputs": [],
            "name": "decimals",
            "outputs": [
                {
                    "internalType": "uint8",
                    "name": "",
                    "type": "uint8"
                }
            ],
            "stateMutability": "view",
            "type": "function"
        },
        {
            "inputs": [
                {
                    "internalType": "address",
                    "name": "spender",
                    "type": "address"
                },
                {
                    "internalType": "uint256",
                    "name": "subtractedValue",
                    "type": "uint256"
                }
            ],
            "name": "decreaseAllowance",
            "outputs": [
                {
                    "internalType": "bool",
                    "name": "",
                    "type": "bool"
                }
            ],
            "stateMutability": "nonpayable",
            "type": "function"
        },
        {
            "inputs": [],
            "name": "enableTrading",
            "outputs": [],
            "stateMutability": "nonpayable",
            "type": "function"
        },
        {
            "inputs": [],
            "name": "getDexRouterManager",
            "outputs": [
                {
                    "internalType": "contract DexRouterManager",
                    "name": "",
                    "type": "address"
                }
            ],
            "stateMutability": "view",
            "type": "function"
        },
        {
            "inputs": [],
            "name": "getFeesManager",
            "outputs": [
                {
                    "internalType": "contract FeesManager",
                    "name": "",
                    "type": "address"
                }
            ],
            "stateMutability": "view",
            "type": "function"
        },
        {
            "inputs": [],
            "name": "getLPPair",
            "outputs": [
                {
                    "internalType": "address",
                    "name": "",
                    "type": "address"
                }
            ],
            "stateMutability": "view",
            "type": "function"
        },
        {
            "inputs": [],
            "name": "getOwner",
            "outputs": [
                {
                    "internalType": "address",
                    "name": "",
                    "type": "address"
                }
            ],
            "stateMutability": "view",
            "type": "function"
        },
        {
            "inputs": [],
            "name": "getSwapThreshold",
            "outputs": [
                {
                    "internalType": "uint256",
                    "name": "",
                    "type": "uint256"
                }
            ],
            "stateMutability": "view",
            "type": "function"
        },
        {
            "inputs": [],
            "name": "getTradingEnabled",
            "outputs": [
                {
                    "internalType": "bool",
                    "name": "",
                    "type": "bool"
                }
            ],
            "stateMutability": "view",
            "type": "function"
        },
        {
            "inputs": [
                {
                    "internalType": "address",
                    "name": "spender",
                    "type": "address"
                },
                {
                    "internalType": "uint256",
                    "name": "addedValue",
                    "type": "uint256"
                }
            ],
            "name": "increaseAllowance",
            "outputs": [
                {
                    "internalType": "bool",
                    "name": "",
                    "type": "bool"
                }
            ],
            "stateMutability": "nonpayable",
            "type": "function"
        },
        {
            "inputs": [],
            "name": "initialize",
            "outputs": [],
            "stateMutability": "nonpayable",
            "type": "function"
        },
        {
            "inputs": [],
            "name": "name",
            "outputs": [
                {
                    "internalType": "string",
                    "name": "",
                    "type": "string"
                }
            ],
            "stateMutability": "view",
            "type": "function"
        },
        {
            "inputs": [],
            "name": "self",
            "outputs": [
                {
                    "internalType": "address",
                    "name": "",
                    "type": "address"
                }
            ],
            "stateMutability": "view",
            "type": "function"
        },
        {
            "inputs": [],
            "name": "setDeadAddress",
            "outputs": [],
            "stateMutability": "nonpayable",
            "type": "function"
        },
        {
            "inputs": [
                {
                    "internalType": "uint16",
                    "name": "buyFee",
                    "type": "uint16"
                },
                {
                    "internalType": "uint16",
                    "name": "sellFee",
                    "type": "uint16"
                },
                {
                    "internalType": "uint16",
                    "name": "transferFee",
                    "type": "uint16"
                }
            ],
            "name": "setFees",
            "outputs": [],
            "stateMutability": "nonpayable",
            "type": "function"
        },
        {
            "inputs": [
                {
                    "internalType": "contract FeesManager",
                    "name": "_feesManager",
                    "type": "address"
                }
            ],
            "name": "setFeesManager",
            "outputs": [],
            "stateMutability": "nonpayable",
            "type": "function"
        },
        {
            "inputs": [
                {
                    "internalType": "uint256",
                    "name": "_maxTransactionAmount",
                    "type": "uint256"
                }
            ],
            "name": "setMaxTransactionAmount",
            "outputs": [],
            "stateMutability": "nonpayable",
            "type": "function"
        },
        {
            "inputs": [
                {
                    "internalType": "uint256",
                    "name": "_maxWalletAmount",
                    "type": "uint256"
                }
            ],
            "name": "setMaxWalletAmount",
            "outputs": [],
            "stateMutability": "nonpayable",
            "type": "function"
        },
        {
            "inputs": [
                {
                    "internalType": "uint256",
                    "name": "_swapThreshold",
                    "type": "uint256"
                }
            ],
            "name": "setSwapThreshold",
            "outputs": [],
            "stateMutability": "nonpayable",
            "type": "function"
        },
        {
            "inputs": [],
            "name": "symbol",
            "outputs": [
                {
                    "internalType": "string",
                    "name": "",
                    "type": "string"
                }
            ],
            "stateMutability": "view",
            "type": "function"
        },
        {
            "inputs": [],
            "name": "totalSupply",
            "outputs": [
                {
                    "internalType": "uint256",
                    "name": "",
                    "type": "uint256"
                }
            ],
            "stateMutability": "view",
            "type": "function"
        },
        {
            "inputs": [
                {
                    "internalType": "address",
                    "name": "to",
                    "type": "address"
                },
                {
                    "internalType": "uint256",
                    "name": "amount",
                    "type": "uint256"
                }
            ],
            "name": "transfer",
            "outputs": [
                {
                    "internalType": "bool",
                    "name": "",
                    "type": "bool"
                }
            ],
            "stateMutability": "nonpayable",
            "type": "function"
        },
        {
            "inputs": [
                {
                    "internalType": "address",
                    "name": "from",
                    "type": "address"
                },
                {
                    "internalType": "address",
                    "name": "to",
                    "type": "address"
                },
                {
                    "internalType": "uint256",
                    "name": "amount",
                    "type": "uint256"
                }
            ],
            "name": "transferFrom",
            "outputs": [
                {
                    "internalType": "bool",
                    "name": "",
                    "type": "bool"
                }
            ],
            "stateMutability": "nonpayable",
            "type": "function"
        },
        {
            "inputs": [
                {
                    "internalType": "address",
                    "name": "account",
                    "type": "address"
                }
            ],
            "name": "transferOwnership",
            "outputs": [],
            "stateMutability": "nonpayable",
            "type": "function"
        },
        {
            "stateMutability": "payable",
            "type": "receive"
        }
    ],
    "bytecode": "608060405234801561001057600080fd5b50612beb806100206000396000f3fe608060405260043610620001eb5760003560e01c806381fd3b00116200010b578063a9059cbb11620000a1578063dd62ed3e116200006c578063dd62ed3e146200058a578063f005f2ca14620005af578063f2fde38b14620005c6578063fa83cb5814620005eb57600080fd5b8063a9059cbb14620004e7578063b62496f5146200050c578063c762819b1462000540578063d203abb6146200056557600080fd5b80638a8c523c11620000e25780638a8c523c146200046e57806395d89b4114620004865780639d0014b1146200049e578063a457c2d714620004c257600080fd5b806381fd3b00146200041657806386f3f3cb146200042e578063893d20e8146200044e57600080fd5b8063313ce5671162000181578063534c6bcb1162000158578063534c6bcb146200038a57806370a0823114620003af5780637104ddb214620003e95780638129fc1c14620003fe57600080fd5b8063313ce56714620003135780633950935114620003315780633da77333146200035657600080fd5b80631c89382a11620001c25780631c89382a146200027f5780631e293c1014620002a657806323b872dd14620002ca57806327a14fc214620002ef57600080fd5b806306fdde0314620001f8578063095ea7b3146200022857806318160ddd146200025e57600080fd5b36620001f357005b600080fd5b3480156200020557600080fd5b506200021062000605565b6040516200021f919062001d5a565b60405180910390f35b3480156200023557600080fd5b506200024d6200024736600462001dc8565b6200069f565b60405190151581526020016200021f565b3480156200026b57600080fd5b506035545b6040519081526020016200021f565b3480156200028c57600080fd5b50620002a46200029e36600462001df7565b620006b9565b005b348015620002b357600080fd5b50620002a4620002c536600462001e1e565b606a55565b348015620002d757600080fd5b506200024d620002e936600462001e38565b620006e1565b348015620002fc57600080fd5b50620002a46200030e36600462001e1e565b606955565b3480156200032057600080fd5b50604051601281526020016200021f565b3480156200033e57600080fd5b506200024d6200035036600462001dc8565b62000709565b3480156200036357600080fd5b50606c546001600160a01b03165b6040516001600160a01b0390911681526020016200021f565b3480156200039757600080fd5b50620002a4620003a936600462001e91565b62000731565b348015620003bc57600080fd5b5062000270620003ce36600462001df7565b6001600160a01b031660009081526033602052604090205490565b348015620003f657600080fd5b503062000371565b3480156200040b57600080fd5b50620002a4620007e3565b3480156200042357600080fd5b50620002a4620008a7565b3480156200043b57600080fd5b506067546001600160a01b031662000371565b3480156200045b57600080fd5b506065546001600160a01b031662000371565b3480156200047b57600080fd5b50620002a4620008ea565b3480156200049357600080fd5b50620002106200097b565b348015620004ab57600080fd5b50620002a4620004bd36600462001e1e565b606855565b348015620004cf57600080fd5b506200024d620004e136600462001dc8565b6200098c565b348015620004f457600080fd5b506200024d6200050636600462001dc8565b62000a0d565b3480156200051957600080fd5b506200024d6200052b36600462001df7565b606d6020526000908152604090205460ff1681565b3480156200054d57600080fd5b50606b5461010090046001600160a01b031662000371565b3480156200057257600080fd5b50620002a46200058436600462001e1e565b62000a1d565b3480156200059757600080fd5b5062000270620005a936600462001edb565b62000b71565b348015620005bc57600080fd5b5060685462000270565b348015620005d357600080fd5b50620002a4620005e536600462001df7565b62000b9c565b348015620005f857600080fd5b50606b5460ff166200024d565b606060368054620006169062001f19565b80601f0160208091040260200160405190810160405280929190818152602001828054620006449062001f19565b8015620006955780601f10620006695761010080835404028352916020019162000695565b820191906000526020600020905b8154815290600101906020018083116200067757829003601f168201915b5050505050905090565b600033620006af81858562000beb565b5060019392505050565b606b80546001600160a01b0390921661010002610100600160a81b0319909216919091179055565b600033620006f185828562000d13565b620006fe85858562000d94565b506001949350505050565b600033620006af8185856200071f838362000b71565b6200072b919062001f6b565b62000beb565b6065546001600160a01b03163314620007675760405162461bcd60e51b81526004016200075e9062001f86565b60405180910390fd5b606b5460405163534c6bcb60e01b815261ffff80861660048301528085166024830152831660448201526101009091046001600160a01b03169063534c6bcb90606401600060405180830381600087803b158015620007c557600080fd5b505af1158015620007da573d6000803e3d6000fd5b50505050505050565b6000620007f1600162000f19565b905080156200080a576000805461ff0019166101001790555b620008536040518060400160405280600a8152602001694d65746153746f636b7360b01b815250604051806040016040528060038152602001621354d560ea1b81525062000fae565b6200085d62000fe8565b8015620008a4576000805461ff0019169055604051600181527f7f26b83ff96e1f2b6a682f133852f6798a09c465da95921460cefb38474024989060200160405180910390a15b50565b6065546001600160a01b03163314620008d45760405162461bcd60e51b81526004016200075e9062001f86565b606680546001600160a01b03191661dead179055565b6065546001600160a01b03163314620009175760405162461bcd60e51b81526004016200075e9062001f86565b606b5460ff16156200096c5760405162461bcd60e51b815260206004820152601860248201527f54726164696e6720616c726561647920656e61626c656421000000000000000060448201526064016200075e565b606b805460ff19166001179055565b606060378054620006169062001f19565b600033816200099c828662000b71565b905083811015620009fe5760405162461bcd60e51b815260206004820152602560248201527f45524332303a2064656372656173656420616c6c6f77616e63652062656c6f77604482015264207a65726f60d81b60648201526084016200075e565b620006fe828686840362000beb565b600033620006af81858562000d94565b600062000a2c60028362001fbb565b90504762000a42606c546001600160a01b031690565b6001600160a01b031663f7a7657630306040516001600160e01b031960e085901b1681526001600160a01b0392831660048201529116602482015260448101859052606401600060405180830381600087803b15801562000aa257600080fd5b505af115801562000ab7573d6000803e3d6000fd5b505050506000814762000acb919062001fde565b905062000ae0606c546001600160a01b031690565b6001600160a01b031663cf6c62ea306065546001600160a01b03166040516001600160e01b031960e085901b1681526001600160a01b039283166004820152911660248201526044810186905260648101849052608401600060405180830381600087803b15801562000b5257600080fd5b505af115801562000b67573d6000803e3d6000fd5b5050505050505050565b6001600160a01b03918216600090815260346020908152604080832093909416825291909152205490565b6065546001600160a01b0316331462000bc95760405162461bcd60e51b81526004016200075e9062001f86565b606580546001600160a01b0319166001600160a01b0392909216919091179055565b6001600160a01b03831662000c4f5760405162461bcd60e51b8152602060048201526024808201527f45524332303a20617070726f76652066726f6d20746865207a65726f206164646044820152637265737360e01b60648201526084016200075e565b6001600160a01b03821662000cb25760405162461bcd60e51b815260206004820152602260248201527f45524332303a20617070726f766520746f20746865207a65726f206164647265604482015261737360f01b60648201526084016200075e565b6001600160a01b0383811660008181526034602090815260408083209487168084529482529182902085905590518481527f8c5be1e5ebec7d5bd14f71427d1e84f3dd0314c0f7b2291e5b200ac8c7c3b925910160405180910390a3505050565b600062000d21848462000b71565b9050600019811462000d8e578181101562000d7f5760405162461bcd60e51b815260206004820152601d60248201527f45524332303a20696e73756666696369656e7420616c6c6f77616e636500000060448201526064016200075e565b62000d8e848484840362000beb565b50505050565b62000da1838383620010c3565b606c546001600160a01b03166001600160a01b031663cc9968996040518163ffffffff1660e01b8152600401602060405180830381865afa15801562000deb573d6000803e3d6000fd5b505050506040513d601f19601f8201168201806040525081019062000e11919062001ff8565b1562000e295762000e2483838362000d94565b505050565b62000e3583836200132c565b1562000f0c57600062000e4830620003ce565b905062000e5d606c546001600160a01b031690565b6001600160a01b0316632c4a73613061271062000e7c85600c6200201c565b62000e88919062001fbb565b6040516001600160e01b031960e085901b1681526001600160a01b0390921660048301526024820152604401600060405180830381600087803b15801562000ecf57600080fd5b505af115801562000ee4573d6000803e3d6000fd5b5050505062000f0a61271082607b62000efe91906200201c565b62000584919062001fbb565b505b62000e248383836200151d565b60008054610100900460ff161562000f65578160ff16600114801562000f3e5750303b155b62000f5d5760405162461bcd60e51b81526004016200075e906200203e565b506000919050565b60005460ff80841691161062000f8f5760405162461bcd60e51b81526004016200075e906200203e565b506000805460ff191660ff92909216919091179055600190565b919050565b600054610100900460ff1662000fd85760405162461bcd60e51b81526004016200075e906200208c565b62000fe4828262001672565b5050565b62000ff2620016c7565b62000ffc620016dc565b6200101b739ac64cc6e4415144c455bd8e4837fea55603e5c362001712565b620010a030606c546001600160a01b031660405163197e8da960e01b8152606160048201526001600160a01b03919091169063197e8da990602401602060405180830381865afa15801562001074573d6000803e3d6000fd5b505050506040513d601f19601f820116820180604052508101906200109a9190620020d7565b62001797565b620010aa6200193f565b620010c1336a52b7d2dcc80cd2e4000000620019db565b565b6001600160a01b038316620011315760405162461bcd60e51b815260206004820152602d60248201527f45524332303a207472616e736665722066726f6d20746865205a45524f5f414460448201526c4452455353206164647265737360981b60648201526084016200075e565b6001600160a01b0382166200119d5760405162461bcd60e51b815260206004820152602b60248201527f45524332303a207472616e7366657220746f20746865205a45524f5f4144445260448201526a455353206164647265737360a81b60648201526084016200075e565b60008111620012095760405162461bcd60e51b815260206004820152603160248201527f5472616e7366657220616d6f756e74206d7573742062652067726561746572206044820152707468616e205a45524f5f4144445245535360781b60648201526084016200075e565b6065546001600160a01b038481169116148015906200123657506065546001600160a01b03838116911614155b80156200124b57506001600160a01b03821615155b80156200126357506001600160a01b03821661dead14155b8015620012dd5750606c546001600160a01b03166001600160a01b031663cc9968996040518163ffffffff1660e01b8152600401602060405180830381865afa158015620012b5573d6000803e3d6000fd5b505050506040513d601f19601f82011682018060405250810190620012db919062001ff8565b155b1562000e2457606b5460ff1662000e245760405162461bcd60e51b815260206004820152601260248201527154726164696e67206e6f742061637469766560701b60448201526064016200075e565b6000806200133a30620003ce565b90506200134660685490565b8110158015620013c35750606c546001600160a01b03166001600160a01b031663cc9968996040518163ffffffff1660e01b8152600401602060405180830381865afa1580156200139b573d6000803e3d6000fd5b505050506040513d601f19601f82011682018060405250810190620013c1919062001ff8565b155b8015620013de57506067546001600160a01b03858116911614155b80156200140157506000620013ff620003ce6067546001600160a01b031690565b115b80156200148b5750606b5461010090046001600160a01b03166040516314d0ab2d60e21b81526001600160a01b0385811660048301529190911690635342acb490602401602060405180830381865afa15801562001463573d6000803e3d6000fd5b505050506040513d601f19601f8201168201806040525081019062001489919062001ff8565b155b8015620015155750606b5461010090046001600160a01b03166040516314d0ab2d60e21b81526001600160a01b0386811660048301529190911690635342acb490602401602060405180830381865afa158015620014ed573d6000803e3d6000fd5b505050506040513d601f19601f8201168201806040525081019062001513919062001ff8565b155b949350505050565b80600060016200153b606b546001600160a01b036101009091041690565b6040516314d0ab2d60e21b81526001600160a01b0388811660048301529190911690635342acb490602401602060405180830381865afa15801562001584573d6000803e3d6000fd5b505050506040513d601f19601f82011682018060405250810190620015aa919062001ff8565b80620016315750606b5461010090046001600160a01b03166040516314d0ab2d60e21b81526001600160a01b0387811660048301529190911690635342acb490602401602060405180830381865afa1580156200160b573d6000803e3d6000fd5b505050506040513d601f19601f8201168201806040525081019062001631919062001ff8565b156200163b575060005b80156200165d576200164e828562001fde565b92506200165d86308462001ac0565b6200166a86868562001ac0565b505050505050565b600054610100900460ff166200169c5760405162461bcd60e51b81526004016200075e906200208c565b8151620016b190603690602085019062001c98565b50805162000e2490603790602084019062001c98565b620016d23362000b9c565b620010c1620008a7565b620010c1604051620016ee9062001d27565b604051809103906000f0801580156200170b573d6000803e3d6000fd5b50620006b9565b807378867bbeef44f2326bf8ddd1941a4439382ef2a76061604051620017389062001d35565b6001600160a01b0393841681529290911660208301526040820152606001604051809103906000f08015801562001773573d6000803e3d6000fd5b50606c80546001600160a01b0319166001600160a01b039290921691909117905550565b6065546001600160a01b03163314620017c45760405162461bcd60e51b81526004016200075e9062001f86565b606c60009054906101000a90046001600160a01b03166001600160a01b03166385954d8c6040518163ffffffff1660e01b8152600401602060405180830381865afa15801562001818573d6000803e3d6000fd5b505050506040513d601f19601f820116820180604052508101906200183e9190620020d7565b6001600160a01b031663c45a01556040518163ffffffff1660e01b8152600401602060405180830381865afa1580156200187c573d6000803e3d6000fd5b505050506040513d601f19601f82011682018060405250810190620018a29190620020d7565b6040516364e329cb60e11b81526001600160a01b0384811660048301528381166024830152919091169063c9c65396906044016020604051808303816000875af1158015620018f5573d6000803e3d6000fd5b505050506040513d601f19601f820116820180604052508101906200191b9190620020d7565b606780546001600160a01b0319166001600160a01b03929092169190911790555050565b620019c43362001957606c546001600160a01b031690565b6001600160a01b031663b9c552416040518163ffffffff1660e01b8152600401602060405180830381865afa15801562001995573d6000803e3d6000fd5b505050506040513d601f19601f82011682018060405250810190620019bb9190620020d7565b60001962000beb565b620010c130606c546001600160a01b031662001957565b6001600160a01b03821662001a335760405162461bcd60e51b815260206004820152601f60248201527f45524332303a206d696e7420746f20746865207a65726f20616464726573730060448201526064016200075e565b806035600082825462001a47919062001f6b565b90915550506001600160a01b0382166000908152603360205260408120805483929062001a7690849062001f6b565b90915550506040518181526001600160a01b038316906000907fddf252ad1be2c89b69c2b068fc378daa952ba7f163c4a11628f55a4df523b3ef9060200160405180910390a35050565b6001600160a01b03831662001b265760405162461bcd60e51b815260206004820152602560248201527f45524332303a207472616e736665722066726f6d20746865207a65726f206164604482015264647265737360d81b60648201526084016200075e565b6001600160a01b03821662001b8a5760405162461bcd60e51b815260206004820152602360248201527f45524332303a207472616e7366657220746f20746865207a65726f206164647260448201526265737360e81b60648201526084016200075e565b6001600160a01b0383166000908152603360205260409020548181101562001c045760405162461bcd60e51b815260206004820152602660248201527f45524332303a207472616e7366657220616d6f756e7420657863656564732062604482015265616c616e636560d01b60648201526084016200075e565b6001600160a01b0380851660009081526033602052604080822085850390559185168152908120805484929062001c3d90849062001f6b565b92505081905550826001600160a01b0316846001600160a01b03167fddf252ad1be2c89b69c2b068fc378daa952ba7f163c4a11628f55a4df523b3ef8460405162001c8a91815260200190565b60405180910390a362000d8e565b82805462001ca69062001f19565b90600052602060002090601f01602090048101928262001cca576000855562001d15565b82601f1062001ce557805160ff191683800117855562001d15565b8280016001018555821562001d15579182015b8281111562001d1557825182559160200191906001019062001cf8565b5062001d2392915062001d43565b5090565b61026180620020f883390190565b61085d806200235983390190565b5b8082111562001d23576000815560010162001d44565b600060208083528351808285015260005b8181101562001d895785810183015185820160400152820162001d6b565b8181111562001d9c576000604083870101525b50601f01601f1916929092016040019392505050565b6001600160a01b0381168114620008a457600080fd5b6000806040838503121562001ddc57600080fd5b823562001de98162001db2565b946020939093013593505050565b60006020828403121562001e0a57600080fd5b813562001e178162001db2565b9392505050565b60006020828403121562001e3157600080fd5b5035919050565b60008060006060848603121562001e4e57600080fd5b833562001e5b8162001db2565b9250602084013562001e6d8162001db2565b929592945050506040919091013590565b803561ffff8116811462000fa957600080fd5b60008060006060848603121562001ea757600080fd5b62001eb28462001e7e565b925062001ec26020850162001e7e565b915062001ed26040850162001e7e565b90509250925092565b6000806040838503121562001eef57600080fd5b823562001efc8162001db2565b9150602083013562001f0e8162001db2565b809150509250929050565b600181811c9082168062001f2e57607f821691505b60208210810362001f4f57634e487b7160e01b600052602260045260246000fd5b50919050565b634e487b7160e01b600052601160045260246000fd5b6000821982111562001f815762001f8162001f55565b500190565b6020808252818101527f4f776e61626c653a2063616c6c6572206973206e6f7420746865206f776e6572604082015260600190565b60008262001fd957634e487b7160e01b600052601260045260246000fd5b500490565b60008282101562001ff35762001ff362001f55565b500390565b6000602082840312156200200b57600080fd5b8151801515811462001e1757600080fd5b600081600019048311821515161562002039576200203962001f55565b500290565b6020808252602e908201527f496e697469616c697a61626c653a20636f6e747261637420697320616c72656160408201526d191e481a5b9a5d1a585b1a5e995960921b606082015260800190565b6020808252602b908201527f496e697469616c697a61626c653a20636f6e7472616374206973206e6f74206960408201526a6e697469616c697a696e6760a81b606082015260800190565b600060208284031215620020ea57600080fd5b815162001e178162001db256fe608060405234801561001057600080fd5b50612710600155604080516060810182526000808252602082018190529101819052805465ffffffffffff191690556102138061004e6000396000f3fe608060405234801561001057600080fd5b50600436106100415760003560e01c80635342acb414610046578063534c6bcb146100865780636612e66f146100d5575b600080fd5b61007261005436600461012a565b6001600160a01b031660009081526002602052604090205460ff1690565b604051901515815260200160405180910390f35b6100d361009436600461015e565b6000805461ffff94851663ffffffff199091161762010000938516939093029290921765ffff0000000019166401000000009190931602919091179055565b005b6100d36100e33660046101a1565b6001600160a01b03919091166000908152600260205260409020805460ff1916911515919091179055565b80356001600160a01b038116811461012557600080fd5b919050565b60006020828403121561013c57600080fd5b6101458261010e565b9392505050565b803561ffff8116811461012557600080fd5b60008060006060848603121561017357600080fd5b61017c8461014c565b925061018a6020850161014c565b91506101986040850161014c565b90509250925092565b600080604083850312156101b457600080fd5b6101bd8361010e565b9150602083013580151581146101d257600080fd5b80915050925092905056fea26469706673582212207be271e469dec215469c176c6b929400a380c02731bba30af945d0bb85b82f5c64736f6c634300080e0033608060405234801561001057600080fd5b5060405161085d38038061085d83398101604081905261002f91610082565b600080546001600160a01b039485166001600160a01b031991821617909155600291909155600180549290931691161790556100be565b80516001600160a01b038116811461007d57600080fd5b919050565b60008060006060848603121561009757600080fd5b6100a084610066565b92506100ae60208501610066565b9150604084015190509250925092565b610790806100cd6000396000f3fe608060405234801561001057600080fd5b506004361061007d5760003560e01c8063b9c552411161005b578063b9c55241146100db578063cc996899146100ec578063cf6c62ea14610109578063f7a765761461011c57600080fd5b8063197e8da9146100825780632c4a7361146100c657806385954d8c146100db575b600080fd5b6100a9610090366004610579565b5073ae13d989dac2f0debff460ac112a837c89baa7cd90565b6040516001600160a01b0390911681526020015b60405180910390f35b6100d96100d43660046105ae565b61012f565b005b6000546001600160a01b03166100a9565b600154600160a01b900460ff1660405190151581526020016100bd565b6100d96101173660046105d8565b6102db565b6100d961012a36600461061a565b61040e565b6040805160038082526080820190925260009160208201606080368337019050509050308160008151811061016657610166610656565b6001600160a01b039092166020928302919091019091015273ae13d989dac2f0debff460ac112a837c89baa7cd816001815181106101a6576101a6610656565b6001600160a01b0392831660209182029290920101526001548251911690829060029081106101d7576101d7610656565b6001600160a01b03928316602091820292909201015260015460005460405163095ea7b360e01b81529083166004820152600019602482015291169063095ea7b3906044016020604051808303816000875af115801561023b573d6000803e3d6000fd5b505050506040513d601f19601f8201168201806040525081019061025f919061066c565b50600080546001600160a01b031690635c11d7959084908487610284426103e8610695565b6040518663ffffffff1660e01b81526004016102a49594939291906106bb565b600060405180830381600087803b1580156102be57600080fd5b505af11580156102d2573d6000803e3d6000fd5b50505050505050565b60005460405163095ea7b360e01b81526001600160a01b03918216600482015260001960248201529085169063095ea7b3906044016020604051808303816000875af115801561032f573d6000803e3d6000fd5b505050506040513d601f19601f82011682018060405250810190610353919061066c565b50600080546001600160a01b03169063f305d71990839030908690808961037c42612710610695565b60405160e089901b6001600160e01b03191681526001600160a01b039687166004820152602481019590955260448501939093526064840191909152909216608482015260a481019190915260c40160606040518083038185885af11580156103e9573d6000803e3d6000fd5b50505050506040513d601f19601f820116820180604052508101906102d2919061072c565b604080516002808252606082018352600092602083019080368337019050509050838160008151811061044357610443610656565b6001600160a01b039092166020928302919091019091015273ae13d989dac2f0debff460ac112a837c89baa7cd8160018151811061048357610483610656565b6001600160a01b03928316602091820292909201015260005460405163095ea7b360e01b8152908216600482015260001960248201529085169063095ea7b3906044016020604051808303816000875af11580156104e5573d6000803e3d6000fd5b505050506040513d601f19601f82011682018060405250810190610509919061066c565b506000805460405163791ac94760e01b81526001600160a01b039091169163791ac947916105419186918690899042906004016106bb565b600060405180830381600087803b15801561055b57600080fd5b505af115801561056f573d6000803e3d6000fd5b5050505050505050565b60006020828403121561058b57600080fd5b5035919050565b80356001600160a01b03811681146105a957600080fd5b919050565b600080604083850312156105c157600080fd5b6105ca83610592565b946020939093013593505050565b600080600080608085870312156105ee57600080fd5b6105f785610592565b935061060560208601610592565b93969395505050506040820135916060013590565b60008060006060848603121561062f57600080fd5b61063884610592565b925061064660208501610592565b9150604084013590509250925092565b634e487b7160e01b600052603260045260246000fd5b60006020828403121561067e57600080fd5b8151801515811461068e57600080fd5b9392505050565b600082198211156106b657634e487b7160e01b600052601160045260246000fd5b500190565b600060a082018783526020878185015260a0604085015281875180845260c086019150828901935060005b8181101561070b5784516001600160a01b0316835293830193918301916001016106e6565b50506001600160a01b03969096166060850152505050608001529392505050565b60008060006060848603121561074157600080fd5b835192506020840151915060408401519050925092509256fea26469706673582212207f1ce60d63c130cf49100b324427b5dd71ec68b8e880c49ea2cb45e3e5e2a93964736f6c634300080e0033a2646970667358221220a19fa8ea5d66897a62de69d185d0335f3c0e6f46b1109da29bc783812ce8ce4564736f6c634300080e0033",
    "sourcePath": "/home/nkt/Desktop/metaStoksContracts/contracts/MetaStocks.sol",
    "compiler": {
        "name": "solc",
        "version": "0.8.14+commit.80d49f37"
    },
    "functionHashes": {
        "allowance(address,address)": "dd62ed3e",
        "approve(address,uint256)": "095ea7b3",
        "autoInjectLiquidity(uint256)": "d203abb6",
        "automatedMarketMakerPairs(address)": "b62496f5",
        "balanceOf(address)": "70a08231",
        "decimals()": "313ce567",
        "decreaseAllowance(address,uint256)": "a457c2d7",
        "enableTrading()": "8a8c523c",
        "getDexRouterManager()": "3da77333",
        "getFeesManager()": "c762819b",
        "getLPPair()": "86f3f3cb",
        "getOwner()": "893d20e8",
        "getSwapThreshold()": "f005f2ca",
        "getTradingEnabled()": "fa83cb58",
        "increaseAllowance(address,uint256)": "39509351",
        "initialize()": "8129fc1c",
        "name()": "06fdde03",
        "self()": "7104ddb2",
        "setDeadAddress()": "81fd3b00",
        "setFees(uint16,uint16,uint16)": "534c6bcb",
        "setFeesManager(address)": "1c89382a",
        "setMaxTransactionAmount(uint256)": "1e293c10",
        "setMaxWalletAmount(uint256)": "27a14fc2",
        "setSwapThreshold(uint256)": "9d0014b1",
        "symbol()": "95d89b41",
        "totalSupply()": "18160ddd",
        "transfer(address,uint256)": "a9059cbb",
        "transferFrom(address,address,uint256)": "23b872dd",
        "transferOwnership(address)": "f2fde38b"
    },
    "gasEstimates": {
        "creation": {
            "codeDepositCost": "2248600",
            "executionCost": "2405",
            "totalCost": "2251005"
        },
        "external": {
            "allowance(address,address)": "infinite",
            "approve(address,uint256)": "24664",
            "autoInjectLiquidity(uint256)": "infinite",
            "automatedMarketMakerPairs(address)": "2592",
            "balanceOf(address)": "2598",
            "decimals()": "223",
            "decreaseAllowance(address,uint256)": "27055",
            "enableTrading()": "28679",
            "getDexRouterManager()": "2410",
            "getFeesManager()": "2431",
            "getLPPair()": "2399",
            "getOwner()": "2421",
            "getSwapThreshold()": "2358",
            "getTradingEnabled()": "2414",
            "increaseAllowance(address,uint256)": "27040",
            "initialize()": "infinite",
            "name()": "infinite",
            "self()": "301",
            "setDeadAddress()": "26566",
            "setFees(uint16,uint16,uint16)": "infinite",
            "setFeesManager(address)": "24622",
            "setMaxTransactionAmount(uint256)": "22380",
            "setMaxWalletAmount(uint256)": "22424",
            "setSwapThreshold(uint256)": "22401",
            "symbol()": "infinite",
            "totalSupply()": "2372",
            "transfer(address,uint256)": "infinite",
            "transferFrom(address,address,uint256)": "infinite",
            "transferOwnership(address)": "26793"
        },
        "internal": {
            "_beforeTransferCheck(address,address,uint256)": "infinite",
            "_finalizeTransfer(address,address,uint256)": "infinite",
            "_transfer(address,address,uint256)": "infinite",
            "contractMustSwap(address,address)": "infinite",
            "createPair(address,address)": "infinite",
            "doInitialApproves()": "infinite",
            "initAddressess()": "infinite",
            "initContracts()": "infinite",
            "initValues()": "infinite",
            "initializeContract()": "infinite",
            "setRouter(address)": "infinite"
        }
    }
}