{
    "contractName": "MetaStocks",
    "abi": [
        {
            "anonymous": false,
            "inputs": [
                {
                    "indexed": true,
                    "internalType": "address",
                    "name": "owner",
                    "type": "address"
                },
                {
                    "indexed": true,
                    "internalType": "address",
                    "name": "spender",
                    "type": "address"
                },
                {
                    "indexed": false,
                    "internalType": "uint256",
                    "name": "value",
                    "type": "uint256"
                }
            ],
            "name": "Approval",
            "type": "event"
        },
        {
            "anonymous": false,
            "inputs": [
                {
                    "indexed": true,
                    "internalType": "address",
                    "name": "sender",
                    "type": "address"
                },
                {
                    "indexed": false,
                    "internalType": "uint256",
                    "name": "amount",
                    "type": "uint256"
                }
            ],
            "name": "Burn",
            "type": "event"
        },
        {
            "anonymous": false,
            "inputs": [
                {
                    "indexed": false,
                    "internalType": "uint8",
                    "name": "version",
                    "type": "uint8"
                }
            ],
            "name": "Initialized",
            "type": "event"
        },
        {
            "anonymous": false,
            "inputs": [
                {
                    "indexed": true,
                    "internalType": "address",
                    "name": "previousOwner",
                    "type": "address"
                },
                {
                    "indexed": true,
                    "internalType": "address",
                    "name": "newOwner",
                    "type": "address"
                }
            ],
            "name": "OwnershipTransferred",
            "type": "event"
        },
        {
            "anonymous": false,
            "inputs": [
                {
                    "indexed": true,
                    "internalType": "address",
                    "name": "from",
                    "type": "address"
                },
                {
                    "indexed": true,
                    "internalType": "address",
                    "name": "to",
                    "type": "address"
                },
                {
                    "indexed": false,
                    "internalType": "uint256",
                    "name": "value",
                    "type": "uint256"
                }
            ],
            "name": "Transfer",
            "type": "event"
        },
        {
            "inputs": [
                {
                    "internalType": "address",
                    "name": "owner",
                    "type": "address"
                },
                {
                    "internalType": "address",
                    "name": "spender",
                    "type": "address"
                }
            ],
            "name": "allowance",
            "outputs": [
                {
                    "internalType": "uint256",
                    "name": "",
                    "type": "uint256"
                }
            ],
            "stateMutability": "view",
            "type": "function"
        },
        {
            "inputs": [
                {
                    "internalType": "address",
                    "name": "spender",
                    "type": "address"
                },
                {
                    "internalType": "uint256",
                    "name": "amount",
                    "type": "uint256"
                }
            ],
            "name": "approve",
            "outputs": [
                {
                    "internalType": "bool",
                    "name": "",
                    "type": "bool"
                }
            ],
            "stateMutability": "nonpayable",
            "type": "function"
        },
        {
            "inputs": [
                {
                    "internalType": "uint256",
                    "name": "tokenAmount",
                    "type": "uint256"
                }
            ],
            "name": "autoInjectLiquidity",
            "outputs": [],
            "stateMutability": "nonpayable",
            "type": "function"
        },
        {
            "inputs": [
                {
                    "internalType": "address",
                    "name": "",
                    "type": "address"
                }
            ],
            "name": "automatedMarketMakerPairs",
            "outputs": [
                {
                    "internalType": "bool",
                    "name": "",
                    "type": "bool"
                }
            ],
            "stateMutability": "view",
            "type": "function"
        },
        {
            "inputs": [
                {
                    "internalType": "address",
                    "name": "account",
                    "type": "address"
                }
            ],
            "name": "balanceOf",
            "outputs": [
                {
                    "internalType": "uint256",
                    "name": "",
                    "type": "uint256"
                }
            ],
            "stateMutability": "view",
            "type": "function"
        },
        {
            "inputs": [],
            "name": "decimals",
            "outputs": [
                {
                    "internalType": "uint8",
                    "name": "",
                    "type": "uint8"
                }
            ],
            "stateMutability": "view",
            "type": "function"
        },
        {
            "inputs": [
                {
                    "internalType": "address",
                    "name": "spender",
                    "type": "address"
                },
                {
                    "internalType": "uint256",
                    "name": "subtractedValue",
                    "type": "uint256"
                }
            ],
            "name": "decreaseAllowance",
            "outputs": [
                {
                    "internalType": "bool",
                    "name": "",
                    "type": "bool"
                }
            ],
            "stateMutability": "nonpayable",
            "type": "function"
        },
        {
            "inputs": [],
            "name": "enableTrading",
            "outputs": [],
            "stateMutability": "nonpayable",
            "type": "function"
        },
        {
            "inputs": [],
            "name": "getDexRouterManager",
            "outputs": [
                {
                    "internalType": "contract DexRouterManager",
                    "name": "",
                    "type": "address"
                }
            ],
            "stateMutability": "view",
            "type": "function"
        },
        {
            "inputs": [],
            "name": "getFeesManager",
            "outputs": [
                {
                    "internalType": "contract FeesManager",
                    "name": "",
                    "type": "address"
                }
            ],
            "stateMutability": "view",
            "type": "function"
        },
        {
            "inputs": [],
            "name": "getLPPair",
            "outputs": [
                {
                    "internalType": "address",
                    "name": "",
                    "type": "address"
                }
            ],
            "stateMutability": "view",
            "type": "function"
        },
        {
            "inputs": [],
            "name": "getOwner",
            "outputs": [
                {
                    "internalType": "address",
                    "name": "",
                    "type": "address"
                }
            ],
            "stateMutability": "view",
            "type": "function"
        },
        {
            "inputs": [],
            "name": "getSwapThreshold",
            "outputs": [
                {
                    "internalType": "uint256",
                    "name": "",
                    "type": "uint256"
                }
            ],
            "stateMutability": "view",
            "type": "function"
        },
        {
            "inputs": [],
            "name": "getTradingEnabled",
            "outputs": [
                {
                    "internalType": "bool",
                    "name": "",
                    "type": "bool"
                }
            ],
            "stateMutability": "view",
            "type": "function"
        },
        {
            "inputs": [
                {
                    "internalType": "address",
                    "name": "spender",
                    "type": "address"
                },
                {
                    "internalType": "uint256",
                    "name": "addedValue",
                    "type": "uint256"
                }
            ],
            "name": "increaseAllowance",
            "outputs": [
                {
                    "internalType": "bool",
                    "name": "",
                    "type": "bool"
                }
            ],
            "stateMutability": "nonpayable",
            "type": "function"
        },
        {
            "inputs": [
                {
                    "internalType": "string",
                    "name": "_name",
                    "type": "string"
                },
                {
                    "internalType": "string",
                    "name": "_symbol",
                    "type": "string"
                }
            ],
            "name": "initialize",
            "outputs": [],
            "stateMutability": "nonpayable",
            "type": "function"
        },
        {
            "inputs": [],
            "name": "initialize",
            "outputs": [],
            "stateMutability": "nonpayable",
            "type": "function"
        },
        {
            "inputs": [],
            "name": "name",
            "outputs": [
                {
                    "internalType": "string",
                    "name": "",
                    "type": "string"
                }
            ],
            "stateMutability": "view",
            "type": "function"
        },
        {
            "inputs": [],
            "name": "self",
            "outputs": [
                {
                    "internalType": "address",
                    "name": "",
                    "type": "address"
                }
            ],
            "stateMutability": "view",
            "type": "function"
        },
        {
            "inputs": [],
            "name": "setDeadAddress",
            "outputs": [],
            "stateMutability": "nonpayable",
            "type": "function"
        },
        {
            "inputs": [
                {
                    "internalType": "uint16",
                    "name": "buyFee",
                    "type": "uint16"
                },
                {
                    "internalType": "uint16",
                    "name": "sellFee",
                    "type": "uint16"
                },
                {
                    "internalType": "uint16",
                    "name": "transferFee",
                    "type": "uint16"
                }
            ],
            "name": "setFees",
            "outputs": [],
            "stateMutability": "nonpayable",
            "type": "function"
        },
        {
            "inputs": [
                {
                    "internalType": "contract FeesManager",
                    "name": "_feesManager",
                    "type": "address"
                }
            ],
            "name": "setFeesManager",
            "outputs": [],
            "stateMutability": "nonpayable",
            "type": "function"
        },
        {
            "inputs": [
                {
                    "internalType": "uint256",
                    "name": "_maxTransactionAmount",
                    "type": "uint256"
                }
            ],
            "name": "setMaxTransactionAmount",
            "outputs": [],
            "stateMutability": "nonpayable",
            "type": "function"
        },
        {
            "inputs": [
                {
                    "internalType": "uint256",
                    "name": "_maxWalletAmount",
                    "type": "uint256"
                }
            ],
            "name": "setMaxWalletAmount",
            "outputs": [],
            "stateMutability": "nonpayable",
            "type": "function"
        },
        {
            "inputs": [
                {
                    "internalType": "uint256",
                    "name": "_swapThreshold",
                    "type": "uint256"
                }
            ],
            "name": "setSwapThreshold",
            "outputs": [],
            "stateMutability": "nonpayable",
            "type": "function"
        },
        {
            "inputs": [],
            "name": "symbol",
            "outputs": [
                {
                    "internalType": "string",
                    "name": "",
                    "type": "string"
                }
            ],
            "stateMutability": "view",
            "type": "function"
        },
        {
            "inputs": [],
            "name": "totalSupply",
            "outputs": [
                {
                    "internalType": "uint256",
                    "name": "",
                    "type": "uint256"
                }
            ],
            "stateMutability": "view",
            "type": "function"
        },
        {
            "inputs": [
                {
                    "internalType": "address",
                    "name": "to",
                    "type": "address"
                },
                {
                    "internalType": "uint256",
                    "name": "amount",
                    "type": "uint256"
                }
            ],
            "name": "transfer",
            "outputs": [
                {
                    "internalType": "bool",
                    "name": "",
                    "type": "bool"
                }
            ],
            "stateMutability": "nonpayable",
            "type": "function"
        },
        {
            "inputs": [
                {
                    "internalType": "address",
                    "name": "from",
                    "type": "address"
                },
                {
                    "internalType": "address",
                    "name": "to",
                    "type": "address"
                },
                {
                    "internalType": "uint256",
                    "name": "amount",
                    "type": "uint256"
                }
            ],
            "name": "transferFrom",
            "outputs": [
                {
                    "internalType": "bool",
                    "name": "",
                    "type": "bool"
                }
            ],
            "stateMutability": "nonpayable",
            "type": "function"
        },
        {
            "inputs": [
                {
                    "internalType": "address",
                    "name": "account",
                    "type": "address"
                }
            ],
            "name": "transferOwnership",
            "outputs": [],
            "stateMutability": "nonpayable",
            "type": "function"
        },
        {
            "stateMutability": "payable",
            "type": "receive"
        }
    ],
    "bytecode": "608060405234801561001057600080fd5b50612dd9806100206000396000f3fe608060405260043610620001f75760003560e01c806381fd3b00116200010b578063a9059cbb11620000a1578063dd62ed3e116200006c578063dd62ed3e14620005bb578063f005f2ca14620005e0578063f2fde38b14620005f7578063fa83cb58146200061c57600080fd5b8063a9059cbb1462000518578063b62496f5146200053d578063c762819b1462000571578063d203abb6146200059657600080fd5b80638a8c523c11620000e25780638a8c523c146200049f57806395d89b4114620004b75780639d0014b114620004cf578063a457c2d714620004f357600080fd5b806381fd3b00146200044757806386f3f3cb146200045f578063893d20e8146200047f57600080fd5b8063313ce567116200018d578063534c6bcb1162000158578063534c6bcb14620003bb57806370a0823114620003e05780637104ddb2146200041a5780638129fc1c146200042f57600080fd5b8063313ce567146200031f57806339509351146200033d5780633da7733314620003625780634cd88b76146200039657600080fd5b80631c89382a11620001ce5780631c89382a146200028b5780631e293c1014620002b257806323b872dd14620002d657806327a14fc214620002fb57600080fd5b806306fdde031462000204578063095ea7b3146200023457806318160ddd146200026a57600080fd5b36620001ff57005b600080fd5b3480156200021157600080fd5b506200021c62000636565b6040516200022b919062001e32565b60405180910390f35b3480156200024157600080fd5b50620002596200025336600462001ea0565b620006d0565b60405190151581526020016200022b565b3480156200027757600080fd5b506035545b6040519081526020016200022b565b3480156200029857600080fd5b50620002b0620002aa36600462001ecf565b620006ea565b005b348015620002bf57600080fd5b50620002b0620002d136600462001ef6565b606a55565b348015620002e357600080fd5b5062000259620002f536600462001f10565b62000712565b3480156200030857600080fd5b50620002b06200031a36600462001ef6565b606955565b3480156200032c57600080fd5b50604051601281526020016200022b565b3480156200034a57600080fd5b50620002596200035c36600462001ea0565b6200073a565b3480156200036f57600080fd5b50606c546001600160a01b03165b6040516001600160a01b0390911681526020016200022b565b348015620003a357600080fd5b50620002b0620003b536600462002001565b62000762565b348015620003c857600080fd5b50620002b0620003da3660046200207f565b620007eb565b348015620003ed57600080fd5b506200027c620003ff36600462001ecf565b6001600160a01b031660009081526033602052604090205490565b3480156200042757600080fd5b50306200037d565b3480156200043c57600080fd5b50620002b06200089d565b3480156200045457600080fd5b50620002b062000957565b3480156200046c57600080fd5b506067546001600160a01b03166200037d565b3480156200048c57600080fd5b506065546001600160a01b03166200037d565b348015620004ac57600080fd5b50620002b06200099a565b348015620004c457600080fd5b506200021c62000a2b565b348015620004dc57600080fd5b50620002b0620004ee36600462001ef6565b606855565b3480156200050057600080fd5b50620002596200051236600462001ea0565b62000a3c565b3480156200052557600080fd5b50620002596200053736600462001ea0565b62000abd565b3480156200054a57600080fd5b50620002596200055c36600462001ecf565b606d6020526000908152604090205460ff1681565b3480156200057e57600080fd5b50606b5461010090046001600160a01b03166200037d565b348015620005a357600080fd5b50620002b0620005b536600462001ef6565b62000acd565b348015620005c857600080fd5b506200027c620005da366004620020c9565b62000c21565b348015620005ed57600080fd5b506068546200027c565b3480156200060457600080fd5b50620002b06200061636600462001ecf565b62000c4c565b3480156200062957600080fd5b50606b5460ff1662000259565b606060368054620006479062002107565b80601f0160208091040260200160405190810160405280929190818152602001828054620006759062002107565b8015620006c65780601f106200069a57610100808354040283529160200191620006c6565b820191906000526020600020905b815481529060010190602001808311620006a857829003601f168201915b5050505050905090565b600033620006e081858562000c9b565b5060019392505050565b606b80546001600160a01b0390921661010002610100600160a81b0319909216919091179055565b6000336200072285828562000dc3565b6200072f85858562000e44565b506001949350505050565b600033620006e081858562000750838362000c21565b6200075c919062002159565b62000c9b565b600062000770600162000fc4565b9050801562000789576000805461ff0019166101001790555b62000795838362001059565b6200079f62001093565b8015620007e6576000805461ff0019169055604051600181527f7f26b83ff96e1f2b6a682f133852f6798a09c465da95921460cefb38474024989060200160405180910390a15b505050565b6065546001600160a01b03163314620008215760405162461bcd60e51b8152600401620008189062002174565b60405180910390fd5b606b5460405163534c6bcb60e01b815261ffff80861660048301528085166024830152831660448201526101009091046001600160a01b03169063534c6bcb90606401600060405180830381600087803b1580156200087f57600080fd5b505af115801562000894573d6000803e3d6000fd5b50505050505050565b6000620008ab600162000fc4565b90508015620008c4576000805461ff0019166101001790555b6200090d6040518060400160405280600a8152602001694d65746153746f636b7360b01b815250604051806040016040528060038152602001621354d560ea1b81525062000762565b801562000954576000805461ff0019169055604051600181527f7f26b83ff96e1f2b6a682f133852f6798a09c465da95921460cefb38474024989060200160405180910390a15b50565b6065546001600160a01b03163314620009845760405162461bcd60e51b8152600401620008189062002174565b606680546001600160a01b03191661dead179055565b6065546001600160a01b03163314620009c75760405162461bcd60e51b8152600401620008189062002174565b606b5460ff161562000a1c5760405162461bcd60e51b815260206004820152601860248201527f54726164696e6720616c726561647920656e61626c6564210000000000000000604482015260640162000818565b606b805460ff19166001179055565b606060378054620006479062002107565b6000338162000a4c828662000c21565b90508381101562000aae5760405162461bcd60e51b815260206004820152602560248201527f45524332303a2064656372656173656420616c6c6f77616e63652062656c6f77604482015264207a65726f60d81b606482015260840162000818565b6200072f828686840362000c9b565b600033620006e081858562000e44565b600062000adc600283620021a9565b90504762000af2606c546001600160a01b031690565b6001600160a01b031663f7a7657630306040516001600160e01b031960e085901b1681526001600160a01b0392831660048201529116602482015260448101859052606401600060405180830381600087803b15801562000b5257600080fd5b505af115801562000b67573d6000803e3d6000fd5b505050506000814762000b7b9190620021cc565b905062000b90606c546001600160a01b031690565b6001600160a01b031663cf6c62ea306065546001600160a01b03166040516001600160e01b031960e085901b1681526001600160a01b039283166004820152911660248201526044810186905260648101849052608401600060405180830381600087803b15801562000c0257600080fd5b505af115801562000c17573d6000803e3d6000fd5b5050505050505050565b6001600160a01b03918216600090815260346020908152604080832093909416825291909152205490565b6065546001600160a01b0316331462000c795760405162461bcd60e51b8152600401620008189062002174565b606580546001600160a01b0319166001600160a01b0392909216919091179055565b6001600160a01b03831662000cff5760405162461bcd60e51b8152602060048201526024808201527f45524332303a20617070726f76652066726f6d20746865207a65726f206164646044820152637265737360e01b606482015260840162000818565b6001600160a01b03821662000d625760405162461bcd60e51b815260206004820152602260248201527f45524332303a20617070726f766520746f20746865207a65726f206164647265604482015261737360f01b606482015260840162000818565b6001600160a01b0383811660008181526034602090815260408083209487168084529482529182902085905590518481527f8c5be1e5ebec7d5bd14f71427d1e84f3dd0314c0f7b2291e5b200ac8c7c3b925910160405180910390a3505050565b600062000dd1848462000c21565b9050600019811462000e3e578181101562000e2f5760405162461bcd60e51b815260206004820152601d60248201527f45524332303a20696e73756666696369656e7420616c6c6f77616e6365000000604482015260640162000818565b62000e3e848484840362000c9b565b50505050565b62000e518383836200116e565b606c546001600160a01b03166001600160a01b031663cc9968996040518163ffffffff1660e01b8152600401602060405180830381865afa15801562000e9b573d6000803e3d6000fd5b505050506040513d601f19601f8201168201806040525081019062000ec19190620021e6565b1562000ed457620007e6838383620013d7565b62000ee08383620015af565b1562000fb757600062000ef330620003ff565b905062000f08606c546001600160a01b031690565b6001600160a01b0316632c4a73613061271062000f2785600c6200220a565b62000f339190620021a9565b6040516001600160e01b031960e085901b1681526001600160a01b0390921660048301526024820152604401600060405180830381600087803b15801562000f7a57600080fd5b505af115801562000f8f573d6000803e3d6000fd5b5050505062000fb561271082607b62000fa991906200220a565b620005b59190620021a9565b505b620007e6838383620017a0565b60008054610100900460ff161562001010578160ff16600114801562000fe95750303b155b620010085760405162461bcd60e51b815260040162000818906200222c565b506000919050565b60005460ff8084169116106200103a5760405162461bcd60e51b815260040162000818906200222c565b506000805460ff191660ff92909216919091179055600190565b919050565b600054610100900460ff16620010835760405162461bcd60e51b815260040162000818906200227a565b6200108f8282620018f5565b5050565b6200109d6200194a565b620010a76200195f565b620010c6739ac64cc6e4415144c455bd8e4837fea55603e5c362001995565b6200114b30606c546001600160a01b031660405163197e8da960e01b8152606160048201526001600160a01b03919091169063197e8da990602401602060405180830381865afa1580156200111f573d6000803e3d6000fd5b505050506040513d601f19601f82011682018060405250810190620011459190620022c5565b62001a47565b6200115562001bef565b6200116c336a52b7d2dcc80cd2e400000062001c8b565b565b6001600160a01b038316620011dc5760405162461bcd60e51b815260206004820152602d60248201527f45524332303a207472616e736665722066726f6d20746865205a45524f5f414460448201526c4452455353206164647265737360981b606482015260840162000818565b6001600160a01b038216620012485760405162461bcd60e51b815260206004820152602b60248201527f45524332303a207472616e7366657220746f20746865205a45524f5f4144445260448201526a455353206164647265737360a81b606482015260840162000818565b60008111620012b45760405162461bcd60e51b815260206004820152603160248201527f5472616e7366657220616d6f756e74206d7573742062652067726561746572206044820152707468616e205a45524f5f4144445245535360781b606482015260840162000818565b6065546001600160a01b03848116911614801590620012e157506065546001600160a01b03838116911614155b8015620012f657506001600160a01b03821615155b80156200130e57506001600160a01b03821661dead14155b8015620013885750606c546001600160a01b03166001600160a01b031663cc9968996040518163ffffffff1660e01b8152600401602060405180830381865afa15801562001360573d6000803e3d6000fd5b505050506040513d601f19601f82011682018060405250810190620013869190620021e6565b155b15620007e657606b5460ff16620007e65760405162461bcd60e51b815260206004820152601260248201527154726164696e67206e6f742061637469766560701b604482015260640162000818565b6001600160a01b0383166200143d5760405162461bcd60e51b815260206004820152602560248201527f45524332303a207472616e736665722066726f6d20746865207a65726f206164604482015264647265737360d81b606482015260840162000818565b6001600160a01b038216620014a15760405162461bcd60e51b815260206004820152602360248201527f45524332303a207472616e7366657220746f20746865207a65726f206164647260448201526265737360e81b606482015260840162000818565b6001600160a01b038316600090815260336020526040902054818110156200151b5760405162461bcd60e51b815260206004820152602660248201527f45524332303a207472616e7366657220616d6f756e7420657863656564732062604482015265616c616e636560d01b606482015260840162000818565b6001600160a01b038085166000908152603360205260408082208585039055918516815290812080548492906200155490849062002159565b92505081905550826001600160a01b0316846001600160a01b03167fddf252ad1be2c89b69c2b068fc378daa952ba7f163c4a11628f55a4df523b3ef84604051620015a191815260200190565b60405180910390a362000e3e565b600080620015bd30620003ff565b9050620015c960685490565b8110158015620016465750606c546001600160a01b03166001600160a01b031663cc9968996040518163ffffffff1660e01b8152600401602060405180830381865afa1580156200161e573d6000803e3d6000fd5b505050506040513d601f19601f82011682018060405250810190620016449190620021e6565b155b80156200166157506067546001600160a01b03858116911614155b8015620016845750600062001682620003ff6067546001600160a01b031690565b115b80156200170e5750606b5461010090046001600160a01b03166040516314d0ab2d60e21b81526001600160a01b0385811660048301529190911690635342acb490602401602060405180830381865afa158015620016e6573d6000803e3d6000fd5b505050506040513d601f19601f820116820180604052508101906200170c9190620021e6565b155b8015620017985750606b5461010090046001600160a01b03166040516314d0ab2d60e21b81526001600160a01b0386811660048301529190911690635342acb490602401602060405180830381865afa15801562001770573d6000803e3d6000fd5b505050506040513d601f19601f82011682018060405250810190620017969190620021e6565b155b949350505050565b8060006001620017be606b546001600160a01b036101009091041690565b6040516314d0ab2d60e21b81526001600160a01b0388811660048301529190911690635342acb490602401602060405180830381865afa15801562001807573d6000803e3d6000fd5b505050506040513d601f19601f820116820180604052508101906200182d9190620021e6565b80620018b45750606b5461010090046001600160a01b03166040516314d0ab2d60e21b81526001600160a01b0387811660048301529190911690635342acb490602401602060405180830381865afa1580156200188e573d6000803e3d6000fd5b505050506040513d601f19601f82011682018060405250810190620018b49190620021e6565b15620018be575060005b8015620018e057620018d18285620021cc565b9250620018e0863084620013d7565b620018ed868685620013d7565b505050505050565b600054610100900460ff166200191f5760405162461bcd60e51b815260040162000818906200227a565b81516200193490603690602085019062001d70565b508051620007e690603790602084019062001d70565b620019553362000c4c565b6200116c62000957565b6200116c604051620019719062001dff565b604051809103906000f0801580156200198e573d6000803e3d6000fd5b50620006ea565b6065546001600160a01b03163314620019c25760405162461bcd60e51b8152600401620008189062002174565b807378867bbeef44f2326bf8ddd1941a4439382ef2a76061604051620019e89062001e0d565b6001600160a01b0393841681529290911660208301526040820152606001604051809103906000f08015801562001a23573d6000803e3d6000fd5b50606c80546001600160a01b0319166001600160a01b039290921691909117905550565b6065546001600160a01b0316331462001a745760405162461bcd60e51b8152600401620008189062002174565b606c60009054906101000a90046001600160a01b03166001600160a01b03166385954d8c6040518163ffffffff1660e01b8152600401602060405180830381865afa15801562001ac8573d6000803e3d6000fd5b505050506040513d601f19601f8201168201806040525081019062001aee9190620022c5565b6001600160a01b031663c45a01556040518163ffffffff1660e01b8152600401602060405180830381865afa15801562001b2c573d6000803e3d6000fd5b505050506040513d601f19601f8201168201806040525081019062001b529190620022c5565b6040516364e329cb60e11b81526001600160a01b0384811660048301528381166024830152919091169063c9c65396906044016020604051808303816000875af115801562001ba5573d6000803e3d6000fd5b505050506040513d601f19601f8201168201806040525081019062001bcb9190620022c5565b606780546001600160a01b0319166001600160a01b03929092169190911790555050565b62001c743362001c07606c546001600160a01b031690565b6001600160a01b031663b9c552416040518163ffffffff1660e01b8152600401602060405180830381865afa15801562001c45573d6000803e3d6000fd5b505050506040513d601f19601f8201168201806040525081019062001c6b9190620022c5565b60001962000c9b565b6200116c30606c546001600160a01b031662001c07565b6001600160a01b03821662001ce35760405162461bcd60e51b815260206004820152601f60248201527f45524332303a206d696e7420746f20746865207a65726f206164647265737300604482015260640162000818565b806035600082825462001cf7919062002159565b90915550506001600160a01b0382166000908152603360205260408120805483929062001d2690849062002159565b90915550506040518181526001600160a01b038316906000907fddf252ad1be2c89b69c2b068fc378daa952ba7f163c4a11628f55a4df523b3ef9060200160405180910390a35050565b82805462001d7e9062002107565b90600052602060002090601f01602090048101928262001da2576000855562001ded565b82601f1062001dbd57805160ff191683800117855562001ded565b8280016001018555821562001ded579182015b8281111562001ded57825182559160200191906001019062001dd0565b5062001dfb92915062001e1b565b5090565b61026180620022e683390190565b61085d806200254783390190565b5b8082111562001dfb576000815560010162001e1c565b600060208083528351808285015260005b8181101562001e615785810183015185820160400152820162001e43565b8181111562001e74576000604083870101525b50601f01601f1916929092016040019392505050565b6001600160a01b03811681146200095457600080fd5b6000806040838503121562001eb457600080fd5b823562001ec18162001e8a565b946020939093013593505050565b60006020828403121562001ee257600080fd5b813562001eef8162001e8a565b9392505050565b60006020828403121562001f0957600080fd5b5035919050565b60008060006060848603121562001f2657600080fd5b833562001f338162001e8a565b9250602084013562001f458162001e8a565b929592945050506040919091013590565b634e487b7160e01b600052604160045260246000fd5b600082601f83011262001f7e57600080fd5b813567ffffffffffffffff8082111562001f9c5762001f9c62001f56565b604051601f8301601f19908116603f0116810190828211818310171562001fc75762001fc762001f56565b8160405283815286602085880101111562001fe157600080fd5b836020870160208301376000602085830101528094505050505092915050565b600080604083850312156200201557600080fd5b823567ffffffffffffffff808211156200202e57600080fd5b6200203c8683870162001f6c565b935060208501359150808211156200205357600080fd5b50620020628582860162001f6c565b9150509250929050565b803561ffff811681146200105457600080fd5b6000806000606084860312156200209557600080fd5b620020a0846200206c565b9250620020b0602085016200206c565b9150620020c0604085016200206c565b90509250925092565b60008060408385031215620020dd57600080fd5b8235620020ea8162001e8a565b91506020830135620020fc8162001e8a565b809150509250929050565b600181811c908216806200211c57607f821691505b6020821081036200213d57634e487b7160e01b600052602260045260246000fd5b50919050565b634e487b7160e01b600052601160045260246000fd5b600082198211156200216f576200216f62002143565b500190565b6020808252818101527f4f776e61626c653a2063616c6c6572206973206e6f7420746865206f776e6572604082015260600190565b600082620021c757634e487b7160e01b600052601260045260246000fd5b500490565b600082821015620021e157620021e162002143565b500390565b600060208284031215620021f957600080fd5b8151801515811462001eef57600080fd5b600081600019048311821515161562002227576200222762002143565b500290565b6020808252602e908201527f496e697469616c697a61626c653a20636f6e747261637420697320616c72656160408201526d191e481a5b9a5d1a585b1a5e995960921b606082015260800190565b6020808252602b908201527f496e697469616c697a61626c653a20636f6e7472616374206973206e6f74206960408201526a6e697469616c697a696e6760a81b606082015260800190565b600060208284031215620022d857600080fd5b815162001eef8162001e8a56fe608060405234801561001057600080fd5b50612710600155604080516060810182526000808252602082018190529101819052805465ffffffffffff191690556102138061004e6000396000f3fe608060405234801561001057600080fd5b50600436106100415760003560e01c80635342acb414610046578063534c6bcb146100865780636612e66f146100d5575b600080fd5b61007261005436600461012a565b6001600160a01b031660009081526002602052604090205460ff1690565b604051901515815260200160405180910390f35b6100d361009436600461015e565b6000805461ffff94851663ffffffff199091161762010000938516939093029290921765ffff0000000019166401000000009190931602919091179055565b005b6100d36100e33660046101a1565b6001600160a01b03919091166000908152600260205260409020805460ff1916911515919091179055565b80356001600160a01b038116811461012557600080fd5b919050565b60006020828403121561013c57600080fd5b6101458261010e565b9392505050565b803561ffff8116811461012557600080fd5b60008060006060848603121561017357600080fd5b61017c8461014c565b925061018a6020850161014c565b91506101986040850161014c565b90509250925092565b600080604083850312156101b457600080fd5b6101bd8361010e565b9150602083013580151581146101d257600080fd5b80915050925092905056fea26469706673582212207be271e469dec215469c176c6b929400a380c02731bba30af945d0bb85b82f5c64736f6c634300080e0033608060405234801561001057600080fd5b5060405161085d38038061085d83398101604081905261002f91610082565b600080546001600160a01b039485166001600160a01b031991821617909155600291909155600180549290931691161790556100be565b80516001600160a01b038116811461007d57600080fd5b919050565b60008060006060848603121561009757600080fd5b6100a084610066565b92506100ae60208501610066565b9150604084015190509250925092565b610790806100cd6000396000f3fe608060405234801561001057600080fd5b506004361061007d5760003560e01c8063b9c552411161005b578063b9c55241146100db578063cc996899146100ec578063cf6c62ea14610109578063f7a765761461011c57600080fd5b8063197e8da9146100825780632c4a7361146100c657806385954d8c146100db575b600080fd5b6100a9610090366004610579565b5073ae13d989dac2f0debff460ac112a837c89baa7cd90565b6040516001600160a01b0390911681526020015b60405180910390f35b6100d96100d43660046105ae565b61012f565b005b6000546001600160a01b03166100a9565b600154600160a01b900460ff1660405190151581526020016100bd565b6100d96101173660046105d8565b6102db565b6100d961012a36600461061a565b61040e565b6040805160038082526080820190925260009160208201606080368337019050509050308160008151811061016657610166610656565b6001600160a01b039092166020928302919091019091015273ae13d989dac2f0debff460ac112a837c89baa7cd816001815181106101a6576101a6610656565b6001600160a01b0392831660209182029290920101526001548251911690829060029081106101d7576101d7610656565b6001600160a01b03928316602091820292909201015260015460005460405163095ea7b360e01b81529083166004820152600019602482015291169063095ea7b3906044016020604051808303816000875af115801561023b573d6000803e3d6000fd5b505050506040513d601f19601f8201168201806040525081019061025f919061066c565b50600080546001600160a01b031690635c11d7959084908487610284426103e8610695565b6040518663ffffffff1660e01b81526004016102a49594939291906106bb565b600060405180830381600087803b1580156102be57600080fd5b505af11580156102d2573d6000803e3d6000fd5b50505050505050565b60005460405163095ea7b360e01b81526001600160a01b03918216600482015260001960248201529085169063095ea7b3906044016020604051808303816000875af115801561032f573d6000803e3d6000fd5b505050506040513d601f19601f82011682018060405250810190610353919061066c565b50600080546001600160a01b03169063f305d71990839030908690808961037c42612710610695565b60405160e089901b6001600160e01b03191681526001600160a01b039687166004820152602481019590955260448501939093526064840191909152909216608482015260a481019190915260c40160606040518083038185885af11580156103e9573d6000803e3d6000fd5b50505050506040513d601f19601f820116820180604052508101906102d2919061072c565b604080516002808252606082018352600092602083019080368337019050509050838160008151811061044357610443610656565b6001600160a01b039092166020928302919091019091015273ae13d989dac2f0debff460ac112a837c89baa7cd8160018151811061048357610483610656565b6001600160a01b03928316602091820292909201015260005460405163095ea7b360e01b8152908216600482015260001960248201529085169063095ea7b3906044016020604051808303816000875af11580156104e5573d6000803e3d6000fd5b505050506040513d601f19601f82011682018060405250810190610509919061066c565b506000805460405163791ac94760e01b81526001600160a01b039091169163791ac947916105419186918690899042906004016106bb565b600060405180830381600087803b15801561055b57600080fd5b505af115801561056f573d6000803e3d6000fd5b5050505050505050565b60006020828403121561058b57600080fd5b5035919050565b80356001600160a01b03811681146105a957600080fd5b919050565b600080604083850312156105c157600080fd5b6105ca83610592565b946020939093013593505050565b600080600080608085870312156105ee57600080fd5b6105f785610592565b935061060560208601610592565b93969395505050506040820135916060013590565b60008060006060848603121561062f57600080fd5b61063884610592565b925061064660208501610592565b9150604084013590509250925092565b634e487b7160e01b600052603260045260246000fd5b60006020828403121561067e57600080fd5b8151801515811461068e57600080fd5b9392505050565b600082198211156106b657634e487b7160e01b600052601160045260246000fd5b500190565b600060a082018783526020878185015260a0604085015281875180845260c086019150828901935060005b8181101561070b5784516001600160a01b0316835293830193918301916001016106e6565b50506001600160a01b03969096166060850152505050608001529392505050565b60008060006060848603121561074157600080fd5b835192506020840151915060408401519050925092509256fea26469706673582212207f1ce60d63c130cf49100b324427b5dd71ec68b8e880c49ea2cb45e3e5e2a93964736f6c634300080e0033a2646970667358221220461f1899cd1f38541e290697e8bc1767deb1350eb89efa0ea0f115c8b425c16b64736f6c634300080e0033",
    "sourcePath": "/home/nkt/Desktop/metaStoksContracts/contracts/MetaStocks.sol",
    "compiler": {
        "name": "solc",
        "version": "0.8.14+commit.80d49f37"
    },
    "functionHashes": {
        "allowance(address,address)": "dd62ed3e",
        "approve(address,uint256)": "095ea7b3",
        "autoInjectLiquidity(uint256)": "d203abb6",
        "automatedMarketMakerPairs(address)": "b62496f5",
        "balanceOf(address)": "70a08231",
        "decimals()": "313ce567",
        "decreaseAllowance(address,uint256)": "a457c2d7",
        "enableTrading()": "8a8c523c",
        "getDexRouterManager()": "3da77333",
        "getFeesManager()": "c762819b",
        "getLPPair()": "86f3f3cb",
        "getOwner()": "893d20e8",
        "getSwapThreshold()": "f005f2ca",
        "getTradingEnabled()": "fa83cb58",
        "increaseAllowance(address,uint256)": "39509351",
        "initialize()": "8129fc1c",
        "initialize(string,string)": "4cd88b76",
        "name()": "06fdde03",
        "self()": "7104ddb2",
        "setDeadAddress()": "81fd3b00",
        "setFees(uint16,uint16,uint16)": "534c6bcb",
        "setFeesManager(address)": "1c89382a",
        "setMaxTransactionAmount(uint256)": "1e293c10",
        "setMaxWalletAmount(uint256)": "27a14fc2",
        "setSwapThreshold(uint256)": "9d0014b1",
        "symbol()": "95d89b41",
        "totalSupply()": "18160ddd",
        "transfer(address,uint256)": "a9059cbb",
        "transferFrom(address,address,uint256)": "23b872dd",
        "transferOwnership(address)": "f2fde38b"
    },
    "gasEstimates": {
        "creation": {
            "codeDepositCost": "2347400",
            "executionCost": "2516",
            "totalCost": "2349916"
        },
        "external": {
            "allowance(address,address)": "infinite",
            "approve(address,uint256)": "24664",
            "autoInjectLiquidity(uint256)": "infinite",
            "automatedMarketMakerPairs(address)": "2592",
            "balanceOf(address)": "2598",
            "decimals()": "223",
            "decreaseAllowance(address,uint256)": "27055",
            "enableTrading()": "28679",
            "getDexRouterManager()": "2410",
            "getFeesManager()": "2431",
            "getLPPair()": "2399",
            "getOwner()": "2421",
            "getSwapThreshold()": "2358",
            "getTradingEnabled()": "2414",
            "increaseAllowance(address,uint256)": "27040",
            "initialize()": "infinite",
            "initialize(string,string)": "infinite",
            "name()": "infinite",
            "self()": "301",
            "setDeadAddress()": "26566",
            "setFees(uint16,uint16,uint16)": "infinite",
            "setFeesManager(address)": "24622",
            "setMaxTransactionAmount(uint256)": "22380",
            "setMaxWalletAmount(uint256)": "22424",
            "setSwapThreshold(uint256)": "22401",
            "symbol()": "infinite",
            "totalSupply()": "2372",
            "transfer(address,uint256)": "infinite",
            "transferFrom(address,address,uint256)": "infinite",
            "transferOwnership(address)": "26793"
        }
    }
}