{
    "contractName": "MetaStocksToken",
    "abi": [
        {
            "inputs": [
                {
                    "internalType": "address",
                    "name": "routerAddress",
                    "type": "address"
                },
                {
                    "internalType": "address",
                    "name": "_distributionAddress",
                    "type": "address"
                },
                {
                    "internalType": "address",
                    "name": "tykheFortuneDistributorAddress",
                    "type": "address"
                }
            ],
            "stateMutability": "nonpayable",
            "type": "constructor"
        },
        {
            "anonymous": false,
            "inputs": [
                {
                    "indexed": true,
                    "internalType": "address",
                    "name": "owner",
                    "type": "address"
                },
                {
                    "indexed": true,
                    "internalType": "address",
                    "name": "spender",
                    "type": "address"
                },
                {
                    "indexed": false,
                    "internalType": "uint256",
                    "name": "value",
                    "type": "uint256"
                }
            ],
            "name": "Approval",
            "type": "event"
        },
        {
            "anonymous": false,
            "inputs": [
                {
                    "indexed": true,
                    "internalType": "address",
                    "name": "sender",
                    "type": "address"
                },
                {
                    "indexed": false,
                    "internalType": "uint256",
                    "name": "amount",
                    "type": "uint256"
                }
            ],
            "name": "Burn",
            "type": "event"
        },
        {
            "anonymous": false,
            "inputs": [
                {
                    "indexed": true,
                    "internalType": "address",
                    "name": "previousOwner",
                    "type": "address"
                },
                {
                    "indexed": true,
                    "internalType": "address",
                    "name": "newOwner",
                    "type": "address"
                }
            ],
            "name": "OwnershipTransferred",
            "type": "event"
        },
        {
            "anonymous": false,
            "inputs": [
                {
                    "indexed": false,
                    "internalType": "uint256",
                    "name": "tokensSwapped",
                    "type": "uint256"
                },
                {
                    "indexed": false,
                    "internalType": "uint256",
                    "name": "amount",
                    "type": "uint256"
                }
            ],
            "name": "SendDividends",
            "type": "event"
        },
        {
            "anonymous": false,
            "inputs": [
                {
                    "indexed": true,
                    "internalType": "address",
                    "name": "from",
                    "type": "address"
                },
                {
                    "indexed": true,
                    "internalType": "address",
                    "name": "to",
                    "type": "address"
                },
                {
                    "indexed": false,
                    "internalType": "uint256",
                    "name": "value",
                    "type": "uint256"
                }
            ],
            "name": "Transfer",
            "type": "event"
        },
        {
            "inputs": [],
            "name": "BUSD",
            "outputs": [
                {
                    "internalType": "address",
                    "name": "",
                    "type": "address"
                }
            ],
            "stateMutability": "view",
            "type": "function"
        },
        {
            "inputs": [],
            "name": "UNDERWORLD_DOOR",
            "outputs": [
                {
                    "internalType": "address",
                    "name": "",
                    "type": "address"
                }
            ],
            "stateMutability": "view",
            "type": "function"
        },
        {
            "inputs": [],
            "name": "_feesRates",
            "outputs": [
                {
                    "internalType": "uint16",
                    "name": "buyFee",
                    "type": "uint16"
                },
                {
                    "internalType": "uint16",
                    "name": "sellFee",
                    "type": "uint16"
                },
                {
                    "internalType": "uint16",
                    "name": "transferFee",
                    "type": "uint16"
                }
            ],
            "stateMutability": "view",
            "type": "function"
        },
        {
            "inputs": [
                {
                    "internalType": "address",
                    "name": "owner",
                    "type": "address"
                },
                {
                    "internalType": "address",
                    "name": "spender",
                    "type": "address"
                }
            ],
            "name": "allowance",
            "outputs": [
                {
                    "internalType": "uint256",
                    "name": "",
                    "type": "uint256"
                }
            ],
            "stateMutability": "view",
            "type": "function"
        },
        {
            "inputs": [
                {
                    "internalType": "address",
                    "name": "spender",
                    "type": "address"
                },
                {
                    "internalType": "uint256",
                    "name": "amount",
                    "type": "uint256"
                }
            ],
            "name": "approve",
            "outputs": [
                {
                    "internalType": "bool",
                    "name": "",
                    "type": "bool"
                }
            ],
            "stateMutability": "nonpayable",
            "type": "function"
        },
        {
            "inputs": [
                {
                    "internalType": "uint256",
                    "name": "tokenAmount",
                    "type": "uint256"
                }
            ],
            "name": "autoLiquidity",
            "outputs": [],
            "stateMutability": "nonpayable",
            "type": "function"
        },
        {
            "inputs": [
                {
                    "internalType": "address",
                    "name": "",
                    "type": "address"
                }
            ],
            "name": "automatedMarketMakerPairs",
            "outputs": [
                {
                    "internalType": "bool",
                    "name": "",
                    "type": "bool"
                }
            ],
            "stateMutability": "view",
            "type": "function"
        },
        {
            "inputs": [
                {
                    "internalType": "address",
                    "name": "account",
                    "type": "address"
                }
            ],
            "name": "balanceOf",
            "outputs": [
                {
                    "internalType": "uint256",
                    "name": "",
                    "type": "uint256"
                }
            ],
            "stateMutability": "view",
            "type": "function"
        },
        {
            "inputs": [
                {
                    "internalType": "uint256",
                    "name": "amount",
                    "type": "uint256"
                }
            ],
            "name": "burn",
            "outputs": [],
            "stateMutability": "nonpayable",
            "type": "function"
        },
        {
            "inputs": [],
            "name": "claimBusd",
            "outputs": [],
            "stateMutability": "view",
            "type": "function"
        },
        {
            "inputs": [
                {
                    "internalType": "address",
                    "name": "account",
                    "type": "address"
                }
            ],
            "name": "claimFlowersRewards",
            "outputs": [],
            "stateMutability": "nonpayable",
            "type": "function"
        },
        {
            "inputs": [],
            "name": "decimals",
            "outputs": [
                {
                    "internalType": "uint8",
                    "name": "",
                    "type": "uint8"
                }
            ],
            "stateMutability": "view",
            "type": "function"
        },
        {
            "inputs": [
                {
                    "internalType": "address",
                    "name": "spender",
                    "type": "address"
                },
                {
                    "internalType": "uint256",
                    "name": "subtractedValue",
                    "type": "uint256"
                }
            ],
            "name": "decreaseAllowance",
            "outputs": [
                {
                    "internalType": "bool",
                    "name": "",
                    "type": "bool"
                }
            ],
            "stateMutability": "nonpayable",
            "type": "function"
        },
        {
            "inputs": [],
            "name": "dexRouter",
            "outputs": [
                {
                    "internalType": "contract IUniswapV2Router02",
                    "name": "",
                    "type": "address"
                }
            ],
            "stateMutability": "view",
            "type": "function"
        },
        {
            "inputs": [],
            "name": "enableTrading",
            "outputs": [],
            "stateMutability": "nonpayable",
            "type": "function"
        },
        {
            "inputs": [
                {
                    "internalType": "address",
                    "name": "account",
                    "type": "address"
                },
                {
                    "internalType": "bool",
                    "name": "val",
                    "type": "bool"
                }
            ],
            "name": "excludeFromFee",
            "outputs": [],
            "stateMutability": "nonpayable",
            "type": "function"
        },
        {
            "inputs": [
                {
                    "internalType": "address",
                    "name": "account",
                    "type": "address"
                }
            ],
            "name": "getFlowersRewards",
            "outputs": [
                {
                    "internalType": "uint256",
                    "name": "",
                    "type": "uint256"
                }
            ],
            "stateMutability": "view",
            "type": "function"
        },
        {
            "inputs": [],
            "name": "getOwner",
            "outputs": [
                {
                    "internalType": "address",
                    "name": "",
                    "type": "address"
                }
            ],
            "stateMutability": "view",
            "type": "function"
        },
        {
            "inputs": [
                {
                    "internalType": "address",
                    "name": "account",
                    "type": "address"
                }
            ],
            "name": "getWithdrawableDividendOf",
            "outputs": [
                {
                    "internalType": "uint256",
                    "name": "",
                    "type": "uint256"
                }
            ],
            "stateMutability": "view",
            "type": "function"
        },
        {
            "inputs": [],
            "name": "hermesBusdDividendTracker",
            "outputs": [
                {
                    "internalType": "contract HermesDividendTracker",
                    "name": "",
                    "type": "address"
                }
            ],
            "stateMutability": "view",
            "type": "function"
        },
        {
            "inputs": [],
            "name": "hermesTokensDividendTracker",
            "outputs": [
                {
                    "internalType": "contract HermesDividendTracker",
                    "name": "",
                    "type": "address"
                }
            ],
            "stateMutability": "view",
            "type": "function"
        },
        {
            "inputs": [
                {
                    "internalType": "address",
                    "name": "spender",
                    "type": "address"
                },
                {
                    "internalType": "uint256",
                    "name": "addedValue",
                    "type": "uint256"
                }
            ],
            "name": "increaseAllowance",
            "outputs": [
                {
                    "internalType": "bool",
                    "name": "",
                    "type": "bool"
                }
            ],
            "stateMutability": "nonpayable",
            "type": "function"
        },
        {
            "inputs": [
                {
                    "internalType": "address",
                    "name": "account",
                    "type": "address"
                }
            ],
            "name": "isExcludedFromFee",
            "outputs": [
                {
                    "internalType": "bool",
                    "name": "",
                    "type": "bool"
                }
            ],
            "stateMutability": "view",
            "type": "function"
        },
        {
            "inputs": [],
            "name": "lpPair",
            "outputs": [
                {
                    "internalType": "address",
                    "name": "",
                    "type": "address"
                }
            ],
            "stateMutability": "view",
            "type": "function"
        },
        {
            "inputs": [],
            "name": "marketingAddress",
            "outputs": [
                {
                    "internalType": "address",
                    "name": "",
                    "type": "address"
                }
            ],
            "stateMutability": "view",
            "type": "function"
        },
        {
            "inputs": [],
            "name": "name",
            "outputs": [
                {
                    "internalType": "string",
                    "name": "",
                    "type": "string"
                }
            ],
            "stateMutability": "view",
            "type": "function"
        },
        {
            "inputs": [],
            "name": "owner",
            "outputs": [
                {
                    "internalType": "address",
                    "name": "",
                    "type": "address"
                }
            ],
            "stateMutability": "view",
            "type": "function"
        },
        {
            "inputs": [
                {
                    "internalType": "uint256",
                    "name": "value",
                    "type": "uint256"
                }
            ],
            "name": "setAutoLiquidityPercentPercent",
            "outputs": [],
            "stateMutability": "nonpayable",
            "type": "function"
        },
        {
            "inputs": [
                {
                    "internalType": "address",
                    "name": "account",
                    "type": "address"
                }
            ],
            "name": "setMarketingAddress",
            "outputs": [],
            "stateMutability": "nonpayable",
            "type": "function"
        },
        {
            "inputs": [
                {
                    "internalType": "uint256",
                    "name": "value",
                    "type": "uint256"
                }
            ],
            "name": "setMarketingAddressPercent",
            "outputs": [],
            "stateMutability": "nonpayable",
            "type": "function"
        },
        {
            "inputs": [
                {
                    "internalType": "uint256",
                    "name": "value",
                    "type": "uint256"
                }
            ],
            "name": "setMaxTransactionAmount",
            "outputs": [],
            "stateMutability": "nonpayable",
            "type": "function"
        },
        {
            "inputs": [
                {
                    "internalType": "uint256",
                    "name": "value",
                    "type": "uint256"
                }
            ],
            "name": "setMaxWalletAmount",
            "outputs": [],
            "stateMutability": "nonpayable",
            "type": "function"
        },
        {
            "inputs": [
                {
                    "internalType": "uint256",
                    "name": "value",
                    "type": "uint256"
                }
            ],
            "name": "setSwapThreshold",
            "outputs": [],
            "stateMutability": "nonpayable",
            "type": "function"
        },
        {
            "inputs": [
                {
                    "internalType": "uint16",
                    "name": "buyFee",
                    "type": "uint16"
                },
                {
                    "internalType": "uint16",
                    "name": "sellFee",
                    "type": "uint16"
                },
                {
                    "internalType": "uint16",
                    "name": "transferFee",
                    "type": "uint16"
                }
            ],
            "name": "setTaxes",
            "outputs": [],
            "stateMutability": "nonpayable",
            "type": "function"
        },
        {
            "inputs": [],
            "name": "swapThreshold",
            "outputs": [
                {
                    "internalType": "uint256",
                    "name": "",
                    "type": "uint256"
                }
            ],
            "stateMutability": "view",
            "type": "function"
        },
        {
            "inputs": [],
            "name": "swapTokenAddress",
            "outputs": [
                {
                    "internalType": "address",
                    "name": "",
                    "type": "address"
                }
            ],
            "stateMutability": "view",
            "type": "function"
        },
        {
            "inputs": [],
            "name": "symbol",
            "outputs": [
                {
                    "internalType": "string",
                    "name": "",
                    "type": "string"
                }
            ],
            "stateMutability": "view",
            "type": "function"
        },
        {
            "inputs": [],
            "name": "totalSupply",
            "outputs": [
                {
                    "internalType": "uint256",
                    "name": "",
                    "type": "uint256"
                }
            ],
            "stateMutability": "view",
            "type": "function"
        },
        {
            "inputs": [
                {
                    "internalType": "address",
                    "name": "to",
                    "type": "address"
                },
                {
                    "internalType": "uint256",
                    "name": "amount",
                    "type": "uint256"
                }
            ],
            "name": "transfer",
            "outputs": [
                {
                    "internalType": "bool",
                    "name": "",
                    "type": "bool"
                }
            ],
            "stateMutability": "nonpayable",
            "type": "function"
        },
        {
            "inputs": [],
            "name": "transferDelayEnabled",
            "outputs": [
                {
                    "internalType": "bool",
                    "name": "",
                    "type": "bool"
                }
            ],
            "stateMutability": "view",
            "type": "function"
        },
        {
            "inputs": [
                {
                    "internalType": "address",
                    "name": "from",
                    "type": "address"
                },
                {
                    "internalType": "address",
                    "name": "to",
                    "type": "address"
                },
                {
                    "internalType": "uint256",
                    "name": "amount",
                    "type": "uint256"
                }
            ],
            "name": "transferFrom",
            "outputs": [
                {
                    "internalType": "bool",
                    "name": "",
                    "type": "bool"
                }
            ],
            "stateMutability": "nonpayable",
            "type": "function"
        },
        {
            "inputs": [
                {
                    "internalType": "address",
                    "name": "account",
                    "type": "address"
                }
            ],
            "name": "transferOwnership",
            "outputs": [],
            "stateMutability": "nonpayable",
            "type": "function"
        },
        {
            "stateMutability": "payable",
            "type": "receive"
        }
    ],
    "bytecode": "6080604052600a6017553480156200001657600080fd5b5060405162005317380380620053178339810160408190526200003991620009be565b6040805180820182526003808252625a6f6560e81b6020808401829052845180860190955282855284015290919062000073838262000aac565b50600462000082828262000aac565b505050620000a2336a52b7d2dcc80cd2e40000006200077d60201b60201c565b69d3c21bcecceda1000000600e819055601355600580546001600160a01b0319908116331790915568056bc75e2d63100000601555678ac7230489e8000060165560068054821661dead179055600b805490911690556018805461ff0019166101001790556040518290620001179062000993565b6001600160a01b039091168152602001604051809103906000f08015801562000144573d6000803e3d6000fd5b50602080546001600160a01b0319166001600160a01b03929092169190911790556040513090620001759062000993565b6001600160a01b039091168152602001604051809103906000f080158015620001a2573d6000803e3d6000fd5b50602180546001600160a01b039283166001600160a01b0319918216179091556022805484841690831681179091556003601455600980548316736644ebde0f26c8f74ad18697cce8a5ac4e608cb4179055604080516060810182526103e880825260208201526000908201526024805465ffffffffffff19166303e803e8178155600880548887169516949094179093556005549051636612e66f60e01b81529316600484015260019183019190915290636612e66f90604401600060405180830381600087803b1580156200027857600080fd5b505af11580156200028d573d6000803e3d6000fd5b5050602254604051636612e66f60e01b8152306004820152600160248201526001600160a01b039091169250636612e66f9150604401600060405180830381600087803b158015620002de57600080fd5b505af1158015620002f3573d6000803e3d6000fd5b5050602254600954604051636612e66f60e01b81526001600160a01b0391821660048201526001602482015291169250636612e66f9150604401600060405180830381600087803b1580156200034857600080fd5b505af11580156200035d573d6000803e3d6000fd5b5050602254600854604051636612e66f60e01b81526001600160a01b0391821660048201526001602482015291169250636612e66f9150604401600060405180830381600087803b158015620003b257600080fd5b505af1158015620003c7573d6000803e3d6000fd5b5050683635c9adc5dea00000600c555050611388600f55610bb86010556103e86011819055601255602380546001600160a01b0319166001600160a01b0385169081179091556040805163c45a015560e01b8152905163c45a0155916004808201926020929091908290030181865afa15801562000449573d6000803e3d6000fd5b505050506040513d601f19601f820116820180604052508101906200046f919062000b78565b6001600160a01b031663c9c6539630602360009054906101000a90046001600160a01b03166001600160a01b031663ad5c46486040518163ffffffff1660e01b8152600401602060405180830381865afa158015620004d2573d6000803e3d6000fd5b505050506040513d601f19601f82011682018060405250810190620004f8919062000b78565b6040516001600160e01b031960e085901b1681526001600160a01b039283166004820152911660248201526044016020604051808303816000875af115801562000546573d6000803e3d6000fd5b505050506040513d601f19601f820116820180604052508101906200056c919062000b78565b600780546001600160a01b0319166001600160a01b039283169081179091556000908152601f60205260409020805460ff19166001179055602354620005b89133911660001962000866565b620005c7333060001962000866565b600854620005e39033906001600160a01b031660001962000866565b602354620005ff9030906001600160a01b031660001962000866565b6200060e303360001962000866565b6008546200062a9030906001600160a01b031660001962000866565b6008546023546200064b916001600160a01b03908116911660001962000866565b6023546008546200066c916001600160a01b03908116911660001962000866565b60085460235460405163095ea7b360e01b81526001600160a01b039182166004820152600019602482015291169063095ea7b3906044016020604051808303816000875af1158015620006c3573d6000803e3d6000fd5b505050506040513d601f19601f82011682018060405250810190620006e9919062000b9d565b5060085460405163095ea7b360e01b815230600482015260001960248201526001600160a01b039091169063095ea7b3906044016020604051808303816000875af11580156200073d573d6000803e3d6000fd5b505050506040513d601f19601f8201168201806040525081019062000763919062000b9d565b50506018805460ff191690555050612710600d5562000be8565b6001600160a01b038216620007d95760405162461bcd60e51b815260206004820152601f60248201527f45524332303a206d696e7420746f20746865207a65726f20616464726573730060448201526064015b60405180910390fd5b8060026000828254620007ed919062000bc1565b90915550506001600160a01b038216600090815260208190526040812080548392906200081c90849062000bc1565b90915550506040518181526001600160a01b038316906000907fddf252ad1be2c89b69c2b068fc378daa952ba7f163c4a11628f55a4df523b3ef9060200160405180910390a35050565b6001600160a01b038316620008ca5760405162461bcd60e51b8152602060048201526024808201527f45524332303a20617070726f76652066726f6d20746865207a65726f206164646044820152637265737360e01b6064820152608401620007d0565b6001600160a01b0382166200092d5760405162461bcd60e51b815260206004820152602260248201527f45524332303a20617070726f766520746f20746865207a65726f206164647265604482015261737360f01b6064820152608401620007d0565b6001600160a01b0383811660008181526001602090815260408083209487168084529482529182902085905590518481527f8c5be1e5ebec7d5bd14f71427d1e84f3dd0314c0f7b2291e5b200ac8c7c3b925910160405180910390a3505050565b505050565b6122f1806200302683390190565b80516001600160a01b0381168114620009b957600080fd5b919050565b600080600060608486031215620009d457600080fd5b620009df84620009a1565b9250620009ef60208501620009a1565b9150620009ff60408501620009a1565b90509250925092565b634e487b7160e01b600052604160045260246000fd5b600181811c9082168062000a3357607f821691505b60208210810362000a5457634e487b7160e01b600052602260045260246000fd5b50919050565b601f8211156200098e57600081815260208120601f850160051c8101602086101562000a835750805b601f850160051c820191505b8181101562000aa45782815560010162000a8f565b505050505050565b81516001600160401b0381111562000ac85762000ac862000a08565b62000ae08162000ad9845462000a1e565b8462000a5a565b602080601f83116001811462000b18576000841562000aff5750858301515b600019600386901b1c1916600185901b17855562000aa4565b600085815260208120601f198616915b8281101562000b495788860151825594840194600190910190840162000b28565b508582101562000b685787850151600019600388901b60f8161c191681555b5050505050600190811b01905550565b60006020828403121562000b8b57600080fd5b62000b9682620009a1565b9392505050565b60006020828403121562000bb057600080fd5b8151801515811462000b9657600080fd5b6000821982111562000be357634e487b7160e01b600052601160045260246000fd5b500190565b61242e8062000bf86000396000f3fe6080604052600436106102555760003560e01c80637bb7f07211610139578063aedc6bd8116100b6578063ca654dd31161007a578063ca654dd314610745578063d386a9491461075a578063dd62ed3e1461077a578063df8408fe1461079a578063f2fde38b146107ba578063f36f79e0146107da57600080fd5b8063aedc6bd81461069b578063afb77359146106bb578063b62496f5146106db578063c6aca36b1461070b578063c876d0b91461072b57600080fd5b806395d89b41116100fd57806395d89b41146106065780639d0014b11461061b578063a457c2d71461063b578063a5ece9411461065b578063a9059cbb1461067b57600080fd5b80637bb7f07214610573578063893d20e8146105935780638a8c523c146105b15780638da5cb5b146105c6578063906e9dd0146105e657600080fd5b806327a14fc2116101d257806342966c681161019657806342966c681461049d578063452ed4f1146104bd578063484f4ea9146104dd5780635342acb4146104fd5780636240eedc1461051d57806370a082311461053d57600080fd5b806327a14fc214610401578063313ce5671461042157806332cde6641461043d57806337044fb71461045d578063395093511461047d57600080fd5b806318160ddd1161021957806318160ddd146103345780631c06a7e1146103495780631e293c101461039f57806323b872dd146103c157806326f64b44146103e157600080fd5b80630445b6671461026157806306fdde031461028a57806307185191146102ac5780630758d924146102e4578063095ea7b31461030457600080fd5b3661025c57005b600080fd5b34801561026d57600080fd5b50610277600c5481565b6040519081526020015b60405180910390f35b34801561029657600080fd5b5061029f6107fa565b6040516102819190611f74565b3480156102b857600080fd5b506021546102cc906001600160a01b031681565b6040516001600160a01b039091168152602001610281565b3480156102f057600080fd5b506023546102cc906001600160a01b031681565b34801561031057600080fd5b5061032461031f366004611fe1565b61088c565b6040519015158152602001610281565b34801561034057600080fd5b50600254610277565b34801561035557600080fd5b5060245461037a9061ffff808216916201000081048216916401000000009091041683565b6040805161ffff94851681529284166020840152921691810191909152606001610281565b3480156103ab57600080fd5b506103bf6103ba36600461200d565b6108a4565b005b3480156103cd57600080fd5b506103246103dc366004612026565b6108dc565b3480156103ed57600080fd5b506103bf6103fc36600461200d565b610900565b34801561040d57600080fd5b506103bf61041c36600461200d565b61092f565b34801561042d57600080fd5b5060405160128152602001610281565b34801561044957600080fd5b506103bf61045836600461207e565b61095e565b34801561046957600080fd5b506020546102cc906001600160a01b031681565b34801561048957600080fd5b50610324610498366004611fe1565b6109c7565b3480156104a957600080fd5b506103bf6104b836600461200d565b6109e9565b3480156104c957600080fd5b506007546102cc906001600160a01b031681565b3480156104e957600080fd5b50600a546102cc906001600160a01b031681565b34801561050957600080fd5b506103246105183660046120c1565b610aa2565b34801561052957600080fd5b506102776105383660046120c1565b610b17565b34801561054957600080fd5b506102776105583660046120c1565b6001600160a01b031660009081526020819052604090205490565b34801561057f57600080fd5b506103bf61058e36600461200d565b610b86565b34801561059f57600080fd5b506005546001600160a01b03166102cc565b3480156105bd57600080fd5b506103bf610bb5565b3480156105d257600080fd5b506005546102cc906001600160a01b031681565b3480156105f257600080fd5b506103bf6106013660046120c1565b610c48565b34801561061257600080fd5b5061029f610c94565b34801561062757600080fd5b506103bf61063636600461200d565b610ca3565b34801561064757600080fd5b50610324610656366004611fe1565b610cd2565b34801561066757600080fd5b506009546102cc906001600160a01b031681565b34801561068757600080fd5b50610324610696366004611fe1565b610d4d565b3480156106a757600080fd5b506103bf6106b63660046120c1565b610d5b565b3480156106c757600080fd5b506102776106d63660046120c1565b610dfe565b3480156106e757600080fd5b506103246106f63660046120c1565b601f6020526000908152604090205460ff1681565b34801561071757600080fd5b506103bf61072636600461200d565b610e70565b34801561073757600080fd5b50601b546103249060ff1681565b34801561075157600080fd5b506103bf610ea7565b34801561076657600080fd5b506006546102cc906001600160a01b031681565b34801561078657600080fd5b506102776107953660046120e5565b610f09565b3480156107a657600080fd5b506103bf6107b536600461212c565b610f34565b3480156107c657600080fd5b506103bf6107d53660046120c1565b610fca565b3480156107e657600080fd5b506008546102cc906001600160a01b031681565b6060600380546108099061215a565b80601f01602080910402602001604051908101604052809291908181526020018280546108359061215a565b80156108825780601f1061085757610100808354040283529160200191610882565b820191906000526020600020905b81548152906001019060200180831161086557829003601f168201915b5050505050905090565b60003361089a818585611016565b5060019392505050565b6005546001600160a01b031633146108d75760405162461bcd60e51b81526004016108ce90612194565b60405180910390fd5b601355565b6000336108ea85828561113a565b6108f58585856111ae565b506001949350505050565b6005546001600160a01b0316331461092a5760405162461bcd60e51b81526004016108ce90612194565b601055565b6005546001600160a01b031633146109595760405162461bcd60e51b81526004016108ce90612194565b600e55565b6005546001600160a01b031633146109885760405162461bcd60e51b81526004016108ce90612194565b6024805461ffff94851663ffffffff199091161762010000938516939093029290921765ffff0000000019166401000000009190931602919091179055565b60003361089a8185856109da8383610f09565b6109e491906121df565b611016565b33600090815260208190526040902054811115610a605760405162461bcd60e51b815260206004820152602f60248201527f4275726e20616d6f756e742073686f756c64206265206c657373207468616e2060448201526e6163636f756e742062616c616e636560881b60648201526084016108ce565b610a6a33826113b2565b60405181815233907fcc16f5dbb4873280815c1ee09dbd06736cffcc184412cf7a71a0fdb75d397ca59060200160405180910390a250565b6022546040516314d0ab2d60e21b81526001600160a01b0383811660048301526000921690635342acb490602401602060405180830381865afa158015610aed573d6000803e3d6000fd5b505050506040513d601f19601f82011682018060405250810190610b1191906121f7565b92915050565b6020546040516302a2e74960e61b81526001600160a01b038381166004830152600092169063a8b9d24090602401602060405180830381865afa158015610b62573d6000803e3d6000fd5b505050506040513d601f19601f82011682018060405250810190610b119190612214565b6005546001600160a01b03163314610bb05760405162461bcd60e51b81526004016108ce90612194565b600f55565b6005546001600160a01b03163314610bdf5760405162461bcd60e51b81526004016108ce90612194565b601854610100900460ff1615610c375760405162461bcd60e51b815260206004820152601e60248201527f54726164696e67456e61626c656420616c72656164792061637469766564000060448201526064016108ce565b6018805461ff001916610100179055565b6005546001600160a01b03163314610c725760405162461bcd60e51b81526004016108ce90612194565b600980546001600160a01b0319166001600160a01b0392909216919091179055565b6060600480546108099061215a565b6005546001600160a01b03163314610ccd5760405162461bcd60e51b81526004016108ce90612194565b600c55565b60003381610ce08286610f09565b905083811015610d405760405162461bcd60e51b815260206004820152602560248201527f45524332303a2064656372656173656420616c6c6f77616e63652062656c6f77604482015264207a65726f60d81b60648201526084016108ce565b6108f58286868403611016565b60003361089a8185856111ae565b6000610d6682610dfe565b6040516323b872dd60e01b815230600482018190526001600160a01b0385166024830152604482018390529192506323b872dd906064016020604051808303816000875af1158015610dbc573d6000803e3d6000fd5b505050506040513d601f19601f82011682018060405250810190610de091906121f7565b50506001600160a01b03166000908152601e60205260409020429055565b60008080805b81811015610e67576017546016546001600160a01b0387166000908152601e6020526040902054610e35904261222d565b610e3f9190612244565b610e499190612263565b610e5390846121df565b925080610e5f81612285565b915050610e04565b50909392505050565b6000610e7d600283612263565b905047610e8982611500565b6000610e95824761222d565b9050610ea1838261162d565b50505050565b602060009054906101000a90046001600160a01b03166001600160a01b0316636a4740026040518163ffffffff1660e01b815260040160006040518083038186803b158015610ef557600080fd5b505afa158015610ea1573d6000803e3d6000fd5b6001600160a01b03918216600090815260016020908152604080832093909416825291909152205490565b6005546001600160a01b03163314610f5e5760405162461bcd60e51b81526004016108ce90612194565b602254604051636612e66f60e01b81526001600160a01b038481166004830152831515602483015290911690636612e66f906044015b600060405180830381600087803b158015610fae57600080fd5b505af1158015610fc2573d6000803e3d6000fd5b505050505050565b6005546001600160a01b03163314610ff45760405162461bcd60e51b81526004016108ce90612194565b600580546001600160a01b0319166001600160a01b0392909216919091179055565b6001600160a01b0383166110785760405162461bcd60e51b8152602060048201526024808201527f45524332303a20617070726f76652066726f6d20746865207a65726f206164646044820152637265737360e01b60648201526084016108ce565b6001600160a01b0382166110d95760405162461bcd60e51b815260206004820152602260248201527f45524332303a20617070726f766520746f20746865207a65726f206164647265604482015261737360f01b60648201526084016108ce565b6001600160a01b0383811660008181526001602090815260408083209487168084529482529182902085905590518481527f8c5be1e5ebec7d5bd14f71427d1e84f3dd0314c0f7b2291e5b200ac8c7c3b925910160405180910390a3505050565b60006111468484610f09565b90506000198114610ea157818110156111a15760405162461bcd60e51b815260206004820152601d60248201527f45524332303a20696e73756666696369656e7420616c6c6f77616e636500000060448201526064016108ce565b610ea18484848403611016565b6111b9838383611709565b60185460ff16156111d4576111cf8383836119ac565b505050565b30600090815260208190526040902054600c54811080159081906111fb575060185460ff16155b801561121557506005546001600160a01b03868116911614155b801561122f57506007546001600160a01b03868116911614155b801561125357506007546001600160a01b0316600090815260208190526040812054115b80156112ca57506022546040516314d0ab2d60e21b81526001600160a01b03868116600483015290911690635342acb490602401602060405180830381865afa1580156112a4573d6000803e3d6000fd5b505050506040513d601f19601f820116820180604052508101906112c891906121f7565b155b801561134157506022546040516314d0ab2d60e21b81526001600160a01b03878116600483015290911690635342acb490602401602060405180830381865afa15801561131b573d6000803e3d6000fd5b505050506040513d601f19601f8201168201806040525081019061133f91906121f7565b155b156113a0576018805460ff19166001179055600d54600f5461137791906113689085612244565b6113729190612263565b611b00565b611395600d546010548461138b9190612244565b6107269190612263565b6018805460ff191690555b6113ab858585611d92565b5050505050565b6001600160a01b0382166114125760405162461bcd60e51b815260206004820152602160248201527f45524332303a206275726e2066726f6d20746865207a65726f206164647265736044820152607360f81b60648201526084016108ce565b6001600160a01b038216600090815260208190526040902054818110156114865760405162461bcd60e51b815260206004820152602260248201527f45524332303a206275726e20616d6f756e7420657863656564732062616c616e604482015261636560f01b60648201526084016108ce565b6001600160a01b03831660009081526020819052604081208383039055600280548492906114b590849061222d565b90915550506040518281526000906001600160a01b038516907fddf252ad1be2c89b69c2b068fc378daa952ba7f163c4a11628f55a4df523b3ef9060200160405180910390a3505050565b60408051600280825260608201835260009260208301908036833701905050905030816000815181106115355761153561229e565b6001600160a01b03928316602091820292909201810191909152602354604080516315ab88c960e31b81529051919093169263ad5c46489260048083019391928290030181865afa15801561158e573d6000803e3d6000fd5b505050506040513d601f19601f820116820180604052508101906115b291906122b4565b816001815181106115c5576115c561229e565b6001600160a01b0392831660209182029290920101526023546115eb9130911684611016565b6023546001600160a01b031663791ac947836000843061160d426103e86121df565b6040518663ffffffff1660e01b8152600401610f949594939291906122d1565b6023546116479030906001600160a01b0316600019611016565b6023546005546001600160a01b039182169163f305d71991849130918791600091829116611677426127106121df565b60405160e089901b6001600160e01b03191681526001600160a01b039687166004820152602481019590955260448501939093526064840191909152909216608482015260a481019190915260c40160606040518083038185885af11580156116e4573d6000803e3d6000fd5b50505050506040513d601f19601f820116820180604052508101906113ab9190612342565b600b546001600160a01b03908116908416036117375760405162461bcd60e51b81526004016108ce90612370565b600b546001600160a01b03908116908316036117655760405162461bcd60e51b81526004016108ce906123b5565b806000036117b55760405162461bcd60e51b815260206004820152601e60248201527f5472616e7366657220616d6f756e742063616e6e6f74206265207a65726f000060448201526064016108ce565b6001600160a01b0383166118215760405162461bcd60e51b815260206004820152602d60248201527f45524332303a207472616e736665722066726f6d20746865205a45524f5f414460448201526c4452455353206164647265737360981b60648201526084016108ce565b6001600160a01b03821661188b5760405162461bcd60e51b815260206004820152602b60248201527f45524332303a207472616e7366657220746f20746865205a45524f5f4144445260448201526a455353206164647265737360a81b60648201526084016108ce565b600081116118f55760405162461bcd60e51b815260206004820152603160248201527f5472616e7366657220616d6f756e74206d7573742062652067726561746572206044820152707468616e205a45524f5f4144445245535360781b60648201526084016108ce565b6005546001600160a01b0384811691161480159061192157506005546001600160a01b03838116911614155b801561193557506001600160a01b03821615155b801561194c57506001600160a01b03821661dead14155b801561195b575060185460ff16155b156111cf57601854610100900460ff166111cf5760405162461bcd60e51b815260206004820152601260248201527154726164696e67206e6f742061637469766560701b60448201526064016108ce565b6001600160a01b0383166119d25760405162461bcd60e51b81526004016108ce90612370565b6001600160a01b0382166119f85760405162461bcd60e51b81526004016108ce906123b5565b6001600160a01b03831660009081526020819052604090205481811015611a705760405162461bcd60e51b815260206004820152602660248201527f45524332303a207472616e7366657220616d6f756e7420657863656564732062604482015265616c616e636560d01b60648201526084016108ce565b6001600160a01b03808516600090815260208190526040808220858503905591851681529081208054849290611aa79084906121df565b92505081905550826001600160a01b0316846001600160a01b03167fddf252ad1be2c89b69c2b068fc378daa952ba7f163c4a11628f55a4df523b3ef84604051611af391815260200190565b60405180910390a3610ea1565b60408051600380825260808201909252600091602082016060803683370190505090503081600081518110611b3757611b3761229e565b6001600160a01b03928316602091820292909201810191909152602354604080516315ab88c960e31b81529051919093169263ad5c46489260048083019391928290030181865afa158015611b90573d6000803e3d6000fd5b505050506040513d601f19601f82011682018060405250810190611bb491906122b4565b81600181518110611bc757611bc761229e565b6001600160a01b039283166020918202929092010152600854825191169082906002908110611bf857611bf861229e565b6001600160a01b03928316602091820292909201015260085460235460405163095ea7b360e01b81529083166004820152600019602482015291169063095ea7b3906044016020604051808303816000875af1158015611c5c573d6000803e3d6000fd5b505050506040513d601f19601f82011682018060405250810190611c8091906121f7565b50602360009054906101000a90046001600160a01b03166001600160a01b031663ad5c46486040518163ffffffff1660e01b8152600401602060405180830381865afa158015611cd4573d6000803e3d6000fd5b505050506040513d601f19601f82011682018060405250810190611cf891906122b4565b60235460405163095ea7b360e01b81526001600160a01b039182166004820152600019602482015291169063095ea7b3906044016020604051808303816000875af1158015611d4b573d6000803e3d6000fd5b505050506040513d601f19601f82011682018060405250810190611d6f91906121f7565b506023546001600160a01b0316635c11d795836000843061160d426103e86121df565b6022546040516314d0ab2d60e21b81526001600160a01b038581166004830152839260009260019290911690635342acb490602401602060405180830381865afa158015611de4573d6000803e3d6000fd5b505050506040513d601f19601f82011682018060405250810190611e0891906121f7565b80611e7c57506022546040516314d0ab2d60e21b81526001600160a01b03878116600483015290911690635342acb490602401602060405180830381865afa158015611e58573d6000803e3d6000fd5b505050506040513d601f19601f82011682018060405250810190611e7c91906121f7565b15611e85575060005b8015611eaf57611e96868686611eba565b9150611ea2828561222d565b9250611eaf8630846119ac565b610fc28686856119ac565b6001600160a01b0383166000908152601f60205260408120548190819060ff1615611ef757602454611ef09061ffff16836121df565b9150611f4b565b6001600160a01b0385166000908152601f602052604090205460ff1615611f2f57602454611ef09062010000900461ffff16836121df565b602454611f4890640100000000900461ffff16836121df565b91505b8115611f6b57600d54611f5e8386612244565b611f689190612263565b90505b95945050505050565b600060208083528351808285015260005b81811015611fa157858101830151858201604001528201611f85565b81811115611fb3576000604083870101525b50601f01601f1916929092016040019392505050565b6001600160a01b0381168114611fde57600080fd5b50565b60008060408385031215611ff457600080fd5b8235611fff81611fc9565b946020939093013593505050565b60006020828403121561201f57600080fd5b5035919050565b60008060006060848603121561203b57600080fd5b833561204681611fc9565b9250602084013561205681611fc9565b929592945050506040919091013590565b803561ffff8116811461207957600080fd5b919050565b60008060006060848603121561209357600080fd5b61209c84612067565b92506120aa60208501612067565b91506120b860408501612067565b90509250925092565b6000602082840312156120d357600080fd5b81356120de81611fc9565b9392505050565b600080604083850312156120f857600080fd5b823561210381611fc9565b9150602083013561211381611fc9565b809150509250929050565b8015158114611fde57600080fd5b6000806040838503121561213f57600080fd5b823561214a81611fc9565b915060208301356121138161211e565b600181811c9082168061216e57607f821691505b60208210810361218e57634e487b7160e01b600052602260045260246000fd5b50919050565b6020808252818101527f4f776e61626c653a2063616c6c6572206973206e6f7420746865206f776e6572604082015260600190565b634e487b7160e01b600052601160045260246000fd5b600082198211156121f2576121f26121c9565b500190565b60006020828403121561220957600080fd5b81516120de8161211e565b60006020828403121561222657600080fd5b5051919050565b60008282101561223f5761223f6121c9565b500390565b600081600019048311821515161561225e5761225e6121c9565b500290565b60008261228057634e487b7160e01b600052601260045260246000fd5b500490565b600060018201612297576122976121c9565b5060010190565b634e487b7160e01b600052603260045260246000fd5b6000602082840312156122c657600080fd5b81516120de81611fc9565b600060a082018783526020878185015260a0604085015281875180845260c086019150828901935060005b818110156123215784516001600160a01b0316835293830193918301916001016122fc565b50506001600160a01b03969096166060850152505050608001529392505050565b60008060006060848603121561235757600080fd5b8351925060208401519150604084015190509250925092565b60208082526025908201527f45524332303a207472616e736665722066726f6d20746865207a65726f206164604082015264647265737360d81b606082015260800190565b60208082526023908201527f45524332303a207472616e7366657220746f20746865207a65726f206164647260408201526265737360e81b60608201526080019056fea26469706673582212201712717397cc1e6c9e02bef6b69c0844aeb7a68ac7947e4c14779bd08e5adf6164736f6c634300080f003360a06040523480156200001157600080fd5b50604051620022f1380380620022f18339810160408190526200003491620000db565b604080518082018252601a8082527f54657374546f6b656e5f4469766964656e645f547261636b657200000000000060208084018290528451808601909552918452908301529082828260036200008c8382620001b2565b5060046200009b8282620001b2565b5050600780546001600160a01b0319166001600160a01b039390931692909217909155505060c8601355505069021e19e0c9bab24000006080526200027e565b600060208284031215620000ee57600080fd5b81516001600160a01b03811681146200010657600080fd5b9392505050565b634e487b7160e01b600052604160045260246000fd5b600181811c908216806200013857607f821691505b6020821081036200015957634e487b7160e01b600052602260045260246000fd5b50919050565b601f821115620001ad57600081815260208120601f850160051c81016020861015620001885750805b601f850160051c820191505b81811015620001a95782815560010162000194565b5050505b505050565b81516001600160401b03811115620001ce57620001ce6200010d565b620001e681620001df845462000123565b846200015f565b602080601f8311600181146200021e5760008415620002055750858301515b600019600386901b1c1916600185901b178555620001a9565b600085815260208120601f198616915b828110156200024f578886015182559484019460019091019084016200022e565b50858210156200026e5787850151600019600388901b60f8161c191681555b5050505050600190811b01905550565b608051612050620002a16000396000818161058a0152610e0501526120506000f3fe6080604052600436106101fd5760003560e01c806385a6b3ae1161010d578063be10b614116100a0578063e7841ec01161006f578063e7841ec01461060c578063e98030c714610621578063f2fde38b14610641578063fbcbc0f114610661578063ffb2c4791461068157600080fd5b8063be10b61414610578578063d16f7e14146105ac578063dd62ed3e146105cc578063e30443bc146105ec57600080fd5b8063a8b9d240116100dc578063a8b9d240146104e2578063a9059cbb14610502578063aafd847a14610522578063bc4c4b371461055857600080fd5b806385a6b3ae1461047757806391b89fba1461048d57806395d89b41146104ad578063a457c2d7146104c257600080fd5b80633009a609116101905780634e7b827f1161015f5780634e7b827f146103815780635183d6fd146103b15780636a474002146104165780636f2789ec1461042b57806370a082311461044157600080fd5b80633009a6091461030f578063313ce5671461032557806331e79db014610341578063395093511461036157600080fd5b806318160ddd116101cc57806318160ddd1461028d578063226cfa3d146102a257806323b872dd146102cf57806327ce0147146102ef57600080fd5b806303c833021461020957806306fdde0314610213578063095ea7b31461023e57806309bbedde1461026e57600080fd5b3661020457005b600080fd5b6102116106bc565b005b34801561021f57600080fd5b5061022861074f565b6040516102359190611cd6565b60405180910390f35b34801561024a57600080fd5b5061025e610259366004611d40565b6107e1565b6040519015158152602001610235565b34801561027a57600080fd5b50600b545b604051908152602001610235565b34801561029957600080fd5b5060025461027f565b3480156102ae57600080fd5b5061027f6102bd366004611d6c565b60126020526000908152604090205481565b3480156102db57600080fd5b5061025e6102ea366004611d89565b6107fb565b3480156102fb57600080fd5b5061027f61030a366004611d6c565b61081f565b34801561031b57600080fd5b5061027f600f5481565b34801561033157600080fd5b5060405160128152602001610235565b34801561034d57600080fd5b5061021161035c366004611d6c565b61087b565b34801561036d57600080fd5b5061025e61037c366004611d40565b61098f565b34801561038d57600080fd5b5061025e61039c366004611d6c565b60116020526000908152604090205460ff1681565b3480156103bd57600080fd5b506103d16103cc366004611dca565b6109b1565b604080516001600160a01b0390991689526020890197909752958701949094526060860192909252608085015260a084015260c083015260e082015261010001610235565b34801561042257600080fd5b50610211610b05565b34801561043757600080fd5b5061027f60135481565b34801561044d57600080fd5b5061027f61045c366004611d6c565b6001600160a01b031660009081526020819052604090205490565b34801561048357600080fd5b5061027f600a5481565b34801561049957600080fd5b5061027f6104a8366004611d6c565b610bb6565b3480156104b957600080fd5b50610228610bc1565b3480156104ce57600080fd5b5061025e6104dd366004611d40565b610bd0565b3480156104ee57600080fd5b5061027f6104fd366004611d6c565b610c4b565b34801561050e57600080fd5b5061025e61051d366004611d40565b610c77565b34801561052e57600080fd5b5061027f61053d366004611d6c565b6001600160a01b031660009081526009602052604090205490565b34801561056457600080fd5b5061025e610573366004611df1565b610c85565b34801561058457600080fd5b5061027f7f000000000000000000000000000000000000000000000000000000000000000081565b3480156105b857600080fd5b506102116105c7366004611dca565b610d20565b3480156105d857600080fd5b5061027f6105e7366004611e2a565b610da1565b3480156105f857600080fd5b50610211610607366004611d40565b610dcc565b34801561061857600080fd5b50600f5461027f565b34801561062d57600080fd5b5061021161063c366004611dca565b610f41565b34801561064d57600080fd5b5061021161065c366004611d6c565b6110ab565b34801561066d57600080fd5b506103d161067c366004611d6c565b611179565b34801561068d57600080fd5b506106a161069c366004611dca565b6112e2565b60408051938452602084019290925290820152606001610235565b60006106c760025490565b116106d157600080fd5b341561074d576107046106e360025490565b6106f134600160801b6113ff565b6106fb9190611e6e565b60055490611488565b60055560405134815233907fa493a9229478c3fcd73f66d2cdeb7f94fd0f341da924d1054236d784541165119060200160405180910390a2600a546107499034611488565b600a555b565b60606003805461075e90611e90565b80601f016020809104026020016040519081016040528092919081815260200182805461078a90611e90565b80156107d75780601f106107ac576101008083540402835291602001916107d7565b820191906000526020600020905b8154815290600101906020018083116107ba57829003601f168201915b5050505050905090565b6000336107ef8185856114e7565b60019150505b92915050565b60003361080985828561160b565b610814858585611685565b506001949350505050565b6001600160a01b03811660009081526008602090815260408083205491839052822054600554600160801b926108719261086c926108669161086191906113ff565b6116e6565b906116f6565b611734565b6107f59190611e6e565b6010546001600160a01b0316331461089257600080fd5b6001600160a01b03811660009081526011602052604090205460ff16156108b857600080fd5b6001600160a01b0381166000908152601160205260408120805460ff191660011790556108e6908290611747565b60405163131836e760e21b8152600b60048201526001600160a01b038216602482015273__$8b3b58975e955577f2991db06eb113a332$__90634c60db9c9060440160006040518083038186803b15801561094057600080fd5b505af4158015610954573d6000803e3d6000fd5b50506040516001600160a01b03841692507fa878b31040b2e6d0a9a3d3361209db3908ba62014b0dca52adbaee451d128b259150600090a250565b6000336107ef8185856109a28383610da1565b6109ac9190611eca565b6114e7565b600080600080600080600080600b73__$8b3b58975e955577f2991db06eb113a332$__63deb3d89690916040518263ffffffff1660e01b81526004016109f991815260200190565b602060405180830381865af4158015610a16573d6000803e3d6000fd5b505050506040513d601f19601f82011682018060405250810190610a3a9190611ee2565b8910610a5f575060009650600019955085945086935083925082915081905080610afa565b6040516368d54f3f60e11b8152600b6004820152602481018a905260009073__$8b3b58975e955577f2991db06eb113a332$__9063d1aa9e7e90604401602060405180830381865af4158015610ab9573d6000803e3d6000fd5b505050506040513d601f19601f82011682018060405250810190610add9190611efb565b9050610ae881611179565b98509850985098509850985098509850505b919395975091939597565b60405162461bcd60e51b815260206004820152606f60248201527f54657374546f6b656e5f4469766964656e645f547261636b65723a207769746860448201527f647261774469766964656e642064697361626c65642e2055736520746865202760648201527f636c61696d272066756e6374696f6e206f6e20746865206d61696e205465737460848201526e2a37b5b2b71031b7b73a3930b1ba1760891b60a482015260c4015b60405180910390fd5b60006107f582610c4b565b60606004805461075e90611e90565b60003381610bde8286610da1565b905083811015610c3e5760405162461bcd60e51b815260206004820152602560248201527f45524332303a2064656372656173656420616c6c6f77616e63652062656c6f77604482015264207a65726f60d81b6064820152608401610bad565b61081482868684036114e7565b6001600160a01b0381166000908152600960205260408120546107f590610c718461081f565b906117a6565b6000336107ef818585611685565b6010546000906001600160a01b03163314610c9f57600080fd5b6000610caa84611802565b90508015610d16576001600160a01b038416600081815260126020526040908190204290555184151591907fa2c38e2d2fb7e3e1912d937fd1ca11ed6d51864dee4cfa7a7bf02becd7acf09290610d049085815260200190565b60405180910390a360019150506107f5565b5060009392505050565b6000610d2b60025490565b11610d3557600080fd5b8015610d9e57610d55610d4760025490565b6106f183600160801b6113ff565b60055560405181815233907fa493a9229478c3fcd73f66d2cdeb7f94fd0f341da924d1054236d784541165119060200160405180910390a2600a54610d9a9082611488565b600a555b50565b6001600160a01b03918216600090815260016020908152604080832093909416825291909152205490565b6010546001600160a01b03163314610de357600080fd5b6001600160a01b03821660009081526011602052604090205460ff16610f3d577f00000000000000000000000000000000000000000000000000000000000000008110610eb257610e348282611747565b604051632f0ad01760e21b8152600b60048201526001600160a01b03831660248201526044810182905273__$8b3b58975e955577f2991db06eb113a332$__9063bc2b405c9060640160006040518083038186803b158015610e9557600080fd5b505af4158015610ea9573d6000803e3d6000fd5b50505050610f30565b610ebd826000611747565b60405163131836e760e21b8152600b60048201526001600160a01b038316602482015273__$8b3b58975e955577f2991db06eb113a332$__90634c60db9c9060440160006040518083038186803b158015610f1757600080fd5b505af4158015610f2b573d6000803e3d6000fd5b505050505b610f3b826001610c85565b505b5050565b6010546001600160a01b03163314610f5857600080fd5b610e108110158015610f6d5750620151808111155b610ff75760405162461bcd60e51b815260206004820152604f60248201527f54657374546f6b656e5f4469766964656e645f547261636b65723a20636c616960448201527f6d57616974206d757374206265207570646174656420746f206265747765656e60648201526e203120616e6420323420686f75727360881b608482015260a401610bad565b60135481036110785760405162461bcd60e51b815260206004820152604160248201527f54657374546f6b656e5f4469766964656e645f547261636b65723a2043616e6e60448201527f6f742075706461746520636c61696d5761697420746f2073616d652076616c756064820152606560f81b608482015260a401610bad565b60135460405182907f474ea64804364a1e29a4487ddb63c3342a2dd826ccd8acf48825e680a0e6f20f90600090a3601355565b6010546001600160a01b031633146110c257600080fd5b6001600160a01b0381166111275760405162461bcd60e51b815260206004820152602660248201527f4f776e61626c653a206e6577206f776e657220697320746865207a65726f206160448201526564647265737360d01b6064820152608401610bad565b601080546001600160a01b038381166001600160a01b0319831681179093556040519116919082907f8be0079c531659141344cd1fd0a4f28419497f9722a3daafe3b4186f6b6457e090600090a35050565b6040516317e142d160e01b8152600b60048201526001600160a01b0382166024820152819060009081908190819081908190819073__$8b3b58975e955577f2991db06eb113a332$__906317e142d190604401602060405180830381865af41580156111e9573d6000803e3d6000fd5b505050506040513d601f19601f8201168201806040525081019061120d9190611ee2565b965060001995506000871261126f57600f5487111561123b57600f54611234908890611967565b955061126f565b600f54600b546000911061125057600061125f565b600f54600b5461125f916117a6565b905061126b88826116f6565b9650505b61127888610c4b565b94506112838861081f565b6001600160a01b0389166000908152601260205260409020549094509250826112ad5760006112bb565b6013546112bb908490611488565b91504282116112cb5760006112d5565b6112d582426117a6565b9050919395975091939597565b600b5460009081908190808203611304575050600f54600092508291506113f8565b600f546000805a90506000805b898410801561131f57508582105b156113e7578461132e81611f18565b600b549096508610905061134157600094505b6000600b600001868154811061135957611359611f31565b60009182526020808320909101546001600160a01b0316808352601290915260409091205490915061138a906119b3565b156113ad5761139a816001610c85565b156113ad57816113a981611f18565b9250505b826113b781611f18565b93505060005a9050808511156113de576113db6113d486836117a6565b8790611488565b95505b93506113119050565b600f85905590975095509193505050505b9193909250565b600082600003611411575060006107f5565b600061141d8385611f47565b90508261142a8583611e6e565b146114815760405162461bcd60e51b815260206004820152602160248201527f536166654d6174683a206d756c7469706c69636174696f6e206f766572666c6f6044820152607760f81b6064820152608401610bad565b9392505050565b6000806114958385611eca565b9050838110156114815760405162461bcd60e51b815260206004820152601b60248201527f536166654d6174683a206164646974696f6e206f766572666c6f7700000000006044820152606401610bad565b6001600160a01b0383166115495760405162461bcd60e51b8152602060048201526024808201527f45524332303a20617070726f76652066726f6d20746865207a65726f206164646044820152637265737360e01b6064820152608401610bad565b6001600160a01b0382166115aa5760405162461bcd60e51b815260206004820152602260248201527f45524332303a20617070726f766520746f20746865207a65726f206164647265604482015261737360f01b6064820152608401610bad565b6001600160a01b0383811660008181526001602090815260408083209487168084529482529182902085905590518481527f8c5be1e5ebec7d5bd14f71427d1e84f3dd0314c0f7b2291e5b200ac8c7c3b925910160405180910390a3505050565b60006116178484610da1565b9050600019811461167f57818110156116725760405162461bcd60e51b815260206004820152601d60248201527f45524332303a20696e73756666696369656e7420616c6c6f77616e63650000006044820152606401610bad565b61167f84848484036114e7565b50505050565b60405162461bcd60e51b815260206004820152603060248201527f54657374546f6b656e5f4469766964656e645f547261636b65723a204e6f207460448201526f1c985b9cd9995c9cc8185b1b1bddd95960821b6064820152608401610bad565b600081818112156107f557600080fd5b6000806117038385611f66565b9050600083121580156117165750838112155b8061172b575060008312801561172b57508381125b61148157600080fd5b60008082121561174357600080fd5b5090565b6001600160a01b0382166000908152602081905260409020548082111561178657600061177483836117a6565b905061178084826119da565b50610f3b565b80821015610f3b57600061179a82846117a6565b905061167f8482611a3e565b6000828211156117f85760405162461bcd60e51b815260206004820152601e60248201527f536166654d6174683a207375627472616374696f6e206f766572666c6f7700006044820152606401610bad565b6114818284611fa7565b60008061180e83610c4b565b9050801561195e576001600160a01b0383166000908152600960205260409020546118399082611488565b6001600160a01b038416600081815260096020526040908190209290925590517fee503bee2bb6a87e57bc57db795f98137327401a0e7b7ce42e37926cc1a9ca4d906118889084815260200190565b60405180910390a260075460405163a9059cbb60e01b81526001600160a01b03858116600483015260248201849052600092169063a9059cbb906044016020604051808303816000875af11580156118e4573d6000803e3d6000fd5b505050506040513d601f19601f820116820180604052508101906119089190611fbe565b905080611957576001600160a01b03841660009081526009602052604090205461193290836117a6565b6001600160a01b03909416600090815260096020526040812094909455509192915050565b5092915050565b50600092915050565b600080821215801561198257508261197f8382611fdb565b13155b806119a057506000821280156119a057508261199e8382611fdb565b135b6119a957600080fd5b6114818284611fdb565b6000428211156119c557506000919050565b6013546119d242846117a6565b101592915050565b6119e48282611a82565b611a1e6119ff610861836005546113ff90919063ffffffff16565b6001600160a01b03841660009081526008602052604090205490611967565b6001600160a01b0390921660009081526008602052604090209190915550565b611a488282611b75565b611a1e611a63610861836005546113ff90919063ffffffff16565b6001600160a01b038416600090815260086020526040902054906116f6565b6001600160a01b038216611ad85760405162461bcd60e51b815260206004820152601f60248201527f45524332303a206d696e7420746f20746865207a65726f2061646472657373006044820152606401610bad565b611ae460008383610f3b565b8060026000828254611af69190611eca565b90915550506001600160a01b03821660009081526020819052604081208054839290611b23908490611eca565b90915550506040518181526001600160a01b038316906000907fddf252ad1be2c89b69c2b068fc378daa952ba7f163c4a11628f55a4df523b3ef9060200160405180910390a3610f3d60008383610f3b565b6001600160a01b038216611bd55760405162461bcd60e51b815260206004820152602160248201527f45524332303a206275726e2066726f6d20746865207a65726f206164647265736044820152607360f81b6064820152608401610bad565b611be182600083610f3b565b6001600160a01b03821660009081526020819052604090205481811015611c555760405162461bcd60e51b815260206004820152602260248201527f45524332303a206275726e20616d6f756e7420657863656564732062616c616e604482015261636560f01b6064820152608401610bad565b6001600160a01b0383166000908152602081905260408120838303905560028054849290611c84908490611fa7565b90915550506040518281526000906001600160a01b038516907fddf252ad1be2c89b69c2b068fc378daa952ba7f163c4a11628f55a4df523b3ef9060200160405180910390a3610f3b83600084610f3b565b600060208083528351808285015260005b81811015611d0357858101830151858201604001528201611ce7565b81811115611d15576000604083870101525b50601f01601f1916929092016040019392505050565b6001600160a01b0381168114610d9e57600080fd5b60008060408385031215611d5357600080fd5b8235611d5e81611d2b565b946020939093013593505050565b600060208284031215611d7e57600080fd5b813561148181611d2b565b600080600060608486031215611d9e57600080fd5b8335611da981611d2b565b92506020840135611db981611d2b565b929592945050506040919091013590565b600060208284031215611ddc57600080fd5b5035919050565b8015158114610d9e57600080fd5b60008060408385031215611e0457600080fd5b8235611e0f81611d2b565b91506020830135611e1f81611de3565b809150509250929050565b60008060408385031215611e3d57600080fd5b8235611e4881611d2b565b91506020830135611e1f81611d2b565b634e487b7160e01b600052601160045260246000fd5b600082611e8b57634e487b7160e01b600052601260045260246000fd5b500490565b600181811c90821680611ea457607f821691505b602082108103611ec457634e487b7160e01b600052602260045260246000fd5b50919050565b60008219821115611edd57611edd611e58565b500190565b600060208284031215611ef457600080fd5b5051919050565b600060208284031215611f0d57600080fd5b815161148181611d2b565b600060018201611f2a57611f2a611e58565b5060010190565b634e487b7160e01b600052603260045260246000fd5b6000816000190483118215151615611f6157611f61611e58565b500290565b600080821280156001600160ff1b0384900385131615611f8857611f88611e58565b600160ff1b8390038412811615611fa157611fa1611e58565b50500190565b600082821015611fb957611fb9611e58565b500390565b600060208284031215611fd057600080fd5b815161148181611de3565b60008083128015600160ff1b850184121615611ff957611ff9611e58565b6001600160ff1b038401831381161561201457612014611e58565b5050039056fea2646970667358221220d2ddf8a535500451dcdd7730669283498f0ee331c79235a7991caf2c5f3c800e64736f6c634300080f0033",
    "sourcePath": "/home/nkt/Desktop/metaStoksContracts/contracts/MetaStocksToken.sol",
    "compiler": {
        "name": "solc",
        "version": "0.8.15+commit.e14f2714"
    },
    "functionHashes": {
        "BUSD()": "484f4ea9",
        "UNDERWORLD_DOOR()": "d386a949",
        "_feesRates()": "1c06a7e1",
        "allowance(address,address)": "dd62ed3e",
        "approve(address,uint256)": "095ea7b3",
        "autoLiquidity(uint256)": "c6aca36b",
        "automatedMarketMakerPairs(address)": "b62496f5",
        "balanceOf(address)": "70a08231",
        "burn(uint256)": "42966c68",
        "claimBusd()": "ca654dd3",
        "claimFlowersRewards(address)": "aedc6bd8",
        "decimals()": "313ce567",
        "decreaseAllowance(address,uint256)": "a457c2d7",
        "dexRouter()": "0758d924",
        "enableTrading()": "8a8c523c",
        "excludeFromFee(address,bool)": "df8408fe",
        "getFlowersRewards(address)": "afb77359",
        "getOwner()": "893d20e8",
        "getWithdrawableDividendOf(address)": "6240eedc",
        "hermesBusdDividendTracker()": "37044fb7",
        "hermesTokensDividendTracker()": "07185191",
        "increaseAllowance(address,uint256)": "39509351",
        "isExcludedFromFee(address)": "5342acb4",
        "lpPair()": "452ed4f1",
        "marketingAddress()": "a5ece941",
        "name()": "06fdde03",
        "owner()": "8da5cb5b",
        "setAutoLiquidityPercentPercent(uint256)": "26f64b44",
        "setMarketingAddress(address)": "906e9dd0",
        "setMarketingAddressPercent(uint256)": "7bb7f072",
        "setMaxTransactionAmount(uint256)": "1e293c10",
        "setMaxWalletAmount(uint256)": "27a14fc2",
        "setSwapThreshold(uint256)": "9d0014b1",
        "setTaxes(uint16,uint16,uint16)": "32cde664",
        "swapThreshold()": "0445b667",
        "swapTokenAddress()": "f36f79e0",
        "symbol()": "95d89b41",
        "totalSupply()": "18160ddd",
        "transfer(address,uint256)": "a9059cbb",
        "transferDelayEnabled()": "c876d0b9",
        "transferFrom(address,address,uint256)": "23b872dd",
        "transferOwnership(address)": "f2fde38b"
    },
    "gasEstimates": {
        "creation": {
            "codeDepositCost": "1852400",
            "executionCost": "infinite",
            "totalCost": "infinite"
        },
        "external": {
            "BUSD()": "2426",
            "UNDERWORLD_DOOR()": "2403",
            "_feesRates()": "2484",
            "allowance(address,address)": "infinite",
            "approve(address,uint256)": "24730",
            "autoLiquidity(uint256)": "infinite",
            "automatedMarketMakerPairs(address)": "2614",
            "balanceOf(address)": "2678",
            "burn(uint256)": "54522",
            "claimBusd()": "infinite",
            "claimFlowersRewards(address)": "infinite",
            "decimals()": "245",
            "decreaseAllowance(address,uint256)": "27033",
            "dexRouter()": "2450",
            "enableTrading()": "28735",
            "excludeFromFee(address,bool)": "infinite",
            "getFlowersRewards(address)": "465",
            "getOwner()": "2399",
            "getWithdrawableDividendOf(address)": "infinite",
            "hermesBusdDividendTracker()": "2449",
            "hermesTokensDividendTracker()": "2428",
            "increaseAllowance(address,uint256)": "27106",
            "isExcludedFromFee(address)": "infinite",
            "lpPair()": "2404",
            "marketingAddress()": "2448",
            "name()": "infinite",
            "owner()": "2449",
            "setAutoLiquidityPercentPercent(uint256)": "24598",
            "setMarketingAddress(address)": "26839",
            "setMarketingAddressPercent(uint256)": "24510",
            "setMaxTransactionAmount(uint256)": "24554",
            "setMaxWalletAmount(uint256)": "24510",
            "setSwapThreshold(uint256)": "24531",
            "setTaxes(uint16,uint16,uint16)": "infinite",
            "swapThreshold()": "2331",
            "swapTokenAddress()": "2491",
            "symbol()": "infinite",
            "totalSupply()": "2327",
            "transfer(address,uint256)": "infinite",
            "transferDelayEnabled()": "2443",
            "transferFrom(address,address,uint256)": "infinite",
            "transferOwnership(address)": "26837"
        },
        "internal": {
            "_beforeTransferCheck(address,address,uint256)": "infinite",
            "_finalizeTransfer(address,address,uint256)": "infinite",
            "_transfer(address,address,uint256)": "infinite",
            "addLiquidity(uint256,uint256)": "infinite",
            "calcBuySellTransferFee(address,address,uint256)": "8955",
            "getPathForTokensToTokens(address,address)": "infinite",
            "sendTokenDividends(uint256)": "infinite",
            "swapAndSendBUSDDividends(uint256)": "infinite",
            "swapTokensForBNB(uint256)": "infinite",
            "swapTokensForBusd(uint256,address)": "infinite",
            "swapTokensForUSD(uint256)": "infinite"
        }
    }
}