{
    "contractName": "MetaStocksToken",
    "abi": [
        {
            "anonymous": false,
            "inputs": [
                {
                    "indexed": true,
                    "internalType": "address",
                    "name": "owner",
                    "type": "address"
                },
                {
                    "indexed": true,
                    "internalType": "address",
                    "name": "spender",
                    "type": "address"
                },
                {
                    "indexed": false,
                    "internalType": "uint256",
                    "name": "value",
                    "type": "uint256"
                }
            ],
            "name": "Approval",
            "type": "event"
        },
        {
            "anonymous": false,
            "inputs": [
                {
                    "indexed": true,
                    "internalType": "address",
                    "name": "sender",
                    "type": "address"
                },
                {
                    "indexed": false,
                    "internalType": "uint256",
                    "name": "amount",
                    "type": "uint256"
                }
            ],
            "name": "Burn",
            "type": "event"
        },
        {
            "anonymous": false,
            "inputs": [
                {
                    "indexed": false,
                    "internalType": "uint8",
                    "name": "version",
                    "type": "uint8"
                }
            ],
            "name": "Initialized",
            "type": "event"
        },
        {
            "anonymous": false,
            "inputs": [
                {
                    "indexed": true,
                    "internalType": "address",
                    "name": "previousOwner",
                    "type": "address"
                },
                {
                    "indexed": true,
                    "internalType": "address",
                    "name": "newOwner",
                    "type": "address"
                }
            ],
            "name": "OwnershipTransferred",
            "type": "event"
        },
        {
            "anonymous": false,
            "inputs": [
                {
                    "indexed": true,
                    "internalType": "address",
                    "name": "from",
                    "type": "address"
                },
                {
                    "indexed": true,
                    "internalType": "address",
                    "name": "to",
                    "type": "address"
                },
                {
                    "indexed": false,
                    "internalType": "uint256",
                    "name": "value",
                    "type": "uint256"
                }
            ],
            "name": "Transfer",
            "type": "event"
        },
        {
            "inputs": [
                {
                    "internalType": "address",
                    "name": "owner",
                    "type": "address"
                },
                {
                    "internalType": "address",
                    "name": "spender",
                    "type": "address"
                }
            ],
            "name": "allowance",
            "outputs": [
                {
                    "internalType": "uint256",
                    "name": "",
                    "type": "uint256"
                }
            ],
            "stateMutability": "view",
            "type": "function"
        },
        {
            "inputs": [
                {
                    "internalType": "address",
                    "name": "spender",
                    "type": "address"
                },
                {
                    "internalType": "uint256",
                    "name": "amount",
                    "type": "uint256"
                }
            ],
            "name": "approve",
            "outputs": [
                {
                    "internalType": "bool",
                    "name": "",
                    "type": "bool"
                }
            ],
            "stateMutability": "nonpayable",
            "type": "function"
        },
        {
            "inputs": [
                {
                    "internalType": "uint256",
                    "name": "tokenAmount",
                    "type": "uint256"
                }
            ],
            "name": "autoInjectLiquidity",
            "outputs": [],
            "stateMutability": "nonpayable",
            "type": "function"
        },
        {
            "inputs": [
                {
                    "internalType": "address",
                    "name": "",
                    "type": "address"
                }
            ],
            "name": "automatedMarketMakerPairs",
            "outputs": [
                {
                    "internalType": "bool",
                    "name": "",
                    "type": "bool"
                }
            ],
            "stateMutability": "view",
            "type": "function"
        },
        {
            "inputs": [
                {
                    "internalType": "address",
                    "name": "account",
                    "type": "address"
                }
            ],
            "name": "balanceOf",
            "outputs": [
                {
                    "internalType": "uint256",
                    "name": "",
                    "type": "uint256"
                }
            ],
            "stateMutability": "view",
            "type": "function"
        },
        {
            "inputs": [],
            "name": "decimals",
            "outputs": [
                {
                    "internalType": "uint8",
                    "name": "",
                    "type": "uint8"
                }
            ],
            "stateMutability": "view",
            "type": "function"
        },
        {
            "inputs": [
                {
                    "internalType": "address",
                    "name": "spender",
                    "type": "address"
                },
                {
                    "internalType": "uint256",
                    "name": "subtractedValue",
                    "type": "uint256"
                }
            ],
            "name": "decreaseAllowance",
            "outputs": [
                {
                    "internalType": "bool",
                    "name": "",
                    "type": "bool"
                }
            ],
            "stateMutability": "nonpayable",
            "type": "function"
        },
        {
            "inputs": [],
            "name": "enableTrading",
            "outputs": [],
            "stateMutability": "nonpayable",
            "type": "function"
        },
        {
            "inputs": [],
            "name": "getFeesManager",
            "outputs": [
                {
                    "internalType": "contract FeesManager",
                    "name": "",
                    "type": "address"
                }
            ],
            "stateMutability": "view",
            "type": "function"
        },
        {
            "inputs": [],
            "name": "getLPPair",
            "outputs": [
                {
                    "internalType": "address",
                    "name": "",
                    "type": "address"
                }
            ],
            "stateMutability": "view",
            "type": "function"
        },
        {
            "inputs": [],
            "name": "getMidasMultinetworkRouterManager",
            "outputs": [
                {
                    "internalType": "contract MidasMultinetworkRouterManager",
                    "name": "",
                    "type": "address"
                }
            ],
            "stateMutability": "view",
            "type": "function"
        },
        {
            "inputs": [],
            "name": "getOwner",
            "outputs": [
                {
                    "internalType": "address",
                    "name": "",
                    "type": "address"
                }
            ],
            "stateMutability": "view",
            "type": "function"
        },
        {
            "inputs": [],
            "name": "getSwapThreshold",
            "outputs": [
                {
                    "internalType": "uint256",
                    "name": "",
                    "type": "uint256"
                }
            ],
            "stateMutability": "view",
            "type": "function"
        },
        {
            "inputs": [],
            "name": "getTradingEnabled",
            "outputs": [
                {
                    "internalType": "bool",
                    "name": "",
                    "type": "bool"
                }
            ],
            "stateMutability": "view",
            "type": "function"
        },
        {
            "inputs": [
                {
                    "internalType": "address",
                    "name": "spender",
                    "type": "address"
                },
                {
                    "internalType": "uint256",
                    "name": "addedValue",
                    "type": "uint256"
                }
            ],
            "name": "increaseAllowance",
            "outputs": [
                {
                    "internalType": "bool",
                    "name": "",
                    "type": "bool"
                }
            ],
            "stateMutability": "nonpayable",
            "type": "function"
        },
        {
            "inputs": [
                {
                    "internalType": "string",
                    "name": "_tokenName",
                    "type": "string"
                },
                {
                    "internalType": "string",
                    "name": "_tokenSymbol",
                    "type": "string"
                },
                {
                    "internalType": "uint256",
                    "name": "_totalSupply",
                    "type": "uint256"
                }
            ],
            "name": "initialize",
            "outputs": [],
            "stateMutability": "nonpayable",
            "type": "function"
        },
        {
            "inputs": [],
            "name": "name",
            "outputs": [
                {
                    "internalType": "string",
                    "name": "",
                    "type": "string"
                }
            ],
            "stateMutability": "view",
            "type": "function"
        },
        {
            "inputs": [],
            "name": "self",
            "outputs": [
                {
                    "internalType": "address",
                    "name": "",
                    "type": "address"
                }
            ],
            "stateMutability": "view",
            "type": "function"
        },
        {
            "inputs": [
                {
                    "internalType": "address",
                    "name": "_dexRouter",
                    "type": "address"
                }
            ],
            "name": "setDexRouter",
            "outputs": [],
            "stateMutability": "nonpayable",
            "type": "function"
        },
        {
            "inputs": [
                {
                    "internalType": "uint16",
                    "name": "buyFee",
                    "type": "uint16"
                },
                {
                    "internalType": "uint16",
                    "name": "sellFee",
                    "type": "uint16"
                },
                {
                    "internalType": "uint16",
                    "name": "transferFee",
                    "type": "uint16"
                }
            ],
            "name": "setFees",
            "outputs": [],
            "stateMutability": "nonpayable",
            "type": "function"
        },
        {
            "inputs": [
                {
                    "internalType": "contract FeesManager",
                    "name": "_feesManager",
                    "type": "address"
                }
            ],
            "name": "setFeesManager",
            "outputs": [],
            "stateMutability": "nonpayable",
            "type": "function"
        },
        {
            "inputs": [
                {
                    "internalType": "uint256",
                    "name": "_maxTransactionAmount",
                    "type": "uint256"
                }
            ],
            "name": "setMaxTransactionAmount",
            "outputs": [],
            "stateMutability": "nonpayable",
            "type": "function"
        },
        {
            "inputs": [
                {
                    "internalType": "uint256",
                    "name": "_maxWalletAmount",
                    "type": "uint256"
                }
            ],
            "name": "setMaxWalletAmount",
            "outputs": [],
            "stateMutability": "nonpayable",
            "type": "function"
        },
        {
            "inputs": [
                {
                    "internalType": "address",
                    "name": "_pairAddress",
                    "type": "address"
                }
            ],
            "name": "setPairAddress",
            "outputs": [],
            "stateMutability": "nonpayable",
            "type": "function"
        },
        {
            "inputs": [
                {
                    "internalType": "address",
                    "name": "_routerAddress",
                    "type": "address"
                }
            ],
            "name": "setRouterAddress",
            "outputs": [],
            "stateMutability": "nonpayable",
            "type": "function"
        },
        {
            "inputs": [
                {
                    "internalType": "uint256",
                    "name": "_swapThreshold",
                    "type": "uint256"
                }
            ],
            "name": "setSwapThreshold",
            "outputs": [],
            "stateMutability": "nonpayable",
            "type": "function"
        },
        {
            "inputs": [
                {
                    "internalType": "address",
                    "name": "_lpPair",
                    "type": "address"
                }
            ],
            "name": "setlpPair",
            "outputs": [],
            "stateMutability": "nonpayable",
            "type": "function"
        },
        {
            "inputs": [],
            "name": "symbol",
            "outputs": [
                {
                    "internalType": "string",
                    "name": "",
                    "type": "string"
                }
            ],
            "stateMutability": "view",
            "type": "function"
        },
        {
            "inputs": [],
            "name": "totalSupply",
            "outputs": [
                {
                    "internalType": "uint256",
                    "name": "",
                    "type": "uint256"
                }
            ],
            "stateMutability": "view",
            "type": "function"
        },
        {
            "inputs": [
                {
                    "internalType": "address",
                    "name": "to",
                    "type": "address"
                },
                {
                    "internalType": "uint256",
                    "name": "amount",
                    "type": "uint256"
                }
            ],
            "name": "transfer",
            "outputs": [
                {
                    "internalType": "bool",
                    "name": "",
                    "type": "bool"
                }
            ],
            "stateMutability": "nonpayable",
            "type": "function"
        },
        {
            "inputs": [
                {
                    "internalType": "address",
                    "name": "from",
                    "type": "address"
                },
                {
                    "internalType": "address",
                    "name": "to",
                    "type": "address"
                },
                {
                    "internalType": "uint256",
                    "name": "amount",
                    "type": "uint256"
                }
            ],
            "name": "transferFrom",
            "outputs": [
                {
                    "internalType": "bool",
                    "name": "",
                    "type": "bool"
                }
            ],
            "stateMutability": "nonpayable",
            "type": "function"
        },
        {
            "inputs": [
                {
                    "internalType": "address",
                    "name": "account",
                    "type": "address"
                }
            ],
            "name": "transferOwnership",
            "outputs": [],
            "stateMutability": "nonpayable",
            "type": "function"
        },
        {
            "stateMutability": "payable",
            "type": "receive"
        }
    ],
    "bytecode": "608060405234801561001057600080fd5b506129cb806100206000396000f3fe6080604052600436106101e75760003560e01c80638a8c523c11610102578063b9af856711610095578063f005f2ca11610064578063f005f2ca1461061b578063f2fde38b14610630578063f72f863b1461066d578063fa83cb581461068d57600080fd5b8063b9af856714610563578063c762819b146105b8578063d203abb6146105db578063dd62ed3e146105fb57600080fd5b8063a457c2d7116100d1578063a457c2d7146104d3578063a9059cbb146104f3578063b119490e14610513578063b62496f51461053357600080fd5b80638a8c523c1461044557806395d89b411461045a5780639d0014b11461046f578063a22d48321461048f57600080fd5b8063395093511161017a57806370a082311161014957806370a08231146103c05780637104ddb2146103f657806386f3f3cb14610409578063893d20e81461042757600080fd5b8063395093511461032e57806341cb87fc1461034e578063534c6bcb1461036e57806357e266961461038e57600080fd5b80631e293c10116101b65780631e293c10146102b257806323b872dd146102d257806327a14fc2146102f2578063313ce5671461031257600080fd5b806306fdde03146101f3578063095ea7b31461021e57806318160ddd1461024e5780631c89382a1461026d57600080fd5b366101ee57005b600080fd5b3480156101ff57600080fd5b506102086106a5565b60405161021591906117d8565b60405180910390f35b34801561022a57600080fd5b5061023e610239366004611845565b610737565b6040519015158152602001610215565b34801561025a57600080fd5b506035545b604051908152602001610215565b34801561027957600080fd5b506102b0610288366004611871565b606b80546001600160a01b0390921661010002610100600160a81b0319909216919091179055565b005b3480156102be57600080fd5b506102b06102cd366004611895565b606a55565b3480156102de57600080fd5b5061023e6102ed3660046118ae565b61074f565b3480156102fe57600080fd5b506102b061030d366004611895565b606955565b34801561031e57600080fd5b5060405160128152602001610215565b34801561033a57600080fd5b5061023e610349366004611845565b610773565b34801561035a57600080fd5b506102b0610369366004611871565b610795565b34801561037a57600080fd5b506102b0610389366004611901565b6107f2565b34801561039a57600080fd5b50606c546001600160a01b03165b6040516001600160a01b039091168152602001610215565b3480156103cc57600080fd5b5061025f6103db366004611871565b6001600160a01b031660009081526033602052604090205490565b34801561040257600080fd5b50306103a8565b34801561041557600080fd5b506067546001600160a01b03166103a8565b34801561043357600080fd5b506065546001600160a01b03166103a8565b34801561045157600080fd5b506102b061086c565b34801561046657600080fd5b506102086108d3565b34801561047b57600080fd5b506102b061048a366004611895565b606855565b34801561049b57600080fd5b506102b06104aa366004611871565b606780546001600160a01b039092166001600160a01b031990921682179055600052606d602052565b3480156104df57600080fd5b5061023e6104ee366004611845565b6108e2565b3480156104ff57600080fd5b5061023e61050e366004611845565b61095d565b34801561051f57600080fd5b506102b061052e3660046119e7565b61096b565b34801561053f57600080fd5b5061023e61054e366004611871565b606d6020526000908152604090205460ff1681565b34801561056f57600080fd5b506102b061057e366004611871565b606780546001600160a01b039092166001600160a01b0319909216821790556000908152606d60205260409020805460ff19166001179055565b3480156105c457600080fd5b50606b5461010090046001600160a01b03166103a8565b3480156105e757600080fd5b506102b06105f6366004611895565b6109f7565b34801561060757600080fd5b5061025f610616366004611a54565b610b26565b34801561062757600080fd5b5060685461025f565b34801561063c57600080fd5b506102b061064b366004611871565b606580546001600160a01b0319166001600160a01b0392909216919091179055565b34801561067957600080fd5b506102b0610688366004611871565b610b51565b34801561069957600080fd5b50606b5460ff1661023e565b6060603680546106b490611a8d565b80601f01602080910402602001604051908101604052809291908181526020018280546106e090611a8d565b801561072d5780601f106107025761010080835404028352916020019161072d565b820191906000526020600020905b81548152906001019060200180831161071057829003601f168201915b5050505050905090565b600033610745818585610bb3565b5060019392505050565b60003361075d858285610cd7565b610768858585610d4b565b506001949350505050565b6000336107458185856107868383610b26565b6107909190611add565b610bb3565b806040516107a290611723565b6001600160a01b039091168152602001604051809103906000f0801580156107ce573d6000803e3d6000fd5b50606c80546001600160a01b0319166001600160a01b039290921691909117905550565b606b5460405163534c6bcb60e01b815261ffff80861660048301528085166024830152831660448201526101009091046001600160a01b03169063534c6bcb90606401600060405180830381600087803b15801561084f57600080fd5b505af1158015610863573d6000803e3d6000fd5b50505050505050565b606b5460ff16156108c45760405162461bcd60e51b815260206004820152601860248201527f54726164696e6720616c726561647920656e61626c656421000000000000000060448201526064015b60405180910390fd5b606b805460ff19166001179055565b6060603780546106b490611a8d565b600033816108f08286610b26565b9050838110156109505760405162461bcd60e51b815260206004820152602560248201527f45524332303a2064656372656173656420616c6c6f77616e63652062656c6f77604482015264207a65726f60d81b60648201526084016108bb565b6107688286868403610bb3565b600033610745818585610d4b565b60006109776001610ea6565b9050801561098f576000805461ff0019166101001790555b6109998484610f33565b6109a1610f68565b6109ab338361105e565b80156109f1576000805461ff0019169055604051600181527f7f26b83ff96e1f2b6a682f133852f6798a09c465da95921460cefb38474024989060200160405180910390a15b50505050565b6000610a04600283611af5565b606c5490915047906001600160a01b031663f7a7657630306040516001600160e01b031960e085901b1681526001600160a01b0392831660048201529116602482015260448101859052606401600060405180830381600087803b158015610a6b57600080fd5b505af1158015610a7f573d6000803e3d6000fd5b5050505060008147610a919190611b17565b606c549091506001600160a01b031663cf6c62ea306065546001600160a01b03166040516001600160e01b031960e085901b1681526001600160a01b039283166004820152911660248201526044810186905260648101849052608401600060405180830381600087803b158015610b0857600080fd5b505af1158015610b1c573d6000803e3d6000fd5b5050505050505050565b6001600160a01b03918216600090815260346020908152604080832093909416825291909152205490565b606c5460405163f72f863b60e01b81526001600160a01b0383811660048301529091169063f72f863b90602401600060405180830381600087803b158015610b9857600080fd5b505af1158015610bac573d6000803e3d6000fd5b5050505050565b6001600160a01b038316610c155760405162461bcd60e51b8152602060048201526024808201527f45524332303a20617070726f76652066726f6d20746865207a65726f206164646044820152637265737360e01b60648201526084016108bb565b6001600160a01b038216610c765760405162461bcd60e51b815260206004820152602260248201527f45524332303a20617070726f766520746f20746865207a65726f206164647265604482015261737360f01b60648201526084016108bb565b6001600160a01b0383811660008181526034602090815260408083209487168084529482529182902085905590518481527f8c5be1e5ebec7d5bd14f71427d1e84f3dd0314c0f7b2291e5b200ac8c7c3b925910160405180910390a3505050565b6000610ce38484610b26565b905060001981146109f15781811015610d3e5760405162461bcd60e51b815260206004820152601d60248201527f45524332303a20696e73756666696369656e7420616c6c6f77616e636500000060448201526064016108bb565b6109f18484848403610bb3565b606c60009054906101000a90046001600160a01b03166001600160a01b031663cc9968996040518163ffffffff1660e01b8152600401602060405180830381865afa158015610d9e573d6000803e3d6000fd5b505050506040513d601f19601f82011682018060405250810190610dc29190611b2e565b15610dd757610dd283838361113d565b505050565b610de1838361130b565b15610e9b576000610df1306103db565b606c549091506001600160a01b0316632c4a736130612710610e1485600c611b50565b610e1e9190611af5565b6040516001600160e01b031960e085901b1681526001600160a01b0390921660048301526024820152604401600060405180830381600087803b158015610e6457600080fd5b505af1158015610e78573d6000803e3d6000fd5b50505050610e9961271082607b610e8f9190611b50565b6105f69190611af5565b505b610dd28383836114f3565b60008054610100900460ff1615610eed578160ff166001148015610ec95750303b155b610ee55760405162461bcd60e51b81526004016108bb90611b6f565b506000919050565b60005460ff808416911610610f145760405162461bcd60e51b81526004016108bb90611b6f565b506000805460ff191660ff92909216919091179055600190565b919050565b600054610100900460ff16610f5a5760405162461bcd60e51b81526004016108bb90611bbd565b610f6482826116d5565b5050565b6000196069819055606a55683635c9adc5dea00000606855606580546001600160a01b0319908116331790915560668054821661dead179055606780549091169055604051610fb690611731565b604051809103906000f080158015610fd2573d6000803e3d6000fd5b50606b8054610100600160a81b0319166101006001600160a01b0393841681029190911791829055900416606554604051636612e66f60e01b81526001600160a01b03918216600482015260016024820152911690636612e66f90604401600060405180830381600087803b15801561104a57600080fd5b505af11580156109f1573d6000803e3d6000fd5b6001600160a01b0382166110b45760405162461bcd60e51b815260206004820152601f60248201527f45524332303a206d696e7420746f20746865207a65726f20616464726573730060448201526064016108bb565b80603560008282546110c69190611add565b90915550506001600160a01b038216600090815260336020526040812080548392906110f3908490611add565b90915550506040518181526001600160a01b038316906000907fddf252ad1be2c89b69c2b068fc378daa952ba7f163c4a11628f55a4df523b3ef9060200160405180910390a35050565b6001600160a01b0383166111a15760405162461bcd60e51b815260206004820152602560248201527f45524332303a207472616e736665722066726f6d20746865207a65726f206164604482015264647265737360d81b60648201526084016108bb565b6001600160a01b0382166112035760405162461bcd60e51b815260206004820152602360248201527f45524332303a207472616e7366657220746f20746865207a65726f206164647260448201526265737360e81b60648201526084016108bb565b6001600160a01b0383166000908152603360205260409020548181101561127b5760405162461bcd60e51b815260206004820152602660248201527f45524332303a207472616e7366657220616d6f756e7420657863656564732062604482015265616c616e636560d01b60648201526084016108bb565b6001600160a01b038085166000908152603360205260408082208585039055918516815290812080548492906112b2908490611add565b92505081905550826001600160a01b0316846001600160a01b03167fddf252ad1be2c89b69c2b068fc378daa952ba7f163c4a11628f55a4df523b3ef846040516112fe91815260200190565b60405180910390a36109f1565b600080611317306103db565b905061132260685490565b81101580156113a55750606c60009054906101000a90046001600160a01b03166001600160a01b031663cc9968996040518163ffffffff1660e01b8152600401602060405180830381865afa15801561137f573d6000803e3d6000fd5b505050506040513d601f19601f820116820180604052508101906113a39190611b2e565b155b80156113bf57506067546001600160a01b03858116911614155b80156113df575060006113dd6103db6067546001600160a01b031690565b115b80156114655750606b5461010090046001600160a01b03166040516314d0ab2d60e21b81526001600160a01b0385811660048301529190911690635342acb490602401602060405180830381865afa15801561143f573d6000803e3d6000fd5b505050506040513d601f19601f820116820180604052508101906114639190611b2e565b155b80156114eb5750606b5461010090046001600160a01b03166040516314d0ab2d60e21b81526001600160a01b0386811660048301529190911690635342acb490602401602060405180830381865afa1580156114c5573d6000803e3d6000fd5b505050506040513d601f19601f820116820180604052508101906114e99190611b2e565b155b949350505050565b8060006001611510606b546001600160a01b036101009091041690565b6040516314d0ab2d60e21b81526001600160a01b0388811660048301529190911690635342acb490602401602060405180830381865afa158015611558573d6000803e3d6000fd5b505050506040513d601f19601f8201168201806040525081019061157c9190611b2e565b806115ff5750606b5461010090046001600160a01b03166040516314d0ab2d60e21b81526001600160a01b0387811660048301529190911690635342acb490602401602060405180830381865afa1580156115db573d6000803e3d6000fd5b505050506040513d601f19601f820116820180604052508101906115ff9190611b2e565b15611608575060005b80156116c257606b5461010090046001600160a01b0316606754604051633dcaefb160e21b81526001600160a01b039182166004820152888216602482015287821660448201526064810187905291169063f72bbec490608401602060405180830381865afa15801561167f573d6000803e3d6000fd5b505050506040513d601f19601f820116820180604052508101906116a39190611c08565b915081156116c2576116b58285611b17565b92506116c286308461113d565b6116cd86868561113d565b505050505050565b600054610100900460ff166116fc5760405162461bcd60e51b81526004016108bb90611bbd565b815161170f90603690602085019061173f565b508051610dd290603790602084019061173f565b61092a8062001c2283390190565b61044a806200254c83390190565b82805461174b90611a8d565b90600052602060002090601f01602090048101928261176d57600085556117b3565b82601f1061178657805160ff19168380011785556117b3565b828001600101855582156117b3579182015b828111156117b3578251825591602001919060010190611798565b506117bf9291506117c3565b5090565b5b808211156117bf57600081556001016117c4565b600060208083528351808285015260005b81811015611805578581018301518582016040015282016117e9565b81811115611817576000604083870101525b50601f01601f1916929092016040019392505050565b6001600160a01b038116811461184257600080fd5b50565b6000806040838503121561185857600080fd5b82356118638161182d565b946020939093013593505050565b60006020828403121561188357600080fd5b813561188e8161182d565b9392505050565b6000602082840312156118a757600080fd5b5035919050565b6000806000606084860312156118c357600080fd5b83356118ce8161182d565b925060208401356118de8161182d565b929592945050506040919091013590565b803561ffff81168114610f2e57600080fd5b60008060006060848603121561191657600080fd5b61191f846118ef565b925061192d602085016118ef565b915061193b604085016118ef565b90509250925092565b634e487b7160e01b600052604160045260246000fd5b600082601f83011261196b57600080fd5b813567ffffffffffffffff8082111561198657611986611944565b604051601f8301601f19908116603f011681019082821181831017156119ae576119ae611944565b816040528381528660208588010111156119c757600080fd5b836020870160208301376000602085830101528094505050505092915050565b6000806000606084860312156119fc57600080fd5b833567ffffffffffffffff80821115611a1457600080fd5b611a208783880161195a565b94506020860135915080821115611a3657600080fd5b50611a438682870161195a565b925050604084013590509250925092565b60008060408385031215611a6757600080fd5b8235611a728161182d565b91506020830135611a828161182d565b809150509250929050565b600181811c90821680611aa157607f821691505b602082108103611ac157634e487b7160e01b600052602260045260246000fd5b50919050565b634e487b7160e01b600052601160045260246000fd5b60008219821115611af057611af0611ac7565b500190565b600082611b1257634e487b7160e01b600052601260045260246000fd5b500490565b600082821015611b2957611b29611ac7565b500390565b600060208284031215611b4057600080fd5b8151801515811461188e57600080fd5b6000816000190483118215151615611b6a57611b6a611ac7565b500290565b6020808252602e908201527f496e697469616c697a61626c653a20636f6e747261637420697320616c72656160408201526d191e481a5b9a5d1a585b1a5e995960921b606082015260800190565b6020808252602b908201527f496e697469616c697a61626c653a20636f6e7472616374206973206e6f74206960408201526a6e697469616c697a696e6760a81b606082015260800190565b600060208284031215611c1a57600080fd5b505191905056fe608060405234801561001057600080fd5b5060405161092a38038061092a83398101604081905261002f91610061565b600080546001600160a01b039092166001600160a01b031992831617905561a869600255600180549091169055610091565b60006020828403121561007357600080fd5b81516001600160a01b038116811461008a57600080fd5b9392505050565b61088a806100a06000396000f3fe608060405234801561001057600080fd5b50600436106100885760003560e01c8063cc9968991161005b578063cc996899146100e3578063cf6c62ea14610100578063f72f863b14610113578063f7a765761461014357600080fd5b8063197e8da91461008d5780632c4a7361146100bd57806385954d8c146100d2578063b9c55241146100d2575b600080fd5b6100a061009b366004610658565b610156565b6040516001600160a01b0390911681526020015b60405180910390f35b6100d06100cb36600461068d565b610212565b005b6000546001600160a01b03166100a0565b600154600160a01b900460ff1660405190151581526020016100b4565b6100d061010e3660046106b7565b6103bc565b6100d06101213660046106f9565b600080546001600160a01b0319166001600160a01b0392909216919091179055565b6100d061015136600461071b565b6104ef565b600073ae13d989dac2f0debff460ac112a837c89baa7cd6061839003610191575073ae13d989dac2f0debff460ac112a837c89baa7cd6101f6565b826061036101b4575073ae13d989dac2f0debff460ac112a837c89baa7cd6101f6565b60405162461bcd60e51b8152602060048201526013602482015272756e737570706f72746564206e6574776f726b60681b604482015260640160405180910390fd5b5073ae13d989dac2f0debff460ac112a837c89baa7cd92915050565b6040805160038082526080820190925260009160208201606080368337019050509050308160008151811061024957610249610757565b60200260200101906001600160a01b031690816001600160a01b031681525050610274600254610156565b8160018151811061028757610287610757565b6001600160a01b0392831660209182029290920101526001548251911690829060029081106102b8576102b8610757565b6001600160a01b03928316602091820292909201015260015460005460405163095ea7b360e01b81529083166004820152600019602482015291169063095ea7b3906044016020604051808303816000875af115801561031c573d6000803e3d6000fd5b505050506040513d601f19601f82011682018060405250810190610340919061076d565b50600080546001600160a01b031690635c11d7959084908487610365426103e861078f565b6040518663ffffffff1660e01b81526004016103859594939291906107b5565b600060405180830381600087803b15801561039f57600080fd5b505af11580156103b3573d6000803e3d6000fd5b50505050505050565b60005460405163095ea7b360e01b81526001600160a01b03918216600482015260001960248201529085169063095ea7b3906044016020604051808303816000875af1158015610410573d6000803e3d6000fd5b505050506040513d601f19601f82011682018060405250810190610434919061076d565b50600080546001600160a01b03169063f305d71990839030908690808961045d4261271061078f565b60405160e089901b6001600160e01b03191681526001600160a01b039687166004820152602481019590955260448501939093526064840191909152909216608482015260a481019190915260c40160606040518083038185885af11580156104ca573d6000803e3d6000fd5b50505050506040513d601f19601f820116820180604052508101906103b39190610826565b604080516002808252606082018352600092602083019080368337019050509050838160008151811061052457610524610757565b60200260200101906001600160a01b031690816001600160a01b03168152505061054f600254610156565b8160018151811061056257610562610757565b6001600160a01b03928316602091820292909201015260005460405163095ea7b360e01b8152908216600482015260001960248201529085169063095ea7b3906044016020604051808303816000875af11580156105c4573d6000803e3d6000fd5b505050506040513d601f19601f820116820180604052508101906105e8919061076d565b506000805460405163791ac94760e01b81526001600160a01b039091169163791ac947916106209186918690899042906004016107b5565b600060405180830381600087803b15801561063a57600080fd5b505af115801561064e573d6000803e3d6000fd5b5050505050505050565b60006020828403121561066a57600080fd5b5035919050565b80356001600160a01b038116811461068857600080fd5b919050565b600080604083850312156106a057600080fd5b6106a983610671565b946020939093013593505050565b600080600080608085870312156106cd57600080fd5b6106d685610671565b93506106e460208601610671565b93969395505050506040820135916060013590565b60006020828403121561070b57600080fd5b61071482610671565b9392505050565b60008060006060848603121561073057600080fd5b61073984610671565b925061074760208501610671565b9150604084013590509250925092565b634e487b7160e01b600052603260045260246000fd5b60006020828403121561077f57600080fd5b8151801515811461071457600080fd5b600082198211156107b057634e487b7160e01b600052601160045260246000fd5b500190565b600060a082018783526020878185015260a0604085015281875180845260c086019150828901935060005b818110156108055784516001600160a01b0316835293830193918301916001016107e0565b50506001600160a01b03969096166060850152505050608001529392505050565b60008060006060848603121561083b57600080fd5b835192506020840151915060408401519050925092509256fea2646970667358221220f4606fdb5c11693e2cf8f6fad145b4735b55c0f5aba8f2094a502f9ffa9b293964736f6c634300080e0033608060405234801561001057600080fd5b50612710600155604080516060810182526000808252602082018190529101819052805465ffffffffffff191690556103fc8061004e6000396000f3fe608060405234801561001057600080fd5b506004361061004c5760003560e01c80635342acb414610051578063534c6bcb146100925780636612e66f146100e1578063f72bbec41461011a575b600080fd5b61007d61005f366004610259565b6001600160a01b031660009081526002602052604090205460ff1690565b60405190151581526020015b60405180910390f35b6100df6100a036600461028d565b6000805461ffff94851663ffffffff199091161762010000938516939093029290921765ffff0000000019166401000000009190931602919091179055565b005b6100df6100ef3660046102d0565b6001600160a01b03919091166000908152600260205260409020805460ff1916911515919091179055565b61012d61012836600461030c565b61013b565b604051908152602001610089565b60008080610161866001600160a01b031660009081526002602052604090205460ff1690565b8061018457506001600160a01b03851660009081526002602052604090205460ff165b1561019457600092505050610235565b866001600160a01b0316866001600160a01b0316036101c5576000546101be9061ffff168361036d565b9150610211565b866001600160a01b0316856001600160a01b0316036101f5576000546101be9062010000900461ffff168361036d565b60005461020e90640100000000900461ffff168361036d565b91505b8115610231576001546102248386610385565b61022e91906103a4565b90505b9150505b949350505050565b80356001600160a01b038116811461025457600080fd5b919050565b60006020828403121561026b57600080fd5b6102748261023d565b9392505050565b803561ffff8116811461025457600080fd5b6000806000606084860312156102a257600080fd5b6102ab8461027b565b92506102b96020850161027b565b91506102c76040850161027b565b90509250925092565b600080604083850312156102e357600080fd5b6102ec8361023d565b91506020830135801515811461030157600080fd5b809150509250929050565b6000806000806080858703121561032257600080fd5b61032b8561023d565b93506103396020860161023d565b92506103476040860161023d565b9396929550929360600135925050565b634e487b7160e01b600052601160045260246000fd5b6000821982111561038057610380610357565b500190565b600081600019048311821515161561039f5761039f610357565b500290565b6000826103c157634e487b7160e01b600052601260045260246000fd5b50049056fea264697066735822122068a9536c811917b1e1c2eaad930c11384296e7f384c47217afdebc27ae23ba6f64736f6c634300080e0033a26469706673582212202be98249181e675520d527ac34d3c45210ea680931ea137b134f1d93e7b0fc0a64736f6c634300080e0033",
    "sourcePath": "/home/nkt/Desktop/metaStoksContracts/contracts/MetaStocksToken.sol",
    "compiler": {
        "name": "solc",
        "version": "0.8.14+commit.80d49f37"
    },
    "functionHashes": {
        "allowance(address,address)": "dd62ed3e",
        "approve(address,uint256)": "095ea7b3",
        "autoInjectLiquidity(uint256)": "d203abb6",
        "automatedMarketMakerPairs(address)": "b62496f5",
        "balanceOf(address)": "70a08231",
        "decimals()": "313ce567",
        "decreaseAllowance(address,uint256)": "a457c2d7",
        "enableTrading()": "8a8c523c",
        "getFeesManager()": "c762819b",
        "getLPPair()": "86f3f3cb",
        "getMidasMultinetworkRouterManager()": "57e26696",
        "getOwner()": "893d20e8",
        "getSwapThreshold()": "f005f2ca",
        "getTradingEnabled()": "fa83cb58",
        "increaseAllowance(address,uint256)": "39509351",
        "initialize(string,string,uint256)": "b119490e",
        "name()": "06fdde03",
        "self()": "7104ddb2",
        "setDexRouter(address)": "f72f863b",
        "setFees(uint16,uint16,uint16)": "534c6bcb",
        "setFeesManager(address)": "1c89382a",
        "setMaxTransactionAmount(uint256)": "1e293c10",
        "setMaxWalletAmount(uint256)": "27a14fc2",
        "setPairAddress(address)": "a22d4832",
        "setRouterAddress(address)": "41cb87fc",
        "setSwapThreshold(uint256)": "9d0014b1",
        "setlpPair(address)": "b9af8567",
        "symbol()": "95d89b41",
        "totalSupply()": "18160ddd",
        "transfer(address,uint256)": "a9059cbb",
        "transferFrom(address,address,uint256)": "23b872dd",
        "transferOwnership(address)": "f2fde38b"
    },
    "gasEstimates": {
        "creation": {
            "codeDepositCost": "2139800",
            "executionCost": "2280",
            "totalCost": "2142080"
        },
        "external": {
            "allowance(address,address)": "infinite",
            "approve(address,uint256)": "24664",
            "autoInjectLiquidity(uint256)": "infinite",
            "automatedMarketMakerPairs(address)": "2636",
            "balanceOf(address)": "2576",
            "decimals()": "289",
            "decreaseAllowance(address,uint256)": "26989",
            "enableTrading()": "26540",
            "getFeesManager()": "2409",
            "getLPPair()": "2420",
            "getMidasMultinetworkRouterManager()": "2432",
            "getOwner()": "2442",
            "getSwapThreshold()": "2336",
            "getTradingEnabled()": "2414",
            "increaseAllowance(address,uint256)": "27018",
            "initialize(string,string,uint256)": "infinite",
            "name()": "infinite",
            "self()": "279",
            "setDexRouter(address)": "infinite",
            "setFees(uint16,uint16,uint16)": "infinite",
            "setFeesManager(address)": "24677",
            "setMaxTransactionAmount(uint256)": "22358",
            "setMaxWalletAmount(uint256)": "22402",
            "setPairAddress(address)": "24677",
            "setRouterAddress(address)": "infinite",
            "setSwapThreshold(uint256)": "22402",
            "setlpPair(address)": "48885",
            "symbol()": "infinite",
            "totalSupply()": "2372",
            "transfer(address,uint256)": "infinite",
            "transferFrom(address,address,uint256)": "infinite",
            "transferOwnership(address)": "24619"
        },
        "internal": {
            "_beforeTransferCheck(address,address,uint256)": "infinite",
            "_finalizeTransfer(address,address,uint256)": "infinite",
            "_transfer(address,address,uint256)": "infinite",
            "contractMustSwap(address,address)": "infinite",
            "doInitialApproves()": "infinite",
            "initializeContract()": "infinite"
        }
    }
}