{
    "contractName": "MetaStocks",
    "abi": [
        {
            "anonymous": false,
            "inputs": [
                {
                    "indexed": true,
                    "internalType": "address",
                    "name": "owner",
                    "type": "address"
                },
                {
                    "indexed": true,
                    "internalType": "address",
                    "name": "spender",
                    "type": "address"
                },
                {
                    "indexed": false,
                    "internalType": "uint256",
                    "name": "value",
                    "type": "uint256"
                }
            ],
            "name": "Approval",
            "type": "event"
        },
        {
            "anonymous": false,
            "inputs": [
                {
                    "indexed": true,
                    "internalType": "address",
                    "name": "sender",
                    "type": "address"
                },
                {
                    "indexed": false,
                    "internalType": "uint256",
                    "name": "amount",
                    "type": "uint256"
                }
            ],
            "name": "Burn",
            "type": "event"
        },
        {
            "anonymous": false,
            "inputs": [
                {
                    "indexed": false,
                    "internalType": "uint8",
                    "name": "version",
                    "type": "uint8"
                }
            ],
            "name": "Initialized",
            "type": "event"
        },
        {
            "anonymous": false,
            "inputs": [
                {
                    "indexed": true,
                    "internalType": "address",
                    "name": "previousOwner",
                    "type": "address"
                },
                {
                    "indexed": true,
                    "internalType": "address",
                    "name": "newOwner",
                    "type": "address"
                }
            ],
            "name": "OwnershipTransferred",
            "type": "event"
        },
        {
            "anonymous": false,
            "inputs": [
                {
                    "indexed": true,
                    "internalType": "address",
                    "name": "from",
                    "type": "address"
                },
                {
                    "indexed": true,
                    "internalType": "address",
                    "name": "to",
                    "type": "address"
                },
                {
                    "indexed": false,
                    "internalType": "uint256",
                    "name": "value",
                    "type": "uint256"
                }
            ],
            "name": "Transfer",
            "type": "event"
        },
        {
            "inputs": [],
            "name": "DEAD",
            "outputs": [
                {
                    "internalType": "address",
                    "name": "",
                    "type": "address"
                }
            ],
            "stateMutability": "view",
            "type": "function"
        },
        {
            "inputs": [
                {
                    "internalType": "address",
                    "name": "owner",
                    "type": "address"
                },
                {
                    "internalType": "address",
                    "name": "spender",
                    "type": "address"
                }
            ],
            "name": "allowance",
            "outputs": [
                {
                    "internalType": "uint256",
                    "name": "",
                    "type": "uint256"
                }
            ],
            "stateMutability": "view",
            "type": "function"
        },
        {
            "inputs": [
                {
                    "internalType": "address",
                    "name": "spender",
                    "type": "address"
                },
                {
                    "internalType": "uint256",
                    "name": "amount",
                    "type": "uint256"
                }
            ],
            "name": "approve",
            "outputs": [
                {
                    "internalType": "bool",
                    "name": "",
                    "type": "bool"
                }
            ],
            "stateMutability": "nonpayable",
            "type": "function"
        },
        {
            "inputs": [
                {
                    "internalType": "uint256",
                    "name": "tokenAmount",
                    "type": "uint256"
                }
            ],
            "name": "autoLiquidity",
            "outputs": [],
            "stateMutability": "nonpayable",
            "type": "function"
        },
        {
            "inputs": [
                {
                    "internalType": "address",
                    "name": "",
                    "type": "address"
                }
            ],
            "name": "automatedMarketMakerPairs",
            "outputs": [
                {
                    "internalType": "bool",
                    "name": "",
                    "type": "bool"
                }
            ],
            "stateMutability": "view",
            "type": "function"
        },
        {
            "inputs": [
                {
                    "internalType": "address",
                    "name": "account",
                    "type": "address"
                }
            ],
            "name": "balanceOf",
            "outputs": [
                {
                    "internalType": "uint256",
                    "name": "",
                    "type": "uint256"
                }
            ],
            "stateMutability": "view",
            "type": "function"
        },
        {
            "inputs": [
                {
                    "internalType": "uint256",
                    "name": "amount",
                    "type": "uint256"
                }
            ],
            "name": "burn",
            "outputs": [],
            "stateMutability": "nonpayable",
            "type": "function"
        },
        {
            "inputs": [],
            "name": "decimals",
            "outputs": [
                {
                    "internalType": "uint8",
                    "name": "",
                    "type": "uint8"
                }
            ],
            "stateMutability": "view",
            "type": "function"
        },
        {
            "inputs": [
                {
                    "internalType": "address",
                    "name": "spender",
                    "type": "address"
                },
                {
                    "internalType": "uint256",
                    "name": "subtractedValue",
                    "type": "uint256"
                }
            ],
            "name": "decreaseAllowance",
            "outputs": [
                {
                    "internalType": "bool",
                    "name": "",
                    "type": "bool"
                }
            ],
            "stateMutability": "nonpayable",
            "type": "function"
        },
        {
            "inputs": [],
            "name": "enableTrading",
            "outputs": [],
            "stateMutability": "nonpayable",
            "type": "function"
        },
        {
            "inputs": [
                {
                    "internalType": "address",
                    "name": "account",
                    "type": "address"
                },
                {
                    "internalType": "bool",
                    "name": "val",
                    "type": "bool"
                }
            ],
            "name": "excludeFromFee",
            "outputs": [],
            "stateMutability": "nonpayable",
            "type": "function"
        },
        {
            "inputs": [],
            "name": "getOwner",
            "outputs": [
                {
                    "internalType": "address",
                    "name": "",
                    "type": "address"
                }
            ],
            "stateMutability": "view",
            "type": "function"
        },
        {
            "inputs": [
                {
                    "internalType": "address",
                    "name": "spender",
                    "type": "address"
                },
                {
                    "internalType": "uint256",
                    "name": "addedValue",
                    "type": "uint256"
                }
            ],
            "name": "increaseAllowance",
            "outputs": [
                {
                    "internalType": "bool",
                    "name": "",
                    "type": "bool"
                }
            ],
            "stateMutability": "nonpayable",
            "type": "function"
        },
        {
            "inputs": [],
            "name": "initialize",
            "outputs": [],
            "stateMutability": "nonpayable",
            "type": "function"
        },
        {
            "inputs": [
                {
                    "internalType": "address",
                    "name": "account",
                    "type": "address"
                }
            ],
            "name": "isExcludedFromFee",
            "outputs": [
                {
                    "internalType": "bool",
                    "name": "",
                    "type": "bool"
                }
            ],
            "stateMutability": "view",
            "type": "function"
        },
        {
            "inputs": [],
            "name": "lpPair",
            "outputs": [
                {
                    "internalType": "address",
                    "name": "",
                    "type": "address"
                }
            ],
            "stateMutability": "view",
            "type": "function"
        },
        {
            "inputs": [],
            "name": "marketingAddress",
            "outputs": [
                {
                    "internalType": "address",
                    "name": "",
                    "type": "address"
                }
            ],
            "stateMutability": "view",
            "type": "function"
        },
        {
            "inputs": [],
            "name": "name",
            "outputs": [
                {
                    "internalType": "string",
                    "name": "",
                    "type": "string"
                }
            ],
            "stateMutability": "view",
            "type": "function"
        },
        {
            "inputs": [],
            "name": "owner",
            "outputs": [
                {
                    "internalType": "address",
                    "name": "",
                    "type": "address"
                }
            ],
            "stateMutability": "view",
            "type": "function"
        },
        {
            "inputs": [
                {
                    "internalType": "uint256",
                    "name": "value",
                    "type": "uint256"
                }
            ],
            "name": "setAutoLiquidityPercentPercent",
            "outputs": [],
            "stateMutability": "nonpayable",
            "type": "function"
        },
        {
            "inputs": [
                {
                    "internalType": "address",
                    "name": "account",
                    "type": "address"
                }
            ],
            "name": "setMarketingAddress",
            "outputs": [],
            "stateMutability": "nonpayable",
            "type": "function"
        },
        {
            "inputs": [
                {
                    "internalType": "uint256",
                    "name": "value",
                    "type": "uint256"
                }
            ],
            "name": "setMarketingAddressPercent",
            "outputs": [],
            "stateMutability": "nonpayable",
            "type": "function"
        },
        {
            "inputs": [
                {
                    "internalType": "uint256",
                    "name": "value",
                    "type": "uint256"
                }
            ],
            "name": "setMaxTransactionAmount",
            "outputs": [],
            "stateMutability": "nonpayable",
            "type": "function"
        },
        {
            "inputs": [
                {
                    "internalType": "uint256",
                    "name": "value",
                    "type": "uint256"
                }
            ],
            "name": "setMaxWalletAmount",
            "outputs": [],
            "stateMutability": "nonpayable",
            "type": "function"
        },
        {
            "inputs": [
                {
                    "internalType": "uint256",
                    "name": "value",
                    "type": "uint256"
                }
            ],
            "name": "setSwapThreshold",
            "outputs": [],
            "stateMutability": "nonpayable",
            "type": "function"
        },
        {
            "inputs": [
                {
                    "internalType": "uint16",
                    "name": "buyFee",
                    "type": "uint16"
                },
                {
                    "internalType": "uint16",
                    "name": "sellFee",
                    "type": "uint16"
                },
                {
                    "internalType": "uint16",
                    "name": "transferFee",
                    "type": "uint16"
                }
            ],
            "name": "setTaxes",
            "outputs": [],
            "stateMutability": "nonpayable",
            "type": "function"
        },
        {
            "inputs": [
                {
                    "internalType": "address",
                    "name": "newAddress",
                    "type": "address"
                }
            ],
            "name": "setW1",
            "outputs": [],
            "stateMutability": "nonpayable",
            "type": "function"
        },
        {
            "inputs": [
                {
                    "internalType": "address",
                    "name": "newAddress",
                    "type": "address"
                }
            ],
            "name": "setW2",
            "outputs": [],
            "stateMutability": "nonpayable",
            "type": "function"
        },
        {
            "inputs": [
                {
                    "internalType": "address",
                    "name": "newAddress",
                    "type": "address"
                }
            ],
            "name": "setW3",
            "outputs": [],
            "stateMutability": "nonpayable",
            "type": "function"
        },
        {
            "inputs": [
                {
                    "internalType": "address",
                    "name": "newAddress",
                    "type": "address"
                }
            ],
            "name": "setW4",
            "outputs": [],
            "stateMutability": "nonpayable",
            "type": "function"
        },
        {
            "inputs": [
                {
                    "internalType": "address",
                    "name": "newAddress",
                    "type": "address"
                }
            ],
            "name": "setW5",
            "outputs": [],
            "stateMutability": "nonpayable",
            "type": "function"
        },
        {
            "inputs": [],
            "name": "swapThreshold",
            "outputs": [
                {
                    "internalType": "uint256",
                    "name": "",
                    "type": "uint256"
                }
            ],
            "stateMutability": "view",
            "type": "function"
        },
        {
            "inputs": [],
            "name": "swapTokenAddress",
            "outputs": [
                {
                    "internalType": "address",
                    "name": "",
                    "type": "address"
                }
            ],
            "stateMutability": "view",
            "type": "function"
        },
        {
            "inputs": [],
            "name": "symbol",
            "outputs": [
                {
                    "internalType": "string",
                    "name": "",
                    "type": "string"
                }
            ],
            "stateMutability": "view",
            "type": "function"
        },
        {
            "inputs": [],
            "name": "totalSupply",
            "outputs": [
                {
                    "internalType": "uint256",
                    "name": "",
                    "type": "uint256"
                }
            ],
            "stateMutability": "view",
            "type": "function"
        },
        {
            "inputs": [
                {
                    "internalType": "address",
                    "name": "to",
                    "type": "address"
                },
                {
                    "internalType": "uint256",
                    "name": "amount",
                    "type": "uint256"
                }
            ],
            "name": "transfer",
            "outputs": [
                {
                    "internalType": "bool",
                    "name": "",
                    "type": "bool"
                }
            ],
            "stateMutability": "nonpayable",
            "type": "function"
        },
        {
            "inputs": [
                {
                    "internalType": "address",
                    "name": "from",
                    "type": "address"
                },
                {
                    "internalType": "address",
                    "name": "to",
                    "type": "address"
                },
                {
                    "internalType": "uint256",
                    "name": "amount",
                    "type": "uint256"
                }
            ],
            "name": "transferFrom",
            "outputs": [
                {
                    "internalType": "bool",
                    "name": "",
                    "type": "bool"
                }
            ],
            "stateMutability": "nonpayable",
            "type": "function"
        },
        {
            "inputs": [
                {
                    "internalType": "address",
                    "name": "account",
                    "type": "address"
                }
            ],
            "name": "transferOwnership",
            "outputs": [],
            "stateMutability": "nonpayable",
            "type": "function"
        },
        {
            "stateMutability": "payable",
            "type": "receive"
        }
    ],
    "bytecode": "608060405234801561001057600080fd5b50612e0f806100206000396000f3fe608060405260043610620002575760003560e01c80637bb7f072116200013b578063a457c2d711620000b9578063dd62ed3e1162000078578063dd62ed3e14620006ff578063df8408fe1462000724578063e954bbeb1462000327578063f2fde38b1462000749578063f36f79e0146200076e57600080fd5b8063a457c2d7146200063a578063a5ece941146200065f578063a9059cbb1462000681578063b62496f514620006a6578063c6aca36b14620006da57600080fd5b80638a8c523c11620001065780638a8c523c146200059e5780638da5cb5b14620005b6578063906e9dd014620005d857806395d89b4114620005fd5780639d0014b1146200061557600080fd5b80637bb7f07214620005415780638129fc1c146200056657806383b464491462000327578063893d20e8146200057e57600080fd5b806327a14fc211620001d557806342966c68116200019457806342966c68146200045e578063452ed4f114620004835780634f78742714620004a55780635342acb414620004ca57806370a08231146200050757600080fd5b806327a14fc214620003d15780632903760c1462000327578063313ce56714620003f657806332cde664146200041457806339509351146200043957600080fd5b80630c222fc411620002225780630c222fc4146200032757806318160ddd146200034b5780631e293c10146200036257806323b872dd146200038757806326f64b4414620003ac57600080fd5b806303fd2a4514620002645780630445b66714620002a357806306fdde0314620002ca578063095ea7b314620002f157600080fd5b366200025f57005b600080fd5b3480156200027157600080fd5b5060665462000286906001600160a01b031681565b6040516001600160a01b0390911681526020015b60405180910390f35b348015620002b057600080fd5b50620002bb606f5481565b6040519081526020016200029a565b348015620002d757600080fd5b50620002e262000790565b6040516200029a919062002169565b348015620002fe57600080fd5b506200031662000310366004620021d7565b6200082a565b60405190151581526020016200029a565b3480156200033457600080fd5b50620003496200034636600462002206565b50565b005b3480156200035857600080fd5b50603554620002bb565b3480156200036f57600080fd5b5062000349620003813660046200222d565b6200084d565b3480156200039457600080fd5b5062000316620003a636600462002247565b6200087f565b348015620003b957600080fd5b5062000349620003cb3660046200222d565b620008a7565b348015620003de57600080fd5b5062000349620003f03660046200222d565b620008d9565b3480156200040357600080fd5b50604051601281526020016200029a565b3480156200042157600080fd5b506200034962000433366004620022a0565b6200090b565b3480156200044657600080fd5b506200031662000458366004620021d7565b620009b0565b3480156200046b57600080fd5b50620003496200047d3660046200222d565b620009d8565b3480156200049057600080fd5b5060675462000286906001600160a01b031681565b348015620004b257600080fd5b5062000349620004c436600462002206565b62000a95565b348015620004d757600080fd5b5062000316620004e936600462002206565b6001600160a01b03166000908152607b602052604090205460ff1690565b3480156200051457600080fd5b50620002bb6200052636600462002206565b6001600160a01b031660009081526033602052604090205490565b3480156200054e57600080fd5b5062000349620005603660046200222d565b62000b02565b3480156200057357600080fd5b506200034962000b34565b3480156200058b57600080fd5b506065546001600160a01b031662000286565b348015620005ab57600080fd5b506200034962000bf7565b348015620005c357600080fd5b5060655462000286906001600160a01b031681565b348015620005e557600080fd5b5062000349620005f736600462002206565b62000c8f565b3480156200060a57600080fd5b50620002e262000cde565b3480156200062257600080fd5b5062000349620006343660046200222d565b62000cef565b3480156200064757600080fd5b506200031662000659366004620021d7565b62000d21565b3480156200066c57600080fd5b5060695462000286906001600160a01b031681565b3480156200068e57600080fd5b5062000316620006a0366004620021d7565b62000da2565b348015620006b357600080fd5b5062000316620006c536600462002206565b607c6020526000908152604090205460ff1681565b348015620006e757600080fd5b5062000349620006f93660046200222d565b62000db2565b3480156200070c57600080fd5b50620002bb6200071e366004620022ea565b62000dd9565b3480156200073157600080fd5b50620003496200074336600462002328565b62000e04565b3480156200075657600080fd5b50620003496200076836600462002206565b62000e5c565b3480156200077b57600080fd5b5060685462000286906001600160a01b031681565b606060368054620007a1906200235f565b80601f0160208091040260200160405190810160405280929190818152602001828054620007cf906200235f565b8015620008205780601f10620007f45761010080835404028352916020019162000820565b820191906000526020600020905b8154815290600101906020018083116200080257829003601f168201915b5050505050905090565b6000336200083a81858562000eab565b5060019392505050565b60405180910390fd5b6065546001600160a01b031633146200087a5760405162461bcd60e51b815260040162000844906200239b565b607455565b6000336200088f85828562000fd3565b6200089c85858562001054565b506001949350505050565b6065546001600160a01b03163314620008d45760405162461bcd60e51b815260040162000844906200239b565b607255565b6065546001600160a01b03163314620009065760405162461bcd60e51b815260040162000844906200239b565b607055565b6065546001600160a01b03163314620009385760405162461bcd60e51b815260040162000844906200239b565b607d54604051630cb3799960e21b815261ffff80861660048301528085166024830152831660448201526001600160a01b03909116906332cde66490606401600060405180830381600087803b1580156200099257600080fd5b505af1158015620009a7573d6000803e3d6000fd5b50505050505050565b6000336200083a818585620009c6838362000dd9565b620009d29190620023e6565b62000eab565b3360009081526033602052604090205481111562000a515760405162461bcd60e51b815260206004820152602f60248201527f4275726e20616d6f756e742073686f756c64206265206c657373207468616e2060448201526e6163636f756e742062616c616e636560881b606482015260840162000844565b62000a5d3382620010a8565b60405181815233907fcc16f5dbb4873280815c1ee09dbd06736cffcc184412cf7a71a0fdb75d397ca59060200160405180910390a250565b606a546001600160a01b0382811691161462000ae05760405162461bcd60e51b815260206004820152600960248201526877314164647265737360b81b604482015260640162000844565b606a80546001600160a01b0319166001600160a01b0392909216919091179055565b6065546001600160a01b0316331462000b2f5760405162461bcd60e51b815260040162000844906200239b565b607155565b600062000b426001620011fc565b9050801562000b5b576000805461ff0019166101001790555b62000ba46040518060400160405280600a8152602001694d65746153746f636b7360b01b815250604051806040016040528060038152602001621354d560ea1b81525062001291565b62000bae620012cb565b801562000346576000805461ff0019169055604051600181527f7f26b83ff96e1f2b6a682f133852f6798a09c465da95921460cefb38474024989060200160405180910390a150565b6065546001600160a01b0316331462000c245760405162461bcd60e51b815260040162000844906200239b565b607a54610100900460ff161562000c7e5760405162461bcd60e51b815260206004820152601e60248201527f54726164696e67456e61626c656420616c726561647920616374697665640000604482015260640162000844565b607a805461ff001916610100179055565b6065546001600160a01b0316331462000cbc5760405162461bcd60e51b815260040162000844906200239b565b606980546001600160a01b0319166001600160a01b0392909216919091179055565b606060378054620007a1906200235f565b6065546001600160a01b0316331462000d1c5760405162461bcd60e51b815260040162000844906200239b565b606f55565b6000338162000d31828662000dd9565b90508381101562000d935760405162461bcd60e51b815260206004820152602560248201527f45524332303a2064656372656173656420616c6c6f77616e63652062656c6f77604482015264207a65726f60d81b606482015260840162000844565b6200089c828686840362000eab565b6000336200083a81858562001054565b600062000dc160028362002401565b905047600062000dd2824762002424565b5050505050565b6001600160a01b03918216600090815260346020908152604080832093909416825291909152205490565b6065546001600160a01b0316331462000e315760405162461bcd60e51b815260040162000844906200239b565b6001600160a01b03919091166000908152607b60205260409020805460ff1916911515919091179055565b6065546001600160a01b0316331462000e895760405162461bcd60e51b815260040162000844906200239b565b606580546001600160a01b0319166001600160a01b0392909216919091179055565b6001600160a01b03831662000f0f5760405162461bcd60e51b8152602060048201526024808201527f45524332303a20617070726f76652066726f6d20746865207a65726f206164646044820152637265737360e01b606482015260840162000844565b6001600160a01b03821662000f725760405162461bcd60e51b815260206004820152602260248201527f45524332303a20617070726f766520746f20746865207a65726f206164647265604482015261737360f01b606482015260840162000844565b6001600160a01b0383811660008181526034602090815260408083209487168084529482529182902085905590518481527f8c5be1e5ebec7d5bd14f71427d1e84f3dd0314c0f7b2291e5b200ac8c7c3b925910160405180910390a3505050565b600062000fe1848462000dd9565b905060001981146200104e57818110156200103f5760405162461bcd60e51b815260206004820152601d60248201527f45524332303a20696e73756666696369656e7420616c6c6f77616e6365000000604482015260640162000844565b6200104e848484840362000eab565b50505050565b62001061838383620018b9565b607a5460ff16156200107f576200107a83838362001c54565b505050565b6200108b838362001e2c565b156200109b573060005260336020525b6200107a83838362001ee6565b6001600160a01b0382166200110a5760405162461bcd60e51b815260206004820152602160248201527f45524332303a206275726e2066726f6d20746865207a65726f206164647265736044820152607360f81b606482015260840162000844565b6001600160a01b03821660009081526033602052604090205481811015620011805760405162461bcd60e51b815260206004820152602260248201527f45524332303a206275726e20616d6f756e7420657863656564732062616c616e604482015261636560f01b606482015260840162000844565b6001600160a01b0383166000908152603360205260408120838303905560358054849290620011b190849062002424565b90915550506040518281526000906001600160a01b038516907fddf252ad1be2c89b69c2b068fc378daa952ba7f163c4a11628f55a4df523b3ef9060200160405180910390a3505050565b60008054610100900460ff161562001248578160ff166001148015620012215750303b155b620012405760405162461bcd60e51b815260040162000844906200243e565b506000919050565b60005460ff808416911610620012725760405162461bcd60e51b815260040162000844906200243e565b506000805460ff191660ff92909216919091179055600190565b919050565b600054610100900460ff16620012bb5760405162461bcd60e51b815260040162000844906200248c565b620012c7828262001f6d565b5050565b606a80546001600160a01b0319908116736644ebde0f26c8f74ad18697cce8a5ac4e608cb4908117909255606b8054821683179055606c80548216735a97e36aef195cb7519fc8dfe77bb646afa805b6179055606d8054821683179055606e805490911690911790556000607581905560768190556077819055607881905560795562001364336a52b7d2dcc80cd2e400000062001fc2565b69d3c21bcecceda10000006070819055607455606580546001600160a01b0319908116331790915560698054909116736644ebde0f26c8f74ad18697cce8a5ac4e608cb417905560405160009081908190620013c090620020a7565b61ffff938416815291831660208301529091166040820152606001604051809103906000f080158015620013f8573d6000803e3d6000fd5b50607d80546001600160a01b03199081166001600160a01b0393841617909155606880547378867bbeef44f2326bf8ddd1941a4439382ef2a792168217815560655483166000908152607b6020526040808220805460ff199081166001908117909255308452828420805482168317905560695487168452828420805482168317905593549095168252908190208054909216909317905569d3c21bcecceda1000000606f55611b58607155610bb86072559051739ac64cc6e4415144c455bd8e4837fea55603e5c39190620014ce90620020b5565b6001600160a01b03928316815291166020820152604001604051809103906000f08015801562001502573d6000803e3d6000fd5b50607e80546001600160a01b0319166001600160a01b0392909216918217905560408051632165536360e21b815290516385954d8c916004808201926020929091908290030181865afa1580156200155e573d6000803e3d6000fd5b505050506040513d601f19601f82011682018060405250810190620015849190620024d7565b6001600160a01b031663c45a01556040518163ffffffff1660e01b8152600401602060405180830381865afa158015620015c2573d6000803e3d6000fd5b505050506040513d601f19601f82011682018060405250810190620015e89190620024d7565b6001600160a01b031663c9c6539630607e60009054906101000a90046001600160a01b03166001600160a01b03166385954d8c6040518163ffffffff1660e01b8152600401602060405180830381865afa1580156200164b573d6000803e3d6000fd5b505050506040513d601f19601f82011682018060405250810190620016719190620024d7565b6001600160a01b031663ad5c46486040518163ffffffff1660e01b8152600401602060405180830381865afa158015620016af573d6000803e3d6000fd5b505050506040513d601f19601f82011682018060405250810190620016d59190620024d7565b6040516001600160e01b031960e085901b1681526001600160a01b039283166004820152911660248201526044016020604051808303816000875af115801562001723573d6000803e3d6000fd5b505050506040513d601f19601f82011682018060405250810190620017499190620024d7565b606780546001600160a01b0319166001600160a01b039283169081179091556000908152607c6020908152604091829020805460ff19166001179055607e54825163b9c5524160e01b81529251620017f694339492169263b9c5524192600480820193918290030181865afa158015620017c7573d6000803e3d6000fd5b505050506040513d601f19601f82011682018060405250810190620017ed9190620024d7565b60001962000eab565b6200184f30607e60009054906101000a90046001600160a01b03166001600160a01b031663b9c552416040518163ffffffff1660e01b8152600401602060405180830381865afa158015620017c7573d6000803e3d6000fd5b606854607e546040805163b9c5524160e01b81529051620018a3936001600160a01b0390811693169163b9c552419160048083019260209291908290030181865afa158015620017c7573d6000803e3d6000fd5b606680546001600160a01b03191661dead179055565b6001600160a01b038316620019275760405162461bcd60e51b815260206004820152602d60248201527f45524332303a207472616e736665722066726f6d20746865205a45524f5f414460448201526c4452455353206164647265737360981b606482015260840162000844565b6001600160a01b038216620019935760405162461bcd60e51b815260206004820152602b60248201527f45524332303a207472616e7366657220746f20746865205a45524f5f4144445260448201526a455353206164647265737360a81b606482015260840162000844565b60008111620019ff5760405162461bcd60e51b815260206004820152603160248201527f5472616e7366657220616d6f756e74206d7573742062652067726561746572206044820152707468616e205a45524f5f4144445245535360781b606482015260840162000844565b6065546001600160a01b0384811691161480159062001a2c57506065546001600160a01b03838116911614155b801562001a4157506001600160a01b03821615155b801562001a5957506001600160a01b03821661dead14155b801562001a695750607a5460ff16155b156200107a57607a54610100900460ff1662001abd5760405162461bcd60e51b815260206004820152601260248201527154726164696e67206e6f742061637469766560701b604482015260640162000844565b6001600160a01b0383166000908152607c602052604090205460ff161562001bbf5760745481111562001b515760405162461bcd60e51b815260206004820152603560248201527f427579207472616e7366657220616d6f756e742065786365656473207468652060448201527436b0bc2a3930b739b0b1ba34b7b720b6b7bab73a1760591b606482015260840162000844565b6070546001600160a01b03831660009081526033602052604090205462001b799083620023e6565b11156200107a5760405162461bcd60e51b815260206004820152601360248201527213585e081dd85b1b195d08195e18d959591959606a1b604482015260640162000844565b6001600160a01b0382166000908152607c602052604090205460ff161562001b51576074548111156200107a5760405162461bcd60e51b815260206004820152603660248201527f53656c6c207472616e7366657220616d6f756e742065786365656473207468656044820152751036b0bc2a3930b739b0b1ba34b7b720b6b7bab73a1760511b606482015260840162000844565b6001600160a01b03831662001cba5760405162461bcd60e51b815260206004820152602560248201527f45524332303a207472616e736665722066726f6d20746865207a65726f206164604482015264647265737360d81b606482015260840162000844565b6001600160a01b03821662001d1e5760405162461bcd60e51b815260206004820152602360248201527f45524332303a207472616e7366657220746f20746865207a65726f206164647260448201526265737360e81b606482015260840162000844565b6001600160a01b0383166000908152603360205260409020548181101562001d985760405162461bcd60e51b815260206004820152602660248201527f45524332303a207472616e7366657220616d6f756e7420657863656564732062604482015265616c616e636560d01b606482015260840162000844565b6001600160a01b0380851660009081526033602052604080822085850390559185168152908120805484929062001dd1908490620023e6565b92505081905550826001600160a01b0316846001600160a01b03167fddf252ad1be2c89b69c2b068fc378daa952ba7f163c4a11628f55a4df523b3ef8460405162001e1e91815260200190565b60405180910390a36200104e565b30600090815260336020526040812054606f54811015801562001e525750607a5460ff16155b801562001e6d57506067546001600160a01b03858116911614155b801562001e9257506067546001600160a01b0316600090815260336020526040812054115b801562001eb857506001600160a01b0383166000908152607b602052604090205460ff16155b801562001ede57506001600160a01b0384166000908152607b602052604090205460ff16155b949350505050565b6001600160a01b0383166000908152607b602052604081205482919060019060ff168062001f2c57506001600160a01b0385166000908152607b602052604090205460ff165b1562001f36575060005b801562001f585762001f49828562002424565b925062001f5886308462001c54565b62001f6586868562001c54565b505050505050565b600054610100900460ff1662001f975760405162461bcd60e51b815260040162000844906200248c565b815162001fac906036906020850190620020c3565b5080516200107a906037906020840190620020c3565b6001600160a01b0382166200201a5760405162461bcd60e51b815260206004820152601f60248201527f45524332303a206d696e7420746f20746865207a65726f206164647265737300604482015260640162000844565b80603560008282546200202e9190620023e6565b90915550506001600160a01b038216600090815260336020526040812080548392906200205d908490620023e6565b90915550506040518181526001600160a01b038316906000907fddf252ad1be2c89b69c2b068fc378daa952ba7f163c4a11628f55a4df523b3ef9060200160405180910390a35050565b6101f780620024f883390190565b6106eb80620026ef83390190565b828054620020d1906200235f565b90600052602060002090601f016020900481019282620020f5576000855562002140565b82601f106200211057805160ff191683800117855562002140565b8280016001018555821562002140579182015b828111156200214057825182559160200191906001019062002123565b506200214e92915062002152565b5090565b5b808211156200214e576000815560010162002153565b600060208083528351808285015260005b8181101562002198578581018301518582016040015282016200217a565b81811115620021ab576000604083870101525b50601f01601f1916929092016040019392505050565b6001600160a01b03811681146200034657600080fd5b60008060408385031215620021eb57600080fd5b8235620021f881620021c1565b946020939093013593505050565b6000602082840312156200221957600080fd5b81356200222681620021c1565b9392505050565b6000602082840312156200224057600080fd5b5035919050565b6000806000606084860312156200225d57600080fd5b83356200226a81620021c1565b925060208401356200227c81620021c1565b929592945050506040919091013590565b803561ffff811681146200128c57600080fd5b600080600060608486031215620022b657600080fd5b620022c1846200228d565b9250620022d1602085016200228d565b9150620022e1604085016200228d565b90509250925092565b60008060408385031215620022fe57600080fd5b82356200230b81620021c1565b915060208301356200231d81620021c1565b809150509250929050565b600080604083850312156200233c57600080fd5b82356200234981620021c1565b9150602083013580151581146200231d57600080fd5b600181811c908216806200237457607f821691505b6020821081036200239557634e487b7160e01b600052602260045260246000fd5b50919050565b6020808252818101527f4f776e61626c653a2063616c6c6572206973206e6f7420746865206f776e6572604082015260600190565b634e487b7160e01b600052601160045260246000fd5b60008219821115620023fc57620023fc620023d0565b500190565b6000826200241f57634e487b7160e01b600052601260045260246000fd5b500490565b600082821015620024395762002439620023d0565b500390565b6020808252602e908201527f496e697469616c697a61626c653a20636f6e747261637420697320616c72656160408201526d191e481a5b9a5d1a585b1a5e995960921b606082015260800190565b6020808252602b908201527f496e697469616c697a61626c653a20636f6e7472616374206973206e6f74206960408201526a6e697469616c697a696e6760a81b606082015260800190565b600060208284031215620024ea57600080fd5b81516200222681620021c156fe608060405234801561001057600080fd5b506040516101f73803806101f783398101604081905261002f916100a4565b6127106001556040805160608101825261ffff948516808252938516602082018190529290941693018390526000805463ffffffff1916909217620100009091021761ffff60201b19166401000000009092029190911790556100e7565b805161ffff8116811461009f57600080fd5b919050565b6000806000606084860312156100b957600080fd5b6100c28461008d565b92506100d06020850161008d565b91506100de6040850161008d565b90509250925092565b610101806100f66000396000f3fe6080604052348015600f57600080fd5b506004361060285760003560e01c806332cde66414602d575b600080fd5b60776038366004608f565b6000805461ffff94851663ffffffff199091161762010000938516939093029290921765ffff0000000019166401000000009190931602919091179055565b005b803561ffff81168114608a57600080fd5b919050565b60008060006060848603121560a357600080fd5b60aa846079565b925060b6602085016079565b915060c2604085016079565b9050925092509256fea26469706673582212200d8a2b799df0b157ab085c2550b5532a2d2ea50fab774aecf70bb97f9e8dbfc264736f6c634300080e0033608060405234801561001057600080fd5b506040516106eb3803806106eb83398101604081905261002f9161007c565b600080546001600160a01b039384166001600160a01b031991821617909155600180549290931691161790556100af565b80516001600160a01b038116811461007757600080fd5b919050565b6000806040838503121561008f57600080fd5b61009883610060565b91506100a660208401610060565b90509250929050565b61062d806100be6000396000f3fe608060405234801561001057600080fd5b506004361061004c5760003560e01c80632606222a146100515780632c4a73611461006657806385954d8c14610079578063b9c5524114610079575b600080fd5b61006461005f366004610497565b610098565b005b6100646100743660046104d8565b61026b565b600054604080516001600160a01b039092168252519081900360200190f35b60408051600280825260608201835260009260208301908036833701905050905083816000815181106100cd576100cd610504565b60200260200101906001600160a01b031690816001600160a01b03168152505060008054906101000a90046001600160a01b03166001600160a01b031663ad5c46486040518163ffffffff1660e01b8152600401602060405180830381865afa15801561013e573d6000803e3d6000fd5b505050506040513d601f19601f82011682018060405250810190610162919061051a565b8160018151811061017557610175610504565b6001600160a01b03928316602091820292909201015260005460405163095ea7b360e01b8152908216600482015260001960248201529085169063095ea7b3906044016020604051808303816000875af11580156101d7573d6000803e3d6000fd5b505050506040513d601f19601f820116820180604052508101906101fb919061053e565b506000805460405163791ac94760e01b81526001600160a01b039091169163791ac94791610233918691869089904290600401610560565b600060405180830381600087803b15801561024d57600080fd5b505af1158015610261573d6000803e3d6000fd5b5050505050505050565b604080516003808252608082019092526000916020820160608036833701905050905030816000815181106102a2576102a2610504565b60200260200101906001600160a01b031690816001600160a01b03168152505060008054906101000a90046001600160a01b03166001600160a01b031663ad5c46486040518163ffffffff1660e01b8152600401602060405180830381865afa158015610313573d6000803e3d6000fd5b505050506040513d601f19601f82011682018060405250810190610337919061051a565b8160018151811061034a5761034a610504565b6001600160a01b03928316602091820292909201015260015482519116908290600290811061037b5761037b610504565b6001600160a01b03928316602091820292909201015260015460005460405163095ea7b360e01b81529083166004820152600019602482015291169063095ea7b3906044016020604051808303816000875af11580156103df573d6000803e3d6000fd5b505050506040513d601f19601f82011682018060405250810190610403919061053e565b50600080546001600160a01b031690635c11d7959084908487610428426103e86105d1565b6040518663ffffffff1660e01b8152600401610448959493929190610560565b600060405180830381600087803b15801561046257600080fd5b505af1158015610476573d6000803e3d6000fd5b50505050505050565b6001600160a01b038116811461049457600080fd5b50565b6000806000606084860312156104ac57600080fd5b83356104b78161047f565b925060208401356104c78161047f565b929592945050506040919091013590565b600080604083850312156104eb57600080fd5b82356104f68161047f565b946020939093013593505050565b634e487b7160e01b600052603260045260246000fd5b60006020828403121561052c57600080fd5b81516105378161047f565b9392505050565b60006020828403121561055057600080fd5b8151801515811461053757600080fd5b600060a082018783526020878185015260a0604085015281875180845260c086019150828901935060005b818110156105b05784516001600160a01b03168352938301939183019160010161058b565b50506001600160a01b03969096166060850152505050608001529392505050565b600082198211156105f257634e487b7160e01b600052601160045260246000fd5b50019056fea2646970667358221220a508e080e137a90ab3f1de9e30255093e0802cfaaf8d2ff6ee141234fa18d2dc64736f6c634300080e0033a2646970667358221220942bf2d72ca48892988babefa03e23f8aadbf58b770b3dc6153beb2bb3e7e2cb64736f6c634300080e0033",
    "sourcePath": "/home/nkt/Desktop/metaStoksContracts/contracts/MetaStocks.sol",
    "compiler": {
        "name": "solc",
        "version": "0.8.14+commit.80d49f37"
    },
    "functionHashes": {
        "DEAD()": "03fd2a45",
        "allowance(address,address)": "dd62ed3e",
        "approve(address,uint256)": "095ea7b3",
        "autoLiquidity(uint256)": "c6aca36b",
        "automatedMarketMakerPairs(address)": "b62496f5",
        "balanceOf(address)": "70a08231",
        "burn(uint256)": "42966c68",
        "decimals()": "313ce567",
        "decreaseAllowance(address,uint256)": "a457c2d7",
        "enableTrading()": "8a8c523c",
        "excludeFromFee(address,bool)": "df8408fe",
        "getOwner()": "893d20e8",
        "increaseAllowance(address,uint256)": "39509351",
        "initialize()": "8129fc1c",
        "isExcludedFromFee(address)": "5342acb4",
        "lpPair()": "452ed4f1",
        "marketingAddress()": "a5ece941",
        "name()": "06fdde03",
        "owner()": "8da5cb5b",
        "setAutoLiquidityPercentPercent(uint256)": "26f64b44",
        "setMarketingAddress(address)": "906e9dd0",
        "setMarketingAddressPercent(uint256)": "7bb7f072",
        "setMaxTransactionAmount(uint256)": "1e293c10",
        "setMaxWalletAmount(uint256)": "27a14fc2",
        "setSwapThreshold(uint256)": "9d0014b1",
        "setTaxes(uint16,uint16,uint16)": "32cde664",
        "setW1(address)": "4f787427",
        "setW2(address)": "e954bbeb",
        "setW3(address)": "83b46449",
        "setW4(address)": "2903760c",
        "setW5(address)": "0c222fc4",
        "swapThreshold()": "0445b667",
        "swapTokenAddress()": "f36f79e0",
        "symbol()": "95d89b41",
        "totalSupply()": "18160ddd",
        "transfer(address,uint256)": "a9059cbb",
        "transferFrom(address,address,uint256)": "23b872dd",
        "transferOwnership(address)": "f2fde38b"
    },
    "gasEstimates": {
        "creation": {
            "codeDepositCost": "2358200",
            "executionCost": "2530",
            "totalCost": "2360730"
        },
        "external": {
            "DEAD()": "2373",
            "allowance(address,address)": "infinite",
            "approve(address,uint256)": "24708",
            "autoLiquidity(uint256)": "517",
            "automatedMarketMakerPairs(address)": "2636",
            "balanceOf(address)": "2664",
            "burn(uint256)": "54513",
            "decimals()": "267",
            "decreaseAllowance(address,uint256)": "26989",
            "enableTrading()": "28690",
            "excludeFromFee(address,bool)": "26894",
            "getOwner()": "2432",
            "increaseAllowance(address,uint256)": "27106",
            "initialize()": "infinite",
            "isExcludedFromFee(address)": "2654",
            "lpPair()": "2393",
            "marketingAddress()": "2393",
            "name()": "infinite",
            "owner()": "2393",
            "setAutoLiquidityPercentPercent(uint256)": "24598",
            "setMarketingAddress(address)": "26794",
            "setMarketingAddressPercent(uint256)": "24510",
            "setMaxTransactionAmount(uint256)": "24554",
            "setMaxWalletAmount(uint256)": "24510",
            "setSwapThreshold(uint256)": "24597",
            "setTaxes(uint16,uint16,uint16)": "infinite",
            "setW1(address)": "26804",
            "setW2(address)": "infinite",
            "setW3(address)": "infinite",
            "setW4(address)": "infinite",
            "setW5(address)": "infinite",
            "swapThreshold()": "2364",
            "swapTokenAddress()": "2458",
            "symbol()": "infinite",
            "totalSupply()": "2360",
            "transfer(address,uint256)": "infinite",
            "transferFrom(address,address,uint256)": "infinite",
            "transferOwnership(address)": "26815"
        },
        "internal": {
            "_beforeTransferCheck(address,address,uint256)": "infinite",
            "_finalizeTransfer(address,address,uint256)": "infinite",
            "_transfer(address,address,uint256)": "infinite",
            "contractMustSwap(address,address)": "17364",
            "initializeContract()": "infinite"
        }
    }
}