{
    "contractName": "MetaStocks",
    "abi": [
        {
            "anonymous": false,
            "inputs": [
                {
                    "indexed": true,
                    "internalType": "address",
                    "name": "owner",
                    "type": "address"
                },
                {
                    "indexed": true,
                    "internalType": "address",
                    "name": "spender",
                    "type": "address"
                },
                {
                    "indexed": false,
                    "internalType": "uint256",
                    "name": "value",
                    "type": "uint256"
                }
            ],
            "name": "Approval",
            "type": "event"
        },
        {
            "anonymous": false,
            "inputs": [
                {
                    "indexed": true,
                    "internalType": "address",
                    "name": "sender",
                    "type": "address"
                },
                {
                    "indexed": false,
                    "internalType": "uint256",
                    "name": "amount",
                    "type": "uint256"
                }
            ],
            "name": "Burn",
            "type": "event"
        },
        {
            "anonymous": false,
            "inputs": [
                {
                    "indexed": false,
                    "internalType": "uint8",
                    "name": "version",
                    "type": "uint8"
                }
            ],
            "name": "Initialized",
            "type": "event"
        },
        {
            "anonymous": false,
            "inputs": [
                {
                    "indexed": true,
                    "internalType": "address",
                    "name": "previousOwner",
                    "type": "address"
                },
                {
                    "indexed": true,
                    "internalType": "address",
                    "name": "newOwner",
                    "type": "address"
                }
            ],
            "name": "OwnershipTransferred",
            "type": "event"
        },
        {
            "anonymous": false,
            "inputs": [
                {
                    "indexed": true,
                    "internalType": "address",
                    "name": "from",
                    "type": "address"
                },
                {
                    "indexed": true,
                    "internalType": "address",
                    "name": "to",
                    "type": "address"
                },
                {
                    "indexed": false,
                    "internalType": "uint256",
                    "name": "value",
                    "type": "uint256"
                }
            ],
            "name": "Transfer",
            "type": "event"
        },
        {
            "inputs": [
                {
                    "internalType": "address",
                    "name": "owner",
                    "type": "address"
                },
                {
                    "internalType": "address",
                    "name": "spender",
                    "type": "address"
                }
            ],
            "name": "allowance",
            "outputs": [
                {
                    "internalType": "uint256",
                    "name": "",
                    "type": "uint256"
                }
            ],
            "stateMutability": "view",
            "type": "function"
        },
        {
            "inputs": [
                {
                    "internalType": "address",
                    "name": "spender",
                    "type": "address"
                },
                {
                    "internalType": "uint256",
                    "name": "amount",
                    "type": "uint256"
                }
            ],
            "name": "approve",
            "outputs": [
                {
                    "internalType": "bool",
                    "name": "",
                    "type": "bool"
                }
            ],
            "stateMutability": "nonpayable",
            "type": "function"
        },
        {
            "inputs": [
                {
                    "internalType": "uint256",
                    "name": "tokenAmount",
                    "type": "uint256"
                }
            ],
            "name": "autoLiquidity",
            "outputs": [],
            "stateMutability": "nonpayable",
            "type": "function"
        },
        {
            "inputs": [
                {
                    "internalType": "address",
                    "name": "account",
                    "type": "address"
                }
            ],
            "name": "balanceOf",
            "outputs": [
                {
                    "internalType": "uint256",
                    "name": "",
                    "type": "uint256"
                }
            ],
            "stateMutability": "view",
            "type": "function"
        },
        {
            "inputs": [],
            "name": "decimals",
            "outputs": [
                {
                    "internalType": "uint8",
                    "name": "",
                    "type": "uint8"
                }
            ],
            "stateMutability": "view",
            "type": "function"
        },
        {
            "inputs": [
                {
                    "internalType": "address",
                    "name": "spender",
                    "type": "address"
                },
                {
                    "internalType": "uint256",
                    "name": "subtractedValue",
                    "type": "uint256"
                }
            ],
            "name": "decreaseAllowance",
            "outputs": [
                {
                    "internalType": "bool",
                    "name": "",
                    "type": "bool"
                }
            ],
            "stateMutability": "nonpayable",
            "type": "function"
        },
        {
            "inputs": [],
            "name": "getOwner",
            "outputs": [
                {
                    "internalType": "address",
                    "name": "",
                    "type": "address"
                }
            ],
            "stateMutability": "view",
            "type": "function"
        },
        {
            "inputs": [
                {
                    "internalType": "address",
                    "name": "spender",
                    "type": "address"
                },
                {
                    "internalType": "uint256",
                    "name": "addedValue",
                    "type": "uint256"
                }
            ],
            "name": "increaseAllowance",
            "outputs": [
                {
                    "internalType": "bool",
                    "name": "",
                    "type": "bool"
                }
            ],
            "stateMutability": "nonpayable",
            "type": "function"
        },
        {
            "inputs": [
                {
                    "internalType": "string",
                    "name": "_name",
                    "type": "string"
                },
                {
                    "internalType": "string",
                    "name": "_symbol",
                    "type": "string"
                }
            ],
            "name": "initialize",
            "outputs": [],
            "stateMutability": "nonpayable",
            "type": "function"
        },
        {
            "inputs": [],
            "name": "initialize",
            "outputs": [],
            "stateMutability": "nonpayable",
            "type": "function"
        },
        {
            "inputs": [],
            "name": "name",
            "outputs": [
                {
                    "internalType": "string",
                    "name": "",
                    "type": "string"
                }
            ],
            "stateMutability": "view",
            "type": "function"
        },
        {
            "inputs": [],
            "name": "self",
            "outputs": [
                {
                    "internalType": "address",
                    "name": "",
                    "type": "address"
                }
            ],
            "stateMutability": "view",
            "type": "function"
        },
        {
            "inputs": [
                {
                    "internalType": "uint16",
                    "name": "buyFee",
                    "type": "uint16"
                },
                {
                    "internalType": "uint16",
                    "name": "sellFee",
                    "type": "uint16"
                },
                {
                    "internalType": "uint16",
                    "name": "transferFee",
                    "type": "uint16"
                }
            ],
            "name": "setFees",
            "outputs": [],
            "stateMutability": "nonpayable",
            "type": "function"
        },
        {
            "inputs": [],
            "name": "symbol",
            "outputs": [
                {
                    "internalType": "string",
                    "name": "",
                    "type": "string"
                }
            ],
            "stateMutability": "view",
            "type": "function"
        },
        {
            "inputs": [],
            "name": "totalSupply",
            "outputs": [
                {
                    "internalType": "uint256",
                    "name": "",
                    "type": "uint256"
                }
            ],
            "stateMutability": "view",
            "type": "function"
        },
        {
            "inputs": [
                {
                    "internalType": "address",
                    "name": "to",
                    "type": "address"
                },
                {
                    "internalType": "uint256",
                    "name": "amount",
                    "type": "uint256"
                }
            ],
            "name": "transfer",
            "outputs": [
                {
                    "internalType": "bool",
                    "name": "",
                    "type": "bool"
                }
            ],
            "stateMutability": "nonpayable",
            "type": "function"
        },
        {
            "inputs": [
                {
                    "internalType": "address",
                    "name": "from",
                    "type": "address"
                },
                {
                    "internalType": "address",
                    "name": "to",
                    "type": "address"
                },
                {
                    "internalType": "uint256",
                    "name": "amount",
                    "type": "uint256"
                }
            ],
            "name": "transferFrom",
            "outputs": [
                {
                    "internalType": "bool",
                    "name": "",
                    "type": "bool"
                }
            ],
            "stateMutability": "nonpayable",
            "type": "function"
        },
        {
            "inputs": [
                {
                    "internalType": "address",
                    "name": "account",
                    "type": "address"
                }
            ],
            "name": "transferOwnership",
            "outputs": [],
            "stateMutability": "nonpayable",
            "type": "function"
        },
        {
            "stateMutability": "payable",
            "type": "receive"
        }
    ],
    "bytecode": "608060405234801561001057600080fd5b50612539806100206000396000f3fe608060405260043610620001235760003560e01c80637104ddb211620000a1578063a457c2d7116200006c578063a457c2d7146200031e578063a9059cbb1462000343578063c6aca36b1462000368578063dd62ed3e146200038d578063f2fde38b14620003b257600080fd5b80637104ddb214620002a55780638129fc1c14620002ce578063893d20e814620002e657806395d89b41146200030657600080fd5b8063313ce56711620000ee578063313ce56714620001dc5780633950935114620001fa5780634cd88b76146200021f578063534c6bcb146200024657806370a08231146200026b57600080fd5b806306fdde031462000130578063095ea7b3146200016057806318160ddd146200019657806323b872dd14620001b757600080fd5b366200012b57005b600080fd5b3480156200013d57600080fd5b5062000148620003d7565b60405162000157919062001891565b60405180910390f35b3480156200016d57600080fd5b50620001856200017f366004620018ff565b62000471565b604051901515815260200162000157565b348015620001a357600080fd5b506035545b60405190815260200162000157565b348015620001c457600080fd5b5062000185620001d63660046200192e565b6200048b565b348015620001e957600080fd5b506040516012815260200162000157565b3480156200020757600080fd5b506200018562000219366004620018ff565b620004b3565b3480156200022c57600080fd5b50620002446200023e36600462001a1f565b620004db565b005b3480156200025357600080fd5b50620002446200026536600462001a9d565b62000564565b3480156200027857600080fd5b50620001a86200028a36600462001ae7565b6001600160a01b031660009081526033602052604090205490565b348015620002b257600080fd5b50305b6040516001600160a01b03909116815260200162000157565b348015620002db57600080fd5b506200024462000641565b348015620002f357600080fd5b506065546001600160a01b0316620002b5565b3480156200031357600080fd5b5062000148620006fb565b3480156200032b57600080fd5b50620001856200033d366004620018ff565b6200070c565b3480156200035057600080fd5b506200018562000362366004620018ff565b6200078d565b3480156200037557600080fd5b50620002446200038736600462001b0e565b6200079d565b3480156200039a57600080fd5b50620001a8620003ac36600462001b28565b620007c4565b348015620003bf57600080fd5b5062000244620003d136600462001ae7565b620007ef565b606060368054620003e89062001b66565b80601f0160208091040260200160405190810160405280929190818152602001828054620004169062001b66565b8015620004675780601f106200043b5761010080835404028352916020019162000467565b820191906000526020600020905b8154815290600101906020018083116200044957829003601f168201915b5050505050905090565b600033620004818185856200086d565b5060019392505050565b6000336200049b85828562000995565b620004a885858562000a16565b506001949350505050565b60003362000481818585620004c98383620007c4565b620004d5919062001bb8565b6200086d565b6000620004e9600162000a6b565b9050801562000502576000805461ff0019166101001790555b6200050e838362000b00565b6200051862000b3a565b80156200055f576000805461ff0019169055604051600181527f7f26b83ff96e1f2b6a682f133852f6798a09c465da95921460cefb38474024989060200160405180910390a15b505050565b6065546001600160a01b03163314620005c45760405162461bcd60e51b815260206004820181905260248201527f4f776e61626c653a2063616c6c6572206973206e6f7420746865206f776e657260448201526064015b60405180910390fd5b606b5460405163534c6bcb60e01b815261ffff8086166004830152808516602483015283166044820152620100009091046001600160a01b03169063534c6bcb90606401600060405180830381600087803b1580156200062357600080fd5b505af115801562000638573d6000803e3d6000fd5b50505050505050565b60006200064f600162000a6b565b9050801562000668576000805461ff0019166101001790555b620006b16040518060400160405280600a8152602001694d65746153746f636b7360b01b815250604051806040016040528060038152602001621354d560ea1b81525062000b00565b8015620006f8576000805461ff0019169055604051600181527f7f26b83ff96e1f2b6a682f133852f6798a09c465da95921460cefb38474024989060200160405180910390a15b50565b606060378054620003e89062001b66565b600033816200071c8286620007c4565b9050838110156200077e5760405162461bcd60e51b815260206004820152602560248201527f45524332303a2064656372656173656420616c6c6f77616e63652062656c6f77604482015264207a65726f60d81b6064820152608401620005bb565b620004a882868684036200086d565b6000336200048181858562000a16565b6000620007ac60028362001bd3565b9050476000620007bd824762001bf6565b5050505050565b6001600160a01b03918216600090815260346020908152604080832093909416825291909152205490565b6065546001600160a01b031633146200084b5760405162461bcd60e51b815260206004820181905260248201527f4f776e61626c653a2063616c6c6572206973206e6f7420746865206f776e65726044820152606401620005bb565b606580546001600160a01b0319166001600160a01b0392909216919091179055565b6001600160a01b038316620008d15760405162461bcd60e51b8152602060048201526024808201527f45524332303a20617070726f76652066726f6d20746865207a65726f206164646044820152637265737360e01b6064820152608401620005bb565b6001600160a01b038216620009345760405162461bcd60e51b815260206004820152602260248201527f45524332303a20617070726f766520746f20746865207a65726f206164647265604482015261737360f01b6064820152608401620005bb565b6001600160a01b0383811660008181526034602090815260408083209487168084529482529182902085905590518481527f8c5be1e5ebec7d5bd14f71427d1e84f3dd0314c0f7b2291e5b200ac8c7c3b925910160405180910390a3505050565b6000620009a38484620007c4565b9050600019811462000a10578181101562000a015760405162461bcd60e51b815260206004820152601d60248201527f45524332303a20696e73756666696369656e7420616c6c6f77616e63650000006044820152606401620005bb565b62000a1084848484036200086d565b50505050565b62000a2383838362000fe1565b606b5460ff161562000a3c576200055f8383836200137c565b62000a48838362001554565b1562000a5e57600062000a5b306200028a565b50505b6200055f8383836200160e565b60008054610100900460ff161562000ab7578160ff16600114801562000a905750303b155b62000aaf5760405162461bcd60e51b8152600401620005bb9062001c10565b506000919050565b60005460ff80841691161062000ae15760405162461bcd60e51b8152600401620005bb9062001c10565b506000805460ff191660ff92909216919091179055600190565b919050565b600054610100900460ff1662000b2a5760405162461bcd60e51b8152600401620005bb9062001c5e565b62000b36828262001695565b5050565b60405162000b4890620017cf565b604051809103906000f08015801562000b65573d6000803e3d6000fd5b50606b60026101000a8154816001600160a01b0302191690836001600160a01b0316021790555062000ba3336a52b7d2dcc80cd2e4000000620016ea565b69d3c21bcecceda10000006069819055606a55606580546001600160a01b0319163317905560405162000bd690620017cf565b604051809103906000f08015801562000bf3573d6000803e3d6000fd5b50606b80546001600160a01b0392909216620100000262010000600160b01b031990921691909117905569d3c21bcecceda1000000606855604051739ac64cc6e4415144c455bd8e4837fea55603e5c3907378867bbeef44f2326bf8ddd1941a4439382ef2a79062000c6590620017dd565b6001600160a01b03928316815291166020820152604001604051809103906000f08015801562000c99573d6000803e3d6000fd5b50606c80546001600160a01b0319166001600160a01b0392909216918217905560408051632165536360e21b815290516385954d8c916004808201926020929091908290030181865afa15801562000cf5573d6000803e3d6000fd5b505050506040513d601f19601f8201168201806040525081019062000d1b919062001ca9565b6001600160a01b031663c45a01556040518163ffffffff1660e01b8152600401602060405180830381865afa15801562000d59573d6000803e3d6000fd5b505050506040513d601f19601f8201168201806040525081019062000d7f919062001ca9565b6001600160a01b031663c9c6539630606c60009054906101000a90046001600160a01b03166001600160a01b03166385954d8c6040518163ffffffff1660e01b8152600401602060405180830381865afa15801562000de2573d6000803e3d6000fd5b505050506040513d601f19601f8201168201806040525081019062000e08919062001ca9565b6001600160a01b031663ad5c46486040518163ffffffff1660e01b8152600401602060405180830381865afa15801562000e46573d6000803e3d6000fd5b505050506040513d601f19601f8201168201806040525081019062000e6c919062001ca9565b6040516001600160e01b031960e085901b1681526001600160a01b039283166004820152911660248201526044016020604051808303816000875af115801562000eba573d6000803e3d6000fd5b505050506040513d601f19601f8201168201806040525081019062000ee0919062001ca9565b606780546001600160a01b0319166001600160a01b03928316179055606c546040805163b9c5524160e01b8152905162000f72933393169163b9c552419160048083019260209291908290030181865afa15801562000f43573d6000803e3d6000fd5b505050506040513d601f19601f8201168201806040525081019062000f69919062001ca9565b6000196200086d565b62000fcb30606c60009054906101000a90046001600160a01b03166001600160a01b031663b9c552416040518163ffffffff1660e01b8152600401602060405180830381865afa15801562000f43573d6000803e3d6000fd5b606680546001600160a01b03191661dead179055565b6001600160a01b0383166200104f5760405162461bcd60e51b815260206004820152602d60248201527f45524332303a207472616e736665722066726f6d20746865205a45524f5f414460448201526c4452455353206164647265737360981b6064820152608401620005bb565b6001600160a01b038216620010bb5760405162461bcd60e51b815260206004820152602b60248201527f45524332303a207472616e7366657220746f20746865205a45524f5f4144445260448201526a455353206164647265737360a81b6064820152608401620005bb565b60008111620011275760405162461bcd60e51b815260206004820152603160248201527f5472616e7366657220616d6f756e74206d7573742062652067726561746572206044820152707468616e205a45524f5f4144445245535360781b6064820152608401620005bb565b6065546001600160a01b038481169116148015906200115457506065546001600160a01b03838116911614155b80156200116957506001600160a01b03821615155b80156200118157506001600160a01b03821661dead14155b8015620011915750606b5460ff16155b156200055f57606b54610100900460ff16620011e55760405162461bcd60e51b815260206004820152601260248201527154726164696e67206e6f742061637469766560701b6044820152606401620005bb565b6001600160a01b0383166000908152606e602052604090205460ff1615620012e757606a54811115620012795760405162461bcd60e51b815260206004820152603560248201527f427579207472616e7366657220616d6f756e742065786365656473207468652060448201527436b0bc2a3930b739b0b1ba34b7b720b6b7bab73a1760591b6064820152608401620005bb565b6069546001600160a01b038316600090815260336020526040902054620012a1908362001bb8565b11156200055f5760405162461bcd60e51b815260206004820152601360248201527213585e081dd85b1b195d08195e18d959591959606a1b6044820152606401620005bb565b6001600160a01b0382166000908152606e602052604090205460ff16156200127957606a548111156200055f5760405162461bcd60e51b815260206004820152603660248201527f53656c6c207472616e7366657220616d6f756e742065786365656473207468656044820152751036b0bc2a3930b739b0b1ba34b7b720b6b7bab73a1760511b6064820152608401620005bb565b6001600160a01b038316620013e25760405162461bcd60e51b815260206004820152602560248201527f45524332303a207472616e736665722066726f6d20746865207a65726f206164604482015264647265737360d81b6064820152608401620005bb565b6001600160a01b038216620014465760405162461bcd60e51b815260206004820152602360248201527f45524332303a207472616e7366657220746f20746865207a65726f206164647260448201526265737360e81b6064820152608401620005bb565b6001600160a01b03831660009081526033602052604090205481811015620014c05760405162461bcd60e51b815260206004820152602660248201527f45524332303a207472616e7366657220616d6f756e7420657863656564732062604482015265616c616e636560d01b6064820152608401620005bb565b6001600160a01b03808516600090815260336020526040808220858503905591851681529081208054849290620014f990849062001bb8565b92505081905550826001600160a01b0316846001600160a01b03167fddf252ad1be2c89b69c2b068fc378daa952ba7f163c4a11628f55a4df523b3ef846040516200154691815260200190565b60405180910390a362000a10565b60008062001562306200028a565b905060685481101580156200157a5750606b5460ff16155b80156200159557506067546001600160a01b03858116911614155b8015620015ba57506067546001600160a01b0316600090815260336020526040812054115b8015620015e057506001600160a01b0383166000908152606d602052604090205460ff16155b80156200160657506001600160a01b0384166000908152606d602052604090205460ff16155b949350505050565b6001600160a01b0383166000908152606d602052604081205482919060019060ff16806200165457506001600160a01b0385166000908152606d602052604090205460ff165b156200165e575060005b8015620016805762001671828562001bf6565b9250620016808630846200137c565b6200168d8686856200137c565b505050505050565b600054610100900460ff16620016bf5760405162461bcd60e51b8152600401620005bb9062001c5e565b8151620016d4906036906020850190620017eb565b5080516200055f906037906020840190620017eb565b6001600160a01b038216620017425760405162461bcd60e51b815260206004820152601f60248201527f45524332303a206d696e7420746f20746865207a65726f2061646472657373006044820152606401620005bb565b806035600082825462001756919062001bb8565b90915550506001600160a01b038216600090815260336020526040812080548392906200178590849062001bb8565b90915550506040518181526001600160a01b038316906000907fddf252ad1be2c89b69c2b068fc378daa952ba7f163c4a11628f55a4df523b3ef9060200160405180910390a35050565b61014f8062001cca83390190565b6106eb8062001e1983390190565b828054620017f99062001b66565b90600052602060002090601f0160209004810192826200181d576000855562001868565b82601f106200183857805160ff191683800117855562001868565b8280016001018555821562001868579182015b82811115620018685782518255916020019190600101906200184b565b50620018769291506200187a565b5090565b5b808211156200187657600081556001016200187b565b600060208083528351808285015260005b81811015620018c057858101830151858201604001528201620018a2565b81811115620018d3576000604083870101525b50601f01601f1916929092016040019392505050565b6001600160a01b0381168114620006f857600080fd5b600080604083850312156200191357600080fd5b82356200192081620018e9565b946020939093013593505050565b6000806000606084860312156200194457600080fd5b83356200195181620018e9565b925060208401356200196381620018e9565b929592945050506040919091013590565b634e487b7160e01b600052604160045260246000fd5b600082601f8301126200199c57600080fd5b813567ffffffffffffffff80821115620019ba57620019ba62001974565b604051601f8301601f19908116603f01168101908282118183101715620019e557620019e562001974565b81604052838152866020858801011115620019ff57600080fd5b836020870160208301376000602085830101528094505050505092915050565b6000806040838503121562001a3357600080fd5b823567ffffffffffffffff8082111562001a4c57600080fd5b62001a5a868387016200198a565b9350602085013591508082111562001a7157600080fd5b5062001a80858286016200198a565b9150509250929050565b803561ffff8116811462000afb57600080fd5b60008060006060848603121562001ab357600080fd5b62001abe8462001a8a565b925062001ace6020850162001a8a565b915062001ade6040850162001a8a565b90509250925092565b60006020828403121562001afa57600080fd5b813562001b0781620018e9565b9392505050565b60006020828403121562001b2157600080fd5b5035919050565b6000806040838503121562001b3c57600080fd5b823562001b4981620018e9565b9150602083013562001b5b81620018e9565b809150509250929050565b600181811c9082168062001b7b57607f821691505b60208210810362001b9c57634e487b7160e01b600052602260045260246000fd5b50919050565b634e487b7160e01b600052601160045260246000fd5b6000821982111562001bce5762001bce62001ba2565b500190565b60008262001bf157634e487b7160e01b600052601260045260246000fd5b500490565b60008282101562001c0b5762001c0b62001ba2565b500390565b6020808252602e908201527f496e697469616c697a61626c653a20636f6e747261637420697320616c72656160408201526d191e481a5b9a5d1a585b1a5e995960921b606082015260800190565b6020808252602b908201527f496e697469616c697a61626c653a20636f6e7472616374206973206e6f74206960408201526a6e697469616c697a696e6760a81b606082015260800190565b60006020828403121562001cbc57600080fd5b815162001b0781620018e956fe608060405234801561001057600080fd5b50612710600155604080516060810182526000808252602082018190529101819052805465ffffffffffff191690556101018061004e6000396000f3fe6080604052348015600f57600080fd5b506004361060285760003560e01c8063534c6bcb14602d575b600080fd5b60776038366004608f565b6000805461ffff94851663ffffffff199091161762010000938516939093029290921765ffff0000000019166401000000009190931602919091179055565b005b803561ffff81168114608a57600080fd5b919050565b60008060006060848603121560a357600080fd5b60aa846079565b925060b6602085016079565b915060c2604085016079565b9050925092509256fea26469706673582212209d981ca7e391ab21c534c2be657cd74af40e4b5cd4c922139af902fd2d0824cc64736f6c634300080e0033608060405234801561001057600080fd5b506040516106eb3803806106eb83398101604081905261002f9161007c565b600080546001600160a01b039384166001600160a01b031991821617909155600180549290931691161790556100af565b80516001600160a01b038116811461007757600080fd5b919050565b6000806040838503121561008f57600080fd5b61009883610060565b91506100a660208401610060565b90509250929050565b61062d806100be6000396000f3fe608060405234801561001057600080fd5b506004361061004c5760003560e01c80632606222a146100515780632c4a73611461006657806385954d8c14610079578063b9c5524114610079575b600080fd5b61006461005f366004610497565b610098565b005b6100646100743660046104d8565b61026b565b600054604080516001600160a01b039092168252519081900360200190f35b60408051600280825260608201835260009260208301908036833701905050905083816000815181106100cd576100cd610504565b60200260200101906001600160a01b031690816001600160a01b03168152505060008054906101000a90046001600160a01b03166001600160a01b031663ad5c46486040518163ffffffff1660e01b8152600401602060405180830381865afa15801561013e573d6000803e3d6000fd5b505050506040513d601f19601f82011682018060405250810190610162919061051a565b8160018151811061017557610175610504565b6001600160a01b03928316602091820292909201015260005460405163095ea7b360e01b8152908216600482015260001960248201529085169063095ea7b3906044016020604051808303816000875af11580156101d7573d6000803e3d6000fd5b505050506040513d601f19601f820116820180604052508101906101fb919061053e565b506000805460405163791ac94760e01b81526001600160a01b039091169163791ac94791610233918691869089904290600401610560565b600060405180830381600087803b15801561024d57600080fd5b505af1158015610261573d6000803e3d6000fd5b5050505050505050565b604080516003808252608082019092526000916020820160608036833701905050905030816000815181106102a2576102a2610504565b60200260200101906001600160a01b031690816001600160a01b03168152505060008054906101000a90046001600160a01b03166001600160a01b031663ad5c46486040518163ffffffff1660e01b8152600401602060405180830381865afa158015610313573d6000803e3d6000fd5b505050506040513d601f19601f82011682018060405250810190610337919061051a565b8160018151811061034a5761034a610504565b6001600160a01b03928316602091820292909201015260015482519116908290600290811061037b5761037b610504565b6001600160a01b03928316602091820292909201015260015460005460405163095ea7b360e01b81529083166004820152600019602482015291169063095ea7b3906044016020604051808303816000875af11580156103df573d6000803e3d6000fd5b505050506040513d601f19601f82011682018060405250810190610403919061053e565b50600080546001600160a01b031690635c11d7959084908487610428426103e86105d1565b6040518663ffffffff1660e01b8152600401610448959493929190610560565b600060405180830381600087803b15801561046257600080fd5b505af1158015610476573d6000803e3d6000fd5b50505050505050565b6001600160a01b038116811461049457600080fd5b50565b6000806000606084860312156104ac57600080fd5b83356104b78161047f565b925060208401356104c78161047f565b929592945050506040919091013590565b600080604083850312156104eb57600080fd5b82356104f68161047f565b946020939093013593505050565b634e487b7160e01b600052603260045260246000fd5b60006020828403121561052c57600080fd5b81516105378161047f565b9392505050565b60006020828403121561055057600080fd5b8151801515811461053757600080fd5b600060a082018783526020878185015260a0604085015281875180845260c086019150828901935060005b818110156105b05784516001600160a01b03168352938301939183019160010161058b565b50506001600160a01b03969096166060850152505050608001529392505050565b600082198211156105f257634e487b7160e01b600052601160045260246000fd5b50019056fea2646970667358221220a508e080e137a90ab3f1de9e30255093e0802cfaaf8d2ff6ee141234fa18d2dc64736f6c634300080e0033a2646970667358221220e7e1992e5ccdb1ce86fdd88955005b0f63e6cf4287079c38b31626e57f7a45f564736f6c634300080e0033",
    "sourcePath": "/home/nkt/Desktop/metaStoksContracts/contracts/MetaStocks.sol",
    "compiler": {
        "name": "solc",
        "version": "0.8.14+commit.80d49f37"
    },
    "functionHashes": {
        "allowance(address,address)": "dd62ed3e",
        "approve(address,uint256)": "095ea7b3",
        "autoLiquidity(uint256)": "c6aca36b",
        "balanceOf(address)": "70a08231",
        "decimals()": "313ce567",
        "decreaseAllowance(address,uint256)": "a457c2d7",
        "getOwner()": "893d20e8",
        "increaseAllowance(address,uint256)": "39509351",
        "initialize()": "8129fc1c",
        "initialize(string,string)": "4cd88b76",
        "name()": "06fdde03",
        "self()": "7104ddb2",
        "setFees(uint16,uint16,uint16)": "534c6bcb",
        "symbol()": "95d89b41",
        "totalSupply()": "18160ddd",
        "transfer(address,uint256)": "a9059cbb",
        "transferFrom(address,address,uint256)": "23b872dd",
        "transferOwnership(address)": "f2fde38b"
    },
    "gasEstimates": {
        "creation": {
            "codeDepositCost": "1905800",
            "executionCost": "2012",
            "totalCost": "1907812"
        },
        "external": {
            "allowance(address,address)": "infinite",
            "approve(address,uint256)": "24641",
            "autoLiquidity(uint256)": "450",
            "balanceOf(address)": "2642",
            "decimals()": "200",
            "decreaseAllowance(address,uint256)": "26966",
            "getOwner()": "2398",
            "increaseAllowance(address,uint256)": "27017",
            "initialize()": "infinite",
            "initialize(string,string)": "infinite",
            "name()": "infinite",
            "self()": "224",
            "setFees(uint16,uint16,uint16)": "infinite",
            "symbol()": "infinite",
            "totalSupply()": "2349",
            "transfer(address,uint256)": "infinite",
            "transferFrom(address,address,uint256)": "infinite",
            "transferOwnership(address)": "26815"
        }
    }
}