{
    "contractName": "MetaStocksCompanyManager",
    "abi": [
        {
            "anonymous": false,
            "inputs": [
                {
                    "indexed": true,
                    "internalType": "address",
                    "name": "owner",
                    "type": "address"
                },
                {
                    "indexed": true,
                    "internalType": "address",
                    "name": "spender",
                    "type": "address"
                },
                {
                    "indexed": false,
                    "internalType": "uint256",
                    "name": "value",
                    "type": "uint256"
                }
            ],
            "name": "Approval",
            "type": "event"
        },
        {
            "anonymous": false,
            "inputs": [
                {
                    "indexed": true,
                    "internalType": "address",
                    "name": "account",
                    "type": "address"
                },
                {
                    "indexed": false,
                    "internalType": "uint256",
                    "name": "companyId",
                    "type": "uint256"
                }
            ],
            "name": "CreateCompany",
            "type": "event"
        },
        {
            "anonymous": false,
            "inputs": [
                {
                    "indexed": false,
                    "internalType": "uint8",
                    "name": "version",
                    "type": "uint8"
                }
            ],
            "name": "Initialized",
            "type": "event"
        },
        {
            "anonymous": false,
            "inputs": [
                {
                    "indexed": true,
                    "internalType": "address",
                    "name": "previousOwner",
                    "type": "address"
                },
                {
                    "indexed": true,
                    "internalType": "address",
                    "name": "newOwner",
                    "type": "address"
                }
            ],
            "name": "OwnershipTransferred",
            "type": "event"
        },
        {
            "anonymous": false,
            "inputs": [
                {
                    "indexed": true,
                    "internalType": "address",
                    "name": "from",
                    "type": "address"
                },
                {
                    "indexed": true,
                    "internalType": "address",
                    "name": "to",
                    "type": "address"
                },
                {
                    "indexed": false,
                    "internalType": "uint256",
                    "name": "value",
                    "type": "uint256"
                }
            ],
            "name": "Transfer",
            "type": "event"
        },
        {
            "inputs": [
                {
                    "internalType": "address",
                    "name": "owner",
                    "type": "address"
                },
                {
                    "internalType": "address",
                    "name": "spender",
                    "type": "address"
                }
            ],
            "name": "allowance",
            "outputs": [
                {
                    "internalType": "uint256",
                    "name": "",
                    "type": "uint256"
                }
            ],
            "stateMutability": "view",
            "type": "function"
        },
        {
            "inputs": [
                {
                    "internalType": "address",
                    "name": "spender",
                    "type": "address"
                },
                {
                    "internalType": "uint256",
                    "name": "amount",
                    "type": "uint256"
                }
            ],
            "name": "approve",
            "outputs": [
                {
                    "internalType": "bool",
                    "name": "",
                    "type": "bool"
                }
            ],
            "stateMutability": "nonpayable",
            "type": "function"
        },
        {
            "inputs": [
                {
                    "internalType": "address",
                    "name": "account",
                    "type": "address"
                }
            ],
            "name": "balanceOf",
            "outputs": [
                {
                    "internalType": "uint256",
                    "name": "",
                    "type": "uint256"
                }
            ],
            "stateMutability": "view",
            "type": "function"
        },
        {
            "inputs": [
                {
                    "internalType": "address",
                    "name": "",
                    "type": "address"
                }
            ],
            "name": "ceos",
            "outputs": [
                {
                    "internalType": "bool",
                    "name": "",
                    "type": "bool"
                }
            ],
            "stateMutability": "view",
            "type": "function"
        },
        {
            "inputs": [
                {
                    "internalType": "address",
                    "name": "",
                    "type": "address"
                }
            ],
            "name": "ceosCompanies",
            "outputs": [
                {
                    "internalType": "uint256",
                    "name": "",
                    "type": "uint256"
                }
            ],
            "stateMutability": "view",
            "type": "function"
        },
        {
            "inputs": [],
            "name": "claimFromAllFranchises",
            "outputs": [],
            "stateMutability": "nonpayable",
            "type": "function"
        },
        {
            "inputs": [],
            "name": "claimFromAllFranchisesBNB",
            "outputs": [],
            "stateMutability": "nonpayable",
            "type": "function"
        },
        {
            "inputs": [
                {
                    "internalType": "uint256",
                    "name": "",
                    "type": "uint256"
                }
            ],
            "name": "companiesCeos",
            "outputs": [
                {
                    "internalType": "address",
                    "name": "",
                    "type": "address"
                }
            ],
            "stateMutability": "view",
            "type": "function"
        },
        {
            "inputs": [
                {
                    "internalType": "address",
                    "name": "account",
                    "type": "address"
                }
            ],
            "name": "createCompany",
            "outputs": [],
            "stateMutability": "payable",
            "type": "function"
        },
        {
            "inputs": [
                {
                    "internalType": "address",
                    "name": "_account",
                    "type": "address"
                }
            ],
            "name": "createFranchise",
            "outputs": [],
            "stateMutability": "payable",
            "type": "function"
        },
        {
            "inputs": [
                {
                    "internalType": "address",
                    "name": "_account",
                    "type": "address"
                }
            ],
            "name": "createFranchiseUsingBNB",
            "outputs": [],
            "stateMutability": "payable",
            "type": "function"
        },
        {
            "inputs": [],
            "name": "decimals",
            "outputs": [
                {
                    "internalType": "uint8",
                    "name": "",
                    "type": "uint8"
                }
            ],
            "stateMutability": "view",
            "type": "function"
        },
        {
            "inputs": [
                {
                    "internalType": "address",
                    "name": "spender",
                    "type": "address"
                },
                {
                    "internalType": "uint256",
                    "name": "subtractedValue",
                    "type": "uint256"
                }
            ],
            "name": "decreaseAllowance",
            "outputs": [
                {
                    "internalType": "bool",
                    "name": "",
                    "type": "bool"
                }
            ],
            "stateMutability": "nonpayable",
            "type": "function"
        },
        {
            "inputs": [
                {
                    "internalType": "uint256",
                    "name": "companyId",
                    "type": "uint256"
                }
            ],
            "name": "getCompanyCEOAddress",
            "outputs": [
                {
                    "internalType": "address",
                    "name": "",
                    "type": "address"
                }
            ],
            "stateMutability": "view",
            "type": "function"
        },
        {
            "inputs": [
                {
                    "internalType": "address",
                    "name": "_account",
                    "type": "address"
                }
            ],
            "name": "getCompanyId",
            "outputs": [
                {
                    "internalType": "uint256",
                    "name": "",
                    "type": "uint256"
                }
            ],
            "stateMutability": "view",
            "type": "function"
        },
        {
            "inputs": [],
            "name": "getMetaStocksFranchisesUnclaimedRewards",
            "outputs": [
                {
                    "internalType": "uint256",
                    "name": "",
                    "type": "uint256"
                }
            ],
            "stateMutability": "view",
            "type": "function"
        },
        {
            "inputs": [],
            "name": "getMetaStocksFranchisesUnclaimedRewardsBNB",
            "outputs": [
                {
                    "internalType": "uint256",
                    "name": "",
                    "type": "uint256"
                }
            ],
            "stateMutability": "view",
            "type": "function"
        },
        {
            "inputs": [
                {
                    "internalType": "address",
                    "name": "spender",
                    "type": "address"
                },
                {
                    "internalType": "uint256",
                    "name": "addedValue",
                    "type": "uint256"
                }
            ],
            "name": "increaseAllowance",
            "outputs": [
                {
                    "internalType": "bool",
                    "name": "",
                    "type": "bool"
                }
            ],
            "stateMutability": "nonpayable",
            "type": "function"
        },
        {
            "inputs": [
                {
                    "internalType": "address",
                    "name": "_metaStocksCompanyAddress",
                    "type": "address"
                },
                {
                    "internalType": "address",
                    "name": "_metaStocksFranchiseManagerAddress",
                    "type": "address"
                }
            ],
            "name": "initialize",
            "outputs": [],
            "stateMutability": "nonpayable",
            "type": "function"
        },
        {
            "inputs": [
                {
                    "internalType": "address",
                    "name": "_account",
                    "type": "address"
                }
            ],
            "name": "isCeo",
            "outputs": [
                {
                    "internalType": "bool",
                    "name": "",
                    "type": "bool"
                }
            ],
            "stateMutability": "view",
            "type": "function"
        },
        {
            "inputs": [],
            "name": "name",
            "outputs": [
                {
                    "internalType": "string",
                    "name": "",
                    "type": "string"
                }
            ],
            "stateMutability": "view",
            "type": "function"
        },
        {
            "inputs": [
                {
                    "internalType": "address",
                    "name": "",
                    "type": "address"
                },
                {
                    "internalType": "address",
                    "name": "",
                    "type": "address"
                },
                {
                    "internalType": "uint256[]",
                    "name": "",
                    "type": "uint256[]"
                },
                {
                    "internalType": "uint256[]",
                    "name": "",
                    "type": "uint256[]"
                },
                {
                    "internalType": "bytes",
                    "name": "",
                    "type": "bytes"
                }
            ],
            "name": "onERC1155BatchReceived",
            "outputs": [
                {
                    "internalType": "bytes4",
                    "name": "",
                    "type": "bytes4"
                }
            ],
            "stateMutability": "nonpayable",
            "type": "function"
        },
        {
            "inputs": [
                {
                    "internalType": "address",
                    "name": "",
                    "type": "address"
                },
                {
                    "internalType": "address",
                    "name": "",
                    "type": "address"
                },
                {
                    "internalType": "uint256",
                    "name": "",
                    "type": "uint256"
                },
                {
                    "internalType": "uint256",
                    "name": "",
                    "type": "uint256"
                },
                {
                    "internalType": "bytes",
                    "name": "",
                    "type": "bytes"
                }
            ],
            "name": "onERC1155Received",
            "outputs": [
                {
                    "internalType": "bytes4",
                    "name": "",
                    "type": "bytes4"
                }
            ],
            "stateMutability": "nonpayable",
            "type": "function"
        },
        {
            "inputs": [],
            "name": "owner",
            "outputs": [
                {
                    "internalType": "address",
                    "name": "",
                    "type": "address"
                }
            ],
            "stateMutability": "view",
            "type": "function"
        },
        {
            "inputs": [],
            "name": "renounceOwnership",
            "outputs": [],
            "stateMutability": "nonpayable",
            "type": "function"
        },
        {
            "inputs": [
                {
                    "internalType": "bytes4",
                    "name": "interfaceId",
                    "type": "bytes4"
                }
            ],
            "name": "supportsInterface",
            "outputs": [
                {
                    "internalType": "bool",
                    "name": "",
                    "type": "bool"
                }
            ],
            "stateMutability": "view",
            "type": "function"
        },
        {
            "inputs": [],
            "name": "symbol",
            "outputs": [
                {
                    "internalType": "string",
                    "name": "",
                    "type": "string"
                }
            ],
            "stateMutability": "view",
            "type": "function"
        },
        {
            "inputs": [],
            "name": "totalSupply",
            "outputs": [
                {
                    "internalType": "uint256",
                    "name": "",
                    "type": "uint256"
                }
            ],
            "stateMutability": "view",
            "type": "function"
        },
        {
            "inputs": [
                {
                    "internalType": "address",
                    "name": "to",
                    "type": "address"
                },
                {
                    "internalType": "uint256",
                    "name": "amount",
                    "type": "uint256"
                }
            ],
            "name": "transfer",
            "outputs": [
                {
                    "internalType": "bool",
                    "name": "",
                    "type": "bool"
                }
            ],
            "stateMutability": "nonpayable",
            "type": "function"
        },
        {
            "inputs": [
                {
                    "internalType": "address",
                    "name": "from",
                    "type": "address"
                },
                {
                    "internalType": "address",
                    "name": "to",
                    "type": "address"
                },
                {
                    "internalType": "uint256",
                    "name": "amount",
                    "type": "uint256"
                }
            ],
            "name": "transferFrom",
            "outputs": [
                {
                    "internalType": "bool",
                    "name": "",
                    "type": "bool"
                }
            ],
            "stateMutability": "nonpayable",
            "type": "function"
        },
        {
            "inputs": [
                {
                    "internalType": "address",
                    "name": "newOwner",
                    "type": "address"
                }
            ],
            "name": "transferOwnership",
            "outputs": [],
            "stateMutability": "nonpayable",
            "type": "function"
        }
    ],
    "bytecode": "608060405234801561001057600080fd5b5061192a806100206000396000f3fe6080604052600436106101d85760003560e01c806395d89b4111610102578063d9b4c6a111610095578063f2fde38b11610064578063f2fde38b146105bf578063f446ab3f146105df578063f81a12d7146105f4578063ff0b9f8d1461062457600080fd5b8063d9b4c6a11461052a578063dc8dccc61461053d578063dd62ed3e14610573578063f23a6e611461059357600080fd5b8063bc083917116100d1578063bc08391714610464578063bc197c811461049a578063d6f343c5146104df578063d7f0cd851461051557600080fd5b806395d89b41146103fc578063a457c2d714610411578063a9059cbb14610431578063ab73b8c21461045157600080fd5b806323b872dd1161017a578063485cc95511610149578063485cc9551461035f57806370a082311461037f578063715018a6146103b55780638da5cb5b146103ca57600080fd5b806323b872dd146102f05780632424915014610310578063313ce56714610323578063395093511461033f57600080fd5b8063095ea7b3116101b6578063095ea7b31461024b5780631165e6ab1461026b57806318160ddd146102a457806321203038146102c357600080fd5b806301ffc9a7146101dd57806303717bbe1461021257806306fdde0314610229575b600080fd5b3480156101e957600080fd5b506101fd6101f8366004611411565b610639565b60405190151581526020015b60405180910390f35b34801561021e57600080fd5b5061022761064a565b005b34801561023557600080fd5b5061023e610711565b6040516102099190611442565b34801561025757600080fd5b506101fd6102663660046114ae565b6107a3565b34801561027757600080fd5b506101fd6102863660046114d8565b6001600160a01b03166000908152609b602052604090205460ff1690565b3480156102b057600080fd5b506035545b604051908152602001610209565b3480156102cf57600080fd5b506102b56102de3660046114d8565b60996020526000908152604090205481565b3480156102fc57600080fd5b506101fd61030b3660046114f3565b6107bb565b61022761031e3660046114d8565b6107df565b34801561032f57600080fd5b5060405160128152602001610209565b34801561034b57600080fd5b506101fd61035a3660046114ae565b61091f565b34801561036b57600080fd5b5061022761037a36600461152f565b610941565b34801561038b57600080fd5b506102b561039a3660046114d8565b6001600160a01b031660009081526033602052604090205490565b3480156103c157600080fd5b506102276109e5565b3480156103d657600080fd5b506065546001600160a01b03165b6040516001600160a01b039091168152602001610209565b34801561040857600080fd5b5061023e610a50565b34801561041d57600080fd5b506101fd61042c3660046114ae565b610a5f565b34801561043d57600080fd5b506101fd61044c3660046114ae565b610ada565b61022761045f3660046114d8565b610ae8565b34801561047057600080fd5b506103e461047f366004611562565b609a602052600090815260409020546001600160a01b031681565b3480156104a657600080fd5b506104c66104b53660046116b2565b63bc197c8160e01b95945050505050565b6040516001600160e01b03199091168152602001610209565b3480156104eb57600080fd5b506102b56104fa3660046114d8565b6001600160a01b031660009081526099602052604090205490565b34801561052157600080fd5b506102b5610c31565b6102276105383660046114d8565b610d0b565b34801561054957600080fd5b506103e4610558366004611562565b6000908152609a60205260409020546001600160a01b031690565b34801561057f57600080fd5b506102b561058e36600461152f565b610e30565b34801561059f57600080fd5b506104c66105ae36600461175c565b63f23a6e6160e01b95945050505050565b3480156105cb57600080fd5b506102276105da3660046114d8565b610e5b565b3480156105eb57600080fd5b506102b5610f26565b34801561060057600080fd5b506101fd61060f3660046114d8565b609b6020526000908152604090205460ff1681565b34801561063057600080fd5b50610227610f5f565b600061064482610f97565b92915050565b60985460405163d6f343c560e01b81523360048201526001600160a01b039091169063d43a5fb190309063d6f343c5906024015b602060405180830381865afa15801561069b573d6000803e3d6000fd5b505050506040513d601f19601f820116820180604052508101906106bf91906117c1565b6040518263ffffffff1660e01b81526004016106dd91815260200190565b600060405180830381600087803b1580156106f757600080fd5b505af115801561070b573d6000803e3d6000fd5b50505050565b606060368054610720906117da565b80601f016020809104026020016040519081016040528092919081815260200182805461074c906117da565b80156107995780601f1061076e57610100808354040283529160200191610799565b820191906000526020600020905b81548152906001019060200180831161077c57829003601f168201915b5050505050905090565b6000336107b1818585610fcc565b5060019392505050565b6000336107c98582856110f0565b6107d4858585611164565b506001949350505050565b336000908152609b602052604090205460ff166108505760405163d9b4c6a160e01b81526001600160a01b0382166004820152309063d9b4c6a190602401600060405180830381600087803b15801561083757600080fd5b505af115801561084b573d6000803e3d6000fd5b505050505b60985460405163d6f343c560e01b81523360048201526001600160a01b039091169063fbf3176f9034908390309063d6f343c590602401602060405180830381865afa1580156108a4573d6000803e3d6000fd5b505050506040513d601f19601f820116820180604052508101906108c891906117c1565b6000806040518663ffffffff1660e01b81526004016108ea9493929190611814565b6000604051808303818588803b15801561090357600080fd5b505af1158015610917573d6000803e3d6000fd5b505050505050565b6000336107b18185856109328383610e30565b61093c9190611875565b610fcc565b600061094d6001611332565b90508015610965576000805461ff0019166101001790555b609780546001600160a01b038086166001600160a01b03199283161790925560988054928516929091169190911790556000609c5580156109e0576000805461ff0019169055604051600181527f7f26b83ff96e1f2b6a682f133852f6798a09c465da95921460cefb38474024989060200160405180910390a15b505050565b6065546001600160a01b03163314610a445760405162461bcd60e51b815260206004820181905260248201527f4f776e61626c653a2063616c6c6572206973206e6f7420746865206f776e657260448201526064015b60405180910390fd5b610a4e60006113bf565b565b606060378054610720906117da565b60003381610a6d8286610e30565b905083811015610acd5760405162461bcd60e51b815260206004820152602560248201527f45524332303a2064656372656173656420616c6c6f77616e63652062656c6f77604482015264207a65726f60d81b6064820152608401610a3b565b6107d48286868403610fcc565b6000336107b1818585611164565b6001600160a01b0381166000908152609b602052604090205460ff16610b625760405163d9b4c6a160e01b81526001600160a01b0382166004820152309063d9b4c6a190602401600060405180830381600087803b158015610b4957600080fd5b505af1158015610b5d573d6000803e3d6000fd5b505050505b60985460405163d6f343c560e01b81526001600160a01b0383811660048301529091169063c9d8224d908290309063d6f343c590602401602060405180830381865afa158015610bb6573d6000803e3d6000fd5b505050506040513d601f19601f82011682018060405250810190610bda91906117c1565b6000806040518563ffffffff1660e01b8152600401610bfc9493929190611814565b600060405180830381600087803b158015610c1657600080fd5b505af1158015610c2a573d6000803e3d6000fd5b5050505050565b60985460405163d6f343c560e01b81523360048201526000916001600160a01b03169063f3d8bc3c90309063d6f343c5906024015b602060405180830381865afa158015610c83573d6000803e3d6000fd5b505050506040513d601f19601f82011682018060405250810190610ca791906117c1565b6040518263ffffffff1660e01b8152600401610cc591815260200190565b602060405180830381865afa158015610ce2573d6000803e3d6000fd5b505050506040513d601f19601f82011682018060405250810190610d0691906117c1565b905090565b6097546040516340d097c360e01b81526001600160a01b03838116600483015260009216906340d097c3906024016020604051808303816000875af1158015610d58573d6000803e3d6000fd5b505050506040513d601f19601f82011682018060405250810190610d7c91906117c1565b6001600160a01b0383166000818152609960209081526040808320859055848352609a825280832080546001600160a01b03191685179055928252609b9052908120805460ff19166001179055609c805492935090610dda8361188d565b90915550506001600160a01b0382166000818152609960209081526040918290205491519182527fe38265a604917a38d3b0f82f061e30793a578a7181d8b0d880e84ec70b0da81a910160405180910390a25050565b6001600160a01b03918216600090815260346020908152604080832093909416825291909152205490565b6065546001600160a01b03163314610eb55760405162461bcd60e51b815260206004820181905260248201527f4f776e61626c653a2063616c6c6572206973206e6f7420746865206f776e65726044820152606401610a3b565b6001600160a01b038116610f1a5760405162461bcd60e51b815260206004820152602660248201527f4f776e61626c653a206e6577206f776e657220697320746865207a65726f206160448201526564647265737360d01b6064820152608401610a3b565b610f23816113bf565b50565b60985460405163d6f343c560e01b81523360048201526000916001600160a01b0316906340f1b93890309063d6f343c590602401610c66565b60985460405163d6f343c560e01b81523360048201526001600160a01b03909116906399dc7d9c90309063d6f343c59060240161067e565b60006001600160e01b03198216630271189760e51b148061064457506301ffc9a760e01b6001600160e01b0319831614610644565b6001600160a01b03831661102e5760405162461bcd60e51b8152602060048201526024808201527f45524332303a20617070726f76652066726f6d20746865207a65726f206164646044820152637265737360e01b6064820152608401610a3b565b6001600160a01b03821661108f5760405162461bcd60e51b815260206004820152602260248201527f45524332303a20617070726f766520746f20746865207a65726f206164647265604482015261737360f01b6064820152608401610a3b565b6001600160a01b0383811660008181526034602090815260408083209487168084529482529182902085905590518481527f8c5be1e5ebec7d5bd14f71427d1e84f3dd0314c0f7b2291e5b200ac8c7c3b925910160405180910390a3505050565b60006110fc8484610e30565b9050600019811461070b57818110156111575760405162461bcd60e51b815260206004820152601d60248201527f45524332303a20696e73756666696369656e7420616c6c6f77616e63650000006044820152606401610a3b565b61070b8484848403610fcc565b6001600160a01b0383166111c85760405162461bcd60e51b815260206004820152602560248201527f45524332303a207472616e736665722066726f6d20746865207a65726f206164604482015264647265737360d81b6064820152608401610a3b565b6001600160a01b03821661122a5760405162461bcd60e51b815260206004820152602360248201527f45524332303a207472616e7366657220746f20746865207a65726f206164647260448201526265737360e81b6064820152608401610a3b565b6001600160a01b038316600090815260336020526040902054818110156112a25760405162461bcd60e51b815260206004820152602660248201527f45524332303a207472616e7366657220616d6f756e7420657863656564732062604482015265616c616e636560d01b6064820152608401610a3b565b6001600160a01b038085166000908152603360205260408082208585039055918516815290812080548492906112d9908490611875565b92505081905550826001600160a01b0316846001600160a01b03167fddf252ad1be2c89b69c2b068fc378daa952ba7f163c4a11628f55a4df523b3ef8460405161132591815260200190565b60405180910390a361070b565b60008054610100900460ff1615611379578160ff1660011480156113555750303b155b6113715760405162461bcd60e51b8152600401610a3b906118a6565b506000919050565b60005460ff8084169116106113a05760405162461bcd60e51b8152600401610a3b906118a6565b506000805460ff191660ff92909216919091179055600190565b919050565b606580546001600160a01b038381166001600160a01b0319831681179093556040519116919082907f8be0079c531659141344cd1fd0a4f28419497f9722a3daafe3b4186f6b6457e090600090a35050565b60006020828403121561142357600080fd5b81356001600160e01b03198116811461143b57600080fd5b9392505050565b600060208083528351808285015260005b8181101561146f57858101830151858201604001528201611453565b81811115611481576000604083870101525b50601f01601f1916929092016040019392505050565b80356001600160a01b03811681146113ba57600080fd5b600080604083850312156114c157600080fd5b6114ca83611497565b946020939093013593505050565b6000602082840312156114ea57600080fd5b61143b82611497565b60008060006060848603121561150857600080fd5b61151184611497565b925061151f60208501611497565b9150604084013590509250925092565b6000806040838503121561154257600080fd5b61154b83611497565b915061155960208401611497565b90509250929050565b60006020828403121561157457600080fd5b5035919050565b634e487b7160e01b600052604160045260246000fd5b604051601f8201601f1916810167ffffffffffffffff811182821017156115ba576115ba61157b565b604052919050565b600082601f8301126115d357600080fd5b8135602067ffffffffffffffff8211156115ef576115ef61157b565b8160051b6115fe828201611591565b928352848101820192828101908785111561161857600080fd5b83870192505b848310156116375782358252918301919083019061161e565b979650505050505050565b600082601f83011261165357600080fd5b813567ffffffffffffffff81111561166d5761166d61157b565b611680601f8201601f1916602001611591565b81815284602083860101111561169557600080fd5b816020850160208301376000918101602001919091529392505050565b600080600080600060a086880312156116ca57600080fd5b6116d386611497565b94506116e160208701611497565b9350604086013567ffffffffffffffff808211156116fe57600080fd5b61170a89838a016115c2565b9450606088013591508082111561172057600080fd5b61172c89838a016115c2565b9350608088013591508082111561174257600080fd5b5061174f88828901611642565b9150509295509295909350565b600080600080600060a0868803121561177457600080fd5b61177d86611497565b945061178b60208701611497565b93506040860135925060608601359150608086013567ffffffffffffffff8111156117b557600080fd5b61174f88828901611642565b6000602082840312156117d357600080fd5b5051919050565b600181811c908216806117ee57607f821691505b60208210810361180e57634e487b7160e01b600052602260045260246000fd5b50919050565b6001600160a01b0385168152602081018490526040810183905260808101601a831061185057634e487b7160e01b600052602160045260246000fd5b82606083015295945050505050565b634e487b7160e01b600052601160045260246000fd5b600082198211156118885761188861185f565b500190565b60006001820161189f5761189f61185f565b5060010190565b6020808252602e908201527f496e697469616c697a61626c653a20636f6e747261637420697320616c72656160408201526d191e481a5b9a5d1a585b1a5e995960921b60608201526080019056fea26469706673582212206c0c517407c28d1a25727dc4594a0c177fcc09adbee1a95c608cec3968433e4a64736f6c634300080f0033",
    "sourcePath": "/home/nkt/Desktop/metaStoksContracts/contracts/managers/metastocks/MetaStocksCompanyManager.sol",
    "compiler": {
        "name": "solc",
        "version": "0.8.15+commit.e14f2714"
    },
    "functionHashes": {
        "allowance(address,address)": "dd62ed3e",
        "approve(address,uint256)": "095ea7b3",
        "balanceOf(address)": "70a08231",
        "ceos(address)": "f81a12d7",
        "ceosCompanies(address)": "21203038",
        "claimFromAllFranchises()": "ff0b9f8d",
        "claimFromAllFranchisesBNB()": "03717bbe",
        "companiesCeos(uint256)": "bc083917",
        "createCompany(address)": "d9b4c6a1",
        "createFranchise(address)": "ab73b8c2",
        "createFranchiseUsingBNB(address)": "24249150",
        "decimals()": "313ce567",
        "decreaseAllowance(address,uint256)": "a457c2d7",
        "getCompanyCEOAddress(uint256)": "dc8dccc6",
        "getCompanyId(address)": "d6f343c5",
        "getMetaStocksFranchisesUnclaimedRewards()": "f446ab3f",
        "getMetaStocksFranchisesUnclaimedRewardsBNB()": "d7f0cd85",
        "increaseAllowance(address,uint256)": "39509351",
        "initialize(address,address)": "485cc955",
        "isCeo(address)": "1165e6ab",
        "name()": "06fdde03",
        "onERC1155BatchReceived(address,address,uint256[],uint256[],bytes)": "bc197c81",
        "onERC1155Received(address,address,uint256,uint256,bytes)": "f23a6e61",
        "owner()": "8da5cb5b",
        "renounceOwnership()": "715018a6",
        "supportsInterface(bytes4)": "01ffc9a7",
        "symbol()": "95d89b41",
        "totalSupply()": "18160ddd",
        "transfer(address,uint256)": "a9059cbb",
        "transferFrom(address,address,uint256)": "23b872dd",
        "transferOwnership(address)": "f2fde38b"
    },
    "gasEstimates": {
        "creation": {
            "codeDepositCost": "1288400",
            "executionCost": "1342",
            "totalCost": "1289742"
        },
        "external": {
            "allowance(address,address)": "infinite",
            "approve(address,uint256)": "24636",
            "balanceOf(address)": "2604",
            "ceos(address)": "2608",
            "ceosCompanies(address)": "2631",
            "claimFromAllFranchises()": "infinite",
            "claimFromAllFranchisesBNB()": "infinite",
            "companiesCeos(uint256)": "2522",
            "createCompany(address)": "infinite",
            "createFranchise(address)": "infinite",
            "createFranchiseUsingBNB(address)": "infinite",
            "decimals()": "267",
            "decreaseAllowance(address,uint256)": "27007",
            "getCompanyCEOAddress(uint256)": "2544",
            "getCompanyId(address)": "2626",
            "getMetaStocksFranchisesUnclaimedRewards()": "infinite",
            "getMetaStocksFranchisesUnclaimedRewardsBNB()": "infinite",
            "increaseAllowance(address,uint256)": "27079",
            "initialize(address,address)": "infinite",
            "isCeo(address)": "2606",
            "name()": "infinite",
            "onERC1155BatchReceived(address,address,uint256[],uint256[],bytes)": "infinite",
            "onERC1155Received(address,address,uint256,uint256,bytes)": "infinite",
            "owner()": "2431",
            "renounceOwnership()": "28206",
            "supportsInterface(bytes4)": "infinite",
            "symbol()": "infinite",
            "totalSupply()": "2371",
            "transfer(address,uint256)": "51255",
            "transferFrom(address,address,uint256)": "infinite",
            "transferOwnership(address)": "28356"
        }
    }
}