{
  "_format": "hh-sol-artifact-1",
  "contractName": "MetaStocksERC20Upgradable",
  "sourceName": "contracts/tokens/MetaStocksERC20Upgradable.sol",
  "abi": [
    {
      "anonymous": false,
      "inputs": [
        {
          "indexed": true,
          "internalType": "address",
          "name": "owner",
          "type": "address"
        },
        {
          "indexed": true,
          "internalType": "address",
          "name": "spender",
          "type": "address"
        },
        {
          "indexed": false,
          "internalType": "uint256",
          "name": "value",
          "type": "uint256"
        }
      ],
      "name": "Approval",
      "type": "event"
    },
    {
      "anonymous": false,
      "inputs": [
        {
          "indexed": true,
          "internalType": "address",
          "name": "sender",
          "type": "address"
        },
        {
          "indexed": false,
          "internalType": "uint256",
          "name": "amount",
          "type": "uint256"
        }
      ],
      "name": "Burn",
      "type": "event"
    },
    {
      "anonymous": false,
      "inputs": [
        {
          "indexed": false,
          "internalType": "uint8",
          "name": "version",
          "type": "uint8"
        }
      ],
      "name": "Initialized",
      "type": "event"
    },
    {
      "anonymous": false,
      "inputs": [
        {
          "indexed": true,
          "internalType": "address",
          "name": "previousOwner",
          "type": "address"
        },
        {
          "indexed": true,
          "internalType": "address",
          "name": "newOwner",
          "type": "address"
        }
      ],
      "name": "OwnershipTransferred",
      "type": "event"
    },
    {
      "anonymous": false,
      "inputs": [
        {
          "indexed": true,
          "internalType": "address",
          "name": "from",
          "type": "address"
        },
        {
          "indexed": true,
          "internalType": "address",
          "name": "to",
          "type": "address"
        },
        {
          "indexed": false,
          "internalType": "uint256",
          "name": "value",
          "type": "uint256"
        }
      ],
      "name": "Transfer",
      "type": "event"
    },
    {
      "inputs": [
        {
          "internalType": "address",
          "name": "owner",
          "type": "address"
        },
        {
          "internalType": "address",
          "name": "spender",
          "type": "address"
        }
      ],
      "name": "allowance",
      "outputs": [
        {
          "internalType": "uint256",
          "name": "",
          "type": "uint256"
        }
      ],
      "stateMutability": "view",
      "type": "function"
    },
    {
      "inputs": [
        {
          "internalType": "address",
          "name": "spender",
          "type": "address"
        },
        {
          "internalType": "uint256",
          "name": "amount",
          "type": "uint256"
        }
      ],
      "name": "approve",
      "outputs": [
        {
          "internalType": "bool",
          "name": "",
          "type": "bool"
        }
      ],
      "stateMutability": "nonpayable",
      "type": "function"
    },
    {
      "inputs": [
        {
          "internalType": "address",
          "name": "",
          "type": "address"
        }
      ],
      "name": "automatedMarketMakerPairs",
      "outputs": [
        {
          "internalType": "bool",
          "name": "",
          "type": "bool"
        }
      ],
      "stateMutability": "view",
      "type": "function"
    },
    {
      "inputs": [
        {
          "internalType": "address",
          "name": "account",
          "type": "address"
        }
      ],
      "name": "balanceOf",
      "outputs": [
        {
          "internalType": "uint256",
          "name": "",
          "type": "uint256"
        }
      ],
      "stateMutability": "view",
      "type": "function"
    },
    {
      "inputs": [],
      "name": "decimals",
      "outputs": [
        {
          "internalType": "uint8",
          "name": "",
          "type": "uint8"
        }
      ],
      "stateMutability": "view",
      "type": "function"
    },
    {
      "inputs": [
        {
          "internalType": "address",
          "name": "spender",
          "type": "address"
        },
        {
          "internalType": "uint256",
          "name": "subtractedValue",
          "type": "uint256"
        }
      ],
      "name": "decreaseAllowance",
      "outputs": [
        {
          "internalType": "bool",
          "name": "",
          "type": "bool"
        }
      ],
      "stateMutability": "nonpayable",
      "type": "function"
    },
    {
      "inputs": [],
      "name": "enableTrading",
      "outputs": [],
      "stateMutability": "nonpayable",
      "type": "function"
    },
    {
      "inputs": [],
      "name": "getLPPair",
      "outputs": [
        {
          "internalType": "address",
          "name": "",
          "type": "address"
        }
      ],
      "stateMutability": "view",
      "type": "function"
    },
    {
      "inputs": [],
      "name": "getMidasMultinetworkRouterManager",
      "outputs": [
        {
          "internalType": "contract MidasMultinetworkRouterManager",
          "name": "",
          "type": "address"
        }
      ],
      "stateMutability": "view",
      "type": "function"
    },
    {
      "inputs": [],
      "name": "getSwapThreshold",
      "outputs": [
        {
          "internalType": "uint256",
          "name": "",
          "type": "uint256"
        }
      ],
      "stateMutability": "view",
      "type": "function"
    },
    {
      "inputs": [],
      "name": "getTradingEnabled",
      "outputs": [
        {
          "internalType": "bool",
          "name": "",
          "type": "bool"
        }
      ],
      "stateMutability": "view",
      "type": "function"
    },
    {
      "inputs": [],
      "name": "getTransactionFeesManager",
      "outputs": [
        {
          "internalType": "contract TransactionFeesManager",
          "name": "",
          "type": "address"
        }
      ],
      "stateMutability": "view",
      "type": "function"
    },
    {
      "inputs": [
        {
          "internalType": "address",
          "name": "spender",
          "type": "address"
        },
        {
          "internalType": "uint256",
          "name": "addedValue",
          "type": "uint256"
        }
      ],
      "name": "increaseAllowance",
      "outputs": [
        {
          "internalType": "bool",
          "name": "",
          "type": "bool"
        }
      ],
      "stateMutability": "nonpayable",
      "type": "function"
    },
    {
      "inputs": [
        {
          "internalType": "string",
          "name": "_tokenName",
          "type": "string"
        },
        {
          "internalType": "string",
          "name": "_tokenSymbol",
          "type": "string"
        },
        {
          "internalType": "uint256",
          "name": "_totalSupply",
          "type": "uint256"
        }
      ],
      "name": "initialize",
      "outputs": [],
      "stateMutability": "nonpayable",
      "type": "function"
    },
    {
      "inputs": [],
      "name": "name",
      "outputs": [
        {
          "internalType": "string",
          "name": "",
          "type": "string"
        }
      ],
      "stateMutability": "view",
      "type": "function"
    },
    {
      "inputs": [],
      "name": "owner",
      "outputs": [
        {
          "internalType": "address",
          "name": "",
          "type": "address"
        }
      ],
      "stateMutability": "view",
      "type": "function"
    },
    {
      "inputs": [],
      "name": "renounceOwnership",
      "outputs": [],
      "stateMutability": "nonpayable",
      "type": "function"
    },
    {
      "inputs": [],
      "name": "self",
      "outputs": [
        {
          "internalType": "address",
          "name": "",
          "type": "address"
        }
      ],
      "stateMutability": "view",
      "type": "function"
    },
    {
      "inputs": [
        {
          "internalType": "address",
          "name": "_dexRouter",
          "type": "address"
        }
      ],
      "name": "setDexRouter",
      "outputs": [],
      "stateMutability": "nonpayable",
      "type": "function"
    },
    {
      "inputs": [
        {
          "internalType": "uint16",
          "name": "buyFee",
          "type": "uint16"
        },
        {
          "internalType": "uint16",
          "name": "sellFee",
          "type": "uint16"
        },
        {
          "internalType": "uint16",
          "name": "transferFee",
          "type": "uint16"
        }
      ],
      "name": "setFees",
      "outputs": [],
      "stateMutability": "nonpayable",
      "type": "function"
    },
    {
      "inputs": [
        {
          "internalType": "uint256",
          "name": "_maxTransactionAmount",
          "type": "uint256"
        }
      ],
      "name": "setMaxTransactionAmount",
      "outputs": [],
      "stateMutability": "nonpayable",
      "type": "function"
    },
    {
      "inputs": [
        {
          "internalType": "uint256",
          "name": "_maxWalletAmount",
          "type": "uint256"
        }
      ],
      "name": "setMaxWalletAmount",
      "outputs": [],
      "stateMutability": "nonpayable",
      "type": "function"
    },
    {
      "inputs": [
        {
          "internalType": "address",
          "name": "_pairAddress",
          "type": "address"
        }
      ],
      "name": "setPairAddress",
      "outputs": [],
      "stateMutability": "nonpayable",
      "type": "function"
    },
    {
      "inputs": [
        {
          "internalType": "address",
          "name": "_routerAddress",
          "type": "address"
        }
      ],
      "name": "setRouterAddress",
      "outputs": [],
      "stateMutability": "nonpayable",
      "type": "function"
    },
    {
      "inputs": [
        {
          "internalType": "uint256",
          "name": "_swapThreshold",
          "type": "uint256"
        }
      ],
      "name": "setSwapThreshold",
      "outputs": [],
      "stateMutability": "nonpayable",
      "type": "function"
    },
    {
      "inputs": [
        {
          "internalType": "contract TransactionFeesManager",
          "name": "_transactionFeesManager",
          "type": "address"
        }
      ],
      "name": "setTransactionFeesManager",
      "outputs": [],
      "stateMutability": "nonpayable",
      "type": "function"
    },
    {
      "inputs": [
        {
          "internalType": "address",
          "name": "_lpPair",
          "type": "address"
        }
      ],
      "name": "setlpPair",
      "outputs": [],
      "stateMutability": "nonpayable",
      "type": "function"
    },
    {
      "inputs": [],
      "name": "symbol",
      "outputs": [
        {
          "internalType": "string",
          "name": "",
          "type": "string"
        }
      ],
      "stateMutability": "view",
      "type": "function"
    },
    {
      "inputs": [],
      "name": "totalSupply",
      "outputs": [
        {
          "internalType": "uint256",
          "name": "",
          "type": "uint256"
        }
      ],
      "stateMutability": "view",
      "type": "function"
    },
    {
      "inputs": [
        {
          "internalType": "address",
          "name": "to",
          "type": "address"
        },
        {
          "internalType": "uint256",
          "name": "amount",
          "type": "uint256"
        }
      ],
      "name": "transfer",
      "outputs": [
        {
          "internalType": "bool",
          "name": "",
          "type": "bool"
        }
      ],
      "stateMutability": "nonpayable",
      "type": "function"
    },
    {
      "inputs": [
        {
          "internalType": "address",
          "name": "from",
          "type": "address"
        },
        {
          "internalType": "address",
          "name": "to",
          "type": "address"
        },
        {
          "internalType": "uint256",
          "name": "amount",
          "type": "uint256"
        }
      ],
      "name": "transferFrom",
      "outputs": [
        {
          "internalType": "bool",
          "name": "",
          "type": "bool"
        }
      ],
      "stateMutability": "nonpayable",
      "type": "function"
    },
    {
      "inputs": [
        {
          "internalType": "address",
          "name": "newOwner",
          "type": "address"
        }
      ],
      "name": "transferOwnership",
      "outputs": [],
      "stateMutability": "nonpayable",
      "type": "function"
    },
    {
      "stateMutability": "payable",
      "type": "receive"
    }
  ],
  "bytecode": "0x608060405234801561001057600080fd5b50612a2c806100206000396000f3fe608060405260043610620001cb5760003560e01c80638a8c523c11620000f5578063b62496f51162000090578063b62496f51462000554578063b9af85671462000588578063cba6d6d214620005e1578063dd62ed3e1462000628578063f005f2ca146200064d578063f2fde38b1462000664578063f72f863b1462000689578063fa83cb5814620006ae57600080fd5b80638a8c523c14620004315780638da5cb5b146200044957806395d89b4114620004615780639d0014b11462000479578063a22d4832146200049d578063a457c2d714620004e5578063a9059cbb146200050a578063b119490e146200052f57600080fd5b806339509351116200016657806339509351146200031b57806341cb87fc1462000340578063534c6bcb146200036557806357e26696146200038a57806370a0823114620003aa5780637104ddb214620003e4578063715018a614620003f957806386f3f3cb146200041157600080fd5b806306fdde0314620001d8578063095ea7b3146200020857806318160ddd146200023e5780631e293c10146200025f57806323b872dd1462000285578063249fdf0214620002aa57806327a14fc214620002d9578063313ce56714620002fd57600080fd5b36620001d357005b600080fd5b348015620001e557600080fd5b50620001f0620006c8565b604051620001ff919062001866565b60405180910390f35b3480156200021557600080fd5b506200022d62000227366004620018d4565b62000762565b6040519015158152602001620001ff565b3480156200024b57600080fd5b506035545b604051908152602001620001ff565b3480156200026c57600080fd5b50620002836200027e36600462001903565b609b55565b005b3480156200029257600080fd5b506200022d620002a43660046200191d565b6200077c565b348015620002b757600080fd5b50609c5461010090046001600160a01b03165b604051620001ff919062001963565b348015620002e657600080fd5b5062000283620002f836600462001903565b609a55565b3480156200030a57600080fd5b5060405160128152602001620001ff565b3480156200032857600080fd5b506200022d6200033a366004620018d4565b620007a4565b3480156200034d57600080fd5b50620002836200035f36600462001977565b620007cc565b3480156200037257600080fd5b506200028362000384366004620019b1565b62000828565b3480156200039757600080fd5b50609d546001600160a01b0316620002ca565b348015620003b757600080fd5b5062000250620003c936600462001977565b6001600160a01b031660009081526033602052604090205490565b348015620003f157600080fd5b5030620002ca565b3480156200040657600080fd5b5062000283620008a4565b3480156200041e57600080fd5b506098546001600160a01b0316620002ca565b3480156200043e57600080fd5b5062000283620008ef565b3480156200045657600080fd5b50620002ca6200094e565b3480156200046e57600080fd5b50620001f06200095d565b3480156200048657600080fd5b50620002836200049836600462001903565b609955565b348015620004aa57600080fd5b5062000283620004bc36600462001977565b609880546001600160a01b039092166001600160a01b031990921682179055600052609e602052565b348015620004f257600080fd5b506200022d62000504366004620018d4565b6200096e565b3480156200051757600080fd5b506200022d62000529366004620018d4565b620009ef565b3480156200053c57600080fd5b50620002836200054e36600462001aa6565b620009ff565b3480156200056157600080fd5b506200022d6200057336600462001977565b609e6020526000908152604090205460ff1681565b3480156200059557600080fd5b5062000283620005a736600462001977565b609880546001600160a01b039092166001600160a01b0319909216821790556000908152609e60205260409020805460ff19166001179055565b348015620005ee57600080fd5b50620002836200060036600462001977565b609c80546001600160a01b0390921661010002610100600160a81b0319909216919091179055565b3480156200063557600080fd5b50620002506200064736600462001b1a565b62000a95565b3480156200065a57600080fd5b5060995462000250565b3480156200067157600080fd5b50620002836200068336600462001977565b62000ac0565b3480156200069657600080fd5b5062000283620006a836600462001977565b62000b69565b348015620006bb57600080fd5b50609c5460ff166200022d565b606060368054620006d99062001b58565b80601f0160208091040260200160405190810160405280929190818152602001828054620007079062001b58565b8015620007585780601f106200072c5761010080835404028352916020019162000758565b820191906000526020600020905b8154815290600101906020018083116200073a57829003601f168201915b5050505050905090565b6000336200077281858562000bd2565b5060019392505050565b6000336200078c85828562000cfa565b6200079985858562000d75565b506001949350505050565b60003362000772818585620007ba838362000a95565b620007c6919062001baa565b62000bd2565b80604051620007db90620017a4565b620007e7919062001963565b604051809103906000f08015801562000804573d6000803e3d6000fd5b50609d80546001600160a01b0319166001600160a01b039290921691909117905550565b609c5460405163534c6bcb60e01b815261ffff80861660048301528085166024830152831660448201526101009091046001600160a01b03169063534c6bcb90606401600060405180830381600087803b1580156200088657600080fd5b505af11580156200089b573d6000803e3d6000fd5b50505050505050565b33620008af6200094e565b6001600160a01b031614620008e15760405162461bcd60e51b8152600401620008d89062001bc5565b60405180910390fd5b620008ed600062000ebd565b565b609c5460ff16156200093f5760405162461bcd60e51b815260206004820152601860248201527754726164696e6720616c726561647920656e61626c65642160401b6044820152606401620008d8565b609c805460ff19166001179055565b6065546001600160a01b031690565b606060378054620006d99062001b58565b600033816200097e828662000a95565b905083811015620009e05760405162461bcd60e51b815260206004820152602560248201527f45524332303a2064656372656173656420616c6c6f77616e63652062656c6f77604482015264207a65726f60d81b6064820152608401620008d8565b62000799828686840362000bd2565b6000336200077281858562000d75565b600062000a0d600162000f0f565b9050801562000a26576000805461ff0019166101001790555b62000a32848462000fa4565b62000a3c62000fde565b62000a483383620010d9565b801562000a8f576000805461ff0019169055604051600181527f7f26b83ff96e1f2b6a682f133852f6798a09c465da95921460cefb38474024989060200160405180910390a15b50505050565b6001600160a01b03918216600090815260346020908152604080832093909416825291909152205490565b3362000acb6200094e565b6001600160a01b03161462000af45760405162461bcd60e51b8152600401620008d89062001bc5565b6001600160a01b03811662000b5b5760405162461bcd60e51b815260206004820152602660248201527f4f776e61626c653a206e6577206f776e657220697320746865207a65726f206160448201526564647265737360d01b6064820152608401620008d8565b62000b668162000ebd565b50565b609d5460405163f72f863b60e01b81526001600160a01b039091169063f72f863b9062000b9b90849060040162001963565b600060405180830381600087803b15801562000bb657600080fd5b505af115801562000bcb573d6000803e3d6000fd5b5050505050565b6001600160a01b03831662000c365760405162461bcd60e51b8152602060048201526024808201527f45524332303a20617070726f76652066726f6d20746865207a65726f206164646044820152637265737360e01b6064820152608401620008d8565b6001600160a01b03821662000c995760405162461bcd60e51b815260206004820152602260248201527f45524332303a20617070726f766520746f20746865207a65726f206164647265604482015261737360f01b6064820152608401620008d8565b6001600160a01b0383811660008181526034602090815260408083209487168084529482529182902085905590518481527f8c5be1e5ebec7d5bd14f71427d1e84f3dd0314c0f7b2291e5b200ac8c7c3b925910160405180910390a3505050565b600062000d08848462000a95565b9050600019811462000a8f578181101562000d665760405162461bcd60e51b815260206004820152601d60248201527f45524332303a20696e73756666696369656e7420616c6c6f77616e63650000006044820152606401620008d8565b62000a8f848484840362000bd2565b609d60009054906101000a90046001600160a01b03166001600160a01b031663cc9968996040518163ffffffff1660e01b8152600401602060405180830381865afa15801562000dc9573d6000803e3d6000fd5b505050506040513d601f19601f8201168201806040525081019062000def919062001bfa565b1562000e075762000e02838383620011be565b505050565b62000e13838362001396565b1562000eb057600062000e2630620003c9565b609d549091506001600160a01b031663b8b03b223062000e456200094e565b6040516001600160e01b031960e085901b1681526001600160a01b0392831660048201529116602482015260448101849052606401600060405180830381600087803b15801562000e9557600080fd5b505af115801562000eaa573d6000803e3d6000fd5b50505050505b62000e0283838362001585565b606580546001600160a01b038381166001600160a01b0319831681179093556040519116919082907f8be0079c531659141344cd1fd0a4f28419497f9722a3daafe3b4186f6b6457e090600090a35050565b60008054610100900460ff161562000f5b578160ff16600114801562000f345750303b155b62000f535760405162461bcd60e51b8152600401620008d89062001c1e565b506000919050565b60005460ff80841691161062000f855760405162461bcd60e51b8152600401620008d89062001c1e565b506000805460ff191660ff92909216919091179055600190565b919050565b600054610100900460ff1662000fce5760405162461bcd60e51b8152600401620008d89062001c6c565b62000fda82826200174f565b5050565b600019609a819055609b55683635c9adc5dea00000609955609780546001600160a01b031990811661dead179091556098805490911690556040516200102490620017b2565b604051809103906000f08015801562001041573d6000803e3d6000fd5b50609c8054610100600160a81b0319166101006001600160a01b0393841681029190911791829055900416636612e66f6200107b6200094e565b6040516001600160e01b031960e084901b1681526001600160a01b03909116600482015260016024820152604401600060405180830381600087803b158015620010c457600080fd5b505af115801562000a8f573d6000803e3d6000fd5b6001600160a01b038216620011315760405162461bcd60e51b815260206004820152601f60248201527f45524332303a206d696e7420746f20746865207a65726f2061646472657373006044820152606401620008d8565b806035600082825462001145919062001baa565b90915550506001600160a01b038216600090815260336020526040812080548392906200117490849062001baa565b90915550506040518181526001600160a01b038316906000907fddf252ad1be2c89b69c2b068fc378daa952ba7f163c4a11628f55a4df523b3ef9060200160405180910390a35050565b6001600160a01b038316620012245760405162461bcd60e51b815260206004820152602560248201527f45524332303a207472616e736665722066726f6d20746865207a65726f206164604482015264647265737360d81b6064820152608401620008d8565b6001600160a01b038216620012885760405162461bcd60e51b815260206004820152602360248201527f45524332303a207472616e7366657220746f20746865207a65726f206164647260448201526265737360e81b6064820152608401620008d8565b6001600160a01b03831660009081526033602052604090205481811015620013025760405162461bcd60e51b815260206004820152602660248201527f45524332303a207472616e7366657220616d6f756e7420657863656564732062604482015265616c616e636560d01b6064820152608401620008d8565b6001600160a01b038085166000908152603360205260408082208585039055918516815290812080548492906200133b90849062001baa565b92505081905550826001600160a01b0316846001600160a01b03167fddf252ad1be2c89b69c2b068fc378daa952ba7f163c4a11628f55a4df523b3ef846040516200138891815260200190565b60405180910390a362000a8f565b600080620013a430620003c9565b9050620013b060995490565b8110158015620014375750609d60009054906101000a90046001600160a01b03166001600160a01b031663cc9968996040518163ffffffff1660e01b8152600401602060405180830381865afa1580156200140f573d6000803e3d6000fd5b505050506040513d601f19601f8201168201806040525081019062001435919062001bfa565b155b80156200145257506098546001600160a01b03858116911614155b8015620014755750600062001473620003c96098546001600160a01b031690565b115b8015620014f95750609c546040516314d0ab2d60e21b81526101009091046001600160a01b031690635342acb490620014b390869060040162001963565b602060405180830381865afa158015620014d1573d6000803e3d6000fd5b505050506040513d601f19601f82011682018060405250810190620014f7919062001bfa565b155b80156200157d5750609c546040516314d0ab2d60e21b81526101009091046001600160a01b031690635342acb4906200153790879060040162001963565b602060405180830381865afa15801562001555573d6000803e3d6000fd5b505050506040513d601f19601f820116820180604052508101906200157b919062001bfa565b155b949350505050565b609c546040516314d0ab2d60e21b815282916000916101009091046001600160a01b031690635342acb490620015c090889060040162001963565b602060405180830381865afa158015620015de573d6000803e3d6000fd5b505050506040513d601f19601f8201168201806040525081019062001604919062001bfa565b158015620016895750609c546040516314d0ab2d60e21b81526101009091046001600160a01b031690635342acb4906200164390879060040162001963565b602060405180830381865afa15801562001661573d6000803e3d6000fd5b505050506040513d601f19601f8201168201806040525081019062001687919062001bfa565b155b156200174257609c54609854604051633dcaefb160e21b81526001600160a01b0391821660048201528782166024820152868216604482015260648101869052610100909204169063f72bbec490608401602060405180830381865afa158015620016f8573d6000803e3d6000fd5b505050506040513d601f19601f820116820180604052508101906200171e919062001cb7565b90508015620017425762001733818462001cd1565b915062001742853083620011be565b62000bcb858584620011be565b600054610100900460ff16620017795760405162461bcd60e51b8152600401620008d89062001c6c565b81516200178e906036906020850190620017c0565b50805162000e02906037906020840190620017c0565b6108e98062001cec83390190565b61042280620025d583390190565b828054620017ce9062001b58565b90600052602060002090601f016020900481019282620017f257600085556200183d565b82601f106200180d57805160ff19168380011785556200183d565b828001600101855582156200183d579182015b828111156200183d57825182559160200191906001019062001820565b506200184b9291506200184f565b5090565b5b808211156200184b576000815560010162001850565b600060208083528351808285015260005b81811015620018955785810183015185820160400152820162001877565b81811115620018a8576000604083870101525b50601f01601f1916929092016040019392505050565b6001600160a01b038116811462000b6657600080fd5b60008060408385031215620018e857600080fd5b8235620018f581620018be565b946020939093013593505050565b6000602082840312156200191657600080fd5b5035919050565b6000806000606084860312156200193357600080fd5b83356200194081620018be565b925060208401356200195281620018be565b929592945050506040919091013590565b6001600160a01b0391909116815260200190565b6000602082840312156200198a57600080fd5b81356200199781620018be565b9392505050565b803561ffff8116811462000f9f57600080fd5b600080600060608486031215620019c757600080fd5b620019d2846200199e565b9250620019e2602085016200199e565b9150620019f2604085016200199e565b90509250925092565b634e487b7160e01b600052604160045260246000fd5b600082601f83011262001a2357600080fd5b813567ffffffffffffffff8082111562001a415762001a41620019fb565b604051601f8301601f19908116603f0116810190828211818310171562001a6c5762001a6c620019fb565b8160405283815286602085880101111562001a8657600080fd5b836020870160208301376000602085830101528094505050505092915050565b60008060006060848603121562001abc57600080fd5b833567ffffffffffffffff8082111562001ad557600080fd5b62001ae38783880162001a11565b9450602086013591508082111562001afa57600080fd5b5062001b098682870162001a11565b925050604084013590509250925092565b6000806040838503121562001b2e57600080fd5b823562001b3b81620018be565b9150602083013562001b4d81620018be565b809150509250929050565b600181811c9082168062001b6d57607f821691505b60208210810362001b8e57634e487b7160e01b600052602260045260246000fd5b50919050565b634e487b7160e01b600052601160045260246000fd5b6000821982111562001bc05762001bc062001b94565b500190565b6020808252818101527f4f776e61626c653a2063616c6c6572206973206e6f7420746865206f776e6572604082015260600190565b60006020828403121562001c0d57600080fd5b815180151581146200199757600080fd5b6020808252602e908201527f496e697469616c697a61626c653a20636f6e747261637420697320616c72656160408201526d191e481a5b9a5d1a585b1a5e995960921b606082015260800190565b6020808252602b908201527f496e697469616c697a61626c653a20636f6e7472616374206973206e6f74206960408201526a6e697469616c697a696e6760a81b606082015260800190565b60006020828403121562001cca57600080fd5b5051919050565b60008282101562001ce65762001ce662001b94565b50039056fe608060405234801561001057600080fd5b506040516108e93803806108e983398101604081905261002f91610061565b600080546001600160a01b039092166001600160a01b031992831617905561a869600255600180549091169055610091565b60006020828403121561007357600080fd5b81516001600160a01b038116811461008a57600080fd5b9392505050565b610849806100a06000396000f3fe608060405234801561001057600080fd5b50600436106100835760003560e01c8063197e8da91461008857806385954d8c146100b8578063b8b03b22146100c9578063b9c55241146100b8578063cc996899146100de578063cf6c62ea146100fb578063dd6e491e14610088578063f72f863b1461010e578063f7a765761461013e575b600080fd5b61009b610096366004610628565b610151565b6040516001600160a01b0390911681526020015b60405180910390f35b6000546001600160a01b031661009b565b6100dc6100d736600461065d565b61020d565b005b600154600160a01b900460ff1660405190151581526020016100af565b6100dc610109366004610699565b6103ba565b6100dc61011c3660046106db565b600080546001600160a01b0319166001600160a01b0392909216919091179055565b6100dc61014c36600461065d565b6104f7565b600073ae13d989dac2f0debff460ac112a837c89baa7cd606183900361018c575073ae13d989dac2f0debff460ac112a837c89baa7cd6101f1565b826061036101af575073ae13d989dac2f0debff460ac112a837c89baa7cd6101f1565b60405162461bcd60e51b8152602060048201526013602482015272756e737570706f72746564206e6574776f726b60681b604482015260640160405180910390fd5b5073ae13d989dac2f0debff460ac112a837c89baa7cd92915050565b60408051600380825260808201909252600091602082016060803683370190505090508381600081518110610244576102446106fd565b60200260200101906001600160a01b031690816001600160a01b03168152505061026f600254610151565b81600181518110610282576102826106fd565b6001600160a01b0392831660209182029290920101526001548251911690829060029081106102b3576102b36106fd565b6001600160a01b03928316602091820292909201015260015460005460405163095ea7b360e01b81529183169263095ea7b3926102fa929091169060001990600401610713565b6020604051808303816000875af1158015610319573d6000803e3d6000fd5b505050506040513d601f19601f8201168201806040525081019061033d919061072c565b50600080546001600160a01b031690635c11d7959084908487610362426103e861074e565b6040518663ffffffff1660e01b8152600401610382959493929190610774565b600060405180830381600087803b15801561039c57600080fd5b505af11580156103b0573d6000803e3d6000fd5b5050505050505050565b60005460405163095ea7b360e01b81526001600160a01b038681169263095ea7b3926103f0929091169060001990600401610713565b6020604051808303816000875af115801561040f573d6000803e3d6000fd5b505050506040513d601f19601f82011682018060405250810190610433919061072c565b50600080546001600160a01b03169063f305d71990839030908690808961045c4261271061074e565b60405160e089901b6001600160e01b03191681526001600160a01b039687166004820152602481019590955260448501939093526064840191909152909216608482015260a481019190915260c40160606040518083038185885af11580156104c9573d6000803e3d6000fd5b50505050506040513d601f19601f820116820180604052508101906104ee91906107e5565b50505050505050565b604080516002808252606082018352600092602083019080368337019050509050838160008151811061052c5761052c6106fd565b60200260200101906001600160a01b031690816001600160a01b031681525050610557600254610151565b8160018151811061056a5761056a6106fd565b6001600160a01b03928316602091820292909201015260005460405163095ea7b360e01b81528683169263095ea7b3926105ad9291169060001990600401610713565b6020604051808303816000875af11580156105cc573d6000803e3d6000fd5b505050506040513d601f19601f820116820180604052508101906105f0919061072c565b506000805460405163791ac94760e01b81526001600160a01b039091169163791ac94791610382918691869089904290600401610774565b60006020828403121561063a57600080fd5b5035919050565b80356001600160a01b038116811461065857600080fd5b919050565b60008060006060848603121561067257600080fd5b61067b84610641565b925061068960208501610641565b9150604084013590509250925092565b600080600080608085870312156106af57600080fd5b6106b885610641565b93506106c660208601610641565b93969395505050506040820135916060013590565b6000602082840312156106ed57600080fd5b6106f682610641565b9392505050565b634e487b7160e01b600052603260045260246000fd5b6001600160a01b03929092168252602082015260400190565b60006020828403121561073e57600080fd5b815180151581146106f657600080fd5b6000821982111561076f57634e487b7160e01b600052601160045260246000fd5b500190565b600060a082018783526020878185015260a0604085015281875180845260c086019150828901935060005b818110156107c45784516001600160a01b03168352938301939183019160010161079f565b50506001600160a01b03969096166060850152505050608001529392505050565b6000806000606084860312156107fa57600080fd5b835192506020840151915060408401519050925092509256fea26469706673582212204d91ed05d6e6b951d79e34bf634aa72b1feaa068d82c1464c308073873eb3b9c64736f6c634300080e0033608060405234801561001057600080fd5b50612710600155604080516060810182526000808252602082018190529101819052805465ffffffffffff191690556103d48061004e6000396000f3fe608060405234801561001057600080fd5b506004361061004c5760003560e01c80635342acb414610051578063534c6bcb146100795780636612e66f146100c8578063f72bbec414610101575b600080fd5b61006461005f366004610231565b610122565b60405190151581526020015b60405180910390f35b6100c6610087366004610265565b6000805461ffff94851663ffffffff199091161762010000938516939093029290921765ffff0000000019166401000000009190931602919091179055565b005b6100c66100d63660046102a8565b6001600160a01b03919091166000908152600260205260409020805460ff1916911515919091179055565b61011461010f3660046102e4565b610140565b604051908152602001610070565b6001600160a01b031660009081526002602052604090205460ff1690565b6000808061014d86610122565b8061015c575061015c85610122565b1561016c5760009250505061020d565b866001600160a01b0316866001600160a01b03160361019d576000546101969061ffff1683610345565b91506101e9565b866001600160a01b0316856001600160a01b0316036101cd576000546101969062010000900461ffff1683610345565b6000546101e690640100000000900461ffff1683610345565b91505b8115610209576001546101fc838661035d565b610206919061037c565b90505b9150505b949350505050565b80356001600160a01b038116811461022c57600080fd5b919050565b60006020828403121561024357600080fd5b61024c82610215565b9392505050565b803561ffff8116811461022c57600080fd5b60008060006060848603121561027a57600080fd5b61028384610253565b925061029160208501610253565b915061029f60408501610253565b90509250925092565b600080604083850312156102bb57600080fd5b6102c483610215565b9150602083013580151581146102d957600080fd5b809150509250929050565b600080600080608085870312156102fa57600080fd5b61030385610215565b935061031160208601610215565b925061031f60408601610215565b9396929550929360600135925050565b634e487b7160e01b600052601160045260246000fd5b600082198211156103585761035861032f565b500190565b60008160001904831182151516156103775761037761032f565b500290565b60008261039957634e487b7160e01b600052601260045260246000fd5b50049056fea2646970667358221220c61289d51273e9c03a05dc83e68698f52562915891ac74d88a782fa0bc1f9b8564736f6c634300080e0033a26469706673582212200a7d0e3f2588fd5935a8bcd9a1e2b01da5447877a155d1c2fcb55073569833f664736f6c634300080e0033",
  "linkReferences": {},
  "deployedLinkReferences": {}
}