{
  "_format": "hh-sol-artifact-1",
  "contractName": "MetaStocksCompanyManager",
  "sourceName": "contracts/managers/metastocks/MetaStocksCompanyManager.sol",
  "abi": [
    {
      "anonymous": false,
      "inputs": [
        {
          "indexed": true,
          "internalType": "address",
          "name": "owner",
          "type": "address"
        },
        {
          "indexed": true,
          "internalType": "address",
          "name": "spender",
          "type": "address"
        },
        {
          "indexed": false,
          "internalType": "uint256",
          "name": "value",
          "type": "uint256"
        }
      ],
      "name": "Approval",
      "type": "event"
    },
    {
      "anonymous": false,
      "inputs": [
        {
          "indexed": true,
          "internalType": "address",
          "name": "account",
          "type": "address"
        },
        {
          "indexed": false,
          "internalType": "uint256",
          "name": "companyId",
          "type": "uint256"
        }
      ],
      "name": "CreateCompany",
      "type": "event"
    },
    {
      "anonymous": false,
      "inputs": [
        {
          "indexed": false,
          "internalType": "uint8",
          "name": "version",
          "type": "uint8"
        }
      ],
      "name": "Initialized",
      "type": "event"
    },
    {
      "anonymous": false,
      "inputs": [
        {
          "indexed": true,
          "internalType": "address",
          "name": "previousOwner",
          "type": "address"
        },
        {
          "indexed": true,
          "internalType": "address",
          "name": "newOwner",
          "type": "address"
        }
      ],
      "name": "OwnershipTransferred",
      "type": "event"
    },
    {
      "anonymous": false,
      "inputs": [
        {
          "indexed": true,
          "internalType": "address",
          "name": "from",
          "type": "address"
        },
        {
          "indexed": true,
          "internalType": "address",
          "name": "to",
          "type": "address"
        },
        {
          "indexed": false,
          "internalType": "uint256",
          "name": "value",
          "type": "uint256"
        }
      ],
      "name": "Transfer",
      "type": "event"
    },
    {
      "inputs": [
        {
          "internalType": "address",
          "name": "owner",
          "type": "address"
        },
        {
          "internalType": "address",
          "name": "spender",
          "type": "address"
        }
      ],
      "name": "allowance",
      "outputs": [
        {
          "internalType": "uint256",
          "name": "",
          "type": "uint256"
        }
      ],
      "stateMutability": "view",
      "type": "function"
    },
    {
      "inputs": [
        {
          "internalType": "address",
          "name": "spender",
          "type": "address"
        },
        {
          "internalType": "uint256",
          "name": "amount",
          "type": "uint256"
        }
      ],
      "name": "approve",
      "outputs": [
        {
          "internalType": "bool",
          "name": "",
          "type": "bool"
        }
      ],
      "stateMutability": "nonpayable",
      "type": "function"
    },
    {
      "inputs": [
        {
          "internalType": "address",
          "name": "account",
          "type": "address"
        }
      ],
      "name": "balanceOf",
      "outputs": [
        {
          "internalType": "uint256",
          "name": "",
          "type": "uint256"
        }
      ],
      "stateMutability": "view",
      "type": "function"
    },
    {
      "inputs": [
        {
          "internalType": "address",
          "name": "",
          "type": "address"
        }
      ],
      "name": "ceos",
      "outputs": [
        {
          "internalType": "bool",
          "name": "",
          "type": "bool"
        }
      ],
      "stateMutability": "view",
      "type": "function"
    },
    {
      "inputs": [
        {
          "internalType": "address",
          "name": "",
          "type": "address"
        }
      ],
      "name": "ceosCompanies",
      "outputs": [
        {
          "internalType": "uint256",
          "name": "",
          "type": "uint256"
        }
      ],
      "stateMutability": "view",
      "type": "function"
    },
    {
      "inputs": [],
      "name": "claimFromAllFranchises",
      "outputs": [],
      "stateMutability": "nonpayable",
      "type": "function"
    },
    {
      "inputs": [],
      "name": "claimFromAllFranchisesBNB",
      "outputs": [],
      "stateMutability": "nonpayable",
      "type": "function"
    },
    {
      "inputs": [
        {
          "internalType": "uint256",
          "name": "",
          "type": "uint256"
        }
      ],
      "name": "companiesCeos",
      "outputs": [
        {
          "internalType": "address",
          "name": "",
          "type": "address"
        }
      ],
      "stateMutability": "view",
      "type": "function"
    },
    {
      "inputs": [],
      "name": "createCompany",
      "outputs": [],
      "stateMutability": "payable",
      "type": "function"
    },
    {
      "inputs": [],
      "name": "createFranchise",
      "outputs": [],
      "stateMutability": "payable",
      "type": "function"
    },
    {
      "inputs": [],
      "name": "createFranchiseUsingBNB",
      "outputs": [],
      "stateMutability": "payable",
      "type": "function"
    },
    {
      "inputs": [],
      "name": "decimals",
      "outputs": [
        {
          "internalType": "uint8",
          "name": "",
          "type": "uint8"
        }
      ],
      "stateMutability": "view",
      "type": "function"
    },
    {
      "inputs": [
        {
          "internalType": "address",
          "name": "spender",
          "type": "address"
        },
        {
          "internalType": "uint256",
          "name": "subtractedValue",
          "type": "uint256"
        }
      ],
      "name": "decreaseAllowance",
      "outputs": [
        {
          "internalType": "bool",
          "name": "",
          "type": "bool"
        }
      ],
      "stateMutability": "nonpayable",
      "type": "function"
    },
    {
      "inputs": [
        {
          "internalType": "uint256",
          "name": "companyId",
          "type": "uint256"
        }
      ],
      "name": "getCompanyCEOAddress",
      "outputs": [
        {
          "internalType": "address",
          "name": "",
          "type": "address"
        }
      ],
      "stateMutability": "view",
      "type": "function"
    },
    {
      "inputs": [
        {
          "internalType": "address",
          "name": "_account",
          "type": "address"
        }
      ],
      "name": "getCompanyId",
      "outputs": [
        {
          "internalType": "uint256",
          "name": "",
          "type": "uint256"
        }
      ],
      "stateMutability": "view",
      "type": "function"
    },
    {
      "inputs": [],
      "name": "getMetaStocksFranchisesUnclaimedRewards",
      "outputs": [
        {
          "internalType": "uint256",
          "name": "",
          "type": "uint256"
        }
      ],
      "stateMutability": "view",
      "type": "function"
    },
    {
      "inputs": [
        {
          "internalType": "address",
          "name": "spender",
          "type": "address"
        },
        {
          "internalType": "uint256",
          "name": "addedValue",
          "type": "uint256"
        }
      ],
      "name": "increaseAllowance",
      "outputs": [
        {
          "internalType": "bool",
          "name": "",
          "type": "bool"
        }
      ],
      "stateMutability": "nonpayable",
      "type": "function"
    },
    {
      "inputs": [
        {
          "internalType": "address",
          "name": "_metaStocksCompanyAddress",
          "type": "address"
        },
        {
          "internalType": "address",
          "name": "_metaStocksFranchiseManagerAddress",
          "type": "address"
        }
      ],
      "name": "initialize",
      "outputs": [],
      "stateMutability": "nonpayable",
      "type": "function"
    },
    {
      "inputs": [
        {
          "internalType": "address",
          "name": "_account",
          "type": "address"
        }
      ],
      "name": "isCeo",
      "outputs": [
        {
          "internalType": "bool",
          "name": "",
          "type": "bool"
        }
      ],
      "stateMutability": "view",
      "type": "function"
    },
    {
      "inputs": [],
      "name": "name",
      "outputs": [
        {
          "internalType": "string",
          "name": "",
          "type": "string"
        }
      ],
      "stateMutability": "view",
      "type": "function"
    },
    {
      "inputs": [
        {
          "internalType": "address",
          "name": "",
          "type": "address"
        },
        {
          "internalType": "address",
          "name": "",
          "type": "address"
        },
        {
          "internalType": "uint256[]",
          "name": "",
          "type": "uint256[]"
        },
        {
          "internalType": "uint256[]",
          "name": "",
          "type": "uint256[]"
        },
        {
          "internalType": "bytes",
          "name": "",
          "type": "bytes"
        }
      ],
      "name": "onERC1155BatchReceived",
      "outputs": [
        {
          "internalType": "bytes4",
          "name": "",
          "type": "bytes4"
        }
      ],
      "stateMutability": "nonpayable",
      "type": "function"
    },
    {
      "inputs": [
        {
          "internalType": "address",
          "name": "",
          "type": "address"
        },
        {
          "internalType": "address",
          "name": "",
          "type": "address"
        },
        {
          "internalType": "uint256",
          "name": "",
          "type": "uint256"
        },
        {
          "internalType": "uint256",
          "name": "",
          "type": "uint256"
        },
        {
          "internalType": "bytes",
          "name": "",
          "type": "bytes"
        }
      ],
      "name": "onERC1155Received",
      "outputs": [
        {
          "internalType": "bytes4",
          "name": "",
          "type": "bytes4"
        }
      ],
      "stateMutability": "nonpayable",
      "type": "function"
    },
    {
      "inputs": [],
      "name": "owner",
      "outputs": [
        {
          "internalType": "address",
          "name": "",
          "type": "address"
        }
      ],
      "stateMutability": "view",
      "type": "function"
    },
    {
      "inputs": [],
      "name": "renounceOwnership",
      "outputs": [],
      "stateMutability": "nonpayable",
      "type": "function"
    },
    {
      "inputs": [
        {
          "internalType": "bytes4",
          "name": "interfaceId",
          "type": "bytes4"
        }
      ],
      "name": "supportsInterface",
      "outputs": [
        {
          "internalType": "bool",
          "name": "",
          "type": "bool"
        }
      ],
      "stateMutability": "view",
      "type": "function"
    },
    {
      "inputs": [],
      "name": "symbol",
      "outputs": [
        {
          "internalType": "string",
          "name": "",
          "type": "string"
        }
      ],
      "stateMutability": "view",
      "type": "function"
    },
    {
      "inputs": [],
      "name": "totalSupply",
      "outputs": [
        {
          "internalType": "uint256",
          "name": "",
          "type": "uint256"
        }
      ],
      "stateMutability": "view",
      "type": "function"
    },
    {
      "inputs": [
        {
          "internalType": "address",
          "name": "to",
          "type": "address"
        },
        {
          "internalType": "uint256",
          "name": "amount",
          "type": "uint256"
        }
      ],
      "name": "transfer",
      "outputs": [
        {
          "internalType": "bool",
          "name": "",
          "type": "bool"
        }
      ],
      "stateMutability": "nonpayable",
      "type": "function"
    },
    {
      "inputs": [
        {
          "internalType": "address",
          "name": "from",
          "type": "address"
        },
        {
          "internalType": "address",
          "name": "to",
          "type": "address"
        },
        {
          "internalType": "uint256",
          "name": "amount",
          "type": "uint256"
        }
      ],
      "name": "transferFrom",
      "outputs": [
        {
          "internalType": "bool",
          "name": "",
          "type": "bool"
        }
      ],
      "stateMutability": "nonpayable",
      "type": "function"
    },
    {
      "inputs": [
        {
          "internalType": "address",
          "name": "newOwner",
          "type": "address"
        }
      ],
      "name": "transferOwnership",
      "outputs": [],
      "stateMutability": "nonpayable",
      "type": "function"
    }
  ],
  "bytecode": "0x608060405234801561001057600080fd5b5061176e806100206000396000f3fe60806040526004361061018d5760003560e01c80638da5cb5b116100d7578063dc8dccc611610085578063dc8dccc6146104a9578063dd62ed3e146104df578063e3d1317a146104ff578063f23a6e6114610507578063f2fde38b14610533578063f446ab3f14610553578063f81a12d714610568578063ff0b9f8d1461059857600080fd5b80638da5cb5b1461037c57806395d89b41146103a3578063a457c2d7146103b8578063a9059cbb146103d8578063bc083917146103f8578063bc197c811461042e578063d6f343c51461047357600080fd5b8063212030381161013f578063212030381461028057806323b872dd146102ad578063313ce567146102cd5780633945fd88146102e957806339509351146102f1578063485cc9551461031157806370a0823114610331578063715018a61461036757600080fd5b806301ffc9a71461019257806303717bbe146101c757806306fdde03146101de578063095ea7b3146102005780630e98caf2146102205780631165e6ab1461022857806318160ddd14610261575b600080fd5b34801561019e57600080fd5b506101b26101ad36600461120c565b6105ad565b60405190151581526020015b60405180910390f35b3480156101d357600080fd5b506101dc6105be565b005b3480156101ea57600080fd5b506101f3610689565b6040516101be919061123d565b34801561020c57600080fd5b506101b261021b3660046112a9565b61071b565b6101dc610733565b34801561023457600080fd5b506101b26102433660046112d3565b6001600160a01b03166000908152609b602052604090205460ff1690565b34801561026d57600080fd5b506035545b6040519081526020016101be565b34801561028c57600080fd5b5061027261029b3660046112d3565b60996020526000908152604090205481565b3480156102b957600080fd5b506101b26102c83660046112ee565b61083b565b3480156102d957600080fd5b50604051601281526020016101be565b6101dc61085f565b3480156102fd57600080fd5b506101b261030c3660046112a9565b610904565b34801561031d57600080fd5b506101dc61032c36600461132a565b610926565b34801561033d57600080fd5b5061027261034c3660046112d3565b6001600160a01b031660009081526033602052604090205490565b34801561037357600080fd5b506101dc6109ca565b34801561038857600080fd5b506065546001600160a01b03165b6040516101be919061135d565b3480156103af57600080fd5b506101f3610a09565b3480156103c457600080fd5b506101b26103d33660046112a9565b610a18565b3480156103e457600080fd5b506101b26103f33660046112a9565b610a93565b34801561040457600080fd5b50610396610413366004611371565b609a602052600090815260409020546001600160a01b031681565b34801561043a57600080fd5b5061045a6104493660046114c1565b63bc197c8160e01b95945050505050565b6040516001600160e01b031990911681526020016101be565b34801561047f57600080fd5b5061027261048e3660046112d3565b6001600160a01b031660009081526099602052604090205490565b3480156104b557600080fd5b506103966104c4366004611371565b6000908152609a60205260409020546001600160a01b031690565b3480156104eb57600080fd5b506102726104fa36600461132a565b610aa1565b6101dc610acc565b34801561051357600080fd5b5061045a61052236600461156b565b63f23a6e6160e01b95945050505050565b34801561053f57600080fd5b506101dc61054e3660046112d3565b610be1565b34801561055f57600080fd5b50610272610c7c565b34801561057457600080fd5b506101b26105833660046112d3565b609b6020526000908152604090205460ff1681565b3480156105a457600080fd5b506101dc610d5a565b60006105b882610d92565b92915050565b60985460405163d6f343c560e01b81526001600160a01b039091169063d43a5fb190309063d6f343c5906105f690339060040161135d565b602060405180830381865afa158015610613573d6000803e3d6000fd5b505050506040513d601f19601f8201168201806040525081019061063791906115d0565b6040518263ffffffff1660e01b815260040161065591815260200190565b600060405180830381600087803b15801561066f57600080fd5b505af1158015610683573d6000803e3d6000fd5b50505050565b606060368054610698906115e9565b80601f01602080910402602001604051908101604052809291908181526020018280546106c4906115e9565b80156107115780601f106106e657610100808354040283529160200191610711565b820191906000526020600020905b8154815290600101906020018083116106f457829003601f168201915b5050505050905090565b600033610729818585610dc7565b5060019392505050565b336000908152609b602052604090205460ff1661079e57306001600160a01b031663e3d1317a6040518163ffffffff1660e01b8152600401600060405180830381600087803b15801561078557600080fd5b505af1158015610799573d6000803e3d6000fd5b505050505b60985460405163d6f343c560e01b81526001600160a01b039091169063c9d8224d908290309063d6f343c5906107d890339060040161135d565b602060405180830381865afa1580156107f5573d6000803e3d6000fd5b505050506040513d601f19601f8201168201806040525081019061081991906115d0565b6000806040518563ffffffff1660e01b81526004016106559493929190611623565b600033610849858285610eeb565b610854858585610f5f565b506001949350505050565b336000908152609b602052604090205460ff166108ca57306001600160a01b031663e3d1317a6040518163ffffffff1660e01b8152600401600060405180830381600087803b1580156108b157600080fd5b505af11580156108c5573d6000803e3d6000fd5b505050505b60985460405163d6f343c560e01b81526001600160a01b039091169063fbf3176f908290309063d6f343c5906107d890339060040161135d565b6000336107298185856109178383610aa1565b6109219190611684565b610dc7565b6000610932600161112d565b9050801561094a576000805461ff0019166101001790555b609780546001600160a01b038086166001600160a01b03199283161790925560988054928516929091169190911790556000609c5580156109c5576000805461ff0019169055604051600181527f7f26b83ff96e1f2b6a682f133852f6798a09c465da95921460cefb38474024989060200160405180910390a15b505050565b6065546001600160a01b031633146109fd5760405162461bcd60e51b81526004016109f49061169c565b60405180910390fd5b610a0760006111ba565b565b606060378054610698906115e9565b60003381610a268286610aa1565b905083811015610a865760405162461bcd60e51b815260206004820152602560248201527f45524332303a2064656372656173656420616c6c6f77616e63652062656c6f77604482015264207a65726f60d81b60648201526084016109f4565b6108548286868403610dc7565b600033610729818585610f5f565b6001600160a01b03918216600090815260346020908152604080832093909416825291909152205490565b6097546040516340d097c360e01b81526000916001600160a01b0316906340d097c390610afd90339060040161135d565b6020604051808303816000875af1158015610b1c573d6000803e3d6000fd5b505050506040513d601f19601f82011682018060405250810190610b4091906115d0565b336000818152609960209081526040808320859055848352609a825280832080546001600160a01b03191685179055928252609b9052908120805460ff19166001179055609c805492935090610b95836116d1565b9091555050336000818152609960209081526040918290205491519182527fe38265a604917a38d3b0f82f061e30793a578a7181d8b0d880e84ec70b0da81a910160405180910390a250565b6065546001600160a01b03163314610c0b5760405162461bcd60e51b81526004016109f49061169c565b6001600160a01b038116610c705760405162461bcd60e51b815260206004820152602660248201527f4f776e61626c653a206e6577206f776e657220697320746865207a65726f206160448201526564647265737360d01b60648201526084016109f4565b610c79816111ba565b50565b60985460405163d6f343c560e01b81526000916001600160a01b0316906340f1b93890309063d6f343c590610cb590339060040161135d565b602060405180830381865afa158015610cd2573d6000803e3d6000fd5b505050506040513d601f19601f82011682018060405250810190610cf691906115d0565b6040518263ffffffff1660e01b8152600401610d1491815260200190565b602060405180830381865afa158015610d31573d6000803e3d6000fd5b505050506040513d601f19601f82011682018060405250810190610d5591906115d0565b905090565b60985460405163d6f343c560e01b81526001600160a01b03909116906399dc7d9c90309063d6f343c5906105f690339060040161135d565b60006001600160e01b03198216630271189760e51b14806105b857506301ffc9a760e01b6001600160e01b03198316146105b8565b6001600160a01b038316610e295760405162461bcd60e51b8152602060048201526024808201527f45524332303a20617070726f76652066726f6d20746865207a65726f206164646044820152637265737360e01b60648201526084016109f4565b6001600160a01b038216610e8a5760405162461bcd60e51b815260206004820152602260248201527f45524332303a20617070726f766520746f20746865207a65726f206164647265604482015261737360f01b60648201526084016109f4565b6001600160a01b0383811660008181526034602090815260408083209487168084529482529182902085905590518481527f8c5be1e5ebec7d5bd14f71427d1e84f3dd0314c0f7b2291e5b200ac8c7c3b925910160405180910390a3505050565b6000610ef78484610aa1565b905060001981146106835781811015610f525760405162461bcd60e51b815260206004820152601d60248201527f45524332303a20696e73756666696369656e7420616c6c6f77616e636500000060448201526064016109f4565b6106838484848403610dc7565b6001600160a01b038316610fc35760405162461bcd60e51b815260206004820152602560248201527f45524332303a207472616e736665722066726f6d20746865207a65726f206164604482015264647265737360d81b60648201526084016109f4565b6001600160a01b0382166110255760405162461bcd60e51b815260206004820152602360248201527f45524332303a207472616e7366657220746f20746865207a65726f206164647260448201526265737360e81b60648201526084016109f4565b6001600160a01b0383166000908152603360205260409020548181101561109d5760405162461bcd60e51b815260206004820152602660248201527f45524332303a207472616e7366657220616d6f756e7420657863656564732062604482015265616c616e636560d01b60648201526084016109f4565b6001600160a01b038085166000908152603360205260408082208585039055918516815290812080548492906110d4908490611684565b92505081905550826001600160a01b0316846001600160a01b03167fddf252ad1be2c89b69c2b068fc378daa952ba7f163c4a11628f55a4df523b3ef8460405161112091815260200190565b60405180910390a3610683565b60008054610100900460ff1615611174578160ff1660011480156111505750303b155b61116c5760405162461bcd60e51b81526004016109f4906116ea565b506000919050565b60005460ff80841691161061119b5760405162461bcd60e51b81526004016109f4906116ea565b506000805460ff191660ff92909216919091179055600190565b919050565b606580546001600160a01b038381166001600160a01b0319831681179093556040519116919082907f8be0079c531659141344cd1fd0a4f28419497f9722a3daafe3b4186f6b6457e090600090a35050565b60006020828403121561121e57600080fd5b81356001600160e01b03198116811461123657600080fd5b9392505050565b600060208083528351808285015260005b8181101561126a5785810183015185820160400152820161124e565b8181111561127c576000604083870101525b50601f01601f1916929092016040019392505050565b80356001600160a01b03811681146111b557600080fd5b600080604083850312156112bc57600080fd5b6112c583611292565b946020939093013593505050565b6000602082840312156112e557600080fd5b61123682611292565b60008060006060848603121561130357600080fd5b61130c84611292565b925061131a60208501611292565b9150604084013590509250925092565b6000806040838503121561133d57600080fd5b61134683611292565b915061135460208401611292565b90509250929050565b6001600160a01b0391909116815260200190565b60006020828403121561138357600080fd5b5035919050565b634e487b7160e01b600052604160045260246000fd5b604051601f8201601f1916810167ffffffffffffffff811182821017156113c9576113c961138a565b604052919050565b600082601f8301126113e257600080fd5b8135602067ffffffffffffffff8211156113fe576113fe61138a565b8160051b61140d8282016113a0565b928352848101820192828101908785111561142757600080fd5b83870192505b848310156114465782358252918301919083019061142d565b979650505050505050565b600082601f83011261146257600080fd5b813567ffffffffffffffff81111561147c5761147c61138a565b61148f601f8201601f19166020016113a0565b8181528460208386010111156114a457600080fd5b816020850160208301376000918101602001919091529392505050565b600080600080600060a086880312156114d957600080fd5b6114e286611292565b94506114f060208701611292565b9350604086013567ffffffffffffffff8082111561150d57600080fd5b61151989838a016113d1565b9450606088013591508082111561152f57600080fd5b61153b89838a016113d1565b9350608088013591508082111561155157600080fd5b5061155e88828901611451565b9150509295509295909350565b600080600080600060a0868803121561158357600080fd5b61158c86611292565b945061159a60208701611292565b93506040860135925060608601359150608086013567ffffffffffffffff8111156115c457600080fd5b61155e88828901611451565b6000602082840312156115e257600080fd5b5051919050565b600181811c908216806115fd57607f821691505b60208210810361161d57634e487b7160e01b600052602260045260246000fd5b50919050565b6001600160a01b0385168152602081018490526040810183905260808101601a831061165f57634e487b7160e01b600052602160045260246000fd5b82606083015295945050505050565b634e487b7160e01b600052601160045260246000fd5b600082198211156116975761169761166e565b500190565b6020808252818101527f4f776e61626c653a2063616c6c6572206973206e6f7420746865206f776e6572604082015260600190565b6000600182016116e3576116e361166e565b5060010190565b6020808252602e908201527f496e697469616c697a61626c653a20636f6e747261637420697320616c72656160408201526d191e481a5b9a5d1a585b1a5e995960921b60608201526080019056fea2646970667358221220765be8ce72062427e78b4e3a69f729c96c398c24ba83ff4864354c3e852e74f564736f6c634300080e0033",
  "linkReferences": {},
  "deployedLinkReferences": {}
}