{
  "_format": "hh-sol-artifact-1",
  "contractName": "MetaStocksCompanyManager",
  "sourceName": "contracts/managers/metastocks/MetaStocksCompanyManager.sol",
  "abi": [
    {
      "anonymous": false,
      "inputs": [
        {
          "indexed": true,
          "internalType": "address",
          "name": "owner",
          "type": "address"
        },
        {
          "indexed": true,
          "internalType": "address",
          "name": "spender",
          "type": "address"
        },
        {
          "indexed": false,
          "internalType": "uint256",
          "name": "value",
          "type": "uint256"
        }
      ],
      "name": "Approval",
      "type": "event"
    },
    {
      "anonymous": false,
      "inputs": [
        {
          "indexed": true,
          "internalType": "address",
          "name": "account",
          "type": "address"
        },
        {
          "indexed": false,
          "internalType": "uint256",
          "name": "companyId",
          "type": "uint256"
        }
      ],
      "name": "CreateCompany",
      "type": "event"
    },
    {
      "anonymous": false,
      "inputs": [
        {
          "indexed": false,
          "internalType": "uint8",
          "name": "version",
          "type": "uint8"
        }
      ],
      "name": "Initialized",
      "type": "event"
    },
    {
      "anonymous": false,
      "inputs": [
        {
          "indexed": true,
          "internalType": "address",
          "name": "previousOwner",
          "type": "address"
        },
        {
          "indexed": true,
          "internalType": "address",
          "name": "newOwner",
          "type": "address"
        }
      ],
      "name": "OwnershipTransferred",
      "type": "event"
    },
    {
      "anonymous": false,
      "inputs": [
        {
          "indexed": true,
          "internalType": "address",
          "name": "from",
          "type": "address"
        },
        {
          "indexed": true,
          "internalType": "address",
          "name": "to",
          "type": "address"
        },
        {
          "indexed": false,
          "internalType": "uint256",
          "name": "value",
          "type": "uint256"
        }
      ],
      "name": "Transfer",
      "type": "event"
    },
    {
      "inputs": [
        {
          "internalType": "address",
          "name": "owner",
          "type": "address"
        },
        {
          "internalType": "address",
          "name": "spender",
          "type": "address"
        }
      ],
      "name": "allowance",
      "outputs": [
        {
          "internalType": "uint256",
          "name": "",
          "type": "uint256"
        }
      ],
      "stateMutability": "view",
      "type": "function"
    },
    {
      "inputs": [
        {
          "internalType": "address",
          "name": "spender",
          "type": "address"
        },
        {
          "internalType": "uint256",
          "name": "amount",
          "type": "uint256"
        }
      ],
      "name": "approve",
      "outputs": [
        {
          "internalType": "bool",
          "name": "",
          "type": "bool"
        }
      ],
      "stateMutability": "nonpayable",
      "type": "function"
    },
    {
      "inputs": [
        {
          "internalType": "address",
          "name": "account",
          "type": "address"
        }
      ],
      "name": "balanceOf",
      "outputs": [
        {
          "internalType": "uint256",
          "name": "",
          "type": "uint256"
        }
      ],
      "stateMutability": "view",
      "type": "function"
    },
    {
      "inputs": [
        {
          "internalType": "address",
          "name": "",
          "type": "address"
        }
      ],
      "name": "ceos",
      "outputs": [
        {
          "internalType": "bool",
          "name": "",
          "type": "bool"
        }
      ],
      "stateMutability": "view",
      "type": "function"
    },
    {
      "inputs": [
        {
          "internalType": "address",
          "name": "",
          "type": "address"
        }
      ],
      "name": "ceosCompanies",
      "outputs": [
        {
          "internalType": "uint256",
          "name": "",
          "type": "uint256"
        }
      ],
      "stateMutability": "view",
      "type": "function"
    },
    {
      "inputs": [],
      "name": "claimFromAllFranchises",
      "outputs": [],
      "stateMutability": "nonpayable",
      "type": "function"
    },
    {
      "inputs": [],
      "name": "claimFromAllFranchisesBNB",
      "outputs": [],
      "stateMutability": "nonpayable",
      "type": "function"
    },
    {
      "inputs": [
        {
          "internalType": "uint256",
          "name": "",
          "type": "uint256"
        }
      ],
      "name": "companiesCeos",
      "outputs": [
        {
          "internalType": "address",
          "name": "",
          "type": "address"
        }
      ],
      "stateMutability": "view",
      "type": "function"
    },
    {
      "inputs": [],
      "name": "createCompany",
      "outputs": [],
      "stateMutability": "payable",
      "type": "function"
    },
    {
      "inputs": [],
      "name": "createFranchise",
      "outputs": [],
      "stateMutability": "payable",
      "type": "function"
    },
    {
      "inputs": [],
      "name": "createFranchiseUsingBNB",
      "outputs": [],
      "stateMutability": "payable",
      "type": "function"
    },
    {
      "inputs": [],
      "name": "decimals",
      "outputs": [
        {
          "internalType": "uint8",
          "name": "",
          "type": "uint8"
        }
      ],
      "stateMutability": "view",
      "type": "function"
    },
    {
      "inputs": [
        {
          "internalType": "address",
          "name": "spender",
          "type": "address"
        },
        {
          "internalType": "uint256",
          "name": "subtractedValue",
          "type": "uint256"
        }
      ],
      "name": "decreaseAllowance",
      "outputs": [
        {
          "internalType": "bool",
          "name": "",
          "type": "bool"
        }
      ],
      "stateMutability": "nonpayable",
      "type": "function"
    },
    {
      "inputs": [
        {
          "internalType": "uint256",
          "name": "companyId",
          "type": "uint256"
        }
      ],
      "name": "getCompanyCEOAddress",
      "outputs": [
        {
          "internalType": "address",
          "name": "",
          "type": "address"
        }
      ],
      "stateMutability": "view",
      "type": "function"
    },
    {
      "inputs": [
        {
          "internalType": "address",
          "name": "_account",
          "type": "address"
        }
      ],
      "name": "getCompanyId",
      "outputs": [
        {
          "internalType": "uint256",
          "name": "",
          "type": "uint256"
        }
      ],
      "stateMutability": "view",
      "type": "function"
    },
    {
      "inputs": [],
      "name": "getMetaStocksFranchisesUnclaimedRewards",
      "outputs": [
        {
          "internalType": "uint256",
          "name": "",
          "type": "uint256"
        }
      ],
      "stateMutability": "view",
      "type": "function"
    },
    {
      "inputs": [],
      "name": "getMetaStocksFranchisesUnclaimedRewardsBNB",
      "outputs": [
        {
          "internalType": "uint256",
          "name": "",
          "type": "uint256"
        }
      ],
      "stateMutability": "view",
      "type": "function"
    },
    {
      "inputs": [
        {
          "internalType": "address",
          "name": "spender",
          "type": "address"
        },
        {
          "internalType": "uint256",
          "name": "addedValue",
          "type": "uint256"
        }
      ],
      "name": "increaseAllowance",
      "outputs": [
        {
          "internalType": "bool",
          "name": "",
          "type": "bool"
        }
      ],
      "stateMutability": "nonpayable",
      "type": "function"
    },
    {
      "inputs": [
        {
          "internalType": "address",
          "name": "_metaStocksCompanyAddress",
          "type": "address"
        },
        {
          "internalType": "address",
          "name": "_metaStocksFranchiseManagerAddress",
          "type": "address"
        }
      ],
      "name": "initialize",
      "outputs": [],
      "stateMutability": "nonpayable",
      "type": "function"
    },
    {
      "inputs": [
        {
          "internalType": "address",
          "name": "_account",
          "type": "address"
        }
      ],
      "name": "isCeo",
      "outputs": [
        {
          "internalType": "bool",
          "name": "",
          "type": "bool"
        }
      ],
      "stateMutability": "view",
      "type": "function"
    },
    {
      "inputs": [],
      "name": "name",
      "outputs": [
        {
          "internalType": "string",
          "name": "",
          "type": "string"
        }
      ],
      "stateMutability": "view",
      "type": "function"
    },
    {
      "inputs": [
        {
          "internalType": "address",
          "name": "",
          "type": "address"
        },
        {
          "internalType": "address",
          "name": "",
          "type": "address"
        },
        {
          "internalType": "uint256[]",
          "name": "",
          "type": "uint256[]"
        },
        {
          "internalType": "uint256[]",
          "name": "",
          "type": "uint256[]"
        },
        {
          "internalType": "bytes",
          "name": "",
          "type": "bytes"
        }
      ],
      "name": "onERC1155BatchReceived",
      "outputs": [
        {
          "internalType": "bytes4",
          "name": "",
          "type": "bytes4"
        }
      ],
      "stateMutability": "nonpayable",
      "type": "function"
    },
    {
      "inputs": [
        {
          "internalType": "address",
          "name": "",
          "type": "address"
        },
        {
          "internalType": "address",
          "name": "",
          "type": "address"
        },
        {
          "internalType": "uint256",
          "name": "",
          "type": "uint256"
        },
        {
          "internalType": "uint256",
          "name": "",
          "type": "uint256"
        },
        {
          "internalType": "bytes",
          "name": "",
          "type": "bytes"
        }
      ],
      "name": "onERC1155Received",
      "outputs": [
        {
          "internalType": "bytes4",
          "name": "",
          "type": "bytes4"
        }
      ],
      "stateMutability": "nonpayable",
      "type": "function"
    },
    {
      "inputs": [],
      "name": "owner",
      "outputs": [
        {
          "internalType": "address",
          "name": "",
          "type": "address"
        }
      ],
      "stateMutability": "view",
      "type": "function"
    },
    {
      "inputs": [],
      "name": "renounceOwnership",
      "outputs": [],
      "stateMutability": "nonpayable",
      "type": "function"
    },
    {
      "inputs": [
        {
          "internalType": "bytes4",
          "name": "interfaceId",
          "type": "bytes4"
        }
      ],
      "name": "supportsInterface",
      "outputs": [
        {
          "internalType": "bool",
          "name": "",
          "type": "bool"
        }
      ],
      "stateMutability": "view",
      "type": "function"
    },
    {
      "inputs": [],
      "name": "symbol",
      "outputs": [
        {
          "internalType": "string",
          "name": "",
          "type": "string"
        }
      ],
      "stateMutability": "view",
      "type": "function"
    },
    {
      "inputs": [],
      "name": "totalSupply",
      "outputs": [
        {
          "internalType": "uint256",
          "name": "",
          "type": "uint256"
        }
      ],
      "stateMutability": "view",
      "type": "function"
    },
    {
      "inputs": [
        {
          "internalType": "address",
          "name": "to",
          "type": "address"
        },
        {
          "internalType": "uint256",
          "name": "amount",
          "type": "uint256"
        }
      ],
      "name": "transfer",
      "outputs": [
        {
          "internalType": "bool",
          "name": "",
          "type": "bool"
        }
      ],
      "stateMutability": "nonpayable",
      "type": "function"
    },
    {
      "inputs": [
        {
          "internalType": "address",
          "name": "from",
          "type": "address"
        },
        {
          "internalType": "address",
          "name": "to",
          "type": "address"
        },
        {
          "internalType": "uint256",
          "name": "amount",
          "type": "uint256"
        }
      ],
      "name": "transferFrom",
      "outputs": [
        {
          "internalType": "bool",
          "name": "",
          "type": "bool"
        }
      ],
      "stateMutability": "nonpayable",
      "type": "function"
    },
    {
      "inputs": [
        {
          "internalType": "address",
          "name": "newOwner",
          "type": "address"
        }
      ],
      "name": "transferOwnership",
      "outputs": [],
      "stateMutability": "nonpayable",
      "type": "function"
    }
  ],
  "bytecode": "0x608060405234801561001057600080fd5b506117c7806100206000396000f3fe6080604052600436106101985760003560e01c80638da5cb5b116100e2578063dc8dccc611610085578063dc8dccc6146104c9578063dd62ed3e146104ff578063e3d1317a1461051f578063f23a6e6114610527578063f2fde38b14610553578063f446ab3f14610573578063f81a12d714610588578063ff0b9f8d146105b857600080fd5b80638da5cb5b1461038757806395d89b41146103ae578063a457c2d7146103c3578063a9059cbb146103e3578063bc08391714610403578063bc197c8114610439578063d6f343c51461047e578063d7f0cd85146104b457600080fd5b8063212030381161014a578063212030381461028b57806323b872dd146102b8578063313ce567146102d85780633945fd88146102f457806339509351146102fc578063485cc9551461031c57806370a082311461033c578063715018a61461037257600080fd5b806301ffc9a71461019d57806303717bbe146101d257806306fdde03146101e9578063095ea7b31461020b5780630e98caf21461022b5780631165e6ab1461023357806318160ddd1461026c575b600080fd5b3480156101a957600080fd5b506101bd6101b8366004611265565b6105cd565b60405190151581526020015b60405180910390f35b3480156101de57600080fd5b506101e76105de565b005b3480156101f557600080fd5b506101fe6106a9565b6040516101c99190611296565b34801561021757600080fd5b506101bd610226366004611302565b61073b565b6101e7610753565b34801561023f57600080fd5b506101bd61024e36600461132c565b6001600160a01b03166000908152609b602052604090205460ff1690565b34801561027857600080fd5b506035545b6040519081526020016101c9565b34801561029757600080fd5b5061027d6102a636600461132c565b60996020526000908152604090205481565b3480156102c457600080fd5b506101bd6102d3366004611347565b61085b565b3480156102e457600080fd5b50604051601281526020016101c9565b6101e761087f565b34801561030857600080fd5b506101bd610317366004611302565b610924565b34801561032857600080fd5b506101e7610337366004611383565b610946565b34801561034857600080fd5b5061027d61035736600461132c565b6001600160a01b031660009081526033602052604090205490565b34801561037e57600080fd5b506101e76109ea565b34801561039357600080fd5b506065546001600160a01b03165b6040516101c991906113b6565b3480156103ba57600080fd5b506101fe610a29565b3480156103cf57600080fd5b506101bd6103de366004611302565b610a38565b3480156103ef57600080fd5b506101bd6103fe366004611302565b610ab3565b34801561040f57600080fd5b506103a161041e3660046113ca565b609a602052600090815260409020546001600160a01b031681565b34801561044557600080fd5b5061046561045436600461151a565b63bc197c8160e01b95945050505050565b6040516001600160e01b031990911681526020016101c9565b34801561048a57600080fd5b5061027d61049936600461132c565b6001600160a01b031660009081526099602052604090205490565b3480156104c057600080fd5b5061027d610ac1565b3480156104d557600080fd5b506103a16104e43660046113ca565b6000908152609a60205260409020546001600160a01b031690565b34801561050b57600080fd5b5061027d61051a366004611383565b610b9f565b6101e7610bca565b34801561053357600080fd5b506104656105423660046115c4565b63f23a6e6160e01b95945050505050565b34801561055f57600080fd5b506101e761056e36600461132c565b610cdf565b34801561057f57600080fd5b5061027d610d7a565b34801561059457600080fd5b506101bd6105a336600461132c565b609b6020526000908152604090205460ff1681565b3480156105c457600080fd5b506101e7610db3565b60006105d882610deb565b92915050565b60985460405163d6f343c560e01b81526001600160a01b039091169063d43a5fb190309063d6f343c5906106169033906004016113b6565b602060405180830381865afa158015610633573d6000803e3d6000fd5b505050506040513d601f19601f820116820180604052508101906106579190611629565b6040518263ffffffff1660e01b815260040161067591815260200190565b600060405180830381600087803b15801561068f57600080fd5b505af11580156106a3573d6000803e3d6000fd5b50505050565b6060603680546106b890611642565b80601f01602080910402602001604051908101604052809291908181526020018280546106e490611642565b80156107315780601f1061070657610100808354040283529160200191610731565b820191906000526020600020905b81548152906001019060200180831161071457829003601f168201915b5050505050905090565b600033610749818585610e20565b5060019392505050565b336000908152609b602052604090205460ff166107be57306001600160a01b031663e3d1317a6040518163ffffffff1660e01b8152600401600060405180830381600087803b1580156107a557600080fd5b505af11580156107b9573d6000803e3d6000fd5b505050505b60985460405163d6f343c560e01b81526001600160a01b039091169063c9d8224d908290309063d6f343c5906107f89033906004016113b6565b602060405180830381865afa158015610815573d6000803e3d6000fd5b505050506040513d601f19601f820116820180604052508101906108399190611629565b6000806040518563ffffffff1660e01b8152600401610675949392919061167c565b600033610869858285610f44565b610874858585610fb8565b506001949350505050565b336000908152609b602052604090205460ff166108ea57306001600160a01b031663e3d1317a6040518163ffffffff1660e01b8152600401600060405180830381600087803b1580156108d157600080fd5b505af11580156108e5573d6000803e3d6000fd5b505050505b60985460405163d6f343c560e01b81526001600160a01b039091169063fbf3176f908290309063d6f343c5906107f89033906004016113b6565b6000336107498185856109378383610b9f565b61094191906116dd565b610e20565b60006109526001611186565b9050801561096a576000805461ff0019166101001790555b609780546001600160a01b038086166001600160a01b03199283161790925560988054928516929091169190911790556000609c5580156109e5576000805461ff0019169055604051600181527f7f26b83ff96e1f2b6a682f133852f6798a09c465da95921460cefb38474024989060200160405180910390a15b505050565b6065546001600160a01b03163314610a1d5760405162461bcd60e51b8152600401610a14906116f5565b60405180910390fd5b610a276000611213565b565b6060603780546106b890611642565b60003381610a468286610b9f565b905083811015610aa65760405162461bcd60e51b815260206004820152602560248201527f45524332303a2064656372656173656420616c6c6f77616e63652062656c6f77604482015264207a65726f60d81b6064820152608401610a14565b6108748286868403610e20565b600033610749818585610fb8565b60985460405163d6f343c560e01b81526000916001600160a01b03169063f3d8bc3c90309063d6f343c590610afa9033906004016113b6565b602060405180830381865afa158015610b17573d6000803e3d6000fd5b505050506040513d601f19601f82011682018060405250810190610b3b9190611629565b6040518263ffffffff1660e01b8152600401610b5991815260200190565b602060405180830381865afa158015610b76573d6000803e3d6000fd5b505050506040513d601f19601f82011682018060405250810190610b9a9190611629565b905090565b6001600160a01b03918216600090815260346020908152604080832093909416825291909152205490565b6097546040516340d097c360e01b81526000916001600160a01b0316906340d097c390610bfb9033906004016113b6565b6020604051808303816000875af1158015610c1a573d6000803e3d6000fd5b505050506040513d601f19601f82011682018060405250810190610c3e9190611629565b336000818152609960209081526040808320859055848352609a825280832080546001600160a01b03191685179055928252609b9052908120805460ff19166001179055609c805492935090610c938361172a565b9091555050336000818152609960209081526040918290205491519182527fe38265a604917a38d3b0f82f061e30793a578a7181d8b0d880e84ec70b0da81a910160405180910390a250565b6065546001600160a01b03163314610d095760405162461bcd60e51b8152600401610a14906116f5565b6001600160a01b038116610d6e5760405162461bcd60e51b815260206004820152602660248201527f4f776e61626c653a206e6577206f776e657220697320746865207a65726f206160448201526564647265737360d01b6064820152608401610a14565b610d7781611213565b50565b60985460405163d6f343c560e01b81526000916001600160a01b0316906340f1b93890309063d6f343c590610afa9033906004016113b6565b60985460405163d6f343c560e01b81526001600160a01b03909116906399dc7d9c90309063d6f343c5906106169033906004016113b6565b60006001600160e01b03198216630271189760e51b14806105d857506301ffc9a760e01b6001600160e01b03198316146105d8565b6001600160a01b038316610e825760405162461bcd60e51b8152602060048201526024808201527f45524332303a20617070726f76652066726f6d20746865207a65726f206164646044820152637265737360e01b6064820152608401610a14565b6001600160a01b038216610ee35760405162461bcd60e51b815260206004820152602260248201527f45524332303a20617070726f766520746f20746865207a65726f206164647265604482015261737360f01b6064820152608401610a14565b6001600160a01b0383811660008181526034602090815260408083209487168084529482529182902085905590518481527f8c5be1e5ebec7d5bd14f71427d1e84f3dd0314c0f7b2291e5b200ac8c7c3b925910160405180910390a3505050565b6000610f508484610b9f565b905060001981146106a35781811015610fab5760405162461bcd60e51b815260206004820152601d60248201527f45524332303a20696e73756666696369656e7420616c6c6f77616e63650000006044820152606401610a14565b6106a38484848403610e20565b6001600160a01b03831661101c5760405162461bcd60e51b815260206004820152602560248201527f45524332303a207472616e736665722066726f6d20746865207a65726f206164604482015264647265737360d81b6064820152608401610a14565b6001600160a01b03821661107e5760405162461bcd60e51b815260206004820152602360248201527f45524332303a207472616e7366657220746f20746865207a65726f206164647260448201526265737360e81b6064820152608401610a14565b6001600160a01b038316600090815260336020526040902054818110156110f65760405162461bcd60e51b815260206004820152602660248201527f45524332303a207472616e7366657220616d6f756e7420657863656564732062604482015265616c616e636560d01b6064820152608401610a14565b6001600160a01b0380851660009081526033602052604080822085850390559185168152908120805484929061112d9084906116dd565b92505081905550826001600160a01b0316846001600160a01b03167fddf252ad1be2c89b69c2b068fc378daa952ba7f163c4a11628f55a4df523b3ef8460405161117991815260200190565b60405180910390a36106a3565b60008054610100900460ff16156111cd578160ff1660011480156111a95750303b155b6111c55760405162461bcd60e51b8152600401610a1490611743565b506000919050565b60005460ff8084169116106111f45760405162461bcd60e51b8152600401610a1490611743565b506000805460ff191660ff92909216919091179055600190565b919050565b606580546001600160a01b038381166001600160a01b0319831681179093556040519116919082907f8be0079c531659141344cd1fd0a4f28419497f9722a3daafe3b4186f6b6457e090600090a35050565b60006020828403121561127757600080fd5b81356001600160e01b03198116811461128f57600080fd5b9392505050565b600060208083528351808285015260005b818110156112c3578581018301518582016040015282016112a7565b818111156112d5576000604083870101525b50601f01601f1916929092016040019392505050565b80356001600160a01b038116811461120e57600080fd5b6000806040838503121561131557600080fd5b61131e836112eb565b946020939093013593505050565b60006020828403121561133e57600080fd5b61128f826112eb565b60008060006060848603121561135c57600080fd5b611365846112eb565b9250611373602085016112eb565b9150604084013590509250925092565b6000806040838503121561139657600080fd5b61139f836112eb565b91506113ad602084016112eb565b90509250929050565b6001600160a01b0391909116815260200190565b6000602082840312156113dc57600080fd5b5035919050565b634e487b7160e01b600052604160045260246000fd5b604051601f8201601f1916810167ffffffffffffffff81118282101715611422576114226113e3565b604052919050565b600082601f83011261143b57600080fd5b8135602067ffffffffffffffff821115611457576114576113e3565b8160051b6114668282016113f9565b928352848101820192828101908785111561148057600080fd5b83870192505b8483101561149f57823582529183019190830190611486565b979650505050505050565b600082601f8301126114bb57600080fd5b813567ffffffffffffffff8111156114d5576114d56113e3565b6114e8601f8201601f19166020016113f9565b8181528460208386010111156114fd57600080fd5b816020850160208301376000918101602001919091529392505050565b600080600080600060a0868803121561153257600080fd5b61153b866112eb565b9450611549602087016112eb565b9350604086013567ffffffffffffffff8082111561156657600080fd5b61157289838a0161142a565b9450606088013591508082111561158857600080fd5b61159489838a0161142a565b935060808801359150808211156115aa57600080fd5b506115b7888289016114aa565b9150509295509295909350565b600080600080600060a086880312156115dc57600080fd5b6115e5866112eb565b94506115f3602087016112eb565b93506040860135925060608601359150608086013567ffffffffffffffff81111561161d57600080fd5b6115b7888289016114aa565b60006020828403121561163b57600080fd5b5051919050565b600181811c9082168061165657607f821691505b60208210810361167657634e487b7160e01b600052602260045260246000fd5b50919050565b6001600160a01b0385168152602081018490526040810183905260808101601a83106116b857634e487b7160e01b600052602160045260246000fd5b82606083015295945050505050565b634e487b7160e01b600052601160045260246000fd5b600082198211156116f0576116f06116c7565b500190565b6020808252818101527f4f776e61626c653a2063616c6c6572206973206e6f7420746865206f776e6572604082015260600190565b60006001820161173c5761173c6116c7565b5060010190565b6020808252602e908201527f496e697469616c697a61626c653a20636f6e747261637420697320616c72656160408201526d191e481a5b9a5d1a585b1a5e995960921b60608201526080019056fea2646970667358221220dac5fb1301a464881b459f5ef68ba268e3b19b1b47428b4d1e8e9dda0f95176064736f6c634300080e0033",
  "linkReferences": {},
  "deployedLinkReferences": {}
}