{
  "_format": "hh-sol-artifact-1",
  "contractName": "MetaStocksFranchiseManager",
  "sourceName": "contracts/managers/metastocks/MetaStocksFranchiseManager.sol",
  "abi": [
    {
      "anonymous": false,
      "inputs": [
        {
          "indexed": true,
          "internalType": "address",
          "name": "owner",
          "type": "address"
        },
        {
          "indexed": true,
          "internalType": "address",
          "name": "spender",
          "type": "address"
        },
        {
          "indexed": false,
          "internalType": "uint256",
          "name": "value",
          "type": "uint256"
        }
      ],
      "name": "Approval",
      "type": "event"
    },
    {
      "anonymous": false,
      "inputs": [
        {
          "indexed": false,
          "internalType": "uint8",
          "name": "version",
          "type": "uint8"
        }
      ],
      "name": "Initialized",
      "type": "event"
    },
    {
      "anonymous": false,
      "inputs": [
        {
          "indexed": true,
          "internalType": "address",
          "name": "previousOwner",
          "type": "address"
        },
        {
          "indexed": true,
          "internalType": "address",
          "name": "newOwner",
          "type": "address"
        }
      ],
      "name": "OwnershipTransferred",
      "type": "event"
    },
    {
      "anonymous": false,
      "inputs": [
        {
          "indexed": true,
          "internalType": "address",
          "name": "from",
          "type": "address"
        },
        {
          "indexed": true,
          "internalType": "address",
          "name": "to",
          "type": "address"
        },
        {
          "indexed": false,
          "internalType": "uint256",
          "name": "value",
          "type": "uint256"
        }
      ],
      "name": "Transfer",
      "type": "event"
    },
    {
      "inputs": [
        {
          "internalType": "address",
          "name": "owner",
          "type": "address"
        },
        {
          "internalType": "address",
          "name": "spender",
          "type": "address"
        }
      ],
      "name": "allowance",
      "outputs": [
        {
          "internalType": "uint256",
          "name": "",
          "type": "uint256"
        }
      ],
      "stateMutability": "view",
      "type": "function"
    },
    {
      "inputs": [
        {
          "internalType": "address",
          "name": "spender",
          "type": "address"
        },
        {
          "internalType": "uint256",
          "name": "amount",
          "type": "uint256"
        }
      ],
      "name": "approve",
      "outputs": [
        {
          "internalType": "bool",
          "name": "",
          "type": "bool"
        }
      ],
      "stateMutability": "nonpayable",
      "type": "function"
    },
    {
      "inputs": [
        {
          "internalType": "address",
          "name": "account",
          "type": "address"
        }
      ],
      "name": "balanceOf",
      "outputs": [
        {
          "internalType": "uint256",
          "name": "",
          "type": "uint256"
        }
      ],
      "stateMutability": "view",
      "type": "function"
    },
    {
      "inputs": [
        {
          "internalType": "uint256",
          "name": "_companyId",
          "type": "uint256"
        }
      ],
      "name": "claimFromAllFranchises",
      "outputs": [],
      "stateMutability": "nonpayable",
      "type": "function"
    },
    {
      "inputs": [
        {
          "internalType": "uint256",
          "name": "",
          "type": "uint256"
        },
        {
          "internalType": "uint256",
          "name": "",
          "type": "uint256"
        }
      ],
      "name": "companyFranchises",
      "outputs": [
        {
          "internalType": "uint256",
          "name": "",
          "type": "uint256"
        }
      ],
      "stateMutability": "view",
      "type": "function"
    },
    {
      "inputs": [
        {
          "internalType": "address",
          "name": "to",
          "type": "address"
        },
        {
          "internalType": "uint256",
          "name": "companyId",
          "type": "uint256"
        },
        {
          "internalType": "enum MetaStocksFranchiseType",
          "name": "_metaStocksFranchiseType",
          "type": "uint8"
        },
        {
          "internalType": "bytes",
          "name": "data",
          "type": "bytes"
        }
      ],
      "name": "createMetaStocksFranchise",
      "outputs": [],
      "stateMutability": "nonpayable",
      "type": "function"
    },
    {
      "inputs": [],
      "name": "decimals",
      "outputs": [
        {
          "internalType": "uint8",
          "name": "",
          "type": "uint8"
        }
      ],
      "stateMutability": "view",
      "type": "function"
    },
    {
      "inputs": [
        {
          "internalType": "address",
          "name": "spender",
          "type": "address"
        },
        {
          "internalType": "uint256",
          "name": "subtractedValue",
          "type": "uint256"
        }
      ],
      "name": "decreaseAllowance",
      "outputs": [
        {
          "internalType": "bool",
          "name": "",
          "type": "bool"
        }
      ],
      "stateMutability": "nonpayable",
      "type": "function"
    },
    {
      "inputs": [
        {
          "internalType": "uint256",
          "name": "",
          "type": "uint256"
        },
        {
          "internalType": "uint256",
          "name": "",
          "type": "uint256"
        }
      ],
      "name": "franchisesLastClaimDates",
      "outputs": [
        {
          "internalType": "uint256",
          "name": "",
          "type": "uint256"
        }
      ],
      "stateMutability": "view",
      "type": "function"
    },
    {
      "inputs": [],
      "name": "getCreateFranchisePrice",
      "outputs": [
        {
          "internalType": "uint256",
          "name": "",
          "type": "uint256"
        }
      ],
      "stateMutability": "view",
      "type": "function"
    },
    {
      "inputs": [],
      "name": "getFranchiseDailyEarnings",
      "outputs": [
        {
          "internalType": "uint256",
          "name": "",
          "type": "uint256"
        }
      ],
      "stateMutability": "view",
      "type": "function"
    },
    {
      "inputs": [],
      "name": "getFranchiseValue",
      "outputs": [
        {
          "internalType": "uint256",
          "name": "",
          "type": "uint256"
        }
      ],
      "stateMutability": "view",
      "type": "function"
    },
    {
      "inputs": [],
      "name": "getMaintainceFranchiseExpenses",
      "outputs": [
        {
          "internalType": "uint256",
          "name": "",
          "type": "uint256"
        }
      ],
      "stateMutability": "view",
      "type": "function"
    },
    {
      "inputs": [
        {
          "internalType": "uint256",
          "name": "companyId",
          "type": "uint256"
        }
      ],
      "name": "getMetaStocksFranchisesUnclaimedRewards",
      "outputs": [
        {
          "internalType": "uint256",
          "name": "",
          "type": "uint256"
        }
      ],
      "stateMutability": "view",
      "type": "function"
    },
    {
      "inputs": [
        {
          "internalType": "uint256",
          "name": "companyId",
          "type": "uint256"
        }
      ],
      "name": "getNumberOfMetaStocksFranchises",
      "outputs": [
        {
          "internalType": "uint256",
          "name": "",
          "type": "uint256"
        }
      ],
      "stateMutability": "view",
      "type": "function"
    },
    {
      "inputs": [],
      "name": "getPaymentTokenAddress",
      "outputs": [
        {
          "internalType": "address",
          "name": "",
          "type": "address"
        }
      ],
      "stateMutability": "view",
      "type": "function"
    },
    {
      "inputs": [
        {
          "internalType": "address",
          "name": "spender",
          "type": "address"
        },
        {
          "internalType": "uint256",
          "name": "addedValue",
          "type": "uint256"
        }
      ],
      "name": "increaseAllowance",
      "outputs": [
        {
          "internalType": "bool",
          "name": "",
          "type": "bool"
        }
      ],
      "stateMutability": "nonpayable",
      "type": "function"
    },
    {
      "inputs": [
        {
          "internalType": "address",
          "name": "_metaStocksFranchiseAddress",
          "type": "address"
        }
      ],
      "name": "initialize",
      "outputs": [],
      "stateMutability": "nonpayable",
      "type": "function"
    },
    {
      "inputs": [
        {
          "internalType": "uint256",
          "name": "",
          "type": "uint256"
        }
      ],
      "name": "lastFranchiseClaimDate",
      "outputs": [
        {
          "internalType": "uint256",
          "name": "",
          "type": "uint256"
        }
      ],
      "stateMutability": "view",
      "type": "function"
    },
    {
      "inputs": [],
      "name": "name",
      "outputs": [
        {
          "internalType": "string",
          "name": "",
          "type": "string"
        }
      ],
      "stateMutability": "view",
      "type": "function"
    },
    {
      "inputs": [
        {
          "internalType": "address",
          "name": "",
          "type": "address"
        },
        {
          "internalType": "address",
          "name": "",
          "type": "address"
        },
        {
          "internalType": "uint256[]",
          "name": "",
          "type": "uint256[]"
        },
        {
          "internalType": "uint256[]",
          "name": "",
          "type": "uint256[]"
        },
        {
          "internalType": "bytes",
          "name": "",
          "type": "bytes"
        }
      ],
      "name": "onERC1155BatchReceived",
      "outputs": [
        {
          "internalType": "bytes4",
          "name": "",
          "type": "bytes4"
        }
      ],
      "stateMutability": "nonpayable",
      "type": "function"
    },
    {
      "inputs": [
        {
          "internalType": "address",
          "name": "",
          "type": "address"
        },
        {
          "internalType": "address",
          "name": "",
          "type": "address"
        },
        {
          "internalType": "uint256",
          "name": "",
          "type": "uint256"
        },
        {
          "internalType": "uint256",
          "name": "",
          "type": "uint256"
        },
        {
          "internalType": "bytes",
          "name": "",
          "type": "bytes"
        }
      ],
      "name": "onERC1155Received",
      "outputs": [
        {
          "internalType": "bytes4",
          "name": "",
          "type": "bytes4"
        }
      ],
      "stateMutability": "nonpayable",
      "type": "function"
    },
    {
      "inputs": [],
      "name": "owner",
      "outputs": [
        {
          "internalType": "address",
          "name": "",
          "type": "address"
        }
      ],
      "stateMutability": "view",
      "type": "function"
    },
    {
      "inputs": [],
      "name": "renounceOwnership",
      "outputs": [],
      "stateMutability": "nonpayable",
      "type": "function"
    },
    {
      "inputs": [],
      "name": "self",
      "outputs": [
        {
          "internalType": "address",
          "name": "",
          "type": "address"
        }
      ],
      "stateMutability": "view",
      "type": "function"
    },
    {
      "inputs": [
        {
          "internalType": "uint16",
          "name": "_createFranchisePrice",
          "type": "uint16"
        }
      ],
      "name": "setCreateFranchisePrice",
      "outputs": [],
      "stateMutability": "nonpayable",
      "type": "function"
    },
    {
      "inputs": [
        {
          "internalType": "uint16",
          "name": "_franchiseDailyEarnings",
          "type": "uint16"
        }
      ],
      "name": "setFranchiseDailyEarnings",
      "outputs": [],
      "stateMutability": "nonpayable",
      "type": "function"
    },
    {
      "inputs": [
        {
          "internalType": "uint16",
          "name": "_maintainceFranchiseExpenses",
          "type": "uint16"
        }
      ],
      "name": "setMaintainceFranchiseExpenses",
      "outputs": [],
      "stateMutability": "nonpayable",
      "type": "function"
    },
    {
      "inputs": [
        {
          "internalType": "address",
          "name": "_paymentTokenAddress",
          "type": "address"
        }
      ],
      "name": "setPaymentTokenAddress",
      "outputs": [],
      "stateMutability": "nonpayable",
      "type": "function"
    },
    {
      "inputs": [
        {
          "internalType": "bytes4",
          "name": "interfaceId",
          "type": "bytes4"
        }
      ],
      "name": "supportsInterface",
      "outputs": [
        {
          "internalType": "bool",
          "name": "",
          "type": "bool"
        }
      ],
      "stateMutability": "view",
      "type": "function"
    },
    {
      "inputs": [],
      "name": "symbol",
      "outputs": [
        {
          "internalType": "string",
          "name": "",
          "type": "string"
        }
      ],
      "stateMutability": "view",
      "type": "function"
    },
    {
      "inputs": [],
      "name": "totalSupply",
      "outputs": [
        {
          "internalType": "uint256",
          "name": "",
          "type": "uint256"
        }
      ],
      "stateMutability": "view",
      "type": "function"
    },
    {
      "inputs": [
        {
          "internalType": "address",
          "name": "to",
          "type": "address"
        },
        {
          "internalType": "uint256",
          "name": "amount",
          "type": "uint256"
        }
      ],
      "name": "transfer",
      "outputs": [
        {
          "internalType": "bool",
          "name": "",
          "type": "bool"
        }
      ],
      "stateMutability": "nonpayable",
      "type": "function"
    },
    {
      "inputs": [
        {
          "internalType": "address",
          "name": "from",
          "type": "address"
        },
        {
          "internalType": "address",
          "name": "to",
          "type": "address"
        },
        {
          "internalType": "uint256",
          "name": "amount",
          "type": "uint256"
        }
      ],
      "name": "transferFrom",
      "outputs": [
        {
          "internalType": "bool",
          "name": "",
          "type": "bool"
        }
      ],
      "stateMutability": "nonpayable",
      "type": "function"
    },
    {
      "inputs": [
        {
          "internalType": "address",
          "name": "newOwner",
          "type": "address"
        }
      ],
      "name": "transferOwnership",
      "outputs": [],
      "stateMutability": "nonpayable",
      "type": "function"
    }
  ],
  "bytecode": "0x608060405234801561001057600080fd5b50611759806100206000396000f3fe608060405234801561001057600080fd5b50600436106101d15760003560e01c806395d89b4111610105578063bc197c811161009d578063bc197c81146103e1578063be154d2b14610419578063c4d66de814610430578063c56956ce14610443578063dcb98f7e14610463578063dd62ed3e14610476578063dea182c114610489578063f23a6e611461049a578063f2fde38b146104b957600080fd5b806395d89b411461032b57806399dc7d9c146103335780639d58f3e0146102b45780639e201466146103465780639f2e747f1461035d578063a457c2d714610365578063a4db7d1514610378578063a9059cbb146103a3578063b5ea8945146103b657600080fd5b8063313ce56711610178578063313ce5671461027f578063395093511461028e57806340f1b938146102a157806344716080146102b457806370a08231146102bc5780637104ddb2146102e5578063715018a6146102ff5780637d9614d9146103075780638da5cb5b1461031a57600080fd5b806301ffc9a7146101d657806306fdde03146101fe578063095ea7b31461021357806318160ddd1461022657806323b872dd14610238578063252d725c1461024b5780632a5bb068146102605780632c602e5b14610277575b600080fd5b6101e96101e436600461109a565b6104cc565b60405190151581526020015b60405180910390f35b6102066104dd565b6040516101f59190611118565b6101e9610221366004611142565b61056f565b6035545b6040519081526020016101f5565b6101e961024636600461116c565b610587565b61025e61025936600461125f565b6105ab565b005b61025e61026e3660046112cd565b61ffff16609a55565b60995461022a565b604051601281526020016101f5565b6101e961029c366004611142565b610753565b61022a6102af3660046112f1565b610775565b609b5461022a565b61022a6102ca36600461130a565b6001600160a01b031660009081526033602052604090205490565b305b6040516001600160a01b0390911681526020016101f5565b61025e61081f565b61022a6103153660046112f1565b61085e565b6065546001600160a01b03166102e7565b6102066108a4565b61025e6103413660046112f1565b6108b3565b61025e6103543660046112cd565b61ffff16609b55565b609a5461022a565b6101e9610373366004611142565b610976565b61022a610386366004611325565b609f60209081526000928352604080842090915290825290205481565b6101e96103b1366004611142565b6109f1565b61022a6103c4366004611325565b60a060209081526000928352604080842090915290825290205481565b6104006103ef3660046113c7565b63bc197c8160e01b95945050505050565b6040516001600160e01b031990911681526020016101f5565b61025e6104273660046112cd565b61ffff16609955565b61025e61043e36600461130a565b6109ff565b61022a6104513660046112f1565b609e6020526000908152604090205481565b61025e61047136600461130a565b610abe565b61022a610484366004611471565b610b54565b609d546001600160a01b03166102e7565b6104006104a83660046114a4565b63f23a6e6160e01b95945050505050565b61025e6104c736600461130a565b610b7f565b60006104d782610c1a565b92915050565b6060603680546104ec90611509565b80601f016020809104026020016040519081016040528092919081815260200182805461051890611509565b80156105655780601f1061053a57610100808354040283529160200191610565565b820191906000526020600020905b81548152906001019060200180831161054857829003601f168201915b5050505050905090565b60003361057d818585610c4f565b5060019392505050565b600033610595858285610d73565b6105a0858585610ded565b506001949350505050565b609d546099546040516323b872dd60e01b81526001600160a01b03909216916323b872dd916105e09133913091600401611543565b6020604051808303816000875af11580156105ff573d6000803e3d6000fd5b505050506040513d601f19601f820116820180604052508101906106239190611567565b506097546040516370d8209160e11b81526000916001600160a01b03169063e1b0412290610655908690600401611589565b602060405180830381865afa158015610672573d6000803e3d6000fd5b505050506040513d601f19601f8201168201806040525081019061069691906115b1565b60975460405163731133e960e01b81529192506001600160a01b03169063731133e9906106ce908890859060019088906004016115ca565b600060405180830381600087803b1580156106e857600080fd5b505af11580156106fc573d6000803e3d6000fd5b5050506000858152609f60209081526040808320858452909152812080546001935090919061072c908490611617565b9091555050600093845260a060209081526040808620928652919052909220429055505050565b60003361057d8185856107668383610b54565b6107709190611617565b610c4f565b600080805b600a811015610818576000848152609f60209081526040808320848452909152812054905b8181101561080357609c54609b54600088815260a0602090815260408083208784529091529020546107d1904261162f565b6107db9190611646565b6107e59190611665565b6107ef9085611617565b9350806107fb81611687565b91505061079f565b5050808061081090611687565b91505061077a565b5092915050565b6065546001600160a01b031633146108525760405162461bcd60e51b8152600401610849906116a0565b60405180910390fd5b61085c6000610fbb565b565b600080805b600a811015610818576000848152609f602090815260408083208484529091529020546108909083611617565b91508061089c81611687565b915050610863565b6060603780546104ec90611509565b60006108be82610775565b609d546040516323b872dd60e01b81529192506001600160a01b0316906323b872dd906108f390309033908690600401611543565b6020604051808303816000875af1158015610912573d6000803e3d6000fd5b505050506040513d601f19601f820116820180604052508101906109369190611567565b5060005b600a81101561097157600083815260a06020908152604080832084845290915290204290558061096981611687565b91505061093a565b505050565b600033816109848286610b54565b9050838110156109e45760405162461bcd60e51b815260206004820152602560248201527f45524332303a2064656372656173656420616c6c6f77616e63652062656c6f77604482015264207a65726f60d81b6064820152608401610849565b6105a08286868403610c4f565b60003361057d818585610ded565b6000610a0b600161100d565b90508015610a23576000805461ff0019166101001790555b68056bc75e2d63100000609955678ac7230489e80000609b55670de0b6b3a7640000609a55600a609c55609d80546001600160a01b0319908116909155609780549091166001600160a01b0384161790558015610aba576000805461ff0019169055604051600181527f7f26b83ff96e1f2b6a682f133852f6798a09c465da95921460cefb38474024989060200160405180910390a15b5050565b609d80546001600160a01b0319166001600160a01b03831690811790915563095ea7b3306040516001600160e01b031960e084901b1681526001600160a01b03909116600482015260001960248201526044016020604051808303816000875af1158015610b30573d6000803e3d6000fd5b505050506040513d601f19601f82011682018060405250810190610aba9190611567565b6001600160a01b03918216600090815260346020908152604080832093909416825291909152205490565b6065546001600160a01b03163314610ba95760405162461bcd60e51b8152600401610849906116a0565b6001600160a01b038116610c0e5760405162461bcd60e51b815260206004820152602660248201527f4f776e61626c653a206e6577206f776e657220697320746865207a65726f206160448201526564647265737360d01b6064820152608401610849565b610c1781610fbb565b50565b60006001600160e01b03198216630271189760e51b14806104d757506301ffc9a760e01b6001600160e01b03198316146104d7565b6001600160a01b038316610cb15760405162461bcd60e51b8152602060048201526024808201527f45524332303a20617070726f76652066726f6d20746865207a65726f206164646044820152637265737360e01b6064820152608401610849565b6001600160a01b038216610d125760405162461bcd60e51b815260206004820152602260248201527f45524332303a20617070726f766520746f20746865207a65726f206164647265604482015261737360f01b6064820152608401610849565b6001600160a01b0383811660008181526034602090815260408083209487168084529482529182902085905590518481527f8c5be1e5ebec7d5bd14f71427d1e84f3dd0314c0f7b2291e5b200ac8c7c3b925910160405180910390a3505050565b6000610d7f8484610b54565b90506000198114610de75781811015610dda5760405162461bcd60e51b815260206004820152601d60248201527f45524332303a20696e73756666696369656e7420616c6c6f77616e63650000006044820152606401610849565b610de78484848403610c4f565b50505050565b6001600160a01b038316610e515760405162461bcd60e51b815260206004820152602560248201527f45524332303a207472616e736665722066726f6d20746865207a65726f206164604482015264647265737360d81b6064820152608401610849565b6001600160a01b038216610eb35760405162461bcd60e51b815260206004820152602360248201527f45524332303a207472616e7366657220746f20746865207a65726f206164647260448201526265737360e81b6064820152608401610849565b6001600160a01b03831660009081526033602052604090205481811015610f2b5760405162461bcd60e51b815260206004820152602660248201527f45524332303a207472616e7366657220616d6f756e7420657863656564732062604482015265616c616e636560d01b6064820152608401610849565b6001600160a01b03808516600090815260336020526040808220858503905591851681529081208054849290610f62908490611617565b92505081905550826001600160a01b0316846001600160a01b03167fddf252ad1be2c89b69c2b068fc378daa952ba7f163c4a11628f55a4df523b3ef84604051610fae91815260200190565b60405180910390a3610de7565b606580546001600160a01b038381166001600160a01b0319831681179093556040519116919082907f8be0079c531659141344cd1fd0a4f28419497f9722a3daafe3b4186f6b6457e090600090a35050565b60008054610100900460ff1615611054578160ff1660011480156110305750303b155b61104c5760405162461bcd60e51b8152600401610849906116d5565b506000919050565b60005460ff80841691161061107b5760405162461bcd60e51b8152600401610849906116d5565b506000805460ff191660ff92909216919091179055600190565b919050565b6000602082840312156110ac57600080fd5b81356001600160e01b0319811681146110c457600080fd5b9392505050565b6000815180845260005b818110156110f1576020818501810151868301820152016110d5565b81811115611103576000602083870101525b50601f01601f19169290920160200192915050565b6020815260006110c460208301846110cb565b80356001600160a01b038116811461109557600080fd5b6000806040838503121561115557600080fd5b61115e8361112b565b946020939093013593505050565b60008060006060848603121561118157600080fd5b61118a8461112b565b92506111986020850161112b565b9150604084013590509250925092565b634e487b7160e01b600052604160045260246000fd5b604051601f8201601f1916810167ffffffffffffffff811182821017156111e7576111e76111a8565b604052919050565b600082601f83011261120057600080fd5b813567ffffffffffffffff81111561121a5761121a6111a8565b61122d601f8201601f19166020016111be565b81815284602083860101111561124257600080fd5b816020850160208301376000918101602001919091529392505050565b6000806000806080858703121561127557600080fd5b61127e8561112b565b9350602085013592506040850135600a811061129957600080fd5b9150606085013567ffffffffffffffff8111156112b557600080fd5b6112c1878288016111ef565b91505092959194509250565b6000602082840312156112df57600080fd5b813561ffff811681146110c457600080fd5b60006020828403121561130357600080fd5b5035919050565b60006020828403121561131c57600080fd5b6110c48261112b565b6000806040838503121561133857600080fd5b50508035926020909101359150565b600082601f83011261135857600080fd5b8135602067ffffffffffffffff821115611374576113746111a8565b8160051b6113838282016111be565b928352848101820192828101908785111561139d57600080fd5b83870192505b848310156113bc578235825291830191908301906113a3565b979650505050505050565b600080600080600060a086880312156113df57600080fd5b6113e88661112b565b94506113f66020870161112b565b9350604086013567ffffffffffffffff8082111561141357600080fd5b61141f89838a01611347565b9450606088013591508082111561143557600080fd5b61144189838a01611347565b9350608088013591508082111561145757600080fd5b50611464888289016111ef565b9150509295509295909350565b6000806040838503121561148457600080fd5b61148d8361112b565b915061149b6020840161112b565b90509250929050565b600080600080600060a086880312156114bc57600080fd5b6114c58661112b565b94506114d36020870161112b565b93506040860135925060608601359150608086013567ffffffffffffffff8111156114fd57600080fd5b611464888289016111ef565b600181811c9082168061151d57607f821691505b60208210810361153d57634e487b7160e01b600052602260045260246000fd5b50919050565b6001600160a01b039384168152919092166020820152604081019190915260600190565b60006020828403121561157957600080fd5b815180151581146110c457600080fd5b60208101600a83106115ab57634e487b7160e01b600052602160045260246000fd5b91905290565b6000602082840312156115c357600080fd5b5051919050565b60018060a01b03851681528360208201528260408201526080606082015260006115f760808301846110cb565b9695505050505050565b634e487b7160e01b600052601160045260246000fd5b6000821982111561162a5761162a611601565b500190565b60008282101561164157611641611601565b500390565b600081600019048311821515161561166057611660611601565b500290565b60008261168257634e487b7160e01b600052601260045260246000fd5b500490565b60006001820161169957611699611601565b5060010190565b6020808252818101527f4f776e61626c653a2063616c6c6572206973206e6f7420746865206f776e6572604082015260600190565b6020808252602e908201527f496e697469616c697a61626c653a20636f6e747261637420697320616c72656160408201526d191e481a5b9a5d1a585b1a5e995960921b60608201526080019056fea2646970667358221220aeae524bd409fb0c8a1e7707a7cc8b03e88c699df3bd7a2339c352218484f03664736f6c634300080e0033",
  "linkReferences": {},
  "deployedLinkReferences": {}
}