{
  "_format": "hh-sol-artifact-1",
  "contractName": "MetaStocksFranchiseManager",
  "sourceName": "contracts/managers/metastocks/MetaStocksFranchiseManager.sol",
  "abi": [
    {
      "anonymous": false,
      "inputs": [
        {
          "indexed": true,
          "internalType": "address",
          "name": "owner",
          "type": "address"
        },
        {
          "indexed": true,
          "internalType": "address",
          "name": "spender",
          "type": "address"
        },
        {
          "indexed": false,
          "internalType": "uint256",
          "name": "value",
          "type": "uint256"
        }
      ],
      "name": "Approval",
      "type": "event"
    },
    {
      "anonymous": false,
      "inputs": [
        {
          "indexed": true,
          "internalType": "address",
          "name": "account",
          "type": "address"
        },
        {
          "indexed": false,
          "internalType": "uint256",
          "name": "companyId",
          "type": "uint256"
        },
        {
          "indexed": false,
          "internalType": "uint256",
          "name": "franchiseType",
          "type": "uint256"
        }
      ],
      "name": "CreateFranchise",
      "type": "event"
    },
    {
      "anonymous": false,
      "inputs": [
        {
          "indexed": false,
          "internalType": "uint8",
          "name": "version",
          "type": "uint8"
        }
      ],
      "name": "Initialized",
      "type": "event"
    },
    {
      "anonymous": false,
      "inputs": [
        {
          "indexed": true,
          "internalType": "address",
          "name": "previousOwner",
          "type": "address"
        },
        {
          "indexed": true,
          "internalType": "address",
          "name": "newOwner",
          "type": "address"
        }
      ],
      "name": "OwnershipTransferred",
      "type": "event"
    },
    {
      "anonymous": false,
      "inputs": [
        {
          "indexed": true,
          "internalType": "address",
          "name": "from",
          "type": "address"
        },
        {
          "indexed": true,
          "internalType": "address",
          "name": "to",
          "type": "address"
        },
        {
          "indexed": false,
          "internalType": "uint256",
          "name": "value",
          "type": "uint256"
        }
      ],
      "name": "Transfer",
      "type": "event"
    },
    {
      "inputs": [
        {
          "internalType": "address",
          "name": "owner",
          "type": "address"
        },
        {
          "internalType": "address",
          "name": "spender",
          "type": "address"
        }
      ],
      "name": "allowance",
      "outputs": [
        {
          "internalType": "uint256",
          "name": "",
          "type": "uint256"
        }
      ],
      "stateMutability": "view",
      "type": "function"
    },
    {
      "inputs": [
        {
          "internalType": "address",
          "name": "spender",
          "type": "address"
        },
        {
          "internalType": "uint256",
          "name": "amount",
          "type": "uint256"
        }
      ],
      "name": "approve",
      "outputs": [
        {
          "internalType": "bool",
          "name": "",
          "type": "bool"
        }
      ],
      "stateMutability": "nonpayable",
      "type": "function"
    },
    {
      "inputs": [
        {
          "internalType": "address",
          "name": "account",
          "type": "address"
        }
      ],
      "name": "balanceOf",
      "outputs": [
        {
          "internalType": "uint256",
          "name": "",
          "type": "uint256"
        }
      ],
      "stateMutability": "view",
      "type": "function"
    },
    {
      "inputs": [
        {
          "internalType": "address",
          "name": "to",
          "type": "address"
        },
        {
          "internalType": "uint256",
          "name": "companyId",
          "type": "uint256"
        },
        {
          "internalType": "uint256",
          "name": "amount",
          "type": "uint256"
        },
        {
          "internalType": "enum MetaStocksFranchiseType",
          "name": "_metaStocksFranchiseType",
          "type": "uint8"
        }
      ],
      "name": "burnMetaStocksFranchise",
      "outputs": [],
      "stateMutability": "nonpayable",
      "type": "function"
    },
    {
      "inputs": [
        {
          "internalType": "uint256",
          "name": "_companyId",
          "type": "uint256"
        }
      ],
      "name": "claimFromAllFranchises",
      "outputs": [],
      "stateMutability": "nonpayable",
      "type": "function"
    },
    {
      "inputs": [
        {
          "internalType": "uint256",
          "name": "_companyId",
          "type": "uint256"
        }
      ],
      "name": "claimFromAllFranchisesBNB",
      "outputs": [],
      "stateMutability": "nonpayable",
      "type": "function"
    },
    {
      "inputs": [
        {
          "internalType": "uint256",
          "name": "",
          "type": "uint256"
        },
        {
          "internalType": "uint256",
          "name": "",
          "type": "uint256"
        }
      ],
      "name": "companyFranchises",
      "outputs": [
        {
          "internalType": "uint256",
          "name": "",
          "type": "uint256"
        }
      ],
      "stateMutability": "view",
      "type": "function"
    },
    {
      "inputs": [
        {
          "internalType": "address",
          "name": "to",
          "type": "address"
        },
        {
          "internalType": "uint256",
          "name": "companyId",
          "type": "uint256"
        },
        {
          "internalType": "uint256",
          "name": "_continentId",
          "type": "uint256"
        },
        {
          "internalType": "enum MetaStocksFranchiseType",
          "name": "_metaStocksFranchiseType",
          "type": "uint8"
        }
      ],
      "name": "createMetaStocksFranchise",
      "outputs": [],
      "stateMutability": "nonpayable",
      "type": "function"
    },
    {
      "inputs": [
        {
          "internalType": "address",
          "name": "to",
          "type": "address"
        },
        {
          "internalType": "uint256",
          "name": "companyId",
          "type": "uint256"
        },
        {
          "internalType": "uint256",
          "name": "_continentId",
          "type": "uint256"
        },
        {
          "internalType": "enum MetaStocksFranchiseType",
          "name": "_metaStocksFranchiseType",
          "type": "uint8"
        }
      ],
      "name": "createMetaStocksFranchiseUsingBNB",
      "outputs": [],
      "stateMutability": "payable",
      "type": "function"
    },
    {
      "inputs": [],
      "name": "decimals",
      "outputs": [
        {
          "internalType": "uint8",
          "name": "",
          "type": "uint8"
        }
      ],
      "stateMutability": "view",
      "type": "function"
    },
    {
      "inputs": [
        {
          "internalType": "address",
          "name": "spender",
          "type": "address"
        },
        {
          "internalType": "uint256",
          "name": "subtractedValue",
          "type": "uint256"
        }
      ],
      "name": "decreaseAllowance",
      "outputs": [
        {
          "internalType": "bool",
          "name": "",
          "type": "bool"
        }
      ],
      "stateMutability": "nonpayable",
      "type": "function"
    },
    {
      "inputs": [
        {
          "internalType": "uint256",
          "name": "",
          "type": "uint256"
        },
        {
          "internalType": "uint256",
          "name": "",
          "type": "uint256"
        }
      ],
      "name": "franchisesLastClaimDates",
      "outputs": [
        {
          "internalType": "uint256",
          "name": "",
          "type": "uint256"
        }
      ],
      "stateMutability": "view",
      "type": "function"
    },
    {
      "inputs": [
        {
          "internalType": "uint256",
          "name": "",
          "type": "uint256"
        },
        {
          "internalType": "uint256",
          "name": "",
          "type": "uint256"
        }
      ],
      "name": "franchisesUsdInvested",
      "outputs": [
        {
          "internalType": "uint256",
          "name": "",
          "type": "uint256"
        }
      ],
      "stateMutability": "view",
      "type": "function"
    },
    {
      "inputs": [
        {
          "internalType": "uint256",
          "name": "",
          "type": "uint256"
        },
        {
          "internalType": "uint256",
          "name": "",
          "type": "uint256"
        }
      ],
      "name": "franchisesWorkers",
      "outputs": [
        {
          "internalType": "uint256",
          "name": "",
          "type": "uint256"
        }
      ],
      "stateMutability": "view",
      "type": "function"
    },
    {
      "inputs": [],
      "name": "getCreateFranchisePrice",
      "outputs": [
        {
          "internalType": "uint256",
          "name": "",
          "type": "uint256"
        }
      ],
      "stateMutability": "view",
      "type": "function"
    },
    {
      "inputs": [],
      "name": "getFranchiseDailyEarnings",
      "outputs": [
        {
          "internalType": "uint256",
          "name": "",
          "type": "uint256"
        }
      ],
      "stateMutability": "view",
      "type": "function"
    },
    {
      "inputs": [],
      "name": "getFranchiseValue",
      "outputs": [
        {
          "internalType": "uint256",
          "name": "",
          "type": "uint256"
        }
      ],
      "stateMutability": "view",
      "type": "function"
    },
    {
      "inputs": [
        {
          "internalType": "uint256",
          "name": "_continentId",
          "type": "uint256"
        }
      ],
      "name": "getFranchisesByContinent",
      "outputs": [
        {
          "internalType": "uint256",
          "name": "",
          "type": "uint256"
        }
      ],
      "stateMutability": "view",
      "type": "function"
    },
    {
      "inputs": [
        {
          "internalType": "uint256",
          "name": "companyId",
          "type": "uint256"
        },
        {
          "internalType": "uint256",
          "name": "franchiseType",
          "type": "uint256"
        }
      ],
      "name": "getFranchisesUsdInvested",
      "outputs": [
        {
          "internalType": "uint256",
          "name": "",
          "type": "uint256"
        }
      ],
      "stateMutability": "view",
      "type": "function"
    },
    {
      "inputs": [],
      "name": "getHireWorkerFranchisePrice",
      "outputs": [
        {
          "internalType": "uint256",
          "name": "",
          "type": "uint256"
        }
      ],
      "stateMutability": "view",
      "type": "function"
    },
    {
      "inputs": [],
      "name": "getMaintainceFranchiseExpenses",
      "outputs": [
        {
          "internalType": "uint256",
          "name": "",
          "type": "uint256"
        }
      ],
      "stateMutability": "view",
      "type": "function"
    },
    {
      "inputs": [
        {
          "internalType": "uint256",
          "name": "companyId",
          "type": "uint256"
        }
      ],
      "name": "getMetaStocksFranchisesUnclaimedRewards",
      "outputs": [
        {
          "internalType": "uint256",
          "name": "",
          "type": "uint256"
        }
      ],
      "stateMutability": "view",
      "type": "function"
    },
    {
      "inputs": [
        {
          "internalType": "uint256",
          "name": "companyId",
          "type": "uint256"
        }
      ],
      "name": "getMetaStocksFranchisesUnclaimedRewardsBNB",
      "outputs": [
        {
          "internalType": "uint256",
          "name": "",
          "type": "uint256"
        }
      ],
      "stateMutability": "view",
      "type": "function"
    },
    {
      "inputs": [
        {
          "internalType": "uint256",
          "name": "companyId",
          "type": "uint256"
        }
      ],
      "name": "getNumberOfMetaStocksFranchises",
      "outputs": [
        {
          "internalType": "uint256",
          "name": "",
          "type": "uint256"
        }
      ],
      "stateMutability": "view",
      "type": "function"
    },
    {
      "inputs": [],
      "name": "getPaymentTokenAddress",
      "outputs": [
        {
          "internalType": "address",
          "name": "",
          "type": "address"
        }
      ],
      "stateMutability": "view",
      "type": "function"
    },
    {
      "inputs": [
        {
          "internalType": "uint256",
          "name": "companyId",
          "type": "uint256"
        },
        {
          "internalType": "enum MetaStocksFranchiseType",
          "name": "_metaStocksFranchiseType",
          "type": "uint8"
        }
      ],
      "name": "hireWorker",
      "outputs": [],
      "stateMutability": "nonpayable",
      "type": "function"
    },
    {
      "inputs": [
        {
          "internalType": "uint256",
          "name": "companyId",
          "type": "uint256"
        },
        {
          "internalType": "enum MetaStocksFranchiseType",
          "name": "_metaStocksFranchiseType",
          "type": "uint8"
        }
      ],
      "name": "hireWorkerUsingBNB",
      "outputs": [],
      "stateMutability": "payable",
      "type": "function"
    },
    {
      "inputs": [
        {
          "internalType": "address",
          "name": "spender",
          "type": "address"
        },
        {
          "internalType": "uint256",
          "name": "addedValue",
          "type": "uint256"
        }
      ],
      "name": "increaseAllowance",
      "outputs": [
        {
          "internalType": "bool",
          "name": "",
          "type": "bool"
        }
      ],
      "stateMutability": "nonpayable",
      "type": "function"
    },
    {
      "inputs": [
        {
          "internalType": "address",
          "name": "_metaStocksFranchiseAddress",
          "type": "address"
        }
      ],
      "name": "initialize",
      "outputs": [],
      "stateMutability": "nonpayable",
      "type": "function"
    },
    {
      "inputs": [
        {
          "internalType": "uint256",
          "name": "",
          "type": "uint256"
        }
      ],
      "name": "lastFranchiseClaimDate",
      "outputs": [
        {
          "internalType": "uint256",
          "name": "",
          "type": "uint256"
        }
      ],
      "stateMutability": "view",
      "type": "function"
    },
    {
      "inputs": [],
      "name": "name",
      "outputs": [
        {
          "internalType": "string",
          "name": "",
          "type": "string"
        }
      ],
      "stateMutability": "view",
      "type": "function"
    },
    {
      "inputs": [
        {
          "internalType": "address",
          "name": "",
          "type": "address"
        },
        {
          "internalType": "address",
          "name": "",
          "type": "address"
        },
        {
          "internalType": "uint256[]",
          "name": "",
          "type": "uint256[]"
        },
        {
          "internalType": "uint256[]",
          "name": "",
          "type": "uint256[]"
        },
        {
          "internalType": "bytes",
          "name": "",
          "type": "bytes"
        }
      ],
      "name": "onERC1155BatchReceived",
      "outputs": [
        {
          "internalType": "bytes4",
          "name": "",
          "type": "bytes4"
        }
      ],
      "stateMutability": "nonpayable",
      "type": "function"
    },
    {
      "inputs": [
        {
          "internalType": "address",
          "name": "",
          "type": "address"
        },
        {
          "internalType": "address",
          "name": "",
          "type": "address"
        },
        {
          "internalType": "uint256",
          "name": "",
          "type": "uint256"
        },
        {
          "internalType": "uint256",
          "name": "",
          "type": "uint256"
        },
        {
          "internalType": "bytes",
          "name": "",
          "type": "bytes"
        }
      ],
      "name": "onERC1155Received",
      "outputs": [
        {
          "internalType": "bytes4",
          "name": "",
          "type": "bytes4"
        }
      ],
      "stateMutability": "nonpayable",
      "type": "function"
    },
    {
      "inputs": [],
      "name": "owner",
      "outputs": [
        {
          "internalType": "address",
          "name": "",
          "type": "address"
        }
      ],
      "stateMutability": "view",
      "type": "function"
    },
    {
      "inputs": [],
      "name": "renounceOwnership",
      "outputs": [],
      "stateMutability": "nonpayable",
      "type": "function"
    },
    {
      "inputs": [],
      "name": "self",
      "outputs": [
        {
          "internalType": "address",
          "name": "",
          "type": "address"
        }
      ],
      "stateMutability": "view",
      "type": "function"
    },
    {
      "inputs": [
        {
          "internalType": "address",
          "name": "to",
          "type": "address"
        },
        {
          "internalType": "uint256",
          "name": "companyId",
          "type": "uint256"
        },
        {
          "internalType": "uint256",
          "name": "amount",
          "type": "uint256"
        },
        {
          "internalType": "enum MetaStocksFranchiseType",
          "name": "_metaStocksFranchiseType",
          "type": "uint8"
        }
      ],
      "name": "sellMetaStocksFranchise",
      "outputs": [],
      "stateMutability": "nonpayable",
      "type": "function"
    },
    {
      "inputs": [
        {
          "internalType": "uint16",
          "name": "_createFranchisePrice",
          "type": "uint16"
        }
      ],
      "name": "setCreateFranchisePrice",
      "outputs": [],
      "stateMutability": "nonpayable",
      "type": "function"
    },
    {
      "inputs": [
        {
          "internalType": "uint16",
          "name": "_franchiseDailyEarnings",
          "type": "uint16"
        }
      ],
      "name": "setFranchiseDailyEarnings",
      "outputs": [],
      "stateMutability": "nonpayable",
      "type": "function"
    },
    {
      "inputs": [
        {
          "internalType": "uint16",
          "name": "_hireWorkerFranchisePrice",
          "type": "uint16"
        }
      ],
      "name": "setHireWorkerFranchisePrice",
      "outputs": [],
      "stateMutability": "nonpayable",
      "type": "function"
    },
    {
      "inputs": [
        {
          "internalType": "uint16",
          "name": "_maintainceFranchiseExpenses",
          "type": "uint16"
        }
      ],
      "name": "setMaintainceFranchiseExpenses",
      "outputs": [],
      "stateMutability": "nonpayable",
      "type": "function"
    },
    {
      "inputs": [
        {
          "internalType": "address",
          "name": "_paymentTokenAddress",
          "type": "address"
        }
      ],
      "name": "setPaymentTokenAddress",
      "outputs": [],
      "stateMutability": "nonpayable",
      "type": "function"
    },
    {
      "inputs": [
        {
          "internalType": "address",
          "name": "_routerAddress",
          "type": "address"
        },
        {
          "internalType": "address",
          "name": "_chainlinkDataFeedAddress",
          "type": "address"
        }
      ],
      "name": "setRouterAddress",
      "outputs": [],
      "stateMutability": "nonpayable",
      "type": "function"
    },
    {
      "inputs": [
        {
          "internalType": "bytes4",
          "name": "interfaceId",
          "type": "bytes4"
        }
      ],
      "name": "supportsInterface",
      "outputs": [
        {
          "internalType": "bool",
          "name": "",
          "type": "bool"
        }
      ],
      "stateMutability": "view",
      "type": "function"
    },
    {
      "inputs": [],
      "name": "symbol",
      "outputs": [
        {
          "internalType": "string",
          "name": "",
          "type": "string"
        }
      ],
      "stateMutability": "view",
      "type": "function"
    },
    {
      "inputs": [],
      "name": "totalSupply",
      "outputs": [
        {
          "internalType": "uint256",
          "name": "",
          "type": "uint256"
        }
      ],
      "stateMutability": "view",
      "type": "function"
    },
    {
      "inputs": [
        {
          "internalType": "address",
          "name": "to",
          "type": "address"
        },
        {
          "internalType": "uint256",
          "name": "amount",
          "type": "uint256"
        }
      ],
      "name": "transfer",
      "outputs": [
        {
          "internalType": "bool",
          "name": "",
          "type": "bool"
        }
      ],
      "stateMutability": "nonpayable",
      "type": "function"
    },
    {
      "inputs": [
        {
          "internalType": "address",
          "name": "from",
          "type": "address"
        },
        {
          "internalType": "address",
          "name": "to",
          "type": "address"
        },
        {
          "internalType": "uint256",
          "name": "amount",
          "type": "uint256"
        }
      ],
      "name": "transferFrom",
      "outputs": [
        {
          "internalType": "bool",
          "name": "",
          "type": "bool"
        }
      ],
      "stateMutability": "nonpayable",
      "type": "function"
    },
    {
      "inputs": [
        {
          "internalType": "address",
          "name": "newOwner",
          "type": "address"
        }
      ],
      "name": "transferOwnership",
      "outputs": [],
      "stateMutability": "nonpayable",
      "type": "function"
    },
    {
      "stateMutability": "payable",
      "type": "receive"
    }
  ],
  "bytecode": "0x608060405234801561001057600080fd5b50613efd806100206000396000f3fe608060405260043610620002db5760003560e01c80639d58f3e01162000183578063c56956ce11620000dd578063dea182c11162000090578063dea182c1146200093c578063ee1a490714620003de578063f23a6e61146200095c578063f2fde38b146200098c578063f30a610814620009b1578063f3d8bc3c14620009ed578063fbf3176f1462000a1257600080fd5b8063c56956ce1462000852578063c6a7584e1462000883578063c9d8224d14620008a8578063d43a5fb114620008cd578063dcb98f7e14620008f2578063dd62ed3e146200091757600080fd5b8063a9059cbb1162000136578063a9059cbb146200071e578063b17a43ae1462000743578063b5ea8945146200077f578063bc197c8114620007bb578063be154d2b1462000805578063c4d66de8146200082d57600080fd5b80639d58f3e014620004c15780639e20146614620006675780639f2e747f146200068f578063a457c2d714620006a6578063a4db7d1514620006cb578063a562eaa9146200070757600080fd5b806340f1b938116200023557806371e5f06311620001e857806371e5f06314620005845780637d9614d914620005c05780638da5cb5b14620005e5578063928024dc146200060557806395d89b41146200062a57806399dc7d9c146200064257600080fd5b806340f1b938146200049c5780634471608014620004c1578063679a6fa514620004d857806370a0823114620005095780637104ddb21462000543578063715018a6146200056c57600080fd5b8063294d64fd116200028e578063294d64fd14620003de5780632a5bb06814620004035780632c602e5b146200042b578063313ce56714620004425780633950935114620004605780633ae9056d146200048557600080fd5b80630129b11714620002e857806301ffc9a7146200031257806306fdde03146200034c578063095ea7b3146200037357806318160ddd146200039857806323b872dd14620003b957600080fd5b36620002e357005b600080fd5b348015620002f557600080fd5b50620003106200030736600462001da0565b61ffff16609955565b005b3480156200031f57600080fd5b50620003376200033136600462001dcd565b62000a29565b60405190151581526020015b60405180910390f35b3480156200035957600080fd5b506200036462000a3c565b60405162000343919062001df9565b3480156200038057600080fd5b50620003376200039236600462001e69565b62000ad6565b348015620003a557600080fd5b506035545b60405190815260200162000343565b348015620003c657600080fd5b5062000337620003d836600462001e96565b62000af0565b348015620003eb57600080fd5b5062000310620003fd36600462001ee7565b62000b18565b3480156200041057600080fd5b50620003106200042236600462001da0565b61ffff16609a55565b3480156200043857600080fd5b50609854620003aa565b3480156200044f57600080fd5b506040516012815260200162000343565b3480156200046d57600080fd5b50620003376200047f36600462001e69565b62000b97565b3480156200049257600080fd5b50609954620003aa565b348015620004a957600080fd5b50620003aa620004bb36600462001f32565b62000bbf565b348015620004ce57600080fd5b50609b54620003aa565b348015620004e557600080fd5b50620003aa620004f736600462001f32565b600090815260a0602052604090205490565b3480156200051657600080fd5b50620003aa6200052836600462001f4c565b6001600160a01b031660009081526033602052604090205490565b3480156200055057600080fd5b50305b6040516001600160a01b03909116815260200162000343565b3480156200057957600080fd5b506200031062000c9d565b3480156200059157600080fd5b50620003aa620005a336600462001f6a565b60a160209081526000928352604080842090915290825290205481565b348015620005cd57600080fd5b50620003aa620005df36600462001f32565b62000ce1565b348015620005f257600080fd5b506065546001600160a01b031662000553565b3480156200061257600080fd5b50620003106200062436600462001f8d565b62000d2d565b3480156200063757600080fd5b506200036462000efa565b3480156200064f57600080fd5b50620003106200066136600462001f32565b62000f0b565b3480156200067457600080fd5b50620003106200068636600462001da0565b61ffff16609b55565b3480156200069c57600080fd5b50609a54620003aa565b348015620006b357600080fd5b5062000337620006c536600462001e69565b62001032565b348015620006d857600080fd5b50620003aa620006ea36600462001f6a565b60a360209081526000928352604080842090915290825290205481565b620003106200071836600462001f8d565b620010b3565b3480156200072b57600080fd5b50620003376200073d36600462001e69565b6200111a565b3480156200075057600080fd5b50620003aa6200076236600462001f6a565b60a560209081526000928352604080842090915290825290205481565b3480156200078c57600080fd5b50620003aa6200079e36600462001f6a565b60a460209081526000928352604080842090915290825290205481565b348015620007c857600080fd5b50620007eb620007da36600462002106565b63bc197c8160e01b95945050505050565b6040516001600160e01b0319909116815260200162000343565b3480156200081257600080fd5b50620003106200082436600462001da0565b61ffff16609855565b3480156200083a57600080fd5b50620003106200084c36600462001f4c565b6200112a565b3480156200085f57600080fd5b50620003aa6200087136600462001f32565b60a26020526000908152604090205481565b3480156200089057600080fd5b5062000310620008a2366004620021be565b620011ed565b348015620008b557600080fd5b5062000310620008c736600462001ee7565b620012c0565b348015620008da57600080fd5b5062000310620008ec36600462001f32565b620015c2565b348015620008ff57600080fd5b50620003106200091136600462001f4c565b62001668565b3480156200092457600080fd5b50620003aa62000936366004620021be565b620016f3565b3480156200094957600080fd5b50609e546001600160a01b031662000553565b3480156200096957600080fd5b50620007eb6200097b366004620021ed565b63f23a6e6160e01b95945050505050565b3480156200099957600080fd5b5062000310620009ab36600462001f4c565b6200171e565b348015620009be57600080fd5b50620003aa620009d036600462001f6a565b600091825260a16020908152604080842092845291905290205490565b348015620009fa57600080fd5b50620003aa62000a0c36600462001f32565b620017c0565b6200031062000a2336600462001ee7565b62001897565b600062000a3682620018f3565b92915050565b60606036805462000a4d906200225a565b80601f016020809104026020016040519081016040528092919081815260200182805462000a7b906200225a565b801562000acc5780601f1062000aa05761010080835404028352916020019162000acc565b820191906000526020600020905b81548152906001019060200180831162000aae57829003601f168201915b5050505050905090565b60003362000ae68185856200192a565b5060019392505050565b60003362000b0085828562001a52565b62000b0d85858562001ad3565b506001949350505050565b6097546040516370d8209160e11b81526000916001600160a01b03169063e1b041229062000b4b90859060040162002296565b602060405180830381865afa15801562000b69573d6000803e3d6000fd5b505050506040513d601f19601f8201168201806040525081019062000b8f9190620022bf565b505050505050565b60003362000ae681858562000bad8383620016f3565b62000bb99190620022ef565b6200192a565b600080805b600a81101562000c9657600084815260a360209081526040808320848452909152812054905b8181101562000c7e57600086815260a560209081526040808320858452825280832054609c54609b548b865260a48552838620888752909452919093205490919062000c3790426200230a565b62000c43919062002324565b62000c4f919062002346565b62000c5b919062002324565b62000c679085620022ef565b93508062000c758162002369565b91505062000bea565b5050808062000c8d9062002369565b91505062000bc4565b5092915050565b6065546001600160a01b0316331462000cd35760405162461bcd60e51b815260040162000cca9062002385565b60405180910390fd5b62000cdf600062001cab565b565b600080805b601a81101562000c9657600084815260a36020908152604080832084845290915290205462000d169083620022ef565b91508062000d248162002369565b91505062000ce6565b609e546099546040516323b872dd60e01b81526001600160a01b03909216916323b872dd9162000d649133913091600401620023ba565b6020604051808303816000875af115801562000d84573d6000803e3d6000fd5b505050506040513d601f19601f8201168201806040525081019062000daa9190620023de565b50609f54609e54609954604051637d7e76e760e11b81526000936001600160a01b039081169363fafcedce9362000de993929091169160040162002402565b602060405180830381865afa15801562000e07573d6000803e3d6000fd5b505050506040513d601f19601f8201168201806040525081019062000e2d9190620022bf565b6097546040516370d8209160e11b81529192506000916001600160a01b039091169063e1b041229062000e6590869060040162002296565b602060405180830381865afa15801562000e83573d6000803e3d6000fd5b505050506040513d601f19601f8201168201806040525081019062000ea99190620022bf565b600085815260a160209081526040808320848452825280832086905587835260a582528083208484529091528120805492935060019290919062000eef908490620022ef565b909155505050505050565b60606037805462000a4d906200225a565b60405163081e372760e31b81526004810182905260009030906340f1b93890602401602060405180830381865afa15801562000f4b573d6000803e3d6000fd5b505050506040513d601f19601f8201168201806040525081019062000f719190620022bf565b609e546040516323b872dd60e01b81529192506001600160a01b0316906323b872dd9062000fa890309033908690600401620023ba565b6020604051808303816000875af115801562000fc8573d6000803e3d6000fd5b505050506040513d601f19601f8201168201806040525081019062000fee9190620023de565b5060005b600a8110156200102d57600083815260a460209081526040808320848452909152902042905580620010248162002369565b91505062000ff2565b505050565b60003381620010428286620016f3565b905083811015620010a45760405162461bcd60e51b815260206004820152602560248201527f45524332303a2064656372656173656420616c6c6f77616e63652062656c6f77604482015264207a65726f60d81b606482015260840162000cca565b62000b0d82868684036200192a565b662386f26fc100003411620010dc5760405162461bcd60e51b815260040162000cca906200241b565b609f54609e54609954604051637d7e76e760e11b81526000936001600160a01b039081169363fafcedce9362000de993929091169160040162002402565b60003362000ae681858562001ad3565b600062001138600162001cfd565b9050801562001151576000805461ff0019166101001790555b68056bc75e2d63100000609855678ac7230489e80000609b55670de0b6b3a7640000609a55600a609c55609e80546001600160a01b0319908116909155609780549091166001600160a01b0384161790558015620011e9576000805461ff0019169055604051600181527f7f26b83ff96e1f2b6a682f133852f6798a09c465da95921460cefb38474024989060200160405180910390a15b5050565b8181604051620011fd9062001d92565b6001600160a01b03928316815291166020820152604001604051809103906000f08015801562001231573d6000803e3d6000fd5b50609f80546001600160a01b0319166001600160a01b03928316179055609e541663095ea7b3306000196040518363ffffffff1660e01b81526004016200127a92919062002402565b6020604051808303816000875af11580156200129a573d6000803e3d6000fd5b505050506040513d601f19601f820116820180604052508101906200102d9190620023de565b609e546098546040516323b872dd60e01b81526001600160a01b03909216916323b872dd91620012f79133913091600401620023ba565b6020604051808303816000875af115801562001317573d6000803e3d6000fd5b505050506040513d601f19601f820116820180604052508101906200133d9190620023de565b506097546040516370d8209160e11b81526000916001600160a01b03169063e1b04122906200137190859060040162002296565b602060405180830381865afa1580156200138f573d6000803e3d6000fd5b505050506040513d601f19601f82011682018060405250810190620013b59190620022bf565b60975460405163731133e960e01b81526001600160a01b038881166004830152602482018490526001604483015260806064830152600360848301526203078360ec1b60a483015292935091169063731133e99060c401600060405180830381600087803b1580156200142757600080fd5b505af11580156200143c573d6000803e3d6000fd5b505050600085815260a36020908152604080832085845290915281208054600193509091906200146e908490620022ef565b9091555050600084815260a56020908152604080832084845290915281208054600192906200149f908490620022ef565b9091555050600084815260a460209081526040808320848452909152808220429055609f54609e546098549251637d7e76e760e11b81526001600160a01b039283169363fafcedce93620014f893169160040162002402565b602060405180830381865afa15801562001516573d6000803e3d6000fd5b505050506040513d601f19601f820116820180604052508101906200153c9190620022bf565b600086815260a160209081526040808320868452825280832084905587835260a0909152812080549293506001929091906200157a908490620022ef565b9091555050604080518681526020810184905233917f0d2874ff58f61fb0eb468b346184f6ff4ca14488038fea48a58c8a2cc098ece3910160405180910390a2505050505050565b60405163081e372760e31b81526004810182905260009030906340f1b93890602401602060405180830381865afa15801562001602573d6000803e3d6000fd5b505050506040513d601f19601f82011682018060405250810190620016289190620022bf565b905060005b600a8110156200102d57600083815260a4602090815260408083208484529091529020429055806200165f8162002369565b9150506200162d565b609e80546001600160a01b0319166001600160a01b03831690811790915560405163095ea7b360e01b815263095ea7b390620016ad9030906000199060040162002402565b6020604051808303816000875af1158015620016cd573d6000803e3d6000fd5b505050506040513d601f19601f82011682018060405250810190620011e99190620023de565b6001600160a01b03918216600090815260346020908152604080832093909416825291909152205490565b6065546001600160a01b031633146200174b5760405162461bcd60e51b815260040162000cca9062002385565b6001600160a01b038116620017b25760405162461bcd60e51b815260206004820152602660248201527f4f776e61626c653a206e6577206f776e657220697320746865207a65726f206160448201526564647265737360d01b606482015260840162000cca565b620017bd8162001cab565b50565b600080805b600a81101562000c9657600084815260a360209081526040808320848452909152812054905b818110156200187f57600086815260a560209081526040808320858452825280832054609c54609b548b865260a4855283862088875290945291909320549091906200183890426200230a565b62001844919062002324565b62001850919062002346565b6200185c919062002324565b620018689085620022ef565b935080620018768162002369565b915050620017eb565b505080806200188e9062002369565b915050620017c5565b662386f26fc100003410620018c05760405162461bcd60e51b815260040162000cca906200241b565b6097546040516370d8209160e11b81526000916001600160a01b03169063e1b04122906200137190859060040162002296565b60006001600160e01b03198216630271189760e51b148062000a3657506301ffc9a760e01b6001600160e01b031983161462000a36565b6001600160a01b0383166200198e5760405162461bcd60e51b8152602060048201526024808201527f45524332303a20617070726f76652066726f6d20746865207a65726f206164646044820152637265737360e01b606482015260840162000cca565b6001600160a01b038216620019f15760405162461bcd60e51b815260206004820152602260248201527f45524332303a20617070726f766520746f20746865207a65726f206164647265604482015261737360f01b606482015260840162000cca565b6001600160a01b0383811660008181526034602090815260408083209487168084529482529182902085905590518481527f8c5be1e5ebec7d5bd14f71427d1e84f3dd0314c0f7b2291e5b200ac8c7c3b925910160405180910390a3505050565b600062001a608484620016f3565b9050600019811462001acd578181101562001abe5760405162461bcd60e51b815260206004820152601d60248201527f45524332303a20696e73756666696369656e7420616c6c6f77616e6365000000604482015260640162000cca565b62001acd84848484036200192a565b50505050565b6001600160a01b03831662001b395760405162461bcd60e51b815260206004820152602560248201527f45524332303a207472616e736665722066726f6d20746865207a65726f206164604482015264647265737360d81b606482015260840162000cca565b6001600160a01b03821662001b9d5760405162461bcd60e51b815260206004820152602360248201527f45524332303a207472616e7366657220746f20746865207a65726f206164647260448201526265737360e81b606482015260840162000cca565b6001600160a01b0383166000908152603360205260409020548181101562001c175760405162461bcd60e51b815260206004820152602660248201527f45524332303a207472616e7366657220616d6f756e7420657863656564732062604482015265616c616e636560d01b606482015260840162000cca565b6001600160a01b0380851660009081526033602052604080822085850390559185168152908120805484929062001c50908490620022ef565b92505081905550826001600160a01b0316846001600160a01b03167fddf252ad1be2c89b69c2b068fc378daa952ba7f163c4a11628f55a4df523b3ef8460405162001c9d91815260200190565b60405180910390a362001acd565b606580546001600160a01b038381166001600160a01b0319831681179093556040519116919082907f8be0079c531659141344cd1fd0a4f28419497f9722a3daafe3b4186f6b6457e090600090a35050565b60008054610100900460ff161562001d49578160ff16600114801562001d225750303b155b62001d415760405162461bcd60e51b815260040162000cca906200243f565b506000919050565b60005460ff80841691161062001d735760405162461bcd60e51b815260040162000cca906200243f565b506000805460ff191660ff92909216919091179055600190565b919050565b611a3a806200248e83390190565b60006020828403121562001db357600080fd5b813561ffff8116811462001dc657600080fd5b9392505050565b60006020828403121562001de057600080fd5b81356001600160e01b03198116811462001dc657600080fd5b600060208083528351808285015260005b8181101562001e285785810183015185820160400152820162001e0a565b8181111562001e3b576000604083870101525b50601f01601f1916929092016040019392505050565b80356001600160a01b038116811462001d8d57600080fd5b6000806040838503121562001e7d57600080fd5b62001e888362001e51565b946020939093013593505050565b60008060006060848603121562001eac57600080fd5b62001eb78462001e51565b925062001ec76020850162001e51565b9150604084013590509250925092565b8035601a811062001d8d57600080fd5b6000806000806080858703121562001efe57600080fd5b62001f098562001e51565b9350602085013592506040850135915062001f276060860162001ed7565b905092959194509250565b60006020828403121562001f4557600080fd5b5035919050565b60006020828403121562001f5f57600080fd5b62001dc68262001e51565b6000806040838503121562001f7e57600080fd5b50508035926020909101359150565b6000806040838503121562001fa157600080fd5b8235915062001fb36020840162001ed7565b90509250929050565b634e487b7160e01b600052604160045260246000fd5b604051601f8201601f1916810167ffffffffffffffff8111828210171562001ffe5762001ffe62001fbc565b604052919050565b600082601f8301126200201857600080fd5b8135602067ffffffffffffffff82111562002037576200203762001fbc565b8160051b6200204882820162001fd2565b92835284810182019282810190878511156200206357600080fd5b83870192505b84831015620020845782358252918301919083019062002069565b979650505050505050565b600082601f830112620020a157600080fd5b813567ffffffffffffffff811115620020be57620020be62001fbc565b620020d3601f8201601f191660200162001fd2565b818152846020838601011115620020e957600080fd5b816020850160208301376000918101602001919091529392505050565b600080600080600060a086880312156200211f57600080fd5b6200212a8662001e51565b94506200213a6020870162001e51565b9350604086013567ffffffffffffffff808211156200215857600080fd5b6200216689838a0162002006565b945060608801359150808211156200217d57600080fd5b6200218b89838a0162002006565b93506080880135915080821115620021a257600080fd5b50620021b1888289016200208f565b9150509295509295909350565b60008060408385031215620021d257600080fd5b620021dd8362001e51565b915062001fb36020840162001e51565b600080600080600060a086880312156200220657600080fd5b620022118662001e51565b9450620022216020870162001e51565b93506040860135925060608601359150608086013567ffffffffffffffff8111156200224c57600080fd5b620021b1888289016200208f565b600181811c908216806200226f57607f821691505b6020821081036200229057634e487b7160e01b600052602260045260246000fd5b50919050565b60208101601a8310620022b957634e487b7160e01b600052602160045260246000fd5b91905290565b600060208284031215620022d257600080fd5b5051919050565b634e487b7160e01b600052601160045260246000fd5b60008219821115620023055762002305620022d9565b500190565b6000828210156200231f576200231f620022d9565b500390565b6000816000190483118215151615620023415762002341620022d9565b500290565b6000826200236457634e487b7160e01b600052601260045260246000fd5b500490565b6000600182016200237e576200237e620022d9565b5060010190565b6020808252818101527f4f776e61626c653a2063616c6c6572206973206e6f7420746865206f776e6572604082015260600190565b6001600160a01b039384168152919092166020820152604081019190915260600190565b600060208284031215620023f157600080fd5b8151801515811462001dc657600080fd5b6001600160a01b03929092168252602082015260400190565b6020808252600a9082015269131bddc8185b5bdd5b9d60b21b604082015260600190565b6020808252602e908201527f496e697469616c697a61626c653a20636f6e747261637420697320616c72656160408201526d191e481a5b9a5d1a585b1a5e995960921b60608201526080019056fe608060405234801561001057600080fd5b50604051611a3a380380611a3a83398101604081905261002f916100e7565b600080546001600160a01b0384166001600160a01b03199182161790915560616002556001805490911690556040518190610069906100be565b6001600160a01b039091168152602001604051809103906000f080158015610095573d6000803e3d6000fd5b50600380546001600160a01b0319166001600160a01b03929092169190911790555061011a9050565b6106048061143683390190565b80516001600160a01b03811681146100e257600080fd5b919050565b600080604083850312156100fa57600080fd5b610103836100cb565b9150610111602084016100cb565b90509250929050565b61130d806101296000396000f3fe608060405234801561001057600080fd5b50600436106100a95760003560e01c8063cf6c62ea11610071578063cf6c62ea14610121578063dd6e491e14610134578063e944b8b014610147578063f72f863b1461015a578063f7a765761461018a578063fafcedce1461019d57600080fd5b8063197e8da9146100ae57806385954d8c146100de578063b8b03b22146100ef578063b9c55241146100de578063cc99689914610104575b600080fd5b6100c16100bc366004610958565b6101be565b6040516001600160a01b0390911681526020015b60405180910390f35b6000546001600160a01b03166100c1565b6101026100fd36600461098d565b610264565b005b600154600160a01b900460ff1660405190151581526020016100d5565b61010261012f3660046109c9565b610411565b6100c1610142366004610958565b61054e565b610102610155366004610a0b565b6105ac565b610102610168366004610a0b565b600080546001600160a01b0319166001600160a01b0392909216919091179055565b61010261019836600461098d565b610609565b6101b06101ab366004610a2d565b61073a565b6040519081526020016100d5565b600073ae13d989dac2f0debff460ac112a837c89baa7cd60618390036101f9575073ae13d989dac2f0debff460ac112a837c89baa7cd61025e565b8260610361021c575073ae13d989dac2f0debff460ac112a837c89baa7cd61025e565b60405162461bcd60e51b8152602060048201526013602482015272756e737570706f72746564206e6574776f726b60681b604482015260640160405180910390fd5b92915050565b6040805160038082526080820190925260009160208201606080368337019050509050838160008151811061029b5761029b610a6d565b60200260200101906001600160a01b031690816001600160a01b0316815250506102c66002546101be565b816001815181106102d9576102d9610a6d565b6001600160a01b03928316602091820292909201015260015482519116908290600290811061030a5761030a610a6d565b6001600160a01b03928316602091820292909201015260015460005460405163095ea7b360e01b81529183169263095ea7b392610351929091169060001990600401610a83565b6020604051808303816000875af1158015610370573d6000803e3d6000fd5b505050506040513d601f19601f820116820180604052508101906103949190610a9c565b50600080546001600160a01b031690635c11d79590849084876103b9426103e8610ad4565b6040518663ffffffff1660e01b81526004016103d9959493929190610b30565b600060405180830381600087803b1580156103f357600080fd5b505af1158015610407573d6000803e3d6000fd5b5050505050505050565b60005460405163095ea7b360e01b81526001600160a01b038681169263095ea7b392610447929091169060001990600401610a83565b6020604051808303816000875af1158015610466573d6000803e3d6000fd5b505050506040513d601f19601f8201168201806040525081019061048a9190610a9c565b50600080546001600160a01b03169063f305d7199083903090869080896104b342612710610ad4565b60405160e089901b6001600160e01b03191681526001600160a01b039687166004820152602481019590955260448501939093526064840191909152909216608482015260a481019190915260c40160606040518083038185885af1158015610520573d6000803e3d6000fd5b50505050506040513d601f19601f820116820180604052508101906105459190610b6c565b50505050505050565b60007378867bbeef44f2326bf8ddd1941a4439382ef2a7606183900361058957507378867bbeef44f2326bf8ddd1941a4439382ef2a761025e565b8260610361021c57507378867bbeef44f2326bf8ddd1941a4439382ef2a761025e565b806040516105b99061094b565b6001600160a01b039091168152602001604051809103906000f0801580156105e5573d6000803e3d6000fd5b50600380546001600160a01b0319166001600160a01b039290921691909117905550565b604080516002808252606082018352600092602083019080368337019050509050838160008151811061063e5761063e610a6d565b60200260200101906001600160a01b031690816001600160a01b0316815250506106696002546101be565b8160018151811061067c5761067c610a6d565b6001600160a01b03928316602091820292909201015260005460405163095ea7b360e01b81528683169263095ea7b3926106bf9291169060001990600401610a83565b6020604051808303816000875af11580156106de573d6000803e3d6000fd5b505050506040513d601f19601f820116820180604052508101906107029190610a9c565b506000805460405163791ac94760e01b81526001600160a01b039091169163791ac947916103d9918691869089904290600401610b30565b600080600360009054906101000a90046001600160a01b03166001600160a01b031663b5acc9116040518163ffffffff1660e01b8152600401602060405180830381865afa158015610790573d6000803e3d6000fd5b505050506040513d601f19601f820116820180604052508101906107b49190610b9a565b6107c3906402540be400610bb3565b60408051600380825260808201909252919250600091906020820160608036833701905050905084816000815181106107fe576107fe610a6d565b60200260200101906001600160a01b031690816001600160a01b0316815250506108296002546101be565b8160018151811061083c5761083c610a6d565b60200260200101906001600160a01b031690816001600160a01b03168152505061086760025461054e565b8160028151811061087a5761087a610a6d565b6001600160a01b0392831660209182029290920101526000805460405163d06ca61f60e01b81529192169063d06ca61f906108bb9088908690600401610bd2565b600060405180830381865afa1580156108d8573d6000803e3d6000fd5b505050506040513d6000823e601f3d908101601f191682016040526109009190810190610bf3565b905060008160018151811061091757610917610a6d565b60200260200101519050670de0b6b3a764000081856109369190610bb3565b6109409190610cb1565b979650505050505050565b61060480610cd483390190565b60006020828403121561096a57600080fd5b5035919050565b80356001600160a01b038116811461098857600080fd5b919050565b6000806000606084860312156109a257600080fd5b6109ab84610971565b92506109b960208501610971565b9150604084013590509250925092565b600080600080608085870312156109df57600080fd5b6109e885610971565b93506109f660208601610971565b93969395505050506040820135916060013590565b600060208284031215610a1d57600080fd5b610a2682610971565b9392505050565b60008060408385031215610a4057600080fd5b610a4983610971565b946020939093013593505050565b634e487b7160e01b600052604160045260246000fd5b634e487b7160e01b600052603260045260246000fd5b6001600160a01b03929092168252602082015260400190565b600060208284031215610aae57600080fd5b81518015158114610a2657600080fd5b634e487b7160e01b600052601160045260246000fd5b60008219821115610ae757610ae7610abe565b500190565b600081518084526020808501945080840160005b83811015610b255781516001600160a01b031687529582019590820190600101610b00565b509495945050505050565b85815284602082015260a060408201526000610b4f60a0830186610aec565b6001600160a01b0394909416606083015250608001529392505050565b600080600060608486031215610b8157600080fd5b8351925060208401519150604084015190509250925092565b600060208284031215610bac57600080fd5b5051919050565b6000816000190483118215151615610bcd57610bcd610abe565b500290565b828152604060208201526000610beb6040830184610aec565b949350505050565b60006020808385031215610c0657600080fd5b825167ffffffffffffffff80821115610c1e57600080fd5b818501915085601f830112610c3257600080fd5b815181811115610c4457610c44610a57565b8060051b604051601f19603f83011681018181108582111715610c6957610c69610a57565b604052918252848201925083810185019188831115610c8757600080fd5b938501935b82851015610ca557845184529385019392850192610c8c565b98975050505050505050565b600082610cce57634e487b7160e01b600052601260045260246000fd5b50049056fe608060405234801561001057600080fd5b5060405161060438038061060483398101604081905261002f91610054565b600080546001600160a01b0319166001600160a01b0392909216919091179055610084565b60006020828403121561006657600080fd5b81516001600160a01b038116811461007d57600080fd5b9392505050565b610571806100936000396000f3fe608060405234801561001057600080fd5b50600436106100415760003560e01c806307fed6ac146100465780630d11d22214610060578063b5acc91114610073575b600080fd5b61004e61007b565b60405190815260200160405180910390f35b61004e61006e3660046102e3565b610099565b61004e610252565b6000610085610252565b610094906402540be400610324565b905090565b6000806100a4610252565b6100b3906402540be400610324565b604080516002808252606082018352929350600092909160208301908036833701905050905084816000815181106100ed576100ed610367565b60200260200101906001600160a01b031690816001600160a01b031681525050856001600160a01b031663ad5c46486040518163ffffffff1660e01b8152600401602060405180830381865afa15801561014b573d6000803e3d6000fd5b505050506040513d601f19601f8201168201806040525081019061016f919061037d565b8160018151811061018257610182610367565b6001600160a01b03928316602091820292909201015260405163d06ca61f60e01b815260009188169063d06ca61f906101c190889086906004016103a1565b600060405180830381865afa1580156101de573d6000803e3d6000fd5b505050506040513d6000823e601f3d908101601f1916820160405261020691908101906103f8565b905060008160018151811061021d5761021d610367565b60200260200101519050670de0b6b3a7640000818561023c9190610324565b61024691906104aa565b98975050505050505050565b6000805460408051633fabe5a360e21b8152905183926001600160a01b03169163feaf968c9160048083019260a09291908290030181865afa15801561029c573d6000803e3d6000fd5b505050506040513d601f19601f820116820180604052508101906102c091906104eb565b509195945050505050565b6001600160a01b03811681146102e057600080fd5b50565b6000806000606084860312156102f857600080fd5b8335610303816102cb565b92506020840135610313816102cb565b929592945050506040919091013590565b600081600019048311821515161561034c57634e487b7160e01b600052601160045260246000fd5b500290565b634e487b7160e01b600052604160045260246000fd5b634e487b7160e01b600052603260045260246000fd5b60006020828403121561038f57600080fd5b815161039a816102cb565b9392505050565b6000604082018483526020604081850152818551808452606086019150828701935060005b818110156103eb5784516001600160a01b0316835293830193918301916001016103c6565b5090979650505050505050565b6000602080838503121561040b57600080fd5b825167ffffffffffffffff8082111561042357600080fd5b818501915085601f83011261043757600080fd5b81518181111561044957610449610351565b8060051b604051601f19603f8301168101818110858211171561046e5761046e610351565b60405291825284820192508381018501918883111561048c57600080fd5b938501935b8285101561024657845184529385019392850192610491565b6000826104c757634e487b7160e01b600052601260045260246000fd5b500490565b805169ffffffffffffffffffff811681146104e657600080fd5b919050565b600080600080600060a0868803121561050357600080fd5b61050c866104cc565b945060208601519350604086015192506060860151915061052f608087016104cc565b9050929550929590935056fea26469706673582212208f8718de426620102b80559e42e1490d4816f78e3145fa1129c96a08cb59c73164736f6c634300080e0033a26469706673582212205112422c5eae8441c38031744e51f4fbb9e06560bc033aae44798dbde3128f5e64736f6c634300080e0033608060405234801561001057600080fd5b5060405161060438038061060483398101604081905261002f91610054565b600080546001600160a01b0319166001600160a01b0392909216919091179055610084565b60006020828403121561006657600080fd5b81516001600160a01b038116811461007d57600080fd5b9392505050565b610571806100936000396000f3fe608060405234801561001057600080fd5b50600436106100415760003560e01c806307fed6ac146100465780630d11d22214610060578063b5acc91114610073575b600080fd5b61004e61007b565b60405190815260200160405180910390f35b61004e61006e3660046102e3565b610099565b61004e610252565b6000610085610252565b610094906402540be400610324565b905090565b6000806100a4610252565b6100b3906402540be400610324565b604080516002808252606082018352929350600092909160208301908036833701905050905084816000815181106100ed576100ed610367565b60200260200101906001600160a01b031690816001600160a01b031681525050856001600160a01b031663ad5c46486040518163ffffffff1660e01b8152600401602060405180830381865afa15801561014b573d6000803e3d6000fd5b505050506040513d601f19601f8201168201806040525081019061016f919061037d565b8160018151811061018257610182610367565b6001600160a01b03928316602091820292909201015260405163d06ca61f60e01b815260009188169063d06ca61f906101c190889086906004016103a1565b600060405180830381865afa1580156101de573d6000803e3d6000fd5b505050506040513d6000823e601f3d908101601f1916820160405261020691908101906103f8565b905060008160018151811061021d5761021d610367565b60200260200101519050670de0b6b3a7640000818561023c9190610324565b61024691906104aa565b98975050505050505050565b6000805460408051633fabe5a360e21b8152905183926001600160a01b03169163feaf968c9160048083019260a09291908290030181865afa15801561029c573d6000803e3d6000fd5b505050506040513d601f19601f820116820180604052508101906102c091906104eb565b509195945050505050565b6001600160a01b03811681146102e057600080fd5b50565b6000806000606084860312156102f857600080fd5b8335610303816102cb565b92506020840135610313816102cb565b929592945050506040919091013590565b600081600019048311821515161561034c57634e487b7160e01b600052601160045260246000fd5b500290565b634e487b7160e01b600052604160045260246000fd5b634e487b7160e01b600052603260045260246000fd5b60006020828403121561038f57600080fd5b815161039a816102cb565b9392505050565b6000604082018483526020604081850152818551808452606086019150828701935060005b818110156103eb5784516001600160a01b0316835293830193918301916001016103c6565b5090979650505050505050565b6000602080838503121561040b57600080fd5b825167ffffffffffffffff8082111561042357600080fd5b818501915085601f83011261043757600080fd5b81518181111561044957610449610351565b8060051b604051601f19603f8301168101818110858211171561046e5761046e610351565b60405291825284820192508381018501918883111561048c57600080fd5b938501935b8285101561024657845184529385019392850192610491565b6000826104c757634e487b7160e01b600052601260045260246000fd5b500490565b805169ffffffffffffffffffff811681146104e657600080fd5b919050565b600080600080600060a0868803121561050357600080fd5b61050c866104cc565b945060208601519350604086015192506060860151915061052f608087016104cc565b9050929550929590935056fea26469706673582212208f8718de426620102b80559e42e1490d4816f78e3145fa1129c96a08cb59c73164736f6c634300080e0033a26469706673582212204a4cdf25349a6a29922c1c80d858fb5159251ab49f7f70b91f70a784b6f4e72b64736f6c634300080e0033",
  "linkReferences": {},
  "deployedLinkReferences": {}
}