{
  "_format": "hh-sol-artifact-1",
  "contractName": "MetaStocksFranchiseManager",
  "sourceName": "contracts/managers/metastocks/MetaStocksFranchiseManager.sol",
  "abi": [
    {
      "anonymous": false,
      "inputs": [
        {
          "indexed": true,
          "internalType": "address",
          "name": "owner",
          "type": "address"
        },
        {
          "indexed": true,
          "internalType": "address",
          "name": "spender",
          "type": "address"
        },
        {
          "indexed": false,
          "internalType": "uint256",
          "name": "value",
          "type": "uint256"
        }
      ],
      "name": "Approval",
      "type": "event"
    },
    {
      "anonymous": false,
      "inputs": [
        {
          "indexed": false,
          "internalType": "uint8",
          "name": "version",
          "type": "uint8"
        }
      ],
      "name": "Initialized",
      "type": "event"
    },
    {
      "anonymous": false,
      "inputs": [
        {
          "indexed": true,
          "internalType": "address",
          "name": "previousOwner",
          "type": "address"
        },
        {
          "indexed": true,
          "internalType": "address",
          "name": "newOwner",
          "type": "address"
        }
      ],
      "name": "OwnershipTransferred",
      "type": "event"
    },
    {
      "anonymous": false,
      "inputs": [
        {
          "indexed": true,
          "internalType": "address",
          "name": "from",
          "type": "address"
        },
        {
          "indexed": true,
          "internalType": "address",
          "name": "to",
          "type": "address"
        },
        {
          "indexed": false,
          "internalType": "uint256",
          "name": "value",
          "type": "uint256"
        }
      ],
      "name": "Transfer",
      "type": "event"
    },
    {
      "inputs": [
        {
          "internalType": "address",
          "name": "owner",
          "type": "address"
        },
        {
          "internalType": "address",
          "name": "spender",
          "type": "address"
        }
      ],
      "name": "allowance",
      "outputs": [
        {
          "internalType": "uint256",
          "name": "",
          "type": "uint256"
        }
      ],
      "stateMutability": "view",
      "type": "function"
    },
    {
      "inputs": [
        {
          "internalType": "address",
          "name": "spender",
          "type": "address"
        },
        {
          "internalType": "uint256",
          "name": "amount",
          "type": "uint256"
        }
      ],
      "name": "approve",
      "outputs": [
        {
          "internalType": "bool",
          "name": "",
          "type": "bool"
        }
      ],
      "stateMutability": "nonpayable",
      "type": "function"
    },
    {
      "inputs": [
        {
          "internalType": "address",
          "name": "account",
          "type": "address"
        }
      ],
      "name": "balanceOf",
      "outputs": [
        {
          "internalType": "uint256",
          "name": "",
          "type": "uint256"
        }
      ],
      "stateMutability": "view",
      "type": "function"
    },
    {
      "inputs": [
        {
          "internalType": "uint256",
          "name": "",
          "type": "uint256"
        },
        {
          "internalType": "uint256",
          "name": "",
          "type": "uint256"
        }
      ],
      "name": "companyFranchises",
      "outputs": [
        {
          "internalType": "uint256",
          "name": "",
          "type": "uint256"
        }
      ],
      "stateMutability": "view",
      "type": "function"
    },
    {
      "inputs": [],
      "name": "create",
      "outputs": [],
      "stateMutability": "payable",
      "type": "function"
    },
    {
      "inputs": [
        {
          "internalType": "address",
          "name": "to",
          "type": "address"
        },
        {
          "internalType": "uint256",
          "name": "companyId",
          "type": "uint256"
        },
        {
          "internalType": "enum MetaStocksFranchiseType",
          "name": "_metaStocksFranchiseType",
          "type": "uint8"
        },
        {
          "internalType": "bytes",
          "name": "data",
          "type": "bytes"
        }
      ],
      "name": "createMetaStocksFranchise",
      "outputs": [],
      "stateMutability": "nonpayable",
      "type": "function"
    },
    {
      "inputs": [],
      "name": "decimals",
      "outputs": [
        {
          "internalType": "uint8",
          "name": "",
          "type": "uint8"
        }
      ],
      "stateMutability": "view",
      "type": "function"
    },
    {
      "inputs": [
        {
          "internalType": "address",
          "name": "spender",
          "type": "address"
        },
        {
          "internalType": "uint256",
          "name": "subtractedValue",
          "type": "uint256"
        }
      ],
      "name": "decreaseAllowance",
      "outputs": [
        {
          "internalType": "bool",
          "name": "",
          "type": "bool"
        }
      ],
      "stateMutability": "nonpayable",
      "type": "function"
    },
    {
      "inputs": [
        {
          "internalType": "uint256",
          "name": "",
          "type": "uint256"
        },
        {
          "internalType": "uint256",
          "name": "",
          "type": "uint256"
        }
      ],
      "name": "franchisesLastClaimDates",
      "outputs": [
        {
          "internalType": "uint256",
          "name": "",
          "type": "uint256"
        }
      ],
      "stateMutability": "view",
      "type": "function"
    },
    {
      "inputs": [],
      "name": "getCreateFranchisePrice",
      "outputs": [
        {
          "internalType": "uint256",
          "name": "",
          "type": "uint256"
        }
      ],
      "stateMutability": "view",
      "type": "function"
    },
    {
      "inputs": [],
      "name": "getFranchiseDailyEarnings",
      "outputs": [
        {
          "internalType": "uint256",
          "name": "",
          "type": "uint256"
        }
      ],
      "stateMutability": "view",
      "type": "function"
    },
    {
      "inputs": [],
      "name": "getFranchiseValue",
      "outputs": [
        {
          "internalType": "uint256",
          "name": "",
          "type": "uint256"
        }
      ],
      "stateMutability": "view",
      "type": "function"
    },
    {
      "inputs": [],
      "name": "getMaintainceFranchiseExpenses",
      "outputs": [
        {
          "internalType": "uint256",
          "name": "",
          "type": "uint256"
        }
      ],
      "stateMutability": "view",
      "type": "function"
    },
    {
      "inputs": [
        {
          "internalType": "uint256",
          "name": "companyId",
          "type": "uint256"
        }
      ],
      "name": "getMetaStocksFranchisesUnclaimedRewards",
      "outputs": [
        {
          "internalType": "uint256",
          "name": "",
          "type": "uint256"
        }
      ],
      "stateMutability": "view",
      "type": "function"
    },
    {
      "inputs": [
        {
          "internalType": "uint256",
          "name": "companyId",
          "type": "uint256"
        }
      ],
      "name": "getNumberOfMetaStocksFranchises",
      "outputs": [
        {
          "internalType": "uint256",
          "name": "",
          "type": "uint256"
        }
      ],
      "stateMutability": "view",
      "type": "function"
    },
    {
      "inputs": [],
      "name": "getPaymentTokenAddress",
      "outputs": [
        {
          "internalType": "address",
          "name": "",
          "type": "address"
        }
      ],
      "stateMutability": "view",
      "type": "function"
    },
    {
      "inputs": [],
      "name": "getUnclaimedRewards",
      "outputs": [
        {
          "internalType": "uint256",
          "name": "",
          "type": "uint256"
        }
      ],
      "stateMutability": "view",
      "type": "function"
    },
    {
      "inputs": [
        {
          "internalType": "address",
          "name": "spender",
          "type": "address"
        },
        {
          "internalType": "uint256",
          "name": "addedValue",
          "type": "uint256"
        }
      ],
      "name": "increaseAllowance",
      "outputs": [
        {
          "internalType": "bool",
          "name": "",
          "type": "bool"
        }
      ],
      "stateMutability": "nonpayable",
      "type": "function"
    },
    {
      "inputs": [
        {
          "internalType": "address",
          "name": "_metaStocksFranchiseAddress",
          "type": "address"
        }
      ],
      "name": "initialize",
      "outputs": [],
      "stateMutability": "nonpayable",
      "type": "function"
    },
    {
      "inputs": [
        {
          "internalType": "uint256",
          "name": "",
          "type": "uint256"
        }
      ],
      "name": "lastFranchiseClaimDate",
      "outputs": [
        {
          "internalType": "uint256",
          "name": "",
          "type": "uint256"
        }
      ],
      "stateMutability": "view",
      "type": "function"
    },
    {
      "inputs": [],
      "name": "name",
      "outputs": [
        {
          "internalType": "string",
          "name": "",
          "type": "string"
        }
      ],
      "stateMutability": "view",
      "type": "function"
    },
    {
      "inputs": [
        {
          "internalType": "address",
          "name": "",
          "type": "address"
        },
        {
          "internalType": "address",
          "name": "",
          "type": "address"
        },
        {
          "internalType": "uint256[]",
          "name": "",
          "type": "uint256[]"
        },
        {
          "internalType": "uint256[]",
          "name": "",
          "type": "uint256[]"
        },
        {
          "internalType": "bytes",
          "name": "",
          "type": "bytes"
        }
      ],
      "name": "onERC1155BatchReceived",
      "outputs": [
        {
          "internalType": "bytes4",
          "name": "",
          "type": "bytes4"
        }
      ],
      "stateMutability": "nonpayable",
      "type": "function"
    },
    {
      "inputs": [
        {
          "internalType": "address",
          "name": "",
          "type": "address"
        },
        {
          "internalType": "address",
          "name": "",
          "type": "address"
        },
        {
          "internalType": "uint256",
          "name": "",
          "type": "uint256"
        },
        {
          "internalType": "uint256",
          "name": "",
          "type": "uint256"
        },
        {
          "internalType": "bytes",
          "name": "",
          "type": "bytes"
        }
      ],
      "name": "onERC1155Received",
      "outputs": [
        {
          "internalType": "bytes4",
          "name": "",
          "type": "bytes4"
        }
      ],
      "stateMutability": "nonpayable",
      "type": "function"
    },
    {
      "inputs": [],
      "name": "owner",
      "outputs": [
        {
          "internalType": "address",
          "name": "",
          "type": "address"
        }
      ],
      "stateMutability": "view",
      "type": "function"
    },
    {
      "inputs": [
        {
          "internalType": "uint256",
          "name": "companyId",
          "type": "uint256"
        }
      ],
      "name": "remove",
      "outputs": [],
      "stateMutability": "nonpayable",
      "type": "function"
    },
    {
      "inputs": [],
      "name": "renounceOwnership",
      "outputs": [],
      "stateMutability": "nonpayable",
      "type": "function"
    },
    {
      "inputs": [
        {
          "internalType": "uint16",
          "name": "_createFranchisePrice",
          "type": "uint16"
        }
      ],
      "name": "setCreateFranchisePrice",
      "outputs": [],
      "stateMutability": "nonpayable",
      "type": "function"
    },
    {
      "inputs": [
        {
          "internalType": "uint16",
          "name": "_franchiseDailyEarnings",
          "type": "uint16"
        }
      ],
      "name": "setFranchiseDailyEarnings",
      "outputs": [],
      "stateMutability": "nonpayable",
      "type": "function"
    },
    {
      "inputs": [
        {
          "internalType": "uint16",
          "name": "_maintainceFranchiseExpenses",
          "type": "uint16"
        }
      ],
      "name": "setMaintainceFranchiseExpenses",
      "outputs": [],
      "stateMutability": "nonpayable",
      "type": "function"
    },
    {
      "inputs": [
        {
          "internalType": "address",
          "name": "_paymentTokenAddress",
          "type": "address"
        }
      ],
      "name": "setPaymentTokenAddress",
      "outputs": [],
      "stateMutability": "nonpayable",
      "type": "function"
    },
    {
      "inputs": [
        {
          "internalType": "address",
          "name": "_paymentTokenAddress",
          "type": "address"
        }
      ],
      "name": "setPaymentTokenAddress222",
      "outputs": [],
      "stateMutability": "nonpayable",
      "type": "function"
    },
    {
      "inputs": [
        {
          "internalType": "bytes4",
          "name": "interfaceId",
          "type": "bytes4"
        }
      ],
      "name": "supportsInterface",
      "outputs": [
        {
          "internalType": "bool",
          "name": "",
          "type": "bool"
        }
      ],
      "stateMutability": "view",
      "type": "function"
    },
    {
      "inputs": [],
      "name": "symbol",
      "outputs": [
        {
          "internalType": "string",
          "name": "",
          "type": "string"
        }
      ],
      "stateMutability": "view",
      "type": "function"
    },
    {
      "inputs": [],
      "name": "totalSupply",
      "outputs": [
        {
          "internalType": "uint256",
          "name": "",
          "type": "uint256"
        }
      ],
      "stateMutability": "view",
      "type": "function"
    },
    {
      "inputs": [
        {
          "internalType": "address",
          "name": "to",
          "type": "address"
        },
        {
          "internalType": "uint256",
          "name": "amount",
          "type": "uint256"
        }
      ],
      "name": "transfer",
      "outputs": [
        {
          "internalType": "bool",
          "name": "",
          "type": "bool"
        }
      ],
      "stateMutability": "nonpayable",
      "type": "function"
    },
    {
      "inputs": [
        {
          "internalType": "address",
          "name": "from",
          "type": "address"
        },
        {
          "internalType": "address",
          "name": "to",
          "type": "address"
        },
        {
          "internalType": "uint256",
          "name": "amount",
          "type": "uint256"
        }
      ],
      "name": "transferFrom",
      "outputs": [
        {
          "internalType": "bool",
          "name": "",
          "type": "bool"
        }
      ],
      "stateMutability": "nonpayable",
      "type": "function"
    },
    {
      "inputs": [
        {
          "internalType": "address",
          "name": "newOwner",
          "type": "address"
        }
      ],
      "name": "transferOwnership",
      "outputs": [],
      "stateMutability": "nonpayable",
      "type": "function"
    },
    {
      "inputs": [
        {
          "internalType": "uint256",
          "name": "managerId",
          "type": "uint256"
        }
      ],
      "name": "update",
      "outputs": [],
      "stateMutability": "nonpayable",
      "type": "function"
    }
  ],
  "bytecode": "0x608060405234801561001057600080fd5b5061177a806100206000396000f3fe6080604052600436106102055760003560e01c80638da5cb5b11610113578063bc197c81116100ab578063dd62ed3e1161006f578063dd62ed3e14610638578063dea182c114610658578063efc81a8c146102f5578063f23a6e6114610676578063f2fde38b146106a257600080fd5b8063bc197c8114610582578063be154d2b146105c7578063c4d66de8146105eb578063c56956ce1461060b578063dcb98f7e146103aa57600080fd5b80638da5cb5b1461045257806395d89b41146104845780639d58f3e0146102815780639e201466146104995780639f2e747f146104bd578063a457c2d7146104d2578063a4db7d15146104f2578063a9059cbb1461052a578063b5ea89451461054a57600080fd5b8063313ce567116101a15780636188389c116101655780636188389c146103aa57806370a08231146103e7578063715018a61461041d5780637d9614d91461043257806382ab890a1461038c57600080fd5b8063313ce56714610330578063395093511461034c57806340f1b9381461036c57806344716080146102815780634cc822151461038c57600080fd5b806301ffc9a71461020a57806306fdde031461023f578063095ea7b314610261578063162302571461028157806318160ddd146102a057806323b872dd146102b5578063252d725c146102d55780632a5bb068146102f75780632c602e5b1461031b575b600080fd5b34801561021657600080fd5b5061022a610225366004611120565b6106c2565b60405190151581526020015b60405180910390f35b34801561024b57600080fd5b506102546106d3565b604051610236919061119e565b34801561026d57600080fd5b5061022a61027c3660046111c8565b610765565b34801561028d57600080fd5b50609b545b604051908152602001610236565b3480156102ac57600080fd5b50603554610292565b3480156102c157600080fd5b5061022a6102d03660046111f2565b61077d565b3480156102e157600080fd5b506102f56102f03660046112e5565b6107a1565b005b34801561030357600080fd5b506102f5610312366004611353565b61ffff16609a55565b34801561032757600080fd5b50609954610292565b34801561033c57600080fd5b5060405160128152602001610236565b34801561035857600080fd5b5061022a6103673660046111c8565b610954565b34801561037857600080fd5b50610292610387366004611377565b610976565b34801561039857600080fd5b506102f56103a7366004611377565b50565b3480156103b657600080fd5b506102f56103c5366004611390565b609c80546001600160a01b0319166001600160a01b0392909216919091179055565b3480156103f357600080fd5b50610292610402366004611390565b6001600160a01b031660009081526033602052604090205490565b34801561042957600080fd5b506102f5610a07565b34801561043e57600080fd5b5061029261044d366004611377565b610a46565b34801561045e57600080fd5b506065546001600160a01b03165b6040516001600160a01b039091168152602001610236565b34801561049057600080fd5b50610254610a8c565b3480156104a557600080fd5b506102f56104b4366004611353565b61ffff16609b55565b3480156104c957600080fd5b50609a54610292565b3480156104de57600080fd5b5061022a6104ed3660046111c8565b610a9b565b3480156104fe57600080fd5b5061029261050d3660046113ab565b609e60209081526000928352604080842090915290825290205481565b34801561053657600080fd5b5061022a6105453660046111c8565b610b16565b34801561055657600080fd5b506102926105653660046113ab565b609f60209081526000928352604080842090915290825290205481565b34801561058e57600080fd5b506105ae61059d36600461144d565b63bc197c8160e01b95945050505050565b6040516001600160e01b03199091168152602001610236565b3480156105d357600080fd5b506102f56105e2366004611353565b61ffff16609955565b3480156105f757600080fd5b506102f5610606366004611390565b610b24565b34801561061757600080fd5b50610292610626366004611377565b609d6020526000908152604090205481565b34801561064457600080fd5b506102926106533660046114f7565b610bdd565b34801561066457600080fd5b50609c546001600160a01b031661046c565b34801561068257600080fd5b506105ae61069136600461152a565b63f23a6e6160e01b95945050505050565b3480156106ae57600080fd5b506102f56106bd366004611390565b610c08565b60006106cd82610ca0565b92915050565b6060603680546106e29061158f565b80601f016020809104026020016040519081016040528092919081815260200182805461070e9061158f565b801561075b5780601f106107305761010080835404028352916020019161075b565b820191906000526020600020905b81548152906001019060200180831161073e57829003601f168201915b5050505050905090565b600033610773818585610cd5565b5060019392505050565b60003361078b858285610df9565b610796858585610e73565b506001949350505050565b609c546040516323b872dd60e01b81523360048201526001600160a01b0390911660248201819052678ac7230489e800006044830152906323b872dd906064016020604051808303816000875af1158015610800573d6000803e3d6000fd5b505050506040513d601f19601f8201168201806040525081019061082491906115c9565b506097546040516370d8209160e11b81526000916001600160a01b03169063e1b04122906108569086906004016115eb565b602060405180830381865afa158015610873573d6000803e3d6000fd5b505050506040513d601f19601f820116820180604052508101906108979190611613565b60975460405163731133e960e01b81529192506001600160a01b03169063731133e9906108cf9088908590600190889060040161162c565b600060405180830381600087803b1580156108e957600080fd5b505af11580156108fd573d6000803e3d6000fd5b5050506000858152609e60209081526040808320858452909152812080546001935090919061092d908490611679565b90915550506000938452609f60209081526040808620928652919052909220429055505050565b6000336107738185856109678383610bdd565b6109719190611679565b610cd5565b600080805b600a811015610a00576000848152609e60209081526040808320848452909152812054905b818110156109eb576000868152609f602090815260408083208584529091529020546109cd904290611691565b6109d79085611679565b9350806109e3816116a8565b9150506109a0565b505080806109f8906116a8565b91505061097b565b5092915050565b6065546001600160a01b03163314610a3a5760405162461bcd60e51b8152600401610a31906116c1565b60405180910390fd5b610a446000611041565b565b600080805b600a811015610a00576000848152609e60209081526040808320848452909152902054610a789083611679565b915080610a84816116a8565b915050610a4b565b6060603780546106e29061158f565b60003381610aa98286610bdd565b905083811015610b095760405162461bcd60e51b815260206004820152602560248201527f45524332303a2064656372656173656420616c6c6f77616e63652062656c6f77604482015264207a65726f60d81b6064820152608401610a31565b6107968286868403610cd5565b600033610773818585610e73565b6000610b306001611093565b90508015610b48576000805461ff0019166101001790555b678ac7230489e80000609955670de0b6b3a7640000609a5567016345785d8a0000609b55609c80546001600160a01b0319908116909155609780549091166001600160a01b0384161790558015610bd9576000805461ff0019169055604051600181527f7f26b83ff96e1f2b6a682f133852f6798a09c465da95921460cefb38474024989060200160405180910390a15b5050565b6001600160a01b03918216600090815260346020908152604080832093909416825291909152205490565b6065546001600160a01b03163314610c325760405162461bcd60e51b8152600401610a31906116c1565b6001600160a01b038116610c975760405162461bcd60e51b815260206004820152602660248201527f4f776e61626c653a206e6577206f776e657220697320746865207a65726f206160448201526564647265737360d01b6064820152608401610a31565b6103a781611041565b60006001600160e01b03198216630271189760e51b14806106cd57506301ffc9a760e01b6001600160e01b03198316146106cd565b6001600160a01b038316610d375760405162461bcd60e51b8152602060048201526024808201527f45524332303a20617070726f76652066726f6d20746865207a65726f206164646044820152637265737360e01b6064820152608401610a31565b6001600160a01b038216610d985760405162461bcd60e51b815260206004820152602260248201527f45524332303a20617070726f766520746f20746865207a65726f206164647265604482015261737360f01b6064820152608401610a31565b6001600160a01b0383811660008181526034602090815260408083209487168084529482529182902085905590518481527f8c5be1e5ebec7d5bd14f71427d1e84f3dd0314c0f7b2291e5b200ac8c7c3b925910160405180910390a3505050565b6000610e058484610bdd565b90506000198114610e6d5781811015610e605760405162461bcd60e51b815260206004820152601d60248201527f45524332303a20696e73756666696369656e7420616c6c6f77616e63650000006044820152606401610a31565b610e6d8484848403610cd5565b50505050565b6001600160a01b038316610ed75760405162461bcd60e51b815260206004820152602560248201527f45524332303a207472616e736665722066726f6d20746865207a65726f206164604482015264647265737360d81b6064820152608401610a31565b6001600160a01b038216610f395760405162461bcd60e51b815260206004820152602360248201527f45524332303a207472616e7366657220746f20746865207a65726f206164647260448201526265737360e81b6064820152608401610a31565b6001600160a01b03831660009081526033602052604090205481811015610fb15760405162461bcd60e51b815260206004820152602660248201527f45524332303a207472616e7366657220616d6f756e7420657863656564732062604482015265616c616e636560d01b6064820152608401610a31565b6001600160a01b03808516600090815260336020526040808220858503905591851681529081208054849290610fe8908490611679565b92505081905550826001600160a01b0316846001600160a01b03167fddf252ad1be2c89b69c2b068fc378daa952ba7f163c4a11628f55a4df523b3ef8460405161103491815260200190565b60405180910390a3610e6d565b606580546001600160a01b038381166001600160a01b0319831681179093556040519116919082907f8be0079c531659141344cd1fd0a4f28419497f9722a3daafe3b4186f6b6457e090600090a35050565b60008054610100900460ff16156110da578160ff1660011480156110b65750303b155b6110d25760405162461bcd60e51b8152600401610a31906116f6565b506000919050565b60005460ff8084169116106111015760405162461bcd60e51b8152600401610a31906116f6565b506000805460ff191660ff92909216919091179055600190565b919050565b60006020828403121561113257600080fd5b81356001600160e01b03198116811461114a57600080fd5b9392505050565b6000815180845260005b818110156111775760208185018101518683018201520161115b565b81811115611189576000602083870101525b50601f01601f19169290920160200192915050565b60208152600061114a6020830184611151565b80356001600160a01b038116811461111b57600080fd5b600080604083850312156111db57600080fd5b6111e4836111b1565b946020939093013593505050565b60008060006060848603121561120757600080fd5b611210846111b1565b925061121e602085016111b1565b9150604084013590509250925092565b634e487b7160e01b600052604160045260246000fd5b604051601f8201601f1916810167ffffffffffffffff8111828210171561126d5761126d61122e565b604052919050565b600082601f83011261128657600080fd5b813567ffffffffffffffff8111156112a0576112a061122e565b6112b3601f8201601f1916602001611244565b8181528460208386010111156112c857600080fd5b816020850160208301376000918101602001919091529392505050565b600080600080608085870312156112fb57600080fd5b611304856111b1565b9350602085013592506040850135600a811061131f57600080fd5b9150606085013567ffffffffffffffff81111561133b57600080fd5b61134787828801611275565b91505092959194509250565b60006020828403121561136557600080fd5b813561ffff8116811461114a57600080fd5b60006020828403121561138957600080fd5b5035919050565b6000602082840312156113a257600080fd5b61114a826111b1565b600080604083850312156113be57600080fd5b50508035926020909101359150565b600082601f8301126113de57600080fd5b8135602067ffffffffffffffff8211156113fa576113fa61122e565b8160051b611409828201611244565b928352848101820192828101908785111561142357600080fd5b83870192505b8483101561144257823582529183019190830190611429565b979650505050505050565b600080600080600060a0868803121561146557600080fd5b61146e866111b1565b945061147c602087016111b1565b9350604086013567ffffffffffffffff8082111561149957600080fd5b6114a589838a016113cd565b945060608801359150808211156114bb57600080fd5b6114c789838a016113cd565b935060808801359150808211156114dd57600080fd5b506114ea88828901611275565b9150509295509295909350565b6000806040838503121561150a57600080fd5b611513836111b1565b9150611521602084016111b1565b90509250929050565b600080600080600060a0868803121561154257600080fd5b61154b866111b1565b9450611559602087016111b1565b93506040860135925060608601359150608086013567ffffffffffffffff81111561158357600080fd5b6114ea88828901611275565b600181811c908216806115a357607f821691505b6020821081036115c357634e487b7160e01b600052602260045260246000fd5b50919050565b6000602082840312156115db57600080fd5b8151801515811461114a57600080fd5b60208101600a831061160d57634e487b7160e01b600052602160045260246000fd5b91905290565b60006020828403121561162557600080fd5b5051919050565b60018060a01b03851681528360208201528260408201526080606082015260006116596080830184611151565b9695505050505050565b634e487b7160e01b600052601160045260246000fd5b6000821982111561168c5761168c611663565b500190565b6000828210156116a3576116a3611663565b500390565b6000600182016116ba576116ba611663565b5060010190565b6020808252818101527f4f776e61626c653a2063616c6c6572206973206e6f7420746865206f776e6572604082015260600190565b6020808252602e908201527f496e697469616c697a61626c653a20636f6e747261637420697320616c72656160408201526d191e481a5b9a5d1a585b1a5e995960921b60608201526080019056fea26469706673582212203d95c77630b19a250c735ba6dba34afd9e76129a7cec6e14e9504a7742ffde3d64736f6c634300080e0033",
  "linkReferences": {},
  "deployedLinkReferences": {}
}