{
  "_format": "hh-sol-artifact-1",
  "contractName": "MetaStocksFranchiseManager",
  "sourceName": "contracts/managers/metastocks/MetaStocksFranchiseManager.sol",
  "abi": [
    {
      "anonymous": false,
      "inputs": [
        {
          "indexed": true,
          "internalType": "address",
          "name": "owner",
          "type": "address"
        },
        {
          "indexed": true,
          "internalType": "address",
          "name": "spender",
          "type": "address"
        },
        {
          "indexed": false,
          "internalType": "uint256",
          "name": "value",
          "type": "uint256"
        }
      ],
      "name": "Approval",
      "type": "event"
    },
    {
      "anonymous": false,
      "inputs": [
        {
          "indexed": false,
          "internalType": "uint8",
          "name": "version",
          "type": "uint8"
        }
      ],
      "name": "Initialized",
      "type": "event"
    },
    {
      "anonymous": false,
      "inputs": [
        {
          "indexed": true,
          "internalType": "address",
          "name": "previousOwner",
          "type": "address"
        },
        {
          "indexed": true,
          "internalType": "address",
          "name": "newOwner",
          "type": "address"
        }
      ],
      "name": "OwnershipTransferred",
      "type": "event"
    },
    {
      "anonymous": false,
      "inputs": [
        {
          "indexed": true,
          "internalType": "address",
          "name": "from",
          "type": "address"
        },
        {
          "indexed": true,
          "internalType": "address",
          "name": "to",
          "type": "address"
        },
        {
          "indexed": false,
          "internalType": "uint256",
          "name": "value",
          "type": "uint256"
        }
      ],
      "name": "Transfer",
      "type": "event"
    },
    {
      "inputs": [
        {
          "internalType": "address",
          "name": "owner",
          "type": "address"
        },
        {
          "internalType": "address",
          "name": "spender",
          "type": "address"
        }
      ],
      "name": "allowance",
      "outputs": [
        {
          "internalType": "uint256",
          "name": "",
          "type": "uint256"
        }
      ],
      "stateMutability": "view",
      "type": "function"
    },
    {
      "inputs": [
        {
          "internalType": "address",
          "name": "spender",
          "type": "address"
        },
        {
          "internalType": "uint256",
          "name": "amount",
          "type": "uint256"
        }
      ],
      "name": "approve",
      "outputs": [
        {
          "internalType": "bool",
          "name": "",
          "type": "bool"
        }
      ],
      "stateMutability": "nonpayable",
      "type": "function"
    },
    {
      "inputs": [
        {
          "internalType": "address",
          "name": "account",
          "type": "address"
        }
      ],
      "name": "balanceOf",
      "outputs": [
        {
          "internalType": "uint256",
          "name": "",
          "type": "uint256"
        }
      ],
      "stateMutability": "view",
      "type": "function"
    },
    {
      "inputs": [
        {
          "internalType": "uint256",
          "name": "_companyId",
          "type": "uint256"
        }
      ],
      "name": "claimFromAllFranchises",
      "outputs": [],
      "stateMutability": "nonpayable",
      "type": "function"
    },
    {
      "inputs": [
        {
          "internalType": "uint256",
          "name": "",
          "type": "uint256"
        },
        {
          "internalType": "uint256",
          "name": "",
          "type": "uint256"
        }
      ],
      "name": "companyFranchises",
      "outputs": [
        {
          "internalType": "uint256",
          "name": "",
          "type": "uint256"
        }
      ],
      "stateMutability": "view",
      "type": "function"
    },
    {
      "inputs": [
        {
          "internalType": "address",
          "name": "to",
          "type": "address"
        },
        {
          "internalType": "uint256",
          "name": "companyId",
          "type": "uint256"
        },
        {
          "internalType": "enum MetaStocksFranchiseType",
          "name": "_metaStocksFranchiseType",
          "type": "uint8"
        },
        {
          "internalType": "bytes",
          "name": "data",
          "type": "bytes"
        }
      ],
      "name": "createMetaStocksFranchise",
      "outputs": [],
      "stateMutability": "nonpayable",
      "type": "function"
    },
    {
      "inputs": [],
      "name": "decimals",
      "outputs": [
        {
          "internalType": "uint8",
          "name": "",
          "type": "uint8"
        }
      ],
      "stateMutability": "view",
      "type": "function"
    },
    {
      "inputs": [
        {
          "internalType": "address",
          "name": "spender",
          "type": "address"
        },
        {
          "internalType": "uint256",
          "name": "subtractedValue",
          "type": "uint256"
        }
      ],
      "name": "decreaseAllowance",
      "outputs": [
        {
          "internalType": "bool",
          "name": "",
          "type": "bool"
        }
      ],
      "stateMutability": "nonpayable",
      "type": "function"
    },
    {
      "inputs": [
        {
          "internalType": "uint256",
          "name": "",
          "type": "uint256"
        },
        {
          "internalType": "uint256",
          "name": "",
          "type": "uint256"
        }
      ],
      "name": "franchisesLastClaimDates",
      "outputs": [
        {
          "internalType": "uint256",
          "name": "",
          "type": "uint256"
        }
      ],
      "stateMutability": "view",
      "type": "function"
    },
    {
      "inputs": [],
      "name": "getCreateFranchisePrice",
      "outputs": [
        {
          "internalType": "uint256",
          "name": "",
          "type": "uint256"
        }
      ],
      "stateMutability": "view",
      "type": "function"
    },
    {
      "inputs": [],
      "name": "getFranchiseDailyEarnings",
      "outputs": [
        {
          "internalType": "uint256",
          "name": "",
          "type": "uint256"
        }
      ],
      "stateMutability": "view",
      "type": "function"
    },
    {
      "inputs": [],
      "name": "getFranchiseValue",
      "outputs": [
        {
          "internalType": "uint256",
          "name": "",
          "type": "uint256"
        }
      ],
      "stateMutability": "view",
      "type": "function"
    },
    {
      "inputs": [],
      "name": "getMaintainceFranchiseExpenses",
      "outputs": [
        {
          "internalType": "uint256",
          "name": "",
          "type": "uint256"
        }
      ],
      "stateMutability": "view",
      "type": "function"
    },
    {
      "inputs": [
        {
          "internalType": "uint256",
          "name": "companyId",
          "type": "uint256"
        }
      ],
      "name": "getMetaStocksFranchisesUnclaimedRewards",
      "outputs": [
        {
          "internalType": "uint256",
          "name": "",
          "type": "uint256"
        }
      ],
      "stateMutability": "view",
      "type": "function"
    },
    {
      "inputs": [
        {
          "internalType": "uint256",
          "name": "companyId",
          "type": "uint256"
        }
      ],
      "name": "getNumberOfMetaStocksFranchises",
      "outputs": [
        {
          "internalType": "uint256",
          "name": "",
          "type": "uint256"
        }
      ],
      "stateMutability": "view",
      "type": "function"
    },
    {
      "inputs": [],
      "name": "getPaymentTokenAddress",
      "outputs": [
        {
          "internalType": "address",
          "name": "",
          "type": "address"
        }
      ],
      "stateMutability": "view",
      "type": "function"
    },
    {
      "inputs": [
        {
          "internalType": "address",
          "name": "spender",
          "type": "address"
        },
        {
          "internalType": "uint256",
          "name": "addedValue",
          "type": "uint256"
        }
      ],
      "name": "increaseAllowance",
      "outputs": [
        {
          "internalType": "bool",
          "name": "",
          "type": "bool"
        }
      ],
      "stateMutability": "nonpayable",
      "type": "function"
    },
    {
      "inputs": [
        {
          "internalType": "address",
          "name": "_metaStocksFranchiseAddress",
          "type": "address"
        }
      ],
      "name": "initialize",
      "outputs": [],
      "stateMutability": "nonpayable",
      "type": "function"
    },
    {
      "inputs": [
        {
          "internalType": "uint256",
          "name": "",
          "type": "uint256"
        }
      ],
      "name": "lastFranchiseClaimDate",
      "outputs": [
        {
          "internalType": "uint256",
          "name": "",
          "type": "uint256"
        }
      ],
      "stateMutability": "view",
      "type": "function"
    },
    {
      "inputs": [],
      "name": "name",
      "outputs": [
        {
          "internalType": "string",
          "name": "",
          "type": "string"
        }
      ],
      "stateMutability": "view",
      "type": "function"
    },
    {
      "inputs": [
        {
          "internalType": "address",
          "name": "",
          "type": "address"
        },
        {
          "internalType": "address",
          "name": "",
          "type": "address"
        },
        {
          "internalType": "uint256[]",
          "name": "",
          "type": "uint256[]"
        },
        {
          "internalType": "uint256[]",
          "name": "",
          "type": "uint256[]"
        },
        {
          "internalType": "bytes",
          "name": "",
          "type": "bytes"
        }
      ],
      "name": "onERC1155BatchReceived",
      "outputs": [
        {
          "internalType": "bytes4",
          "name": "",
          "type": "bytes4"
        }
      ],
      "stateMutability": "nonpayable",
      "type": "function"
    },
    {
      "inputs": [
        {
          "internalType": "address",
          "name": "",
          "type": "address"
        },
        {
          "internalType": "address",
          "name": "",
          "type": "address"
        },
        {
          "internalType": "uint256",
          "name": "",
          "type": "uint256"
        },
        {
          "internalType": "uint256",
          "name": "",
          "type": "uint256"
        },
        {
          "internalType": "bytes",
          "name": "",
          "type": "bytes"
        }
      ],
      "name": "onERC1155Received",
      "outputs": [
        {
          "internalType": "bytes4",
          "name": "",
          "type": "bytes4"
        }
      ],
      "stateMutability": "nonpayable",
      "type": "function"
    },
    {
      "inputs": [],
      "name": "owner",
      "outputs": [
        {
          "internalType": "address",
          "name": "",
          "type": "address"
        }
      ],
      "stateMutability": "view",
      "type": "function"
    },
    {
      "inputs": [],
      "name": "renounceOwnership",
      "outputs": [],
      "stateMutability": "nonpayable",
      "type": "function"
    },
    {
      "inputs": [],
      "name": "self",
      "outputs": [
        {
          "internalType": "address",
          "name": "",
          "type": "address"
        }
      ],
      "stateMutability": "view",
      "type": "function"
    },
    {
      "inputs": [
        {
          "internalType": "uint16",
          "name": "_createFranchisePrice",
          "type": "uint16"
        }
      ],
      "name": "setCreateFranchisePrice",
      "outputs": [],
      "stateMutability": "nonpayable",
      "type": "function"
    },
    {
      "inputs": [
        {
          "internalType": "uint16",
          "name": "_franchiseDailyEarnings",
          "type": "uint16"
        }
      ],
      "name": "setFranchiseDailyEarnings",
      "outputs": [],
      "stateMutability": "nonpayable",
      "type": "function"
    },
    {
      "inputs": [
        {
          "internalType": "uint16",
          "name": "_maintainceFranchiseExpenses",
          "type": "uint16"
        }
      ],
      "name": "setMaintainceFranchiseExpenses",
      "outputs": [],
      "stateMutability": "nonpayable",
      "type": "function"
    },
    {
      "inputs": [
        {
          "internalType": "address",
          "name": "_paymentTokenAddress",
          "type": "address"
        }
      ],
      "name": "setPaymentTokenAddress",
      "outputs": [],
      "stateMutability": "nonpayable",
      "type": "function"
    },
    {
      "inputs": [
        {
          "internalType": "bytes4",
          "name": "interfaceId",
          "type": "bytes4"
        }
      ],
      "name": "supportsInterface",
      "outputs": [
        {
          "internalType": "bool",
          "name": "",
          "type": "bool"
        }
      ],
      "stateMutability": "view",
      "type": "function"
    },
    {
      "inputs": [],
      "name": "symbol",
      "outputs": [
        {
          "internalType": "string",
          "name": "",
          "type": "string"
        }
      ],
      "stateMutability": "view",
      "type": "function"
    },
    {
      "inputs": [],
      "name": "totalSupply",
      "outputs": [
        {
          "internalType": "uint256",
          "name": "",
          "type": "uint256"
        }
      ],
      "stateMutability": "view",
      "type": "function"
    },
    {
      "inputs": [
        {
          "internalType": "address",
          "name": "to",
          "type": "address"
        },
        {
          "internalType": "uint256",
          "name": "amount",
          "type": "uint256"
        }
      ],
      "name": "transfer",
      "outputs": [
        {
          "internalType": "bool",
          "name": "",
          "type": "bool"
        }
      ],
      "stateMutability": "nonpayable",
      "type": "function"
    },
    {
      "inputs": [
        {
          "internalType": "address",
          "name": "from",
          "type": "address"
        },
        {
          "internalType": "address",
          "name": "to",
          "type": "address"
        },
        {
          "internalType": "uint256",
          "name": "amount",
          "type": "uint256"
        }
      ],
      "name": "transferFrom",
      "outputs": [
        {
          "internalType": "bool",
          "name": "",
          "type": "bool"
        }
      ],
      "stateMutability": "nonpayable",
      "type": "function"
    },
    {
      "inputs": [
        {
          "internalType": "address",
          "name": "newOwner",
          "type": "address"
        }
      ],
      "name": "transferOwnership",
      "outputs": [],
      "stateMutability": "nonpayable",
      "type": "function"
    }
  ],
  "bytecode": "0x608060405234801561001057600080fd5b50611646806100206000396000f3fe608060405234801561001057600080fd5b50600436106101d15760003560e01c806395d89b4111610105578063bc197c811161009d578063bc197c81146103e1578063be154d2b14610419578063c4d66de814610430578063c56956ce14610443578063dcb98f7e14610463578063dd62ed3e14610493578063dea182c1146104a6578063f23a6e61146104b7578063f2fde38b146104d657600080fd5b806395d89b411461032b57806399dc7d9c146103335780639d58f3e0146102b45780639e201466146103465780639f2e747f1461035d578063a457c2d714610365578063a4db7d1514610378578063a9059cbb146103a3578063b5ea8945146103b657600080fd5b8063313ce56711610178578063313ce5671461027f578063395093511461028e57806340f1b938146102a157806344716080146102b457806370a08231146102bc5780637104ddb2146102e5578063715018a6146102ff5780637d9614d9146103075780638da5cb5b1461031a57600080fd5b806301ffc9a7146101d657806306fdde03146101fe578063095ea7b31461021357806318160ddd1461022657806323b872dd14610238578063252d725c1461024b5780632a5bb068146102605780632c602e5b14610277575b600080fd5b6101e96101e4366004610fc8565b6104e9565b60405190151581526020015b60405180910390f35b6102066104fa565b6040516101f59190611046565b6101e9610221366004611070565b61058c565b6035545b6040519081526020016101f5565b6101e961024636600461109a565b6105a4565b61025e61025936600461118d565b6105c8565b005b61025e61026e3660046111fb565b61ffff16609a55565b60995461022a565b604051601281526020016101f5565b6101e961029c366004611070565b610770565b61022a6102af36600461121f565b610792565b609b5461022a565b61022a6102ca366004611238565b6001600160a01b031660009081526033602052604090205490565b305b6040516001600160a01b0390911681526020016101f5565b61025e610823565b61022a61031536600461121f565b610862565b6065546001600160a01b03166102e7565b6102066108a8565b61025e61034136600461121f565b6108b7565b61025e6103543660046111fb565b61ffff16609b55565b609a5461022a565b6101e9610373366004611070565b61093f565b61022a610386366004611253565b609e60209081526000928352604080842090915290825290205481565b6101e96103b1366004611070565b6109ba565b61022a6103c4366004611253565b609f60209081526000928352604080842090915290825290205481565b6104006103ef3660046112f5565b63bc197c8160e01b95945050505050565b6040516001600160e01b031990911681526020016101f5565b61025e6104273660046111fb565b61ffff16609955565b61025e61043e366004611238565b6109c8565b61022a61045136600461121f565b609d6020526000908152604090205481565b61025e610471366004611238565b609c80546001600160a01b0319166001600160a01b0392909216919091179055565b61022a6104a136600461139f565b610a82565b609c546001600160a01b03166102e7565b6104006104c53660046113d2565b63f23a6e6160e01b95945050505050565b61025e6104e4366004611238565b610aad565b60006104f482610b48565b92915050565b60606036805461050990611437565b80601f016020809104026020016040519081016040528092919081815260200182805461053590611437565b80156105825780601f1061055757610100808354040283529160200191610582565b820191906000526020600020905b81548152906001019060200180831161056557829003601f168201915b5050505050905090565b60003361059a818585610b7d565b5060019392505050565b6000336105b2858285610ca1565b6105bd858585610d1b565b506001949350505050565b609c546099546040516323b872dd60e01b81526001600160a01b03909216916323b872dd916105fd9133913091600401611471565b6020604051808303816000875af115801561061c573d6000803e3d6000fd5b505050506040513d601f19601f820116820180604052508101906106409190611495565b506097546040516370d8209160e11b81526000916001600160a01b03169063e1b04122906106729086906004016114b7565b602060405180830381865afa15801561068f573d6000803e3d6000fd5b505050506040513d601f19601f820116820180604052508101906106b391906114df565b60975460405163731133e960e01b81529192506001600160a01b03169063731133e9906106eb908890859060019088906004016114f8565b600060405180830381600087803b15801561070557600080fd5b505af1158015610719573d6000803e3d6000fd5b5050506000858152609e602090815260408083208584529091528120805460019350909190610749908490611545565b90915550506000938452609f60209081526040808620928652919052909220429055505050565b60003361059a8185856107838383610a82565b61078d9190611545565b610b7d565b600080805b600a81101561081c576000848152609e60209081526040808320848452909152812054905b81811015610807576000868152609f602090815260408083208584529091529020546107e990429061155d565b6107f39085611545565b9350806107ff81611574565b9150506107bc565b5050808061081490611574565b915050610797565b5092915050565b6065546001600160a01b031633146108565760405162461bcd60e51b815260040161084d9061158d565b60405180910390fd5b6108606000610ee9565b565b600080805b600a81101561081c576000848152609e602090815260408083208484529091529020546108949083611545565b9150806108a081611574565b915050610867565b60606037805461050990611437565b60006108c282610792565b609c546040516323b872dd60e01b81529192506001600160a01b0316906323b872dd906108f790309033908690600401611471565b6020604051808303816000875af1158015610916573d6000803e3d6000fd5b505050506040513d601f19601f8201168201806040525081019061093a9190611495565b505050565b6000338161094d8286610a82565b9050838110156109ad5760405162461bcd60e51b815260206004820152602560248201527f45524332303a2064656372656173656420616c6c6f77616e63652062656c6f77604482015264207a65726f60d81b606482015260840161084d565b6105bd8286868403610b7d565b60003361059a818585610d1b565b60006109d46001610f3b565b905080156109ec576000805461ff0019166101001790555b68056bc75e2d63100000609955678ac7230489e80000609b55670de0b6b3a7640000609a55609c80546001600160a01b0319908116909155609780549091166001600160a01b0384161790558015610a7e576000805461ff0019169055604051600181527f7f26b83ff96e1f2b6a682f133852f6798a09c465da95921460cefb38474024989060200160405180910390a15b5050565b6001600160a01b03918216600090815260346020908152604080832093909416825291909152205490565b6065546001600160a01b03163314610ad75760405162461bcd60e51b815260040161084d9061158d565b6001600160a01b038116610b3c5760405162461bcd60e51b815260206004820152602660248201527f4f776e61626c653a206e6577206f776e657220697320746865207a65726f206160448201526564647265737360d01b606482015260840161084d565b610b4581610ee9565b50565b60006001600160e01b03198216630271189760e51b14806104f457506301ffc9a760e01b6001600160e01b03198316146104f4565b6001600160a01b038316610bdf5760405162461bcd60e51b8152602060048201526024808201527f45524332303a20617070726f76652066726f6d20746865207a65726f206164646044820152637265737360e01b606482015260840161084d565b6001600160a01b038216610c405760405162461bcd60e51b815260206004820152602260248201527f45524332303a20617070726f766520746f20746865207a65726f206164647265604482015261737360f01b606482015260840161084d565b6001600160a01b0383811660008181526034602090815260408083209487168084529482529182902085905590518481527f8c5be1e5ebec7d5bd14f71427d1e84f3dd0314c0f7b2291e5b200ac8c7c3b925910160405180910390a3505050565b6000610cad8484610a82565b90506000198114610d155781811015610d085760405162461bcd60e51b815260206004820152601d60248201527f45524332303a20696e73756666696369656e7420616c6c6f77616e6365000000604482015260640161084d565b610d158484848403610b7d565b50505050565b6001600160a01b038316610d7f5760405162461bcd60e51b815260206004820152602560248201527f45524332303a207472616e736665722066726f6d20746865207a65726f206164604482015264647265737360d81b606482015260840161084d565b6001600160a01b038216610de15760405162461bcd60e51b815260206004820152602360248201527f45524332303a207472616e7366657220746f20746865207a65726f206164647260448201526265737360e81b606482015260840161084d565b6001600160a01b03831660009081526033602052604090205481811015610e595760405162461bcd60e51b815260206004820152602660248201527f45524332303a207472616e7366657220616d6f756e7420657863656564732062604482015265616c616e636560d01b606482015260840161084d565b6001600160a01b03808516600090815260336020526040808220858503905591851681529081208054849290610e90908490611545565b92505081905550826001600160a01b0316846001600160a01b03167fddf252ad1be2c89b69c2b068fc378daa952ba7f163c4a11628f55a4df523b3ef84604051610edc91815260200190565b60405180910390a3610d15565b606580546001600160a01b038381166001600160a01b0319831681179093556040519116919082907f8be0079c531659141344cd1fd0a4f28419497f9722a3daafe3b4186f6b6457e090600090a35050565b60008054610100900460ff1615610f82578160ff166001148015610f5e5750303b155b610f7a5760405162461bcd60e51b815260040161084d906115c2565b506000919050565b60005460ff808416911610610fa95760405162461bcd60e51b815260040161084d906115c2565b506000805460ff191660ff92909216919091179055600190565b919050565b600060208284031215610fda57600080fd5b81356001600160e01b031981168114610ff257600080fd5b9392505050565b6000815180845260005b8181101561101f57602081850181015186830182015201611003565b81811115611031576000602083870101525b50601f01601f19169290920160200192915050565b602081526000610ff26020830184610ff9565b80356001600160a01b0381168114610fc357600080fd5b6000806040838503121561108357600080fd5b61108c83611059565b946020939093013593505050565b6000806000606084860312156110af57600080fd5b6110b884611059565b92506110c660208501611059565b9150604084013590509250925092565b634e487b7160e01b600052604160045260246000fd5b604051601f8201601f1916810167ffffffffffffffff81118282101715611115576111156110d6565b604052919050565b600082601f83011261112e57600080fd5b813567ffffffffffffffff811115611148576111486110d6565b61115b601f8201601f19166020016110ec565b81815284602083860101111561117057600080fd5b816020850160208301376000918101602001919091529392505050565b600080600080608085870312156111a357600080fd5b6111ac85611059565b9350602085013592506040850135600a81106111c757600080fd5b9150606085013567ffffffffffffffff8111156111e357600080fd5b6111ef8782880161111d565b91505092959194509250565b60006020828403121561120d57600080fd5b813561ffff81168114610ff257600080fd5b60006020828403121561123157600080fd5b5035919050565b60006020828403121561124a57600080fd5b610ff282611059565b6000806040838503121561126657600080fd5b50508035926020909101359150565b600082601f83011261128657600080fd5b8135602067ffffffffffffffff8211156112a2576112a26110d6565b8160051b6112b18282016110ec565b92835284810182019282810190878511156112cb57600080fd5b83870192505b848310156112ea578235825291830191908301906112d1565b979650505050505050565b600080600080600060a0868803121561130d57600080fd5b61131686611059565b945061132460208701611059565b9350604086013567ffffffffffffffff8082111561134157600080fd5b61134d89838a01611275565b9450606088013591508082111561136357600080fd5b61136f89838a01611275565b9350608088013591508082111561138557600080fd5b506113928882890161111d565b9150509295509295909350565b600080604083850312156113b257600080fd5b6113bb83611059565b91506113c960208401611059565b90509250929050565b600080600080600060a086880312156113ea57600080fd5b6113f386611059565b945061140160208701611059565b93506040860135925060608601359150608086013567ffffffffffffffff81111561142b57600080fd5b6113928882890161111d565b600181811c9082168061144b57607f821691505b60208210810361146b57634e487b7160e01b600052602260045260246000fd5b50919050565b6001600160a01b039384168152919092166020820152604081019190915260600190565b6000602082840312156114a757600080fd5b81518015158114610ff257600080fd5b60208101600a83106114d957634e487b7160e01b600052602160045260246000fd5b91905290565b6000602082840312156114f157600080fd5b5051919050565b60018060a01b03851681528360208201528260408201526080606082015260006115256080830184610ff9565b9695505050505050565b634e487b7160e01b600052601160045260246000fd5b600082198211156115585761155861152f565b500190565b60008282101561156f5761156f61152f565b500390565b6000600182016115865761158661152f565b5060010190565b6020808252818101527f4f776e61626c653a2063616c6c6572206973206e6f7420746865206f776e6572604082015260600190565b6020808252602e908201527f496e697469616c697a61626c653a20636f6e747261637420697320616c72656160408201526d191e481a5b9a5d1a585b1a5e995960921b60608201526080019056fea2646970667358221220c2394935ff4a2678d9dcb5f624c853b102b660b0db320085e1c8846aac20c07864736f6c634300080e0033",
  "linkReferences": {},
  "deployedLinkReferences": {}
}