{
  "_format": "hh-sol-artifact-1",
  "contractName": "MetaStocksFranchiseManager",
  "sourceName": "contracts/managers/metastocks/MetaStocksFranchiseManager.sol",
  "abi": [
    {
      "anonymous": false,
      "inputs": [
        {
          "indexed": true,
          "internalType": "address",
          "name": "owner",
          "type": "address"
        },
        {
          "indexed": true,
          "internalType": "address",
          "name": "spender",
          "type": "address"
        },
        {
          "indexed": false,
          "internalType": "uint256",
          "name": "value",
          "type": "uint256"
        }
      ],
      "name": "Approval",
      "type": "event"
    },
    {
      "anonymous": false,
      "inputs": [
        {
          "indexed": true,
          "internalType": "address",
          "name": "account",
          "type": "address"
        },
        {
          "indexed": false,
          "internalType": "uint256",
          "name": "companyId",
          "type": "uint256"
        },
        {
          "indexed": false,
          "internalType": "uint256",
          "name": "franchiseType",
          "type": "uint256"
        }
      ],
      "name": "CreateFranchise",
      "type": "event"
    },
    {
      "anonymous": false,
      "inputs": [
        {
          "indexed": false,
          "internalType": "uint8",
          "name": "version",
          "type": "uint8"
        }
      ],
      "name": "Initialized",
      "type": "event"
    },
    {
      "anonymous": false,
      "inputs": [
        {
          "indexed": true,
          "internalType": "address",
          "name": "previousOwner",
          "type": "address"
        },
        {
          "indexed": true,
          "internalType": "address",
          "name": "newOwner",
          "type": "address"
        }
      ],
      "name": "OwnershipTransferred",
      "type": "event"
    },
    {
      "anonymous": false,
      "inputs": [
        {
          "indexed": true,
          "internalType": "address",
          "name": "from",
          "type": "address"
        },
        {
          "indexed": true,
          "internalType": "address",
          "name": "to",
          "type": "address"
        },
        {
          "indexed": false,
          "internalType": "uint256",
          "name": "value",
          "type": "uint256"
        }
      ],
      "name": "Transfer",
      "type": "event"
    },
    {
      "inputs": [
        {
          "internalType": "address",
          "name": "owner",
          "type": "address"
        },
        {
          "internalType": "address",
          "name": "spender",
          "type": "address"
        }
      ],
      "name": "allowance",
      "outputs": [
        {
          "internalType": "uint256",
          "name": "",
          "type": "uint256"
        }
      ],
      "stateMutability": "view",
      "type": "function"
    },
    {
      "inputs": [
        {
          "internalType": "address",
          "name": "spender",
          "type": "address"
        },
        {
          "internalType": "uint256",
          "name": "amount",
          "type": "uint256"
        }
      ],
      "name": "approve",
      "outputs": [
        {
          "internalType": "bool",
          "name": "",
          "type": "bool"
        }
      ],
      "stateMutability": "nonpayable",
      "type": "function"
    },
    {
      "inputs": [
        {
          "internalType": "address",
          "name": "account",
          "type": "address"
        }
      ],
      "name": "balanceOf",
      "outputs": [
        {
          "internalType": "uint256",
          "name": "",
          "type": "uint256"
        }
      ],
      "stateMutability": "view",
      "type": "function"
    },
    {
      "inputs": [
        {
          "internalType": "address",
          "name": "to",
          "type": "address"
        },
        {
          "internalType": "uint256",
          "name": "companyId",
          "type": "uint256"
        },
        {
          "internalType": "uint256",
          "name": "amount",
          "type": "uint256"
        },
        {
          "internalType": "enum MetaStocksFranchiseType",
          "name": "_metaStocksFranchiseType",
          "type": "uint8"
        }
      ],
      "name": "burnMetaStocksFranchise",
      "outputs": [],
      "stateMutability": "nonpayable",
      "type": "function"
    },
    {
      "inputs": [
        {
          "internalType": "uint256",
          "name": "_companyId",
          "type": "uint256"
        }
      ],
      "name": "claimFromAllFranchises",
      "outputs": [],
      "stateMutability": "nonpayable",
      "type": "function"
    },
    {
      "inputs": [
        {
          "internalType": "uint256",
          "name": "",
          "type": "uint256"
        },
        {
          "internalType": "uint256",
          "name": "",
          "type": "uint256"
        }
      ],
      "name": "companyFranchises",
      "outputs": [
        {
          "internalType": "uint256",
          "name": "",
          "type": "uint256"
        }
      ],
      "stateMutability": "view",
      "type": "function"
    },
    {
      "inputs": [
        {
          "internalType": "address",
          "name": "to",
          "type": "address"
        },
        {
          "internalType": "uint256",
          "name": "companyId",
          "type": "uint256"
        },
        {
          "internalType": "enum MetaStocksFranchiseType",
          "name": "_metaStocksFranchiseType",
          "type": "uint8"
        }
      ],
      "name": "createMetaStocksFranchise",
      "outputs": [],
      "stateMutability": "nonpayable",
      "type": "function"
    },
    {
      "inputs": [],
      "name": "decimals",
      "outputs": [
        {
          "internalType": "uint8",
          "name": "",
          "type": "uint8"
        }
      ],
      "stateMutability": "view",
      "type": "function"
    },
    {
      "inputs": [
        {
          "internalType": "address",
          "name": "spender",
          "type": "address"
        },
        {
          "internalType": "uint256",
          "name": "subtractedValue",
          "type": "uint256"
        }
      ],
      "name": "decreaseAllowance",
      "outputs": [
        {
          "internalType": "bool",
          "name": "",
          "type": "bool"
        }
      ],
      "stateMutability": "nonpayable",
      "type": "function"
    },
    {
      "inputs": [
        {
          "internalType": "uint256",
          "name": "",
          "type": "uint256"
        },
        {
          "internalType": "uint256",
          "name": "",
          "type": "uint256"
        }
      ],
      "name": "franchisesLastClaimDates",
      "outputs": [
        {
          "internalType": "uint256",
          "name": "",
          "type": "uint256"
        }
      ],
      "stateMutability": "view",
      "type": "function"
    },
    {
      "inputs": [
        {
          "internalType": "uint256",
          "name": "",
          "type": "uint256"
        },
        {
          "internalType": "uint256",
          "name": "",
          "type": "uint256"
        }
      ],
      "name": "franchisesUsdInvested",
      "outputs": [
        {
          "internalType": "uint256",
          "name": "",
          "type": "uint256"
        }
      ],
      "stateMutability": "view",
      "type": "function"
    },
    {
      "inputs": [
        {
          "internalType": "uint256",
          "name": "",
          "type": "uint256"
        },
        {
          "internalType": "uint256",
          "name": "",
          "type": "uint256"
        }
      ],
      "name": "franchisesWorkers",
      "outputs": [
        {
          "internalType": "uint256",
          "name": "",
          "type": "uint256"
        }
      ],
      "stateMutability": "view",
      "type": "function"
    },
    {
      "inputs": [],
      "name": "getCreateFranchisePrice",
      "outputs": [
        {
          "internalType": "uint256",
          "name": "",
          "type": "uint256"
        }
      ],
      "stateMutability": "view",
      "type": "function"
    },
    {
      "inputs": [],
      "name": "getFranchiseDailyEarnings",
      "outputs": [
        {
          "internalType": "uint256",
          "name": "",
          "type": "uint256"
        }
      ],
      "stateMutability": "view",
      "type": "function"
    },
    {
      "inputs": [],
      "name": "getFranchiseValue",
      "outputs": [
        {
          "internalType": "uint256",
          "name": "",
          "type": "uint256"
        }
      ],
      "stateMutability": "view",
      "type": "function"
    },
    {
      "inputs": [
        {
          "internalType": "uint256",
          "name": "companyId",
          "type": "uint256"
        },
        {
          "internalType": "uint256",
          "name": "franchiseType",
          "type": "uint256"
        }
      ],
      "name": "getFranchisesUsdInvested",
      "outputs": [
        {
          "internalType": "uint256",
          "name": "",
          "type": "uint256"
        }
      ],
      "stateMutability": "view",
      "type": "function"
    },
    {
      "inputs": [],
      "name": "getHireWorkerFranchisePrice",
      "outputs": [
        {
          "internalType": "uint256",
          "name": "",
          "type": "uint256"
        }
      ],
      "stateMutability": "view",
      "type": "function"
    },
    {
      "inputs": [],
      "name": "getMaintainceFranchiseExpenses",
      "outputs": [
        {
          "internalType": "uint256",
          "name": "",
          "type": "uint256"
        }
      ],
      "stateMutability": "view",
      "type": "function"
    },
    {
      "inputs": [
        {
          "internalType": "uint256",
          "name": "companyId",
          "type": "uint256"
        }
      ],
      "name": "getMetaStocksFranchisesUnclaimedRewards",
      "outputs": [
        {
          "internalType": "uint256",
          "name": "",
          "type": "uint256"
        }
      ],
      "stateMutability": "view",
      "type": "function"
    },
    {
      "inputs": [
        {
          "internalType": "uint256",
          "name": "companyId",
          "type": "uint256"
        }
      ],
      "name": "getNumberOfMetaStocksFranchises",
      "outputs": [
        {
          "internalType": "uint256",
          "name": "",
          "type": "uint256"
        }
      ],
      "stateMutability": "view",
      "type": "function"
    },
    {
      "inputs": [],
      "name": "getPaymentTokenAddress",
      "outputs": [
        {
          "internalType": "address",
          "name": "",
          "type": "address"
        }
      ],
      "stateMutability": "view",
      "type": "function"
    },
    {
      "inputs": [
        {
          "internalType": "uint256",
          "name": "companyId",
          "type": "uint256"
        },
        {
          "internalType": "enum MetaStocksFranchiseType",
          "name": "_metaStocksFranchiseType",
          "type": "uint8"
        }
      ],
      "name": "hireWorker",
      "outputs": [],
      "stateMutability": "nonpayable",
      "type": "function"
    },
    {
      "inputs": [
        {
          "internalType": "address",
          "name": "spender",
          "type": "address"
        },
        {
          "internalType": "uint256",
          "name": "addedValue",
          "type": "uint256"
        }
      ],
      "name": "increaseAllowance",
      "outputs": [
        {
          "internalType": "bool",
          "name": "",
          "type": "bool"
        }
      ],
      "stateMutability": "nonpayable",
      "type": "function"
    },
    {
      "inputs": [
        {
          "internalType": "address",
          "name": "_metaStocksFranchiseAddress",
          "type": "address"
        }
      ],
      "name": "initialize",
      "outputs": [],
      "stateMutability": "nonpayable",
      "type": "function"
    },
    {
      "inputs": [
        {
          "internalType": "uint256",
          "name": "",
          "type": "uint256"
        }
      ],
      "name": "lastFranchiseClaimDate",
      "outputs": [
        {
          "internalType": "uint256",
          "name": "",
          "type": "uint256"
        }
      ],
      "stateMutability": "view",
      "type": "function"
    },
    {
      "inputs": [],
      "name": "name",
      "outputs": [
        {
          "internalType": "string",
          "name": "",
          "type": "string"
        }
      ],
      "stateMutability": "view",
      "type": "function"
    },
    {
      "inputs": [
        {
          "internalType": "address",
          "name": "",
          "type": "address"
        },
        {
          "internalType": "address",
          "name": "",
          "type": "address"
        },
        {
          "internalType": "uint256[]",
          "name": "",
          "type": "uint256[]"
        },
        {
          "internalType": "uint256[]",
          "name": "",
          "type": "uint256[]"
        },
        {
          "internalType": "bytes",
          "name": "",
          "type": "bytes"
        }
      ],
      "name": "onERC1155BatchReceived",
      "outputs": [
        {
          "internalType": "bytes4",
          "name": "",
          "type": "bytes4"
        }
      ],
      "stateMutability": "nonpayable",
      "type": "function"
    },
    {
      "inputs": [
        {
          "internalType": "address",
          "name": "",
          "type": "address"
        },
        {
          "internalType": "address",
          "name": "",
          "type": "address"
        },
        {
          "internalType": "uint256",
          "name": "",
          "type": "uint256"
        },
        {
          "internalType": "uint256",
          "name": "",
          "type": "uint256"
        },
        {
          "internalType": "bytes",
          "name": "",
          "type": "bytes"
        }
      ],
      "name": "onERC1155Received",
      "outputs": [
        {
          "internalType": "bytes4",
          "name": "",
          "type": "bytes4"
        }
      ],
      "stateMutability": "nonpayable",
      "type": "function"
    },
    {
      "inputs": [],
      "name": "owner",
      "outputs": [
        {
          "internalType": "address",
          "name": "",
          "type": "address"
        }
      ],
      "stateMutability": "view",
      "type": "function"
    },
    {
      "inputs": [],
      "name": "renounceOwnership",
      "outputs": [],
      "stateMutability": "nonpayable",
      "type": "function"
    },
    {
      "inputs": [],
      "name": "self",
      "outputs": [
        {
          "internalType": "address",
          "name": "",
          "type": "address"
        }
      ],
      "stateMutability": "view",
      "type": "function"
    },
    {
      "inputs": [
        {
          "internalType": "address",
          "name": "to",
          "type": "address"
        },
        {
          "internalType": "uint256",
          "name": "companyId",
          "type": "uint256"
        },
        {
          "internalType": "uint256",
          "name": "amount",
          "type": "uint256"
        },
        {
          "internalType": "enum MetaStocksFranchiseType",
          "name": "_metaStocksFranchiseType",
          "type": "uint8"
        }
      ],
      "name": "sellMetaStocksFranchise",
      "outputs": [],
      "stateMutability": "nonpayable",
      "type": "function"
    },
    {
      "inputs": [
        {
          "internalType": "uint16",
          "name": "_createFranchisePrice",
          "type": "uint16"
        }
      ],
      "name": "setCreateFranchisePrice",
      "outputs": [],
      "stateMutability": "nonpayable",
      "type": "function"
    },
    {
      "inputs": [
        {
          "internalType": "uint16",
          "name": "_franchiseDailyEarnings",
          "type": "uint16"
        }
      ],
      "name": "setFranchiseDailyEarnings",
      "outputs": [],
      "stateMutability": "nonpayable",
      "type": "function"
    },
    {
      "inputs": [
        {
          "internalType": "uint16",
          "name": "_hireWorkerFranchisePrice",
          "type": "uint16"
        }
      ],
      "name": "setHireWorkerFranchisePrice",
      "outputs": [],
      "stateMutability": "nonpayable",
      "type": "function"
    },
    {
      "inputs": [
        {
          "internalType": "uint16",
          "name": "_maintainceFranchiseExpenses",
          "type": "uint16"
        }
      ],
      "name": "setMaintainceFranchiseExpenses",
      "outputs": [],
      "stateMutability": "nonpayable",
      "type": "function"
    },
    {
      "inputs": [
        {
          "internalType": "address",
          "name": "_paymentTokenAddress",
          "type": "address"
        }
      ],
      "name": "setPaymentTokenAddress",
      "outputs": [],
      "stateMutability": "nonpayable",
      "type": "function"
    },
    {
      "inputs": [
        {
          "internalType": "address",
          "name": "_routerAddress",
          "type": "address"
        },
        {
          "internalType": "address",
          "name": "_chainlinkDataFeedAddress",
          "type": "address"
        }
      ],
      "name": "setRouterAddress",
      "outputs": [],
      "stateMutability": "nonpayable",
      "type": "function"
    },
    {
      "inputs": [
        {
          "internalType": "bytes4",
          "name": "interfaceId",
          "type": "bytes4"
        }
      ],
      "name": "supportsInterface",
      "outputs": [
        {
          "internalType": "bool",
          "name": "",
          "type": "bool"
        }
      ],
      "stateMutability": "view",
      "type": "function"
    },
    {
      "inputs": [],
      "name": "symbol",
      "outputs": [
        {
          "internalType": "string",
          "name": "",
          "type": "string"
        }
      ],
      "stateMutability": "view",
      "type": "function"
    },
    {
      "inputs": [],
      "name": "totalSupply",
      "outputs": [
        {
          "internalType": "uint256",
          "name": "",
          "type": "uint256"
        }
      ],
      "stateMutability": "view",
      "type": "function"
    },
    {
      "inputs": [
        {
          "internalType": "address",
          "name": "to",
          "type": "address"
        },
        {
          "internalType": "uint256",
          "name": "amount",
          "type": "uint256"
        }
      ],
      "name": "transfer",
      "outputs": [
        {
          "internalType": "bool",
          "name": "",
          "type": "bool"
        }
      ],
      "stateMutability": "nonpayable",
      "type": "function"
    },
    {
      "inputs": [
        {
          "internalType": "address",
          "name": "from",
          "type": "address"
        },
        {
          "internalType": "address",
          "name": "to",
          "type": "address"
        },
        {
          "internalType": "uint256",
          "name": "amount",
          "type": "uint256"
        }
      ],
      "name": "transferFrom",
      "outputs": [
        {
          "internalType": "bool",
          "name": "",
          "type": "bool"
        }
      ],
      "stateMutability": "nonpayable",
      "type": "function"
    },
    {
      "inputs": [
        {
          "internalType": "address",
          "name": "newOwner",
          "type": "address"
        }
      ],
      "name": "transferOwnership",
      "outputs": [],
      "stateMutability": "nonpayable",
      "type": "function"
    }
  ],
  "bytecode": "0x608060405234801561001057600080fd5b5061392b806100206000396000f3fe60806040523480156200001157600080fd5b5060043610620002a95760003560e01c806395d89b41116200016d578063be154d2b11620000d3578063dd62ed3e1162000092578063dd62ed3e146200066a578063dea182c11462000681578063ee1a49071462000350578063f23a6e611462000693578063f2fde38b14620006b5578063f30a610814620006cc57600080fd5b8063be154d2b14620005e8578063c4d66de81462000602578063c56956ce1462000619578063c6a7584e146200063c578063dcb98f7e146200065357600080fd5b8063a457c2d7116200012c578063a457c2d714620004f4578063a4db7d15146200050b578063a9059cbb1462000539578063b17a43ae1462000550578063b5ea8945146200057e578063bc197c8114620005ac57600080fd5b806395d89b4114620004b057806399dc7d9c14620004ba5780639d58f3e014620003d15780639e20146614620004d15780639f2e747f14620004eb57600080fd5b80633ae9056d1162000213578063715018a611620001d2578063715018a6146200042157806371e5f063146200042b5780637d9614d9146200045957806386c3ab0b14620004705780638da5cb5b1462000487578063928024dc146200049957600080fd5b80633ae9056d14620003b157806340f1b93814620003ba5780634471608014620003d157806370a0823114620003da5780637104ddb2146200040657600080fd5b806323b872dd116200026c57806323b872dd1462000339578063294d64fd14620003505780632a5bb06814620003675780632c602e5b1462000381578063313ce567146200038a57806339509351146200039a57600080fd5b80630129b11714620002ae57806301ffc9a714620002ca57806306fdde0314620002f6578063095ea7b3146200030f57806318160ddd1462000326575b600080fd5b620002c8620002bf366004620017b1565b61ffff16609955565b005b620002e1620002db366004620017de565b620006fa565b60405190151581526020015b60405180910390f35b620003006200070d565b604051620002ed91906200180a565b620002e1620003203660046200187a565b620007a7565b6035545b604051908152602001620002ed565b620002e16200034a366004620018a7565b620007c1565b620002c862000361366004620018f8565b620007e9565b620002c862000378366004620017b1565b61ffff16609a55565b6098546200032a565b60405160128152602001620002ed565b620002e1620003ab3660046200187a565b62000868565b6099546200032a565b6200032a620003cb36600462001943565b62000890565b609b546200032a565b6200032a620003eb3660046200195d565b6001600160a01b031660009081526033602052604090205490565b305b6040516001600160a01b039091168152602001620002ed565b620002c86200096e565b6200032a6200043c3660046200197b565b60a060209081526000928352604080842090915290825290205481565b6200032a6200046a36600462001943565b620009b2565b620002c8620004813660046200199e565b620009fe565b6065546001600160a01b031662000408565b620002c8620004aa366004620019df565b62000cd9565b6200030062000ea6565b620002c8620004cb36600462001943565b62000eb7565b620002c8620004e2366004620017b1565b61ffff16609b55565b609a546200032a565b620002e1620005053660046200187a565b62000f85565b6200032a6200051c3660046200197b565b60a260209081526000928352604080842090915290825290205481565b620002e16200054a3660046200187a565b62001006565b6200032a620005613660046200197b565b60a460209081526000928352604080842090915290825290205481565b6200032a6200058f3660046200197b565b60a360209081526000928352604080842090915290825290205481565b620005ce620005bd36600462001b58565b63bc197c8160e01b95945050505050565b6040516001600160e01b03199091168152602001620002ed565b620002c8620005f9366004620017b1565b61ffff16609855565b620002c8620006133660046200195d565b62001016565b6200032a6200062a36600462001943565b60a16020526000908152604090205481565b620002c86200064d36600462001c10565b620010d9565b620002c8620006643660046200195d565b620011ac565b6200032a6200067b36600462001c10565b62001237565b609e546001600160a01b031662000408565b620005ce620006a436600462001c3f565b63f23a6e6160e01b95945050505050565b620002c8620006c63660046200195d565b62001262565b6200032a620006dd3660046200197b565b600091825260a06020908152604080842092845291905290205490565b6000620007078262001304565b92915050565b6060603680546200071e9062001cac565b80601f01602080910402602001604051908101604052809291908181526020018280546200074c9062001cac565b80156200079d5780601f1062000771576101008083540402835291602001916200079d565b820191906000526020600020905b8154815290600101906020018083116200077f57829003601f168201915b5050505050905090565b600033620007b78185856200133b565b5060019392505050565b600033620007d185828562001463565b620007de858585620014e4565b506001949350505050565b6097546040516370d8209160e11b81526000916001600160a01b03169063e1b04122906200081c90859060040162001ce8565b602060405180830381865afa1580156200083a573d6000803e3d6000fd5b505050506040513d601f19601f8201168201806040525081019062000860919062001d11565b505050505050565b600033620007b78185856200087e838362001237565b6200088a919062001d41565b6200133b565b600080805b600a8110156200096757600084815260a260209081526040808320848452909152812054905b818110156200094f57600086815260a460209081526040808320858452825280832054609c54609b548b865260a38552838620888752909452919093205490919062000908904262001d5c565b62000914919062001d76565b62000920919062001d98565b6200092c919062001d76565b62000938908562001d41565b935080620009468162001dbb565b915050620008bb565b505080806200095e9062001dbb565b91505062000895565b5092915050565b6065546001600160a01b03163314620009a45760405162461bcd60e51b81526004016200099b9062001dd7565b60405180910390fd5b620009b06000620016bc565b565b600080805b600a8110156200096757600084815260a260209081526040808320848452909152902054620009e7908362001d41565b915080620009f58162001dbb565b915050620009b7565b609e546098546040516323b872dd60e01b81526001600160a01b03909216916323b872dd9162000a35913391309160040162001e0c565b6020604051808303816000875af115801562000a55573d6000803e3d6000fd5b505050506040513d601f19601f8201168201806040525081019062000a7b919062001e30565b506097546040516370d8209160e11b81526000916001600160a01b03169063e1b041229062000aaf90859060040162001ce8565b602060405180830381865afa15801562000acd573d6000803e3d6000fd5b505050506040513d601f19601f8201168201806040525081019062000af3919062001d11565b60975460405163731133e960e01b81526001600160a01b038781166004830152602482018490526001604483015260806064830152600360848301526203078360ec1b60a483015292935091169063731133e99060c401600060405180830381600087803b15801562000b6557600080fd5b505af115801562000b7a573d6000803e3d6000fd5b505050600084815260a260209081526040808320858452909152812080546001935090919062000bac90849062001d41565b9091555050600083815260a460209081526040808320848452909152812080546001929062000bdd90849062001d41565b9091555050600083815260a360209081526040808320848452909152808220429055609f54609e546098549251637d7e76e760e11b81526001600160a01b039283169363fafcedce9362000c3693169160040162001e54565b602060405180830381865afa15801562000c54573d6000803e3d6000fd5b505050506040513d601f19601f8201168201806040525081019062000c7a919062001d11565b600085815260a060209081526040808320868452825291829020839055815187815290810185905291925033917f0d2874ff58f61fb0eb468b346184f6ff4ca14488038fea48a58c8a2cc098ece3910160405180910390a25050505050565b609e546099546040516323b872dd60e01b81526001600160a01b03909216916323b872dd9162000d10913391309160040162001e0c565b6020604051808303816000875af115801562000d30573d6000803e3d6000fd5b505050506040513d601f19601f8201168201806040525081019062000d56919062001e30565b50609f54609e54609954604051637d7e76e760e11b81526000936001600160a01b039081169363fafcedce9362000d9593929091169160040162001e54565b602060405180830381865afa15801562000db3573d6000803e3d6000fd5b505050506040513d601f19601f8201168201806040525081019062000dd9919062001d11565b6097546040516370d8209160e11b81529192506000916001600160a01b039091169063e1b041229062000e1190869060040162001ce8565b602060405180830381865afa15801562000e2f573d6000803e3d6000fd5b505050506040513d601f19601f8201168201806040525081019062000e55919062001d11565b600085815260a060209081526040808320848452825280832086905587835260a482528083208484529091528120805492935060019290919062000e9b90849062001d41565b909155505050505050565b6060603780546200071e9062001cac565b600062000ec48262000890565b609e546040516323b872dd60e01b81529192506001600160a01b0316906323b872dd9062000efb9030903390869060040162001e0c565b6020604051808303816000875af115801562000f1b573d6000803e3d6000fd5b505050506040513d601f19601f8201168201806040525081019062000f41919062001e30565b5060005b600a81101562000f8057600083815260a36020908152604080832084845290915290204290558062000f778162001dbb565b91505062000f45565b505050565b6000338162000f95828662001237565b90508381101562000ff75760405162461bcd60e51b815260206004820152602560248201527f45524332303a2064656372656173656420616c6c6f77616e63652062656c6f77604482015264207a65726f60d81b60648201526084016200099b565b620007de82868684036200133b565b600033620007b7818585620014e4565b60006200102460016200170e565b905080156200103d576000805461ff0019166101001790555b68056bc75e2d63100000609855678ac7230489e80000609b55670de0b6b3a7640000609a55600a609c55609e80546001600160a01b0319908116909155609780549091166001600160a01b0384161790558015620010d5576000805461ff0019169055604051600181527f7f26b83ff96e1f2b6a682f133852f6798a09c465da95921460cefb38474024989060200160405180910390a15b5050565b8181604051620010e990620017a3565b6001600160a01b03928316815291166020820152604001604051809103906000f0801580156200111d573d6000803e3d6000fd5b50609f80546001600160a01b0319166001600160a01b03928316179055609e541663095ea7b3306000196040518363ffffffff1660e01b81526004016200116692919062001e54565b6020604051808303816000875af115801562001186573d6000803e3d6000fd5b505050506040513d601f19601f8201168201806040525081019062000f80919062001e30565b609e80546001600160a01b0319166001600160a01b03831690811790915560405163095ea7b360e01b815263095ea7b390620011f19030906000199060040162001e54565b6020604051808303816000875af115801562001211573d6000803e3d6000fd5b505050506040513d601f19601f82011682018060405250810190620010d5919062001e30565b6001600160a01b03918216600090815260346020908152604080832093909416825291909152205490565b6065546001600160a01b031633146200128f5760405162461bcd60e51b81526004016200099b9062001dd7565b6001600160a01b038116620012f65760405162461bcd60e51b815260206004820152602660248201527f4f776e61626c653a206e6577206f776e657220697320746865207a65726f206160448201526564647265737360d01b60648201526084016200099b565b6200130181620016bc565b50565b60006001600160e01b03198216630271189760e51b14806200070757506301ffc9a760e01b6001600160e01b031983161462000707565b6001600160a01b0383166200139f5760405162461bcd60e51b8152602060048201526024808201527f45524332303a20617070726f76652066726f6d20746865207a65726f206164646044820152637265737360e01b60648201526084016200099b565b6001600160a01b038216620014025760405162461bcd60e51b815260206004820152602260248201527f45524332303a20617070726f766520746f20746865207a65726f206164647265604482015261737360f01b60648201526084016200099b565b6001600160a01b0383811660008181526034602090815260408083209487168084529482529182902085905590518481527f8c5be1e5ebec7d5bd14f71427d1e84f3dd0314c0f7b2291e5b200ac8c7c3b925910160405180910390a3505050565b600062001471848462001237565b90506000198114620014de5781811015620014cf5760405162461bcd60e51b815260206004820152601d60248201527f45524332303a20696e73756666696369656e7420616c6c6f77616e636500000060448201526064016200099b565b620014de84848484036200133b565b50505050565b6001600160a01b0383166200154a5760405162461bcd60e51b815260206004820152602560248201527f45524332303a207472616e736665722066726f6d20746865207a65726f206164604482015264647265737360d81b60648201526084016200099b565b6001600160a01b038216620015ae5760405162461bcd60e51b815260206004820152602360248201527f45524332303a207472616e7366657220746f20746865207a65726f206164647260448201526265737360e81b60648201526084016200099b565b6001600160a01b03831660009081526033602052604090205481811015620016285760405162461bcd60e51b815260206004820152602660248201527f45524332303a207472616e7366657220616d6f756e7420657863656564732062604482015265616c616e636560d01b60648201526084016200099b565b6001600160a01b038085166000908152603360205260408082208585039055918516815290812080548492906200166190849062001d41565b92505081905550826001600160a01b0316846001600160a01b03167fddf252ad1be2c89b69c2b068fc378daa952ba7f163c4a11628f55a4df523b3ef84604051620016ae91815260200190565b60405180910390a3620014de565b606580546001600160a01b038381166001600160a01b0319831681179093556040519116919082907f8be0079c531659141344cd1fd0a4f28419497f9722a3daafe3b4186f6b6457e090600090a35050565b60008054610100900460ff16156200175a578160ff166001148015620017335750303b155b620017525760405162461bcd60e51b81526004016200099b9062001e6d565b506000919050565b60005460ff808416911610620017845760405162461bcd60e51b81526004016200099b9062001e6d565b506000805460ff191660ff92909216919091179055600190565b919050565b611a3a8062001ebc83390190565b600060208284031215620017c457600080fd5b813561ffff81168114620017d757600080fd5b9392505050565b600060208284031215620017f157600080fd5b81356001600160e01b031981168114620017d757600080fd5b600060208083528351808285015260005b8181101562001839578581018301518582016040015282016200181b565b818111156200184c576000604083870101525b50601f01601f1916929092016040019392505050565b80356001600160a01b03811681146200179e57600080fd5b600080604083850312156200188e57600080fd5b620018998362001862565b946020939093013593505050565b600080600060608486031215620018bd57600080fd5b620018c88462001862565b9250620018d86020850162001862565b9150604084013590509250925092565b8035600a81106200179e57600080fd5b600080600080608085870312156200190f57600080fd5b6200191a8562001862565b935060208501359250604085013591506200193860608601620018e8565b905092959194509250565b6000602082840312156200195657600080fd5b5035919050565b6000602082840312156200197057600080fd5b620017d78262001862565b600080604083850312156200198f57600080fd5b50508035926020909101359150565b600080600060608486031215620019b457600080fd5b620019bf8462001862565b925060208401359150620019d660408501620018e8565b90509250925092565b60008060408385031215620019f357600080fd5b8235915062001a0560208401620018e8565b90509250929050565b634e487b7160e01b600052604160045260246000fd5b604051601f8201601f1916810167ffffffffffffffff8111828210171562001a505762001a5062001a0e565b604052919050565b600082601f83011262001a6a57600080fd5b8135602067ffffffffffffffff82111562001a895762001a8962001a0e565b8160051b62001a9a82820162001a24565b928352848101820192828101908785111562001ab557600080fd5b83870192505b8483101562001ad65782358252918301919083019062001abb565b979650505050505050565b600082601f83011262001af357600080fd5b813567ffffffffffffffff81111562001b105762001b1062001a0e565b62001b25601f8201601f191660200162001a24565b81815284602083860101111562001b3b57600080fd5b816020850160208301376000918101602001919091529392505050565b600080600080600060a0868803121562001b7157600080fd5b62001b7c8662001862565b945062001b8c6020870162001862565b9350604086013567ffffffffffffffff8082111562001baa57600080fd5b62001bb889838a0162001a58565b9450606088013591508082111562001bcf57600080fd5b62001bdd89838a0162001a58565b9350608088013591508082111562001bf457600080fd5b5062001c038882890162001ae1565b9150509295509295909350565b6000806040838503121562001c2457600080fd5b62001c2f8362001862565b915062001a056020840162001862565b600080600080600060a0868803121562001c5857600080fd5b62001c638662001862565b945062001c736020870162001862565b93506040860135925060608601359150608086013567ffffffffffffffff81111562001c9e57600080fd5b62001c038882890162001ae1565b600181811c9082168062001cc157607f821691505b60208210810362001ce257634e487b7160e01b600052602260045260246000fd5b50919050565b60208101600a831062001d0b57634e487b7160e01b600052602160045260246000fd5b91905290565b60006020828403121562001d2457600080fd5b5051919050565b634e487b7160e01b600052601160045260246000fd5b6000821982111562001d575762001d5762001d2b565b500190565b60008282101562001d715762001d7162001d2b565b500390565b600081600019048311821515161562001d935762001d9362001d2b565b500290565b60008262001db657634e487b7160e01b600052601260045260246000fd5b500490565b60006001820162001dd05762001dd062001d2b565b5060010190565b6020808252818101527f4f776e61626c653a2063616c6c6572206973206e6f7420746865206f776e6572604082015260600190565b6001600160a01b039384168152919092166020820152604081019190915260600190565b60006020828403121562001e4357600080fd5b81518015158114620017d757600080fd5b6001600160a01b03929092168252602082015260400190565b6020808252602e908201527f496e697469616c697a61626c653a20636f6e747261637420697320616c72656160408201526d191e481a5b9a5d1a585b1a5e995960921b60608201526080019056fe608060405234801561001057600080fd5b50604051611a3a380380611a3a83398101604081905261002f916100e7565b600080546001600160a01b0384166001600160a01b03199182161790915560616002556001805490911690556040518190610069906100be565b6001600160a01b039091168152602001604051809103906000f080158015610095573d6000803e3d6000fd5b50600380546001600160a01b0319166001600160a01b03929092169190911790555061011a9050565b6106048061143683390190565b80516001600160a01b03811681146100e257600080fd5b919050565b600080604083850312156100fa57600080fd5b610103836100cb565b9150610111602084016100cb565b90509250929050565b61130d806101296000396000f3fe608060405234801561001057600080fd5b50600436106100a95760003560e01c8063cf6c62ea11610071578063cf6c62ea14610121578063dd6e491e14610134578063e944b8b014610147578063f72f863b1461015a578063f7a765761461018a578063fafcedce1461019d57600080fd5b8063197e8da9146100ae57806385954d8c146100de578063b8b03b22146100ef578063b9c55241146100de578063cc99689914610104575b600080fd5b6100c16100bc366004610958565b6101be565b6040516001600160a01b0390911681526020015b60405180910390f35b6000546001600160a01b03166100c1565b6101026100fd36600461098d565b610264565b005b600154600160a01b900460ff1660405190151581526020016100d5565b61010261012f3660046109c9565b610411565b6100c1610142366004610958565b61054e565b610102610155366004610a0b565b6105ac565b610102610168366004610a0b565b600080546001600160a01b0319166001600160a01b0392909216919091179055565b61010261019836600461098d565b610609565b6101b06101ab366004610a2d565b61073a565b6040519081526020016100d5565b600073ae13d989dac2f0debff460ac112a837c89baa7cd60618390036101f9575073ae13d989dac2f0debff460ac112a837c89baa7cd61025e565b8260610361021c575073ae13d989dac2f0debff460ac112a837c89baa7cd61025e565b60405162461bcd60e51b8152602060048201526013602482015272756e737570706f72746564206e6574776f726b60681b604482015260640160405180910390fd5b92915050565b6040805160038082526080820190925260009160208201606080368337019050509050838160008151811061029b5761029b610a6d565b60200260200101906001600160a01b031690816001600160a01b0316815250506102c66002546101be565b816001815181106102d9576102d9610a6d565b6001600160a01b03928316602091820292909201015260015482519116908290600290811061030a5761030a610a6d565b6001600160a01b03928316602091820292909201015260015460005460405163095ea7b360e01b81529183169263095ea7b392610351929091169060001990600401610a83565b6020604051808303816000875af1158015610370573d6000803e3d6000fd5b505050506040513d601f19601f820116820180604052508101906103949190610a9c565b50600080546001600160a01b031690635c11d79590849084876103b9426103e8610ad4565b6040518663ffffffff1660e01b81526004016103d9959493929190610b30565b600060405180830381600087803b1580156103f357600080fd5b505af1158015610407573d6000803e3d6000fd5b5050505050505050565b60005460405163095ea7b360e01b81526001600160a01b038681169263095ea7b392610447929091169060001990600401610a83565b6020604051808303816000875af1158015610466573d6000803e3d6000fd5b505050506040513d601f19601f8201168201806040525081019061048a9190610a9c565b50600080546001600160a01b03169063f305d7199083903090869080896104b342612710610ad4565b60405160e089901b6001600160e01b03191681526001600160a01b039687166004820152602481019590955260448501939093526064840191909152909216608482015260a481019190915260c40160606040518083038185885af1158015610520573d6000803e3d6000fd5b50505050506040513d601f19601f820116820180604052508101906105459190610b6c565b50505050505050565b60007378867bbeef44f2326bf8ddd1941a4439382ef2a7606183900361058957507378867bbeef44f2326bf8ddd1941a4439382ef2a761025e565b8260610361021c57507378867bbeef44f2326bf8ddd1941a4439382ef2a761025e565b806040516105b99061094b565b6001600160a01b039091168152602001604051809103906000f0801580156105e5573d6000803e3d6000fd5b50600380546001600160a01b0319166001600160a01b039290921691909117905550565b604080516002808252606082018352600092602083019080368337019050509050838160008151811061063e5761063e610a6d565b60200260200101906001600160a01b031690816001600160a01b0316815250506106696002546101be565b8160018151811061067c5761067c610a6d565b6001600160a01b03928316602091820292909201015260005460405163095ea7b360e01b81528683169263095ea7b3926106bf9291169060001990600401610a83565b6020604051808303816000875af11580156106de573d6000803e3d6000fd5b505050506040513d601f19601f820116820180604052508101906107029190610a9c565b506000805460405163791ac94760e01b81526001600160a01b039091169163791ac947916103d9918691869089904290600401610b30565b600080600360009054906101000a90046001600160a01b03166001600160a01b031663b5acc9116040518163ffffffff1660e01b8152600401602060405180830381865afa158015610790573d6000803e3d6000fd5b505050506040513d601f19601f820116820180604052508101906107b49190610b9a565b6107c3906402540be400610bb3565b60408051600380825260808201909252919250600091906020820160608036833701905050905084816000815181106107fe576107fe610a6d565b60200260200101906001600160a01b031690816001600160a01b0316815250506108296002546101be565b8160018151811061083c5761083c610a6d565b60200260200101906001600160a01b031690816001600160a01b03168152505061086760025461054e565b8160028151811061087a5761087a610a6d565b6001600160a01b0392831660209182029290920101526000805460405163d06ca61f60e01b81529192169063d06ca61f906108bb9088908690600401610bd2565b600060405180830381865afa1580156108d8573d6000803e3d6000fd5b505050506040513d6000823e601f3d908101601f191682016040526109009190810190610bf3565b905060008160018151811061091757610917610a6d565b60200260200101519050670de0b6b3a764000081856109369190610bb3565b6109409190610cb1565b979650505050505050565b61060480610cd483390190565b60006020828403121561096a57600080fd5b5035919050565b80356001600160a01b038116811461098857600080fd5b919050565b6000806000606084860312156109a257600080fd5b6109ab84610971565b92506109b960208501610971565b9150604084013590509250925092565b600080600080608085870312156109df57600080fd5b6109e885610971565b93506109f660208601610971565b93969395505050506040820135916060013590565b600060208284031215610a1d57600080fd5b610a2682610971565b9392505050565b60008060408385031215610a4057600080fd5b610a4983610971565b946020939093013593505050565b634e487b7160e01b600052604160045260246000fd5b634e487b7160e01b600052603260045260246000fd5b6001600160a01b03929092168252602082015260400190565b600060208284031215610aae57600080fd5b81518015158114610a2657600080fd5b634e487b7160e01b600052601160045260246000fd5b60008219821115610ae757610ae7610abe565b500190565b600081518084526020808501945080840160005b83811015610b255781516001600160a01b031687529582019590820190600101610b00565b509495945050505050565b85815284602082015260a060408201526000610b4f60a0830186610aec565b6001600160a01b0394909416606083015250608001529392505050565b600080600060608486031215610b8157600080fd5b8351925060208401519150604084015190509250925092565b600060208284031215610bac57600080fd5b5051919050565b6000816000190483118215151615610bcd57610bcd610abe565b500290565b828152604060208201526000610beb6040830184610aec565b949350505050565b60006020808385031215610c0657600080fd5b825167ffffffffffffffff80821115610c1e57600080fd5b818501915085601f830112610c3257600080fd5b815181811115610c4457610c44610a57565b8060051b604051601f19603f83011681018181108582111715610c6957610c69610a57565b604052918252848201925083810185019188831115610c8757600080fd5b938501935b82851015610ca557845184529385019392850192610c8c565b98975050505050505050565b600082610cce57634e487b7160e01b600052601260045260246000fd5b50049056fe608060405234801561001057600080fd5b5060405161060438038061060483398101604081905261002f91610054565b600080546001600160a01b0319166001600160a01b0392909216919091179055610084565b60006020828403121561006657600080fd5b81516001600160a01b038116811461007d57600080fd5b9392505050565b610571806100936000396000f3fe608060405234801561001057600080fd5b50600436106100415760003560e01c806307fed6ac146100465780630d11d22214610060578063b5acc91114610073575b600080fd5b61004e61007b565b60405190815260200160405180910390f35b61004e61006e3660046102e3565b610099565b61004e610252565b6000610085610252565b610094906402540be400610324565b905090565b6000806100a4610252565b6100b3906402540be400610324565b604080516002808252606082018352929350600092909160208301908036833701905050905084816000815181106100ed576100ed610367565b60200260200101906001600160a01b031690816001600160a01b031681525050856001600160a01b031663ad5c46486040518163ffffffff1660e01b8152600401602060405180830381865afa15801561014b573d6000803e3d6000fd5b505050506040513d601f19601f8201168201806040525081019061016f919061037d565b8160018151811061018257610182610367565b6001600160a01b03928316602091820292909201015260405163d06ca61f60e01b815260009188169063d06ca61f906101c190889086906004016103a1565b600060405180830381865afa1580156101de573d6000803e3d6000fd5b505050506040513d6000823e601f3d908101601f1916820160405261020691908101906103f8565b905060008160018151811061021d5761021d610367565b60200260200101519050670de0b6b3a7640000818561023c9190610324565b61024691906104aa565b98975050505050505050565b6000805460408051633fabe5a360e21b8152905183926001600160a01b03169163feaf968c9160048083019260a09291908290030181865afa15801561029c573d6000803e3d6000fd5b505050506040513d601f19601f820116820180604052508101906102c091906104eb565b509195945050505050565b6001600160a01b03811681146102e057600080fd5b50565b6000806000606084860312156102f857600080fd5b8335610303816102cb565b92506020840135610313816102cb565b929592945050506040919091013590565b600081600019048311821515161561034c57634e487b7160e01b600052601160045260246000fd5b500290565b634e487b7160e01b600052604160045260246000fd5b634e487b7160e01b600052603260045260246000fd5b60006020828403121561038f57600080fd5b815161039a816102cb565b9392505050565b6000604082018483526020604081850152818551808452606086019150828701935060005b818110156103eb5784516001600160a01b0316835293830193918301916001016103c6565b5090979650505050505050565b6000602080838503121561040b57600080fd5b825167ffffffffffffffff8082111561042357600080fd5b818501915085601f83011261043757600080fd5b81518181111561044957610449610351565b8060051b604051601f19603f8301168101818110858211171561046e5761046e610351565b60405291825284820192508381018501918883111561048c57600080fd5b938501935b8285101561024657845184529385019392850192610491565b6000826104c757634e487b7160e01b600052601260045260246000fd5b500490565b805169ffffffffffffffffffff811681146104e657600080fd5b919050565b600080600080600060a0868803121561050357600080fd5b61050c866104cc565b945060208601519350604086015192506060860151915061052f608087016104cc565b9050929550929590935056fea26469706673582212208f8718de426620102b80559e42e1490d4816f78e3145fa1129c96a08cb59c73164736f6c634300080e0033a26469706673582212205112422c5eae8441c38031744e51f4fbb9e06560bc033aae44798dbde3128f5e64736f6c634300080e0033608060405234801561001057600080fd5b5060405161060438038061060483398101604081905261002f91610054565b600080546001600160a01b0319166001600160a01b0392909216919091179055610084565b60006020828403121561006657600080fd5b81516001600160a01b038116811461007d57600080fd5b9392505050565b610571806100936000396000f3fe608060405234801561001057600080fd5b50600436106100415760003560e01c806307fed6ac146100465780630d11d22214610060578063b5acc91114610073575b600080fd5b61004e61007b565b60405190815260200160405180910390f35b61004e61006e3660046102e3565b610099565b61004e610252565b6000610085610252565b610094906402540be400610324565b905090565b6000806100a4610252565b6100b3906402540be400610324565b604080516002808252606082018352929350600092909160208301908036833701905050905084816000815181106100ed576100ed610367565b60200260200101906001600160a01b031690816001600160a01b031681525050856001600160a01b031663ad5c46486040518163ffffffff1660e01b8152600401602060405180830381865afa15801561014b573d6000803e3d6000fd5b505050506040513d601f19601f8201168201806040525081019061016f919061037d565b8160018151811061018257610182610367565b6001600160a01b03928316602091820292909201015260405163d06ca61f60e01b815260009188169063d06ca61f906101c190889086906004016103a1565b600060405180830381865afa1580156101de573d6000803e3d6000fd5b505050506040513d6000823e601f3d908101601f1916820160405261020691908101906103f8565b905060008160018151811061021d5761021d610367565b60200260200101519050670de0b6b3a7640000818561023c9190610324565b61024691906104aa565b98975050505050505050565b6000805460408051633fabe5a360e21b8152905183926001600160a01b03169163feaf968c9160048083019260a09291908290030181865afa15801561029c573d6000803e3d6000fd5b505050506040513d601f19601f820116820180604052508101906102c091906104eb565b509195945050505050565b6001600160a01b03811681146102e057600080fd5b50565b6000806000606084860312156102f857600080fd5b8335610303816102cb565b92506020840135610313816102cb565b929592945050506040919091013590565b600081600019048311821515161561034c57634e487b7160e01b600052601160045260246000fd5b500290565b634e487b7160e01b600052604160045260246000fd5b634e487b7160e01b600052603260045260246000fd5b60006020828403121561038f57600080fd5b815161039a816102cb565b9392505050565b6000604082018483526020604081850152818551808452606086019150828701935060005b818110156103eb5784516001600160a01b0316835293830193918301916001016103c6565b5090979650505050505050565b6000602080838503121561040b57600080fd5b825167ffffffffffffffff8082111561042357600080fd5b818501915085601f83011261043757600080fd5b81518181111561044957610449610351565b8060051b604051601f19603f8301168101818110858211171561046e5761046e610351565b60405291825284820192508381018501918883111561048c57600080fd5b938501935b8285101561024657845184529385019392850192610491565b6000826104c757634e487b7160e01b600052601260045260246000fd5b500490565b805169ffffffffffffffffffff811681146104e657600080fd5b919050565b600080600080600060a0868803121561050357600080fd5b61050c866104cc565b945060208601519350604086015192506060860151915061052f608087016104cc565b9050929550929590935056fea26469706673582212208f8718de426620102b80559e42e1490d4816f78e3145fa1129c96a08cb59c73164736f6c634300080e0033a264697066735822122035ffe0cdd75740aaa882615a12de1eac8a4011fe382d66dd2b359f18564274e564736f6c634300080e0033",
  "linkReferences": {},
  "deployedLinkReferences": {}
}