{
    "contractName": "DexRouterManager",
    "abi": [
        {
            "inputs": [
                {
                    "internalType": "address",
                    "name": "_dexRouterAddress",
                    "type": "address"
                }
            ],
            "stateMutability": "nonpayable",
            "type": "constructor"
        },
        {
            "inputs": [
                {
                    "internalType": "address",
                    "name": "token",
                    "type": "address"
                },
                {
                    "internalType": "address",
                    "name": "to",
                    "type": "address"
                },
                {
                    "internalType": "uint256",
                    "name": "tokenAmount",
                    "type": "uint256"
                },
                {
                    "internalType": "uint256",
                    "name": "ethAmount",
                    "type": "uint256"
                }
            ],
            "name": "addLiquidity",
            "outputs": [],
            "stateMutability": "nonpayable",
            "type": "function"
        },
        {
            "inputs": [],
            "name": "getDexRouter",
            "outputs": [
                {
                    "internalType": "contract IMetaStocksMultiDexRouter",
                    "name": "",
                    "type": "address"
                }
            ],
            "stateMutability": "view",
            "type": "function"
        },
        {
            "inputs": [],
            "name": "getDexRouterAddress",
            "outputs": [
                {
                    "internalType": "address",
                    "name": "",
                    "type": "address"
                }
            ],
            "stateMutability": "view",
            "type": "function"
        },
        {
            "inputs": [
                {
                    "internalType": "uint256",
                    "name": "_networkId",
                    "type": "uint256"
                }
            ],
            "name": "getNativeTokenAddress",
            "outputs": [
                {
                    "internalType": "address",
                    "name": "",
                    "type": "address"
                }
            ],
            "stateMutability": "pure",
            "type": "function"
        },
        {
            "inputs": [],
            "name": "isInSwap",
            "outputs": [
                {
                    "internalType": "bool",
                    "name": "",
                    "type": "bool"
                }
            ],
            "stateMutability": "view",
            "type": "function"
        },
        {
            "inputs": [
                {
                    "internalType": "address",
                    "name": "_dexRouterAddress",
                    "type": "address"
                }
            ],
            "name": "setDexRouter",
            "outputs": [],
            "stateMutability": "nonpayable",
            "type": "function"
        },
        {
            "inputs": [
                {
                    "internalType": "address",
                    "name": "token",
                    "type": "address"
                },
                {
                    "internalType": "address",
                    "name": "to",
                    "type": "address"
                },
                {
                    "internalType": "uint256",
                    "name": "amount",
                    "type": "uint256"
                }
            ],
            "name": "swapTokensForNativeToken",
            "outputs": [],
            "stateMutability": "nonpayable",
            "type": "function"
        },
        {
            "inputs": [
                {
                    "internalType": "address",
                    "name": "to",
                    "type": "address"
                },
                {
                    "internalType": "uint256",
                    "name": "amount",
                    "type": "uint256"
                }
            ],
            "name": "swapTokensForStableCoin",
            "outputs": [],
            "stateMutability": "nonpayable",
            "type": "function"
        }
    ],
    "bytecode": "608060405234801561001057600080fd5b5060405161092a38038061092a83398101604081905261002f91610061565b600080546001600160a01b039092166001600160a01b031992831617905561a869600255600180549091169055610091565b60006020828403121561007357600080fd5b81516001600160a01b038116811461008a57600080fd5b9392505050565b61088a806100a06000396000f3fe608060405234801561001057600080fd5b50600436106100885760003560e01c8063cc9968991161005b578063cc996899146100e3578063cf6c62ea14610100578063f72f863b14610113578063f7a765761461014357600080fd5b8063197e8da91461008d5780632c4a7361146100bd57806385954d8c146100d2578063b9c55241146100d2575b600080fd5b6100a061009b366004610658565b610156565b6040516001600160a01b0390911681526020015b60405180910390f35b6100d06100cb36600461068d565b610212565b005b6000546001600160a01b03166100a0565b600154600160a01b900460ff1660405190151581526020016100b4565b6100d061010e3660046106b7565b6103bc565b6100d06101213660046106f9565b600080546001600160a01b0319166001600160a01b0392909216919091179055565b6100d061015136600461071b565b6104ef565b600073ae13d989dac2f0debff460ac112a837c89baa7cd6061839003610191575073ae13d989dac2f0debff460ac112a837c89baa7cd6101f6565b826061036101b4575073ae13d989dac2f0debff460ac112a837c89baa7cd6101f6565b60405162461bcd60e51b8152602060048201526013602482015272756e737570706f72746564206e6574776f726b60681b604482015260640160405180910390fd5b5073ae13d989dac2f0debff460ac112a837c89baa7cd92915050565b6040805160038082526080820190925260009160208201606080368337019050509050308160008151811061024957610249610757565b60200260200101906001600160a01b031690816001600160a01b031681525050610274600254610156565b8160018151811061028757610287610757565b6001600160a01b0392831660209182029290920101526001548251911690829060029081106102b8576102b8610757565b6001600160a01b03928316602091820292909201015260015460005460405163095ea7b360e01b81529083166004820152600019602482015291169063095ea7b3906044016020604051808303816000875af115801561031c573d6000803e3d6000fd5b505050506040513d601f19601f82011682018060405250810190610340919061076d565b50600080546001600160a01b031690635c11d7959084908487610365426103e861078f565b6040518663ffffffff1660e01b81526004016103859594939291906107b5565b600060405180830381600087803b15801561039f57600080fd5b505af11580156103b3573d6000803e3d6000fd5b50505050505050565b60005460405163095ea7b360e01b81526001600160a01b03918216600482015260001960248201529085169063095ea7b3906044016020604051808303816000875af1158015610410573d6000803e3d6000fd5b505050506040513d601f19601f82011682018060405250810190610434919061076d565b50600080546001600160a01b03169063f305d71990839030908690808961045d4261271061078f565b60405160e089901b6001600160e01b03191681526001600160a01b039687166004820152602481019590955260448501939093526064840191909152909216608482015260a481019190915260c40160606040518083038185885af11580156104ca573d6000803e3d6000fd5b50505050506040513d601f19601f820116820180604052508101906103b39190610826565b604080516002808252606082018352600092602083019080368337019050509050838160008151811061052457610524610757565b60200260200101906001600160a01b031690816001600160a01b03168152505061054f600254610156565b8160018151811061056257610562610757565b6001600160a01b03928316602091820292909201015260005460405163095ea7b360e01b8152908216600482015260001960248201529085169063095ea7b3906044016020604051808303816000875af11580156105c4573d6000803e3d6000fd5b505050506040513d601f19601f820116820180604052508101906105e8919061076d565b506000805460405163791ac94760e01b81526001600160a01b039091169163791ac947916106209186918690899042906004016107b5565b600060405180830381600087803b15801561063a57600080fd5b505af115801561064e573d6000803e3d6000fd5b5050505050505050565b60006020828403121561066a57600080fd5b5035919050565b80356001600160a01b038116811461068857600080fd5b919050565b600080604083850312156106a057600080fd5b6106a983610671565b946020939093013593505050565b600080600080608085870312156106cd57600080fd5b6106d685610671565b93506106e460208601610671565b93969395505050506040820135916060013590565b60006020828403121561070b57600080fd5b61071482610671565b9392505050565b60008060006060848603121561073057600080fd5b61073984610671565b925061074760208501610671565b9150604084013590509250925092565b634e487b7160e01b600052603260045260246000fd5b60006020828403121561077f57600080fd5b8151801515811461071457600080fd5b600082198211156107b057634e487b7160e01b600052601160045260246000fd5b500190565b600060a082018783526020878185015260a0604085015281875180845260c086019150828901935060005b818110156108055784516001600160a01b0316835293830193918301916001016107e0565b50506001600160a01b03969096166060850152505050608001529392505050565b60008060006060848603121561083b57600080fd5b835192506020840151915060408401519050925092509256fea2646970667358221220c042fa8cb439f1e34c49f7de5f7da85e79c543ba86805b42787f2ba9ee47529464736f6c634300080e0033",
    "sourcePath": "/home/nkt/Desktop/metaStoksContracts/contracts/managers/DexRouterManager.sol",
    "compiler": {
        "name": "solc",
        "version": "0.8.14+commit.80d49f37"
    },
    "functionHashes": {
        "addLiquidity(address,address,uint256,uint256)": "cf6c62ea",
        "getDexRouter()": "85954d8c",
        "getDexRouterAddress()": "b9c55241",
        "getNativeTokenAddress(uint256)": "197e8da9",
        "isInSwap()": "cc996899",
        "setDexRouter(address)": "f72f863b",
        "swapTokensForNativeToken(address,address,uint256)": "f7a76576",
        "swapTokensForStableCoin(address,uint256)": "2c4a7361"
    },
    "gasEstimates": {
        "creation": {
            "codeDepositCost": "437200",
            "executionCost": "infinite",
            "totalCost": "infinite"
        },
        "external": {
            "addLiquidity(address,address,uint256,uint256)": "infinite",
            "getDexRouter()": "2365",
            "getDexRouterAddress()": "2387",
            "getNativeTokenAddress(uint256)": "379",
            "isInSwap()": "2309",
            "setDexRouter(address)": "24603",
            "swapTokensForNativeToken(address,address,uint256)": "infinite",
            "swapTokensForStableCoin(address,uint256)": "infinite"
        },
        "internal": {
            "getPathForTokensToTokens(address,address)": "infinite"
        }
    }
}