{
  "_format": "hh-sol-artifact-1",
  "contractName": "MetaStocksFranchiseShare",
  "sourceName": "contracts/MetaStocksFranchiseShare.sol",
  "abi": [
    {
      "anonymous": false,
      "inputs": [
        {
          "indexed": true,
          "internalType": "address",
          "name": "account",
          "type": "address"
        },
        {
          "indexed": true,
          "internalType": "address",
          "name": "operator",
          "type": "address"
        },
        {
          "indexed": false,
          "internalType": "bool",
          "name": "approved",
          "type": "bool"
        }
      ],
      "name": "ApprovalForAll",
      "type": "event"
    },
    {
      "anonymous": false,
      "inputs": [
        {
          "indexed": false,
          "internalType": "uint8",
          "name": "version",
          "type": "uint8"
        }
      ],
      "name": "Initialized",
      "type": "event"
    },
    {
      "anonymous": false,
      "inputs": [
        {
          "indexed": true,
          "internalType": "address",
          "name": "previousOwner",
          "type": "address"
        },
        {
          "indexed": true,
          "internalType": "address",
          "name": "newOwner",
          "type": "address"
        }
      ],
      "name": "OwnershipTransferred",
      "type": "event"
    },
    {
      "anonymous": false,
      "inputs": [
        {
          "indexed": false,
          "internalType": "address",
          "name": "account",
          "type": "address"
        }
      ],
      "name": "Paused",
      "type": "event"
    },
    {
      "anonymous": false,
      "inputs": [
        {
          "indexed": true,
          "internalType": "address",
          "name": "operator",
          "type": "address"
        },
        {
          "indexed": true,
          "internalType": "address",
          "name": "from",
          "type": "address"
        },
        {
          "indexed": true,
          "internalType": "address",
          "name": "to",
          "type": "address"
        },
        {
          "indexed": false,
          "internalType": "uint256[]",
          "name": "ids",
          "type": "uint256[]"
        },
        {
          "indexed": false,
          "internalType": "uint256[]",
          "name": "values",
          "type": "uint256[]"
        }
      ],
      "name": "TransferBatch",
      "type": "event"
    },
    {
      "anonymous": false,
      "inputs": [
        {
          "indexed": true,
          "internalType": "address",
          "name": "operator",
          "type": "address"
        },
        {
          "indexed": true,
          "internalType": "address",
          "name": "from",
          "type": "address"
        },
        {
          "indexed": true,
          "internalType": "address",
          "name": "to",
          "type": "address"
        },
        {
          "indexed": false,
          "internalType": "uint256",
          "name": "id",
          "type": "uint256"
        },
        {
          "indexed": false,
          "internalType": "uint256",
          "name": "value",
          "type": "uint256"
        }
      ],
      "name": "TransferSingle",
      "type": "event"
    },
    {
      "anonymous": false,
      "inputs": [
        {
          "indexed": false,
          "internalType": "string",
          "name": "value",
          "type": "string"
        },
        {
          "indexed": true,
          "internalType": "uint256",
          "name": "id",
          "type": "uint256"
        }
      ],
      "name": "URI",
      "type": "event"
    },
    {
      "anonymous": false,
      "inputs": [
        {
          "indexed": false,
          "internalType": "address",
          "name": "account",
          "type": "address"
        }
      ],
      "name": "Unpaused",
      "type": "event"
    },
    {
      "inputs": [
        {
          "internalType": "address",
          "name": "account",
          "type": "address"
        },
        {
          "internalType": "uint256",
          "name": "id",
          "type": "uint256"
        }
      ],
      "name": "balanceOf",
      "outputs": [
        {
          "internalType": "uint256",
          "name": "",
          "type": "uint256"
        }
      ],
      "stateMutability": "view",
      "type": "function"
    },
    {
      "inputs": [
        {
          "internalType": "address[]",
          "name": "accounts",
          "type": "address[]"
        },
        {
          "internalType": "uint256[]",
          "name": "ids",
          "type": "uint256[]"
        }
      ],
      "name": "balanceOfBatch",
      "outputs": [
        {
          "internalType": "uint256[]",
          "name": "",
          "type": "uint256[]"
        }
      ],
      "stateMutability": "view",
      "type": "function"
    },
    {
      "inputs": [
        {
          "internalType": "address",
          "name": "account",
          "type": "address"
        },
        {
          "internalType": "uint256",
          "name": "id",
          "type": "uint256"
        },
        {
          "internalType": "uint256",
          "name": "value",
          "type": "uint256"
        }
      ],
      "name": "burn",
      "outputs": [],
      "stateMutability": "nonpayable",
      "type": "function"
    },
    {
      "inputs": [
        {
          "internalType": "address",
          "name": "account",
          "type": "address"
        },
        {
          "internalType": "uint256[]",
          "name": "ids",
          "type": "uint256[]"
        },
        {
          "internalType": "uint256[]",
          "name": "values",
          "type": "uint256[]"
        }
      ],
      "name": "burnBatch",
      "outputs": [],
      "stateMutability": "nonpayable",
      "type": "function"
    },
    {
      "inputs": [
        {
          "internalType": "uint256",
          "name": "id",
          "type": "uint256"
        }
      ],
      "name": "exists",
      "outputs": [
        {
          "internalType": "bool",
          "name": "",
          "type": "bool"
        }
      ],
      "stateMutability": "view",
      "type": "function"
    },
    {
      "inputs": [],
      "name": "getTest",
      "outputs": [
        {
          "internalType": "uint256",
          "name": "",
          "type": "uint256"
        }
      ],
      "stateMutability": "pure",
      "type": "function"
    },
    {
      "inputs": [],
      "name": "initialize",
      "outputs": [],
      "stateMutability": "nonpayable",
      "type": "function"
    },
    {
      "inputs": [
        {
          "internalType": "address",
          "name": "account",
          "type": "address"
        },
        {
          "internalType": "address",
          "name": "operator",
          "type": "address"
        }
      ],
      "name": "isApprovedForAll",
      "outputs": [
        {
          "internalType": "bool",
          "name": "",
          "type": "bool"
        }
      ],
      "stateMutability": "view",
      "type": "function"
    },
    {
      "inputs": [
        {
          "internalType": "address",
          "name": "to",
          "type": "address"
        },
        {
          "internalType": "uint256",
          "name": "id",
          "type": "uint256"
        },
        {
          "internalType": "uint256",
          "name": "amount",
          "type": "uint256"
        },
        {
          "internalType": "bytes",
          "name": "data",
          "type": "bytes"
        }
      ],
      "name": "mint",
      "outputs": [],
      "stateMutability": "nonpayable",
      "type": "function"
    },
    {
      "inputs": [
        {
          "internalType": "address",
          "name": "to",
          "type": "address"
        },
        {
          "internalType": "uint256[]",
          "name": "ids",
          "type": "uint256[]"
        },
        {
          "internalType": "uint256[]",
          "name": "amounts",
          "type": "uint256[]"
        },
        {
          "internalType": "bytes",
          "name": "data",
          "type": "bytes"
        }
      ],
      "name": "mintBatch",
      "outputs": [],
      "stateMutability": "nonpayable",
      "type": "function"
    },
    {
      "inputs": [],
      "name": "owner",
      "outputs": [
        {
          "internalType": "address",
          "name": "",
          "type": "address"
        }
      ],
      "stateMutability": "view",
      "type": "function"
    },
    {
      "inputs": [],
      "name": "pause",
      "outputs": [],
      "stateMutability": "nonpayable",
      "type": "function"
    },
    {
      "inputs": [],
      "name": "paused",
      "outputs": [
        {
          "internalType": "bool",
          "name": "",
          "type": "bool"
        }
      ],
      "stateMutability": "view",
      "type": "function"
    },
    {
      "inputs": [],
      "name": "renounceOwnership",
      "outputs": [],
      "stateMutability": "nonpayable",
      "type": "function"
    },
    {
      "inputs": [
        {
          "internalType": "address",
          "name": "from",
          "type": "address"
        },
        {
          "internalType": "address",
          "name": "to",
          "type": "address"
        },
        {
          "internalType": "uint256[]",
          "name": "ids",
          "type": "uint256[]"
        },
        {
          "internalType": "uint256[]",
          "name": "amounts",
          "type": "uint256[]"
        },
        {
          "internalType": "bytes",
          "name": "data",
          "type": "bytes"
        }
      ],
      "name": "safeBatchTransferFrom",
      "outputs": [],
      "stateMutability": "nonpayable",
      "type": "function"
    },
    {
      "inputs": [
        {
          "internalType": "address",
          "name": "from",
          "type": "address"
        },
        {
          "internalType": "address",
          "name": "to",
          "type": "address"
        },
        {
          "internalType": "uint256",
          "name": "id",
          "type": "uint256"
        },
        {
          "internalType": "uint256",
          "name": "amount",
          "type": "uint256"
        },
        {
          "internalType": "bytes",
          "name": "data",
          "type": "bytes"
        }
      ],
      "name": "safeTransferFrom",
      "outputs": [],
      "stateMutability": "nonpayable",
      "type": "function"
    },
    {
      "inputs": [
        {
          "internalType": "address",
          "name": "operator",
          "type": "address"
        },
        {
          "internalType": "bool",
          "name": "approved",
          "type": "bool"
        }
      ],
      "name": "setApprovalForAll",
      "outputs": [],
      "stateMutability": "nonpayable",
      "type": "function"
    },
    {
      "inputs": [
        {
          "internalType": "string",
          "name": "newuri",
          "type": "string"
        }
      ],
      "name": "setURI",
      "outputs": [],
      "stateMutability": "nonpayable",
      "type": "function"
    },
    {
      "inputs": [
        {
          "internalType": "bytes4",
          "name": "interfaceId",
          "type": "bytes4"
        }
      ],
      "name": "supportsInterface",
      "outputs": [
        {
          "internalType": "bool",
          "name": "",
          "type": "bool"
        }
      ],
      "stateMutability": "view",
      "type": "function"
    },
    {
      "inputs": [
        {
          "internalType": "uint256",
          "name": "id",
          "type": "uint256"
        }
      ],
      "name": "totalSupply",
      "outputs": [
        {
          "internalType": "uint256",
          "name": "",
          "type": "uint256"
        }
      ],
      "stateMutability": "view",
      "type": "function"
    },
    {
      "inputs": [
        {
          "internalType": "address",
          "name": "newOwner",
          "type": "address"
        }
      ],
      "name": "transferOwnership",
      "outputs": [],
      "stateMutability": "nonpayable",
      "type": "function"
    },
    {
      "inputs": [],
      "name": "unpause",
      "outputs": [],
      "stateMutability": "nonpayable",
      "type": "function"
    },
    {
      "inputs": [
        {
          "internalType": "uint256",
          "name": "",
          "type": "uint256"
        }
      ],
      "name": "uri",
      "outputs": [
        {
          "internalType": "string",
          "name": "",
          "type": "string"
        }
      ],
      "stateMutability": "view",
      "type": "function"
    }
  ],
  "bytecode": "0x60806040523480156200001157600080fd5b506200001c62000022565b62000152565b6200002e60ff62000031565b50565b60008054610100900460ff1615620000ca578160ff1660011480156200006a575062000068306200014360201b620009f71760201c565b155b620000c25760405162461bcd60e51b815260206004820152602e60248201526000805160206200289a83398151915260448201526d191e481a5b9a5d1a585b1a5e995960921b60648201526084015b60405180910390fd5b506000919050565b60005460ff808416911610620001295760405162461bcd60e51b815260206004820152602e60248201526000805160206200289a83398151915260448201526d191e481a5b9a5d1a585b1a5e995960921b6064820152608401620000b9565b506000805460ff191660ff92909216919091179055600190565b6001600160a01b03163b151590565b61273880620001626000396000f3fe608060405234801561001057600080fd5b506004361061014c5760003560e01c8063715018a6116100c3578063a8cd0a801161007c578063a8cd0a80146102bc578063bd85b039146102c3578063e985e9c5146102e4578063f242432a14610320578063f2fde38b14610333578063f5298aca1461034657600080fd5b8063715018a61461025e578063731133e9146102665780638129fc1c146102795780638456cb59146102815780638da5cb5b14610289578063a22cb465146102a957600080fd5b80632eb2c2d6116101155780632eb2c2d6146101e25780633f4ba83a146101f55780634e1273f4146101fd5780634f558e791461021d5780635c975abb146102405780636b20c4541461024b57600080fd5b8062fdd58e1461015157806301ffc9a71461017757806302fe53051461019a5780630e89341c146101af5780631f7fdffa146101cf575b600080fd5b61016461015f366004611aaf565b610359565b6040519081526020015b60405180910390f35b61018a610185366004611aef565b6103f2565b604051901515815260200161016e565b6101ad6101a8366004611bb2565b610444565b005b6101c26101bd366004611c02565b61047f565b60405161016e9190611c68565b6101ad6101dd366004611d2f565b610513565b6101ad6101f0366004611dc7565b610554565b6101ad6105eb565b61021061020b366004611e70565b610624565b60405161016e9190611f75565b61018a61022b366004611c02565b600090815261012d6020526040902054151590565b60c95460ff1661018a565b6101ad610259366004611f88565b61074d565b6101ad610795565b6101ad610274366004611ffb565b6107ce565b6101ad610809565b6101ad61087d565b6102916108b4565b6040516001600160a01b03909116815260200161016e565b6101ad6102b736600461204f565b6108c3565b6000610164565b6101646102d1366004611c02565b600090815261012d602052604090205490565b61018a6102f236600461208b565b6001600160a01b03918216600090815260666020908152604080832093909416825291909152205460ff1690565b6101ad61032e3660046120be565b6108d2565b6101ad610341366004612122565b610917565b6101ad61035436600461213d565b6109b4565b60006001600160a01b0383166103ca5760405162461bcd60e51b815260206004820152602b60248201527f455243313135353a2062616c616e636520717565727920666f7220746865207a60448201526a65726f206164647265737360a81b60648201526084015b60405180910390fd5b5060009081526065602090815260408083206001600160a01b03949094168352929052205490565b60006001600160e01b03198216636cdb3d1360e11b148061042357506001600160e01b031982166303a24d0760e21b145b8061043e57506301ffc9a760e01b6001600160e01b03198316145b92915050565b3361044d6108b4565b6001600160a01b0316146104735760405162461bcd60e51b81526004016103c190612170565b61047c81610a06565b50565b60606067805461048e906121a5565b80601f01602080910402602001604051908101604052809291908181526020018280546104ba906121a5565b80156105075780601f106104dc57610100808354040283529160200191610507565b820191906000526020600020905b8154815290600101906020018083116104ea57829003601f168201915b50505050509050919050565b3361051c6108b4565b6001600160a01b0316146105425760405162461bcd60e51b81526004016103c190612170565b61054e84848484610a19565b50505050565b6001600160a01b038516331480610570575061057085336102f2565b6105d75760405162461bcd60e51b815260206004820152603260248201527f455243313135353a207472616e736665722063616c6c6572206973206e6f74206044820152711bdddb995c881b9bdc88185c1c1c9bdd995960721b60648201526084016103c1565b6105e48585858585610b62565b5050505050565b336105f46108b4565b6001600160a01b03161461061a5760405162461bcd60e51b81526004016103c190612170565b610622610cfd565b565b606081518351146106895760405162461bcd60e51b815260206004820152602960248201527f455243313135353a206163636f756e747320616e6420696473206c656e677468604482015268040dad2e6dac2e8c6d60bb1b60648201526084016103c1565b600083516001600160401b038111156106a4576106a4611b13565b6040519080825280602002602001820160405280156106cd578160200160208202803683370190505b50905060005b8451811015610745576107188582815181106106f1576106f16121df565b602002602001015185838151811061070b5761070b6121df565b6020026020010151610359565b82828151811061072a5761072a6121df565b602090810291909101015261073e8161220b565b90506106d3565b509392505050565b6001600160a01b038316331480610769575061076983336102f2565b6107855760405162461bcd60e51b81526004016103c190612224565b610790838383610d90565b505050565b3361079e6108b4565b6001600160a01b0316146107c45760405162461bcd60e51b81526004016103c190612170565b6106226000610f1d565b336107d76108b4565b6001600160a01b0316146107fd5760405162461bcd60e51b81526004016103c190612170565b61054e84848484610f6f565b60006108156001611048565b9050801561082d576000805461ff0019166101001790555b6108356110dc565b801561047c576000805461ff0019169055604051600181527f7f26b83ff96e1f2b6a682f133852f6798a09c465da95921460cefb38474024989060200160405180910390a150565b336108866108b4565b6001600160a01b0316146108ac5760405162461bcd60e51b81526004016103c190612170565b610622611138565b6097546001600160a01b031690565b6108ce338383611190565b5050565b6001600160a01b0385163314806108ee57506108ee85336102f2565b61090a5760405162461bcd60e51b81526004016103c190612224565b6105e48585858585611270565b336109206108b4565b6001600160a01b0316146109465760405162461bcd60e51b81526004016103c190612170565b6001600160a01b0381166109ab5760405162461bcd60e51b815260206004820152602660248201527f4f776e61626c653a206e6577206f776e657220697320746865207a65726f206160448201526564647265737360d01b60648201526084016103c1565b61047c81610f1d565b6001600160a01b0383163314806109d057506109d083336102f2565b6109ec5760405162461bcd60e51b81526004016103c190612224565b61079083838361139a565b6001600160a01b03163b151590565b80516108ce9060679060208401906119ff565b6001600160a01b038416610a3f5760405162461bcd60e51b81526004016103c19061226d565b8151835114610a605760405162461bcd60e51b81526004016103c1906122ae565b33610a70816000878787876114a4565b60005b8451811015610b0c57838181518110610a8e57610a8e6121df565b602002602001015160656000878481518110610aac57610aac6121df565b602002602001015181526020019081526020016000206000886001600160a01b03166001600160a01b031681526020019081526020016000206000828254610af491906122f6565b90915550819050610b048161220b565b915050610a73565b50846001600160a01b031660006001600160a01b0316826001600160a01b03166000805160206126c38339815191528787604051610b4b92919061230e565b60405180910390a46105e4816000878787876114d5565b8151835114610b835760405162461bcd60e51b81526004016103c1906122ae565b6001600160a01b038416610ba95760405162461bcd60e51b81526004016103c19061233c565b33610bb88187878787876114a4565b60005b8451811015610ca1576000858281518110610bd857610bd86121df565b602002602001015190506000858381518110610bf657610bf66121df565b60209081029190910181015160008481526065835260408082206001600160a01b038e168352909352919091205490915081811015610c475760405162461bcd60e51b81526004016103c190612381565b60008381526065602090815260408083206001600160a01b038e8116855292528083208585039055908b16825281208054849290610c869084906122f6565b9250508190555050505080610c9a9061220b565b9050610bbb565b50846001600160a01b0316866001600160a01b0316826001600160a01b03166000805160206126c38339815191528787604051610cdf92919061230e565b60405180910390a4610cf58187878787876114d5565b505050505050565b60c95460ff16610d465760405162461bcd60e51b815260206004820152601460248201527314185d5cd8589b194e881b9bdd081c185d5cd95960621b60448201526064016103c1565b60c9805460ff191690557f5db9ee0a495bf2e6ff9c91a7834c1ba4fdd244a5e8aa4e537bd38aeae4b073aa335b6040516001600160a01b03909116815260200160405180910390a1565b6001600160a01b038316610db65760405162461bcd60e51b81526004016103c1906123cb565b8051825114610dd75760405162461bcd60e51b81526004016103c1906122ae565b6000339050610dfa818560008686604051806020016040528060008152506114a4565b60005b8351811015610ec2576000848281518110610e1a57610e1a6121df565b602002602001015190506000848381518110610e3857610e386121df565b60209081029190910181015160008481526065835260408082206001600160a01b038c168352909352919091205490915081811015610e895760405162461bcd60e51b81526004016103c19061240e565b60009283526065602090815260408085206001600160a01b038b1686529091529092209103905580610eba8161220b565b915050610dfd565b5060006001600160a01b0316846001600160a01b0316826001600160a01b03166000805160206126c38339815191528686604051610f0192919061230e565b60405180910390a460408051602081019091526000905261054e565b609780546001600160a01b038381166001600160a01b0319831681179093556040519116919082907f8be0079c531659141344cd1fd0a4f28419497f9722a3daafe3b4186f6b6457e090600090a35050565b6001600160a01b038416610f955760405162461bcd60e51b81526004016103c19061226d565b336000610fa185611637565b90506000610fae85611637565b9050610fbf836000898585896114a4565b60008681526065602090815260408083206001600160a01b038b16845290915281208054879290610ff19084906122f6565b909155505060408051878152602081018790526001600160a01b03808a1692600092918716916000805160206126e3833981519152910160405180910390a461103f83600089898989611682565b50505050505050565b60008054610100900460ff1615611096578160ff1660011480156110725750611070306109f7565b155b61108e5760405162461bcd60e51b81526004016103c190612452565b506000919050565b60005460ff8084169116106110bd5760405162461bcd60e51b81526004016103c190612452565b506000805460ff191660ff92909216919091179055600190565b919050565b60006110e86001611048565b90508015611100576000805461ff0019166101001790555b61111860405180602001604052806000815250611744565b611120611774565b6111286117a3565b6111306117d2565b6108356117d2565b60c95460ff161561115b5760405162461bcd60e51b81526004016103c1906124a0565b60c9805460ff191660011790557f62e78cea01bee320cd4e420270b5ea74000d11b0c9f74754ebdbfc544b05a258610d733390565b816001600160a01b0316836001600160a01b0316036112035760405162461bcd60e51b815260206004820152602960248201527f455243313135353a2073657474696e6720617070726f76616c20737461747573604482015268103337b91039b2b63360b91b60648201526084016103c1565b6001600160a01b03838116600081815260666020908152604080832094871680845294825291829020805460ff191686151590811790915591519182527f17307eab39ab6107e8899845ad3d59bd9653f200f220920489ca2b5937696c31910160405180910390a3505050565b6001600160a01b0384166112965760405162461bcd60e51b81526004016103c19061233c565b3360006112a285611637565b905060006112af85611637565b90506112bf8389898585896114a4565b60008681526065602090815260408083206001600160a01b038c168452909152902054858110156113025760405162461bcd60e51b81526004016103c190612381565b60008781526065602090815260408083206001600160a01b038d8116855292528083208985039055908a168252812080548892906113419084906122f6565b909155505060408051888152602081018890526001600160a01b03808b16928c821692918816916000805160206126e3833981519152910160405180910390a461138f848a8a8a8a8a611682565b505050505050505050565b6001600160a01b0383166113c05760405162461bcd60e51b81526004016103c1906123cb565b3360006113cc84611637565b905060006113d984611637565b90506113f9838760008585604051806020016040528060008152506114a4565b60008581526065602090815260408083206001600160a01b038a1684529091529020548481101561143c5760405162461bcd60e51b81526004016103c19061240e565b60008681526065602090815260408083206001600160a01b038b81168086529184528285208a8703905582518b81529384018a90529092908816916000805160206126e3833981519152910160405180910390a460408051602081019091526000905261103f565b60c95460ff16156114c75760405162461bcd60e51b81526004016103c1906124a0565b610cf58686868686866117f9565b6114e7846001600160a01b03166109f7565b15610cf55760405163bc197c8160e01b81526001600160a01b0385169063bc197c819061152090899089908890889088906004016124ca565b6020604051808303816000875af192505050801561155b575060408051601f3d908101601f1916820190925261155891810190612528565b60015b61160757611567612545565b806308c379a0036115a0575061157b612561565b8061158657506115a2565b8060405162461bcd60e51b81526004016103c19190611c68565b505b60405162461bcd60e51b815260206004820152603460248201527f455243313135353a207472616e7366657220746f206e6f6e20455243313135356044820152732932b1b2b4bb32b91034b6b83632b6b2b73a32b960611b60648201526084016103c1565b6001600160e01b0319811663bc197c8160e01b1461103f5760405162461bcd60e51b81526004016103c1906125ea565b60408051600180825281830190925260609160009190602080830190803683370190505090508281600081518110611671576116716121df565b602090810291909101015292915050565b611694846001600160a01b03166109f7565b15610cf55760405163f23a6e6160e01b81526001600160a01b0385169063f23a6e61906116cd9089908990889088908890600401612632565b6020604051808303816000875af1925050508015611708575060408051601f3d908101601f1916820190925261170591810190612528565b60015b61171457611567612545565b6001600160e01b0319811663f23a6e6160e01b1461103f5760405162461bcd60e51b81526004016103c1906125ea565b600054610100900460ff1661176b5760405162461bcd60e51b81526004016103c190612677565b61047c81611975565b600054610100900460ff1661179b5760405162461bcd60e51b81526004016103c190612677565b61062261199c565b600054610100900460ff166117ca5760405162461bcd60e51b81526004016103c190612677565b6106226119cc565b600054610100900460ff166106225760405162461bcd60e51b81526004016103c190612677565b6001600160a01b0385166118815760005b835181101561187f57828181518110611825576118256121df565b602002602001015161012d6000868481518110611844576118446121df565b60200260200101518152602001908152602001600020600082825461186991906122f6565b9091555061187890508161220b565b905061180a565b505b6001600160a01b038416610cf55760005b835181101561103f5760008482815181106118af576118af6121df565b6020026020010151905060008483815181106118cd576118cd6121df565b60200260200101519050600061012d6000848152602001908152602001600020549050818110156119515760405162461bcd60e51b815260206004820152602860248201527f455243313135353a206275726e20616d6f756e74206578636565647320746f74604482015267616c537570706c7960c01b60648201526084016103c1565b600092835261012d60205260409092209103905561196e8161220b565b9050611892565b600054610100900460ff166104735760405162461bcd60e51b81526004016103c190612677565b600054610100900460ff166119c35760405162461bcd60e51b81526004016103c190612677565b61062233610f1d565b600054610100900460ff166119f35760405162461bcd60e51b81526004016103c190612677565b60c9805460ff19169055565b828054611a0b906121a5565b90600052602060002090601f016020900481019282611a2d5760008555611a73565b82601f10611a4657805160ff1916838001178555611a73565b82800160010185558215611a73579182015b82811115611a73578251825591602001919060010190611a58565b50611a7f929150611a83565b5090565b5b80821115611a7f5760008155600101611a84565b80356001600160a01b03811681146110d757600080fd5b60008060408385031215611ac257600080fd5b611acb83611a98565b946020939093013593505050565b6001600160e01b03198116811461047c57600080fd5b600060208284031215611b0157600080fd5b8135611b0c81611ad9565b9392505050565b634e487b7160e01b600052604160045260246000fd5b601f8201601f191681016001600160401b0381118282101715611b4e57611b4e611b13565b6040525050565b60006001600160401b03831115611b6e57611b6e611b13565b604051611b85601f8501601f191660200182611b29565b809150838152848484011115611b9a57600080fd5b83836020830137600060208583010152509392505050565b600060208284031215611bc457600080fd5b81356001600160401b03811115611bda57600080fd5b8201601f81018413611beb57600080fd5b611bfa84823560208401611b55565b949350505050565b600060208284031215611c1457600080fd5b5035919050565b6000815180845260005b81811015611c4157602081850181015186830182015201611c25565b81811115611c53576000602083870101525b50601f01601f19169290920160200192915050565b602081526000611b0c6020830184611c1b565b60006001600160401b03821115611c9457611c94611b13565b5060051b60200190565b600082601f830112611caf57600080fd5b81356020611cbc82611c7b565b604051611cc98282611b29565b83815260059390931b8501820192828101915086841115611ce957600080fd5b8286015b84811015611d045780358352918301918301611ced565b509695505050505050565b600082601f830112611d2057600080fd5b611b0c83833560208501611b55565b60008060008060808587031215611d4557600080fd5b611d4e85611a98565b935060208501356001600160401b0380821115611d6a57600080fd5b611d7688838901611c9e565b94506040870135915080821115611d8c57600080fd5b611d9888838901611c9e565b93506060870135915080821115611dae57600080fd5b50611dbb87828801611d0f565b91505092959194509250565b600080600080600060a08688031215611ddf57600080fd5b611de886611a98565b9450611df660208701611a98565b935060408601356001600160401b0380821115611e1257600080fd5b611e1e89838a01611c9e565b94506060880135915080821115611e3457600080fd5b611e4089838a01611c9e565b93506080880135915080821115611e5657600080fd5b50611e6388828901611d0f565b9150509295509295909350565b60008060408385031215611e8357600080fd5b82356001600160401b0380821115611e9a57600080fd5b818501915085601f830112611eae57600080fd5b81356020611ebb82611c7b565b604051611ec88282611b29565b83815260059390931b8501820192828101915089841115611ee857600080fd5b948201945b83861015611f0d57611efe86611a98565b82529482019490820190611eed565b96505086013592505080821115611f2357600080fd5b50611f3085828601611c9e565b9150509250929050565b600081518084526020808501945080840160005b83811015611f6a57815187529582019590820190600101611f4e565b509495945050505050565b602081526000611b0c6020830184611f3a565b600080600060608486031215611f9d57600080fd5b611fa684611a98565b925060208401356001600160401b0380821115611fc257600080fd5b611fce87838801611c9e565b93506040860135915080821115611fe457600080fd5b50611ff186828701611c9e565b9150509250925092565b6000806000806080858703121561201157600080fd5b61201a85611a98565b9350602085013592506040850135915060608501356001600160401b0381111561204357600080fd5b611dbb87828801611d0f565b6000806040838503121561206257600080fd5b61206b83611a98565b91506020830135801515811461208057600080fd5b809150509250929050565b6000806040838503121561209e57600080fd5b6120a783611a98565b91506120b560208401611a98565b90509250929050565b600080600080600060a086880312156120d657600080fd5b6120df86611a98565b94506120ed60208701611a98565b9350604086013592506060860135915060808601356001600160401b0381111561211657600080fd5b611e6388828901611d0f565b60006020828403121561213457600080fd5b611b0c82611a98565b60008060006060848603121561215257600080fd5b61215b84611a98565b95602085013595506040909401359392505050565b6020808252818101527f4f776e61626c653a2063616c6c6572206973206e6f7420746865206f776e6572604082015260600190565b600181811c908216806121b957607f821691505b6020821081036121d957634e487b7160e01b600052602260045260246000fd5b50919050565b634e487b7160e01b600052603260045260246000fd5b634e487b7160e01b600052601160045260246000fd5b60006001820161221d5761221d6121f5565b5060010190565b60208082526029908201527f455243313135353a2063616c6c6572206973206e6f74206f776e6572206e6f7260408201526808185c1c1c9bdd995960ba1b606082015260800190565b60208082526021908201527f455243313135353a206d696e7420746f20746865207a65726f206164647265736040820152607360f81b606082015260800190565b60208082526028908201527f455243313135353a2069647320616e6420616d6f756e7473206c656e677468206040820152670dad2e6dac2e8c6d60c31b606082015260800190565b60008219821115612309576123096121f5565b500190565b6040815260006123216040830185611f3a565b82810360208401526123338185611f3a565b95945050505050565b60208082526025908201527f455243313135353a207472616e7366657220746f20746865207a65726f206164604082015264647265737360d81b606082015260800190565b6020808252602a908201527f455243313135353a20696e73756666696369656e742062616c616e636520666f60408201526939103a3930b739b332b960b11b606082015260800190565b60208082526023908201527f455243313135353a206275726e2066726f6d20746865207a65726f206164647260408201526265737360e81b606082015260800190565b60208082526024908201527f455243313135353a206275726e20616d6f756e7420657863656564732062616c604082015263616e636560e01b606082015260800190565b6020808252602e908201527f496e697469616c697a61626c653a20636f6e747261637420697320616c72656160408201526d191e481a5b9a5d1a585b1a5e995960921b606082015260800190565b60208082526010908201526f14185d5cd8589b194e881c185d5cd95960821b604082015260600190565b6001600160a01b0386811682528516602082015260a0604082018190526000906124f690830186611f3a565b82810360608401526125088186611f3a565b9050828103608084015261251c8185611c1b565b98975050505050505050565b60006020828403121561253a57600080fd5b8151611b0c81611ad9565b600060033d111561255e5760046000803e5060005160e01c5b90565b600060443d101561256f5790565b6040516003193d81016004833e81513d6001600160401b03816024840111818411171561259e57505050505090565b82850191508151818111156125b65750505050505090565b843d87010160208285010111156125d05750505050505090565b6125df60208286010187611b29565b509095945050505050565b60208082526028908201527f455243313135353a204552433131353552656365697665722072656a656374656040820152676420746f6b656e7360c01b606082015260800190565b6001600160a01b03868116825285166020820152604081018490526060810183905260a06080820181905260009061266c90830184611c1b565b979650505050505050565b6020808252602b908201527f496e697469616c697a61626c653a20636f6e7472616374206973206e6f74206960408201526a6e697469616c697a696e6760a81b60608201526080019056fe4a39dc06d4c0dbc64b70af90fd698a233a518aa5d07e595d983b8c0526c8f7fbc3d58168c5ae7397731d063d5bbf3d657854427343f4c083240f7aacaa2d0f62a26469706673582212207383aef3ab4c150d11c5a6624f10b4da375b0d33d3719be7a302ec76c1d54ceb64736f6c634300080e0033496e697469616c697a61626c653a20636f6e747261637420697320616c726561",
  "linkReferences": {},
  "deployedLinkReferences": {}
}