{
  "_format": "hh-sol-artifact-1",
  "contractName": "MetaStockCompany",
  "sourceName": "contracts/MetaStockCompany.sol",
  "abi": [
    {
      "inputs": [],
      "stateMutability": "nonpayable",
      "type": "constructor"
    },
    {
      "anonymous": false,
      "inputs": [
        {
          "indexed": true,
          "internalType": "address",
          "name": "owner",
          "type": "address"
        },
        {
          "indexed": true,
          "internalType": "address",
          "name": "approved",
          "type": "address"
        },
        {
          "indexed": true,
          "internalType": "uint256",
          "name": "tokenId",
          "type": "uint256"
        }
      ],
      "name": "Approval",
      "type": "event"
    },
    {
      "anonymous": false,
      "inputs": [
        {
          "indexed": true,
          "internalType": "address",
          "name": "owner",
          "type": "address"
        },
        {
          "indexed": true,
          "internalType": "address",
          "name": "operator",
          "type": "address"
        },
        {
          "indexed": false,
          "internalType": "bool",
          "name": "approved",
          "type": "bool"
        }
      ],
      "name": "ApprovalForAll",
      "type": "event"
    },
    {
      "anonymous": false,
      "inputs": [
        {
          "indexed": false,
          "internalType": "uint8",
          "name": "version",
          "type": "uint8"
        }
      ],
      "name": "Initialized",
      "type": "event"
    },
    {
      "anonymous": false,
      "inputs": [
        {
          "indexed": true,
          "internalType": "address",
          "name": "previousOwner",
          "type": "address"
        },
        {
          "indexed": true,
          "internalType": "address",
          "name": "newOwner",
          "type": "address"
        }
      ],
      "name": "OwnershipTransferred",
      "type": "event"
    },
    {
      "anonymous": false,
      "inputs": [
        {
          "indexed": false,
          "internalType": "address",
          "name": "account",
          "type": "address"
        }
      ],
      "name": "Paused",
      "type": "event"
    },
    {
      "anonymous": false,
      "inputs": [
        {
          "indexed": true,
          "internalType": "address",
          "name": "from",
          "type": "address"
        },
        {
          "indexed": true,
          "internalType": "address",
          "name": "to",
          "type": "address"
        },
        {
          "indexed": true,
          "internalType": "uint256",
          "name": "tokenId",
          "type": "uint256"
        }
      ],
      "name": "Transfer",
      "type": "event"
    },
    {
      "anonymous": false,
      "inputs": [
        {
          "indexed": false,
          "internalType": "address",
          "name": "account",
          "type": "address"
        }
      ],
      "name": "Unpaused",
      "type": "event"
    },
    {
      "inputs": [
        {
          "internalType": "address",
          "name": "to",
          "type": "address"
        },
        {
          "internalType": "uint256",
          "name": "tokenId",
          "type": "uint256"
        }
      ],
      "name": "approve",
      "outputs": [],
      "stateMutability": "nonpayable",
      "type": "function"
    },
    {
      "inputs": [
        {
          "internalType": "address",
          "name": "owner",
          "type": "address"
        }
      ],
      "name": "balanceOf",
      "outputs": [
        {
          "internalType": "uint256",
          "name": "",
          "type": "uint256"
        }
      ],
      "stateMutability": "view",
      "type": "function"
    },
    {
      "inputs": [],
      "name": "createCompany",
      "outputs": [],
      "stateMutability": "payable",
      "type": "function"
    },
    {
      "inputs": [
        {
          "internalType": "uint256",
          "name": "tokenId",
          "type": "uint256"
        }
      ],
      "name": "getApproved",
      "outputs": [
        {
          "internalType": "address",
          "name": "",
          "type": "address"
        }
      ],
      "stateMutability": "view",
      "type": "function"
    },
    {
      "inputs": [
        {
          "internalType": "address",
          "name": "account",
          "type": "address"
        }
      ],
      "name": "getCompanyId",
      "outputs": [
        {
          "internalType": "uint256",
          "name": "",
          "type": "uint256"
        }
      ],
      "stateMutability": "view",
      "type": "function"
    },
    {
      "inputs": [
        {
          "internalType": "address",
          "name": "account",
          "type": "address"
        }
      ],
      "name": "getRewardsByCompany",
      "outputs": [
        {
          "internalType": "uint256",
          "name": "",
          "type": "uint256"
        }
      ],
      "stateMutability": "view",
      "type": "function"
    },
    {
      "inputs": [],
      "name": "initialize",
      "outputs": [],
      "stateMutability": "nonpayable",
      "type": "function"
    },
    {
      "inputs": [
        {
          "internalType": "address",
          "name": "owner",
          "type": "address"
        },
        {
          "internalType": "address",
          "name": "operator",
          "type": "address"
        }
      ],
      "name": "isApprovedForAll",
      "outputs": [
        {
          "internalType": "bool",
          "name": "",
          "type": "bool"
        }
      ],
      "stateMutability": "view",
      "type": "function"
    },
    {
      "inputs": [
        {
          "internalType": "address",
          "name": "account",
          "type": "address"
        }
      ],
      "name": "isCeo",
      "outputs": [
        {
          "internalType": "bool",
          "name": "",
          "type": "bool"
        }
      ],
      "stateMutability": "view",
      "type": "function"
    },
    {
      "inputs": [],
      "name": "name",
      "outputs": [
        {
          "internalType": "string",
          "name": "",
          "type": "string"
        }
      ],
      "stateMutability": "view",
      "type": "function"
    },
    {
      "inputs": [
        {
          "internalType": "address",
          "name": "",
          "type": "address"
        },
        {
          "internalType": "address",
          "name": "",
          "type": "address"
        },
        {
          "internalType": "uint256[]",
          "name": "",
          "type": "uint256[]"
        },
        {
          "internalType": "uint256[]",
          "name": "",
          "type": "uint256[]"
        },
        {
          "internalType": "bytes",
          "name": "",
          "type": "bytes"
        }
      ],
      "name": "onERC1155BatchReceived",
      "outputs": [
        {
          "internalType": "bytes4",
          "name": "",
          "type": "bytes4"
        }
      ],
      "stateMutability": "pure",
      "type": "function"
    },
    {
      "inputs": [
        {
          "internalType": "address",
          "name": "",
          "type": "address"
        },
        {
          "internalType": "address",
          "name": "",
          "type": "address"
        },
        {
          "internalType": "uint256",
          "name": "",
          "type": "uint256"
        },
        {
          "internalType": "uint256",
          "name": "",
          "type": "uint256"
        },
        {
          "internalType": "bytes",
          "name": "",
          "type": "bytes"
        }
      ],
      "name": "onERC1155Received",
      "outputs": [
        {
          "internalType": "bytes4",
          "name": "",
          "type": "bytes4"
        }
      ],
      "stateMutability": "pure",
      "type": "function"
    },
    {
      "inputs": [],
      "name": "owner",
      "outputs": [
        {
          "internalType": "address",
          "name": "",
          "type": "address"
        }
      ],
      "stateMutability": "view",
      "type": "function"
    },
    {
      "inputs": [
        {
          "internalType": "uint256",
          "name": "tokenId",
          "type": "uint256"
        }
      ],
      "name": "ownerOf",
      "outputs": [
        {
          "internalType": "address",
          "name": "",
          "type": "address"
        }
      ],
      "stateMutability": "view",
      "type": "function"
    },
    {
      "inputs": [],
      "name": "pause",
      "outputs": [],
      "stateMutability": "nonpayable",
      "type": "function"
    },
    {
      "inputs": [],
      "name": "paused",
      "outputs": [
        {
          "internalType": "bool",
          "name": "",
          "type": "bool"
        }
      ],
      "stateMutability": "view",
      "type": "function"
    },
    {
      "inputs": [],
      "name": "renounceOwnership",
      "outputs": [],
      "stateMutability": "nonpayable",
      "type": "function"
    },
    {
      "inputs": [
        {
          "internalType": "address",
          "name": "to",
          "type": "address"
        }
      ],
      "name": "safeMint",
      "outputs": [],
      "stateMutability": "nonpayable",
      "type": "function"
    },
    {
      "inputs": [
        {
          "internalType": "address",
          "name": "from",
          "type": "address"
        },
        {
          "internalType": "address",
          "name": "to",
          "type": "address"
        },
        {
          "internalType": "uint256",
          "name": "tokenId",
          "type": "uint256"
        }
      ],
      "name": "safeTransferFrom",
      "outputs": [],
      "stateMutability": "nonpayable",
      "type": "function"
    },
    {
      "inputs": [
        {
          "internalType": "address",
          "name": "from",
          "type": "address"
        },
        {
          "internalType": "address",
          "name": "to",
          "type": "address"
        },
        {
          "internalType": "uint256",
          "name": "tokenId",
          "type": "uint256"
        },
        {
          "internalType": "bytes",
          "name": "_data",
          "type": "bytes"
        }
      ],
      "name": "safeTransferFrom",
      "outputs": [],
      "stateMutability": "nonpayable",
      "type": "function"
    },
    {
      "inputs": [
        {
          "internalType": "address",
          "name": "operator",
          "type": "address"
        },
        {
          "internalType": "bool",
          "name": "approved",
          "type": "bool"
        }
      ],
      "name": "setApprovalForAll",
      "outputs": [],
      "stateMutability": "nonpayable",
      "type": "function"
    },
    {
      "inputs": [
        {
          "internalType": "bytes4",
          "name": "interfaceId",
          "type": "bytes4"
        }
      ],
      "name": "supportsInterface",
      "outputs": [
        {
          "internalType": "bool",
          "name": "",
          "type": "bool"
        }
      ],
      "stateMutability": "view",
      "type": "function"
    },
    {
      "inputs": [],
      "name": "symbol",
      "outputs": [
        {
          "internalType": "string",
          "name": "",
          "type": "string"
        }
      ],
      "stateMutability": "view",
      "type": "function"
    },
    {
      "inputs": [
        {
          "internalType": "uint256",
          "name": "tokenId",
          "type": "uint256"
        }
      ],
      "name": "tokenURI",
      "outputs": [
        {
          "internalType": "string",
          "name": "",
          "type": "string"
        }
      ],
      "stateMutability": "view",
      "type": "function"
    },
    {
      "inputs": [
        {
          "internalType": "address",
          "name": "from",
          "type": "address"
        },
        {
          "internalType": "address",
          "name": "to",
          "type": "address"
        },
        {
          "internalType": "uint256",
          "name": "tokenId",
          "type": "uint256"
        }
      ],
      "name": "transferFrom",
      "outputs": [],
      "stateMutability": "nonpayable",
      "type": "function"
    },
    {
      "inputs": [
        {
          "internalType": "address",
          "name": "newOwner",
          "type": "address"
        }
      ],
      "name": "transferOwnership",
      "outputs": [],
      "stateMutability": "nonpayable",
      "type": "function"
    },
    {
      "inputs": [],
      "name": "unpause",
      "outputs": [],
      "stateMutability": "nonpayable",
      "type": "function"
    },
    {
      "inputs": [
        {
          "internalType": "uint256",
          "name": "_createCompanyPrice",
          "type": "uint256"
        }
      ],
      "name": "updateCreateCompanyPrice",
      "outputs": [],
      "stateMutability": "nonpayable",
      "type": "function"
    },
    {
      "inputs": [
        {
          "internalType": "uint256",
          "name": "_harvestInterval",
          "type": "uint256"
        }
      ],
      "name": "updateHarvestInterval",
      "outputs": [],
      "stateMutability": "nonpayable",
      "type": "function"
    },
    {
      "inputs": [
        {
          "internalType": "uint256",
          "name": "_paymentsByInterval",
          "type": "uint256"
        }
      ],
      "name": "updatePaymentsByInterval",
      "outputs": [],
      "stateMutability": "nonpayable",
      "type": "function"
    },
    {
      "inputs": [
        {
          "internalType": "address",
          "name": "_payTokenAddress",
          "type": "address"
        }
      ],
      "name": "updatepPyTokenAddress",
      "outputs": [],
      "stateMutability": "nonpayable",
      "type": "function"
    },
    {
      "inputs": [],
      "name": "upgradeCompanyLevel",
      "outputs": [],
      "stateMutability": "payable",
      "type": "function"
    }
  ],
  "bytecode": "0x60806040523480156200001157600080fd5b506200001c62000022565b62000152565b6200002e60ff62000031565b50565b60008054610100900460ff1615620000ca578160ff1660011480156200006a575062000068306200014360201b62000fa61760201c565b155b620000c25760405162461bcd60e51b815260206004820152602e60248201526000805160206200248483398151915260448201526d191e481a5b9a5d1a585b1a5e995960921b60648201526084015b60405180910390fd5b506000919050565b60005460ff808416911610620001295760405162461bcd60e51b815260206004820152602e60248201526000805160206200248483398151915260448201526d191e481a5b9a5d1a585b1a5e995960921b6064820152608401620000b9565b506000805460ff191660ff92909216919091179055600190565b6001600160a01b03163b151590565b61232280620001626000396000f3fe6080604052600436106101a35760003560e01c8063715018a6116100e2578063c87b56dd11610085578063c87b56dd146104c7578063d6f343c5146104e7578063df9b8ff31461051e578063e3d1317a1461053e578063e985e9c514610546578063f23a6e6114610566578063f2fde38b14610593578063f91ce749146105b357600080fd5b8063715018a6146103d65780638129fc1c146103eb5780638456cb59146104005780638da5cb5b1461041557806395d89b411461042a578063a22cb4651461043f578063b88d4fde1461045f578063bc197c811461047f57600080fd5b80633f4ba83a1161014a5780633f4ba83a146102f257806340d097c31461030757806342842e0e146103275780635c975abb146103475780636352211e1461035f5780636cd65ab01461037f5780636f051b851461038757806370a08231146103b657600080fd5b806301ffc9a7146101a857806306fdde03146101dd578063081812fc146101ff578063095ea7b314610237578063113ff3a0146102595780631165e6ab1461027957806323b872dd146102b25780632a974eae146102d2575b600080fd5b3480156101b457600080fd5b506101c86101c3366004611b5b565b6105d3565b60405190151581526020015b60405180910390f35b3480156101e957600080fd5b506101f26105e4565b6040516101d49190611bd0565b34801561020b57600080fd5b5061021f61021a366004611be3565b610676565b6040516001600160a01b0390911681526020016101d4565b34801561024357600080fd5b50610257610252366004611c13565b610703565b005b34801561026557600080fd5b50610257610274366004611be3565b610813565b34801561028557600080fd5b506101c8610294366004611c3d565b6001600160a01b031660009081526101006020526040902054151590565b3480156102be57600080fd5b506102576102cd366004611c58565b610847565b3480156102de57600080fd5b506102576102ed366004611be3565b610878565b3480156102fe57600080fd5b506102576108ac565b34801561031357600080fd5b50610257610322366004611c3d565b6108e5565b34801561033357600080fd5b50610257610342366004611c58565b61093d565b34801561035357600080fd5b5060975460ff166101c8565b34801561036b57600080fd5b5061021f61037a366004611be3565b610958565b6102576109cf565b34801561039357600080fd5b506103a86103a2366004611c3d565b50600190565b6040519081526020016101d4565b3480156103c257600080fd5b506103a86103d1366004611c3d565b6109f7565b3480156103e257600080fd5b50610257610a7e565b3480156103f757600080fd5b50610257610ab7565b34801561040c57600080fd5b50610257610bc5565b34801561042157600080fd5b5061021f610bfc565b34801561043657600080fd5b506101f2610c0b565b34801561044b57600080fd5b5061025761045a366004611ca2565b610c1a565b34801561046b57600080fd5b5061025761047a366004611cef565b610c25565b34801561048b57600080fd5b506104ae61049a366004611e59565b63bc197c8160e01b98975050505050505050565b6040516001600160e01b031990911681526020016101d4565b3480156104d357600080fd5b506101f26104e2366004611be3565b610c5d565b3480156104f357600080fd5b506103a8610502366004611c3d565b6001600160a01b03166000908152610100602052604090205490565b34801561052a57600080fd5b50610257610539366004611be3565b610d35565b610257610d69565b34801561055257600080fd5b506101c8610561366004611f14565b610e8a565b34801561057257600080fd5b506104ae610581366004611f47565b63f23a6e6160e01b9695505050505050565b34801561059f57600080fd5b506102576105ae366004611c3d565b610eb8565b3480156105bf57600080fd5b506102576105ce366004611c3d565b610f55565b60006105de82610fb5565b92915050565b6060606580546105f390611fbf565b80601f016020809104026020016040519081016040528092919081815260200182805461061f90611fbf565b801561066c5780601f106106415761010080835404028352916020019161066c565b820191906000526020600020905b81548152906001019060200180831161064f57829003601f168201915b5050505050905090565b600061068182610fea565b6106e75760405162461bcd60e51b815260206004820152602c60248201527f4552433732313a20617070726f76656420717565727920666f72206e6f6e657860448201526b34b9ba32b73a103a37b5b2b760a11b60648201526084015b60405180910390fd5b506000908152606960205260409020546001600160a01b031690565b600061070e82610958565b9050806001600160a01b0316836001600160a01b03160361077b5760405162461bcd60e51b815260206004820152602160248201527f4552433732313a20617070726f76616c20746f2063757272656e74206f776e656044820152603960f91b60648201526084016106de565b336001600160a01b038216148061079757506107978133610e8a565b6108045760405162461bcd60e51b815260206004820152603860248201527f4552433732313a20617070726f76652063616c6c6572206973206e6f74206f776044820152771b995c881b9bdc88185c1c1c9bdd995908199bdc88185b1b60421b60648201526084016106de565b61080e8383611007565b505050565b3361081c610bfc565b6001600160a01b0316146108425760405162461bcd60e51b81526004016106de90611ff9565b60fe55565b6108513382611075565b61086d5760405162461bcd60e51b81526004016106de9061202e565b61080e83838361113f565b33610881610bfc565b6001600160a01b0316146108a75760405162461bcd60e51b81526004016106de90611ff9565b60ff55565b336108b5610bfc565b6001600160a01b0316146108db5760405162461bcd60e51b81526004016106de90611ff9565b6108e36112e6565b565b336108ee610bfc565b6001600160a01b0316146109145760405162461bcd60e51b81526004016106de90611ff9565b600061091f60fb5490565b905061092f60fb80546001019055565b6109398282611379565b5050565b61080e83838360405180602001604052806000815250610c25565b6000818152606760205260408120546001600160a01b0316806105de5760405162461bcd60e51b815260206004820152602960248201527f4552433732313a206f776e657220717565727920666f72206e6f6e657869737460448201526832b73a103a37b5b2b760b91b60648201526084016106de565b336000908152610102602052604081208054600192906109f0908490612095565b9091555050565b60006001600160a01b038216610a625760405162461bcd60e51b815260206004820152602a60248201527f4552433732313a2062616c616e636520717565727920666f7220746865207a65604482015269726f206164647265737360b01b60648201526084016106de565b506001600160a01b031660009081526068602052604090205490565b33610a87610bfc565b6001600160a01b031614610aad5760405162461bcd60e51b81526004016106de90611ff9565b6108e36000611393565b6000610ac360016113e5565b90508015610adb576000805461ff0019166101001790555b610b286040518060400160405280601081526020016f4d65746153746f636b436f6d70616e7960801b815250604051806040016040528060038152602001624d534360e81b815250611479565b610b306114aa565b610b386114d9565b60fc80546001600160a01b031916731c47144ba41e1aad84564d34a79dac5326779251179055678ac7230489e8000060fd55670de0b6b3a764000060fe556103e860ff558015610bc2576000805461ff0019169055604051600181527f7f26b83ff96e1f2b6a682f133852f6798a09c465da95921460cefb38474024989060200160405180910390a15b50565b33610bce610bfc565b6001600160a01b031614610bf45760405162461bcd60e51b81526004016106de90611ff9565b6108e3611508565b60c9546001600160a01b031690565b6060606680546105f390611fbf565b610939338383611560565b610c2f3383611075565b610c4b5760405162461bcd60e51b81526004016106de9061202e565b610c578484848461162a565b50505050565b6060610c6882610fea565b610ccc5760405162461bcd60e51b815260206004820152602f60248201527f4552433732314d657461646174613a2055524920717565727920666f72206e6f60448201526e3732bc34b9ba32b73a103a37b5b2b760891b60648201526084016106de565b6000610ce360408051602081019091526000815290565b90506000815111610d035760405180602001604052806000815250610d2e565b80610d0d8461165d565b604051602001610d1e9291906120ad565b6040516020818303038152906040525b9392505050565b33610d3e610bfc565b6001600160a01b031614610d645760405162461bcd60e51b81526004016106de90611ff9565b60fd55565b336000908152610100602052604090205415610db75760405162461bcd60e51b815260206004820152600d60248201526c4d6178203120436f6d70616e7960981b60448201526064016106de565b60fc5460fd546040516323b872dd60e01b81523360048201526001600160a01b03909216602483018190526044830191909152906323b872dd906064016020604051808303816000875af1158015610e13573d6000803e3d6000fd5b505050506040513d601f19601f82011682018060405250810190610e3791906120dc565b506000610e4360fb5490565b9050610e5360fb80546001019055565b610e5d3382611379565b33600090815261010060209081526040808320939093556101018152828220429055610102905290812055565b6001600160a01b039182166000908152606a6020908152604080832093909416825291909152205460ff1690565b33610ec1610bfc565b6001600160a01b031614610ee75760405162461bcd60e51b81526004016106de90611ff9565b6001600160a01b038116610f4c5760405162461bcd60e51b815260206004820152602660248201527f4f776e61626c653a206e6577206f776e657220697320746865207a65726f206160448201526564647265737360d01b60648201526084016106de565b610bc281611393565b33610f5e610bfc565b6001600160a01b031614610f845760405162461bcd60e51b81526004016106de90611ff9565b60fc80546001600160a01b0319166001600160a01b0392909216919091179055565b6001600160a01b03163b151590565b60006001600160e01b03198216630271189760e51b14806105de57506301ffc9a760e01b6001600160e01b03198316146105de565b6000908152606760205260409020546001600160a01b0316151590565b600081815260696020526040902080546001600160a01b0319166001600160a01b038416908117909155819061103c82610958565b6001600160a01b03167f8c5be1e5ebec7d5bd14f71427d1e84f3dd0314c0f7b2291e5b200ac8c7c3b92560405160405180910390a45050565b600061108082610fea565b6110e15760405162461bcd60e51b815260206004820152602c60248201527f4552433732313a206f70657261746f7220717565727920666f72206e6f6e657860448201526b34b9ba32b73a103a37b5b2b760a11b60648201526084016106de565b60006110ec83610958565b9050806001600160a01b0316846001600160a01b0316148061111357506111138185610e8a565b806111375750836001600160a01b031661112c84610676565b6001600160a01b0316145b949350505050565b826001600160a01b031661115282610958565b6001600160a01b0316146111b65760405162461bcd60e51b815260206004820152602560248201527f4552433732313a207472616e736665722066726f6d20696e636f72726563742060448201526437bbb732b960d91b60648201526084016106de565b6001600160a01b0382166112185760405162461bcd60e51b8152602060048201526024808201527f4552433732313a207472616e7366657220746f20746865207a65726f206164646044820152637265737360e01b60648201526084016106de565b61122383838361175e565b61122e600082611007565b6001600160a01b03831660009081526068602052604081208054600192906112579084906120f9565b90915550506001600160a01b0382166000908152606860205260408120805460019290611285908490612095565b909155505060008181526067602052604080822080546001600160a01b0319166001600160a01b0386811691821790925591518493918716917fddf252ad1be2c89b69c2b068fc378daa952ba7f163c4a11628f55a4df523b3ef91a4505050565b60975460ff1661132f5760405162461bcd60e51b815260206004820152601460248201527314185d5cd8589b194e881b9bdd081c185d5cd95960621b60448201526064016106de565b6097805460ff191690557f5db9ee0a495bf2e6ff9c91a7834c1ba4fdd244a5e8aa4e537bd38aeae4b073aa335b6040516001600160a01b03909116815260200160405180910390a1565b610939828260405180602001604052806000815250611781565b60c980546001600160a01b038381166001600160a01b0319831681179093556040519116919082907f8be0079c531659141344cd1fd0a4f28419497f9722a3daafe3b4186f6b6457e090600090a35050565b60008054610100900460ff1615611433578160ff16600114801561140f575061140d30610fa6565b155b61142b5760405162461bcd60e51b81526004016106de90612110565b506000919050565b60005460ff80841691161061145a5760405162461bcd60e51b81526004016106de90612110565b506000805460ff191660ff92909216919091179055600190565b919050565b600054610100900460ff166114a05760405162461bcd60e51b81526004016106de9061215e565b61093982826117b4565b600054610100900460ff166114d15760405162461bcd60e51b81526004016106de9061215e565b6108e3611802565b600054610100900460ff166115005760405162461bcd60e51b81526004016106de9061215e565b6108e3611835565b60975460ff161561152b5760405162461bcd60e51b81526004016106de906121a9565b6097805460ff191660011790557f62e78cea01bee320cd4e420270b5ea74000d11b0c9f74754ebdbfc544b05a25861135c3390565b816001600160a01b0316836001600160a01b0316036115bd5760405162461bcd60e51b815260206004820152601960248201527822a9219b99189d1030b8383937bb32903a379031b0b63632b960391b60448201526064016106de565b6001600160a01b038381166000818152606a6020908152604080832094871680845294825291829020805460ff191686151590811790915591519182527f17307eab39ab6107e8899845ad3d59bd9653f200f220920489ca2b5937696c31910160405180910390a3505050565b61163584848461113f565b61164184848484611865565b610c575760405162461bcd60e51b81526004016106de906121d3565b6060816000036116845750506040805180820190915260018152600360fc1b602082015290565b8160005b81156116ae578061169881612225565b91506116a79050600a83612254565b9150611688565b60008167ffffffffffffffff8111156116c9576116c9611cd9565b6040519080825280601f01601f1916602001820160405280156116f3576020820181803683370190505b5090505b8415611137576117086001836120f9565b9150611715600a86612268565b611720906030612095565b60f81b8183815181106117355761173561227c565b60200101906001600160f81b031916908160001a905350611757600a86612254565b94506116f7565b60975460ff161561080e5760405162461bcd60e51b81526004016106de906121a9565b61178b838361196d565b6117986000848484611865565b61080e5760405162461bcd60e51b81526004016106de906121d3565b600054610100900460ff166117db5760405162461bcd60e51b81526004016106de9061215e565b81516117ee906065906020850190611aac565b50805161080e906066906020840190611aac565b600054610100900460ff166118295760405162461bcd60e51b81526004016106de9061215e565b6097805460ff19169055565b600054610100900460ff1661185c5760405162461bcd60e51b81526004016106de9061215e565b6108e333611393565b6000611879846001600160a01b0316610fa6565b1561196257604051630a85bd0160e11b81526001600160a01b0385169063150b7a02906118b0903390899088908890600401612292565b6020604051808303816000875af19250505080156118eb575060408051601f3d908101601f191682019092526118e8918101906122cf565b60015b611948573d808015611919576040519150601f19603f3d011682016040523d82523d6000602084013e61191e565b606091505b5080516000036119405760405162461bcd60e51b81526004016106de906121d3565b805181602001fd5b6001600160e01b031916630a85bd0160e11b149050611137565b506001949350505050565b6001600160a01b0382166119c35760405162461bcd60e51b815260206004820181905260248201527f4552433732313a206d696e7420746f20746865207a65726f206164647265737360448201526064016106de565b6119cc81610fea565b15611a195760405162461bcd60e51b815260206004820152601c60248201527f4552433732313a20746f6b656e20616c7265616479206d696e7465640000000060448201526064016106de565b611a256000838361175e565b6001600160a01b0382166000908152606860205260408120805460019290611a4e908490612095565b909155505060008181526067602052604080822080546001600160a01b0319166001600160a01b03861690811790915590518392907fddf252ad1be2c89b69c2b068fc378daa952ba7f163c4a11628f55a4df523b3ef908290a45050565b828054611ab890611fbf565b90600052602060002090601f016020900481019282611ada5760008555611b20565b82601f10611af357805160ff1916838001178555611b20565b82800160010185558215611b20579182015b82811115611b20578251825591602001919060010190611b05565b50611b2c929150611b30565b5090565b5b80821115611b2c5760008155600101611b31565b6001600160e01b031981168114610bc257600080fd5b600060208284031215611b6d57600080fd5b8135610d2e81611b45565b60005b83811015611b93578181015183820152602001611b7b565b83811115610c575750506000910152565b60008151808452611bbc816020860160208601611b78565b601f01601f19169290920160200192915050565b602081526000610d2e6020830184611ba4565b600060208284031215611bf557600080fd5b5035919050565b80356001600160a01b038116811461147457600080fd5b60008060408385031215611c2657600080fd5b611c2f83611bfc565b946020939093013593505050565b600060208284031215611c4f57600080fd5b610d2e82611bfc565b600080600060608486031215611c6d57600080fd5b611c7684611bfc565b9250611c8460208501611bfc565b9150604084013590509250925092565b8015158114610bc257600080fd5b60008060408385031215611cb557600080fd5b611cbe83611bfc565b91506020830135611cce81611c94565b809150509250929050565b634e487b7160e01b600052604160045260246000fd5b60008060008060808587031215611d0557600080fd5b611d0e85611bfc565b9350611d1c60208601611bfc565b925060408501359150606085013567ffffffffffffffff80821115611d4057600080fd5b818701915087601f830112611d5457600080fd5b813581811115611d6657611d66611cd9565b604051601f8201601f19908116603f01168101908382118183101715611d8e57611d8e611cd9565b816040528281528a6020848701011115611da757600080fd5b82602086016020830137600060208483010152809550505050505092959194509250565b60008083601f840112611ddd57600080fd5b50813567ffffffffffffffff811115611df557600080fd5b6020830191508360208260051b8501011115611e1057600080fd5b9250929050565b60008083601f840112611e2957600080fd5b50813567ffffffffffffffff811115611e4157600080fd5b602083019150836020828501011115611e1057600080fd5b60008060008060008060008060a0898b031215611e7557600080fd5b611e7e89611bfc565b9750611e8c60208a01611bfc565b9650604089013567ffffffffffffffff80821115611ea957600080fd5b611eb58c838d01611dcb565b909850965060608b0135915080821115611ece57600080fd5b611eda8c838d01611dcb565b909650945060808b0135915080821115611ef357600080fd5b50611f008b828c01611e17565b999c989b5096995094979396929594505050565b60008060408385031215611f2757600080fd5b611f3083611bfc565b9150611f3e60208401611bfc565b90509250929050565b60008060008060008060a08789031215611f6057600080fd5b611f6987611bfc565b9550611f7760208801611bfc565b94506040870135935060608701359250608087013567ffffffffffffffff811115611fa157600080fd5b611fad89828a01611e17565b979a9699509497509295939492505050565b600181811c90821680611fd357607f821691505b602082108103611ff357634e487b7160e01b600052602260045260246000fd5b50919050565b6020808252818101527f4f776e61626c653a2063616c6c6572206973206e6f7420746865206f776e6572604082015260600190565b60208082526031908201527f4552433732313a207472616e736665722063616c6c6572206973206e6f74206f6040820152701ddb995c881b9bdc88185c1c1c9bdd9959607a1b606082015260800190565b634e487b7160e01b600052601160045260246000fd5b600082198211156120a8576120a861207f565b500190565b600083516120bf818460208801611b78565b8351908301906120d3818360208801611b78565b01949350505050565b6000602082840312156120ee57600080fd5b8151610d2e81611c94565b60008282101561210b5761210b61207f565b500390565b6020808252602e908201527f496e697469616c697a61626c653a20636f6e747261637420697320616c72656160408201526d191e481a5b9a5d1a585b1a5e995960921b606082015260800190565b6020808252602b908201527f496e697469616c697a61626c653a20636f6e7472616374206973206e6f74206960408201526a6e697469616c697a696e6760a81b606082015260800190565b60208082526010908201526f14185d5cd8589b194e881c185d5cd95960821b604082015260600190565b60208082526032908201527f4552433732313a207472616e7366657220746f206e6f6e20455243373231526560408201527131b2b4bb32b91034b6b83632b6b2b73a32b960711b606082015260800190565b6000600182016122375761223761207f565b5060010190565b634e487b7160e01b600052601260045260246000fd5b6000826122635761226361223e565b500490565b6000826122775761227761223e565b500690565b634e487b7160e01b600052603260045260246000fd5b6001600160a01b03858116825284166020820152604081018390526080606082018190526000906122c590830184611ba4565b9695505050505050565b6000602082840312156122e157600080fd5b8151610d2e81611b4556fea26469706673582212205b5422e067b055e25757f8a39bbc49393af62ede1dbec2f3f40d18ad13c03cde64736f6c634300080d0033496e697469616c697a61626c653a20636f6e747261637420697320616c726561",
  "linkReferences": {},
  "deployedLinkReferences": {}
}