{
  "_format": "hh-sol-artifact-1",
  "contractName": "MetaStocksCompanyManager",
  "sourceName": "contracts/managers/metaStocksManagers/MetaStocksCompanyManager.sol",
  "abi": [
    {
      "inputs": [],
      "stateMutability": "nonpayable",
      "type": "constructor"
    },
    {
      "inputs": [
        {
          "internalType": "address",
          "name": "",
          "type": "address"
        }
      ],
      "name": "ceosCompanies",
      "outputs": [
        {
          "internalType": "uint256",
          "name": "",
          "type": "uint256"
        }
      ],
      "stateMutability": "view",
      "type": "function"
    },
    {
      "inputs": [],
      "name": "createCompany",
      "outputs": [],
      "stateMutability": "payable",
      "type": "function"
    },
    {
      "inputs": [
        {
          "internalType": "address",
          "name": "account",
          "type": "address"
        }
      ],
      "name": "getCompanyId",
      "outputs": [
        {
          "internalType": "uint256",
          "name": "",
          "type": "uint256"
        }
      ],
      "stateMutability": "view",
      "type": "function"
    },
    {
      "inputs": [
        {
          "internalType": "address",
          "name": "account",
          "type": "address"
        }
      ],
      "name": "isCeo",
      "outputs": [
        {
          "internalType": "bool",
          "name": "",
          "type": "bool"
        }
      ],
      "stateMutability": "view",
      "type": "function"
    }
  ],
  "bytecode": "0x608060405234801561001057600080fd5b5061020c806100206000396000f3fe60806040526004361061003f5760003560e01c80631165e6ab146100445780632120303814610091578063d6f343c5146100cc578063e3d1317a14610102575b600080fd5b34801561005057600080fd5b5061007c61005f36600461018d565b6001600160a01b0316600090815260208190526040902054151590565b60405190151581526020015b60405180910390f35b34801561009d57600080fd5b506100be6100ac36600461018d565b60006020819052908152604090205481565b604051908152602001610088565b3480156100d857600080fd5b506100be6100e736600461018d565b6001600160a01b031660009081526020819052604090205490565b61010a61010c565b005b60015460405162863cb360e31b81523360048201526000916001600160a01b031690630431e598906024016020604051808303816000875af1158015610156573d6000803e3d6000fd5b505050506040513d601f19601f8201168201806040525081019061017a91906101bd565b3360009081526020819052604090205550565b60006020828403121561019f57600080fd5b81356001600160a01b03811681146101b657600080fd5b9392505050565b6000602082840312156101cf57600080fd5b505191905056fea26469706673582212204f8d83e7740399897b08bd87e708f256c043dc08e5cae90de5a34b4d68f4d3d864736f6c634300080e0033",
  "linkReferences": {},
  "deployedLinkReferences": {}
}