{
  "_format": "hh-sol-artifact-1",
  "contractName": "MetaStocksCompanyManager",
  "sourceName": "contracts/managers/metaStocksManager/MetaStocksCompanyManager.sol",
  "abi": [
    {
      "anonymous": false,
      "inputs": [
        {
          "indexed": true,
          "internalType": "address",
          "name": "owner",
          "type": "address"
        },
        {
          "indexed": true,
          "internalType": "address",
          "name": "spender",
          "type": "address"
        },
        {
          "indexed": false,
          "internalType": "uint256",
          "name": "value",
          "type": "uint256"
        }
      ],
      "name": "Approval",
      "type": "event"
    },
    {
      "anonymous": false,
      "inputs": [
        {
          "indexed": true,
          "internalType": "address",
          "name": "account",
          "type": "address"
        },
        {
          "indexed": false,
          "internalType": "uint256",
          "name": "comanyId",
          "type": "uint256"
        }
      ],
      "name": "CreateCompany",
      "type": "event"
    },
    {
      "anonymous": false,
      "inputs": [
        {
          "indexed": false,
          "internalType": "uint8",
          "name": "version",
          "type": "uint8"
        }
      ],
      "name": "Initialized",
      "type": "event"
    },
    {
      "anonymous": false,
      "inputs": [
        {
          "indexed": true,
          "internalType": "address",
          "name": "from",
          "type": "address"
        },
        {
          "indexed": true,
          "internalType": "address",
          "name": "to",
          "type": "address"
        },
        {
          "indexed": false,
          "internalType": "uint256",
          "name": "value",
          "type": "uint256"
        }
      ],
      "name": "Transfer",
      "type": "event"
    },
    {
      "inputs": [
        {
          "internalType": "address",
          "name": "owner",
          "type": "address"
        },
        {
          "internalType": "address",
          "name": "spender",
          "type": "address"
        }
      ],
      "name": "allowance",
      "outputs": [
        {
          "internalType": "uint256",
          "name": "",
          "type": "uint256"
        }
      ],
      "stateMutability": "view",
      "type": "function"
    },
    {
      "inputs": [
        {
          "internalType": "address",
          "name": "spender",
          "type": "address"
        },
        {
          "internalType": "uint256",
          "name": "amount",
          "type": "uint256"
        }
      ],
      "name": "approve",
      "outputs": [
        {
          "internalType": "bool",
          "name": "",
          "type": "bool"
        }
      ],
      "stateMutability": "nonpayable",
      "type": "function"
    },
    {
      "inputs": [
        {
          "internalType": "address",
          "name": "account",
          "type": "address"
        }
      ],
      "name": "balanceOf",
      "outputs": [
        {
          "internalType": "uint256",
          "name": "",
          "type": "uint256"
        }
      ],
      "stateMutability": "view",
      "type": "function"
    },
    {
      "inputs": [
        {
          "internalType": "address",
          "name": "",
          "type": "address"
        }
      ],
      "name": "ceos",
      "outputs": [
        {
          "internalType": "bool",
          "name": "",
          "type": "bool"
        }
      ],
      "stateMutability": "view",
      "type": "function"
    },
    {
      "inputs": [
        {
          "internalType": "address",
          "name": "",
          "type": "address"
        }
      ],
      "name": "ceosCompanies",
      "outputs": [
        {
          "internalType": "uint256",
          "name": "",
          "type": "uint256"
        }
      ],
      "stateMutability": "view",
      "type": "function"
    },
    {
      "inputs": [],
      "name": "create",
      "outputs": [],
      "stateMutability": "payable",
      "type": "function"
    },
    {
      "inputs": [],
      "name": "decimals",
      "outputs": [
        {
          "internalType": "uint8",
          "name": "",
          "type": "uint8"
        }
      ],
      "stateMutability": "view",
      "type": "function"
    },
    {
      "inputs": [
        {
          "internalType": "address",
          "name": "spender",
          "type": "address"
        },
        {
          "internalType": "uint256",
          "name": "subtractedValue",
          "type": "uint256"
        }
      ],
      "name": "decreaseAllowance",
      "outputs": [
        {
          "internalType": "bool",
          "name": "",
          "type": "bool"
        }
      ],
      "stateMutability": "nonpayable",
      "type": "function"
    },
    {
      "inputs": [
        {
          "internalType": "address",
          "name": "_account",
          "type": "address"
        }
      ],
      "name": "getCompany",
      "outputs": [
        {
          "internalType": "uint256",
          "name": "",
          "type": "uint256"
        }
      ],
      "stateMutability": "view",
      "type": "function"
    },
    {
      "inputs": [
        {
          "internalType": "address",
          "name": "spender",
          "type": "address"
        },
        {
          "internalType": "uint256",
          "name": "addedValue",
          "type": "uint256"
        }
      ],
      "name": "increaseAllowance",
      "outputs": [
        {
          "internalType": "bool",
          "name": "",
          "type": "bool"
        }
      ],
      "stateMutability": "nonpayable",
      "type": "function"
    },
    {
      "inputs": [
        {
          "internalType": "address",
          "name": "_metaStocksCompanyAddress",
          "type": "address"
        }
      ],
      "name": "initialize",
      "outputs": [],
      "stateMutability": "nonpayable",
      "type": "function"
    },
    {
      "inputs": [
        {
          "internalType": "address",
          "name": "_account",
          "type": "address"
        }
      ],
      "name": "isCeo",
      "outputs": [
        {
          "internalType": "bool",
          "name": "",
          "type": "bool"
        }
      ],
      "stateMutability": "view",
      "type": "function"
    },
    {
      "inputs": [],
      "name": "name",
      "outputs": [
        {
          "internalType": "string",
          "name": "",
          "type": "string"
        }
      ],
      "stateMutability": "view",
      "type": "function"
    },
    {
      "inputs": [
        {
          "internalType": "uint256",
          "name": "companyId",
          "type": "uint256"
        }
      ],
      "name": "remove",
      "outputs": [],
      "stateMutability": "nonpayable",
      "type": "function"
    },
    {
      "inputs": [],
      "name": "symbol",
      "outputs": [
        {
          "internalType": "string",
          "name": "",
          "type": "string"
        }
      ],
      "stateMutability": "view",
      "type": "function"
    },
    {
      "inputs": [],
      "name": "totalSupply",
      "outputs": [
        {
          "internalType": "uint256",
          "name": "",
          "type": "uint256"
        }
      ],
      "stateMutability": "view",
      "type": "function"
    },
    {
      "inputs": [
        {
          "internalType": "address",
          "name": "to",
          "type": "address"
        },
        {
          "internalType": "uint256",
          "name": "amount",
          "type": "uint256"
        }
      ],
      "name": "transfer",
      "outputs": [
        {
          "internalType": "bool",
          "name": "",
          "type": "bool"
        }
      ],
      "stateMutability": "nonpayable",
      "type": "function"
    },
    {
      "inputs": [
        {
          "internalType": "address",
          "name": "from",
          "type": "address"
        },
        {
          "internalType": "address",
          "name": "to",
          "type": "address"
        },
        {
          "internalType": "uint256",
          "name": "amount",
          "type": "uint256"
        }
      ],
      "name": "transferFrom",
      "outputs": [
        {
          "internalType": "bool",
          "name": "",
          "type": "bool"
        }
      ],
      "stateMutability": "nonpayable",
      "type": "function"
    },
    {
      "inputs": [
        {
          "internalType": "uint256",
          "name": "managerId",
          "type": "uint256"
        }
      ],
      "name": "update",
      "outputs": [],
      "stateMutability": "nonpayable",
      "type": "function"
    }
  ],
  "bytecode": "0x608060405234801561001057600080fd5b50610d44806100206000396000f3fe6080604052600436106101045760003560e01c806362bc56e6116100a0578063a9059cbb11610064578063a9059cbb14610306578063c4d66de814610326578063dd62ed3e14610346578063efc81a8c14610366578063f81a12d71461036e57600080fd5b806362bc56e61461026557806370a082311461029b57806382ab890a1461024557806395d89b41146102d1578063a457c2d7146102e657600080fd5b806306fdde0314610109578063095ea7b3146101345780631165e6ab1461016457806318160ddd1461019d57806321203038146101bc57806323b872dd146101e9578063313ce5671461020957806339509351146102255780634cc8221514610245575b600080fd5b34801561011557600080fd5b5061011e61039e565b60405161012b9190610b07565b60405180910390f35b34801561014057600080fd5b5061015461014f366004610b73565b610430565b604051901515815260200161012b565b34801561017057600080fd5b5061015461017f366004610b9d565b6001600160a01b031660009081526068602052604090205460ff1690565b3480156101a957600080fd5b506035545b60405190815260200161012b565b3480156101c857600080fd5b506101ae6101d7366004610b9d565b60676020526000908152604090205481565b3480156101f557600080fd5b50610154610204366004610bbf565b610448565b34801561021557600080fd5b506040516012815260200161012b565b34801561023157600080fd5b50610154610240366004610b73565b61046c565b34801561025157600080fd5b50610263610260366004610bfb565b50565b005b34801561027157600080fd5b506101ae610280366004610b9d565b6001600160a01b031660009081526067602052604090205490565b3480156102a757600080fd5b506101ae6102b6366004610b9d565b6001600160a01b031660009081526033602052604090205490565b3480156102dd57600080fd5b5061011e61048e565b3480156102f257600080fd5b50610154610301366004610b73565b61049d565b34801561031257600080fd5b50610154610321366004610b73565b61051d565b34801561033257600080fd5b50610263610341366004610b9d565b61052b565b34801561035257600080fd5b506101ae610361366004610c14565b6105c0565b6102636105eb565b34801561037a57600080fd5b50610154610389366004610b9d565b60686020526000908152604090205460ff1681565b6060603680546103ad90610c47565b80601f01602080910402602001604051908101604052809291908181526020018280546103d990610c47565b80156104265780601f106103fb57610100808354040283529160200191610426565b820191906000526020600020905b81548152906001019060200180831161040957829003601f168201915b5050505050905090565b60003361043e81858561070e565b5060019392505050565b600033610456858285610832565b6104618585856108ac565b506001949350505050565b60003361043e81858561047f83836105c0565b6104899190610c81565b61070e565b6060603780546103ad90610c47565b600033816104ab82866105c0565b9050838110156105105760405162461bcd60e51b815260206004820152602560248201527f45524332303a2064656372656173656420616c6c6f77616e63652062656c6f77604482015264207a65726f60d81b60648201526084015b60405180910390fd5b610461828686840361070e565b60003361043e8185856108ac565b60006105376001610a7a565b9050801561054f576000805461ff0019166101001790555b670de0b6b3a7640000606655606580546001600160a01b0319166001600160a01b03841617905580156105bc576000805461ff0019169055604051600181527f7f26b83ff96e1f2b6a682f133852f6798a09c465da95921460cefb38474024989060200160405180910390a15b5050565b6001600160a01b03918216600090815260346020908152604080832093909416825291909152205490565b3360009081526068602052604090205460ff16156106395760405162461bcd60e51b815260206004820152600b60248201526a416c72656164792043656f60a81b6044820152606401610507565b6065546040516340d097c360e01b81523360048201526001600160a01b03909116906340d097c3906024016020604051808303816000875af1158015610683573d6000803e3d6000fd5b505050506040513d601f19601f820116820180604052508101906106a79190610ca7565b3360008181526067602081815260408084209586556068825292839020805460ff19166001179055529154915190917fe38265a604917a38d3b0f82f061e30793a578a7181d8b0d880e84ec70b0da81a9161070491815260200190565b60405180910390a2565b6001600160a01b0383166107705760405162461bcd60e51b8152602060048201526024808201527f45524332303a20617070726f76652066726f6d20746865207a65726f206164646044820152637265737360e01b6064820152608401610507565b6001600160a01b0382166107d15760405162461bcd60e51b815260206004820152602260248201527f45524332303a20617070726f766520746f20746865207a65726f206164647265604482015261737360f01b6064820152608401610507565b6001600160a01b0383811660008181526034602090815260408083209487168084529482529182902085905590518481527f8c5be1e5ebec7d5bd14f71427d1e84f3dd0314c0f7b2291e5b200ac8c7c3b925910160405180910390a3505050565b600061083e84846105c0565b905060001981146108a657818110156108995760405162461bcd60e51b815260206004820152601d60248201527f45524332303a20696e73756666696369656e7420616c6c6f77616e63650000006044820152606401610507565b6108a6848484840361070e565b50505050565b6001600160a01b0383166109105760405162461bcd60e51b815260206004820152602560248201527f45524332303a207472616e736665722066726f6d20746865207a65726f206164604482015264647265737360d81b6064820152608401610507565b6001600160a01b0382166109725760405162461bcd60e51b815260206004820152602360248201527f45524332303a207472616e7366657220746f20746865207a65726f206164647260448201526265737360e81b6064820152608401610507565b6001600160a01b038316600090815260336020526040902054818110156109ea5760405162461bcd60e51b815260206004820152602660248201527f45524332303a207472616e7366657220616d6f756e7420657863656564732062604482015265616c616e636560d01b6064820152608401610507565b6001600160a01b03808516600090815260336020526040808220858503905591851681529081208054849290610a21908490610c81565b92505081905550826001600160a01b0316846001600160a01b03167fddf252ad1be2c89b69c2b068fc378daa952ba7f163c4a11628f55a4df523b3ef84604051610a6d91815260200190565b60405180910390a36108a6565b60008054610100900460ff1615610ac1578160ff166001148015610a9d5750303b155b610ab95760405162461bcd60e51b815260040161050790610cc0565b506000919050565b60005460ff808416911610610ae85760405162461bcd60e51b815260040161050790610cc0565b506000805460ff191660ff92909216919091179055600190565b919050565b600060208083528351808285015260005b81811015610b3457858101830151858201604001528201610b18565b81811115610b46576000604083870101525b50601f01601f1916929092016040019392505050565b80356001600160a01b0381168114610b0257600080fd5b60008060408385031215610b8657600080fd5b610b8f83610b5c565b946020939093013593505050565b600060208284031215610baf57600080fd5b610bb882610b5c565b9392505050565b600080600060608486031215610bd457600080fd5b610bdd84610b5c565b9250610beb60208501610b5c565b9150604084013590509250925092565b600060208284031215610c0d57600080fd5b5035919050565b60008060408385031215610c2757600080fd5b610c3083610b5c565b9150610c3e60208401610b5c565b90509250929050565b600181811c90821680610c5b57607f821691505b602082108103610c7b57634e487b7160e01b600052602260045260246000fd5b50919050565b60008219821115610ca257634e487b7160e01b600052601160045260246000fd5b500190565b600060208284031215610cb957600080fd5b5051919050565b6020808252602e908201527f496e697469616c697a61626c653a20636f6e747261637420697320616c72656160408201526d191e481a5b9a5d1a585b1a5e995960921b60608201526080019056fea2646970667358221220ebb757e9c7f9fbfb2561f7c19b33d3d00cb9be46af118c426a6536cd3a7d57b664736f6c634300080e0033",
  "linkReferences": {},
  "deployedLinkReferences": {}
}