{
  "_format": "hh-sol-artifact-1",
  "contractName": "MetaStocksCompanyManager",
  "sourceName": "contracts/managers/metaStocksManager/MetaStocksCompanyManager.sol",
  "abi": [
    {
      "anonymous": false,
      "inputs": [
        {
          "indexed": true,
          "internalType": "address",
          "name": "owner",
          "type": "address"
        },
        {
          "indexed": true,
          "internalType": "address",
          "name": "spender",
          "type": "address"
        },
        {
          "indexed": false,
          "internalType": "uint256",
          "name": "value",
          "type": "uint256"
        }
      ],
      "name": "Approval",
      "type": "event"
    },
    {
      "anonymous": false,
      "inputs": [
        {
          "indexed": false,
          "internalType": "uint8",
          "name": "version",
          "type": "uint8"
        }
      ],
      "name": "Initialized",
      "type": "event"
    },
    {
      "anonymous": false,
      "inputs": [
        {
          "indexed": true,
          "internalType": "address",
          "name": "from",
          "type": "address"
        },
        {
          "indexed": true,
          "internalType": "address",
          "name": "to",
          "type": "address"
        },
        {
          "indexed": false,
          "internalType": "uint256",
          "name": "value",
          "type": "uint256"
        }
      ],
      "name": "Transfer",
      "type": "event"
    },
    {
      "inputs": [
        {
          "internalType": "address",
          "name": "owner",
          "type": "address"
        },
        {
          "internalType": "address",
          "name": "spender",
          "type": "address"
        }
      ],
      "name": "allowance",
      "outputs": [
        {
          "internalType": "uint256",
          "name": "",
          "type": "uint256"
        }
      ],
      "stateMutability": "view",
      "type": "function"
    },
    {
      "inputs": [
        {
          "internalType": "address",
          "name": "spender",
          "type": "address"
        },
        {
          "internalType": "uint256",
          "name": "amount",
          "type": "uint256"
        }
      ],
      "name": "approve",
      "outputs": [
        {
          "internalType": "bool",
          "name": "",
          "type": "bool"
        }
      ],
      "stateMutability": "nonpayable",
      "type": "function"
    },
    {
      "inputs": [
        {
          "internalType": "address",
          "name": "account",
          "type": "address"
        }
      ],
      "name": "balanceOf",
      "outputs": [
        {
          "internalType": "uint256",
          "name": "",
          "type": "uint256"
        }
      ],
      "stateMutability": "view",
      "type": "function"
    },
    {
      "inputs": [
        {
          "internalType": "address",
          "name": "",
          "type": "address"
        }
      ],
      "name": "ceosCompanies",
      "outputs": [
        {
          "internalType": "uint256",
          "name": "",
          "type": "uint256"
        }
      ],
      "stateMutability": "view",
      "type": "function"
    },
    {
      "inputs": [],
      "name": "create",
      "outputs": [],
      "stateMutability": "payable",
      "type": "function"
    },
    {
      "inputs": [],
      "name": "decimals",
      "outputs": [
        {
          "internalType": "uint8",
          "name": "",
          "type": "uint8"
        }
      ],
      "stateMutability": "view",
      "type": "function"
    },
    {
      "inputs": [
        {
          "internalType": "address",
          "name": "spender",
          "type": "address"
        },
        {
          "internalType": "uint256",
          "name": "subtractedValue",
          "type": "uint256"
        }
      ],
      "name": "decreaseAllowance",
      "outputs": [
        {
          "internalType": "bool",
          "name": "",
          "type": "bool"
        }
      ],
      "stateMutability": "nonpayable",
      "type": "function"
    },
    {
      "inputs": [
        {
          "internalType": "address",
          "name": "_account",
          "type": "address"
        }
      ],
      "name": "getCompany",
      "outputs": [
        {
          "internalType": "uint256",
          "name": "",
          "type": "uint256"
        }
      ],
      "stateMutability": "view",
      "type": "function"
    },
    {
      "inputs": [
        {
          "internalType": "address",
          "name": "spender",
          "type": "address"
        },
        {
          "internalType": "uint256",
          "name": "addedValue",
          "type": "uint256"
        }
      ],
      "name": "increaseAllowance",
      "outputs": [
        {
          "internalType": "bool",
          "name": "",
          "type": "bool"
        }
      ],
      "stateMutability": "nonpayable",
      "type": "function"
    },
    {
      "inputs": [
        {
          "internalType": "address",
          "name": "_metaStocksCompanyAddress",
          "type": "address"
        }
      ],
      "name": "initialize",
      "outputs": [],
      "stateMutability": "nonpayable",
      "type": "function"
    },
    {
      "inputs": [
        {
          "internalType": "address",
          "name": "_account",
          "type": "address"
        }
      ],
      "name": "isCeo",
      "outputs": [
        {
          "internalType": "bool",
          "name": "",
          "type": "bool"
        }
      ],
      "stateMutability": "view",
      "type": "function"
    },
    {
      "inputs": [],
      "name": "name",
      "outputs": [
        {
          "internalType": "string",
          "name": "",
          "type": "string"
        }
      ],
      "stateMutability": "view",
      "type": "function"
    },
    {
      "inputs": [
        {
          "internalType": "uint256",
          "name": "companyId",
          "type": "uint256"
        }
      ],
      "name": "remove",
      "outputs": [],
      "stateMutability": "nonpayable",
      "type": "function"
    },
    {
      "inputs": [],
      "name": "symbol",
      "outputs": [
        {
          "internalType": "string",
          "name": "",
          "type": "string"
        }
      ],
      "stateMutability": "view",
      "type": "function"
    },
    {
      "inputs": [],
      "name": "totalSupply",
      "outputs": [
        {
          "internalType": "uint256",
          "name": "",
          "type": "uint256"
        }
      ],
      "stateMutability": "view",
      "type": "function"
    },
    {
      "inputs": [
        {
          "internalType": "address",
          "name": "to",
          "type": "address"
        },
        {
          "internalType": "uint256",
          "name": "amount",
          "type": "uint256"
        }
      ],
      "name": "transfer",
      "outputs": [
        {
          "internalType": "bool",
          "name": "",
          "type": "bool"
        }
      ],
      "stateMutability": "nonpayable",
      "type": "function"
    },
    {
      "inputs": [
        {
          "internalType": "address",
          "name": "from",
          "type": "address"
        },
        {
          "internalType": "address",
          "name": "to",
          "type": "address"
        },
        {
          "internalType": "uint256",
          "name": "amount",
          "type": "uint256"
        }
      ],
      "name": "transferFrom",
      "outputs": [
        {
          "internalType": "bool",
          "name": "",
          "type": "bool"
        }
      ],
      "stateMutability": "nonpayable",
      "type": "function"
    },
    {
      "inputs": [
        {
          "internalType": "uint256",
          "name": "managerId",
          "type": "uint256"
        }
      ],
      "name": "update",
      "outputs": [],
      "stateMutability": "nonpayable",
      "type": "function"
    }
  ],
  "bytecode": "0x608060405234801561001057600080fd5b50610ca2806100206000396000f3fe6080604052600436106100e95760003560e01c806362bc56e61161008557806362bc56e61461024957806370a082311461027f57806382ab890a1461022957806395d89b41146102b5578063a457c2d7146102ca578063a9059cbb146102ea578063c4d66de81461030a578063dd62ed3e1461032a578063efc81a8c1461034a57600080fd5b806306fdde03146100ee578063095ea7b3146101195780631165e6ab1461014957806318160ddd1461018157806321203038146101a057806323b872dd146101cd578063313ce567146101ed57806339509351146102095780634cc8221514610229575b600080fd5b3480156100fa57600080fd5b50610103610352565b6040516101109190610a65565b60405180910390f35b34801561012557600080fd5b50610139610134366004610ad1565b6103e4565b6040519015158152602001610110565b34801561015557600080fd5b50610139610164366004610afb565b6001600160a01b0316600090815260676020526040902054151590565b34801561018d57600080fd5b506035545b604051908152602001610110565b3480156101ac57600080fd5b506101926101bb366004610afb565b60676020526000908152604090205481565b3480156101d957600080fd5b506101396101e8366004610b1d565b6103fc565b3480156101f957600080fd5b5060405160128152602001610110565b34801561021557600080fd5b50610139610224366004610ad1565b610420565b34801561023557600080fd5b50610247610244366004610b59565b50565b005b34801561025557600080fd5b50610192610264366004610afb565b6001600160a01b031660009081526067602052604090205490565b34801561028b57600080fd5b5061019261029a366004610afb565b6001600160a01b031660009081526033602052604090205490565b3480156102c157600080fd5b50610103610442565b3480156102d657600080fd5b506101396102e5366004610ad1565b610451565b3480156102f657600080fd5b50610139610305366004610ad1565b6104d1565b34801561031657600080fd5b50610247610325366004610afb565b6104df565b34801561033657600080fd5b50610192610345366004610b72565b610574565b61024761059f565b60606036805461036190610ba5565b80601f016020809104026020016040519081016040528092919081815260200182805461038d90610ba5565b80156103da5780601f106103af576101008083540402835291602001916103da565b820191906000526020600020905b8154815290600101906020018083116103bd57829003601f168201915b5050505050905090565b6000336103f281858561066c565b5060019392505050565b60003361040a858285610790565b61041585858561080a565b506001949350505050565b6000336103f28185856104338383610574565b61043d9190610bdf565b61066c565b60606037805461036190610ba5565b6000338161045f8286610574565b9050838110156104c45760405162461bcd60e51b815260206004820152602560248201527f45524332303a2064656372656173656420616c6c6f77616e63652062656c6f77604482015264207a65726f60d81b60648201526084015b60405180910390fd5b610415828686840361066c565b6000336103f281858561080a565b60006104eb60016109d8565b90508015610503576000805461ff0019166101001790555b670de0b6b3a7640000606655606580546001600160a01b0319166001600160a01b0384161790558015610570576000805461ff0019169055604051600181527f7f26b83ff96e1f2b6a682f133852f6798a09c465da95921460cefb38474024989060200160405180910390a15b5050565b6001600160a01b03918216600090815260346020908152604080832093909416825291909152205490565b33600090815260676020526040902054156105ec5760405162461bcd60e51b815260206004820152600d60248201526c4d617820436f6d70616e69657360981b60448201526064016104bb565b6065546040516340d097c360e01b81523360048201526001600160a01b03909116906340d097c3906024016020604051808303816000875af1158015610636573d6000803e3d6000fd5b505050506040513d601f19601f8201168201806040525081019061065a9190610c05565b33600090815260676020526040902055565b6001600160a01b0383166106ce5760405162461bcd60e51b8152602060048201526024808201527f45524332303a20617070726f76652066726f6d20746865207a65726f206164646044820152637265737360e01b60648201526084016104bb565b6001600160a01b03821661072f5760405162461bcd60e51b815260206004820152602260248201527f45524332303a20617070726f766520746f20746865207a65726f206164647265604482015261737360f01b60648201526084016104bb565b6001600160a01b0383811660008181526034602090815260408083209487168084529482529182902085905590518481527f8c5be1e5ebec7d5bd14f71427d1e84f3dd0314c0f7b2291e5b200ac8c7c3b925910160405180910390a3505050565b600061079c8484610574565b9050600019811461080457818110156107f75760405162461bcd60e51b815260206004820152601d60248201527f45524332303a20696e73756666696369656e7420616c6c6f77616e636500000060448201526064016104bb565b610804848484840361066c565b50505050565b6001600160a01b03831661086e5760405162461bcd60e51b815260206004820152602560248201527f45524332303a207472616e736665722066726f6d20746865207a65726f206164604482015264647265737360d81b60648201526084016104bb565b6001600160a01b0382166108d05760405162461bcd60e51b815260206004820152602360248201527f45524332303a207472616e7366657220746f20746865207a65726f206164647260448201526265737360e81b60648201526084016104bb565b6001600160a01b038316600090815260336020526040902054818110156109485760405162461bcd60e51b815260206004820152602660248201527f45524332303a207472616e7366657220616d6f756e7420657863656564732062604482015265616c616e636560d01b60648201526084016104bb565b6001600160a01b0380851660009081526033602052604080822085850390559185168152908120805484929061097f908490610bdf565b92505081905550826001600160a01b0316846001600160a01b03167fddf252ad1be2c89b69c2b068fc378daa952ba7f163c4a11628f55a4df523b3ef846040516109cb91815260200190565b60405180910390a3610804565b60008054610100900460ff1615610a1f578160ff1660011480156109fb5750303b155b610a175760405162461bcd60e51b81526004016104bb90610c1e565b506000919050565b60005460ff808416911610610a465760405162461bcd60e51b81526004016104bb90610c1e565b506000805460ff191660ff92909216919091179055600190565b919050565b600060208083528351808285015260005b81811015610a9257858101830151858201604001528201610a76565b81811115610aa4576000604083870101525b50601f01601f1916929092016040019392505050565b80356001600160a01b0381168114610a6057600080fd5b60008060408385031215610ae457600080fd5b610aed83610aba565b946020939093013593505050565b600060208284031215610b0d57600080fd5b610b1682610aba565b9392505050565b600080600060608486031215610b3257600080fd5b610b3b84610aba565b9250610b4960208501610aba565b9150604084013590509250925092565b600060208284031215610b6b57600080fd5b5035919050565b60008060408385031215610b8557600080fd5b610b8e83610aba565b9150610b9c60208401610aba565b90509250929050565b600181811c90821680610bb957607f821691505b602082108103610bd957634e487b7160e01b600052602260045260246000fd5b50919050565b60008219821115610c0057634e487b7160e01b600052601160045260246000fd5b500190565b600060208284031215610c1757600080fd5b5051919050565b6020808252602e908201527f496e697469616c697a61626c653a20636f6e747261637420697320616c72656160408201526d191e481a5b9a5d1a585b1a5e995960921b60608201526080019056fea26469706673582212204bc74d48545165f1cefa2949f1be4f78ff94aa45178f17e706a5d5477b8e345e64736f6c634300080e0033",
  "linkReferences": {},
  "deployedLinkReferences": {}
}