{
  "_format": "hh-sol-artifact-1",
  "contractName": "MetaStockFranchiseShare",
  "sourceName": "contracts/metaStocks/MetaStockFranchiseShare.sol",
  "abi": [
    {
      "inputs": [],
      "stateMutability": "nonpayable",
      "type": "constructor"
    },
    {
      "anonymous": false,
      "inputs": [
        {
          "indexed": true,
          "internalType": "address",
          "name": "account",
          "type": "address"
        },
        {
          "indexed": true,
          "internalType": "address",
          "name": "operator",
          "type": "address"
        },
        {
          "indexed": false,
          "internalType": "bool",
          "name": "approved",
          "type": "bool"
        }
      ],
      "name": "ApprovalForAll",
      "type": "event"
    },
    {
      "anonymous": false,
      "inputs": [
        {
          "indexed": false,
          "internalType": "uint8",
          "name": "version",
          "type": "uint8"
        }
      ],
      "name": "Initialized",
      "type": "event"
    },
    {
      "anonymous": false,
      "inputs": [
        {
          "indexed": true,
          "internalType": "address",
          "name": "previousOwner",
          "type": "address"
        },
        {
          "indexed": true,
          "internalType": "address",
          "name": "newOwner",
          "type": "address"
        }
      ],
      "name": "OwnershipTransferred",
      "type": "event"
    },
    {
      "anonymous": false,
      "inputs": [
        {
          "indexed": false,
          "internalType": "address",
          "name": "account",
          "type": "address"
        }
      ],
      "name": "Paused",
      "type": "event"
    },
    {
      "anonymous": false,
      "inputs": [
        {
          "indexed": true,
          "internalType": "address",
          "name": "operator",
          "type": "address"
        },
        {
          "indexed": true,
          "internalType": "address",
          "name": "from",
          "type": "address"
        },
        {
          "indexed": true,
          "internalType": "address",
          "name": "to",
          "type": "address"
        },
        {
          "indexed": false,
          "internalType": "uint256[]",
          "name": "ids",
          "type": "uint256[]"
        },
        {
          "indexed": false,
          "internalType": "uint256[]",
          "name": "values",
          "type": "uint256[]"
        }
      ],
      "name": "TransferBatch",
      "type": "event"
    },
    {
      "anonymous": false,
      "inputs": [
        {
          "indexed": true,
          "internalType": "address",
          "name": "operator",
          "type": "address"
        },
        {
          "indexed": true,
          "internalType": "address",
          "name": "from",
          "type": "address"
        },
        {
          "indexed": true,
          "internalType": "address",
          "name": "to",
          "type": "address"
        },
        {
          "indexed": false,
          "internalType": "uint256",
          "name": "id",
          "type": "uint256"
        },
        {
          "indexed": false,
          "internalType": "uint256",
          "name": "value",
          "type": "uint256"
        }
      ],
      "name": "TransferSingle",
      "type": "event"
    },
    {
      "anonymous": false,
      "inputs": [
        {
          "indexed": false,
          "internalType": "string",
          "name": "value",
          "type": "string"
        },
        {
          "indexed": true,
          "internalType": "uint256",
          "name": "id",
          "type": "uint256"
        }
      ],
      "name": "URI",
      "type": "event"
    },
    {
      "anonymous": false,
      "inputs": [
        {
          "indexed": false,
          "internalType": "address",
          "name": "account",
          "type": "address"
        }
      ],
      "name": "Unpaused",
      "type": "event"
    },
    {
      "inputs": [
        {
          "internalType": "address",
          "name": "account",
          "type": "address"
        },
        {
          "internalType": "uint256",
          "name": "id",
          "type": "uint256"
        }
      ],
      "name": "balanceOf",
      "outputs": [
        {
          "internalType": "uint256",
          "name": "",
          "type": "uint256"
        }
      ],
      "stateMutability": "view",
      "type": "function"
    },
    {
      "inputs": [
        {
          "internalType": "address[]",
          "name": "accounts",
          "type": "address[]"
        },
        {
          "internalType": "uint256[]",
          "name": "ids",
          "type": "uint256[]"
        }
      ],
      "name": "balanceOfBatch",
      "outputs": [
        {
          "internalType": "uint256[]",
          "name": "",
          "type": "uint256[]"
        }
      ],
      "stateMutability": "view",
      "type": "function"
    },
    {
      "inputs": [
        {
          "internalType": "address",
          "name": "account",
          "type": "address"
        },
        {
          "internalType": "uint256",
          "name": "id",
          "type": "uint256"
        },
        {
          "internalType": "uint256",
          "name": "value",
          "type": "uint256"
        }
      ],
      "name": "burn",
      "outputs": [],
      "stateMutability": "nonpayable",
      "type": "function"
    },
    {
      "inputs": [
        {
          "internalType": "address",
          "name": "account",
          "type": "address"
        },
        {
          "internalType": "uint256[]",
          "name": "ids",
          "type": "uint256[]"
        },
        {
          "internalType": "uint256[]",
          "name": "values",
          "type": "uint256[]"
        }
      ],
      "name": "burnBatch",
      "outputs": [],
      "stateMutability": "nonpayable",
      "type": "function"
    },
    {
      "inputs": [],
      "name": "createFranchise",
      "outputs": [],
      "stateMutability": "payable",
      "type": "function"
    },
    {
      "inputs": [
        {
          "internalType": "uint256",
          "name": "id",
          "type": "uint256"
        }
      ],
      "name": "exists",
      "outputs": [
        {
          "internalType": "bool",
          "name": "",
          "type": "bool"
        }
      ],
      "stateMutability": "view",
      "type": "function"
    },
    {
      "inputs": [],
      "name": "initialize",
      "outputs": [],
      "stateMutability": "nonpayable",
      "type": "function"
    },
    {
      "inputs": [
        {
          "internalType": "address",
          "name": "account",
          "type": "address"
        },
        {
          "internalType": "address",
          "name": "operator",
          "type": "address"
        }
      ],
      "name": "isApprovedForAll",
      "outputs": [
        {
          "internalType": "bool",
          "name": "",
          "type": "bool"
        }
      ],
      "stateMutability": "view",
      "type": "function"
    },
    {
      "inputs": [
        {
          "internalType": "address",
          "name": "companyAddress",
          "type": "address"
        },
        {
          "internalType": "uint256",
          "name": "id",
          "type": "uint256"
        },
        {
          "internalType": "uint256",
          "name": "amount",
          "type": "uint256"
        },
        {
          "internalType": "bytes",
          "name": "data",
          "type": "bytes"
        }
      ],
      "name": "mintFranchise",
      "outputs": [],
      "stateMutability": "nonpayable",
      "type": "function"
    },
    {
      "inputs": [
        {
          "internalType": "address",
          "name": "companyAddress",
          "type": "address"
        },
        {
          "internalType": "uint256[]",
          "name": "ids",
          "type": "uint256[]"
        },
        {
          "internalType": "uint256[]",
          "name": "amounts",
          "type": "uint256[]"
        },
        {
          "internalType": "bytes",
          "name": "data",
          "type": "bytes"
        }
      ],
      "name": "mintFranchiseBatch",
      "outputs": [],
      "stateMutability": "nonpayable",
      "type": "function"
    },
    {
      "inputs": [],
      "name": "owner",
      "outputs": [
        {
          "internalType": "address",
          "name": "",
          "type": "address"
        }
      ],
      "stateMutability": "view",
      "type": "function"
    },
    {
      "inputs": [],
      "name": "pause",
      "outputs": [],
      "stateMutability": "nonpayable",
      "type": "function"
    },
    {
      "inputs": [],
      "name": "paused",
      "outputs": [
        {
          "internalType": "bool",
          "name": "",
          "type": "bool"
        }
      ],
      "stateMutability": "view",
      "type": "function"
    },
    {
      "inputs": [],
      "name": "renounceOwnership",
      "outputs": [],
      "stateMutability": "nonpayable",
      "type": "function"
    },
    {
      "inputs": [
        {
          "internalType": "address",
          "name": "from",
          "type": "address"
        },
        {
          "internalType": "address",
          "name": "to",
          "type": "address"
        },
        {
          "internalType": "uint256[]",
          "name": "ids",
          "type": "uint256[]"
        },
        {
          "internalType": "uint256[]",
          "name": "amounts",
          "type": "uint256[]"
        },
        {
          "internalType": "bytes",
          "name": "data",
          "type": "bytes"
        }
      ],
      "name": "safeBatchTransferFrom",
      "outputs": [],
      "stateMutability": "nonpayable",
      "type": "function"
    },
    {
      "inputs": [
        {
          "internalType": "address",
          "name": "from",
          "type": "address"
        },
        {
          "internalType": "address",
          "name": "to",
          "type": "address"
        },
        {
          "internalType": "uint256",
          "name": "id",
          "type": "uint256"
        },
        {
          "internalType": "uint256",
          "name": "amount",
          "type": "uint256"
        },
        {
          "internalType": "bytes",
          "name": "data",
          "type": "bytes"
        }
      ],
      "name": "safeTransferFrom",
      "outputs": [],
      "stateMutability": "nonpayable",
      "type": "function"
    },
    {
      "inputs": [
        {
          "internalType": "address",
          "name": "operator",
          "type": "address"
        },
        {
          "internalType": "bool",
          "name": "approved",
          "type": "bool"
        }
      ],
      "name": "setApprovalForAll",
      "outputs": [],
      "stateMutability": "nonpayable",
      "type": "function"
    },
    {
      "inputs": [
        {
          "internalType": "string",
          "name": "newuri",
          "type": "string"
        }
      ],
      "name": "setURI",
      "outputs": [],
      "stateMutability": "nonpayable",
      "type": "function"
    },
    {
      "inputs": [
        {
          "internalType": "bytes4",
          "name": "interfaceId",
          "type": "bytes4"
        }
      ],
      "name": "supportsInterface",
      "outputs": [
        {
          "internalType": "bool",
          "name": "",
          "type": "bool"
        }
      ],
      "stateMutability": "view",
      "type": "function"
    },
    {
      "inputs": [
        {
          "internalType": "uint256",
          "name": "id",
          "type": "uint256"
        }
      ],
      "name": "totalSupply",
      "outputs": [
        {
          "internalType": "uint256",
          "name": "",
          "type": "uint256"
        }
      ],
      "stateMutability": "view",
      "type": "function"
    },
    {
      "inputs": [
        {
          "internalType": "address",
          "name": "newOwner",
          "type": "address"
        }
      ],
      "name": "transferOwnership",
      "outputs": [],
      "stateMutability": "nonpayable",
      "type": "function"
    },
    {
      "inputs": [],
      "name": "unpause",
      "outputs": [],
      "stateMutability": "nonpayable",
      "type": "function"
    },
    {
      "inputs": [
        {
          "internalType": "uint256",
          "name": "",
          "type": "uint256"
        }
      ],
      "name": "uri",
      "outputs": [
        {
          "internalType": "string",
          "name": "",
          "type": "string"
        }
      ],
      "stateMutability": "view",
      "type": "function"
    }
  ],
  "bytecode": "0x60806040523480156200001157600080fd5b506200001c6200002c565b620000266200002c565b6200015c565b6200003860ff6200003b565b50565b60008054610100900460ff1615620000d4578160ff16600114801562000074575062000072306200014d60201b62000b311760201c565b155b620000cc5760405162461bcd60e51b815260206004820152602e60248201526000805160206200298283398151915260448201526d191e481a5b9a5d1a585b1a5e995960921b60648201526084015b60405180910390fd5b506000919050565b60005460ff808416911610620001335760405162461bcd60e51b815260206004820152602e60248201526000805160206200298283398151915260448201526d191e481a5b9a5d1a585b1a5e995960921b6064820152608401620000c3565b506000805460ff191660ff92909216919091179055600190565b6001600160a01b03163b151590565b612816806200016c6000396000f3fe60806040526004361061013f5760003560e01c8063715018a6116100b6578063cdf379651161006f578063cdf379651461037a578063df22179f1461039a578063e985e9c5146103ba578063f242432a14610403578063f2fde38b14610423578063f5298aca1461044357600080fd5b8063715018a6146102c05780638129fc1c146102d55780638456cb59146102ea5780638da5cb5b146102ff578063a22cb4651461032c578063bd85b0391461034c57600080fd5b80632eb2c2d6116101085780632eb2c2d6146101f65780633f4ba83a146102165780634e1273f41461022b5780634f558e79146102585780635c975abb146102885780636b20c454146102a057600080fd5b8062fdd58e1461014457806301ffc9a71461017757806302fe5305146101a75780630e89341c146101c95780630e98caf2146101c7575b600080fd5b34801561015057600080fd5b5061016461015f366004611b8d565b610463565b6040519081526020015b60405180910390f35b34801561018357600080fd5b50610197610192366004611bcd565b6104fc565b604051901515815260200161016e565b3480156101b357600080fd5b506101c76101c2366004611c90565b61054e565b005b3480156101d557600080fd5b506101e96101e4366004611ce0565b610589565b60405161016e9190611d46565b34801561020257600080fd5b506101c7610211366004611e0d565b61061f565b34801561022257600080fd5b506101c76106b6565b34801561023757600080fd5b5061024b610246366004611eb6565b6106ed565b60405161016e9190611fbb565b34801561026457600080fd5b50610197610273366004611ce0565b600090815261012d6020526040902054151590565b34801561029457600080fd5b5060c95460ff16610197565b3480156102ac57600080fd5b506101c76102bb366004611fce565b610816565b3480156102cc57600080fd5b506101c761085e565b3480156102e157600080fd5b506101c7610897565b3480156102f657600080fd5b506101c761093b565b34801561030b57600080fd5b50610314610972565b6040516001600160a01b03909116815260200161016e565b34801561033857600080fd5b506101c7610347366004612041565b610981565b34801561035857600080fd5b50610164610367366004611ce0565b600090815261012d602052604090205490565b34801561038657600080fd5b506101c761039536600461207d565b610990565b3480156103a657600080fd5b506101c76103b53660046120dd565b6109d1565b3480156103c657600080fd5b506101976103d5366004612169565b6001600160a01b03918216600090815260666020908152604080832093909416825291909152205460ff1690565b34801561040f57600080fd5b506101c761041e36600461219c565b610a0c565b34801561042f57600080fd5b506101c761043e366004612200565b610a51565b34801561044f57600080fd5b506101c761045e36600461221b565b610aee565b60006001600160a01b0383166104d45760405162461bcd60e51b815260206004820152602b60248201527f455243313135353a2062616c616e636520717565727920666f7220746865207a60448201526a65726f206164647265737360a81b60648201526084015b60405180910390fd5b5060009081526065602090815260408083206001600160a01b03949094168352929052205490565b60006001600160e01b03198216636cdb3d1360e11b148061052d57506001600160e01b031982166303a24d0760e21b145b8061054857506301ffc9a760e01b6001600160e01b03198316145b92915050565b33610557610972565b6001600160a01b03161461057d5760405162461bcd60e51b81526004016104cb9061224e565b61058681610b40565b50565b60606067805461059890612283565b80601f01602080910402602001604051908101604052809291908181526020018280546105c490612283565b80156106115780601f106105e657610100808354040283529160200191610611565b820191906000526020600020905b8154815290600101906020018083116105f457829003601f168201915b50505050509050919050565b565b6001600160a01b03851633148061063b575061063b85336103d5565b6106a25760405162461bcd60e51b815260206004820152603260248201527f455243313135353a207472616e736665722063616c6c6572206973206e6f74206044820152711bdddb995c881b9bdc88185c1c1c9bdd995960721b60648201526084016104cb565b6106af8585858585610b53565b5050505050565b336106bf610972565b6001600160a01b0316146106e55760405162461bcd60e51b81526004016104cb9061224e565b61061d610cee565b606081518351146107525760405162461bcd60e51b815260206004820152602960248201527f455243313135353a206163636f756e747320616e6420696473206c656e677468604482015268040dad2e6dac2e8c6d60bb1b60648201526084016104cb565b600083516001600160401b0381111561076d5761076d611bf1565b604051908082528060200260200182016040528015610796578160200160208202803683370190505b50905060005b845181101561080e576107e18582815181106107ba576107ba6122bd565b60200260200101518583815181106107d4576107d46122bd565b6020026020010151610463565b8282815181106107f3576107f36122bd565b6020908102919091010152610807816122e9565b905061079c565b509392505050565b6001600160a01b038316331480610832575061083283336103d5565b61084e5760405162461bcd60e51b81526004016104cb90612302565b610859838383610d81565b505050565b33610867610972565b6001600160a01b03161461088d5760405162461bcd60e51b81526004016104cb9061224e565b61061d6000610f0e565b60006108a36001610f60565b905080156108bb576000805461ff0019166101001790555b6108d360405180602001604052806000815250610ff4565b6108db611024565b6108e3611053565b6108eb611082565b6108f3611082565b8015610586576000805461ff0019169055604051600181527f7f26b83ff96e1f2b6a682f133852f6798a09c465da95921460cefb38474024989060200160405180910390a150565b33610944610972565b6001600160a01b03161461096a5760405162461bcd60e51b81526004016104cb9061224e565b61061d6110a9565b6097546001600160a01b031690565b61098c338383611101565b5050565b33610999610972565b6001600160a01b0316146109bf5760405162461bcd60e51b81526004016104cb9061224e565b6109cb848484846111e1565b50505050565b336109da610972565b6001600160a01b031614610a005760405162461bcd60e51b81526004016104cb9061224e565b6109cb848484846112ba565b6001600160a01b038516331480610a285750610a2885336103d5565b610a445760405162461bcd60e51b81526004016104cb90612302565b6106af8585858585611403565b33610a5a610972565b6001600160a01b031614610a805760405162461bcd60e51b81526004016104cb9061224e565b6001600160a01b038116610ae55760405162461bcd60e51b815260206004820152602660248201527f4f776e61626c653a206e6577206f776e657220697320746865207a65726f206160448201526564647265737360d01b60648201526084016104cb565b61058681610f0e565b6001600160a01b038316331480610b0a5750610b0a83336103d5565b610b265760405162461bcd60e51b81526004016104cb90612302565b61085983838361152d565b6001600160a01b03163b151590565b805161098c906067906020840190611add565b8151835114610b745760405162461bcd60e51b81526004016104cb9061234b565b6001600160a01b038416610b9a5760405162461bcd60e51b81526004016104cb90612393565b33610ba9818787878787611637565b60005b8451811015610c92576000858281518110610bc957610bc96122bd565b602002602001015190506000858381518110610be757610be76122bd565b60209081029190910181015160008481526065835260408082206001600160a01b038e168352909352919091205490915081811015610c385760405162461bcd60e51b81526004016104cb906123d8565b60008381526065602090815260408083206001600160a01b038e8116855292528083208585039055908b16825281208054849290610c77908490612422565b9250508190555050505080610c8b906122e9565b9050610bac565b50846001600160a01b0316866001600160a01b0316826001600160a01b03166000805160206127a18339815191528787604051610cd092919061243a565b60405180910390a4610ce6818787878787611668565b505050505050565b60c95460ff16610d375760405162461bcd60e51b815260206004820152601460248201527314185d5cd8589b194e881b9bdd081c185d5cd95960621b60448201526064016104cb565b60c9805460ff191690557f5db9ee0a495bf2e6ff9c91a7834c1ba4fdd244a5e8aa4e537bd38aeae4b073aa335b6040516001600160a01b03909116815260200160405180910390a1565b6001600160a01b038316610da75760405162461bcd60e51b81526004016104cb90612468565b8051825114610dc85760405162461bcd60e51b81526004016104cb9061234b565b6000339050610deb81856000868660405180602001604052806000815250611637565b60005b8351811015610eb3576000848281518110610e0b57610e0b6122bd565b602002602001015190506000848381518110610e2957610e296122bd565b60209081029190910181015160008481526065835260408082206001600160a01b038c168352909352919091205490915081811015610e7a5760405162461bcd60e51b81526004016104cb906124ab565b60009283526065602090815260408085206001600160a01b038b1686529091529092209103905580610eab816122e9565b915050610dee565b5060006001600160a01b0316846001600160a01b0316826001600160a01b03166000805160206127a18339815191528686604051610ef292919061243a565b60405180910390a46040805160208101909152600090526109cb565b609780546001600160a01b038381166001600160a01b0319831681179093556040519116919082907f8be0079c531659141344cd1fd0a4f28419497f9722a3daafe3b4186f6b6457e090600090a35050565b60008054610100900460ff1615610fae578160ff166001148015610f8a5750610f8830610b31565b155b610fa65760405162461bcd60e51b81526004016104cb906124ef565b506000919050565b60005460ff808416911610610fd55760405162461bcd60e51b81526004016104cb906124ef565b506000805460ff191660ff92909216919091179055600190565b919050565b600054610100900460ff1661101b5760405162461bcd60e51b81526004016104cb9061253d565b610586816117ca565b600054610100900460ff1661104b5760405162461bcd60e51b81526004016104cb9061253d565b61061d6117f1565b600054610100900460ff1661107a5760405162461bcd60e51b81526004016104cb9061253d565b61061d611821565b600054610100900460ff1661061d5760405162461bcd60e51b81526004016104cb9061253d565b60c95460ff16156110cc5760405162461bcd60e51b81526004016104cb90612588565b60c9805460ff191660011790557f62e78cea01bee320cd4e420270b5ea74000d11b0c9f74754ebdbfc544b05a258610d643390565b816001600160a01b0316836001600160a01b0316036111745760405162461bcd60e51b815260206004820152602960248201527f455243313135353a2073657474696e6720617070726f76616c20737461747573604482015268103337b91039b2b63360b91b60648201526084016104cb565b6001600160a01b03838116600081815260666020908152604080832094871680845294825291829020805460ff191686151590811790915591519182527f17307eab39ab6107e8899845ad3d59bd9653f200f220920489ca2b5937696c31910160405180910390a3505050565b6001600160a01b0384166112075760405162461bcd60e51b81526004016104cb906125b2565b33600061121385611854565b9050600061122085611854565b905061123183600089858589611637565b60008681526065602090815260408083206001600160a01b038b16845290915281208054879290611263908490612422565b909155505060408051878152602081018790526001600160a01b03808a1692600092918716916000805160206127c1833981519152910160405180910390a46112b18360008989898961189f565b50505050505050565b6001600160a01b0384166112e05760405162461bcd60e51b81526004016104cb906125b2565b81518351146113015760405162461bcd60e51b81526004016104cb9061234b565b3361131181600087878787611637565b60005b84518110156113ad5783818151811061132f5761132f6122bd565b60200260200101516065600087848151811061134d5761134d6122bd565b602002602001015181526020019081526020016000206000886001600160a01b03166001600160a01b0316815260200190815260200160002060008282546113959190612422565b909155508190506113a5816122e9565b915050611314565b50846001600160a01b031660006001600160a01b0316826001600160a01b03166000805160206127a183398151915287876040516113ec92919061243a565b60405180910390a46106af81600087878787611668565b6001600160a01b0384166114295760405162461bcd60e51b81526004016104cb90612393565b33600061143585611854565b9050600061144285611854565b9050611452838989858589611637565b60008681526065602090815260408083206001600160a01b038c168452909152902054858110156114955760405162461bcd60e51b81526004016104cb906123d8565b60008781526065602090815260408083206001600160a01b038d8116855292528083208985039055908a168252812080548892906114d4908490612422565b909155505060408051888152602081018890526001600160a01b03808b16928c821692918816916000805160206127c1833981519152910160405180910390a4611522848a8a8a8a8a61189f565b505050505050505050565b6001600160a01b0383166115535760405162461bcd60e51b81526004016104cb90612468565b33600061155f84611854565b9050600061156c84611854565b905061158c83876000858560405180602001604052806000815250611637565b60008581526065602090815260408083206001600160a01b038a168452909152902054848110156115cf5760405162461bcd60e51b81526004016104cb906124ab565b60008681526065602090815260408083206001600160a01b038b81168086529184528285208a8703905582518b81529384018a90529092908816916000805160206127c1833981519152910160405180910390a46040805160208101909152600090526112b1565b60c95460ff161561165a5760405162461bcd60e51b81526004016104cb90612588565b610ce6868686868686611961565b61167a846001600160a01b0316610b31565b15610ce65760405163bc197c8160e01b81526001600160a01b0385169063bc197c81906116b390899089908890889088906004016125f3565b6020604051808303816000875af19250505080156116ee575060408051601f3d908101601f191682019092526116eb91810190612651565b60015b61179a576116fa61266e565b806308c379a003611733575061170e61268a565b806117195750611735565b8060405162461bcd60e51b81526004016104cb9190611d46565b505b60405162461bcd60e51b815260206004820152603460248201527f455243313135353a207472616e7366657220746f206e6f6e20455243313135356044820152732932b1b2b4bb32b91034b6b83632b6b2b73a32b960611b60648201526084016104cb565b6001600160e01b0319811663bc197c8160e01b146112b15760405162461bcd60e51b81526004016104cb90612713565b600054610100900460ff1661057d5760405162461bcd60e51b81526004016104cb9061253d565b600054610100900460ff166118185760405162461bcd60e51b81526004016104cb9061253d565b61061d33610f0e565b600054610100900460ff166118485760405162461bcd60e51b81526004016104cb9061253d565b60c9805460ff19169055565b6040805160018082528183019092526060916000919060208083019080368337019050509050828160008151811061188e5761188e6122bd565b602090810291909101015292915050565b6118b1846001600160a01b0316610b31565b15610ce65760405163f23a6e6160e01b81526001600160a01b0385169063f23a6e61906118ea908990899088908890889060040161275b565b6020604051808303816000875af1925050508015611925575060408051601f3d908101601f1916820190925261192291810190612651565b60015b611931576116fa61266e565b6001600160e01b0319811663f23a6e6160e01b146112b15760405162461bcd60e51b81526004016104cb90612713565b6001600160a01b0385166119e95760005b83518110156119e75782818151811061198d5761198d6122bd565b602002602001015161012d60008684815181106119ac576119ac6122bd565b6020026020010151815260200190815260200160002060008282546119d19190612422565b909155506119e09050816122e9565b9050611972565b505b6001600160a01b038416610ce65760005b83518110156112b1576000848281518110611a1757611a176122bd565b602002602001015190506000848381518110611a3557611a356122bd565b60200260200101519050600061012d600084815260200190815260200160002054905081811015611ab95760405162461bcd60e51b815260206004820152602860248201527f455243313135353a206275726e20616d6f756e74206578636565647320746f74604482015267616c537570706c7960c01b60648201526084016104cb565b600092835261012d602052604090922091039055611ad6816122e9565b90506119fa565b828054611ae990612283565b90600052602060002090601f016020900481019282611b0b5760008555611b51565b82601f10611b2457805160ff1916838001178555611b51565b82800160010185558215611b51579182015b82811115611b51578251825591602001919060010190611b36565b50611b5d929150611b61565b5090565b5b80821115611b5d5760008155600101611b62565b80356001600160a01b0381168114610fef57600080fd5b60008060408385031215611ba057600080fd5b611ba983611b76565b946020939093013593505050565b6001600160e01b03198116811461058657600080fd5b600060208284031215611bdf57600080fd5b8135611bea81611bb7565b9392505050565b634e487b7160e01b600052604160045260246000fd5b601f8201601f191681016001600160401b0381118282101715611c2c57611c2c611bf1565b6040525050565b60006001600160401b03831115611c4c57611c4c611bf1565b604051611c63601f8501601f191660200182611c07565b809150838152848484011115611c7857600080fd5b83836020830137600060208583010152509392505050565b600060208284031215611ca257600080fd5b81356001600160401b03811115611cb857600080fd5b8201601f81018413611cc957600080fd5b611cd884823560208401611c33565b949350505050565b600060208284031215611cf257600080fd5b5035919050565b6000815180845260005b81811015611d1f57602081850181015186830182015201611d03565b81811115611d31576000602083870101525b50601f01601f19169290920160200192915050565b602081526000611bea6020830184611cf9565b60006001600160401b03821115611d7257611d72611bf1565b5060051b60200190565b600082601f830112611d8d57600080fd5b81356020611d9a82611d59565b604051611da78282611c07565b83815260059390931b8501820192828101915086841115611dc757600080fd5b8286015b84811015611de25780358352918301918301611dcb565b509695505050505050565b600082601f830112611dfe57600080fd5b611bea83833560208501611c33565b600080600080600060a08688031215611e2557600080fd5b611e2e86611b76565b9450611e3c60208701611b76565b935060408601356001600160401b0380821115611e5857600080fd5b611e6489838a01611d7c565b94506060880135915080821115611e7a57600080fd5b611e8689838a01611d7c565b93506080880135915080821115611e9c57600080fd5b50611ea988828901611ded565b9150509295509295909350565b60008060408385031215611ec957600080fd5b82356001600160401b0380821115611ee057600080fd5b818501915085601f830112611ef457600080fd5b81356020611f0182611d59565b604051611f0e8282611c07565b83815260059390931b8501820192828101915089841115611f2e57600080fd5b948201945b83861015611f5357611f4486611b76565b82529482019490820190611f33565b96505086013592505080821115611f6957600080fd5b50611f7685828601611d7c565b9150509250929050565b600081518084526020808501945080840160005b83811015611fb057815187529582019590820190600101611f94565b509495945050505050565b602081526000611bea6020830184611f80565b600080600060608486031215611fe357600080fd5b611fec84611b76565b925060208401356001600160401b038082111561200857600080fd5b61201487838801611d7c565b9350604086013591508082111561202a57600080fd5b5061203786828701611d7c565b9150509250925092565b6000806040838503121561205457600080fd5b61205d83611b76565b91506020830135801515811461207257600080fd5b809150509250929050565b6000806000806080858703121561209357600080fd5b61209c85611b76565b9350602085013592506040850135915060608501356001600160401b038111156120c557600080fd5b6120d187828801611ded565b91505092959194509250565b600080600080608085870312156120f357600080fd5b6120fc85611b76565b935060208501356001600160401b038082111561211857600080fd5b61212488838901611d7c565b9450604087013591508082111561213a57600080fd5b61214688838901611d7c565b9350606087013591508082111561215c57600080fd5b506120d187828801611ded565b6000806040838503121561217c57600080fd5b61218583611b76565b915061219360208401611b76565b90509250929050565b600080600080600060a086880312156121b457600080fd5b6121bd86611b76565b94506121cb60208701611b76565b9350604086013592506060860135915060808601356001600160401b038111156121f457600080fd5b611ea988828901611ded565b60006020828403121561221257600080fd5b611bea82611b76565b60008060006060848603121561223057600080fd5b61223984611b76565b95602085013595506040909401359392505050565b6020808252818101527f4f776e61626c653a2063616c6c6572206973206e6f7420746865206f776e6572604082015260600190565b600181811c9082168061229757607f821691505b6020821081036122b757634e487b7160e01b600052602260045260246000fd5b50919050565b634e487b7160e01b600052603260045260246000fd5b634e487b7160e01b600052601160045260246000fd5b6000600182016122fb576122fb6122d3565b5060010190565b60208082526029908201527f455243313135353a2063616c6c6572206973206e6f74206f776e6572206e6f7260408201526808185c1c1c9bdd995960ba1b606082015260800190565b60208082526028908201527f455243313135353a2069647320616e6420616d6f756e7473206c656e677468206040820152670dad2e6dac2e8c6d60c31b606082015260800190565b60208082526025908201527f455243313135353a207472616e7366657220746f20746865207a65726f206164604082015264647265737360d81b606082015260800190565b6020808252602a908201527f455243313135353a20696e73756666696369656e742062616c616e636520666f60408201526939103a3930b739b332b960b11b606082015260800190565b60008219821115612435576124356122d3565b500190565b60408152600061244d6040830185611f80565b828103602084015261245f8185611f80565b95945050505050565b60208082526023908201527f455243313135353a206275726e2066726f6d20746865207a65726f206164647260408201526265737360e81b606082015260800190565b60208082526024908201527f455243313135353a206275726e20616d6f756e7420657863656564732062616c604082015263616e636560e01b606082015260800190565b6020808252602e908201527f496e697469616c697a61626c653a20636f6e747261637420697320616c72656160408201526d191e481a5b9a5d1a585b1a5e995960921b606082015260800190565b6020808252602b908201527f496e697469616c697a61626c653a20636f6e7472616374206973206e6f74206960408201526a6e697469616c697a696e6760a81b606082015260800190565b60208082526010908201526f14185d5cd8589b194e881c185d5cd95960821b604082015260600190565b60208082526021908201527f455243313135353a206d696e7420746f20746865207a65726f206164647265736040820152607360f81b606082015260800190565b6001600160a01b0386811682528516602082015260a06040820181905260009061261f90830186611f80565b82810360608401526126318186611f80565b905082810360808401526126458185611cf9565b98975050505050505050565b60006020828403121561266357600080fd5b8151611bea81611bb7565b600060033d11156126875760046000803e5060005160e01c5b90565b600060443d10156126985790565b6040516003193d81016004833e81513d6001600160401b0381602484011181841117156126c757505050505090565b82850191508151818111156126df5750505050505090565b843d87010160208285010111156126f95750505050505090565b61270860208286010187611c07565b509095945050505050565b60208082526028908201527f455243313135353a204552433131353552656365697665722072656a656374656040820152676420746f6b656e7360c01b606082015260800190565b6001600160a01b03868116825285166020820152604081018490526060810183905260a06080820181905260009061279590830184611cf9565b97965050505050505056fe4a39dc06d4c0dbc64b70af90fd698a233a518aa5d07e595d983b8c0526c8f7fbc3d58168c5ae7397731d063d5bbf3d657854427343f4c083240f7aacaa2d0f62a26469706673582212206d2596bd42220ee0a31ec142a27c380bbb7010062df46ad48f47e3013ccf347864736f6c634300080e0033496e697469616c697a61626c653a20636f6e747261637420697320616c726561",
  "linkReferences": {},
  "deployedLinkReferences": {}
}