{
  "_format": "hh-sol-artifact-1",
  "contractName": "DexRouterManager",
  "sourceName": "contracts/managers/DexRouterManager.sol",
  "abi": [
    {
      "inputs": [
        {
          "internalType": "address",
          "name": "_dexRouterAddress",
          "type": "address"
        }
      ],
      "stateMutability": "nonpayable",
      "type": "constructor"
    },
    {
      "inputs": [
        {
          "internalType": "address",
          "name": "token",
          "type": "address"
        },
        {
          "internalType": "address",
          "name": "to",
          "type": "address"
        },
        {
          "internalType": "uint256",
          "name": "tokenAmount",
          "type": "uint256"
        },
        {
          "internalType": "uint256",
          "name": "ethAmount",
          "type": "uint256"
        }
      ],
      "name": "addLiquidity",
      "outputs": [],
      "stateMutability": "nonpayable",
      "type": "function"
    },
    {
      "inputs": [],
      "name": "getDexRouter",
      "outputs": [
        {
          "internalType": "contract IMetaStocksMultiDexRouter",
          "name": "",
          "type": "address"
        }
      ],
      "stateMutability": "view",
      "type": "function"
    },
    {
      "inputs": [],
      "name": "getDexRouterAddress",
      "outputs": [
        {
          "internalType": "address",
          "name": "",
          "type": "address"
        }
      ],
      "stateMutability": "view",
      "type": "function"
    },
    {
      "inputs": [
        {
          "internalType": "uint256",
          "name": "_networkId",
          "type": "uint256"
        }
      ],
      "name": "getNativeTokenAddress",
      "outputs": [
        {
          "internalType": "address",
          "name": "",
          "type": "address"
        }
      ],
      "stateMutability": "view",
      "type": "function"
    },
    {
      "inputs": [],
      "name": "isInSwap",
      "outputs": [
        {
          "internalType": "bool",
          "name": "",
          "type": "bool"
        }
      ],
      "stateMutability": "view",
      "type": "function"
    },
    {
      "inputs": [
        {
          "internalType": "address",
          "name": "_dexRouterAddress",
          "type": "address"
        }
      ],
      "name": "setDexRouter",
      "outputs": [],
      "stateMutability": "nonpayable",
      "type": "function"
    },
    {
      "inputs": [
        {
          "internalType": "address",
          "name": "token",
          "type": "address"
        },
        {
          "internalType": "address",
          "name": "to",
          "type": "address"
        },
        {
          "internalType": "uint256",
          "name": "amount",
          "type": "uint256"
        }
      ],
      "name": "swapTokensForNativeToken",
      "outputs": [],
      "stateMutability": "nonpayable",
      "type": "function"
    },
    {
      "inputs": [
        {
          "internalType": "address",
          "name": "to",
          "type": "address"
        },
        {
          "internalType": "uint256",
          "name": "amount",
          "type": "uint256"
        }
      ],
      "name": "swapTokensForStableCoin",
      "outputs": [],
      "stateMutability": "nonpayable",
      "type": "function"
    }
  ],
  "bytecode": "0x608060405234801561001057600080fd5b5060405161089238038061089283398101604081905261002f91610061565b600080546001600160a01b039092166001600160a01b031992831617905561a869600255600180549091169055610091565b60006020828403121561007357600080fd5b81516001600160a01b038116811461008a57600080fd5b9392505050565b6107f2806100a06000396000f3fe608060405234801561001057600080fd5b50600436106100785760003560e01c8063197e8da91461007d5780632c4a7361146100c157806385954d8c146100d6578063b9c55241146100d6578063cc996899146100e7578063cf6c62ea14610104578063f72f863b14610117578063f7a7657614610147575b600080fd5b6100a461008b3660046105a7565b5073ae13d989dac2f0debff460ac112a837c89baa7cd90565b6040516001600160a01b0390911681526020015b60405180910390f35b6100d46100cf3660046105dc565b61015a565b005b6000546001600160a01b03166100a4565b600154600160a01b900460ff1660405190151581526020016100b8565b6100d4610112366004610606565b610308565b6100d4610125366004610648565b600080546001600160a01b0319166001600160a01b0392909216919091179055565b6100d461015536600461066a565b61043c565b60408051600380825260808201909252600091602082016060803683370190505090503081600081518110610191576101916106a6565b6001600160a01b039092166020928302919091019091015273ae13d989dac2f0debff460ac112a837c89baa7cd816001815181106101d1576101d16106a6565b6001600160a01b039283166020918202929092010152600154825191169082906002908110610202576102026106a6565b6001600160a01b03928316602091820292909201015260015460005460405163095ea7b360e01b81529183169263095ea7b3926102499290911690600019906004016106bc565b6020604051808303816000875af1158015610268573d6000803e3d6000fd5b505050506040513d601f19601f8201168201806040525081019061028c91906106d5565b50600080546001600160a01b031690635c11d79590849084876102b1426103e86106f7565b6040518663ffffffff1660e01b81526004016102d195949392919061071d565b600060405180830381600087803b1580156102eb57600080fd5b505af11580156102ff573d6000803e3d6000fd5b50505050505050565b60005460405163095ea7b360e01b81526001600160a01b038681169263095ea7b39261033e9290911690600019906004016106bc565b6020604051808303816000875af115801561035d573d6000803e3d6000fd5b505050506040513d601f19601f8201168201806040525081019061038191906106d5565b50600080546001600160a01b03169063f305d7199083903090869080896103aa426127106106f7565b60405160e089901b6001600160e01b03191681526001600160a01b039687166004820152602481019590955260448501939093526064840191909152909216608482015260a481019190915260c40160606040518083038185885af1158015610417573d6000803e3d6000fd5b50505050506040513d601f19601f820116820180604052508101906102ff919061078e565b6040805160028082526060820183526000926020830190803683370190505090508381600081518110610471576104716106a6565b6001600160a01b039092166020928302919091019091015273ae13d989dac2f0debff460ac112a837c89baa7cd816001815181106104b1576104b16106a6565b6001600160a01b03928316602091820292909201015260005460405163095ea7b360e01b81528683169263095ea7b3926104f492911690600019906004016106bc565b6020604051808303816000875af1158015610513573d6000803e3d6000fd5b505050506040513d601f19601f8201168201806040525081019061053791906106d5565b506000805460405163791ac94760e01b81526001600160a01b039091169163791ac9479161056f91869186908990429060040161071d565b600060405180830381600087803b15801561058957600080fd5b505af115801561059d573d6000803e3d6000fd5b5050505050505050565b6000602082840312156105b957600080fd5b5035919050565b80356001600160a01b03811681146105d757600080fd5b919050565b600080604083850312156105ef57600080fd5b6105f8836105c0565b946020939093013593505050565b6000806000806080858703121561061c57600080fd5b610625856105c0565b9350610633602086016105c0565b93969395505050506040820135916060013590565b60006020828403121561065a57600080fd5b610663826105c0565b9392505050565b60008060006060848603121561067f57600080fd5b610688846105c0565b9250610696602085016105c0565b9150604084013590509250925092565b634e487b7160e01b600052603260045260246000fd5b6001600160a01b03929092168252602082015260400190565b6000602082840312156106e757600080fd5b8151801515811461066357600080fd5b6000821982111561071857634e487b7160e01b600052601160045260246000fd5b500190565b600060a082018783526020878185015260a0604085015281875180845260c086019150828901935060005b8181101561076d5784516001600160a01b031683529383019391830191600101610748565b50506001600160a01b03969096166060850152505050608001529392505050565b6000806000606084860312156107a357600080fd5b835192506020840151915060408401519050925092509256fea26469706673582212209d2b2fa2e0100e888afc497b98eab74093bf293ce904e54d856c5a817c34837564736f6c634300080e0033",
  "linkReferences": {},
  "deployedLinkReferences": {}
}