{
  "_format": "hh-sol-artifact-1",
  "contractName": "DexRouterManager",
  "sourceName": "contracts/managers/DexRouterManager.sol",
  "abi": [
    {
      "inputs": [
        {
          "internalType": "address",
          "name": "_dexRouterAddress",
          "type": "address"
        }
      ],
      "stateMutability": "nonpayable",
      "type": "constructor"
    },
    {
      "inputs": [
        {
          "internalType": "address",
          "name": "token",
          "type": "address"
        },
        {
          "internalType": "address",
          "name": "to",
          "type": "address"
        },
        {
          "internalType": "uint256",
          "name": "tokenAmount",
          "type": "uint256"
        },
        {
          "internalType": "uint256",
          "name": "ethAmount",
          "type": "uint256"
        }
      ],
      "name": "addLiquidity",
      "outputs": [],
      "stateMutability": "nonpayable",
      "type": "function"
    },
    {
      "inputs": [],
      "name": "getDexRouter",
      "outputs": [
        {
          "internalType": "contract IMetaStocksMultiDexRouter",
          "name": "",
          "type": "address"
        }
      ],
      "stateMutability": "view",
      "type": "function"
    },
    {
      "inputs": [],
      "name": "getDexRouterAddress",
      "outputs": [
        {
          "internalType": "address",
          "name": "",
          "type": "address"
        }
      ],
      "stateMutability": "view",
      "type": "function"
    },
    {
      "inputs": [
        {
          "internalType": "uint256",
          "name": "_networkId",
          "type": "uint256"
        }
      ],
      "name": "getNativeTokenAddress",
      "outputs": [
        {
          "internalType": "address",
          "name": "",
          "type": "address"
        }
      ],
      "stateMutability": "view",
      "type": "function"
    },
    {
      "inputs": [],
      "name": "isInSwap",
      "outputs": [
        {
          "internalType": "bool",
          "name": "",
          "type": "bool"
        }
      ],
      "stateMutability": "view",
      "type": "function"
    },
    {
      "inputs": [
        {
          "internalType": "address",
          "name": "token",
          "type": "address"
        },
        {
          "internalType": "address",
          "name": "to",
          "type": "address"
        },
        {
          "internalType": "uint256",
          "name": "amount",
          "type": "uint256"
        }
      ],
      "name": "swapTokensForNativeToken",
      "outputs": [],
      "stateMutability": "nonpayable",
      "type": "function"
    },
    {
      "inputs": [
        {
          "internalType": "address",
          "name": "to",
          "type": "address"
        },
        {
          "internalType": "uint256",
          "name": "amount",
          "type": "uint256"
        }
      ],
      "name": "swapTokensForStableCoin",
      "outputs": [],
      "stateMutability": "nonpayable",
      "type": "function"
    }
  ],
  "bytecode": "0x608060405234801561001057600080fd5b5060405161093638038061093683398101604081905261002f91610076565b600080546001600160a01b039092166001600160a01b0319928316179055600180549091167378867bbeef44f2326bf8ddd1941a4439382ef2a717905560616002556100a6565b60006020828403121561008857600080fd5b81516001600160a01b038116811461009f57600080fd5b9392505050565b610881806100b56000396000f3fe608060405234801561001057600080fd5b506004361061006d5760003560e01c8063197e8da9146100725780632c4a7361146100a257806385954d8c146100b7578063b9c55241146100b7578063cc996899146100c8578063cf6c62ea146100e5578063f7a76576146100f8575b600080fd5b610085610080366004610634565b61010b565b6040516001600160a01b0390911681526020015b60405180910390f35b6100b56100b0366004610665565b6101eb565b005b6000546001600160a01b0316610085565b600154600160a01b900460ff166040519015158152602001610099565b6100b56100f3366004610691565b610397565b6100b56101063660046106d7565b6104cb565b6000606182810361011d57508161016f565b8260610361012d5750606161016f565b60405162461bcd60e51b8152602060048201526013602482015272756e737570706f72746564206e6574776f726b60681b604482015260640160405180910390fd5b60008054906101000a90046001600160a01b03166001600160a01b031663ad5c46486040518163ffffffff1660e01b8152600401602060405180830381865afa1580156101c0573d6000803e3d6000fd5b505050506040513d601f19601f820116820180604052508101906101e49190610718565b9392505050565b6040805160038082526080820190925260009160208201606080368337019050509050308160008151811061022257610222610735565b60200260200101906001600160a01b031690816001600160a01b03168152505061024d60025461010b565b8160018151811061026057610260610735565b6001600160a01b03928316602091820292909201015260015482519116908290600290811061029157610291610735565b6001600160a01b03928316602091820292909201015260015460005460405163095ea7b360e01b81529183169263095ea7b3926102d892909116906000199060040161074b565b6020604051808303816000875af11580156102f7573d6000803e3d6000fd5b505050506040513d601f19601f8201168201806040525081019061031b9190610764565b50600080546001600160a01b031690635c11d7959084908487610340426103e8610786565b6040518663ffffffff1660e01b81526004016103609594939291906107ac565b600060405180830381600087803b15801561037a57600080fd5b505af115801561038e573d6000803e3d6000fd5b50505050505050565b60005460405163095ea7b360e01b81526001600160a01b038681169263095ea7b3926103cd92909116906000199060040161074b565b6020604051808303816000875af11580156103ec573d6000803e3d6000fd5b505050506040513d601f19601f820116820180604052508101906104109190610764565b50600080546001600160a01b03169063f305d71990839030908690808961043942612710610786565b60405160e089901b6001600160e01b03191681526001600160a01b039687166004820152602481019590955260448501939093526064840191909152909216608482015260a481019190915260c40160606040518083038185885af11580156104a6573d6000803e3d6000fd5b50505050506040513d601f19601f8201168201806040525081019061038e919061081d565b604080516002808252606082018352600092602083019080368337019050509050838160008151811061050057610500610735565b60200260200101906001600160a01b031690816001600160a01b03168152505061052b60025461010b565b8160018151811061053e5761053e610735565b6001600160a01b03928316602091820292909201015260005460405163095ea7b360e01b81528683169263095ea7b392610581929116906000199060040161074b565b6020604051808303816000875af11580156105a0573d6000803e3d6000fd5b505050506040513d601f19601f820116820180604052508101906105c49190610764565b506000805460405163791ac94760e01b81526001600160a01b039091169163791ac947916105fc9186918690899042906004016107ac565b600060405180830381600087803b15801561061657600080fd5b505af115801561062a573d6000803e3d6000fd5b5050505050505050565b60006020828403121561064657600080fd5b5035919050565b6001600160a01b038116811461066257600080fd5b50565b6000806040838503121561067857600080fd5b82356106838161064d565b946020939093013593505050565b600080600080608085870312156106a757600080fd5b84356106b28161064d565b935060208501356106c28161064d565b93969395505050506040820135916060013590565b6000806000606084860312156106ec57600080fd5b83356106f78161064d565b925060208401356107078161064d565b929592945050506040919091013590565b60006020828403121561072a57600080fd5b81516101e48161064d565b634e487b7160e01b600052603260045260246000fd5b6001600160a01b03929092168252602082015260400190565b60006020828403121561077657600080fd5b815180151581146101e457600080fd5b600082198211156107a757634e487b7160e01b600052601160045260246000fd5b500190565b600060a082018783526020878185015260a0604085015281875180845260c086019150828901935060005b818110156107fc5784516001600160a01b0316835293830193918301916001016107d7565b50506001600160a01b03969096166060850152505050608001529392505050565b60008060006060848603121561083257600080fd5b835192506020840151915060408401519050925092509256fea264697066735822122098113eda4b6852855769bb3ac005351e3b7438686931fdbb8f0d63b27ca8575264736f6c634300080e0033",
  "linkReferences": {},
  "deployedLinkReferences": {}
}