{
  "_format": "hh-sol-artifact-1",
  "contractName": "MetaStocksToken",
  "sourceName": "contracts/MetaStocksToken.sol",
  "abi": [
    {
      "anonymous": false,
      "inputs": [
        {
          "indexed": true,
          "internalType": "address",
          "name": "owner",
          "type": "address"
        },
        {
          "indexed": true,
          "internalType": "address",
          "name": "spender",
          "type": "address"
        },
        {
          "indexed": false,
          "internalType": "uint256",
          "name": "value",
          "type": "uint256"
        }
      ],
      "name": "Approval",
      "type": "event"
    },
    {
      "anonymous": false,
      "inputs": [
        {
          "indexed": true,
          "internalType": "address",
          "name": "sender",
          "type": "address"
        },
        {
          "indexed": false,
          "internalType": "uint256",
          "name": "amount",
          "type": "uint256"
        }
      ],
      "name": "Burn",
      "type": "event"
    },
    {
      "anonymous": false,
      "inputs": [
        {
          "indexed": false,
          "internalType": "uint8",
          "name": "version",
          "type": "uint8"
        }
      ],
      "name": "Initialized",
      "type": "event"
    },
    {
      "anonymous": false,
      "inputs": [
        {
          "indexed": true,
          "internalType": "address",
          "name": "previousOwner",
          "type": "address"
        },
        {
          "indexed": true,
          "internalType": "address",
          "name": "newOwner",
          "type": "address"
        }
      ],
      "name": "OwnershipTransferred",
      "type": "event"
    },
    {
      "anonymous": false,
      "inputs": [
        {
          "indexed": true,
          "internalType": "address",
          "name": "from",
          "type": "address"
        },
        {
          "indexed": true,
          "internalType": "address",
          "name": "to",
          "type": "address"
        },
        {
          "indexed": false,
          "internalType": "uint256",
          "name": "value",
          "type": "uint256"
        }
      ],
      "name": "Transfer",
      "type": "event"
    },
    {
      "inputs": [
        {
          "internalType": "address",
          "name": "owner",
          "type": "address"
        },
        {
          "internalType": "address",
          "name": "spender",
          "type": "address"
        }
      ],
      "name": "allowance",
      "outputs": [
        {
          "internalType": "uint256",
          "name": "",
          "type": "uint256"
        }
      ],
      "stateMutability": "view",
      "type": "function"
    },
    {
      "inputs": [
        {
          "internalType": "address",
          "name": "spender",
          "type": "address"
        },
        {
          "internalType": "uint256",
          "name": "amount",
          "type": "uint256"
        }
      ],
      "name": "approve",
      "outputs": [
        {
          "internalType": "bool",
          "name": "",
          "type": "bool"
        }
      ],
      "stateMutability": "nonpayable",
      "type": "function"
    },
    {
      "inputs": [
        {
          "internalType": "uint256",
          "name": "tokenAmount",
          "type": "uint256"
        }
      ],
      "name": "autoInjectLiquidity",
      "outputs": [],
      "stateMutability": "nonpayable",
      "type": "function"
    },
    {
      "inputs": [
        {
          "internalType": "address",
          "name": "",
          "type": "address"
        }
      ],
      "name": "automatedMarketMakerPairs",
      "outputs": [
        {
          "internalType": "bool",
          "name": "",
          "type": "bool"
        }
      ],
      "stateMutability": "view",
      "type": "function"
    },
    {
      "inputs": [
        {
          "internalType": "address",
          "name": "account",
          "type": "address"
        }
      ],
      "name": "balanceOf",
      "outputs": [
        {
          "internalType": "uint256",
          "name": "",
          "type": "uint256"
        }
      ],
      "stateMutability": "view",
      "type": "function"
    },
    {
      "inputs": [],
      "name": "decimals",
      "outputs": [
        {
          "internalType": "uint8",
          "name": "",
          "type": "uint8"
        }
      ],
      "stateMutability": "view",
      "type": "function"
    },
    {
      "inputs": [
        {
          "internalType": "address",
          "name": "spender",
          "type": "address"
        },
        {
          "internalType": "uint256",
          "name": "subtractedValue",
          "type": "uint256"
        }
      ],
      "name": "decreaseAllowance",
      "outputs": [
        {
          "internalType": "bool",
          "name": "",
          "type": "bool"
        }
      ],
      "stateMutability": "nonpayable",
      "type": "function"
    },
    {
      "inputs": [],
      "name": "enableTrading",
      "outputs": [],
      "stateMutability": "nonpayable",
      "type": "function"
    },
    {
      "inputs": [],
      "name": "getFeesManager",
      "outputs": [
        {
          "internalType": "contract FeesManager",
          "name": "",
          "type": "address"
        }
      ],
      "stateMutability": "view",
      "type": "function"
    },
    {
      "inputs": [],
      "name": "getLPPair",
      "outputs": [
        {
          "internalType": "address",
          "name": "",
          "type": "address"
        }
      ],
      "stateMutability": "view",
      "type": "function"
    },
    {
      "inputs": [],
      "name": "getMidasMultinetworkRouterManager",
      "outputs": [
        {
          "internalType": "contract MidasMultinetworkRouterManager",
          "name": "",
          "type": "address"
        }
      ],
      "stateMutability": "view",
      "type": "function"
    },
    {
      "inputs": [],
      "name": "getOwner",
      "outputs": [
        {
          "internalType": "address",
          "name": "",
          "type": "address"
        }
      ],
      "stateMutability": "view",
      "type": "function"
    },
    {
      "inputs": [],
      "name": "getSwapThreshold",
      "outputs": [
        {
          "internalType": "uint256",
          "name": "",
          "type": "uint256"
        }
      ],
      "stateMutability": "view",
      "type": "function"
    },
    {
      "inputs": [],
      "name": "getTradingEnabled",
      "outputs": [
        {
          "internalType": "bool",
          "name": "",
          "type": "bool"
        }
      ],
      "stateMutability": "view",
      "type": "function"
    },
    {
      "inputs": [
        {
          "internalType": "address",
          "name": "spender",
          "type": "address"
        },
        {
          "internalType": "uint256",
          "name": "addedValue",
          "type": "uint256"
        }
      ],
      "name": "increaseAllowance",
      "outputs": [
        {
          "internalType": "bool",
          "name": "",
          "type": "bool"
        }
      ],
      "stateMutability": "nonpayable",
      "type": "function"
    },
    {
      "inputs": [
        {
          "internalType": "string",
          "name": "_tokenName",
          "type": "string"
        },
        {
          "internalType": "string",
          "name": "_tokenSymbol",
          "type": "string"
        },
        {
          "internalType": "uint256",
          "name": "_totalSupply",
          "type": "uint256"
        }
      ],
      "name": "initialize",
      "outputs": [],
      "stateMutability": "nonpayable",
      "type": "function"
    },
    {
      "inputs": [],
      "name": "name",
      "outputs": [
        {
          "internalType": "string",
          "name": "",
          "type": "string"
        }
      ],
      "stateMutability": "view",
      "type": "function"
    },
    {
      "inputs": [],
      "name": "self",
      "outputs": [
        {
          "internalType": "address",
          "name": "",
          "type": "address"
        }
      ],
      "stateMutability": "view",
      "type": "function"
    },
    {
      "inputs": [
        {
          "internalType": "address",
          "name": "_dexRouter",
          "type": "address"
        }
      ],
      "name": "setDexRouter",
      "outputs": [],
      "stateMutability": "nonpayable",
      "type": "function"
    },
    {
      "inputs": [
        {
          "internalType": "uint16",
          "name": "buyFee",
          "type": "uint16"
        },
        {
          "internalType": "uint16",
          "name": "sellFee",
          "type": "uint16"
        },
        {
          "internalType": "uint16",
          "name": "transferFee",
          "type": "uint16"
        }
      ],
      "name": "setFees",
      "outputs": [],
      "stateMutability": "nonpayable",
      "type": "function"
    },
    {
      "inputs": [
        {
          "internalType": "contract FeesManager",
          "name": "_feesManager",
          "type": "address"
        }
      ],
      "name": "setFeesManager",
      "outputs": [],
      "stateMutability": "nonpayable",
      "type": "function"
    },
    {
      "inputs": [
        {
          "internalType": "uint256",
          "name": "_maxTransactionAmount",
          "type": "uint256"
        }
      ],
      "name": "setMaxTransactionAmount",
      "outputs": [],
      "stateMutability": "nonpayable",
      "type": "function"
    },
    {
      "inputs": [
        {
          "internalType": "uint256",
          "name": "_maxWalletAmount",
          "type": "uint256"
        }
      ],
      "name": "setMaxWalletAmount",
      "outputs": [],
      "stateMutability": "nonpayable",
      "type": "function"
    },
    {
      "inputs": [
        {
          "internalType": "address",
          "name": "_pairAddress",
          "type": "address"
        }
      ],
      "name": "setPairAddress",
      "outputs": [],
      "stateMutability": "nonpayable",
      "type": "function"
    },
    {
      "inputs": [
        {
          "internalType": "address",
          "name": "_routerAddress",
          "type": "address"
        }
      ],
      "name": "setRouterAddress",
      "outputs": [],
      "stateMutability": "nonpayable",
      "type": "function"
    },
    {
      "inputs": [
        {
          "internalType": "uint256",
          "name": "_swapThreshold",
          "type": "uint256"
        }
      ],
      "name": "setSwapThreshold",
      "outputs": [],
      "stateMutability": "nonpayable",
      "type": "function"
    },
    {
      "inputs": [
        {
          "internalType": "address",
          "name": "_lpPair",
          "type": "address"
        }
      ],
      "name": "setlpPair",
      "outputs": [],
      "stateMutability": "nonpayable",
      "type": "function"
    },
    {
      "inputs": [],
      "name": "symbol",
      "outputs": [
        {
          "internalType": "string",
          "name": "",
          "type": "string"
        }
      ],
      "stateMutability": "view",
      "type": "function"
    },
    {
      "inputs": [],
      "name": "totalSupply",
      "outputs": [
        {
          "internalType": "uint256",
          "name": "",
          "type": "uint256"
        }
      ],
      "stateMutability": "view",
      "type": "function"
    },
    {
      "inputs": [
        {
          "internalType": "address",
          "name": "to",
          "type": "address"
        },
        {
          "internalType": "uint256",
          "name": "amount",
          "type": "uint256"
        }
      ],
      "name": "transfer",
      "outputs": [
        {
          "internalType": "bool",
          "name": "",
          "type": "bool"
        }
      ],
      "stateMutability": "nonpayable",
      "type": "function"
    },
    {
      "inputs": [
        {
          "internalType": "address",
          "name": "from",
          "type": "address"
        },
        {
          "internalType": "address",
          "name": "to",
          "type": "address"
        },
        {
          "internalType": "uint256",
          "name": "amount",
          "type": "uint256"
        }
      ],
      "name": "transferFrom",
      "outputs": [
        {
          "internalType": "bool",
          "name": "",
          "type": "bool"
        }
      ],
      "stateMutability": "nonpayable",
      "type": "function"
    },
    {
      "inputs": [
        {
          "internalType": "address",
          "name": "account",
          "type": "address"
        }
      ],
      "name": "transferOwnership",
      "outputs": [],
      "stateMutability": "nonpayable",
      "type": "function"
    },
    {
      "stateMutability": "payable",
      "type": "receive"
    }
  ],
  "bytecode": "0x608060405234801561001057600080fd5b50612af0806100206000396000f3fe608060405260043610620001cb5760003560e01c80638a8c523c11620000f5578063b9af85671162000090578063b9af8567146200059a578063c762819b14620005f3578063d203abb6146200060b578063dd62ed3e1462000630578063f005f2ca1462000655578063f2fde38b146200066c578063f72f863b14620006ad578063fa83cb5814620006d257600080fd5b80638a8c523c146200045b57806395d89b4114620004735780639d0014b1146200048b578063a22d483214620004af578063a457c2d714620004f7578063a9059cbb146200051c578063b119490e1462000541578063b62496f5146200056657600080fd5b806339509351116200016657806339509351146200033357806341cb87fc1462000358578063534c6bcb146200037d57806357e2669614620003a257806370a0823114620003cc5780637104ddb2146200040657806386f3f3cb146200041b578063893d20e8146200043b57600080fd5b806306fdde0314620001d8578063095ea7b3146200020857806318160ddd146200023e5780631c89382a146200025f5780631e293c1014620002a857806323b872dd14620002cc57806327a14fc214620002f1578063313ce567146200031557600080fd5b36620001d357005b600080fd5b348015620001e557600080fd5b50620001f0620006ec565b604051620001ff9190620018ca565b60405180910390f35b3480156200021557600080fd5b506200022d620002273660046200193b565b62000786565b6040519015158152602001620001ff565b3480156200024b57600080fd5b506035545b604051908152602001620001ff565b3480156200026c57600080fd5b50620002a66200027e3660046200196a565b606b80546001600160a01b0390921661010002610100600160a81b0319909216919091179055565b005b348015620002b557600080fd5b50620002a6620002c736600462001991565b606a55565b348015620002d957600080fd5b506200022d620002eb366004620019ab565b620007a0565b348015620002fe57600080fd5b50620002a66200031036600462001991565b606955565b3480156200032257600080fd5b5060405160128152602001620001ff565b3480156200034057600080fd5b506200022d620003523660046200193b565b620007c8565b3480156200036557600080fd5b50620002a6620003773660046200196a565b620007f0565b3480156200038a57600080fd5b50620002a66200039c36600462001a04565b6200084c565b348015620003af57600080fd5b50606c546001600160a01b03165b604051620001ff919062001a4e565b348015620003d957600080fd5b5062000250620003eb3660046200196a565b6001600160a01b031660009081526033602052604090205490565b3480156200041357600080fd5b5030620003bd565b3480156200042857600080fd5b506067546001600160a01b0316620003bd565b3480156200044857600080fd5b506065546001600160a01b0316620003bd565b3480156200046857600080fd5b50620002a6620008c8565b3480156200048057600080fd5b50620001f06200092b565b3480156200049857600080fd5b50620002a6620004aa36600462001991565b606855565b348015620004bc57600080fd5b50620002a6620004ce3660046200196a565b606780546001600160a01b039092166001600160a01b031990921682179055600052606d602052565b3480156200050457600080fd5b506200022d620005163660046200193b565b6200093c565b3480156200052957600080fd5b506200022d6200053b3660046200193b565b620009bd565b3480156200054e57600080fd5b50620002a66200056036600462001b0d565b620009cd565b3480156200057357600080fd5b506200022d620005853660046200196a565b606d6020526000908152604090205460ff1681565b348015620005a757600080fd5b50620002a6620005b93660046200196a565b606780546001600160a01b039092166001600160a01b0319909216821790556000908152606d60205260409020805460ff19166001179055565b3480156200060057600080fd5b50620003bd62000a63565b3480156200061857600080fd5b50620002a66200062a36600462001991565b62000a77565b3480156200063d57600080fd5b50620002506200064f36600462001b81565b62000bae565b3480156200066257600080fd5b5060685462000250565b3480156200067957600080fd5b50620002a66200068b3660046200196a565b606580546001600160a01b0319166001600160a01b0392909216919091179055565b348015620006ba57600080fd5b50620002a6620006cc3660046200196a565b62000bd9565b348015620006df57600080fd5b50606b5460ff166200022d565b606060368054620006fd9062001bbf565b80601f01602080910402602001604051908101604052809291908181526020018280546200072b9062001bbf565b80156200077c5780601f1062000750576101008083540402835291602001916200077c565b820191906000526020600020905b8154815290600101906020018083116200075e57829003601f168201915b5050505050905090565b6000336200079681858562000c42565b5060019392505050565b600033620007b085828562000d6a565b620007bd85858562000de5565b506001949350505050565b60003362000796818585620007de838362000bae565b620007ea919062001c11565b62000c42565b80604051620007ff9062001808565b6200080b919062001a4e565b604051809103906000f08015801562000828573d6000803e3d6000fd5b50606c80546001600160a01b0319166001600160a01b039290921691909117905550565b606b5460405163534c6bcb60e01b815261ffff80861660048301528085166024830152831660448201526101009091046001600160a01b03169063534c6bcb90606401600060405180830381600087803b158015620008aa57600080fd5b505af1158015620008bf573d6000803e3d6000fd5b50505050505050565b606b5460ff16156200091c5760405162461bcd60e51b815260206004820152601860248201527754726164696e6720616c726561647920656e61626c65642160401b60448201526064015b60405180910390fd5b606b805460ff19166001179055565b606060378054620006fd9062001bbf565b600033816200094c828662000bae565b905083811015620009ae5760405162461bcd60e51b815260206004820152602560248201527f45524332303a2064656372656173656420616c6c6f77616e63652062656c6f77604482015264207a65726f60d81b606482015260840162000913565b620007bd828686840362000c42565b6000336200079681858562000de5565b6000620009db600162000f58565b90508015620009f4576000805461ff0019166101001790555b62000a00848462000fed565b62000a0a62001027565b62000a16338362001128565b801562000a5d576000805461ff0019169055604051600181527f7f26b83ff96e1f2b6a682f133852f6798a09c465da95921460cefb38474024989060200160405180910390a15b50505050565b606b5461010090046001600160a01b031690565b600062000a8660028362001c2c565b606c5490915047906001600160a01b031663f7a7657630306040516001600160e01b031960e085901b1681526001600160a01b0392831660048201529116602482015260448101859052606401600060405180830381600087803b15801562000aee57600080fd5b505af115801562000b03573d6000803e3d6000fd5b505050506000814762000b17919062001c4f565b606c549091506001600160a01b031663cf6c62ea306065546001600160a01b03166040516001600160e01b031960e085901b1681526001600160a01b039283166004820152911660248201526044810186905260648101849052608401600060405180830381600087803b15801562000b8f57600080fd5b505af115801562000ba4573d6000803e3d6000fd5b5050505050505050565b6001600160a01b03918216600090815260346020908152604080832093909416825291909152205490565b606c5460405163f72f863b60e01b81526001600160a01b039091169063f72f863b9062000c0b90849060040162001a4e565b600060405180830381600087803b15801562000c2657600080fd5b505af115801562000c3b573d6000803e3d6000fd5b5050505050565b6001600160a01b03831662000ca65760405162461bcd60e51b8152602060048201526024808201527f45524332303a20617070726f76652066726f6d20746865207a65726f206164646044820152637265737360e01b606482015260840162000913565b6001600160a01b03821662000d095760405162461bcd60e51b815260206004820152602260248201527f45524332303a20617070726f766520746f20746865207a65726f206164647265604482015261737360f01b606482015260840162000913565b6001600160a01b0383811660008181526034602090815260408083209487168084529482529182902085905590518481527f8c5be1e5ebec7d5bd14f71427d1e84f3dd0314c0f7b2291e5b200ac8c7c3b925910160405180910390a3505050565b600062000d78848462000bae565b9050600019811462000a5d578181101562000dd65760405162461bcd60e51b815260206004820152601d60248201527f45524332303a20696e73756666696369656e7420616c6c6f77616e6365000000604482015260640162000913565b62000a5d848484840362000c42565b606c60009054906101000a90046001600160a01b03166001600160a01b031663cc9968996040518163ffffffff1660e01b8152600401602060405180830381865afa15801562000e39573d6000803e3d6000fd5b505050506040513d601f19601f8201168201806040525081019062000e5f919062001c69565b1562000e775762000e728383836200120d565b505050565b62000e838383620013e5565b1562000f4b57600062000e9630620003eb565b606c549091506001600160a01b0316632c4a73613061271062000ebb85600c62001c8d565b62000ec7919062001c2c565b6040516001600160e01b031960e085901b1681526001600160a01b0390921660048301526024820152604401600060405180830381600087803b15801562000f0e57600080fd5b505af115801562000f23573d6000803e3d6000fd5b5050505062000f4961271082607b62000f3d919062001c8d565b6200062a919062001c2c565b505b62000e72838383620015d6565b60008054610100900460ff161562000fa4578160ff16600114801562000f7d5750303b155b62000f9c5760405162461bcd60e51b8152600401620009139062001caf565b506000919050565b60005460ff80841691161062000fce5760405162461bcd60e51b8152600401620009139062001caf565b506000805460ff191660ff92909216919091179055600190565b919050565b600054610100900460ff16620010175760405162461bcd60e51b8152600401620009139062001cfd565b620010238282620017b3565b5050565b6000196069819055606a55683635c9adc5dea00000606855606580546001600160a01b0319908116331790915560668054821661dead179055606780549091169055604051620010779062001816565b604051809103906000f08015801562001094573d6000803e3d6000fd5b50606b60016101000a8154816001600160a01b0302191690836001600160a01b03160217905550620010c562000a63565b606554604051636612e66f60e01b81526001600160a01b03918216600482015260016024820152911690636612e66f90604401600060405180830381600087803b1580156200111357600080fd5b505af115801562000a5d573d6000803e3d6000fd5b6001600160a01b038216620011805760405162461bcd60e51b815260206004820152601f60248201527f45524332303a206d696e7420746f20746865207a65726f206164647265737300604482015260640162000913565b806035600082825462001194919062001c11565b90915550506001600160a01b03821660009081526033602052604081208054839290620011c390849062001c11565b90915550506040518181526001600160a01b038316906000907fddf252ad1be2c89b69c2b068fc378daa952ba7f163c4a11628f55a4df523b3ef9060200160405180910390a35050565b6001600160a01b038316620012735760405162461bcd60e51b815260206004820152602560248201527f45524332303a207472616e736665722066726f6d20746865207a65726f206164604482015264647265737360d81b606482015260840162000913565b6001600160a01b038216620012d75760405162461bcd60e51b815260206004820152602360248201527f45524332303a207472616e7366657220746f20746865207a65726f206164647260448201526265737360e81b606482015260840162000913565b6001600160a01b03831660009081526033602052604090205481811015620013515760405162461bcd60e51b815260206004820152602660248201527f45524332303a207472616e7366657220616d6f756e7420657863656564732062604482015265616c616e636560d01b606482015260840162000913565b6001600160a01b038085166000908152603360205260408082208585039055918516815290812080548492906200138a90849062001c11565b92505081905550826001600160a01b0316846001600160a01b03167fddf252ad1be2c89b69c2b068fc378daa952ba7f163c4a11628f55a4df523b3ef84604051620013d791815260200190565b60405180910390a362000a5d565b600080620013f330620003eb565b9050620013ff60685490565b8110158015620014865750606c60009054906101000a90046001600160a01b03166001600160a01b031663cc9968996040518163ffffffff1660e01b8152600401602060405180830381865afa1580156200145e573d6000803e3d6000fd5b505050506040513d601f19601f8201168201806040525081019062001484919062001c69565b155b8015620014a157506067546001600160a01b03858116911614155b8015620014c457506000620014c2620003eb6067546001600160a01b031690565b115b8015620015495750620014d662000a63565b6001600160a01b0316635342acb4846040518263ffffffff1660e01b815260040162001503919062001a4e565b602060405180830381865afa15801562001521573d6000803e3d6000fd5b505050506040513d601f19601f8201168201806040525081019062001547919062001c69565b155b8015620015ce57506200155b62000a63565b6001600160a01b0316635342acb4856040518263ffffffff1660e01b815260040162001588919062001a4e565b602060405180830381865afa158015620015a6573d6000803e3d6000fd5b505050506040513d601f19601f82011682018060405250810190620015cc919062001c69565b155b949350505050565b8060006001620015e562000a63565b6001600160a01b0316635342acb4876040518263ffffffff1660e01b815260040162001612919062001a4e565b602060405180830381865afa15801562001630573d6000803e3d6000fd5b505050506040513d601f19601f8201168201806040525081019062001656919062001c69565b80620016d857506200166762000a63565b6001600160a01b0316635342acb4866040518263ffffffff1660e01b815260040162001694919062001a4e565b602060405180830381865afa158015620016b2573d6000803e3d6000fd5b505050506040513d601f19601f82011682018060405250810190620016d8919062001c69565b15620016e2575060005b80156200179e57620016f362000a63565b606754604051633dcaefb160e21b81526001600160a01b039182166004820152888216602482015287821660448201526064810187905291169063f72bbec490608401602060405180830381865afa15801562001754573d6000803e3d6000fd5b505050506040513d601f19601f820116820180604052508101906200177a919062001d48565b915081156200179e576200178f828562001c4f565b92506200179e8630846200120d565b620017ab8686856200120d565b505050505050565b600054610100900460ff16620017dd5760405162461bcd60e51b8152600401620009139062001cfd565b8151620017f290603690602085019062001824565b50805162000e7290603790602084019062001824565b6109368062001d6383390190565b610422806200269983390190565b828054620018329062001bbf565b90600052602060002090601f016020900481019282620018565760008555620018a1565b82601f106200187157805160ff1916838001178555620018a1565b82800160010185558215620018a1579182015b82811115620018a157825182559160200191906001019062001884565b50620018af929150620018b3565b5090565b5b80821115620018af5760008155600101620018b4565b600060208083528351808285015260005b81811015620018f957858101830151858201604001528201620018db565b818111156200190c576000604083870101525b50601f01601f1916929092016040019392505050565b6001600160a01b03811681146200193857600080fd5b50565b600080604083850312156200194f57600080fd5b82356200195c8162001922565b946020939093013593505050565b6000602082840312156200197d57600080fd5b81356200198a8162001922565b9392505050565b600060208284031215620019a457600080fd5b5035919050565b600080600060608486031215620019c157600080fd5b8335620019ce8162001922565b92506020840135620019e08162001922565b929592945050506040919091013590565b803561ffff8116811462000fe857600080fd5b60008060006060848603121562001a1a57600080fd5b62001a2584620019f1565b925062001a3560208501620019f1565b915062001a4560408501620019f1565b90509250925092565b6001600160a01b0391909116815260200190565b634e487b7160e01b600052604160045260246000fd5b600082601f83011262001a8a57600080fd5b813567ffffffffffffffff8082111562001aa85762001aa862001a62565b604051601f8301601f19908116603f0116810190828211818310171562001ad35762001ad362001a62565b8160405283815286602085880101111562001aed57600080fd5b836020870160208301376000602085830101528094505050505092915050565b60008060006060848603121562001b2357600080fd5b833567ffffffffffffffff8082111562001b3c57600080fd5b62001b4a8783880162001a78565b9450602086013591508082111562001b6157600080fd5b5062001b708682870162001a78565b925050604084013590509250925092565b6000806040838503121562001b9557600080fd5b823562001ba28162001922565b9150602083013562001bb48162001922565b809150509250929050565b600181811c9082168062001bd457607f821691505b60208210810362001bf557634e487b7160e01b600052602260045260246000fd5b50919050565b634e487b7160e01b600052601160045260246000fd5b6000821982111562001c275762001c2762001bfb565b500190565b60008262001c4a57634e487b7160e01b600052601260045260246000fd5b500490565b60008282101562001c645762001c6462001bfb565b500390565b60006020828403121562001c7c57600080fd5b815180151581146200198a57600080fd5b600081600019048311821515161562001caa5762001caa62001bfb565b500290565b6020808252602e908201527f496e697469616c697a61626c653a20636f6e747261637420697320616c72656160408201526d191e481a5b9a5d1a585b1a5e995960921b606082015260800190565b6020808252602b908201527f496e697469616c697a61626c653a20636f6e7472616374206973206e6f74206960408201526a6e697469616c697a696e6760a81b606082015260800190565b60006020828403121562001d5b57600080fd5b505191905056fe608060405234801561001057600080fd5b5060405161093638038061093683398101604081905261002f91610061565b600080546001600160a01b039092166001600160a01b031992831617905561a869600255600180549091169055610091565b60006020828403121561007357600080fd5b81516001600160a01b038116811461008a57600080fd5b9392505050565b610896806100a06000396000f3fe608060405234801561001057600080fd5b50600436106100785760003560e01c8063197e8da91461007d5780632c4a7361146100ad57806385954d8c146100c2578063b9c55241146100c2578063cc996899146100d3578063cf6c62ea146100f0578063f72f863b14610103578063f7a7657614610133575b600080fd5b61009061008b36600461064b565b610146565b6040516001600160a01b0390911681526020015b60405180910390f35b6100c06100bb366004610680565b610202565b005b6000546001600160a01b0316610090565b600154600160a01b900460ff1660405190151581526020016100a4565b6100c06100fe3660046106aa565b6103ae565b6100c06101113660046106ec565b600080546001600160a01b0319166001600160a01b0392909216919091179055565b6100c061014136600461070e565b6104e2565b600073ae13d989dac2f0debff460ac112a837c89baa7cd6061839003610181575073ae13d989dac2f0debff460ac112a837c89baa7cd6101e6565b826061036101a4575073ae13d989dac2f0debff460ac112a837c89baa7cd6101e6565b60405162461bcd60e51b8152602060048201526013602482015272756e737570706f72746564206e6574776f726b60681b604482015260640160405180910390fd5b5073ae13d989dac2f0debff460ac112a837c89baa7cd92915050565b604080516003808252608082019092526000916020820160608036833701905050905030816000815181106102395761023961074a565b60200260200101906001600160a01b031690816001600160a01b031681525050610264600254610146565b816001815181106102775761027761074a565b6001600160a01b0392831660209182029290920101526001548251911690829060029081106102a8576102a861074a565b6001600160a01b03928316602091820292909201015260015460005460405163095ea7b360e01b81529183169263095ea7b3926102ef929091169060001990600401610760565b6020604051808303816000875af115801561030e573d6000803e3d6000fd5b505050506040513d601f19601f820116820180604052508101906103329190610779565b50600080546001600160a01b031690635c11d7959084908487610357426103e861079b565b6040518663ffffffff1660e01b81526004016103779594939291906107c1565b600060405180830381600087803b15801561039157600080fd5b505af11580156103a5573d6000803e3d6000fd5b50505050505050565b60005460405163095ea7b360e01b81526001600160a01b038681169263095ea7b3926103e4929091169060001990600401610760565b6020604051808303816000875af1158015610403573d6000803e3d6000fd5b505050506040513d601f19601f820116820180604052508101906104279190610779565b50600080546001600160a01b03169063f305d7199083903090869080896104504261271061079b565b60405160e089901b6001600160e01b03191681526001600160a01b039687166004820152602481019590955260448501939093526064840191909152909216608482015260a481019190915260c40160606040518083038185885af11580156104bd573d6000803e3d6000fd5b50505050506040513d601f19601f820116820180604052508101906103a59190610832565b60408051600280825260608201835260009260208301908036833701905050905083816000815181106105175761051761074a565b60200260200101906001600160a01b031690816001600160a01b031681525050610542600254610146565b816001815181106105555761055561074a565b6001600160a01b03928316602091820292909201015260005460405163095ea7b360e01b81528683169263095ea7b3926105989291169060001990600401610760565b6020604051808303816000875af11580156105b7573d6000803e3d6000fd5b505050506040513d601f19601f820116820180604052508101906105db9190610779565b506000805460405163791ac94760e01b81526001600160a01b039091169163791ac947916106139186918690899042906004016107c1565b600060405180830381600087803b15801561062d57600080fd5b505af1158015610641573d6000803e3d6000fd5b5050505050505050565b60006020828403121561065d57600080fd5b5035919050565b80356001600160a01b038116811461067b57600080fd5b919050565b6000806040838503121561069357600080fd5b61069c83610664565b946020939093013593505050565b600080600080608085870312156106c057600080fd5b6106c985610664565b93506106d760208601610664565b93969395505050506040820135916060013590565b6000602082840312156106fe57600080fd5b61070782610664565b9392505050565b60008060006060848603121561072357600080fd5b61072c84610664565b925061073a60208501610664565b9150604084013590509250925092565b634e487b7160e01b600052603260045260246000fd5b6001600160a01b03929092168252602082015260400190565b60006020828403121561078b57600080fd5b8151801515811461070757600080fd5b600082198211156107bc57634e487b7160e01b600052601160045260246000fd5b500190565b600060a082018783526020878185015260a0604085015281875180845260c086019150828901935060005b818110156108115784516001600160a01b0316835293830193918301916001016107ec565b50506001600160a01b03969096166060850152505050608001529392505050565b60008060006060848603121561084757600080fd5b835192506020840151915060408401519050925092509256fea2646970667358221220a88d7b47a68e511a4269462a304b01da97c362254671498106da7a374ca3d1cc64736f6c634300080e0033608060405234801561001057600080fd5b50612710600155604080516060810182526000808252602082018190529101819052805465ffffffffffff191690556103d48061004e6000396000f3fe608060405234801561001057600080fd5b506004361061004c5760003560e01c80635342acb414610051578063534c6bcb146100795780636612e66f146100c8578063f72bbec414610101575b600080fd5b61006461005f366004610231565b610122565b60405190151581526020015b60405180910390f35b6100c6610087366004610265565b6000805461ffff94851663ffffffff199091161762010000938516939093029290921765ffff0000000019166401000000009190931602919091179055565b005b6100c66100d63660046102a8565b6001600160a01b03919091166000908152600260205260409020805460ff1916911515919091179055565b61011461010f3660046102e4565b610140565b604051908152602001610070565b6001600160a01b031660009081526002602052604090205460ff1690565b6000808061014d86610122565b8061015c575061015c85610122565b1561016c5760009250505061020d565b866001600160a01b0316866001600160a01b03160361019d576000546101969061ffff1683610345565b91506101e9565b866001600160a01b0316856001600160a01b0316036101cd576000546101969062010000900461ffff1683610345565b6000546101e690640100000000900461ffff1683610345565b91505b8115610209576001546101fc838661035d565b610206919061037c565b90505b9150505b949350505050565b80356001600160a01b038116811461022c57600080fd5b919050565b60006020828403121561024357600080fd5b61024c82610215565b9392505050565b803561ffff8116811461022c57600080fd5b60008060006060848603121561027a57600080fd5b61028384610253565b925061029160208501610253565b915061029f60408501610253565b90509250925092565b600080604083850312156102bb57600080fd5b6102c483610215565b9150602083013580151581146102d957600080fd5b809150509250929050565b600080600080608085870312156102fa57600080fd5b61030385610215565b935061031160208601610215565b925061031f60408601610215565b9396929550929360600135925050565b634e487b7160e01b600052601160045260246000fd5b600082198211156103585761035861032f565b500190565b60008160001904831182151516156103775761037761032f565b500290565b60008261039957634e487b7160e01b600052601260045260246000fd5b50049056fea264697066735822122016ca32c9bd1258a79bf3048a94dc322a50117627cc50e1e5511beef1c2978d4064736f6c634300080e0033a26469706673582212206c870e87b54da519fde6e200c0e7c82e81ab7240548d3b33b5c8d60cf2f468ee64736f6c634300080e0033",
  "linkReferences": {},
  "deployedLinkReferences": {}
}