{
  "_format": "hh-sol-artifact-1",
  "contractName": "MetaStocks",
  "sourceName": "contracts/MetaStocks.sol",
  "abi": [
    {
      "anonymous": false,
      "inputs": [
        {
          "indexed": true,
          "internalType": "address",
          "name": "owner",
          "type": "address"
        },
        {
          "indexed": true,
          "internalType": "address",
          "name": "spender",
          "type": "address"
        },
        {
          "indexed": false,
          "internalType": "uint256",
          "name": "value",
          "type": "uint256"
        }
      ],
      "name": "Approval",
      "type": "event"
    },
    {
      "anonymous": false,
      "inputs": [
        {
          "indexed": true,
          "internalType": "address",
          "name": "sender",
          "type": "address"
        },
        {
          "indexed": false,
          "internalType": "uint256",
          "name": "amount",
          "type": "uint256"
        }
      ],
      "name": "Burn",
      "type": "event"
    },
    {
      "anonymous": false,
      "inputs": [
        {
          "indexed": false,
          "internalType": "uint8",
          "name": "version",
          "type": "uint8"
        }
      ],
      "name": "Initialized",
      "type": "event"
    },
    {
      "anonymous": false,
      "inputs": [
        {
          "indexed": true,
          "internalType": "address",
          "name": "previousOwner",
          "type": "address"
        },
        {
          "indexed": true,
          "internalType": "address",
          "name": "newOwner",
          "type": "address"
        }
      ],
      "name": "OwnershipTransferred",
      "type": "event"
    },
    {
      "anonymous": false,
      "inputs": [
        {
          "indexed": true,
          "internalType": "address",
          "name": "from",
          "type": "address"
        },
        {
          "indexed": true,
          "internalType": "address",
          "name": "to",
          "type": "address"
        },
        {
          "indexed": false,
          "internalType": "uint256",
          "name": "value",
          "type": "uint256"
        }
      ],
      "name": "Transfer",
      "type": "event"
    },
    {
      "inputs": [
        {
          "internalType": "address",
          "name": "owner",
          "type": "address"
        },
        {
          "internalType": "address",
          "name": "spender",
          "type": "address"
        }
      ],
      "name": "allowance",
      "outputs": [
        {
          "internalType": "uint256",
          "name": "",
          "type": "uint256"
        }
      ],
      "stateMutability": "view",
      "type": "function"
    },
    {
      "inputs": [
        {
          "internalType": "address",
          "name": "spender",
          "type": "address"
        },
        {
          "internalType": "uint256",
          "name": "amount",
          "type": "uint256"
        }
      ],
      "name": "approve",
      "outputs": [
        {
          "internalType": "bool",
          "name": "",
          "type": "bool"
        }
      ],
      "stateMutability": "nonpayable",
      "type": "function"
    },
    {
      "inputs": [
        {
          "internalType": "uint256",
          "name": "tokenAmount",
          "type": "uint256"
        }
      ],
      "name": "autoInjectLiquidity",
      "outputs": [],
      "stateMutability": "nonpayable",
      "type": "function"
    },
    {
      "inputs": [
        {
          "internalType": "address",
          "name": "",
          "type": "address"
        }
      ],
      "name": "automatedMarketMakerPairs",
      "outputs": [
        {
          "internalType": "bool",
          "name": "",
          "type": "bool"
        }
      ],
      "stateMutability": "view",
      "type": "function"
    },
    {
      "inputs": [
        {
          "internalType": "address",
          "name": "account",
          "type": "address"
        }
      ],
      "name": "balanceOf",
      "outputs": [
        {
          "internalType": "uint256",
          "name": "",
          "type": "uint256"
        }
      ],
      "stateMutability": "view",
      "type": "function"
    },
    {
      "inputs": [],
      "name": "decimals",
      "outputs": [
        {
          "internalType": "uint8",
          "name": "",
          "type": "uint8"
        }
      ],
      "stateMutability": "view",
      "type": "function"
    },
    {
      "inputs": [
        {
          "internalType": "address",
          "name": "spender",
          "type": "address"
        },
        {
          "internalType": "uint256",
          "name": "subtractedValue",
          "type": "uint256"
        }
      ],
      "name": "decreaseAllowance",
      "outputs": [
        {
          "internalType": "bool",
          "name": "",
          "type": "bool"
        }
      ],
      "stateMutability": "nonpayable",
      "type": "function"
    },
    {
      "inputs": [],
      "name": "enableTrading",
      "outputs": [],
      "stateMutability": "nonpayable",
      "type": "function"
    },
    {
      "inputs": [],
      "name": "getDexRouterManager",
      "outputs": [
        {
          "internalType": "contract DexRouterManager",
          "name": "",
          "type": "address"
        }
      ],
      "stateMutability": "view",
      "type": "function"
    },
    {
      "inputs": [],
      "name": "getFeesManager",
      "outputs": [
        {
          "internalType": "contract FeesManager",
          "name": "",
          "type": "address"
        }
      ],
      "stateMutability": "view",
      "type": "function"
    },
    {
      "inputs": [],
      "name": "getLPPair",
      "outputs": [
        {
          "internalType": "address",
          "name": "",
          "type": "address"
        }
      ],
      "stateMutability": "view",
      "type": "function"
    },
    {
      "inputs": [],
      "name": "getOwner",
      "outputs": [
        {
          "internalType": "address",
          "name": "",
          "type": "address"
        }
      ],
      "stateMutability": "view",
      "type": "function"
    },
    {
      "inputs": [],
      "name": "getSwapThreshold",
      "outputs": [
        {
          "internalType": "uint256",
          "name": "",
          "type": "uint256"
        }
      ],
      "stateMutability": "view",
      "type": "function"
    },
    {
      "inputs": [],
      "name": "getTradingEnabled",
      "outputs": [
        {
          "internalType": "bool",
          "name": "",
          "type": "bool"
        }
      ],
      "stateMutability": "view",
      "type": "function"
    },
    {
      "inputs": [
        {
          "internalType": "address",
          "name": "spender",
          "type": "address"
        },
        {
          "internalType": "uint256",
          "name": "addedValue",
          "type": "uint256"
        }
      ],
      "name": "increaseAllowance",
      "outputs": [
        {
          "internalType": "bool",
          "name": "",
          "type": "bool"
        }
      ],
      "stateMutability": "nonpayable",
      "type": "function"
    },
    {
      "inputs": [
        {
          "internalType": "string",
          "name": "_name",
          "type": "string"
        },
        {
          "internalType": "string",
          "name": "_symbol",
          "type": "string"
        }
      ],
      "name": "initialize",
      "outputs": [],
      "stateMutability": "nonpayable",
      "type": "function"
    },
    {
      "inputs": [],
      "name": "initialize",
      "outputs": [],
      "stateMutability": "nonpayable",
      "type": "function"
    },
    {
      "inputs": [],
      "name": "name",
      "outputs": [
        {
          "internalType": "string",
          "name": "",
          "type": "string"
        }
      ],
      "stateMutability": "view",
      "type": "function"
    },
    {
      "inputs": [],
      "name": "self",
      "outputs": [
        {
          "internalType": "address",
          "name": "",
          "type": "address"
        }
      ],
      "stateMutability": "view",
      "type": "function"
    },
    {
      "inputs": [],
      "name": "setDeadAddress",
      "outputs": [],
      "stateMutability": "nonpayable",
      "type": "function"
    },
    {
      "inputs": [
        {
          "internalType": "uint16",
          "name": "buyFee",
          "type": "uint16"
        },
        {
          "internalType": "uint16",
          "name": "sellFee",
          "type": "uint16"
        },
        {
          "internalType": "uint16",
          "name": "transferFee",
          "type": "uint16"
        }
      ],
      "name": "setFees",
      "outputs": [],
      "stateMutability": "nonpayable",
      "type": "function"
    },
    {
      "inputs": [
        {
          "internalType": "contract FeesManager",
          "name": "_feesManager",
          "type": "address"
        }
      ],
      "name": "setFeesManager",
      "outputs": [],
      "stateMutability": "nonpayable",
      "type": "function"
    },
    {
      "inputs": [
        {
          "internalType": "uint256",
          "name": "_maxTransactionAmount",
          "type": "uint256"
        }
      ],
      "name": "setMaxTransactionAmount",
      "outputs": [],
      "stateMutability": "nonpayable",
      "type": "function"
    },
    {
      "inputs": [
        {
          "internalType": "uint256",
          "name": "_maxWalletAmount",
          "type": "uint256"
        }
      ],
      "name": "setMaxWalletAmount",
      "outputs": [],
      "stateMutability": "nonpayable",
      "type": "function"
    },
    {
      "inputs": [
        {
          "internalType": "uint256",
          "name": "_swapThreshold",
          "type": "uint256"
        }
      ],
      "name": "setSwapThreshold",
      "outputs": [],
      "stateMutability": "nonpayable",
      "type": "function"
    },
    {
      "inputs": [],
      "name": "symbol",
      "outputs": [
        {
          "internalType": "string",
          "name": "",
          "type": "string"
        }
      ],
      "stateMutability": "view",
      "type": "function"
    },
    {
      "inputs": [],
      "name": "totalSupply",
      "outputs": [
        {
          "internalType": "uint256",
          "name": "",
          "type": "uint256"
        }
      ],
      "stateMutability": "view",
      "type": "function"
    },
    {
      "inputs": [
        {
          "internalType": "address",
          "name": "to",
          "type": "address"
        },
        {
          "internalType": "uint256",
          "name": "amount",
          "type": "uint256"
        }
      ],
      "name": "transfer",
      "outputs": [
        {
          "internalType": "bool",
          "name": "",
          "type": "bool"
        }
      ],
      "stateMutability": "nonpayable",
      "type": "function"
    },
    {
      "inputs": [
        {
          "internalType": "address",
          "name": "from",
          "type": "address"
        },
        {
          "internalType": "address",
          "name": "to",
          "type": "address"
        },
        {
          "internalType": "uint256",
          "name": "amount",
          "type": "uint256"
        }
      ],
      "name": "transferFrom",
      "outputs": [
        {
          "internalType": "bool",
          "name": "",
          "type": "bool"
        }
      ],
      "stateMutability": "nonpayable",
      "type": "function"
    },
    {
      "inputs": [
        {
          "internalType": "address",
          "name": "account",
          "type": "address"
        }
      ],
      "name": "transferOwnership",
      "outputs": [],
      "stateMutability": "nonpayable",
      "type": "function"
    },
    {
      "stateMutability": "payable",
      "type": "receive"
    }
  ],
  "bytecode": "0x608060405234801561001057600080fd5b50612d69806100206000396000f3fe608060405260043610620001b35760003560e01c806381fd3b0011620000e9578063a9059cbb1162000090578063a9059cbb14620004c7578063b62496f514620004ec578063c762819b1462000520578063d203abb61462000538578063dd62ed3e146200055d578063f005f2ca1462000582578063f2fde38b1462000599578063fa83cb5814620005be57600080fd5b806381fd3b0014620003f657806386f3f3cb146200040e578063893d20e8146200042e5780638a8c523c146200044e57806395d89b4114620004665780639d0014b1146200047e578063a457c2d714620004a257600080fd5b8063313ce567116200015a578063313ce56714620002db5780633950935114620002f95780633da77333146200031e5780634cd88b761462000345578063534c6bcb146200036a57806370a08231146200038f5780637104ddb214620003c95780638129fc1c14620003de57600080fd5b806306fdde0314620001c0578063095ea7b314620001f057806318160ddd14620002265780631c89382a14620002475780631e293c10146200026e57806323b872dd146200029257806327a14fc214620002b757600080fd5b36620001bb57005b600080fd5b348015620001cd57600080fd5b50620001d8620005d8565b604051620001e7919062001d7e565b60405180910390f35b348015620001fd57600080fd5b50620002156200020f36600462001dec565b62000672565b6040519015158152602001620001e7565b3480156200023357600080fd5b506035545b604051908152602001620001e7565b3480156200025457600080fd5b506200026c6200026636600462001e1b565b6200068c565b005b3480156200027b57600080fd5b506200026c6200028d36600462001e42565b606a55565b3480156200029f57600080fd5b5062000215620002b136600462001e5c565b620006b4565b348015620002c457600080fd5b506200026c620002d636600462001e42565b606955565b348015620002e857600080fd5b5060405160128152602001620001e7565b3480156200030657600080fd5b50620002156200031836600462001dec565b620006dc565b3480156200032b57600080fd5b506200033662000704565b604051620001e7919062001ea2565b3480156200035257600080fd5b506200026c6200036436600462001f61565b62000713565b3480156200037757600080fd5b506200026c6200038936600462001fdf565b6200079c565b3480156200039c57600080fd5b5062000238620003ae36600462001e1b565b6001600160a01b031660009081526033602052604090205490565b348015620003d657600080fd5b503062000336565b348015620003eb57600080fd5b506200026c6200084e565b3480156200040357600080fd5b506200026c62000908565b3480156200041b57600080fd5b506067546001600160a01b031662000336565b3480156200043b57600080fd5b506065546001600160a01b031662000336565b3480156200045b57600080fd5b506200026c6200094b565b3480156200047357600080fd5b50620001d8620009d7565b3480156200048b57600080fd5b506200026c6200049d36600462001e42565b606855565b348015620004af57600080fd5b5062000215620004c136600462001dec565b620009e8565b348015620004d457600080fd5b5062000215620004e636600462001dec565b62000a69565b348015620004f957600080fd5b50620002156200050b36600462001e1b565b606d6020526000908152604090205460ff1681565b3480156200052d57600080fd5b506200033662000a79565b3480156200054557600080fd5b506200026c6200055736600462001e42565b62000a8d565b3480156200056a57600080fd5b50620002386200057c36600462002029565b62000bbb565b3480156200058f57600080fd5b5060685462000238565b348015620005a657600080fd5b506200026c620005b836600462001e1b565b62000be6565b348015620005cb57600080fd5b50606b5460ff1662000215565b606060368054620005e99062002067565b80601f0160208091040260200160405190810160405280929190818152602001828054620006179062002067565b8015620006685780601f106200063c5761010080835404028352916020019162000668565b820191906000526020600020905b8154815290600101906020018083116200064a57829003601f168201915b5050505050905090565b6000336200068281858562000c35565b5060019392505050565b606b80546001600160a01b0390921661010002610100600160a81b0319909216919091179055565b600033620006c485828562000d5d565b620006d185858562000dde565b506001949350505050565b60003362000682818585620006f2838362000bbb565b620006fe9190620020b9565b62000c35565b606c546001600160a01b031690565b600062000721600162000f53565b905080156200073a576000805461ff0019166101001790555b62000746838362000fe8565b6200075062001022565b801562000797576000805461ff0019169055604051600181527f7f26b83ff96e1f2b6a682f133852f6798a09c465da95921460cefb38474024989060200160405180910390a15b505050565b6065546001600160a01b03163314620007d25760405162461bcd60e51b8152600401620007c990620020d4565b60405180910390fd5b606b5460405163534c6bcb60e01b815261ffff80861660048301528085166024830152831660448201526101009091046001600160a01b03169063534c6bcb90606401600060405180830381600087803b1580156200083057600080fd5b505af115801562000845573d6000803e3d6000fd5b50505050505050565b60006200085c600162000f53565b9050801562000875576000805461ff0019166101001790555b620008be6040518060400160405280600a8152602001694d65746153746f636b7360b01b815250604051806040016040528060038152602001621354d560ea1b81525062000713565b801562000905576000805461ff0019169055604051600181527f7f26b83ff96e1f2b6a682f133852f6798a09c465da95921460cefb38474024989060200160405180910390a15b50565b6065546001600160a01b03163314620009355760405162461bcd60e51b8152600401620007c990620020d4565b606680546001600160a01b03191661dead179055565b6065546001600160a01b03163314620009785760405162461bcd60e51b8152600401620007c990620020d4565b606b5460ff1615620009c85760405162461bcd60e51b815260206004820152601860248201527754726164696e6720616c726561647920656e61626c65642160401b6044820152606401620007c9565b606b805460ff19166001179055565b606060378054620005e99062002067565b60003381620009f8828662000bbb565b90508381101562000a5a5760405162461bcd60e51b815260206004820152602560248201527f45524332303a2064656372656173656420616c6c6f77616e63652062656c6f77604482015264207a65726f60d81b6064820152608401620007c9565b620006d1828686840362000c35565b6000336200068281858562000dde565b606b5461010090046001600160a01b031690565b600062000a9c60028362002109565b90504762000aa962000704565b6001600160a01b031663f7a765763030856040518463ffffffff1660e01b815260040162000ada939291906200212c565b600060405180830381600087803b15801562000af557600080fd5b505af115801562000b0a573d6000803e3d6000fd5b505050506000814762000b1e919062002150565b905062000b2a62000704565b6001600160a01b031663cf6c62ea306065546001600160a01b03166040516001600160e01b031960e085901b1681526001600160a01b039283166004820152911660248201526044810186905260648101849052608401600060405180830381600087803b15801562000b9c57600080fd5b505af115801562000bb1573d6000803e3d6000fd5b5050505050505050565b6001600160a01b03918216600090815260346020908152604080832093909416825291909152205490565b6065546001600160a01b0316331462000c135760405162461bcd60e51b8152600401620007c990620020d4565b606580546001600160a01b0319166001600160a01b0392909216919091179055565b6001600160a01b03831662000c995760405162461bcd60e51b8152602060048201526024808201527f45524332303a20617070726f76652066726f6d20746865207a65726f206164646044820152637265737360e01b6064820152608401620007c9565b6001600160a01b03821662000cfc5760405162461bcd60e51b815260206004820152602260248201527f45524332303a20617070726f766520746f20746865207a65726f206164647265604482015261737360f01b6064820152608401620007c9565b6001600160a01b0383811660008181526034602090815260408083209487168084529482529182902085905590518481527f8c5be1e5ebec7d5bd14f71427d1e84f3dd0314c0f7b2291e5b200ac8c7c3b925910160405180910390a3505050565b600062000d6b848462000bbb565b9050600019811462000dd8578181101562000dc95760405162461bcd60e51b815260206004820152601d60248201527f45524332303a20696e73756666696369656e7420616c6c6f77616e63650000006044820152606401620007c9565b62000dd8848484840362000c35565b50505050565b62000deb838383620010fb565b62000df562000704565b6001600160a01b031663cc9968996040518163ffffffff1660e01b8152600401602060405180830381865afa15801562000e33573d6000803e3d6000fd5b505050506040513d601f19601f8201168201806040525081019062000e5991906200216a565b1562000e6c576200079783838362001362565b62000e7883836200153a565b1562000f4657600062000e8b30620003ae565b905062000e9762000704565b6001600160a01b0316632c4a73613061271062000eb685600c6200218e565b62000ec2919062002109565b6040516001600160e01b031960e085901b1681526001600160a01b0390921660048301526024820152604401600060405180830381600087803b15801562000f0957600080fd5b505af115801562000f1e573d6000803e3d6000fd5b5050505062000f4461271082607b62000f3891906200218e565b62000557919062002109565b505b620007978383836200171f565b60008054610100900460ff161562000f9f578160ff16600114801562000f785750303b155b62000f975760405162461bcd60e51b8152600401620007c990620021b0565b506000919050565b60005460ff80841691161062000fc95760405162461bcd60e51b8152600401620007c990620021b0565b506000805460ff191660ff92909216919091179055600190565b919050565b600054610100900460ff16620010125760405162461bcd60e51b8152600401620007c990620021fe565b6200101e828262001862565b5050565b6200102c620018b7565b62001036620018cc565b62001055739ac64cc6e4415144c455bd8e4837fea55603e5c362001902565b620010d8306200106462000704565b60405163197e8da960e01b8152606160048201526001600160a01b03919091169063197e8da990602401602060405180830381865afa158015620010ac573d6000803e3d6000fd5b505050506040513d601f19601f82011682018060405250810190620010d2919062002249565b620019a4565b620010e262001b4c565b620010f9336a52b7d2dcc80cd2e400000062001bd7565b565b6001600160a01b038316620011695760405162461bcd60e51b815260206004820152602d60248201527f45524332303a207472616e736665722066726f6d20746865205a45524f5f414460448201526c4452455353206164647265737360981b6064820152608401620007c9565b6001600160a01b038216620011d55760405162461bcd60e51b815260206004820152602b60248201527f45524332303a207472616e7366657220746f20746865205a45524f5f4144445260448201526a455353206164647265737360a81b6064820152608401620007c9565b60008111620012415760405162461bcd60e51b815260206004820152603160248201527f5472616e7366657220616d6f756e74206d7573742062652067726561746572206044820152707468616e205a45524f5f4144445245535360781b6064820152608401620007c9565b6065546001600160a01b038481169116148015906200126e57506065546001600160a01b03838116911614155b80156200128357506001600160a01b03821615155b80156200129b57506001600160a01b03821661dead14155b8015620013135750620012ad62000704565b6001600160a01b031663cc9968996040518163ffffffff1660e01b8152600401602060405180830381865afa158015620012eb573d6000803e3d6000fd5b505050506040513d601f19601f820116820180604052508101906200131191906200216a565b155b156200079757606b5460ff16620007975760405162461bcd60e51b815260206004820152601260248201527154726164696e67206e6f742061637469766560701b6044820152606401620007c9565b6001600160a01b038316620013c85760405162461bcd60e51b815260206004820152602560248201527f45524332303a207472616e736665722066726f6d20746865207a65726f206164604482015264647265737360d81b6064820152608401620007c9565b6001600160a01b0382166200142c5760405162461bcd60e51b815260206004820152602360248201527f45524332303a207472616e7366657220746f20746865207a65726f206164647260448201526265737360e81b6064820152608401620007c9565b6001600160a01b03831660009081526033602052604090205481811015620014a65760405162461bcd60e51b815260206004820152602660248201527f45524332303a207472616e7366657220616d6f756e7420657863656564732062604482015265616c616e636560d01b6064820152608401620007c9565b6001600160a01b03808516600090815260336020526040808220858503905591851681529081208054849290620014df908490620020b9565b92505081905550826001600160a01b0316846001600160a01b03167fddf252ad1be2c89b69c2b068fc378daa952ba7f163c4a11628f55a4df523b3ef846040516200152c91815260200190565b60405180910390a362000dd8565b6000806200154830620003ae565b90506200155460685490565b8110158015620015cf57506200156962000704565b6001600160a01b031663cc9968996040518163ffffffff1660e01b8152600401602060405180830381865afa158015620015a7573d6000803e3d6000fd5b505050506040513d601f19601f82011682018060405250810190620015cd91906200216a565b155b8015620015ea57506067546001600160a01b03858116911614155b80156200160d575060006200160b620003ae6067546001600160a01b031690565b115b80156200169257506200161f62000a79565b6001600160a01b0316635342acb4846040518263ffffffff1660e01b81526004016200164c919062001ea2565b602060405180830381865afa1580156200166a573d6000803e3d6000fd5b505050506040513d601f19601f820116820180604052508101906200169091906200216a565b155b8015620017175750620016a462000a79565b6001600160a01b0316635342acb4856040518263ffffffff1660e01b8152600401620016d1919062001ea2565b602060405180830381865afa158015620016ef573d6000803e3d6000fd5b505050506040513d601f19601f820116820180604052508101906200171591906200216a565b155b949350505050565b80600060016200172e62000a79565b6001600160a01b0316635342acb4876040518263ffffffff1660e01b81526004016200175b919062001ea2565b602060405180830381865afa15801562001779573d6000803e3d6000fd5b505050506040513d601f19601f820116820180604052508101906200179f91906200216a565b80620018215750620017b062000a79565b6001600160a01b0316635342acb4866040518263ffffffff1660e01b8152600401620017dd919062001ea2565b602060405180830381865afa158015620017fb573d6000803e3d6000fd5b505050506040513d601f19601f820116820180604052508101906200182191906200216a565b156200182b575060005b80156200184d576200183e828562002150565b92506200184d86308462001362565b6200185a86868562001362565b505050505050565b600054610100900460ff166200188c5760405162461bcd60e51b8152600401620007c990620021fe565b8151620018a190603690602085019062001cbc565b5080516200079790603790602084019062001cbc565b620018c23362000be6565b620010f962000908565b620010f9604051620018de9062001d4b565b604051809103906000f080158015620018fb573d6000803e3d6000fd5b506200068c565b6065546001600160a01b031633146200192f5760405162461bcd60e51b8152600401620007c990620020d4565b807378867bbeef44f2326bf8ddd1941a4439382ef2a76061604051620019559062001d59565b62001963939291906200212c565b604051809103906000f08015801562001980573d6000803e3d6000fd5b50606c80546001600160a01b0319166001600160a01b039290921691909117905550565b6065546001600160a01b03163314620019d15760405162461bcd60e51b8152600401620007c990620020d4565b606c60009054906101000a90046001600160a01b03166001600160a01b03166385954d8c6040518163ffffffff1660e01b8152600401602060405180830381865afa15801562001a25573d6000803e3d6000fd5b505050506040513d601f19601f8201168201806040525081019062001a4b919062002249565b6001600160a01b031663c45a01556040518163ffffffff1660e01b8152600401602060405180830381865afa15801562001a89573d6000803e3d6000fd5b505050506040513d601f19601f8201168201806040525081019062001aaf919062002249565b6040516364e329cb60e11b81526001600160a01b0384811660048301528381166024830152919091169063c9c65396906044016020604051808303816000875af115801562001b02573d6000803e3d6000fd5b505050506040513d601f19601f8201168201806040525081019062001b28919062002249565b606780546001600160a01b0319166001600160a01b03929092169190911790555050565b62001bc83362001b5b62000704565b6001600160a01b031663b9c552416040518163ffffffff1660e01b8152600401602060405180830381865afa15801562001b99573d6000803e3d6000fd5b505050506040513d601f19601f8201168201806040525081019062001bbf919062002249565b60001962000c35565b620010f93062001b5b62000704565b6001600160a01b03821662001c2f5760405162461bcd60e51b815260206004820152601f60248201527f45524332303a206d696e7420746f20746865207a65726f2061646472657373006044820152606401620007c9565b806035600082825462001c439190620020b9565b90915550506001600160a01b0382166000908152603360205260408120805483929062001c72908490620020b9565b90915550506040518181526001600160a01b038316906000907fddf252ad1be2c89b69c2b068fc378daa952ba7f163c4a11628f55a4df523b3ef9060200160405180910390a35050565b82805462001cca9062002067565b90600052602060002090601f01602090048101928262001cee576000855562001d39565b82601f1062001d0957805160ff191683800117855562001d39565b8280016001018555821562001d39579182015b8281111562001d3957825182559160200191906001019062001d1c565b5062001d4792915062001d67565b5090565b610261806200226a83390190565b61086980620024cb83390190565b5b8082111562001d47576000815560010162001d68565b600060208083528351808285015260005b8181101562001dad5785810183015185820160400152820162001d8f565b8181111562001dc0576000604083870101525b50601f01601f1916929092016040019392505050565b6001600160a01b03811681146200090557600080fd5b6000806040838503121562001e0057600080fd5b823562001e0d8162001dd6565b946020939093013593505050565b60006020828403121562001e2e57600080fd5b813562001e3b8162001dd6565b9392505050565b60006020828403121562001e5557600080fd5b5035919050565b60008060006060848603121562001e7257600080fd5b833562001e7f8162001dd6565b9250602084013562001e918162001dd6565b929592945050506040919091013590565b6001600160a01b0391909116815260200190565b634e487b7160e01b600052604160045260246000fd5b600082601f83011262001ede57600080fd5b813567ffffffffffffffff8082111562001efc5762001efc62001eb6565b604051601f8301601f19908116603f0116810190828211818310171562001f275762001f2762001eb6565b8160405283815286602085880101111562001f4157600080fd5b836020870160208301376000602085830101528094505050505092915050565b6000806040838503121562001f7557600080fd5b823567ffffffffffffffff8082111562001f8e57600080fd5b62001f9c8683870162001ecc565b9350602085013591508082111562001fb357600080fd5b5062001fc28582860162001ecc565b9150509250929050565b803561ffff8116811462000fe357600080fd5b60008060006060848603121562001ff557600080fd5b620020008462001fcc565b9250620020106020850162001fcc565b9150620020206040850162001fcc565b90509250925092565b600080604083850312156200203d57600080fd5b82356200204a8162001dd6565b915060208301356200205c8162001dd6565b809150509250929050565b600181811c908216806200207c57607f821691505b6020821081036200209d57634e487b7160e01b600052602260045260246000fd5b50919050565b634e487b7160e01b600052601160045260246000fd5b60008219821115620020cf57620020cf620020a3565b500190565b6020808252818101527f4f776e61626c653a2063616c6c6572206973206e6f7420746865206f776e6572604082015260600190565b6000826200212757634e487b7160e01b600052601260045260246000fd5b500490565b6001600160a01b039384168152919092166020820152604081019190915260600190565b600082821015620021655762002165620020a3565b500390565b6000602082840312156200217d57600080fd5b8151801515811462001e3b57600080fd5b6000816000190483118215151615620021ab57620021ab620020a3565b500290565b6020808252602e908201527f496e697469616c697a61626c653a20636f6e747261637420697320616c72656160408201526d191e481a5b9a5d1a585b1a5e995960921b606082015260800190565b6020808252602b908201527f496e697469616c697a61626c653a20636f6e7472616374206973206e6f74206960408201526a6e697469616c697a696e6760a81b606082015260800190565b6000602082840312156200225c57600080fd5b815162001e3b8162001dd656fe608060405234801561001057600080fd5b50612710600155604080516060810182526000808252602082018190529101819052805465ffffffffffff191690556102138061004e6000396000f3fe608060405234801561001057600080fd5b50600436106100415760003560e01c80635342acb414610046578063534c6bcb146100865780636612e66f146100d5575b600080fd5b61007261005436600461012a565b6001600160a01b031660009081526002602052604090205460ff1690565b604051901515815260200160405180910390f35b6100d361009436600461015e565b6000805461ffff94851663ffffffff199091161762010000938516939093029290921765ffff0000000019166401000000009190931602919091179055565b005b6100d36100e33660046101a1565b6001600160a01b03919091166000908152600260205260409020805460ff1916911515919091179055565b80356001600160a01b038116811461012557600080fd5b919050565b60006020828403121561013c57600080fd5b6101458261010e565b9392505050565b803561ffff8116811461012557600080fd5b60008060006060848603121561017357600080fd5b61017c8461014c565b925061018a6020850161014c565b91506101986040850161014c565b90509250925092565b600080604083850312156101b457600080fd5b6101bd8361010e565b9150602083013580151581146101d257600080fd5b80915050925092905056fea26469706673582212200907b4f6b3378c6269771c8b6de1a88296f0a43cf518a5b0596150ebd7c2d54064736f6c634300080e0033608060405234801561001057600080fd5b5060405161086938038061086983398101604081905261002f91610082565b600080546001600160a01b039485166001600160a01b031991821617909155600291909155600180549290931691161790556100be565b80516001600160a01b038116811461007d57600080fd5b919050565b60008060006060848603121561009757600080fd5b6100a084610066565b92506100ae60208501610066565b9150604084015190509250925092565b61079c806100cd6000396000f3fe608060405234801561001057600080fd5b506004361061006d5760003560e01c8063197e8da9146100725780632c4a7361146100b657806385954d8c146100cb578063b9c55241146100cb578063cc996899146100dc578063cf6c62ea146100f9578063f7a765761461010c575b600080fd5b61009961008036600461056c565b5073ae13d989dac2f0debff460ac112a837c89baa7cd90565b6040516001600160a01b0390911681526020015b60405180910390f35b6100c96100c43660046105a1565b61011f565b005b6000546001600160a01b0316610099565b600154600160a01b900460ff1660405190151581526020016100ad565b6100c96101073660046105cb565b6102cd565b6100c961011a36600461060d565b610401565b6040805160038082526080820190925260009160208201606080368337019050509050308160008151811061015657610156610649565b6001600160a01b039092166020928302919091019091015273ae13d989dac2f0debff460ac112a837c89baa7cd8160018151811061019657610196610649565b6001600160a01b0392831660209182029290920101526001548251911690829060029081106101c7576101c7610649565b6001600160a01b03928316602091820292909201015260015460005460405163095ea7b360e01b81529183169263095ea7b39261020e92909116906000199060040161065f565b6020604051808303816000875af115801561022d573d6000803e3d6000fd5b505050506040513d601f19601f820116820180604052508101906102519190610678565b50600080546001600160a01b031690635c11d7959084908487610276426103e86106a1565b6040518663ffffffff1660e01b81526004016102969594939291906106c7565b600060405180830381600087803b1580156102b057600080fd5b505af11580156102c4573d6000803e3d6000fd5b50505050505050565b60005460405163095ea7b360e01b81526001600160a01b038681169263095ea7b39261030392909116906000199060040161065f565b6020604051808303816000875af1158015610322573d6000803e3d6000fd5b505050506040513d601f19601f820116820180604052508101906103469190610678565b50600080546001600160a01b03169063f305d71990839030908690808961036f426127106106a1565b60405160e089901b6001600160e01b03191681526001600160a01b039687166004820152602481019590955260448501939093526064840191909152909216608482015260a481019190915260c40160606040518083038185885af11580156103dc573d6000803e3d6000fd5b50505050506040513d601f19601f820116820180604052508101906102c49190610738565b604080516002808252606082018352600092602083019080368337019050509050838160008151811061043657610436610649565b6001600160a01b039092166020928302919091019091015273ae13d989dac2f0debff460ac112a837c89baa7cd8160018151811061047657610476610649565b6001600160a01b03928316602091820292909201015260005460405163095ea7b360e01b81528683169263095ea7b3926104b9929116906000199060040161065f565b6020604051808303816000875af11580156104d8573d6000803e3d6000fd5b505050506040513d601f19601f820116820180604052508101906104fc9190610678565b506000805460405163791ac94760e01b81526001600160a01b039091169163791ac947916105349186918690899042906004016106c7565b600060405180830381600087803b15801561054e57600080fd5b505af1158015610562573d6000803e3d6000fd5b5050505050505050565b60006020828403121561057e57600080fd5b5035919050565b80356001600160a01b038116811461059c57600080fd5b919050565b600080604083850312156105b457600080fd5b6105bd83610585565b946020939093013593505050565b600080600080608085870312156105e157600080fd5b6105ea85610585565b93506105f860208601610585565b93969395505050506040820135916060013590565b60008060006060848603121561062257600080fd5b61062b84610585565b925061063960208501610585565b9150604084013590509250925092565b634e487b7160e01b600052603260045260246000fd5b6001600160a01b03929092168252602082015260400190565b60006020828403121561068a57600080fd5b8151801515811461069a57600080fd5b9392505050565b600082198211156106c257634e487b7160e01b600052601160045260246000fd5b500190565b600060a082018783526020878185015260a0604085015281875180845260c086019150828901935060005b818110156107175784516001600160a01b0316835293830193918301916001016106f2565b50506001600160a01b03969096166060850152505050608001529392505050565b60008060006060848603121561074d57600080fd5b835192506020840151915060408401519050925092509256fea26469706673582212203f2f8203b0682c04201cb15664fb43b34f646751ad2474858ab249b3adf6abba64736f6c634300080e0033a26469706673582212207e80013b59bdb9d7685d8266b4c11a44013f5d92863a642bb08322f7284782f564736f6c634300080e0033",
  "linkReferences": {},
  "deployedLinkReferences": {}
}