{
  "_format": "hh-sol-artifact-1",
  "contractName": "MetaStocks",
  "sourceName": "contracts/MetaStocks.sol",
  "abi": [
    {
      "anonymous": false,
      "inputs": [
        {
          "indexed": true,
          "internalType": "address",
          "name": "owner",
          "type": "address"
        },
        {
          "indexed": true,
          "internalType": "address",
          "name": "spender",
          "type": "address"
        },
        {
          "indexed": false,
          "internalType": "uint256",
          "name": "value",
          "type": "uint256"
        }
      ],
      "name": "Approval",
      "type": "event"
    },
    {
      "anonymous": false,
      "inputs": [
        {
          "indexed": true,
          "internalType": "address",
          "name": "sender",
          "type": "address"
        },
        {
          "indexed": false,
          "internalType": "uint256",
          "name": "amount",
          "type": "uint256"
        }
      ],
      "name": "Burn",
      "type": "event"
    },
    {
      "anonymous": false,
      "inputs": [
        {
          "indexed": false,
          "internalType": "uint8",
          "name": "version",
          "type": "uint8"
        }
      ],
      "name": "Initialized",
      "type": "event"
    },
    {
      "anonymous": false,
      "inputs": [
        {
          "indexed": true,
          "internalType": "address",
          "name": "previousOwner",
          "type": "address"
        },
        {
          "indexed": true,
          "internalType": "address",
          "name": "newOwner",
          "type": "address"
        }
      ],
      "name": "OwnershipTransferred",
      "type": "event"
    },
    {
      "anonymous": false,
      "inputs": [
        {
          "indexed": true,
          "internalType": "address",
          "name": "from",
          "type": "address"
        },
        {
          "indexed": true,
          "internalType": "address",
          "name": "to",
          "type": "address"
        },
        {
          "indexed": false,
          "internalType": "uint256",
          "name": "value",
          "type": "uint256"
        }
      ],
      "name": "Transfer",
      "type": "event"
    },
    {
      "inputs": [
        {
          "internalType": "address",
          "name": "owner",
          "type": "address"
        },
        {
          "internalType": "address",
          "name": "spender",
          "type": "address"
        }
      ],
      "name": "allowance",
      "outputs": [
        {
          "internalType": "uint256",
          "name": "",
          "type": "uint256"
        }
      ],
      "stateMutability": "view",
      "type": "function"
    },
    {
      "inputs": [
        {
          "internalType": "address",
          "name": "spender",
          "type": "address"
        },
        {
          "internalType": "uint256",
          "name": "amount",
          "type": "uint256"
        }
      ],
      "name": "approve",
      "outputs": [
        {
          "internalType": "bool",
          "name": "",
          "type": "bool"
        }
      ],
      "stateMutability": "nonpayable",
      "type": "function"
    },
    {
      "inputs": [
        {
          "internalType": "uint256",
          "name": "tokenAmount",
          "type": "uint256"
        }
      ],
      "name": "autoInjectLiquidity",
      "outputs": [],
      "stateMutability": "nonpayable",
      "type": "function"
    },
    {
      "inputs": [
        {
          "internalType": "address",
          "name": "",
          "type": "address"
        }
      ],
      "name": "automatedMarketMakerPairs",
      "outputs": [
        {
          "internalType": "bool",
          "name": "",
          "type": "bool"
        }
      ],
      "stateMutability": "view",
      "type": "function"
    },
    {
      "inputs": [
        {
          "internalType": "address",
          "name": "account",
          "type": "address"
        }
      ],
      "name": "balanceOf",
      "outputs": [
        {
          "internalType": "uint256",
          "name": "",
          "type": "uint256"
        }
      ],
      "stateMutability": "view",
      "type": "function"
    },
    {
      "inputs": [],
      "name": "decimals",
      "outputs": [
        {
          "internalType": "uint8",
          "name": "",
          "type": "uint8"
        }
      ],
      "stateMutability": "view",
      "type": "function"
    },
    {
      "inputs": [
        {
          "internalType": "address",
          "name": "spender",
          "type": "address"
        },
        {
          "internalType": "uint256",
          "name": "subtractedValue",
          "type": "uint256"
        }
      ],
      "name": "decreaseAllowance",
      "outputs": [
        {
          "internalType": "bool",
          "name": "",
          "type": "bool"
        }
      ],
      "stateMutability": "nonpayable",
      "type": "function"
    },
    {
      "inputs": [],
      "name": "enableTrading",
      "outputs": [],
      "stateMutability": "nonpayable",
      "type": "function"
    },
    {
      "inputs": [],
      "name": "getDexRouterManager",
      "outputs": [
        {
          "internalType": "contract DexRouterManager",
          "name": "",
          "type": "address"
        }
      ],
      "stateMutability": "view",
      "type": "function"
    },
    {
      "inputs": [],
      "name": "getFeesManager",
      "outputs": [
        {
          "internalType": "contract FeesManager",
          "name": "",
          "type": "address"
        }
      ],
      "stateMutability": "view",
      "type": "function"
    },
    {
      "inputs": [],
      "name": "getLPPair",
      "outputs": [
        {
          "internalType": "address",
          "name": "",
          "type": "address"
        }
      ],
      "stateMutability": "view",
      "type": "function"
    },
    {
      "inputs": [],
      "name": "getOwner",
      "outputs": [
        {
          "internalType": "address",
          "name": "",
          "type": "address"
        }
      ],
      "stateMutability": "view",
      "type": "function"
    },
    {
      "inputs": [],
      "name": "getSwapThreshold",
      "outputs": [
        {
          "internalType": "uint256",
          "name": "",
          "type": "uint256"
        }
      ],
      "stateMutability": "view",
      "type": "function"
    },
    {
      "inputs": [],
      "name": "getTradingEnabled",
      "outputs": [
        {
          "internalType": "bool",
          "name": "",
          "type": "bool"
        }
      ],
      "stateMutability": "view",
      "type": "function"
    },
    {
      "inputs": [
        {
          "internalType": "address",
          "name": "spender",
          "type": "address"
        },
        {
          "internalType": "uint256",
          "name": "addedValue",
          "type": "uint256"
        }
      ],
      "name": "increaseAllowance",
      "outputs": [
        {
          "internalType": "bool",
          "name": "",
          "type": "bool"
        }
      ],
      "stateMutability": "nonpayable",
      "type": "function"
    },
    {
      "inputs": [],
      "name": "initialize",
      "outputs": [],
      "stateMutability": "nonpayable",
      "type": "function"
    },
    {
      "inputs": [],
      "name": "name",
      "outputs": [
        {
          "internalType": "string",
          "name": "",
          "type": "string"
        }
      ],
      "stateMutability": "view",
      "type": "function"
    },
    {
      "inputs": [],
      "name": "self",
      "outputs": [
        {
          "internalType": "address",
          "name": "",
          "type": "address"
        }
      ],
      "stateMutability": "view",
      "type": "function"
    },
    {
      "inputs": [],
      "name": "setDeadAddress",
      "outputs": [],
      "stateMutability": "nonpayable",
      "type": "function"
    },
    {
      "inputs": [
        {
          "internalType": "address",
          "name": "_dexRouter",
          "type": "address"
        }
      ],
      "name": "setDexRouter",
      "outputs": [],
      "stateMutability": "nonpayable",
      "type": "function"
    },
    {
      "inputs": [
        {
          "internalType": "uint16",
          "name": "buyFee",
          "type": "uint16"
        },
        {
          "internalType": "uint16",
          "name": "sellFee",
          "type": "uint16"
        },
        {
          "internalType": "uint16",
          "name": "transferFee",
          "type": "uint16"
        }
      ],
      "name": "setFees",
      "outputs": [],
      "stateMutability": "nonpayable",
      "type": "function"
    },
    {
      "inputs": [
        {
          "internalType": "contract FeesManager",
          "name": "_feesManager",
          "type": "address"
        }
      ],
      "name": "setFeesManager",
      "outputs": [],
      "stateMutability": "nonpayable",
      "type": "function"
    },
    {
      "inputs": [
        {
          "internalType": "uint256",
          "name": "_maxTransactionAmount",
          "type": "uint256"
        }
      ],
      "name": "setMaxTransactionAmount",
      "outputs": [],
      "stateMutability": "nonpayable",
      "type": "function"
    },
    {
      "inputs": [
        {
          "internalType": "uint256",
          "name": "_maxWalletAmount",
          "type": "uint256"
        }
      ],
      "name": "setMaxWalletAmount",
      "outputs": [],
      "stateMutability": "nonpayable",
      "type": "function"
    },
    {
      "inputs": [
        {
          "internalType": "address",
          "name": "_pairAddress",
          "type": "address"
        }
      ],
      "name": "setPairAddress",
      "outputs": [],
      "stateMutability": "nonpayable",
      "type": "function"
    },
    {
      "inputs": [
        {
          "internalType": "uint256",
          "name": "_swapThreshold",
          "type": "uint256"
        }
      ],
      "name": "setSwapThreshold",
      "outputs": [],
      "stateMutability": "nonpayable",
      "type": "function"
    },
    {
      "inputs": [
        {
          "internalType": "address",
          "name": "_lpPair",
          "type": "address"
        }
      ],
      "name": "setlpPair",
      "outputs": [],
      "stateMutability": "nonpayable",
      "type": "function"
    },
    {
      "inputs": [],
      "name": "symbol",
      "outputs": [
        {
          "internalType": "string",
          "name": "",
          "type": "string"
        }
      ],
      "stateMutability": "view",
      "type": "function"
    },
    {
      "inputs": [],
      "name": "totalSupply",
      "outputs": [
        {
          "internalType": "uint256",
          "name": "",
          "type": "uint256"
        }
      ],
      "stateMutability": "view",
      "type": "function"
    },
    {
      "inputs": [
        {
          "internalType": "address",
          "name": "to",
          "type": "address"
        },
        {
          "internalType": "uint256",
          "name": "amount",
          "type": "uint256"
        }
      ],
      "name": "transfer",
      "outputs": [
        {
          "internalType": "bool",
          "name": "",
          "type": "bool"
        }
      ],
      "stateMutability": "nonpayable",
      "type": "function"
    },
    {
      "inputs": [
        {
          "internalType": "address",
          "name": "from",
          "type": "address"
        },
        {
          "internalType": "address",
          "name": "to",
          "type": "address"
        },
        {
          "internalType": "uint256",
          "name": "amount",
          "type": "uint256"
        }
      ],
      "name": "transferFrom",
      "outputs": [
        {
          "internalType": "bool",
          "name": "",
          "type": "bool"
        }
      ],
      "stateMutability": "nonpayable",
      "type": "function"
    },
    {
      "inputs": [
        {
          "internalType": "address",
          "name": "account",
          "type": "address"
        }
      ],
      "name": "transferOwnership",
      "outputs": [],
      "stateMutability": "nonpayable",
      "type": "function"
    },
    {
      "stateMutability": "payable",
      "type": "receive"
    }
  ],
  "bytecode": "0x608060405234801561001057600080fd5b506128f0806100206000396000f3fe608060405260043610620001cb5760003560e01c8063893d20e811620000f5578063b9af85671162000090578063b9af8567146200056b578063c762819b14620005c4578063d203abb614620005dc578063dd62ed3e1462000601578063f005f2ca1462000626578063f2fde38b146200063d578063f72f863b146200067e578063fa83cb5814620006a357600080fd5b8063893d20e814620004315780638a8c523c146200045157806395d89b4114620004695780639d0014b11462000481578063a22d483214620004a5578063a457c2d714620004ed578063a9059cbb1462000512578063b62496f5146200053757600080fd5b80633950935111620001665780633950935114620003115780633da773331462000336578063534c6bcb146200035d57806370a0823114620003825780637104ddb214620003bc5780638129fc1c14620003d157806381fd3b0014620003e957806386f3f3cb146200041157600080fd5b806306fdde0314620001d8578063095ea7b3146200020857806318160ddd146200023e5780631c89382a146200025f5780631e293c10146200028657806323b872dd14620002aa57806327a14fc214620002cf578063313ce56714620002f357600080fd5b36620001d357005b600080fd5b348015620001e557600080fd5b50620001f0620006bd565b604051620001ff919062001a6b565b60405180910390f35b3480156200021557600080fd5b506200022d6200022736600462001ad9565b62000757565b6040519015158152602001620001ff565b3480156200024b57600080fd5b506035545b604051908152602001620001ff565b3480156200026c57600080fd5b50620002846200027e36600462001b08565b62000771565b005b3480156200029357600080fd5b5062000284620002a536600462001b2f565b606a55565b348015620002b757600080fd5b506200022d620002c936600462001b49565b62000799565b348015620002dc57600080fd5b5062000284620002ee36600462001b2f565b606955565b3480156200030057600080fd5b5060405160128152602001620001ff565b3480156200031e57600080fd5b506200022d6200033036600462001ad9565b620007c1565b3480156200034357600080fd5b506200034e620007e9565b604051620001ff919062001b8f565b3480156200036a57600080fd5b50620002846200037c36600462001bb6565b620007f8565b3480156200038f57600080fd5b5062000250620003a136600462001b08565b6001600160a01b031660009081526033602052604090205490565b348015620003c957600080fd5b50306200034e565b348015620003de57600080fd5b506200028462000874565b348015620003f657600080fd5b5062000284606680546001600160a01b03191661dead179055565b3480156200041e57600080fd5b506067546001600160a01b03166200034e565b3480156200043e57600080fd5b506065546001600160a01b03166200034e565b3480156200045e57600080fd5b506200028462000938565b3480156200047657600080fd5b50620001f06200099b565b3480156200048e57600080fd5b5062000284620004a036600462001b2f565b606855565b348015620004b257600080fd5b5062000284620004c436600462001b08565b606780546001600160a01b039092166001600160a01b031990921682179055600052606d602052565b348015620004fa57600080fd5b506200022d6200050c36600462001ad9565b620009ac565b3480156200051f57600080fd5b506200022d6200053136600462001ad9565b62000a2d565b3480156200054457600080fd5b506200022d6200055636600462001b08565b606d6020526000908152604090205460ff1681565b3480156200057857600080fd5b50620002846200058a36600462001b08565b606780546001600160a01b039092166001600160a01b0319909216821790556000908152606d60205260409020805460ff19166001179055565b348015620005d157600080fd5b506200034e62000a3d565b348015620005e957600080fd5b5062000284620005fb36600462001b2f565b62000a51565b3480156200060e57600080fd5b50620002506200062036600462001c00565b62000b93565b3480156200063357600080fd5b5060685462000250565b3480156200064a57600080fd5b50620002846200065c36600462001b08565b606580546001600160a01b0319166001600160a01b0392909216919091179055565b3480156200068b57600080fd5b50620002846200069d36600462001b08565b62000bbe565b348015620006b057600080fd5b50606b5460ff166200022d565b606060368054620006ce9062001c3e565b80601f0160208091040260200160405190810160405280929190818152602001828054620006fc9062001c3e565b80156200074d5780601f1062000721576101008083540402835291602001916200074d565b820191906000526020600020905b8154815290600101906020018083116200072f57829003601f168201915b5050505050905090565b6000336200076781858562000c27565b5060019392505050565b606b80546001600160a01b0390921661010002610100600160a81b0319909216919091179055565b600033620007a985828562000d4f565b620007b685858562000dd0565b506001949350505050565b60003362000767818585620007d7838362000b93565b620007e3919062001c90565b62000c27565b606c546001600160a01b031690565b606b5460405163534c6bcb60e01b815261ffff80861660048301528085166024830152831660448201526101009091046001600160a01b03169063534c6bcb90606401600060405180830381600087803b1580156200085657600080fd5b505af11580156200086b573d6000803e3d6000fd5b50505050505050565b600062000882600162000f4a565b905080156200089b576000805461ff0019166101001790555b620008e46040518060400160405280600a8152602001694d65746153746f636b7360b01b815250604051806040016040528060038152602001621354d560ea1b81525062000fdf565b620008ee62001019565b801562000935576000805461ff0019169055604051600181527f7f26b83ff96e1f2b6a682f133852f6798a09c465da95921460cefb38474024989060200160405180910390a15b50565b606b5460ff16156200098c5760405162461bcd60e51b815260206004820152601860248201527754726164696e6720616c726561647920656e61626c65642160401b60448201526064015b60405180910390fd5b606b805460ff19166001179055565b606060378054620006ce9062001c3e565b60003381620009bc828662000b93565b90508381101562000a1e5760405162461bcd60e51b815260206004820152602560248201527f45524332303a2064656372656173656420616c6c6f77616e63652062656c6f77604482015264207a65726f60d81b606482015260840162000983565b620007b6828686840362000c27565b6000336200076781858562000dd0565b606b5461010090046001600160a01b031690565b600062000a6060028362001cab565b90504762000a6d620007e9565b6001600160a01b031663f7a7657630306040516001600160e01b031960e085901b1681526001600160a01b0392831660048201529116602482015260448101859052606401600060405180830381600087803b15801562000acd57600080fd5b505af115801562000ae2573d6000803e3d6000fd5b505050506000814762000af6919062001cce565b905062000b02620007e9565b6001600160a01b031663cf6c62ea306065546001600160a01b03166040516001600160e01b031960e085901b1681526001600160a01b039283166004820152911660248201526044810186905260648101849052608401600060405180830381600087803b15801562000b7457600080fd5b505af115801562000b89573d6000803e3d6000fd5b5050505050505050565b6001600160a01b03918216600090815260346020908152604080832093909416825291909152205490565b606c5460405163f72f863b60e01b81526001600160a01b039091169063f72f863b9062000bf090849060040162001b8f565b600060405180830381600087803b15801562000c0b57600080fd5b505af115801562000c20573d6000803e3d6000fd5b5050505050565b6001600160a01b03831662000c8b5760405162461bcd60e51b8152602060048201526024808201527f45524332303a20617070726f76652066726f6d20746865207a65726f206164646044820152637265737360e01b606482015260840162000983565b6001600160a01b03821662000cee5760405162461bcd60e51b815260206004820152602260248201527f45524332303a20617070726f766520746f20746865207a65726f206164647265604482015261737360f01b606482015260840162000983565b6001600160a01b0383811660008181526034602090815260408083209487168084529482529182902085905590518481527f8c5be1e5ebec7d5bd14f71427d1e84f3dd0314c0f7b2291e5b200ac8c7c3b925910160405180910390a3505050565b600062000d5d848462000b93565b9050600019811462000dca578181101562000dbb5760405162461bcd60e51b815260206004820152601d60248201527f45524332303a20696e73756666696369656e7420616c6c6f77616e6365000000604482015260640162000983565b62000dca848484840362000c27565b50505050565b62000ddd83838362001064565b62000de7620007e9565b6001600160a01b031663cc9968996040518163ffffffff1660e01b8152600401602060405180830381865afa15801562000e25573d6000803e3d6000fd5b505050506040513d601f19601f8201168201806040525081019062000e4b919062001ce8565b1562000e635762000e5e83838362000dd0565b505050565b62000e6f8383620012cb565b1562000f3d57600062000e8230620003a1565b905062000e8e620007e9565b6001600160a01b0316632c4a73613061271062000ead85600c62001d0c565b62000eb9919062001cab565b6040516001600160e01b031960e085901b1681526001600160a01b0390921660048301526024820152604401600060405180830381600087803b15801562000f0057600080fd5b505af115801562000f15573d6000803e3d6000fd5b5050505062000f3b61271082607b62000f2f919062001d0c565b620005fb919062001cab565b505b62000e5e838383620014b0565b60008054610100900460ff161562000f96578160ff16600114801562000f6f5750303b155b62000f8e5760405162461bcd60e51b8152600401620009839062001d2e565b506000919050565b60005460ff80841691161062000fc05760405162461bcd60e51b8152600401620009839062001d2e565b506000805460ff191660ff92909216919091179055600190565b919050565b600054610100900460ff16620010095760405162461bcd60e51b8152600401620009839062001d7c565b620010158282620015f3565b5050565b62001041606580546001600160a01b031990811633179091556066805490911661dead179055565b6200104b62001648565b62001062336a52b7d2dcc80cd2e4000000620016ec565b565b6001600160a01b038316620010d25760405162461bcd60e51b815260206004820152602d60248201527f45524332303a207472616e736665722066726f6d20746865205a45524f5f414460448201526c4452455353206164647265737360981b606482015260840162000983565b6001600160a01b0382166200113e5760405162461bcd60e51b815260206004820152602b60248201527f45524332303a207472616e7366657220746f20746865205a45524f5f4144445260448201526a455353206164647265737360a81b606482015260840162000983565b60008111620011aa5760405162461bcd60e51b815260206004820152603160248201527f5472616e7366657220616d6f756e74206d7573742062652067726561746572206044820152707468616e205a45524f5f4144445245535360781b606482015260840162000983565b6065546001600160a01b03848116911614801590620011d757506065546001600160a01b03838116911614155b8015620011ec57506001600160a01b03821615155b80156200120457506001600160a01b03821661dead14155b80156200127c575062001216620007e9565b6001600160a01b031663cc9968996040518163ffffffff1660e01b8152600401602060405180830381865afa15801562001254573d6000803e3d6000fd5b505050506040513d601f19601f820116820180604052508101906200127a919062001ce8565b155b1562000e5e57606b5460ff1662000e5e5760405162461bcd60e51b815260206004820152601260248201527154726164696e67206e6f742061637469766560701b604482015260640162000983565b600080620012d930620003a1565b9050620012e560685490565b8110158015620013605750620012fa620007e9565b6001600160a01b031663cc9968996040518163ffffffff1660e01b8152600401602060405180830381865afa15801562001338573d6000803e3d6000fd5b505050506040513d601f19601f820116820180604052508101906200135e919062001ce8565b155b80156200137b57506067546001600160a01b03858116911614155b80156200139e575060006200139c620003a16067546001600160a01b031690565b115b8015620014235750620013b062000a3d565b6001600160a01b0316635342acb4846040518263ffffffff1660e01b8152600401620013dd919062001b8f565b602060405180830381865afa158015620013fb573d6000803e3d6000fd5b505050506040513d601f19601f8201168201806040525081019062001421919062001ce8565b155b8015620014a857506200143562000a3d565b6001600160a01b0316635342acb4856040518263ffffffff1660e01b815260040162001462919062001b8f565b602060405180830381865afa15801562001480573d6000803e3d6000fd5b505050506040513d601f19601f82011682018060405250810190620014a6919062001ce8565b155b949350505050565b8060006001620014bf62000a3d565b6001600160a01b0316635342acb4876040518263ffffffff1660e01b8152600401620014ec919062001b8f565b602060405180830381865afa1580156200150a573d6000803e3d6000fd5b505050506040513d601f19601f8201168201806040525081019062001530919062001ce8565b80620015b257506200154162000a3d565b6001600160a01b0316635342acb4866040518263ffffffff1660e01b81526004016200156e919062001b8f565b602060405180830381865afa1580156200158c573d6000803e3d6000fd5b505050506040513d601f19601f82011682018060405250810190620015b2919062001ce8565b15620015bc575060005b8015620015de57620015cf828562001cce565b9250620015de863084620017d1565b620015eb868685620017d1565b505050505050565b600054610100900460ff166200161d5760405162461bcd60e51b8152600401620009839062001d7c565b815162001632906036906020850190620019a9565b50805162000e5e906037906020840190620019a9565b732d99abd9008dc933ff5c0cd271b88309593ab9216040516200166b9062001a38565b62001677919062001b8f565b604051809103906000f08015801562001694573d6000803e3d6000fd5b50606c80546001600160a01b0319166001600160a01b03929092169190911790556040516200106290620016c89062001a46565b604051809103906000f080158015620016e5573d6000803e3d6000fd5b5062000771565b6001600160a01b038216620017445760405162461bcd60e51b815260206004820152601f60248201527f45524332303a206d696e7420746f20746865207a65726f206164647265737300604482015260640162000983565b806035600082825462001758919062001c90565b90915550506001600160a01b038216600090815260336020526040812080548392906200178790849062001c90565b90915550506040518181526001600160a01b038316906000907fddf252ad1be2c89b69c2b068fc378daa952ba7f163c4a11628f55a4df523b3ef9060200160405180910390a35050565b6001600160a01b038316620018375760405162461bcd60e51b815260206004820152602560248201527f45524332303a207472616e736665722066726f6d20746865207a65726f206164604482015264647265737360d81b606482015260840162000983565b6001600160a01b0382166200189b5760405162461bcd60e51b815260206004820152602360248201527f45524332303a207472616e7366657220746f20746865207a65726f206164647260448201526265737360e81b606482015260840162000983565b6001600160a01b03831660009081526033602052604090205481811015620019155760405162461bcd60e51b815260206004820152602660248201527f45524332303a207472616e7366657220616d6f756e7420657863656564732062604482015265616c616e636560d01b606482015260840162000983565b6001600160a01b038085166000908152603360205260408082208585039055918516815290812080548492906200194e90849062001c90565b92505081905550826001600160a01b0316846001600160a01b03167fddf252ad1be2c89b69c2b068fc378daa952ba7f163c4a11628f55a4df523b3ef846040516200199b91815260200190565b60405180910390a362000dca565b828054620019b79062001c3e565b90600052602060002090601f016020900481019282620019db576000855562001a26565b82601f10620019f657805160ff191683800117855562001a26565b8280016001018555821562001a26579182015b8281111562001a2657825182559160200191906001019062001a09565b5062001a3492915062001a54565b5090565b6108928062001dc883390190565b610261806200265a83390190565b5b8082111562001a34576000815560010162001a55565b600060208083528351808285015260005b8181101562001a9a5785810183015185820160400152820162001a7c565b8181111562001aad576000604083870101525b50601f01601f1916929092016040019392505050565b6001600160a01b03811681146200093557600080fd5b6000806040838503121562001aed57600080fd5b823562001afa8162001ac3565b946020939093013593505050565b60006020828403121562001b1b57600080fd5b813562001b288162001ac3565b9392505050565b60006020828403121562001b4257600080fd5b5035919050565b60008060006060848603121562001b5f57600080fd5b833562001b6c8162001ac3565b9250602084013562001b7e8162001ac3565b929592945050506040919091013590565b6001600160a01b0391909116815260200190565b803561ffff8116811462000fda57600080fd5b60008060006060848603121562001bcc57600080fd5b62001bd78462001ba3565b925062001be76020850162001ba3565b915062001bf76040850162001ba3565b90509250925092565b6000806040838503121562001c1457600080fd5b823562001c218162001ac3565b9150602083013562001c338162001ac3565b809150509250929050565b600181811c9082168062001c5357607f821691505b60208210810362001c7457634e487b7160e01b600052602260045260246000fd5b50919050565b634e487b7160e01b600052601160045260246000fd5b6000821982111562001ca65762001ca662001c7a565b500190565b60008262001cc957634e487b7160e01b600052601260045260246000fd5b500490565b60008282101562001ce35762001ce362001c7a565b500390565b60006020828403121562001cfb57600080fd5b8151801515811462001b2857600080fd5b600081600019048311821515161562001d295762001d2962001c7a565b500290565b6020808252602e908201527f496e697469616c697a61626c653a20636f6e747261637420697320616c72656160408201526d191e481a5b9a5d1a585b1a5e995960921b606082015260800190565b6020808252602b908201527f496e697469616c697a61626c653a20636f6e7472616374206973206e6f74206960408201526a6e697469616c697a696e6760a81b60608201526080019056fe608060405234801561001057600080fd5b5060405161089238038061089283398101604081905261002f91610061565b600080546001600160a01b039092166001600160a01b031992831617905561a869600255600180549091169055610091565b60006020828403121561007357600080fd5b81516001600160a01b038116811461008a57600080fd5b9392505050565b6107f2806100a06000396000f3fe608060405234801561001057600080fd5b50600436106100785760003560e01c8063197e8da91461007d5780632c4a7361146100c157806385954d8c146100d6578063b9c55241146100d6578063cc996899146100e7578063cf6c62ea14610104578063f72f863b14610117578063f7a7657614610147575b600080fd5b6100a461008b3660046105a7565b5073ae13d989dac2f0debff460ac112a837c89baa7cd90565b6040516001600160a01b0390911681526020015b60405180910390f35b6100d46100cf3660046105dc565b61015a565b005b6000546001600160a01b03166100a4565b600154600160a01b900460ff1660405190151581526020016100b8565b6100d4610112366004610606565b610308565b6100d4610125366004610648565b600080546001600160a01b0319166001600160a01b0392909216919091179055565b6100d461015536600461066a565b61043c565b60408051600380825260808201909252600091602082016060803683370190505090503081600081518110610191576101916106a6565b6001600160a01b039092166020928302919091019091015273ae13d989dac2f0debff460ac112a837c89baa7cd816001815181106101d1576101d16106a6565b6001600160a01b039283166020918202929092010152600154825191169082906002908110610202576102026106a6565b6001600160a01b03928316602091820292909201015260015460005460405163095ea7b360e01b81529183169263095ea7b3926102499290911690600019906004016106bc565b6020604051808303816000875af1158015610268573d6000803e3d6000fd5b505050506040513d601f19601f8201168201806040525081019061028c91906106d5565b50600080546001600160a01b031690635c11d79590849084876102b1426103e86106f7565b6040518663ffffffff1660e01b81526004016102d195949392919061071d565b600060405180830381600087803b1580156102eb57600080fd5b505af11580156102ff573d6000803e3d6000fd5b50505050505050565b60005460405163095ea7b360e01b81526001600160a01b038681169263095ea7b39261033e9290911690600019906004016106bc565b6020604051808303816000875af115801561035d573d6000803e3d6000fd5b505050506040513d601f19601f8201168201806040525081019061038191906106d5565b50600080546001600160a01b03169063f305d7199083903090869080896103aa426127106106f7565b60405160e089901b6001600160e01b03191681526001600160a01b039687166004820152602481019590955260448501939093526064840191909152909216608482015260a481019190915260c40160606040518083038185885af1158015610417573d6000803e3d6000fd5b50505050506040513d601f19601f820116820180604052508101906102ff919061078e565b6040805160028082526060820183526000926020830190803683370190505090508381600081518110610471576104716106a6565b6001600160a01b039092166020928302919091019091015273ae13d989dac2f0debff460ac112a837c89baa7cd816001815181106104b1576104b16106a6565b6001600160a01b03928316602091820292909201015260005460405163095ea7b360e01b81528683169263095ea7b3926104f492911690600019906004016106bc565b6020604051808303816000875af1158015610513573d6000803e3d6000fd5b505050506040513d601f19601f8201168201806040525081019061053791906106d5565b506000805460405163791ac94760e01b81526001600160a01b039091169163791ac9479161056f91869186908990429060040161071d565b600060405180830381600087803b15801561058957600080fd5b505af115801561059d573d6000803e3d6000fd5b5050505050505050565b6000602082840312156105b957600080fd5b5035919050565b80356001600160a01b03811681146105d757600080fd5b919050565b600080604083850312156105ef57600080fd5b6105f8836105c0565b946020939093013593505050565b6000806000806080858703121561061c57600080fd5b610625856105c0565b9350610633602086016105c0565b93969395505050506040820135916060013590565b60006020828403121561065a57600080fd5b610663826105c0565b9392505050565b60008060006060848603121561067f57600080fd5b610688846105c0565b9250610696602085016105c0565b9150604084013590509250925092565b634e487b7160e01b600052603260045260246000fd5b6001600160a01b03929092168252602082015260400190565b6000602082840312156106e757600080fd5b8151801515811461066357600080fd5b6000821982111561071857634e487b7160e01b600052601160045260246000fd5b500190565b600060a082018783526020878185015260a0604085015281875180845260c086019150828901935060005b8181101561076d5784516001600160a01b031683529383019391830191600101610748565b50506001600160a01b03969096166060850152505050608001529392505050565b6000806000606084860312156107a357600080fd5b835192506020840151915060408401519050925092509256fea26469706673582212209d2b2fa2e0100e888afc497b98eab74093bf293ce904e54d856c5a817c34837564736f6c634300080e0033608060405234801561001057600080fd5b50612710600155604080516060810182526000808252602082018190529101819052805465ffffffffffff191690556102138061004e6000396000f3fe608060405234801561001057600080fd5b50600436106100415760003560e01c80635342acb414610046578063534c6bcb146100865780636612e66f146100d5575b600080fd5b61007261005436600461012a565b6001600160a01b031660009081526002602052604090205460ff1690565b604051901515815260200160405180910390f35b6100d361009436600461015e565b6000805461ffff94851663ffffffff199091161762010000938516939093029290921765ffff0000000019166401000000009190931602919091179055565b005b6100d36100e33660046101a1565b6001600160a01b03919091166000908152600260205260409020805460ff1916911515919091179055565b80356001600160a01b038116811461012557600080fd5b919050565b60006020828403121561013c57600080fd5b6101458261010e565b9392505050565b803561ffff8116811461012557600080fd5b60008060006060848603121561017357600080fd5b61017c8461014c565b925061018a6020850161014c565b91506101986040850161014c565b90509250925092565b600080604083850312156101b457600080fd5b6101bd8361010e565b9150602083013580151581146101d257600080fd5b80915050925092905056fea26469706673582212200907b4f6b3378c6269771c8b6de1a88296f0a43cf518a5b0596150ebd7c2d54064736f6c634300080e0033a2646970667358221220ab0c3d8e3ee2d60a540b9e69811711138875a96d52f557eaaf944074c9516d0a64736f6c634300080e0033",
  "linkReferences": {},
  "deployedLinkReferences": {}
}