{
    "contractName": "MetaStocksERC20Upgradeable",
    "abi": [
        {
            "anonymous": false,
            "inputs": [
                {
                    "indexed": true,
                    "internalType": "address",
                    "name": "owner",
                    "type": "address"
                },
                {
                    "indexed": true,
                    "internalType": "address",
                    "name": "spender",
                    "type": "address"
                },
                {
                    "indexed": false,
                    "internalType": "uint256",
                    "name": "value",
                    "type": "uint256"
                }
            ],
            "name": "Approval",
            "type": "event"
        },
        {
            "anonymous": false,
            "inputs": [
                {
                    "indexed": true,
                    "internalType": "address",
                    "name": "sender",
                    "type": "address"
                },
                {
                    "indexed": false,
                    "internalType": "uint256",
                    "name": "amount",
                    "type": "uint256"
                }
            ],
            "name": "Burn",
            "type": "event"
        },
        {
            "anonymous": false,
            "inputs": [
                {
                    "indexed": false,
                    "internalType": "uint8",
                    "name": "version",
                    "type": "uint8"
                }
            ],
            "name": "Initialized",
            "type": "event"
        },
        {
            "anonymous": false,
            "inputs": [
                {
                    "indexed": true,
                    "internalType": "address",
                    "name": "previousOwner",
                    "type": "address"
                },
                {
                    "indexed": true,
                    "internalType": "address",
                    "name": "newOwner",
                    "type": "address"
                }
            ],
            "name": "OwnershipTransferred",
            "type": "event"
        },
        {
            "anonymous": false,
            "inputs": [
                {
                    "indexed": true,
                    "internalType": "address",
                    "name": "from",
                    "type": "address"
                },
                {
                    "indexed": true,
                    "internalType": "address",
                    "name": "to",
                    "type": "address"
                },
                {
                    "indexed": false,
                    "internalType": "uint256",
                    "name": "value",
                    "type": "uint256"
                }
            ],
            "name": "Transfer",
            "type": "event"
        },
        {
            "inputs": [
                {
                    "internalType": "address",
                    "name": "owner",
                    "type": "address"
                },
                {
                    "internalType": "address",
                    "name": "spender",
                    "type": "address"
                }
            ],
            "name": "allowance",
            "outputs": [
                {
                    "internalType": "uint256",
                    "name": "",
                    "type": "uint256"
                }
            ],
            "stateMutability": "view",
            "type": "function"
        },
        {
            "inputs": [
                {
                    "internalType": "address",
                    "name": "spender",
                    "type": "address"
                },
                {
                    "internalType": "uint256",
                    "name": "amount",
                    "type": "uint256"
                }
            ],
            "name": "approve",
            "outputs": [
                {
                    "internalType": "bool",
                    "name": "",
                    "type": "bool"
                }
            ],
            "stateMutability": "nonpayable",
            "type": "function"
        },
        {
            "inputs": [
                {
                    "internalType": "uint256",
                    "name": "tokenAmount",
                    "type": "uint256"
                }
            ],
            "name": "autoInjectLiquidity",
            "outputs": [],
            "stateMutability": "nonpayable",
            "type": "function"
        },
        {
            "inputs": [
                {
                    "internalType": "address",
                    "name": "",
                    "type": "address"
                }
            ],
            "name": "automatedMarketMakerPairs",
            "outputs": [
                {
                    "internalType": "bool",
                    "name": "",
                    "type": "bool"
                }
            ],
            "stateMutability": "view",
            "type": "function"
        },
        {
            "inputs": [
                {
                    "internalType": "address",
                    "name": "account",
                    "type": "address"
                }
            ],
            "name": "balanceOf",
            "outputs": [
                {
                    "internalType": "uint256",
                    "name": "",
                    "type": "uint256"
                }
            ],
            "stateMutability": "view",
            "type": "function"
        },
        {
            "inputs": [],
            "name": "decimals",
            "outputs": [
                {
                    "internalType": "uint8",
                    "name": "",
                    "type": "uint8"
                }
            ],
            "stateMutability": "view",
            "type": "function"
        },
        {
            "inputs": [
                {
                    "internalType": "address",
                    "name": "spender",
                    "type": "address"
                },
                {
                    "internalType": "uint256",
                    "name": "subtractedValue",
                    "type": "uint256"
                }
            ],
            "name": "decreaseAllowance",
            "outputs": [
                {
                    "internalType": "bool",
                    "name": "",
                    "type": "bool"
                }
            ],
            "stateMutability": "nonpayable",
            "type": "function"
        },
        {
            "inputs": [],
            "name": "enableTrading",
            "outputs": [],
            "stateMutability": "nonpayable",
            "type": "function"
        },
        {
            "inputs": [],
            "name": "getDexRouterManager",
            "outputs": [
                {
                    "internalType": "contract DexRouterManager",
                    "name": "",
                    "type": "address"
                }
            ],
            "stateMutability": "view",
            "type": "function"
        },
        {
            "inputs": [],
            "name": "getFeesManager",
            "outputs": [
                {
                    "internalType": "contract FeesManager",
                    "name": "",
                    "type": "address"
                }
            ],
            "stateMutability": "view",
            "type": "function"
        },
        {
            "inputs": [],
            "name": "getLPPair",
            "outputs": [
                {
                    "internalType": "address",
                    "name": "",
                    "type": "address"
                }
            ],
            "stateMutability": "view",
            "type": "function"
        },
        {
            "inputs": [],
            "name": "getOwner",
            "outputs": [
                {
                    "internalType": "address",
                    "name": "",
                    "type": "address"
                }
            ],
            "stateMutability": "view",
            "type": "function"
        },
        {
            "inputs": [],
            "name": "getSwapThreshold",
            "outputs": [
                {
                    "internalType": "uint256",
                    "name": "",
                    "type": "uint256"
                }
            ],
            "stateMutability": "view",
            "type": "function"
        },
        {
            "inputs": [],
            "name": "getTradingEnabled",
            "outputs": [
                {
                    "internalType": "bool",
                    "name": "",
                    "type": "bool"
                }
            ],
            "stateMutability": "view",
            "type": "function"
        },
        {
            "inputs": [
                {
                    "internalType": "address",
                    "name": "spender",
                    "type": "address"
                },
                {
                    "internalType": "uint256",
                    "name": "addedValue",
                    "type": "uint256"
                }
            ],
            "name": "increaseAllowance",
            "outputs": [
                {
                    "internalType": "bool",
                    "name": "",
                    "type": "bool"
                }
            ],
            "stateMutability": "nonpayable",
            "type": "function"
        },
        {
            "inputs": [
                {
                    "internalType": "string",
                    "name": "_name",
                    "type": "string"
                },
                {
                    "internalType": "string",
                    "name": "_symbol",
                    "type": "string"
                }
            ],
            "name": "initialize",
            "outputs": [],
            "stateMutability": "nonpayable",
            "type": "function"
        },
        {
            "inputs": [],
            "name": "name",
            "outputs": [
                {
                    "internalType": "string",
                    "name": "",
                    "type": "string"
                }
            ],
            "stateMutability": "view",
            "type": "function"
        },
        {
            "inputs": [],
            "name": "self",
            "outputs": [
                {
                    "internalType": "address",
                    "name": "",
                    "type": "address"
                }
            ],
            "stateMutability": "view",
            "type": "function"
        },
        {
            "inputs": [],
            "name": "setDeadAddress",
            "outputs": [],
            "stateMutability": "nonpayable",
            "type": "function"
        },
        {
            "inputs": [
                {
                    "internalType": "uint16",
                    "name": "buyFee",
                    "type": "uint16"
                },
                {
                    "internalType": "uint16",
                    "name": "sellFee",
                    "type": "uint16"
                },
                {
                    "internalType": "uint16",
                    "name": "transferFee",
                    "type": "uint16"
                }
            ],
            "name": "setFees",
            "outputs": [],
            "stateMutability": "nonpayable",
            "type": "function"
        },
        {
            "inputs": [
                {
                    "internalType": "contract FeesManager",
                    "name": "_feesManager",
                    "type": "address"
                }
            ],
            "name": "setFeesManager",
            "outputs": [],
            "stateMutability": "nonpayable",
            "type": "function"
        },
        {
            "inputs": [
                {
                    "internalType": "uint256",
                    "name": "_maxTransactionAmount",
                    "type": "uint256"
                }
            ],
            "name": "setMaxTransactionAmount",
            "outputs": [],
            "stateMutability": "nonpayable",
            "type": "function"
        },
        {
            "inputs": [
                {
                    "internalType": "uint256",
                    "name": "_maxWalletAmount",
                    "type": "uint256"
                }
            ],
            "name": "setMaxWalletAmount",
            "outputs": [],
            "stateMutability": "nonpayable",
            "type": "function"
        },
        {
            "inputs": [
                {
                    "internalType": "uint256",
                    "name": "_swapThreshold",
                    "type": "uint256"
                }
            ],
            "name": "setSwapThreshold",
            "outputs": [],
            "stateMutability": "nonpayable",
            "type": "function"
        },
        {
            "inputs": [],
            "name": "symbol",
            "outputs": [
                {
                    "internalType": "string",
                    "name": "",
                    "type": "string"
                }
            ],
            "stateMutability": "view",
            "type": "function"
        },
        {
            "inputs": [],
            "name": "totalSupply",
            "outputs": [
                {
                    "internalType": "uint256",
                    "name": "",
                    "type": "uint256"
                }
            ],
            "stateMutability": "view",
            "type": "function"
        },
        {
            "inputs": [
                {
                    "internalType": "address",
                    "name": "to",
                    "type": "address"
                },
                {
                    "internalType": "uint256",
                    "name": "amount",
                    "type": "uint256"
                }
            ],
            "name": "transfer",
            "outputs": [
                {
                    "internalType": "bool",
                    "name": "",
                    "type": "bool"
                }
            ],
            "stateMutability": "nonpayable",
            "type": "function"
        },
        {
            "inputs": [
                {
                    "internalType": "address",
                    "name": "from",
                    "type": "address"
                },
                {
                    "internalType": "address",
                    "name": "to",
                    "type": "address"
                },
                {
                    "internalType": "uint256",
                    "name": "amount",
                    "type": "uint256"
                }
            ],
            "name": "transferFrom",
            "outputs": [
                {
                    "internalType": "bool",
                    "name": "",
                    "type": "bool"
                }
            ],
            "stateMutability": "nonpayable",
            "type": "function"
        },
        {
            "inputs": [
                {
                    "internalType": "address",
                    "name": "account",
                    "type": "address"
                }
            ],
            "name": "transferOwnership",
            "outputs": [],
            "stateMutability": "nonpayable",
            "type": "function"
        },
        {
            "stateMutability": "payable",
            "type": "receive"
        }
    ],
    "bytecode": "608060405234801561001057600080fd5b50612dfb806100206000396000f3fe608060405260043610620001eb5760003560e01c806381fd3b00116200010b578063a9059cbb11620000a1578063dd62ed3e116200006c578063dd62ed3e1462000597578063f005f2ca14620005bc578063f2fde38b14620005d3578063fa83cb5814620005f857600080fd5b8063a9059cbb14620004f4578063b62496f51462000519578063c762819b146200054d578063d203abb6146200057257600080fd5b80638a8c523c11620000e25780638a8c523c146200047b57806395d89b4114620004935780639d0014b114620004ab578063a457c2d714620004cf57600080fd5b806381fd3b00146200042357806386f3f3cb146200043b578063893d20e8146200045b57600080fd5b8063313ce56711620001815780634cd88b7611620001585780634cd88b76146200038a578063534c6bcb14620003af57806370a0823114620003d45780637104ddb2146200040e57600080fd5b8063313ce56714620003135780633950935114620003315780633da77333146200035657600080fd5b80631c89382a11620001c25780631c89382a146200027f5780631e293c1014620002a657806323b872dd14620002ca57806327a14fc214620002ef57600080fd5b806306fdde0314620001f8578063095ea7b3146200022857806318160ddd146200025e57600080fd5b36620001f357005b600080fd5b3480156200020557600080fd5b506200021062000612565b6040516200021f919062001d30565b60405180910390f35b3480156200023557600080fd5b506200024d6200024736600462001da1565b620006ac565b60405190151581526020016200021f565b3480156200026b57600080fd5b506035545b6040519081526020016200021f565b3480156200028c57600080fd5b50620002a46200029e36600462001dd0565b620006c6565b005b348015620002b357600080fd5b50620002a4620002c536600462001df7565b606a55565b348015620002d757600080fd5b506200024d620002e936600462001e11565b620006ee565b348015620002fc57600080fd5b50620002a46200030e36600462001df7565b606955565b3480156200032057600080fd5b50604051601281526020016200021f565b3480156200033e57600080fd5b506200024d6200035036600462001da1565b62000716565b3480156200036357600080fd5b50606c546001600160a01b03165b6040516001600160a01b0390911681526020016200021f565b3480156200039757600080fd5b50620002a4620003a936600462001f02565b6200073e565b348015620003bc57600080fd5b50620002a4620003ce36600462001f80565b620007c7565b348015620003e157600080fd5b5062000270620003f336600462001dd0565b6001600160a01b031660009081526033602052604090205490565b3480156200041b57600080fd5b503062000371565b3480156200043057600080fd5b50620002a462000879565b3480156200044857600080fd5b506067546001600160a01b031662000371565b3480156200046857600080fd5b506065546001600160a01b031662000371565b3480156200048857600080fd5b50620002a4620008bc565b348015620004a057600080fd5b50620002106200094d565b348015620004b857600080fd5b50620002a4620004ca36600462001df7565b606855565b348015620004dc57600080fd5b506200024d620004ee36600462001da1565b6200095e565b3480156200050157600080fd5b506200024d6200051336600462001da1565b620009df565b3480156200052657600080fd5b506200024d6200053836600462001dd0565b606d6020526000908152604090205460ff1681565b3480156200055a57600080fd5b50606b5461010090046001600160a01b031662000371565b3480156200057f57600080fd5b50620002a46200059136600462001df7565b620009ef565b348015620005a457600080fd5b5062000270620005b636600462001fca565b62000b43565b348015620005c957600080fd5b5060685462000270565b348015620005e057600080fd5b50620002a4620005f236600462001dd0565b62000b6e565b3480156200060557600080fd5b50606b5460ff166200024d565b606060368054620006239062002008565b80601f0160208091040260200160405190810160405280929190818152602001828054620006519062002008565b8015620006a25780601f106200067657610100808354040283529160200191620006a2565b820191906000526020600020905b8154815290600101906020018083116200068457829003601f168201915b5050505050905090565b600033620006bc81858562000bbd565b5060019392505050565b606b80546001600160a01b0390921661010002610100600160a81b0319909216919091179055565b600033620006fe85828562000ce5565b6200070b85858562000d66565b506001949350505050565b600033620006bc8185856200072c838362000b43565b6200073891906200205a565b62000bbd565b60006200074c600162000ee6565b9050801562000765576000805461ff0019166101001790555b62000771838362000f7b565b6200077b62000fb5565b8015620007c2576000805461ff0019169055604051600181527f7f26b83ff96e1f2b6a682f133852f6798a09c465da95921460cefb38474024989060200160405180910390a15b505050565b6065546001600160a01b03163314620007fd5760405162461bcd60e51b8152600401620007f49062002075565b60405180910390fd5b606b5460405163534c6bcb60e01b815261ffff80861660048301528085166024830152831660448201526101009091046001600160a01b03169063534c6bcb90606401600060405180830381600087803b1580156200085b57600080fd5b505af115801562000870573d6000803e3d6000fd5b50505050505050565b6065546001600160a01b03163314620008a65760405162461bcd60e51b8152600401620007f49062002075565b606680546001600160a01b03191661dead179055565b6065546001600160a01b03163314620008e95760405162461bcd60e51b8152600401620007f49062002075565b606b5460ff16156200093e5760405162461bcd60e51b815260206004820152601860248201527f54726164696e6720616c726561647920656e61626c65642100000000000000006044820152606401620007f4565b606b805460ff19166001179055565b606060378054620006239062002008565b600033816200096e828662000b43565b905083811015620009d05760405162461bcd60e51b815260206004820152602560248201527f45524332303a2064656372656173656420616c6c6f77616e63652062656c6f77604482015264207a65726f60d81b6064820152608401620007f4565b6200070b828686840362000bbd565b600033620006bc81858562000d66565b6000620009fe600283620020aa565b90504762000a14606c546001600160a01b031690565b6001600160a01b031663f7a7657630306040516001600160e01b031960e085901b1681526001600160a01b0392831660048201529116602482015260448101859052606401600060405180830381600087803b15801562000a7457600080fd5b505af115801562000a89573d6000803e3d6000fd5b505050506000814762000a9d9190620020cd565b905062000ab2606c546001600160a01b031690565b6001600160a01b031663cf6c62ea306065546001600160a01b03166040516001600160e01b031960e085901b1681526001600160a01b039283166004820152911660248201526044810186905260648101849052608401600060405180830381600087803b15801562000b2457600080fd5b505af115801562000b39573d6000803e3d6000fd5b5050505050505050565b6001600160a01b03918216600090815260346020908152604080832093909416825291909152205490565b6065546001600160a01b0316331462000b9b5760405162461bcd60e51b8152600401620007f49062002075565b606580546001600160a01b0319166001600160a01b0392909216919091179055565b6001600160a01b03831662000c215760405162461bcd60e51b8152602060048201526024808201527f45524332303a20617070726f76652066726f6d20746865207a65726f206164646044820152637265737360e01b6064820152608401620007f4565b6001600160a01b03821662000c845760405162461bcd60e51b815260206004820152602260248201527f45524332303a20617070726f766520746f20746865207a65726f206164647265604482015261737360f01b6064820152608401620007f4565b6001600160a01b0383811660008181526034602090815260408083209487168084529482529182902085905590518481527f8c5be1e5ebec7d5bd14f71427d1e84f3dd0314c0f7b2291e5b200ac8c7c3b925910160405180910390a3505050565b600062000cf3848462000b43565b9050600019811462000d60578181101562000d515760405162461bcd60e51b815260206004820152601d60248201527f45524332303a20696e73756666696369656e7420616c6c6f77616e63650000006044820152606401620007f4565b62000d60848484840362000bbd565b50505050565b62000d738383836200107e565b606c546001600160a01b03166001600160a01b031663cc9968996040518163ffffffff1660e01b8152600401602060405180830381865afa15801562000dbd573d6000803e3d6000fd5b505050506040513d601f19601f8201168201806040525081019062000de39190620020e7565b1562000df657620007c2838383620012e7565b62000e028383620014bf565b1562000ed957600062000e1530620003f3565b905062000e2a606c546001600160a01b031690565b6001600160a01b0316632c4a73613061271062000e4985600c6200210b565b62000e559190620020aa565b6040516001600160e01b031960e085901b1681526001600160a01b0390921660048301526024820152604401600060405180830381600087803b15801562000e9c57600080fd5b505af115801562000eb1573d6000803e3d6000fd5b5050505062000ed761271082607b62000ecb91906200210b565b620005919190620020aa565b505b620007c2838383620016b0565b60008054610100900460ff161562000f32578160ff16600114801562000f0b5750303b155b62000f2a5760405162461bcd60e51b8152600401620007f4906200212d565b506000919050565b60005460ff80841691161062000f5c5760405162461bcd60e51b8152600401620007f4906200212d565b506000805460ff191660ff92909216919091179055600190565b919050565b600054610100900460ff1662000fa55760405162461bcd60e51b8152600401620007f4906200217b565b62000fb1828262001805565b5050565b62000fbf6200185a565b62000fc96200186f565b62000fd661dead620018a5565b6200105b30606c546001600160a01b031660405163197e8da960e01b8152606160048201526001600160a01b03919091169063197e8da990602401602060405180830381865afa1580156200102f573d6000803e3d6000fd5b505050506040513d601f19601f82011682018060405250810190620010559190620021c6565b62001945565b6200106562001aed565b6200107c336a52b7d2dcc80cd2e400000062001b89565b565b6001600160a01b038316620010ec5760405162461bcd60e51b815260206004820152602d60248201527f45524332303a207472616e736665722066726f6d20746865205a45524f5f414460448201526c4452455353206164647265737360981b6064820152608401620007f4565b6001600160a01b038216620011585760405162461bcd60e51b815260206004820152602b60248201527f45524332303a207472616e7366657220746f20746865205a45524f5f4144445260448201526a455353206164647265737360a81b6064820152608401620007f4565b60008111620011c45760405162461bcd60e51b815260206004820152603160248201527f5472616e7366657220616d6f756e74206d7573742062652067726561746572206044820152707468616e205a45524f5f4144445245535360781b6064820152608401620007f4565b6065546001600160a01b03848116911614801590620011f157506065546001600160a01b03838116911614155b80156200120657506001600160a01b03821615155b80156200121e57506001600160a01b03821661dead14155b8015620012985750606c546001600160a01b03166001600160a01b031663cc9968996040518163ffffffff1660e01b8152600401602060405180830381865afa15801562001270573d6000803e3d6000fd5b505050506040513d601f19601f82011682018060405250810190620012969190620020e7565b155b15620007c257606b5460ff16620007c25760405162461bcd60e51b815260206004820152601260248201527154726164696e67206e6f742061637469766560701b6044820152606401620007f4565b6001600160a01b0383166200134d5760405162461bcd60e51b815260206004820152602560248201527f45524332303a207472616e736665722066726f6d20746865207a65726f206164604482015264647265737360d81b6064820152608401620007f4565b6001600160a01b038216620013b15760405162461bcd60e51b815260206004820152602360248201527f45524332303a207472616e7366657220746f20746865207a65726f206164647260448201526265737360e81b6064820152608401620007f4565b6001600160a01b038316600090815260336020526040902054818110156200142b5760405162461bcd60e51b815260206004820152602660248201527f45524332303a207472616e7366657220616d6f756e7420657863656564732062604482015265616c616e636560d01b6064820152608401620007f4565b6001600160a01b03808516600090815260336020526040808220858503905591851681529081208054849290620014649084906200205a565b92505081905550826001600160a01b0316846001600160a01b03167fddf252ad1be2c89b69c2b068fc378daa952ba7f163c4a11628f55a4df523b3ef84604051620014b191815260200190565b60405180910390a362000d60565b600080620014cd30620003f3565b9050620014d960685490565b8110158015620015565750606c546001600160a01b03166001600160a01b031663cc9968996040518163ffffffff1660e01b8152600401602060405180830381865afa1580156200152e573d6000803e3d6000fd5b505050506040513d601f19601f82011682018060405250810190620015549190620020e7565b155b80156200157157506067546001600160a01b03858116911614155b8015620015945750600062001592620003f36067546001600160a01b031690565b115b80156200161e5750606b5461010090046001600160a01b03166040516314d0ab2d60e21b81526001600160a01b0385811660048301529190911690635342acb490602401602060405180830381865afa158015620015f6573d6000803e3d6000fd5b505050506040513d601f19601f820116820180604052508101906200161c9190620020e7565b155b8015620016a85750606b5461010090046001600160a01b03166040516314d0ab2d60e21b81526001600160a01b0386811660048301529190911690635342acb490602401602060405180830381865afa15801562001680573d6000803e3d6000fd5b505050506040513d601f19601f82011682018060405250810190620016a69190620020e7565b155b949350505050565b8060006001620016ce606b546001600160a01b036101009091041690565b6040516314d0ab2d60e21b81526001600160a01b0388811660048301529190911690635342acb490602401602060405180830381865afa15801562001717573d6000803e3d6000fd5b505050506040513d601f19601f820116820180604052508101906200173d9190620020e7565b80620017c45750606b5461010090046001600160a01b03166040516314d0ab2d60e21b81526001600160a01b0387811660048301529190911690635342acb490602401602060405180830381865afa1580156200179e573d6000803e3d6000fd5b505050506040513d601f19601f82011682018060405250810190620017c49190620020e7565b15620017ce575060005b8015620017f057620017e18285620020cd565b9250620017f0863084620012e7565b620017fd868685620012e7565b505050505050565b600054610100900460ff166200182f5760405162461bcd60e51b8152600401620007f4906200217b565b81516200184490603690602085019062001c6e565b508051620007c290603790602084019062001c6e565b620018653362000b6e565b6200107c62000879565b6200107c604051620018819062001cfd565b604051809103906000f0801580156200189e573d6000803e3d6000fd5b50620006c6565b6065546001600160a01b03163314620018d25760405162461bcd60e51b8152600401620007f49062002075565b8061dead6061604051620018e69062001d0b565b6001600160a01b0393841681529290911660208301526040820152606001604051809103906000f08015801562001921573d6000803e3d6000fd5b50606c80546001600160a01b0319166001600160a01b039290921691909117905550565b6065546001600160a01b03163314620019725760405162461bcd60e51b8152600401620007f49062002075565b606c60009054906101000a90046001600160a01b03166001600160a01b03166385954d8c6040518163ffffffff1660e01b8152600401602060405180830381865afa158015620019c6573d6000803e3d6000fd5b505050506040513d601f19601f82011682018060405250810190620019ec9190620021c6565b6001600160a01b031663c45a01556040518163ffffffff1660e01b8152600401602060405180830381865afa15801562001a2a573d6000803e3d6000fd5b505050506040513d601f19601f8201168201806040525081019062001a509190620021c6565b6040516364e329cb60e11b81526001600160a01b0384811660048301528381166024830152919091169063c9c65396906044016020604051808303816000875af115801562001aa3573d6000803e3d6000fd5b505050506040513d601f19601f8201168201806040525081019062001ac99190620021c6565b606780546001600160a01b0319166001600160a01b03929092169190911790555050565b62001b723362001b05606c546001600160a01b031690565b6001600160a01b031663b9c552416040518163ffffffff1660e01b8152600401602060405180830381865afa15801562001b43573d6000803e3d6000fd5b505050506040513d601f19601f8201168201806040525081019062001b699190620021c6565b60001962000bbd565b6200107c30606c546001600160a01b031662001b05565b6001600160a01b03821662001be15760405162461bcd60e51b815260206004820152601f60248201527f45524332303a206d696e7420746f20746865207a65726f2061646472657373006044820152606401620007f4565b806035600082825462001bf591906200205a565b90915550506001600160a01b0382166000908152603360205260408120805483929062001c249084906200205a565b90915550506040518181526001600160a01b038316906000907fddf252ad1be2c89b69c2b068fc378daa952ba7f163c4a11628f55a4df523b3ef9060200160405180910390a35050565b82805462001c7c9062002008565b90600052602060002090601f01602090048101928262001ca0576000855562001ceb565b82601f1062001cbb57805160ff191683800117855562001ceb565b8280016001018555821562001ceb579182015b8281111562001ceb57825182559160200191906001019062001cce565b5062001cf992915062001d19565b5090565b61026180620021e783390190565b61097e806200244883390190565b5b8082111562001cf9576000815560010162001d1a565b600060208083528351808285015260005b8181101562001d5f5785810183015185820160400152820162001d41565b8181111562001d72576000604083870101525b50601f01601f1916929092016040019392505050565b6001600160a01b038116811462001d9e57600080fd5b50565b6000806040838503121562001db557600080fd5b823562001dc28162001d88565b946020939093013593505050565b60006020828403121562001de357600080fd5b813562001df08162001d88565b9392505050565b60006020828403121562001e0a57600080fd5b5035919050565b60008060006060848603121562001e2757600080fd5b833562001e348162001d88565b9250602084013562001e468162001d88565b929592945050506040919091013590565b634e487b7160e01b600052604160045260246000fd5b600082601f83011262001e7f57600080fd5b813567ffffffffffffffff8082111562001e9d5762001e9d62001e57565b604051601f8301601f19908116603f0116810190828211818310171562001ec85762001ec862001e57565b8160405283815286602085880101111562001ee257600080fd5b836020870160208301376000602085830101528094505050505092915050565b6000806040838503121562001f1657600080fd5b823567ffffffffffffffff8082111562001f2f57600080fd5b62001f3d8683870162001e6d565b9350602085013591508082111562001f5457600080fd5b5062001f638582860162001e6d565b9150509250929050565b803561ffff8116811462000f7657600080fd5b60008060006060848603121562001f9657600080fd5b62001fa18462001f6d565b925062001fb16020850162001f6d565b915062001fc16040850162001f6d565b90509250925092565b6000806040838503121562001fde57600080fd5b823562001feb8162001d88565b9150602083013562001ffd8162001d88565b809150509250929050565b600181811c908216806200201d57607f821691505b6020821081036200203e57634e487b7160e01b600052602260045260246000fd5b50919050565b634e487b7160e01b600052601160045260246000fd5b6000821982111562002070576200207062002044565b500190565b6020808252818101527f4f776e61626c653a2063616c6c6572206973206e6f7420746865206f776e6572604082015260600190565b600082620020c857634e487b7160e01b600052601260045260246000fd5b500490565b600082821015620020e257620020e262002044565b500390565b600060208284031215620020fa57600080fd5b8151801515811462001df057600080fd5b600081600019048311821515161562002128576200212862002044565b500290565b6020808252602e908201527f496e697469616c697a61626c653a20636f6e747261637420697320616c72656160408201526d191e481a5b9a5d1a585b1a5e995960921b606082015260800190565b6020808252602b908201527f496e697469616c697a61626c653a20636f6e7472616374206973206e6f74206960408201526a6e697469616c697a696e6760a81b606082015260800190565b600060208284031215620021d957600080fd5b815162001df08162001d8856fe608060405234801561001057600080fd5b50612710600155604080516060810182526000808252602082018190529101819052805465ffffffffffff191690556102138061004e6000396000f3fe608060405234801561001057600080fd5b50600436106100415760003560e01c80635342acb414610046578063534c6bcb146100865780636612e66f146100d5575b600080fd5b61007261005436600461012a565b6001600160a01b031660009081526002602052604090205460ff1690565b604051901515815260200160405180910390f35b6100d361009436600461015e565b6000805461ffff94851663ffffffff199091161762010000938516939093029290921765ffff0000000019166401000000009190931602919091179055565b005b6100d36100e33660046101a1565b6001600160a01b03919091166000908152600260205260409020805460ff1916911515919091179055565b80356001600160a01b038116811461012557600080fd5b919050565b60006020828403121561013c57600080fd5b6101458261010e565b9392505050565b803561ffff8116811461012557600080fd5b60008060006060848603121561017357600080fd5b61017c8461014c565b925061018a6020850161014c565b91506101986040850161014c565b90509250925092565b600080604083850312156101b457600080fd5b6101bd8361010e565b9150602083013580151581146101d257600080fd5b80915050925092905056fea26469706673582212207be271e469dec215469c176c6b929400a380c02731bba30af945d0bb85b82f5c64736f6c634300080e0033608060405234801561001057600080fd5b5060405161097e38038061097e83398101604081905261002f91610082565b600080546001600160a01b039485166001600160a01b031991821617909155600291909155600180549290931691161790556100be565b80516001600160a01b038116811461007d57600080fd5b919050565b60008060006060848603121561009757600080fd5b6100a084610066565b92506100ae60208501610066565b9150604084015190509250925092565b6108b1806100cd6000396000f3fe608060405234801561001057600080fd5b506004361061007d5760003560e01c8063b9c552411161005b578063b9c55241146100c7578063cc996899146100d8578063cf6c62ea146100f5578063f7a765761461010857600080fd5b8063197e8da9146100825780632c4a7361146100b257806385954d8c146100c7575b600080fd5b61009561009036600461067d565b61011b565b6040516001600160a01b0390911681526020015b60405180910390f35b6100c56100c03660046106ae565b610237565b005b6000546001600160a01b0316610095565b600154600160a01b900460ff1660405190151581526020016100a9565b6100c56101033660046106da565b6103e1565b6100c5610116366004610720565b610514565b6000738da86f4c82ed03b45e1d47858b7e04eca2e9b98860618390036101565750738da86f4c82ed03b45e1d47858b7e04eca2e9b9886101bb565b826061036101795750738da86f4c82ed03b45e1d47858b7e04eca2e9b9886101bb565b60405162461bcd60e51b8152602060048201526013602482015272756e737570706f72746564206e6574776f726b60681b604482015260640160405180910390fd5b60008054906101000a90046001600160a01b03166001600160a01b031663ad5c46486040518163ffffffff1660e01b8152600401602060405180830381865afa15801561020c573d6000803e3d6000fd5b505050506040513d601f19601f820116820180604052508101906102309190610761565b9392505050565b6040805160038082526080820190925260009160208201606080368337019050509050308160008151811061026e5761026e61077e565b60200260200101906001600160a01b031690816001600160a01b03168152505061029960025461011b565b816001815181106102ac576102ac61077e565b6001600160a01b0392831660209182029290920101526001548251911690829060029081106102dd576102dd61077e565b6001600160a01b03928316602091820292909201015260015460005460405163095ea7b360e01b81529083166004820152600019602482015291169063095ea7b3906044016020604051808303816000875af1158015610341573d6000803e3d6000fd5b505050506040513d601f19601f820116820180604052508101906103659190610794565b50600080546001600160a01b031690635c11d795908490848761038a426103e86107b6565b6040518663ffffffff1660e01b81526004016103aa9594939291906107dc565b600060405180830381600087803b1580156103c457600080fd5b505af11580156103d8573d6000803e3d6000fd5b50505050505050565b60005460405163095ea7b360e01b81526001600160a01b03918216600482015260001960248201529085169063095ea7b3906044016020604051808303816000875af1158015610435573d6000803e3d6000fd5b505050506040513d601f19601f820116820180604052508101906104599190610794565b50600080546001600160a01b03169063f305d719908390309086908089610482426127106107b6565b60405160e089901b6001600160e01b03191681526001600160a01b039687166004820152602481019590955260448501939093526064840191909152909216608482015260a481019190915260c40160606040518083038185885af11580156104ef573d6000803e3d6000fd5b50505050506040513d601f19601f820116820180604052508101906103d8919061084d565b60408051600280825260608201835260009260208301908036833701905050905083816000815181106105495761054961077e565b60200260200101906001600160a01b031690816001600160a01b03168152505061057460025461011b565b816001815181106105875761058761077e565b6001600160a01b03928316602091820292909201015260005460405163095ea7b360e01b8152908216600482015260001960248201529085169063095ea7b3906044016020604051808303816000875af11580156105e9573d6000803e3d6000fd5b505050506040513d601f19601f8201168201806040525081019061060d9190610794565b506000805460405163791ac94760e01b81526001600160a01b039091169163791ac947916106459186918690899042906004016107dc565b600060405180830381600087803b15801561065f57600080fd5b505af1158015610673573d6000803e3d6000fd5b5050505050505050565b60006020828403121561068f57600080fd5b5035919050565b6001600160a01b03811681146106ab57600080fd5b50565b600080604083850312156106c157600080fd5b82356106cc81610696565b946020939093013593505050565b600080600080608085870312156106f057600080fd5b84356106fb81610696565b9350602085013561070b81610696565b93969395505050506040820135916060013590565b60008060006060848603121561073557600080fd5b833561074081610696565b9250602084013561075081610696565b929592945050506040919091013590565b60006020828403121561077357600080fd5b815161023081610696565b634e487b7160e01b600052603260045260246000fd5b6000602082840312156107a657600080fd5b8151801515811461023057600080fd5b600082198211156107d757634e487b7160e01b600052601160045260246000fd5b500190565b600060a082018783526020878185015260a0604085015281875180845260c086019150828901935060005b8181101561082c5784516001600160a01b031683529383019391830191600101610807565b50506001600160a01b03969096166060850152505050608001529392505050565b60008060006060848603121561086257600080fd5b835192506020840151915060408401519050925092509256fea2646970667358221220076652d257befe513655eea3454f1cb5b79838de0b2f4f34687b088a67ac539164736f6c634300080e0033a264697066735822122043762ffe63bcaa4cdf8bbe237c9dc177e655bb57f2739ed81461a81789e8e9aa64736f6c634300080e0033",
    "sourcePath": "/home/nkt/Desktop/metaStoksContracts/contracts/metaStocks/MetaStocksERC20Upgradeable.sol",
    "compiler": {
        "name": "solc",
        "version": "0.8.14+commit.80d49f37"
    },
    "functionHashes": {
        "allowance(address,address)": "dd62ed3e",
        "approve(address,uint256)": "095ea7b3",
        "autoInjectLiquidity(uint256)": "d203abb6",
        "automatedMarketMakerPairs(address)": "b62496f5",
        "balanceOf(address)": "70a08231",
        "decimals()": "313ce567",
        "decreaseAllowance(address,uint256)": "a457c2d7",
        "enableTrading()": "8a8c523c",
        "getDexRouterManager()": "3da77333",
        "getFeesManager()": "c762819b",
        "getLPPair()": "86f3f3cb",
        "getOwner()": "893d20e8",
        "getSwapThreshold()": "f005f2ca",
        "getTradingEnabled()": "fa83cb58",
        "increaseAllowance(address,uint256)": "39509351",
        "initialize(string,string)": "4cd88b76",
        "name()": "06fdde03",
        "self()": "7104ddb2",
        "setDeadAddress()": "81fd3b00",
        "setFees(uint16,uint16,uint16)": "534c6bcb",
        "setFeesManager(address)": "1c89382a",
        "setMaxTransactionAmount(uint256)": "1e293c10",
        "setMaxWalletAmount(uint256)": "27a14fc2",
        "setSwapThreshold(uint256)": "9d0014b1",
        "symbol()": "95d89b41",
        "totalSupply()": "18160ddd",
        "transfer(address,uint256)": "a9059cbb",
        "transferFrom(address,address,uint256)": "23b872dd",
        "transferOwnership(address)": "f2fde38b"
    },
    "gasEstimates": {
        "creation": {
            "codeDepositCost": "2354200",
            "executionCost": "2523",
            "totalCost": "2356723"
        },
        "external": {
            "allowance(address,address)": "infinite",
            "approve(address,uint256)": "24664",
            "autoInjectLiquidity(uint256)": "infinite",
            "automatedMarketMakerPairs(address)": "2592",
            "balanceOf(address)": "2620",
            "decimals()": "223",
            "decreaseAllowance(address,uint256)": "27055",
            "enableTrading()": "28679",
            "getDexRouterManager()": "2410",
            "getFeesManager()": "2431",
            "getLPPair()": "2399",
            "getOwner()": "2421",
            "getSwapThreshold()": "2358",
            "getTradingEnabled()": "2414",
            "increaseAllowance(address,uint256)": "27040",
            "initialize(string,string)": "infinite",
            "name()": "infinite",
            "self()": "323",
            "setDeadAddress()": "26566",
            "setFees(uint16,uint16,uint16)": "infinite",
            "setFeesManager(address)": "24622",
            "setMaxTransactionAmount(uint256)": "22380",
            "setMaxWalletAmount(uint256)": "22424",
            "setSwapThreshold(uint256)": "22401",
            "symbol()": "infinite",
            "totalSupply()": "2372",
            "transfer(address,uint256)": "infinite",
            "transferFrom(address,address,uint256)": "infinite",
            "transferOwnership(address)": "26793"
        },
        "internal": {
            "_beforeTransferCheck(address,address,uint256)": "infinite",
            "_finalizeTransfer(address,address,uint256)": "infinite",
            "_transfer(address,address,uint256)": "infinite",
            "contractMustSwap(address,address)": "infinite",
            "doInitialApproves()": "infinite",
            "initAddressess()": "infinite",
            "initContracts()": "infinite",
            "initValues()": "infinite",
            "initializeContract()": "infinite"
        }
    }
}