{
  "_format": "hh-sol-artifact-1",
  "contractName": "MetaStocksFranchiseShareManager",
  "sourceName": "contracts/managers/metastocks/MetaStocksFranchiseShareManager.sol",
  "abi": [
    {
      "anonymous": false,
      "inputs": [
        {
          "indexed": true,
          "internalType": "address",
          "name": "owner",
          "type": "address"
        },
        {
          "indexed": true,
          "internalType": "address",
          "name": "spender",
          "type": "address"
        },
        {
          "indexed": false,
          "internalType": "uint256",
          "name": "value",
          "type": "uint256"
        }
      ],
      "name": "Approval",
      "type": "event"
    },
    {
      "anonymous": false,
      "inputs": [
        {
          "indexed": false,
          "internalType": "uint8",
          "name": "version",
          "type": "uint8"
        }
      ],
      "name": "Initialized",
      "type": "event"
    },
    {
      "anonymous": false,
      "inputs": [
        {
          "indexed": true,
          "internalType": "address",
          "name": "previousOwner",
          "type": "address"
        },
        {
          "indexed": true,
          "internalType": "address",
          "name": "newOwner",
          "type": "address"
        }
      ],
      "name": "OwnershipTransferred",
      "type": "event"
    },
    {
      "anonymous": false,
      "inputs": [
        {
          "indexed": true,
          "internalType": "address",
          "name": "from",
          "type": "address"
        },
        {
          "indexed": true,
          "internalType": "address",
          "name": "to",
          "type": "address"
        },
        {
          "indexed": false,
          "internalType": "uint256",
          "name": "value",
          "type": "uint256"
        }
      ],
      "name": "Transfer",
      "type": "event"
    },
    {
      "inputs": [
        {
          "internalType": "address",
          "name": "owner",
          "type": "address"
        },
        {
          "internalType": "address",
          "name": "spender",
          "type": "address"
        }
      ],
      "name": "allowance",
      "outputs": [
        {
          "internalType": "uint256",
          "name": "",
          "type": "uint256"
        }
      ],
      "stateMutability": "view",
      "type": "function"
    },
    {
      "inputs": [
        {
          "internalType": "address",
          "name": "spender",
          "type": "address"
        },
        {
          "internalType": "uint256",
          "name": "amount",
          "type": "uint256"
        }
      ],
      "name": "approve",
      "outputs": [
        {
          "internalType": "bool",
          "name": "",
          "type": "bool"
        }
      ],
      "stateMutability": "nonpayable",
      "type": "function"
    },
    {
      "inputs": [
        {
          "internalType": "address",
          "name": "account",
          "type": "address"
        }
      ],
      "name": "balanceOf",
      "outputs": [
        {
          "internalType": "uint256",
          "name": "",
          "type": "uint256"
        }
      ],
      "stateMutability": "view",
      "type": "function"
    },
    {
      "inputs": [
        {
          "internalType": "address",
          "name": "to",
          "type": "address"
        },
        {
          "internalType": "uint256",
          "name": "companyId",
          "type": "uint256"
        },
        {
          "internalType": "enum MetaStocksFranchiseType",
          "name": "_metaStocksFranchiseType",
          "type": "uint8"
        },
        {
          "internalType": "bytes",
          "name": "data",
          "type": "bytes"
        }
      ],
      "name": "createMetaStocksFranchiseShare",
      "outputs": [],
      "stateMutability": "nonpayable",
      "type": "function"
    },
    {
      "inputs": [],
      "name": "decimals",
      "outputs": [
        {
          "internalType": "uint8",
          "name": "",
          "type": "uint8"
        }
      ],
      "stateMutability": "view",
      "type": "function"
    },
    {
      "inputs": [
        {
          "internalType": "address",
          "name": "spender",
          "type": "address"
        },
        {
          "internalType": "uint256",
          "name": "subtractedValue",
          "type": "uint256"
        }
      ],
      "name": "decreaseAllowance",
      "outputs": [
        {
          "internalType": "bool",
          "name": "",
          "type": "bool"
        }
      ],
      "stateMutability": "nonpayable",
      "type": "function"
    },
    {
      "inputs": [
        {
          "internalType": "address",
          "name": "spender",
          "type": "address"
        },
        {
          "internalType": "uint256",
          "name": "addedValue",
          "type": "uint256"
        }
      ],
      "name": "increaseAllowance",
      "outputs": [
        {
          "internalType": "bool",
          "name": "",
          "type": "bool"
        }
      ],
      "stateMutability": "nonpayable",
      "type": "function"
    },
    {
      "inputs": [
        {
          "internalType": "address",
          "name": "_metaStocksFranchiseAddress",
          "type": "address"
        }
      ],
      "name": "initialize",
      "outputs": [],
      "stateMutability": "nonpayable",
      "type": "function"
    },
    {
      "inputs": [],
      "name": "name",
      "outputs": [
        {
          "internalType": "string",
          "name": "",
          "type": "string"
        }
      ],
      "stateMutability": "view",
      "type": "function"
    },
    {
      "inputs": [
        {
          "internalType": "address",
          "name": "",
          "type": "address"
        },
        {
          "internalType": "address",
          "name": "",
          "type": "address"
        },
        {
          "internalType": "uint256[]",
          "name": "",
          "type": "uint256[]"
        },
        {
          "internalType": "uint256[]",
          "name": "",
          "type": "uint256[]"
        },
        {
          "internalType": "bytes",
          "name": "",
          "type": "bytes"
        }
      ],
      "name": "onERC1155BatchReceived",
      "outputs": [
        {
          "internalType": "bytes4",
          "name": "",
          "type": "bytes4"
        }
      ],
      "stateMutability": "nonpayable",
      "type": "function"
    },
    {
      "inputs": [
        {
          "internalType": "address",
          "name": "",
          "type": "address"
        },
        {
          "internalType": "address",
          "name": "",
          "type": "address"
        },
        {
          "internalType": "uint256",
          "name": "",
          "type": "uint256"
        },
        {
          "internalType": "uint256",
          "name": "",
          "type": "uint256"
        },
        {
          "internalType": "bytes",
          "name": "",
          "type": "bytes"
        }
      ],
      "name": "onERC1155Received",
      "outputs": [
        {
          "internalType": "bytes4",
          "name": "",
          "type": "bytes4"
        }
      ],
      "stateMutability": "nonpayable",
      "type": "function"
    },
    {
      "inputs": [],
      "name": "owner",
      "outputs": [
        {
          "internalType": "address",
          "name": "",
          "type": "address"
        }
      ],
      "stateMutability": "view",
      "type": "function"
    },
    {
      "inputs": [],
      "name": "renounceOwnership",
      "outputs": [],
      "stateMutability": "nonpayable",
      "type": "function"
    },
    {
      "inputs": [],
      "name": "self",
      "outputs": [
        {
          "internalType": "address",
          "name": "",
          "type": "address"
        }
      ],
      "stateMutability": "view",
      "type": "function"
    },
    {
      "inputs": [
        {
          "internalType": "bytes4",
          "name": "interfaceId",
          "type": "bytes4"
        }
      ],
      "name": "supportsInterface",
      "outputs": [
        {
          "internalType": "bool",
          "name": "",
          "type": "bool"
        }
      ],
      "stateMutability": "view",
      "type": "function"
    },
    {
      "inputs": [],
      "name": "symbol",
      "outputs": [
        {
          "internalType": "string",
          "name": "",
          "type": "string"
        }
      ],
      "stateMutability": "view",
      "type": "function"
    },
    {
      "inputs": [],
      "name": "totalSupply",
      "outputs": [
        {
          "internalType": "uint256",
          "name": "",
          "type": "uint256"
        }
      ],
      "stateMutability": "view",
      "type": "function"
    },
    {
      "inputs": [
        {
          "internalType": "address",
          "name": "to",
          "type": "address"
        },
        {
          "internalType": "uint256",
          "name": "amount",
          "type": "uint256"
        }
      ],
      "name": "transfer",
      "outputs": [
        {
          "internalType": "bool",
          "name": "",
          "type": "bool"
        }
      ],
      "stateMutability": "nonpayable",
      "type": "function"
    },
    {
      "inputs": [
        {
          "internalType": "address",
          "name": "from",
          "type": "address"
        },
        {
          "internalType": "address",
          "name": "to",
          "type": "address"
        },
        {
          "internalType": "uint256",
          "name": "amount",
          "type": "uint256"
        }
      ],
      "name": "transferFrom",
      "outputs": [
        {
          "internalType": "bool",
          "name": "",
          "type": "bool"
        }
      ],
      "stateMutability": "nonpayable",
      "type": "function"
    },
    {
      "inputs": [
        {
          "internalType": "address",
          "name": "newOwner",
          "type": "address"
        }
      ],
      "name": "transferOwnership",
      "outputs": [],
      "stateMutability": "nonpayable",
      "type": "function"
    }
  ],
  "bytecode": "0x608060405234801561001057600080fd5b50611235806100206000396000f3fe608060405234801561001057600080fd5b506004361061012c5760003560e01c80638da5cb5b116100ad578063bc197c8111610071578063bc197c8114610267578063c4d66de81461029f578063dd62ed3e146102b2578063f23a6e61146102c5578063f2fde38b146102e457600080fd5b80638da5cb5b1461021557806395d89b4114610226578063a06ec7771461022e578063a457c2d714610241578063a9059cbb1461025457600080fd5b8063313ce567116100f4578063313ce567146101a657806339509351146101b557806370a08231146101c85780637104ddb2146101f1578063715018a61461020b57600080fd5b806301ffc9a71461013157806306fdde0314610159578063095ea7b31461016e57806318160ddd1461018157806323b872dd14610193575b600080fd5b61014461013f366004610c67565b6102f7565b60405190151581526020015b60405180910390f35b610161610308565b6040516101509190610ce5565b61014461017c366004610d0f565b61039a565b6035545b604051908152602001610150565b6101446101a1366004610d39565b6103b2565b60405160128152602001610150565b6101446101c3366004610d0f565b6103d6565b6101856101d6366004610d75565b6001600160a01b031660009081526033602052604090205490565b305b6040516001600160a01b039091168152602001610150565b6102136103f8565b005b6065546001600160a01b03166101f3565b610161610437565b61021361023c366004610e45565b610446565b61014461024f366004610d0f565b610539565b610144610262366004610d0f565b6105b4565b610286610275366004610f31565b63bc197c8160e01b95945050505050565b6040516001600160e01b03199091168152602001610150565b6102136102ad366004610d75565b6105c2565b6101856102c0366004610fda565b6106c1565b6102866102d336600461100d565b63f23a6e6160e01b95945050505050565b6102136102f2366004610d75565b6106ec565b600061030282610787565b92915050565b60606036805461031790611071565b80601f016020809104026020016040519081016040528092919081815260200182805461034390611071565b80156103905780601f1061036557610100808354040283529160200191610390565b820191906000526020600020905b81548152906001019060200180831161037357829003601f168201915b5050505050905090565b6000336103a88185856107bc565b5060019392505050565b6000336103c08582856108e0565b6103cb85858561095a565b506001949350505050565b6000336103a88185856103e983836106c1565b6103f391906110c1565b6107bc565b6065546001600160a01b0316331461042b5760405162461bcd60e51b8152600401610422906110d9565b60405180910390fd5b6104356000610b28565b565b60606037805461031790611071565b60005b609a548110156104c857609b805460018181019092557fbba9db4cdbea0a37c207bbb83e20f828cd4441c49891101dc94fd20dc8efc34901819055609c805480830182556000919091527faf85b9071dfafeac1409d3f1d19bafc9bc7c37974cde8df0ee6168f0086e539c0155806104c08161110e565b915050610449565b50609754604051630fbfeffd60e11b81526001600160a01b0390911690631f7fdffa90610501908790609b90609c908790600401611167565b600060405180830381600087803b15801561051b57600080fd5b505af115801561052f573d6000803e3d6000fd5b5050505050505050565b6000338161054782866106c1565b9050838110156105a75760405162461bcd60e51b815260206004820152602560248201527f45524332303a2064656372656173656420616c6c6f77616e63652062656c6f77604482015264207a65726f60d81b6064820152608401610422565b6103cb82868684036107bc565b6000336103a881858561095a565b60006105ce6001610b7a565b905080156105e6576000805461ff0019166101001790555b6064609a81905560408051828152610ca081019091529060208201610c80803683375050815161061d92609b925060200190610c07565b50609a546001600160401b0381111561063857610638610d90565b604051908082528060200260200182016040528015610661578160200160208202803683370190505b50805161067691609c91602090910190610c07565b5080156106bd576000805461ff0019169055604051600181527f7f26b83ff96e1f2b6a682f133852f6798a09c465da95921460cefb38474024989060200160405180910390a15b5050565b6001600160a01b03918216600090815260346020908152604080832093909416825291909152205490565b6065546001600160a01b031633146107165760405162461bcd60e51b8152600401610422906110d9565b6001600160a01b03811661077b5760405162461bcd60e51b815260206004820152602660248201527f4f776e61626c653a206e6577206f776e657220697320746865207a65726f206160448201526564647265737360d01b6064820152608401610422565b61078481610b28565b50565b60006001600160e01b03198216630271189760e51b148061030257506301ffc9a760e01b6001600160e01b0319831614610302565b6001600160a01b03831661081e5760405162461bcd60e51b8152602060048201526024808201527f45524332303a20617070726f76652066726f6d20746865207a65726f206164646044820152637265737360e01b6064820152608401610422565b6001600160a01b03821661087f5760405162461bcd60e51b815260206004820152602260248201527f45524332303a20617070726f766520746f20746865207a65726f206164647265604482015261737360f01b6064820152608401610422565b6001600160a01b0383811660008181526034602090815260408083209487168084529482529182902085905590518481527f8c5be1e5ebec7d5bd14f71427d1e84f3dd0314c0f7b2291e5b200ac8c7c3b925910160405180910390a3505050565b60006108ec84846106c1565b9050600019811461095457818110156109475760405162461bcd60e51b815260206004820152601d60248201527f45524332303a20696e73756666696369656e7420616c6c6f77616e63650000006044820152606401610422565b61095484848484036107bc565b50505050565b6001600160a01b0383166109be5760405162461bcd60e51b815260206004820152602560248201527f45524332303a207472616e736665722066726f6d20746865207a65726f206164604482015264647265737360d81b6064820152608401610422565b6001600160a01b038216610a205760405162461bcd60e51b815260206004820152602360248201527f45524332303a207472616e7366657220746f20746865207a65726f206164647260448201526265737360e81b6064820152608401610422565b6001600160a01b03831660009081526033602052604090205481811015610a985760405162461bcd60e51b815260206004820152602660248201527f45524332303a207472616e7366657220616d6f756e7420657863656564732062604482015265616c616e636560d01b6064820152608401610422565b6001600160a01b03808516600090815260336020526040808220858503905591851681529081208054849290610acf9084906110c1565b92505081905550826001600160a01b0316846001600160a01b03167fddf252ad1be2c89b69c2b068fc378daa952ba7f163c4a11628f55a4df523b3ef84604051610b1b91815260200190565b60405180910390a3610954565b606580546001600160a01b038381166001600160a01b0319831681179093556040519116919082907f8be0079c531659141344cd1fd0a4f28419497f9722a3daafe3b4186f6b6457e090600090a35050565b60008054610100900460ff1615610bc1578160ff166001148015610b9d5750303b155b610bb95760405162461bcd60e51b8152600401610422906111b1565b506000919050565b60005460ff808416911610610be85760405162461bcd60e51b8152600401610422906111b1565b506000805460ff191660ff92909216919091179055600190565b919050565b828054828255906000526020600020908101928215610c42579160200282015b82811115610c42578251825591602001919060010190610c27565b50610c4e929150610c52565b5090565b5b80821115610c4e5760008155600101610c53565b600060208284031215610c7957600080fd5b81356001600160e01b031981168114610c9157600080fd5b9392505050565b6000815180845260005b81811015610cbe57602081850181015186830182015201610ca2565b81811115610cd0576000602083870101525b50601f01601f19169290920160200192915050565b602081526000610c916020830184610c98565b80356001600160a01b0381168114610c0257600080fd5b60008060408385031215610d2257600080fd5b610d2b83610cf8565b946020939093013593505050565b600080600060608486031215610d4e57600080fd5b610d5784610cf8565b9250610d6560208501610cf8565b9150604084013590509250925092565b600060208284031215610d8757600080fd5b610c9182610cf8565b634e487b7160e01b600052604160045260246000fd5b604051601f8201601f191681016001600160401b0381118282101715610dce57610dce610d90565b604052919050565b600082601f830112610de757600080fd5b81356001600160401b03811115610e0057610e00610d90565b610e13601f8201601f1916602001610da6565b818152846020838601011115610e2857600080fd5b816020850160208301376000918101602001919091529392505050565b60008060008060808587031215610e5b57600080fd5b610e6485610cf8565b9350602085013592506040850135600a8110610e7f57600080fd5b915060608501356001600160401b03811115610e9a57600080fd5b610ea687828801610dd6565b91505092959194509250565b600082601f830112610ec357600080fd5b813560206001600160401b03821115610ede57610ede610d90565b8160051b610eed828201610da6565b9283528481018201928281019087851115610f0757600080fd5b83870192505b84831015610f2657823582529183019190830190610f0d565b979650505050505050565b600080600080600060a08688031215610f4957600080fd5b610f5286610cf8565b9450610f6060208701610cf8565b935060408601356001600160401b0380821115610f7c57600080fd5b610f8889838a01610eb2565b94506060880135915080821115610f9e57600080fd5b610faa89838a01610eb2565b93506080880135915080821115610fc057600080fd5b50610fcd88828901610dd6565b9150509295509295909350565b60008060408385031215610fed57600080fd5b610ff683610cf8565b915061100460208401610cf8565b90509250929050565b600080600080600060a0868803121561102557600080fd5b61102e86610cf8565b945061103c60208701610cf8565b9350604086013592506060860135915060808601356001600160401b0381111561106557600080fd5b610fcd88828901610dd6565b600181811c9082168061108557607f821691505b6020821081036110a557634e487b7160e01b600052602260045260246000fd5b50919050565b634e487b7160e01b600052601160045260246000fd5b600082198211156110d4576110d46110ab565b500190565b6020808252818101527f4f776e61626c653a2063616c6c6572206973206e6f7420746865206f776e6572604082015260600190565b600060018201611120576111206110ab565b5060010190565b6000815480845260208085019450836000528060002060005b8381101561115c57815487529582019560019182019101611140565b509495945050505050565b6001600160a01b038516815260806020820181905260009061118b90830186611127565b828103604084015261119d8186611127565b90508281036060840152610f268185610c98565b6020808252602e908201527f496e697469616c697a61626c653a20636f6e747261637420697320616c72656160408201526d191e481a5b9a5d1a585b1a5e995960921b60608201526080019056fea2646970667358221220ffa429b89638c9f912abb23e4c1f99cea20eec6f65540950d103513ae0add3c864736f6c634300080e0033",
  "linkReferences": {},
  "deployedLinkReferences": {}
}