{
  "_format": "hh-sol-artifact-1",
  "contractName": "MidasMultinetworkRouterManager",
  "sourceName": "contracts/managers/midas/MidasMultinetworkRouterManager.sol",
  "abi": [
    {
      "inputs": [
        {
          "internalType": "address",
          "name": "_dexRouterAddress",
          "type": "address"
        }
      ],
      "stateMutability": "nonpayable",
      "type": "constructor"
    },
    {
      "inputs": [
        {
          "internalType": "address",
          "name": "token",
          "type": "address"
        },
        {
          "internalType": "address",
          "name": "to",
          "type": "address"
        },
        {
          "internalType": "uint256",
          "name": "tokenAmount",
          "type": "uint256"
        },
        {
          "internalType": "uint256",
          "name": "ethAmount",
          "type": "uint256"
        }
      ],
      "name": "addLiquidity",
      "outputs": [],
      "stateMutability": "nonpayable",
      "type": "function"
    },
    {
      "inputs": [],
      "name": "getDexRouter",
      "outputs": [
        {
          "internalType": "contract IMidasMultiNetworkRouter",
          "name": "",
          "type": "address"
        }
      ],
      "stateMutability": "view",
      "type": "function"
    },
    {
      "inputs": [],
      "name": "getDexRouterAddress",
      "outputs": [
        {
          "internalType": "address",
          "name": "",
          "type": "address"
        }
      ],
      "stateMutability": "view",
      "type": "function"
    },
    {
      "inputs": [
        {
          "internalType": "uint256",
          "name": "_networkId",
          "type": "uint256"
        }
      ],
      "name": "getNativeTokenAddress",
      "outputs": [
        {
          "internalType": "address",
          "name": "",
          "type": "address"
        }
      ],
      "stateMutability": "pure",
      "type": "function"
    },
    {
      "inputs": [
        {
          "internalType": "uint256",
          "name": "_networkId",
          "type": "uint256"
        }
      ],
      "name": "getStableCoinAddress",
      "outputs": [
        {
          "internalType": "address",
          "name": "",
          "type": "address"
        }
      ],
      "stateMutability": "pure",
      "type": "function"
    },
    {
      "inputs": [],
      "name": "isInSwap",
      "outputs": [
        {
          "internalType": "bool",
          "name": "",
          "type": "bool"
        }
      ],
      "stateMutability": "view",
      "type": "function"
    },
    {
      "inputs": [
        {
          "internalType": "address",
          "name": "_dexRouterAddress",
          "type": "address"
        }
      ],
      "name": "setDexRouter",
      "outputs": [],
      "stateMutability": "nonpayable",
      "type": "function"
    },
    {
      "inputs": [
        {
          "internalType": "address",
          "name": "token",
          "type": "address"
        },
        {
          "internalType": "address",
          "name": "to",
          "type": "address"
        },
        {
          "internalType": "uint256",
          "name": "amount",
          "type": "uint256"
        }
      ],
      "name": "swapTokensForNativeToken",
      "outputs": [],
      "stateMutability": "nonpayable",
      "type": "function"
    },
    {
      "inputs": [
        {
          "internalType": "address",
          "name": "tokenAddress",
          "type": "address"
        },
        {
          "internalType": "address",
          "name": "to",
          "type": "address"
        },
        {
          "internalType": "uint256",
          "name": "amount",
          "type": "uint256"
        }
      ],
      "name": "swapTokensForStableCoin",
      "outputs": [],
      "stateMutability": "nonpayable",
      "type": "function"
    }
  ],
  "bytecode": "0x608060405234801561001057600080fd5b5060405161094438038061094483398101604081905261002f91610061565b600080546001600160a01b039092166001600160a01b031992831617905561a869600255600180549091169055610091565b60006020828403121561007357600080fd5b81516001600160a01b038116811461008a57600080fd5b9392505050565b6108a4806100a06000396000f3fe608060405234801561001057600080fd5b50600436106100835760003560e01c8063197e8da91461008857806385954d8c146100b8578063b8b03b22146100c9578063b9c55241146100b8578063cc996899146100de578063cf6c62ea146100fb578063dd6e491e1461010e578063f72f863b14610121578063f7a7657614610151575b600080fd5b61009b610096366004610683565b610164565b6040516001600160a01b0390911681526020015b60405180910390f35b6000546001600160a01b031661009b565b6100dc6100d73660046106b8565b61020a565b005b600154600160a01b900460ff1660405190151581526020016100af565b6100dc6101093660046106f4565b6103b7565b61009b61011c366004610683565b6104f4565b6100dc61012f366004610736565b600080546001600160a01b0319166001600160a01b0392909216919091179055565b6100dc61015f3660046106b8565b610552565b600073ae13d989dac2f0debff460ac112a837c89baa7cd606183900361019f575073ae13d989dac2f0debff460ac112a837c89baa7cd610204565b826061036101c2575073ae13d989dac2f0debff460ac112a837c89baa7cd610204565b60405162461bcd60e51b8152602060048201526013602482015272756e737570706f72746564206e6574776f726b60681b604482015260640160405180910390fd5b92915050565b6040805160038082526080820190925260009160208201606080368337019050509050838160008151811061024157610241610758565b60200260200101906001600160a01b031690816001600160a01b03168152505061026c600254610164565b8160018151811061027f5761027f610758565b6001600160a01b0392831660209182029290920101526001548251911690829060029081106102b0576102b0610758565b6001600160a01b03928316602091820292909201015260015460005460405163095ea7b360e01b81529183169263095ea7b3926102f792909116906000199060040161076e565b6020604051808303816000875af1158015610316573d6000803e3d6000fd5b505050506040513d601f19601f8201168201806040525081019061033a9190610787565b50600080546001600160a01b031690635c11d795908490848761035f426103e86107a9565b6040518663ffffffff1660e01b815260040161037f9594939291906107cf565b600060405180830381600087803b15801561039957600080fd5b505af11580156103ad573d6000803e3d6000fd5b5050505050505050565b60005460405163095ea7b360e01b81526001600160a01b038681169263095ea7b3926103ed92909116906000199060040161076e565b6020604051808303816000875af115801561040c573d6000803e3d6000fd5b505050506040513d601f19601f820116820180604052508101906104309190610787565b50600080546001600160a01b03169063f305d719908390309086908089610459426127106107a9565b60405160e089901b6001600160e01b03191681526001600160a01b039687166004820152602481019590955260448501939093526064840191909152909216608482015260a481019190915260c40160606040518083038185885af11580156104c6573d6000803e3d6000fd5b50505050506040513d601f19601f820116820180604052508101906104eb9190610840565b50505050505050565b60007378867bbeef44f2326bf8ddd1941a4439382ef2a7606183900361052f57507378867bbeef44f2326bf8ddd1941a4439382ef2a7610204565b826061036101c257507378867bbeef44f2326bf8ddd1941a4439382ef2a7610204565b604080516002808252606082018352600092602083019080368337019050509050838160008151811061058757610587610758565b60200260200101906001600160a01b031690816001600160a01b0316815250506105b2600254610164565b816001815181106105c5576105c5610758565b6001600160a01b03928316602091820292909201015260005460405163095ea7b360e01b81528683169263095ea7b392610608929116906000199060040161076e565b6020604051808303816000875af1158015610627573d6000803e3d6000fd5b505050506040513d601f19601f8201168201806040525081019061064b9190610787565b506000805460405163791ac94760e01b81526001600160a01b039091169163791ac9479161037f9186918690899042906004016107cf565b60006020828403121561069557600080fd5b5035919050565b80356001600160a01b03811681146106b357600080fd5b919050565b6000806000606084860312156106cd57600080fd5b6106d68461069c565b92506106e46020850161069c565b9150604084013590509250925092565b6000806000806080858703121561070a57600080fd5b6107138561069c565b93506107216020860161069c565b93969395505050506040820135916060013590565b60006020828403121561074857600080fd5b6107518261069c565b9392505050565b634e487b7160e01b600052603260045260246000fd5b6001600160a01b03929092168252602082015260400190565b60006020828403121561079957600080fd5b8151801515811461075157600080fd5b600082198211156107ca57634e487b7160e01b600052601160045260246000fd5b500190565b600060a082018783526020878185015260a0604085015281875180845260c086019150828901935060005b8181101561081f5784516001600160a01b0316835293830193918301916001016107fa565b50506001600160a01b03969096166060850152505050608001529392505050565b60008060006060848603121561085557600080fd5b835192506020840151915060408401519050925092509256fea26469706673582212201deb6862f1f6d61e6eafd504ad635eda0254dc1718116155c5e67af392b8e92064736f6c634300080e0033",
  "linkReferences": {},
  "deployedLinkReferences": {}
}