{
  "_format": "hh-sol-artifact-1",
  "contractName": "MetaStocksERC20Upgradeable",
  "sourceName": "contracts/metaStocks/MetaStocksERC20Upgradeable.sol",
  "abi": [
    {
      "anonymous": false,
      "inputs": [
        {
          "indexed": true,
          "internalType": "address",
          "name": "owner",
          "type": "address"
        },
        {
          "indexed": true,
          "internalType": "address",
          "name": "spender",
          "type": "address"
        },
        {
          "indexed": false,
          "internalType": "uint256",
          "name": "value",
          "type": "uint256"
        }
      ],
      "name": "Approval",
      "type": "event"
    },
    {
      "anonymous": false,
      "inputs": [
        {
          "indexed": true,
          "internalType": "address",
          "name": "sender",
          "type": "address"
        },
        {
          "indexed": false,
          "internalType": "uint256",
          "name": "amount",
          "type": "uint256"
        }
      ],
      "name": "Burn",
      "type": "event"
    },
    {
      "anonymous": false,
      "inputs": [
        {
          "indexed": false,
          "internalType": "uint8",
          "name": "version",
          "type": "uint8"
        }
      ],
      "name": "Initialized",
      "type": "event"
    },
    {
      "anonymous": false,
      "inputs": [
        {
          "indexed": true,
          "internalType": "address",
          "name": "previousOwner",
          "type": "address"
        },
        {
          "indexed": true,
          "internalType": "address",
          "name": "newOwner",
          "type": "address"
        }
      ],
      "name": "OwnershipTransferred",
      "type": "event"
    },
    {
      "anonymous": false,
      "inputs": [
        {
          "indexed": true,
          "internalType": "address",
          "name": "from",
          "type": "address"
        },
        {
          "indexed": true,
          "internalType": "address",
          "name": "to",
          "type": "address"
        },
        {
          "indexed": false,
          "internalType": "uint256",
          "name": "value",
          "type": "uint256"
        }
      ],
      "name": "Transfer",
      "type": "event"
    },
    {
      "inputs": [
        {
          "internalType": "address",
          "name": "owner",
          "type": "address"
        },
        {
          "internalType": "address",
          "name": "spender",
          "type": "address"
        }
      ],
      "name": "allowance",
      "outputs": [
        {
          "internalType": "uint256",
          "name": "",
          "type": "uint256"
        }
      ],
      "stateMutability": "view",
      "type": "function"
    },
    {
      "inputs": [
        {
          "internalType": "address",
          "name": "spender",
          "type": "address"
        },
        {
          "internalType": "uint256",
          "name": "amount",
          "type": "uint256"
        }
      ],
      "name": "approve",
      "outputs": [
        {
          "internalType": "bool",
          "name": "",
          "type": "bool"
        }
      ],
      "stateMutability": "nonpayable",
      "type": "function"
    },
    {
      "inputs": [
        {
          "internalType": "uint256",
          "name": "tokenAmount",
          "type": "uint256"
        }
      ],
      "name": "autoInjectLiquidity",
      "outputs": [],
      "stateMutability": "nonpayable",
      "type": "function"
    },
    {
      "inputs": [
        {
          "internalType": "address",
          "name": "",
          "type": "address"
        }
      ],
      "name": "automatedMarketMakerPairs",
      "outputs": [
        {
          "internalType": "bool",
          "name": "",
          "type": "bool"
        }
      ],
      "stateMutability": "view",
      "type": "function"
    },
    {
      "inputs": [
        {
          "internalType": "address",
          "name": "account",
          "type": "address"
        }
      ],
      "name": "balanceOf",
      "outputs": [
        {
          "internalType": "uint256",
          "name": "",
          "type": "uint256"
        }
      ],
      "stateMutability": "view",
      "type": "function"
    },
    {
      "inputs": [],
      "name": "decimals",
      "outputs": [
        {
          "internalType": "uint8",
          "name": "",
          "type": "uint8"
        }
      ],
      "stateMutability": "view",
      "type": "function"
    },
    {
      "inputs": [
        {
          "internalType": "address",
          "name": "spender",
          "type": "address"
        },
        {
          "internalType": "uint256",
          "name": "subtractedValue",
          "type": "uint256"
        }
      ],
      "name": "decreaseAllowance",
      "outputs": [
        {
          "internalType": "bool",
          "name": "",
          "type": "bool"
        }
      ],
      "stateMutability": "nonpayable",
      "type": "function"
    },
    {
      "inputs": [],
      "name": "enableTrading",
      "outputs": [],
      "stateMutability": "nonpayable",
      "type": "function"
    },
    {
      "inputs": [],
      "name": "getDexRouterManager",
      "outputs": [
        {
          "internalType": "contract DexRouterManager",
          "name": "",
          "type": "address"
        }
      ],
      "stateMutability": "view",
      "type": "function"
    },
    {
      "inputs": [],
      "name": "getFeesManager",
      "outputs": [
        {
          "internalType": "contract FeesManager",
          "name": "",
          "type": "address"
        }
      ],
      "stateMutability": "view",
      "type": "function"
    },
    {
      "inputs": [],
      "name": "getLPPair",
      "outputs": [
        {
          "internalType": "address",
          "name": "",
          "type": "address"
        }
      ],
      "stateMutability": "view",
      "type": "function"
    },
    {
      "inputs": [],
      "name": "getOwner",
      "outputs": [
        {
          "internalType": "address",
          "name": "",
          "type": "address"
        }
      ],
      "stateMutability": "view",
      "type": "function"
    },
    {
      "inputs": [],
      "name": "getSwapThreshold",
      "outputs": [
        {
          "internalType": "uint256",
          "name": "",
          "type": "uint256"
        }
      ],
      "stateMutability": "view",
      "type": "function"
    },
    {
      "inputs": [],
      "name": "getTradingEnabled",
      "outputs": [
        {
          "internalType": "bool",
          "name": "",
          "type": "bool"
        }
      ],
      "stateMutability": "view",
      "type": "function"
    },
    {
      "inputs": [
        {
          "internalType": "address",
          "name": "spender",
          "type": "address"
        },
        {
          "internalType": "uint256",
          "name": "addedValue",
          "type": "uint256"
        }
      ],
      "name": "increaseAllowance",
      "outputs": [
        {
          "internalType": "bool",
          "name": "",
          "type": "bool"
        }
      ],
      "stateMutability": "nonpayable",
      "type": "function"
    },
    {
      "inputs": [
        {
          "internalType": "string",
          "name": "_name",
          "type": "string"
        },
        {
          "internalType": "string",
          "name": "_symbol",
          "type": "string"
        }
      ],
      "name": "initialize",
      "outputs": [],
      "stateMutability": "nonpayable",
      "type": "function"
    },
    {
      "inputs": [],
      "name": "name",
      "outputs": [
        {
          "internalType": "string",
          "name": "",
          "type": "string"
        }
      ],
      "stateMutability": "view",
      "type": "function"
    },
    {
      "inputs": [],
      "name": "self",
      "outputs": [
        {
          "internalType": "address",
          "name": "",
          "type": "address"
        }
      ],
      "stateMutability": "view",
      "type": "function"
    },
    {
      "inputs": [],
      "name": "setDeadAddress",
      "outputs": [],
      "stateMutability": "nonpayable",
      "type": "function"
    },
    {
      "inputs": [
        {
          "internalType": "uint16",
          "name": "buyFee",
          "type": "uint16"
        },
        {
          "internalType": "uint16",
          "name": "sellFee",
          "type": "uint16"
        },
        {
          "internalType": "uint16",
          "name": "transferFee",
          "type": "uint16"
        }
      ],
      "name": "setFees",
      "outputs": [],
      "stateMutability": "nonpayable",
      "type": "function"
    },
    {
      "inputs": [
        {
          "internalType": "contract FeesManager",
          "name": "_feesManager",
          "type": "address"
        }
      ],
      "name": "setFeesManager",
      "outputs": [],
      "stateMutability": "nonpayable",
      "type": "function"
    },
    {
      "inputs": [
        {
          "internalType": "uint256",
          "name": "_maxTransactionAmount",
          "type": "uint256"
        }
      ],
      "name": "setMaxTransactionAmount",
      "outputs": [],
      "stateMutability": "nonpayable",
      "type": "function"
    },
    {
      "inputs": [
        {
          "internalType": "uint256",
          "name": "_maxWalletAmount",
          "type": "uint256"
        }
      ],
      "name": "setMaxWalletAmount",
      "outputs": [],
      "stateMutability": "nonpayable",
      "type": "function"
    },
    {
      "inputs": [
        {
          "internalType": "uint256",
          "name": "_swapThreshold",
          "type": "uint256"
        }
      ],
      "name": "setSwapThreshold",
      "outputs": [],
      "stateMutability": "nonpayable",
      "type": "function"
    },
    {
      "inputs": [],
      "name": "symbol",
      "outputs": [
        {
          "internalType": "string",
          "name": "",
          "type": "string"
        }
      ],
      "stateMutability": "view",
      "type": "function"
    },
    {
      "inputs": [],
      "name": "totalSupply",
      "outputs": [
        {
          "internalType": "uint256",
          "name": "",
          "type": "uint256"
        }
      ],
      "stateMutability": "view",
      "type": "function"
    },
    {
      "inputs": [
        {
          "internalType": "address",
          "name": "to",
          "type": "address"
        },
        {
          "internalType": "uint256",
          "name": "amount",
          "type": "uint256"
        }
      ],
      "name": "transfer",
      "outputs": [
        {
          "internalType": "bool",
          "name": "",
          "type": "bool"
        }
      ],
      "stateMutability": "nonpayable",
      "type": "function"
    },
    {
      "inputs": [
        {
          "internalType": "address",
          "name": "from",
          "type": "address"
        },
        {
          "internalType": "address",
          "name": "to",
          "type": "address"
        },
        {
          "internalType": "uint256",
          "name": "amount",
          "type": "uint256"
        }
      ],
      "name": "transferFrom",
      "outputs": [
        {
          "internalType": "bool",
          "name": "",
          "type": "bool"
        }
      ],
      "stateMutability": "nonpayable",
      "type": "function"
    },
    {
      "inputs": [
        {
          "internalType": "address",
          "name": "account",
          "type": "address"
        }
      ],
      "name": "transferOwnership",
      "outputs": [],
      "stateMutability": "nonpayable",
      "type": "function"
    },
    {
      "stateMutability": "payable",
      "type": "receive"
    }
  ],
  "bytecode": "0x608060405234801561001057600080fd5b50612c8a806100206000396000f3fe608060405260043610620001a75760003560e01c806381fd3b0011620000e9578063a9059cbb1162000090578063a9059cbb14620004a3578063b62496f514620004c8578063c762819b14620004fc578063d203abb61462000514578063dd62ed3e1462000539578063f005f2ca146200055e578063f2fde38b1462000575578063fa83cb58146200059a57600080fd5b806381fd3b0014620003d257806386f3f3cb14620003ea578063893d20e8146200040a5780638a8c523c146200042a57806395d89b4114620004425780639d0014b1146200045a578063a457c2d7146200047e57600080fd5b8063313ce567116200014e578063313ce56714620002cf5780633950935114620002ed5780633da7733314620003125780634cd88b761462000339578063534c6bcb146200035e57806370a0823114620003835780637104ddb214620003bd57600080fd5b806306fdde0314620001b4578063095ea7b314620001e457806318160ddd146200021a5780631c89382a146200023b5780631e293c10146200026257806323b872dd146200028657806327a14fc214620002ab57600080fd5b36620001af57005b600080fd5b348015620001c157600080fd5b50620001cc620005b4565b604051620001db919062001bf3565b60405180910390f35b348015620001f157600080fd5b50620002096200020336600462001c64565b6200064e565b6040519015158152602001620001db565b3480156200022757600080fd5b506035545b604051908152602001620001db565b3480156200024857600080fd5b50620002606200025a36600462001c93565b62000668565b005b3480156200026f57600080fd5b50620002606200028136600462001cba565b606a55565b3480156200029357600080fd5b5062000209620002a536600462001cd4565b62000690565b348015620002b857600080fd5b5062000260620002ca36600462001cba565b606955565b348015620002dc57600080fd5b5060405160128152602001620001db565b348015620002fa57600080fd5b50620002096200030c36600462001c64565b620006b8565b3480156200031f57600080fd5b506200032a620006e0565b604051620001db919062001d1a565b3480156200034657600080fd5b50620002606200035836600462001dd9565b620006ef565b3480156200036b57600080fd5b50620002606200037d36600462001e57565b62000778565b3480156200039057600080fd5b506200022c620003a236600462001c93565b6001600160a01b031660009081526033602052604090205490565b348015620003ca57600080fd5b50306200032a565b348015620003df57600080fd5b50620002606200082a565b348015620003f757600080fd5b506067546001600160a01b03166200032a565b3480156200041757600080fd5b506065546001600160a01b03166200032a565b3480156200043757600080fd5b50620002606200086d565b3480156200044f57600080fd5b50620001cc620008f9565b3480156200046757600080fd5b50620002606200047936600462001cba565b606855565b3480156200048b57600080fd5b50620002096200049d36600462001c64565b6200090a565b348015620004b057600080fd5b5062000209620004c236600462001c64565b6200098b565b348015620004d557600080fd5b5062000209620004e736600462001c93565b606d6020526000908152604090205460ff1681565b3480156200050957600080fd5b506200032a6200099b565b3480156200052157600080fd5b50620002606200053336600462001cba565b620009af565b3480156200054657600080fd5b506200022c6200055836600462001ea1565b62000a5b565b3480156200056b57600080fd5b506068546200022c565b3480156200058257600080fd5b50620002606200059436600462001c93565b62000a86565b348015620005a757600080fd5b50606b5460ff1662000209565b606060368054620005c59062001edf565b80601f0160208091040260200160405190810160405280929190818152602001828054620005f39062001edf565b8015620006445780601f10620006185761010080835404028352916020019162000644565b820191906000526020600020905b8154815290600101906020018083116200062657829003601f168201915b5050505050905090565b6000336200065e81858562000ad5565b5060019392505050565b606b80546001600160a01b0390921661010002610100600160a81b0319909216919091179055565b600033620006a085828562000bfd565b620006ad85858562000c7e565b506001949350505050565b6000336200065e818585620006ce838362000a5b565b620006da919062001f31565b62000ad5565b606c546001600160a01b031690565b6000620006fd600162000df3565b9050801562000716576000805461ff0019166101001790555b62000722838362000e88565b6200072c62000ec2565b801562000773576000805461ff0019169055604051600181527f7f26b83ff96e1f2b6a682f133852f6798a09c465da95921460cefb38474024989060200160405180910390a15b505050565b6065546001600160a01b03163314620007ae5760405162461bcd60e51b8152600401620007a59062001f4c565b60405180910390fd5b606b5460405163534c6bcb60e01b815261ffff80861660048301528085166024830152831660448201526101009091046001600160a01b03169063534c6bcb90606401600060405180830381600087803b1580156200080c57600080fd5b505af115801562000821573d6000803e3d6000fd5b50505050505050565b6065546001600160a01b03163314620008575760405162461bcd60e51b8152600401620007a59062001f4c565b606680546001600160a01b03191661dead179055565b6065546001600160a01b031633146200089a5760405162461bcd60e51b8152600401620007a59062001f4c565b606b5460ff1615620008ea5760405162461bcd60e51b815260206004820152601860248201527754726164696e6720616c726561647920656e61626c65642160401b6044820152606401620007a5565b606b805460ff19166001179055565b606060378054620005c59062001edf565b600033816200091a828662000a5b565b9050838110156200097c5760405162461bcd60e51b815260206004820152602560248201527f45524332303a2064656372656173656420616c6c6f77616e63652062656c6f77604482015264207a65726f60d81b6064820152608401620007a5565b620006ad828686840362000ad5565b6000336200065e81858562000c7e565b606b5461010090046001600160a01b031690565b6000620009be60028362001f81565b905047620009cb620006e0565b6001600160a01b031663f7a7657630306040516001600160e01b031960e085901b1681526001600160a01b0392831660048201529116602482015260448101859052606401600060405180830381600087803b15801562000a2b57600080fd5b505af115801562000a40573d6000803e3d6000fd5b505050506000814762000a54919062001fa4565b5050505050565b6001600160a01b03918216600090815260346020908152604080832093909416825291909152205490565b6065546001600160a01b0316331462000ab35760405162461bcd60e51b8152600401620007a59062001f4c565b606580546001600160a01b0319166001600160a01b0392909216919091179055565b6001600160a01b03831662000b395760405162461bcd60e51b8152602060048201526024808201527f45524332303a20617070726f76652066726f6d20746865207a65726f206164646044820152637265737360e01b6064820152608401620007a5565b6001600160a01b03821662000b9c5760405162461bcd60e51b815260206004820152602260248201527f45524332303a20617070726f766520746f20746865207a65726f206164647265604482015261737360f01b6064820152608401620007a5565b6001600160a01b0383811660008181526034602090815260408083209487168084529482529182902085905590518481527f8c5be1e5ebec7d5bd14f71427d1e84f3dd0314c0f7b2291e5b200ac8c7c3b925910160405180910390a3505050565b600062000c0b848462000a5b565b9050600019811462000c78578181101562000c695760405162461bcd60e51b815260206004820152601d60248201527f45524332303a20696e73756666696369656e7420616c6c6f77616e63650000006044820152606401620007a5565b62000c78848484840362000ad5565b50505050565b62000c8b83838362000f89565b62000c95620006e0565b6001600160a01b031663cc9968996040518163ffffffff1660e01b8152600401602060405180830381865afa15801562000cd3573d6000803e3d6000fd5b505050506040513d601f19601f8201168201806040525081019062000cf9919062001fbe565b1562000d0c5762000773838383620011f0565b62000d188383620013c8565b1562000de657600062000d2b30620003a2565b905062000d37620006e0565b6001600160a01b0316632c4a73613061271062000d5685600c62001fe2565b62000d62919062001f81565b6040516001600160e01b031960e085901b1681526001600160a01b0390921660048301526024820152604401600060405180830381600087803b15801562000da957600080fd5b505af115801562000dbe573d6000803e3d6000fd5b5050505062000de461271082607b62000dd8919062001fe2565b62000533919062001f81565b505b62000773838383620015ad565b60008054610100900460ff161562000e3f578160ff16600114801562000e185750303b155b62000e375760405162461bcd60e51b8152600401620007a59062002004565b506000919050565b60005460ff80841691161062000e695760405162461bcd60e51b8152600401620007a59062002004565b506000805460ff191660ff92909216919091179055600190565b919050565b600054610100900460ff1662000eb25760405162461bcd60e51b8152600401620007a59062002052565b62000ebe8282620016f0565b5050565b62000ecc62001745565b62000ed66200175a565b62000ee361dead62001790565b62000f663062000ef2620006e0565b60405163197e8da960e01b8152606160048201526001600160a01b03919091169063197e8da990602401602060405180830381865afa15801562000f3a573d6000803e3d6000fd5b505050506040513d601f19601f8201168201806040525081019062000f6091906200209d565b62001819565b62000f70620019c1565b62000f87336a52b7d2dcc80cd2e400000062001a4c565b565b6001600160a01b03831662000ff75760405162461bcd60e51b815260206004820152602d60248201527f45524332303a207472616e736665722066726f6d20746865205a45524f5f414460448201526c4452455353206164647265737360981b6064820152608401620007a5565b6001600160a01b038216620010635760405162461bcd60e51b815260206004820152602b60248201527f45524332303a207472616e7366657220746f20746865205a45524f5f4144445260448201526a455353206164647265737360a81b6064820152608401620007a5565b60008111620010cf5760405162461bcd60e51b815260206004820152603160248201527f5472616e7366657220616d6f756e74206d7573742062652067726561746572206044820152707468616e205a45524f5f4144445245535360781b6064820152608401620007a5565b6065546001600160a01b03848116911614801590620010fc57506065546001600160a01b03838116911614155b80156200111157506001600160a01b03821615155b80156200112957506001600160a01b03821661dead14155b8015620011a157506200113b620006e0565b6001600160a01b031663cc9968996040518163ffffffff1660e01b8152600401602060405180830381865afa15801562001179573d6000803e3d6000fd5b505050506040513d601f19601f820116820180604052508101906200119f919062001fbe565b155b156200077357606b5460ff16620007735760405162461bcd60e51b815260206004820152601260248201527154726164696e67206e6f742061637469766560701b6044820152606401620007a5565b6001600160a01b038316620012565760405162461bcd60e51b815260206004820152602560248201527f45524332303a207472616e736665722066726f6d20746865207a65726f206164604482015264647265737360d81b6064820152608401620007a5565b6001600160a01b038216620012ba5760405162461bcd60e51b815260206004820152602360248201527f45524332303a207472616e7366657220746f20746865207a65726f206164647260448201526265737360e81b6064820152608401620007a5565b6001600160a01b03831660009081526033602052604090205481811015620013345760405162461bcd60e51b815260206004820152602660248201527f45524332303a207472616e7366657220616d6f756e7420657863656564732062604482015265616c616e636560d01b6064820152608401620007a5565b6001600160a01b038085166000908152603360205260408082208585039055918516815290812080548492906200136d90849062001f31565b92505081905550826001600160a01b0316846001600160a01b03167fddf252ad1be2c89b69c2b068fc378daa952ba7f163c4a11628f55a4df523b3ef84604051620013ba91815260200190565b60405180910390a362000c78565b600080620013d630620003a2565b9050620013e260685490565b81101580156200145d5750620013f7620006e0565b6001600160a01b031663cc9968996040518163ffffffff1660e01b8152600401602060405180830381865afa15801562001435573d6000803e3d6000fd5b505050506040513d601f19601f820116820180604052508101906200145b919062001fbe565b155b80156200147857506067546001600160a01b03858116911614155b80156200149b5750600062001499620003a26067546001600160a01b031690565b115b8015620015205750620014ad6200099b565b6001600160a01b0316635342acb4846040518263ffffffff1660e01b8152600401620014da919062001d1a565b602060405180830381865afa158015620014f8573d6000803e3d6000fd5b505050506040513d601f19601f820116820180604052508101906200151e919062001fbe565b155b8015620015a55750620015326200099b565b6001600160a01b0316635342acb4856040518263ffffffff1660e01b81526004016200155f919062001d1a565b602060405180830381865afa1580156200157d573d6000803e3d6000fd5b505050506040513d601f19601f82011682018060405250810190620015a3919062001fbe565b155b949350505050565b8060006001620015bc6200099b565b6001600160a01b0316635342acb4876040518263ffffffff1660e01b8152600401620015e9919062001d1a565b602060405180830381865afa15801562001607573d6000803e3d6000fd5b505050506040513d601f19601f820116820180604052508101906200162d919062001fbe565b80620016af57506200163e6200099b565b6001600160a01b0316635342acb4866040518263ffffffff1660e01b81526004016200166b919062001d1a565b602060405180830381865afa15801562001689573d6000803e3d6000fd5b505050506040513d601f19601f82011682018060405250810190620016af919062001fbe565b15620016b9575060005b8015620016db57620016cc828562001fa4565b9250620016db863084620011f0565b620016e8868685620011f0565b505050505050565b600054610100900460ff166200171a5760405162461bcd60e51b8152600401620007a59062002052565b81516200172f90603690602085019062001b31565b5080516200077390603790602084019062001b31565b620017503362000a86565b62000f876200082a565b62000f876040516200176c9062001bc0565b604051809103906000f08015801562001789573d6000803e3d6000fd5b5062000668565b6065546001600160a01b03163314620017bd5760405162461bcd60e51b8152600401620007a59062001f4c565b80604051620017cc9062001bce565b620017d8919062001d1a565b604051809103906000f080158015620017f5573d6000803e3d6000fd5b50606c80546001600160a01b0319166001600160a01b039290921691909117905550565b6065546001600160a01b03163314620018465760405162461bcd60e51b8152600401620007a59062001f4c565b606c60009054906101000a90046001600160a01b03166001600160a01b03166385954d8c6040518163ffffffff1660e01b8152600401602060405180830381865afa1580156200189a573d6000803e3d6000fd5b505050506040513d601f19601f82011682018060405250810190620018c091906200209d565b6001600160a01b031663c45a01556040518163ffffffff1660e01b8152600401602060405180830381865afa158015620018fe573d6000803e3d6000fd5b505050506040513d601f19601f820116820180604052508101906200192491906200209d565b6040516364e329cb60e11b81526001600160a01b0384811660048301528381166024830152919091169063c9c65396906044016020604051808303816000875af115801562001977573d6000803e3d6000fd5b505050506040513d601f19601f820116820180604052508101906200199d91906200209d565b606780546001600160a01b0319166001600160a01b03929092169190911790555050565b62001a3d33620019d0620006e0565b6001600160a01b031663b9c552416040518163ffffffff1660e01b8152600401602060405180830381865afa15801562001a0e573d6000803e3d6000fd5b505050506040513d601f19601f8201168201806040525081019062001a3491906200209d565b60001962000ad5565b62000f8730620019d0620006e0565b6001600160a01b03821662001aa45760405162461bcd60e51b815260206004820152601f60248201527f45524332303a206d696e7420746f20746865207a65726f2061646472657373006044820152606401620007a5565b806035600082825462001ab8919062001f31565b90915550506001600160a01b0382166000908152603360205260408120805483929062001ae790849062001f31565b90915550506040518181526001600160a01b038316906000907fddf252ad1be2c89b69c2b068fc378daa952ba7f163c4a11628f55a4df523b3ef9060200160405180910390a35050565b82805462001b3f9062001edf565b90600052602060002090601f01602090048101928262001b63576000855562001bae565b82601f1062001b7e57805160ff191683800117855562001bae565b8280016001018555821562001bae579182015b8281111562001bae57825182559160200191906001019062001b91565b5062001bbc92915062001bdc565b5090565b61026180620020be83390190565b610936806200231f83390190565b5b8082111562001bbc576000815560010162001bdd565b600060208083528351808285015260005b8181101562001c225785810183015185820160400152820162001c04565b8181111562001c35576000604083870101525b50601f01601f1916929092016040019392505050565b6001600160a01b038116811462001c6157600080fd5b50565b6000806040838503121562001c7857600080fd5b823562001c858162001c4b565b946020939093013593505050565b60006020828403121562001ca657600080fd5b813562001cb38162001c4b565b9392505050565b60006020828403121562001ccd57600080fd5b5035919050565b60008060006060848603121562001cea57600080fd5b833562001cf78162001c4b565b9250602084013562001d098162001c4b565b929592945050506040919091013590565b6001600160a01b0391909116815260200190565b634e487b7160e01b600052604160045260246000fd5b600082601f83011262001d5657600080fd5b813567ffffffffffffffff8082111562001d745762001d7462001d2e565b604051601f8301601f19908116603f0116810190828211818310171562001d9f5762001d9f62001d2e565b8160405283815286602085880101111562001db957600080fd5b836020870160208301376000602085830101528094505050505092915050565b6000806040838503121562001ded57600080fd5b823567ffffffffffffffff8082111562001e0657600080fd5b62001e148683870162001d44565b9350602085013591508082111562001e2b57600080fd5b5062001e3a8582860162001d44565b9150509250929050565b803561ffff8116811462000e8357600080fd5b60008060006060848603121562001e6d57600080fd5b62001e788462001e44565b925062001e886020850162001e44565b915062001e986040850162001e44565b90509250925092565b6000806040838503121562001eb557600080fd5b823562001ec28162001c4b565b9150602083013562001ed48162001c4b565b809150509250929050565b600181811c9082168062001ef457607f821691505b60208210810362001f1557634e487b7160e01b600052602260045260246000fd5b50919050565b634e487b7160e01b600052601160045260246000fd5b6000821982111562001f475762001f4762001f1b565b500190565b6020808252818101527f4f776e61626c653a2063616c6c6572206973206e6f7420746865206f776e6572604082015260600190565b60008262001f9f57634e487b7160e01b600052601260045260246000fd5b500490565b60008282101562001fb95762001fb962001f1b565b500390565b60006020828403121562001fd157600080fd5b8151801515811462001cb357600080fd5b600081600019048311821515161562001fff5762001fff62001f1b565b500290565b6020808252602e908201527f496e697469616c697a61626c653a20636f6e747261637420697320616c72656160408201526d191e481a5b9a5d1a585b1a5e995960921b606082015260800190565b6020808252602b908201527f496e697469616c697a61626c653a20636f6e7472616374206973206e6f74206960408201526a6e697469616c697a696e6760a81b606082015260800190565b600060208284031215620020b057600080fd5b815162001cb38162001c4b56fe608060405234801561001057600080fd5b50612710600155604080516060810182526000808252602082018190529101819052805465ffffffffffff191690556102138061004e6000396000f3fe608060405234801561001057600080fd5b50600436106100415760003560e01c80635342acb414610046578063534c6bcb146100865780636612e66f146100d5575b600080fd5b61007261005436600461012a565b6001600160a01b031660009081526002602052604090205460ff1690565b604051901515815260200160405180910390f35b6100d361009436600461015e565b6000805461ffff94851663ffffffff199091161762010000938516939093029290921765ffff0000000019166401000000009190931602919091179055565b005b6100d36100e33660046101a1565b6001600160a01b03919091166000908152600260205260409020805460ff1916911515919091179055565b80356001600160a01b038116811461012557600080fd5b919050565b60006020828403121561013c57600080fd5b6101458261010e565b9392505050565b803561ffff8116811461012557600080fd5b60008060006060848603121561017357600080fd5b61017c8461014c565b925061018a6020850161014c565b91506101986040850161014c565b90509250925092565b600080604083850312156101b457600080fd5b6101bd8361010e565b9150602083013580151581146101d257600080fd5b80915050925092905056fea26469706673582212200907b4f6b3378c6269771c8b6de1a88296f0a43cf518a5b0596150ebd7c2d54064736f6c634300080e0033608060405234801561001057600080fd5b5060405161093638038061093683398101604081905261002f91610076565b600080546001600160a01b039092166001600160a01b0319928316179055600180549091167378867bbeef44f2326bf8ddd1941a4439382ef2a717905560616002556100a6565b60006020828403121561008857600080fd5b81516001600160a01b038116811461009f57600080fd5b9392505050565b610881806100b56000396000f3fe608060405234801561001057600080fd5b506004361061006d5760003560e01c8063197e8da9146100725780632c4a7361146100a257806385954d8c146100b7578063b9c55241146100b7578063cc996899146100c8578063cf6c62ea146100e5578063f7a76576146100f8575b600080fd5b610085610080366004610634565b61010b565b6040516001600160a01b0390911681526020015b60405180910390f35b6100b56100b0366004610665565b6101eb565b005b6000546001600160a01b0316610085565b600154600160a01b900460ff166040519015158152602001610099565b6100b56100f3366004610691565b610397565b6100b56101063660046106d7565b6104cb565b6000606182810361011d57508161016f565b8260610361012d5750606161016f565b60405162461bcd60e51b8152602060048201526013602482015272756e737570706f72746564206e6574776f726b60681b604482015260640160405180910390fd5b60008054906101000a90046001600160a01b03166001600160a01b031663ad5c46486040518163ffffffff1660e01b8152600401602060405180830381865afa1580156101c0573d6000803e3d6000fd5b505050506040513d601f19601f820116820180604052508101906101e49190610718565b9392505050565b6040805160038082526080820190925260009160208201606080368337019050509050308160008151811061022257610222610735565b60200260200101906001600160a01b031690816001600160a01b03168152505061024d60025461010b565b8160018151811061026057610260610735565b6001600160a01b03928316602091820292909201015260015482519116908290600290811061029157610291610735565b6001600160a01b03928316602091820292909201015260015460005460405163095ea7b360e01b81529183169263095ea7b3926102d892909116906000199060040161074b565b6020604051808303816000875af11580156102f7573d6000803e3d6000fd5b505050506040513d601f19601f8201168201806040525081019061031b9190610764565b50600080546001600160a01b031690635c11d7959084908487610340426103e8610786565b6040518663ffffffff1660e01b81526004016103609594939291906107ac565b600060405180830381600087803b15801561037a57600080fd5b505af115801561038e573d6000803e3d6000fd5b50505050505050565b60005460405163095ea7b360e01b81526001600160a01b038681169263095ea7b3926103cd92909116906000199060040161074b565b6020604051808303816000875af11580156103ec573d6000803e3d6000fd5b505050506040513d601f19601f820116820180604052508101906104109190610764565b50600080546001600160a01b03169063f305d71990839030908690808961043942612710610786565b60405160e089901b6001600160e01b03191681526001600160a01b039687166004820152602481019590955260448501939093526064840191909152909216608482015260a481019190915260c40160606040518083038185885af11580156104a6573d6000803e3d6000fd5b50505050506040513d601f19601f8201168201806040525081019061038e919061081d565b604080516002808252606082018352600092602083019080368337019050509050838160008151811061050057610500610735565b60200260200101906001600160a01b031690816001600160a01b03168152505061052b60025461010b565b8160018151811061053e5761053e610735565b6001600160a01b03928316602091820292909201015260005460405163095ea7b360e01b81528683169263095ea7b392610581929116906000199060040161074b565b6020604051808303816000875af11580156105a0573d6000803e3d6000fd5b505050506040513d601f19601f820116820180604052508101906105c49190610764565b506000805460405163791ac94760e01b81526001600160a01b039091169163791ac947916105fc9186918690899042906004016107ac565b600060405180830381600087803b15801561061657600080fd5b505af115801561062a573d6000803e3d6000fd5b5050505050505050565b60006020828403121561064657600080fd5b5035919050565b6001600160a01b038116811461066257600080fd5b50565b6000806040838503121561067857600080fd5b82356106838161064d565b946020939093013593505050565b600080600080608085870312156106a757600080fd5b84356106b28161064d565b935060208501356106c28161064d565b93969395505050506040820135916060013590565b6000806000606084860312156106ec57600080fd5b83356106f78161064d565b925060208401356107078161064d565b929592945050506040919091013590565b60006020828403121561072a57600080fd5b81516101e48161064d565b634e487b7160e01b600052603260045260246000fd5b6001600160a01b03929092168252602082015260400190565b60006020828403121561077657600080fd5b815180151581146101e457600080fd5b600082198211156107a757634e487b7160e01b600052601160045260246000fd5b500190565b600060a082018783526020878185015260a0604085015281875180845260c086019150828901935060005b818110156107fc5784516001600160a01b0316835293830193918301916001016107d7565b50506001600160a01b03969096166060850152505050608001529392505050565b60008060006060848603121561083257600080fd5b835192506020840151915060408401519050925092509256fea264697066735822122098113eda4b6852855769bb3ac005351e3b7438686931fdbb8f0d63b27ca8575264736f6c634300080e0033a264697066735822122028305253acba43bc144bdb659389e5f2900ef06f30e30a6b0d93a34229935d8f64736f6c634300080e0033",
  "linkReferences": {},
  "deployedLinkReferences": {}
}