{
  "_format": "hh-sol-artifact-1",
  "contractName": "MetaStocksFranchiseMarketplaceManager",
  "sourceName": "contracts/managers/metastocks/MetaStocksFranchiseMarketplaceManager.sol",
  "abi": [
    {
      "anonymous": false,
      "inputs": [
        {
          "indexed": true,
          "internalType": "address",
          "name": "owner",
          "type": "address"
        },
        {
          "indexed": true,
          "internalType": "address",
          "name": "spender",
          "type": "address"
        },
        {
          "indexed": false,
          "internalType": "uint256",
          "name": "value",
          "type": "uint256"
        }
      ],
      "name": "Approval",
      "type": "event"
    },
    {
      "anonymous": false,
      "inputs": [
        {
          "indexed": true,
          "internalType": "address",
          "name": "account",
          "type": "address"
        },
        {
          "indexed": false,
          "internalType": "uint256",
          "name": "companyId",
          "type": "uint256"
        },
        {
          "indexed": true,
          "internalType": "address",
          "name": "orderId",
          "type": "address"
        },
        {
          "indexed": false,
          "internalType": "uint256",
          "name": "amount",
          "type": "uint256"
        }
      ],
      "name": "CreateOrder",
      "type": "event"
    },
    {
      "anonymous": false,
      "inputs": [
        {
          "indexed": true,
          "internalType": "address",
          "name": "account",
          "type": "address"
        },
        {
          "indexed": false,
          "internalType": "uint256",
          "name": "companyId",
          "type": "uint256"
        },
        {
          "indexed": true,
          "internalType": "address",
          "name": "orderId",
          "type": "address"
        }
      ],
      "name": "DeleteOrder",
      "type": "event"
    },
    {
      "anonymous": false,
      "inputs": [
        {
          "indexed": false,
          "internalType": "uint8",
          "name": "version",
          "type": "uint8"
        }
      ],
      "name": "Initialized",
      "type": "event"
    },
    {
      "anonymous": false,
      "inputs": [
        {
          "indexed": true,
          "internalType": "address",
          "name": "previousOwner",
          "type": "address"
        },
        {
          "indexed": true,
          "internalType": "address",
          "name": "newOwner",
          "type": "address"
        }
      ],
      "name": "OwnershipTransferred",
      "type": "event"
    },
    {
      "anonymous": false,
      "inputs": [
        {
          "indexed": true,
          "internalType": "address",
          "name": "from",
          "type": "address"
        },
        {
          "indexed": true,
          "internalType": "address",
          "name": "to",
          "type": "address"
        },
        {
          "indexed": false,
          "internalType": "uint256",
          "name": "value",
          "type": "uint256"
        }
      ],
      "name": "Transfer",
      "type": "event"
    },
    {
      "anonymous": false,
      "inputs": [
        {
          "indexed": true,
          "internalType": "address",
          "name": "account",
          "type": "address"
        },
        {
          "indexed": false,
          "internalType": "uint256",
          "name": "companyId",
          "type": "uint256"
        },
        {
          "indexed": true,
          "internalType": "address",
          "name": "orderId",
          "type": "address"
        }
      ],
      "name": "UpdateOrder",
      "type": "event"
    },
    {
      "inputs": [
        {
          "internalType": "address",
          "name": "owner",
          "type": "address"
        },
        {
          "internalType": "address",
          "name": "spender",
          "type": "address"
        }
      ],
      "name": "allowance",
      "outputs": [
        {
          "internalType": "uint256",
          "name": "",
          "type": "uint256"
        }
      ],
      "stateMutability": "view",
      "type": "function"
    },
    {
      "inputs": [
        {
          "internalType": "address",
          "name": "spender",
          "type": "address"
        },
        {
          "internalType": "uint256",
          "name": "amount",
          "type": "uint256"
        }
      ],
      "name": "approve",
      "outputs": [
        {
          "internalType": "bool",
          "name": "",
          "type": "bool"
        }
      ],
      "stateMutability": "nonpayable",
      "type": "function"
    },
    {
      "inputs": [
        {
          "internalType": "address",
          "name": "account",
          "type": "address"
        }
      ],
      "name": "balanceOf",
      "outputs": [
        {
          "internalType": "uint256",
          "name": "",
          "type": "uint256"
        }
      ],
      "stateMutability": "view",
      "type": "function"
    },
    {
      "inputs": [
        {
          "internalType": "uint256",
          "name": "companyId",
          "type": "uint256"
        },
        {
          "internalType": "address",
          "name": "orderId",
          "type": "address"
        },
        {
          "internalType": "uint256",
          "name": "amount",
          "type": "uint256"
        }
      ],
      "name": "createOrder",
      "outputs": [],
      "stateMutability": "nonpayable",
      "type": "function"
    },
    {
      "inputs": [],
      "name": "decimals",
      "outputs": [
        {
          "internalType": "uint8",
          "name": "",
          "type": "uint8"
        }
      ],
      "stateMutability": "view",
      "type": "function"
    },
    {
      "inputs": [
        {
          "internalType": "address",
          "name": "spender",
          "type": "address"
        },
        {
          "internalType": "uint256",
          "name": "subtractedValue",
          "type": "uint256"
        }
      ],
      "name": "decreaseAllowance",
      "outputs": [
        {
          "internalType": "bool",
          "name": "",
          "type": "bool"
        }
      ],
      "stateMutability": "nonpayable",
      "type": "function"
    },
    {
      "inputs": [
        {
          "internalType": "uint256",
          "name": "companyId",
          "type": "uint256"
        },
        {
          "internalType": "address",
          "name": "orderId",
          "type": "address"
        }
      ],
      "name": "deleteOrder",
      "outputs": [],
      "stateMutability": "nonpayable",
      "type": "function"
    },
    {
      "inputs": [
        {
          "internalType": "uint256",
          "name": "companyId",
          "type": "uint256"
        },
        {
          "internalType": "address",
          "name": "orderId",
          "type": "address"
        }
      ],
      "name": "getOrder",
      "outputs": [
        {
          "internalType": "uint256",
          "name": "",
          "type": "uint256"
        }
      ],
      "stateMutability": "view",
      "type": "function"
    },
    {
      "inputs": [
        {
          "internalType": "address",
          "name": "spender",
          "type": "address"
        },
        {
          "internalType": "uint256",
          "name": "addedValue",
          "type": "uint256"
        }
      ],
      "name": "increaseAllowance",
      "outputs": [
        {
          "internalType": "bool",
          "name": "",
          "type": "bool"
        }
      ],
      "stateMutability": "nonpayable",
      "type": "function"
    },
    {
      "inputs": [],
      "name": "initialize",
      "outputs": [],
      "stateMutability": "nonpayable",
      "type": "function"
    },
    {
      "inputs": [],
      "name": "name",
      "outputs": [
        {
          "internalType": "string",
          "name": "",
          "type": "string"
        }
      ],
      "stateMutability": "view",
      "type": "function"
    },
    {
      "inputs": [
        {
          "internalType": "address",
          "name": "",
          "type": "address"
        },
        {
          "internalType": "address",
          "name": "",
          "type": "address"
        },
        {
          "internalType": "uint256[]",
          "name": "",
          "type": "uint256[]"
        },
        {
          "internalType": "uint256[]",
          "name": "",
          "type": "uint256[]"
        },
        {
          "internalType": "bytes",
          "name": "",
          "type": "bytes"
        }
      ],
      "name": "onERC1155BatchReceived",
      "outputs": [
        {
          "internalType": "bytes4",
          "name": "",
          "type": "bytes4"
        }
      ],
      "stateMutability": "nonpayable",
      "type": "function"
    },
    {
      "inputs": [
        {
          "internalType": "address",
          "name": "",
          "type": "address"
        },
        {
          "internalType": "address",
          "name": "",
          "type": "address"
        },
        {
          "internalType": "uint256",
          "name": "",
          "type": "uint256"
        },
        {
          "internalType": "uint256",
          "name": "",
          "type": "uint256"
        },
        {
          "internalType": "bytes",
          "name": "",
          "type": "bytes"
        }
      ],
      "name": "onERC1155Received",
      "outputs": [
        {
          "internalType": "bytes4",
          "name": "",
          "type": "bytes4"
        }
      ],
      "stateMutability": "nonpayable",
      "type": "function"
    },
    {
      "inputs": [],
      "name": "owner",
      "outputs": [
        {
          "internalType": "address",
          "name": "",
          "type": "address"
        }
      ],
      "stateMutability": "view",
      "type": "function"
    },
    {
      "inputs": [],
      "name": "renounceOwnership",
      "outputs": [],
      "stateMutability": "nonpayable",
      "type": "function"
    },
    {
      "inputs": [
        {
          "internalType": "bytes4",
          "name": "interfaceId",
          "type": "bytes4"
        }
      ],
      "name": "supportsInterface",
      "outputs": [
        {
          "internalType": "bool",
          "name": "",
          "type": "bool"
        }
      ],
      "stateMutability": "view",
      "type": "function"
    },
    {
      "inputs": [],
      "name": "symbol",
      "outputs": [
        {
          "internalType": "string",
          "name": "",
          "type": "string"
        }
      ],
      "stateMutability": "view",
      "type": "function"
    },
    {
      "inputs": [],
      "name": "totalSupply",
      "outputs": [
        {
          "internalType": "uint256",
          "name": "",
          "type": "uint256"
        }
      ],
      "stateMutability": "view",
      "type": "function"
    },
    {
      "inputs": [
        {
          "internalType": "address",
          "name": "to",
          "type": "address"
        },
        {
          "internalType": "uint256",
          "name": "amount",
          "type": "uint256"
        }
      ],
      "name": "transfer",
      "outputs": [
        {
          "internalType": "bool",
          "name": "",
          "type": "bool"
        }
      ],
      "stateMutability": "nonpayable",
      "type": "function"
    },
    {
      "inputs": [
        {
          "internalType": "address",
          "name": "from",
          "type": "address"
        },
        {
          "internalType": "address",
          "name": "to",
          "type": "address"
        },
        {
          "internalType": "uint256",
          "name": "amount",
          "type": "uint256"
        }
      ],
      "name": "transferFrom",
      "outputs": [
        {
          "internalType": "bool",
          "name": "",
          "type": "bool"
        }
      ],
      "stateMutability": "nonpayable",
      "type": "function"
    },
    {
      "inputs": [
        {
          "internalType": "address",
          "name": "newOwner",
          "type": "address"
        }
      ],
      "name": "transferOwnership",
      "outputs": [],
      "stateMutability": "nonpayable",
      "type": "function"
    },
    {
      "inputs": [
        {
          "internalType": "uint256",
          "name": "companyId",
          "type": "uint256"
        },
        {
          "internalType": "address",
          "name": "orderId",
          "type": "address"
        }
      ],
      "name": "updateOrder",
      "outputs": [],
      "stateMutability": "nonpayable",
      "type": "function"
    }
  ],
  "bytecode": "0x608060405234801561001057600080fd5b506110af806100206000396000f3fe608060405234801561001057600080fd5b50600436106101425760003560e01c806395d89b41116100b8578063cbbfe1681161007c578063cbbfe168146102ad578063dbab3fd4146102c3578063dd62ed3e146102d6578063e2b91afb146102e9578063f23a6e61146102fc578063f2fde38b1461031b57600080fd5b806395d89b41146102345780639f3482411461023c578063a457c2d71461024f578063a9059cbb14610262578063bc197c811461027557600080fd5b8063313ce5671161010a578063313ce567146101bc57806339509351146101cb57806370a08231146101de578063715018a6146102075780638129fc1c146102115780638da5cb5b1461021957600080fd5b806301ffc9a71461014757806306fdde031461016f578063095ea7b31461018457806318160ddd1461019757806323b872dd146101a9575b600080fd5b61015a610155366004610b96565b61032e565b60405190151581526020015b60405180910390f35b61017761033f565b6040516101669190610bc7565b61015a610192366004610c33565b6103d1565b6035545b604051908152602001610166565b61015a6101b7366004610c5d565b6103e9565b60405160128152602001610166565b61015a6101d9366004610c33565b61040d565b61019b6101ec366004610c99565b6001600160a01b031660009081526033602052604090205490565b61020f61042f565b005b61020f61046e565b6065546040516001600160a01b039091168152602001610166565b6101776104e0565b61020f61024a366004610cb4565b6104ef565b61015a61025d366004610c33565b610534565b61015a610270366004610c33565b6105af565b610294610283366004610e17565b63bc197c8160e01b95945050505050565b6040516001600160e01b03199091168152602001610166565b61019b6102bb366004610cb4565b600092915050565b61020f6102d1366004610cb4565b6105bd565b61019b6102e4366004610ec1565b6105fa565b61020f6102f7366004610eeb565b610625565b61029461030a366004610f10565b63f23a6e6160e01b95945050505050565b61020f610329366004610c99565b610686565b60006103398261071e565b92915050565b60606036805461034e90610f75565b80601f016020809104026020016040519081016040528092919081815260200182805461037a90610f75565b80156103c75780601f1061039c576101008083540402835291602001916103c7565b820191906000526020600020905b8154815290600101906020018083116103aa57829003601f168201915b5050505050905090565b6000336103df818585610753565b5060019392505050565b6000336103f785828561086f565b6104028585856108e9565b506001949350505050565b6000336103df81858561042083836105fa565b61042a9190610fc5565b610753565b6065546001600160a01b031633146104625760405162461bcd60e51b815260040161045990610fdd565b60405180910390fd5b61046c6000610ab7565b565b600061047a6001610b09565b90508015610492576000805461ff0019166101001790555b600060975580156104dd576000805461ff0019169055604051600181527f7f26b83ff96e1f2b6a682f133852f6798a09c465da95921460cefb38474024989060200160405180910390a15b50565b60606037805461034e90610f75565b6040518281526001600160a01b0382169033907f1e32576d178bb9f0ffa4503ed9309014139974fb4906479b09dc4fa155dc9357906020015b60405180910390a35050565b6000338161054282866105fa565b9050838110156105a25760405162461bcd60e51b815260206004820152602560248201527f45524332303a2064656372656173656420616c6c6f77616e63652062656c6f77604482015264207a65726f60d81b6064820152608401610459565b6104028286868403610753565b6000336103df8185856108e9565b6040518281526001600160a01b0382169033907f6bf240ab2256d3833e32422f57b137e7ca8ed9d56e99ea2f98ee0b1f09e0d02190602001610528565b6001600160a01b03918216600090815260346020908152604080832093909416825291909152205490565b6097805490600061063583611012565b909155505060408051848152602081018390526001600160a01b0384169133917f82e670f32edc598f3763e0bfa343fa7db97cb032425cf6d1ff640a8f614a936e91015b60405180910390a3505050565b6065546001600160a01b031633146106b05760405162461bcd60e51b815260040161045990610fdd565b6001600160a01b0381166107155760405162461bcd60e51b815260206004820152602660248201527f4f776e61626c653a206e6577206f776e657220697320746865207a65726f206160448201526564647265737360d01b6064820152608401610459565b6104dd81610ab7565b60006001600160e01b03198216630271189760e51b148061033957506301ffc9a760e01b6001600160e01b0319831614610339565b6001600160a01b0383166107b55760405162461bcd60e51b8152602060048201526024808201527f45524332303a20617070726f76652066726f6d20746865207a65726f206164646044820152637265737360e01b6064820152608401610459565b6001600160a01b0382166108165760405162461bcd60e51b815260206004820152602260248201527f45524332303a20617070726f766520746f20746865207a65726f206164647265604482015261737360f01b6064820152608401610459565b6001600160a01b0383811660008181526034602090815260408083209487168084529482529182902085905590518481527f8c5be1e5ebec7d5bd14f71427d1e84f3dd0314c0f7b2291e5b200ac8c7c3b9259101610679565b600061087b84846105fa565b905060001981146108e357818110156108d65760405162461bcd60e51b815260206004820152601d60248201527f45524332303a20696e73756666696369656e7420616c6c6f77616e63650000006044820152606401610459565b6108e38484848403610753565b50505050565b6001600160a01b03831661094d5760405162461bcd60e51b815260206004820152602560248201527f45524332303a207472616e736665722066726f6d20746865207a65726f206164604482015264647265737360d81b6064820152608401610459565b6001600160a01b0382166109af5760405162461bcd60e51b815260206004820152602360248201527f45524332303a207472616e7366657220746f20746865207a65726f206164647260448201526265737360e81b6064820152608401610459565b6001600160a01b03831660009081526033602052604090205481811015610a275760405162461bcd60e51b815260206004820152602660248201527f45524332303a207472616e7366657220616d6f756e7420657863656564732062604482015265616c616e636560d01b6064820152608401610459565b6001600160a01b03808516600090815260336020526040808220858503905591851681529081208054849290610a5e908490610fc5565b92505081905550826001600160a01b0316846001600160a01b03167fddf252ad1be2c89b69c2b068fc378daa952ba7f163c4a11628f55a4df523b3ef84604051610aaa91815260200190565b60405180910390a36108e3565b606580546001600160a01b038381166001600160a01b0319831681179093556040519116919082907f8be0079c531659141344cd1fd0a4f28419497f9722a3daafe3b4186f6b6457e090600090a35050565b60008054610100900460ff1615610b50578160ff166001148015610b2c5750303b155b610b485760405162461bcd60e51b81526004016104599061102b565b506000919050565b60005460ff808416911610610b775760405162461bcd60e51b81526004016104599061102b565b506000805460ff191660ff92909216919091179055600190565b919050565b600060208284031215610ba857600080fd5b81356001600160e01b031981168114610bc057600080fd5b9392505050565b600060208083528351808285015260005b81811015610bf457858101830151858201604001528201610bd8565b81811115610c06576000604083870101525b50601f01601f1916929092016040019392505050565b80356001600160a01b0381168114610b9157600080fd5b60008060408385031215610c4657600080fd5b610c4f83610c1c565b946020939093013593505050565b600080600060608486031215610c7257600080fd5b610c7b84610c1c565b9250610c8960208501610c1c565b9150604084013590509250925092565b600060208284031215610cab57600080fd5b610bc082610c1c565b60008060408385031215610cc757600080fd5b82359150610cd760208401610c1c565b90509250929050565b634e487b7160e01b600052604160045260246000fd5b604051601f8201601f1916810167ffffffffffffffff81118282101715610d1f57610d1f610ce0565b604052919050565b600082601f830112610d3857600080fd5b8135602067ffffffffffffffff821115610d5457610d54610ce0565b8160051b610d63828201610cf6565b9283528481018201928281019087851115610d7d57600080fd5b83870192505b84831015610d9c57823582529183019190830190610d83565b979650505050505050565b600082601f830112610db857600080fd5b813567ffffffffffffffff811115610dd257610dd2610ce0565b610de5601f8201601f1916602001610cf6565b818152846020838601011115610dfa57600080fd5b816020850160208301376000918101602001919091529392505050565b600080600080600060a08688031215610e2f57600080fd5b610e3886610c1c565b9450610e4660208701610c1c565b9350604086013567ffffffffffffffff80821115610e6357600080fd5b610e6f89838a01610d27565b94506060880135915080821115610e8557600080fd5b610e9189838a01610d27565b93506080880135915080821115610ea757600080fd5b50610eb488828901610da7565b9150509295509295909350565b60008060408385031215610ed457600080fd5b610edd83610c1c565b9150610cd760208401610c1c565b600080600060608486031215610f0057600080fd5b83359250610c8960208501610c1c565b600080600080600060a08688031215610f2857600080fd5b610f3186610c1c565b9450610f3f60208701610c1c565b93506040860135925060608601359150608086013567ffffffffffffffff811115610f6957600080fd5b610eb488828901610da7565b600181811c90821680610f8957607f821691505b602082108103610fa957634e487b7160e01b600052602260045260246000fd5b50919050565b634e487b7160e01b600052601160045260246000fd5b60008219821115610fd857610fd8610faf565b500190565b6020808252818101527f4f776e61626c653a2063616c6c6572206973206e6f7420746865206f776e6572604082015260600190565b60006001820161102457611024610faf565b5060010190565b6020808252602e908201527f496e697469616c697a61626c653a20636f6e747261637420697320616c72656160408201526d191e481a5b9a5d1a585b1a5e995960921b60608201526080019056fea2646970667358221220b6167abbfe0a68e9bb76a8ed8e3ffb31763e7d70ffd68f6c7cecb55aacd8947064736f6c634300080e0033",
  "linkReferences": {},
  "deployedLinkReferences": {}
}