{
    "contractName": "MetaStocksCompanyManager",
    "abi": [
        {
            "anonymous": false,
            "inputs": [
                {
                    "indexed": true,
                    "internalType": "address",
                    "name": "owner",
                    "type": "address"
                },
                {
                    "indexed": true,
                    "internalType": "address",
                    "name": "spender",
                    "type": "address"
                },
                {
                    "indexed": false,
                    "internalType": "uint256",
                    "name": "value",
                    "type": "uint256"
                }
            ],
            "name": "Approval",
            "type": "event"
        },
        {
            "anonymous": false,
            "inputs": [
                {
                    "indexed": false,
                    "internalType": "uint8",
                    "name": "version",
                    "type": "uint8"
                }
            ],
            "name": "Initialized",
            "type": "event"
        },
        {
            "anonymous": false,
            "inputs": [
                {
                    "indexed": true,
                    "internalType": "address",
                    "name": "from",
                    "type": "address"
                },
                {
                    "indexed": true,
                    "internalType": "address",
                    "name": "to",
                    "type": "address"
                },
                {
                    "indexed": false,
                    "internalType": "uint256",
                    "name": "value",
                    "type": "uint256"
                }
            ],
            "name": "Transfer",
            "type": "event"
        },
        {
            "inputs": [
                {
                    "internalType": "address",
                    "name": "owner",
                    "type": "address"
                },
                {
                    "internalType": "address",
                    "name": "spender",
                    "type": "address"
                }
            ],
            "name": "allowance",
            "outputs": [
                {
                    "internalType": "uint256",
                    "name": "",
                    "type": "uint256"
                }
            ],
            "stateMutability": "view",
            "type": "function"
        },
        {
            "inputs": [
                {
                    "internalType": "address",
                    "name": "spender",
                    "type": "address"
                },
                {
                    "internalType": "uint256",
                    "name": "amount",
                    "type": "uint256"
                }
            ],
            "name": "approve",
            "outputs": [
                {
                    "internalType": "bool",
                    "name": "",
                    "type": "bool"
                }
            ],
            "stateMutability": "nonpayable",
            "type": "function"
        },
        {
            "inputs": [
                {
                    "internalType": "address",
                    "name": "account",
                    "type": "address"
                }
            ],
            "name": "balanceOf",
            "outputs": [
                {
                    "internalType": "uint256",
                    "name": "",
                    "type": "uint256"
                }
            ],
            "stateMutability": "view",
            "type": "function"
        },
        {
            "inputs": [
                {
                    "internalType": "address",
                    "name": "",
                    "type": "address"
                }
            ],
            "name": "ceosCompanies",
            "outputs": [
                {
                    "internalType": "uint256",
                    "name": "",
                    "type": "uint256"
                }
            ],
            "stateMutability": "view",
            "type": "function"
        },
        {
            "inputs": [],
            "name": "create",
            "outputs": [],
            "stateMutability": "payable",
            "type": "function"
        },
        {
            "inputs": [],
            "name": "decimals",
            "outputs": [
                {
                    "internalType": "uint8",
                    "name": "",
                    "type": "uint8"
                }
            ],
            "stateMutability": "view",
            "type": "function"
        },
        {
            "inputs": [
                {
                    "internalType": "address",
                    "name": "spender",
                    "type": "address"
                },
                {
                    "internalType": "uint256",
                    "name": "subtractedValue",
                    "type": "uint256"
                }
            ],
            "name": "decreaseAllowance",
            "outputs": [
                {
                    "internalType": "bool",
                    "name": "",
                    "type": "bool"
                }
            ],
            "stateMutability": "nonpayable",
            "type": "function"
        },
        {
            "inputs": [
                {
                    "internalType": "address",
                    "name": "_account",
                    "type": "address"
                }
            ],
            "name": "getCompany",
            "outputs": [
                {
                    "internalType": "uint256",
                    "name": "",
                    "type": "uint256"
                }
            ],
            "stateMutability": "view",
            "type": "function"
        },
        {
            "inputs": [
                {
                    "internalType": "address",
                    "name": "spender",
                    "type": "address"
                },
                {
                    "internalType": "uint256",
                    "name": "addedValue",
                    "type": "uint256"
                }
            ],
            "name": "increaseAllowance",
            "outputs": [
                {
                    "internalType": "bool",
                    "name": "",
                    "type": "bool"
                }
            ],
            "stateMutability": "nonpayable",
            "type": "function"
        },
        {
            "inputs": [
                {
                    "internalType": "address",
                    "name": "_MetaStocksCompanyAddress",
                    "type": "address"
                }
            ],
            "name": "initialize",
            "outputs": [],
            "stateMutability": "nonpayable",
            "type": "function"
        },
        {
            "inputs": [
                {
                    "internalType": "address",
                    "name": "_account",
                    "type": "address"
                }
            ],
            "name": "isCeo",
            "outputs": [
                {
                    "internalType": "bool",
                    "name": "",
                    "type": "bool"
                }
            ],
            "stateMutability": "view",
            "type": "function"
        },
        {
            "inputs": [],
            "name": "name",
            "outputs": [
                {
                    "internalType": "string",
                    "name": "",
                    "type": "string"
                }
            ],
            "stateMutability": "view",
            "type": "function"
        },
        {
            "inputs": [
                {
                    "internalType": "uint256",
                    "name": "companyId",
                    "type": "uint256"
                }
            ],
            "name": "remove",
            "outputs": [],
            "stateMutability": "nonpayable",
            "type": "function"
        },
        {
            "inputs": [],
            "name": "symbol",
            "outputs": [
                {
                    "internalType": "string",
                    "name": "",
                    "type": "string"
                }
            ],
            "stateMutability": "view",
            "type": "function"
        },
        {
            "inputs": [],
            "name": "totalSupply",
            "outputs": [
                {
                    "internalType": "uint256",
                    "name": "",
                    "type": "uint256"
                }
            ],
            "stateMutability": "view",
            "type": "function"
        },
        {
            "inputs": [
                {
                    "internalType": "address",
                    "name": "to",
                    "type": "address"
                },
                {
                    "internalType": "uint256",
                    "name": "amount",
                    "type": "uint256"
                }
            ],
            "name": "transfer",
            "outputs": [
                {
                    "internalType": "bool",
                    "name": "",
                    "type": "bool"
                }
            ],
            "stateMutability": "nonpayable",
            "type": "function"
        },
        {
            "inputs": [
                {
                    "internalType": "address",
                    "name": "from",
                    "type": "address"
                },
                {
                    "internalType": "address",
                    "name": "to",
                    "type": "address"
                },
                {
                    "internalType": "uint256",
                    "name": "amount",
                    "type": "uint256"
                }
            ],
            "name": "transferFrom",
            "outputs": [
                {
                    "internalType": "bool",
                    "name": "",
                    "type": "bool"
                }
            ],
            "stateMutability": "nonpayable",
            "type": "function"
        },
        {
            "inputs": [
                {
                    "internalType": "uint256",
                    "name": "managerId",
                    "type": "uint256"
                }
            ],
            "name": "update",
            "outputs": [],
            "stateMutability": "nonpayable",
            "type": "function"
        }
    ],
    "bytecode": "608060405234801561001057600080fd5b50610cc2806100206000396000f3fe6080604052600436106101095760003560e01c806362bc56e611610095578063a457c2d711610064578063a457c2d7146102ea578063a9059cbb1461030a578063c4d66de81461032a578063dd62ed3e1461034a578063efc81a8c1461036a57600080fd5b806362bc56e61461026957806370a082311461029f57806382ab890a1461024957806395d89b41146102d557600080fd5b806321203038116100dc57806321203038146101c057806323b872dd146101ed578063313ce5671461020d57806339509351146102295780634cc822151461024957600080fd5b806306fdde031461010e578063095ea7b3146101395780631165e6ab1461016957806318160ddd146101a1575b600080fd5b34801561011a57600080fd5b50610123610372565b6040516101309190610a85565b60405180910390f35b34801561014557600080fd5b50610159610154366004610af1565b610404565b6040519015158152602001610130565b34801561017557600080fd5b50610159610184366004610b1b565b6001600160a01b0316600090815260676020526040902054151590565b3480156101ad57600080fd5b506035545b604051908152602001610130565b3480156101cc57600080fd5b506101b26101db366004610b1b565b60676020526000908152604090205481565b3480156101f957600080fd5b50610159610208366004610b3d565b61041c565b34801561021957600080fd5b5060405160128152602001610130565b34801561023557600080fd5b50610159610244366004610af1565b610440565b34801561025557600080fd5b50610267610264366004610b79565b50565b005b34801561027557600080fd5b506101b2610284366004610b1b565b6001600160a01b031660009081526067602052604090205490565b3480156102ab57600080fd5b506101b26102ba366004610b1b565b6001600160a01b031660009081526033602052604090205490565b3480156102e157600080fd5b50610123610462565b3480156102f657600080fd5b50610159610305366004610af1565b610471565b34801561031657600080fd5b50610159610325366004610af1565b6104f1565b34801561033657600080fd5b50610267610345366004610b1b565b6104ff565b34801561035657600080fd5b506101b2610365366004610b92565b610594565b6102676105bf565b60606036805461038190610bc5565b80601f01602080910402602001604051908101604052809291908181526020018280546103ad90610bc5565b80156103fa5780601f106103cf576101008083540402835291602001916103fa565b820191906000526020600020905b8154815290600101906020018083116103dd57829003601f168201915b5050505050905090565b60003361041281858561068c565b5060019392505050565b60003361042a8582856107b0565b61043585858561082a565b506001949350505050565b6000336104128185856104538383610594565b61045d9190610bff565b61068c565b60606037805461038190610bc5565b6000338161047f8286610594565b9050838110156104e45760405162461bcd60e51b815260206004820152602560248201527f45524332303a2064656372656173656420616c6c6f77616e63652062656c6f77604482015264207a65726f60d81b60648201526084015b60405180910390fd5b610435828686840361068c565b60003361041281858561082a565b600061050b60016109f8565b90508015610523576000805461ff0019166101001790555b670de0b6b3a7640000606655606580546001600160a01b0319166001600160a01b0384161790558015610590576000805461ff0019169055604051600181527f7f26b83ff96e1f2b6a682f133852f6798a09c465da95921460cefb38474024989060200160405180910390a15b5050565b6001600160a01b03918216600090815260346020908152604080832093909416825291909152205490565b336000908152606760205260409020541561060c5760405162461bcd60e51b815260206004820152600d60248201526c4d617820436f6d70616e69657360981b60448201526064016104db565b6065546040516340d097c360e01b81523360048201526001600160a01b03909116906340d097c3906024016020604051808303816000875af1158015610656573d6000803e3d6000fd5b505050506040513d601f19601f8201168201806040525081019061067a9190610c25565b33600090815260676020526040902055565b6001600160a01b0383166106ee5760405162461bcd60e51b8152602060048201526024808201527f45524332303a20617070726f76652066726f6d20746865207a65726f206164646044820152637265737360e01b60648201526084016104db565b6001600160a01b03821661074f5760405162461bcd60e51b815260206004820152602260248201527f45524332303a20617070726f766520746f20746865207a65726f206164647265604482015261737360f01b60648201526084016104db565b6001600160a01b0383811660008181526034602090815260408083209487168084529482529182902085905590518481527f8c5be1e5ebec7d5bd14f71427d1e84f3dd0314c0f7b2291e5b200ac8c7c3b925910160405180910390a3505050565b60006107bc8484610594565b9050600019811461082457818110156108175760405162461bcd60e51b815260206004820152601d60248201527f45524332303a20696e73756666696369656e7420616c6c6f77616e636500000060448201526064016104db565b610824848484840361068c565b50505050565b6001600160a01b03831661088e5760405162461bcd60e51b815260206004820152602560248201527f45524332303a207472616e736665722066726f6d20746865207a65726f206164604482015264647265737360d81b60648201526084016104db565b6001600160a01b0382166108f05760405162461bcd60e51b815260206004820152602360248201527f45524332303a207472616e7366657220746f20746865207a65726f206164647260448201526265737360e81b60648201526084016104db565b6001600160a01b038316600090815260336020526040902054818110156109685760405162461bcd60e51b815260206004820152602660248201527f45524332303a207472616e7366657220616d6f756e7420657863656564732062604482015265616c616e636560d01b60648201526084016104db565b6001600160a01b0380851660009081526033602052604080822085850390559185168152908120805484929061099f908490610bff565b92505081905550826001600160a01b0316846001600160a01b03167fddf252ad1be2c89b69c2b068fc378daa952ba7f163c4a11628f55a4df523b3ef846040516109eb91815260200190565b60405180910390a3610824565b60008054610100900460ff1615610a3f578160ff166001148015610a1b5750303b155b610a375760405162461bcd60e51b81526004016104db90610c3e565b506000919050565b60005460ff808416911610610a665760405162461bcd60e51b81526004016104db90610c3e565b506000805460ff191660ff92909216919091179055600190565b919050565b600060208083528351808285015260005b81811015610ab257858101830151858201604001528201610a96565b81811115610ac4576000604083870101525b50601f01601f1916929092016040019392505050565b80356001600160a01b0381168114610a8057600080fd5b60008060408385031215610b0457600080fd5b610b0d83610ada565b946020939093013593505050565b600060208284031215610b2d57600080fd5b610b3682610ada565b9392505050565b600080600060608486031215610b5257600080fd5b610b5b84610ada565b9250610b6960208501610ada565b9150604084013590509250925092565b600060208284031215610b8b57600080fd5b5035919050565b60008060408385031215610ba557600080fd5b610bae83610ada565b9150610bbc60208401610ada565b90509250929050565b600181811c90821680610bd957607f821691505b602082108103610bf957634e487b7160e01b600052602260045260246000fd5b50919050565b60008219821115610c2057634e487b7160e01b600052601160045260246000fd5b500190565b600060208284031215610c3757600080fd5b5051919050565b6020808252602e908201527f496e697469616c697a61626c653a20636f6e747261637420697320616c72656160408201526d191e481a5b9a5d1a585b1a5e995960921b60608201526080019056fea2646970667358221220001e3e232c55125bb251b0b0f366924c6ec1324aa2bac9d07a293650748f733d64736f6c634300080e0033",
    "sourcePath": "/home/nkt/Desktop/metaStoksContracts/contracts/managers/metaStocksManager/MetaStocksCompanyManager.sol",
    "compiler": {
        "name": "solc",
        "version": "0.8.14+commit.80d49f37"
    },
    "functionHashes": {
        "allowance(address,address)": "dd62ed3e",
        "approve(address,uint256)": "095ea7b3",
        "balanceOf(address)": "70a08231",
        "ceosCompanies(address)": "21203038",
        "create()": "efc81a8c",
        "decimals()": "313ce567",
        "decreaseAllowance(address,uint256)": "a457c2d7",
        "getCompany(address)": "62bc56e6",
        "increaseAllowance(address,uint256)": "39509351",
        "initialize(address)": "c4d66de8",
        "isCeo(address)": "1165e6ab",
        "name()": "06fdde03",
        "remove(uint256)": "4cc82215",
        "symbol()": "95d89b41",
        "totalSupply()": "18160ddd",
        "transfer(address,uint256)": "a9059cbb",
        "transferFrom(address,address,uint256)": "23b872dd",
        "update(uint256)": "82ab890a"
    },
    "gasEstimates": {
        "creation": {
            "codeDepositCost": "653200",
            "executionCost": "689",
            "totalCost": "653889"
        },
        "external": {
            "allowance(address,address)": "infinite",
            "approve(address,uint256)": "24647",
            "balanceOf(address)": "2582",
            "ceosCompanies(address)": "2542",
            "create()": "infinite",
            "decimals()": "244",
            "decreaseAllowance(address,uint256)": "26972",
            "getCompany(address)": "2560",
            "increaseAllowance(address,uint256)": "27067",
            "initialize(address)": "124837",
            "isCeo(address)": "2617",
            "name()": "infinite",
            "remove(uint256)": "322",
            "symbol()": "infinite",
            "totalSupply()": "2371",
            "transfer(address,uint256)": "51220",
            "transferFrom(address,address,uint256)": "infinite",
            "update(uint256)": "278"
        }
    }
}