{
    "contractName": "MetaStockFranchiseManager",
    "abi": [
        {
            "anonymous": false,
            "inputs": [
                {
                    "indexed": true,
                    "internalType": "address",
                    "name": "owner",
                    "type": "address"
                },
                {
                    "indexed": true,
                    "internalType": "address",
                    "name": "spender",
                    "type": "address"
                },
                {
                    "indexed": false,
                    "internalType": "uint256",
                    "name": "value",
                    "type": "uint256"
                }
            ],
            "name": "Approval",
            "type": "event"
        },
        {
            "anonymous": false,
            "inputs": [
                {
                    "indexed": false,
                    "internalType": "uint8",
                    "name": "version",
                    "type": "uint8"
                }
            ],
            "name": "Initialized",
            "type": "event"
        },
        {
            "anonymous": false,
            "inputs": [
                {
                    "indexed": true,
                    "internalType": "address",
                    "name": "from",
                    "type": "address"
                },
                {
                    "indexed": true,
                    "internalType": "address",
                    "name": "to",
                    "type": "address"
                },
                {
                    "indexed": false,
                    "internalType": "uint256",
                    "name": "value",
                    "type": "uint256"
                }
            ],
            "name": "Transfer",
            "type": "event"
        },
        {
            "inputs": [
                {
                    "internalType": "address",
                    "name": "owner",
                    "type": "address"
                },
                {
                    "internalType": "address",
                    "name": "spender",
                    "type": "address"
                }
            ],
            "name": "allowance",
            "outputs": [
                {
                    "internalType": "uint256",
                    "name": "",
                    "type": "uint256"
                }
            ],
            "stateMutability": "view",
            "type": "function"
        },
        {
            "inputs": [
                {
                    "internalType": "address",
                    "name": "spender",
                    "type": "address"
                },
                {
                    "internalType": "uint256",
                    "name": "amount",
                    "type": "uint256"
                }
            ],
            "name": "approve",
            "outputs": [
                {
                    "internalType": "bool",
                    "name": "",
                    "type": "bool"
                }
            ],
            "stateMutability": "nonpayable",
            "type": "function"
        },
        {
            "inputs": [
                {
                    "internalType": "address",
                    "name": "account",
                    "type": "address"
                }
            ],
            "name": "balanceOf",
            "outputs": [
                {
                    "internalType": "uint256",
                    "name": "",
                    "type": "uint256"
                }
            ],
            "stateMutability": "view",
            "type": "function"
        },
        {
            "inputs": [],
            "name": "create",
            "outputs": [],
            "stateMutability": "payable",
            "type": "function"
        },
        {
            "inputs": [],
            "name": "decimals",
            "outputs": [
                {
                    "internalType": "uint8",
                    "name": "",
                    "type": "uint8"
                }
            ],
            "stateMutability": "view",
            "type": "function"
        },
        {
            "inputs": [
                {
                    "internalType": "address",
                    "name": "spender",
                    "type": "address"
                },
                {
                    "internalType": "uint256",
                    "name": "subtractedValue",
                    "type": "uint256"
                }
            ],
            "name": "decreaseAllowance",
            "outputs": [
                {
                    "internalType": "bool",
                    "name": "",
                    "type": "bool"
                }
            ],
            "stateMutability": "nonpayable",
            "type": "function"
        },
        {
            "inputs": [
                {
                    "internalType": "address",
                    "name": "_account",
                    "type": "address"
                }
            ],
            "name": "get",
            "outputs": [
                {
                    "internalType": "address",
                    "name": "",
                    "type": "address"
                }
            ],
            "stateMutability": "view",
            "type": "function"
        },
        {
            "inputs": [
                {
                    "internalType": "address",
                    "name": "spender",
                    "type": "address"
                },
                {
                    "internalType": "uint256",
                    "name": "addedValue",
                    "type": "uint256"
                }
            ],
            "name": "increaseAllowance",
            "outputs": [
                {
                    "internalType": "bool",
                    "name": "",
                    "type": "bool"
                }
            ],
            "stateMutability": "nonpayable",
            "type": "function"
        },
        {
            "inputs": [
                {
                    "internalType": "address",
                    "name": "",
                    "type": "address"
                }
            ],
            "name": "lastClaimDate",
            "outputs": [
                {
                    "internalType": "uint256",
                    "name": "",
                    "type": "uint256"
                }
            ],
            "stateMutability": "view",
            "type": "function"
        },
        {
            "inputs": [],
            "name": "name",
            "outputs": [
                {
                    "internalType": "string",
                    "name": "",
                    "type": "string"
                }
            ],
            "stateMutability": "view",
            "type": "function"
        },
        {
            "inputs": [
                {
                    "internalType": "uint256",
                    "name": "managerId",
                    "type": "uint256"
                }
            ],
            "name": "remove",
            "outputs": [],
            "stateMutability": "nonpayable",
            "type": "function"
        },
        {
            "inputs": [],
            "name": "symbol",
            "outputs": [
                {
                    "internalType": "string",
                    "name": "",
                    "type": "string"
                }
            ],
            "stateMutability": "view",
            "type": "function"
        },
        {
            "inputs": [],
            "name": "totalSupply",
            "outputs": [
                {
                    "internalType": "uint256",
                    "name": "",
                    "type": "uint256"
                }
            ],
            "stateMutability": "view",
            "type": "function"
        },
        {
            "inputs": [
                {
                    "internalType": "address",
                    "name": "to",
                    "type": "address"
                },
                {
                    "internalType": "uint256",
                    "name": "amount",
                    "type": "uint256"
                }
            ],
            "name": "transfer",
            "outputs": [
                {
                    "internalType": "bool",
                    "name": "",
                    "type": "bool"
                }
            ],
            "stateMutability": "nonpayable",
            "type": "function"
        },
        {
            "inputs": [
                {
                    "internalType": "address",
                    "name": "from",
                    "type": "address"
                },
                {
                    "internalType": "address",
                    "name": "to",
                    "type": "address"
                },
                {
                    "internalType": "uint256",
                    "name": "amount",
                    "type": "uint256"
                }
            ],
            "name": "transferFrom",
            "outputs": [
                {
                    "internalType": "bool",
                    "name": "",
                    "type": "bool"
                }
            ],
            "stateMutability": "nonpayable",
            "type": "function"
        },
        {
            "inputs": [
                {
                    "internalType": "uint256",
                    "name": "managerId",
                    "type": "uint256"
                }
            ],
            "name": "update",
            "outputs": [],
            "stateMutability": "nonpayable",
            "type": "function"
        }
    ],
    "bytecode": "608060405234801561001057600080fd5b506109fe806100206000396000f3fe6080604052600436106100f35760003560e01c806370a082311161008a578063a9059cbb11610059578063a9059cbb14610286578063c2bc2efc146102a6578063dd62ed3e146102df578063efc81a8c146101ec57600080fd5b806370a082311461021b57806382ab890a146101ce57806395d89b4114610251578063a457c2d71461026657600080fd5b8063313ce567116100c6578063313ce5671461019257806339509351146101ae5780634cc82215146101ce5780636052ccb0146101ee57600080fd5b806306fdde03146100f8578063095ea7b31461012357806318160ddd1461015357806323b872dd14610172575b600080fd5b34801561010457600080fd5b5061010d6102ff565b60405161011a9190610823565b60405180910390f35b34801561012f57600080fd5b5061014361013e366004610894565b610391565b604051901515815260200161011a565b34801561015f57600080fd5b506035545b60405190815260200161011a565b34801561017e57600080fd5b5061014361018d3660046108be565b6103a9565b34801561019e57600080fd5b506040516012815260200161011a565b3480156101ba57600080fd5b506101436101c9366004610894565b6103cd565b3480156101da57600080fd5b506101ec6101e93660046108fa565b50565b005b3480156101fa57600080fd5b50610164610209366004610913565b60656020526000908152604090205481565b34801561022757600080fd5b50610164610236366004610913565b6001600160a01b031660009081526033602052604090205490565b34801561025d57600080fd5b5061010d6103ef565b34801561027257600080fd5b50610143610281366004610894565b6103fe565b34801561029257600080fd5b506101436102a1366004610894565b61047e565b3480156102b257600080fd5b506102c76102c1366004610913565b50600090565b6040516001600160a01b03909116815260200161011a565b3480156102eb57600080fd5b506101646102fa366004610935565b61048c565b60606036805461030e90610968565b80601f016020809104026020016040519081016040528092919081815260200182805461033a90610968565b80156103875780601f1061035c57610100808354040283529160200191610387565b820191906000526020600020905b81548152906001019060200180831161036a57829003601f168201915b5050505050905090565b60003361039f8185856104b7565b5060019392505050565b6000336103b78582856105db565b6103c2858585610655565b506001949350505050565b60003361039f8185856103e0838361048c565b6103ea91906109a2565b6104b7565b60606037805461030e90610968565b6000338161040c828661048c565b9050838110156104715760405162461bcd60e51b815260206004820152602560248201527f45524332303a2064656372656173656420616c6c6f77616e63652062656c6f77604482015264207a65726f60d81b60648201526084015b60405180910390fd5b6103c282868684036104b7565b60003361039f818585610655565b6001600160a01b03918216600090815260346020908152604080832093909416825291909152205490565b6001600160a01b0383166105195760405162461bcd60e51b8152602060048201526024808201527f45524332303a20617070726f76652066726f6d20746865207a65726f206164646044820152637265737360e01b6064820152608401610468565b6001600160a01b03821661057a5760405162461bcd60e51b815260206004820152602260248201527f45524332303a20617070726f766520746f20746865207a65726f206164647265604482015261737360f01b6064820152608401610468565b6001600160a01b0383811660008181526034602090815260408083209487168084529482529182902085905590518481527f8c5be1e5ebec7d5bd14f71427d1e84f3dd0314c0f7b2291e5b200ac8c7c3b925910160405180910390a3505050565b60006105e7848461048c565b9050600019811461064f57818110156106425760405162461bcd60e51b815260206004820152601d60248201527f45524332303a20696e73756666696369656e7420616c6c6f77616e63650000006044820152606401610468565b61064f84848484036104b7565b50505050565b6001600160a01b0383166106b95760405162461bcd60e51b815260206004820152602560248201527f45524332303a207472616e736665722066726f6d20746865207a65726f206164604482015264647265737360d81b6064820152608401610468565b6001600160a01b03821661071b5760405162461bcd60e51b815260206004820152602360248201527f45524332303a207472616e7366657220746f20746865207a65726f206164647260448201526265737360e81b6064820152608401610468565b6001600160a01b038316600090815260336020526040902054818110156107935760405162461bcd60e51b815260206004820152602660248201527f45524332303a207472616e7366657220616d6f756e7420657863656564732062604482015265616c616e636560d01b6064820152608401610468565b6001600160a01b038085166000908152603360205260408082208585039055918516815290812080548492906107ca9084906109a2565b92505081905550826001600160a01b0316846001600160a01b03167fddf252ad1be2c89b69c2b068fc378daa952ba7f163c4a11628f55a4df523b3ef8460405161081691815260200190565b60405180910390a361064f565b600060208083528351808285015260005b8181101561085057858101830151858201604001528201610834565b81811115610862576000604083870101525b50601f01601f1916929092016040019392505050565b80356001600160a01b038116811461088f57600080fd5b919050565b600080604083850312156108a757600080fd5b6108b083610878565b946020939093013593505050565b6000806000606084860312156108d357600080fd5b6108dc84610878565b92506108ea60208501610878565b9150604084013590509250925092565b60006020828403121561090c57600080fd5b5035919050565b60006020828403121561092557600080fd5b61092e82610878565b9392505050565b6000806040838503121561094857600080fd5b61095183610878565b915061095f60208401610878565b90509250929050565b600181811c9082168061097c57607f821691505b60208210810361099c57634e487b7160e01b600052602260045260246000fd5b50919050565b600082198211156109c357634e487b7160e01b600052601160045260246000fd5b50019056fea264697066735822122028705e8cf5724d10017bf4f223b00118e1344c4293ebe96fcffe7cb6e61a938c64736f6c634300080e0033",
    "sourcePath": "/home/nkt/Desktop/metaStoksContracts/contracts/managers/metaStocksManager/MetaStockFranchiseManager.sol",
    "compiler": {
        "name": "solc",
        "version": "0.8.14+commit.80d49f37"
    },
    "functionHashes": {
        "allowance(address,address)": "dd62ed3e",
        "approve(address,uint256)": "095ea7b3",
        "balanceOf(address)": "70a08231",
        "create()": "efc81a8c",
        "decimals()": "313ce567",
        "decreaseAllowance(address,uint256)": "a457c2d7",
        "get(address)": "c2bc2efc",
        "increaseAllowance(address,uint256)": "39509351",
        "lastClaimDate(address)": "6052ccb0",
        "name()": "06fdde03",
        "remove(uint256)": "4cc82215",
        "symbol()": "95d89b41",
        "totalSupply()": "18160ddd",
        "transfer(address,uint256)": "a9059cbb",
        "transferFrom(address,address,uint256)": "23b872dd",
        "update(uint256)": "82ab890a"
    },
    "gasEstimates": {
        "creation": {
            "codeDepositCost": "511600",
            "executionCost": "543",
            "totalCost": "512143"
        },
        "external": {
            "allowance(address,address)": "infinite",
            "approve(address,uint256)": "24647",
            "balanceOf(address)": "2560",
            "create()": "184",
            "decimals()": "200",
            "decreaseAllowance(address,uint256)": "27039",
            "get(address)": "420",
            "increaseAllowance(address,uint256)": "27023",
            "lastClaimDate(address)": "2608",
            "name()": "infinite",
            "remove(uint256)": "278",
            "symbol()": "infinite",
            "totalSupply()": "2349",
            "transfer(address,uint256)": "51198",
            "transferFrom(address,address,uint256)": "infinite",
            "update(uint256)": "256"
        }
    }
}